{
  "_format": "hh-sol-artifact-1",
  "contractName": "AirDrop",
  "sourceName": "contracts/AirDrop.sol",
  "abi": [
    {
      "inputs": [
        {
          "internalType": "string",
          "name": "name",
          "type": "string"
        },
        {
          "internalType": "string",
          "name": "symbol",
          "type": "string"
        },
        {
          "internalType": "address",
          "name": "_quote",
          "type": "address"
        },
        {
          "internalType": "address",
          "name": "_payment",
          "type": "address"
        },
        {
          "internalType": "address",
          "name": "_treasury",
          "type": "address"
        },
        {
          "internalType": "uint256[]",
          "name": "configValues",
          "type": "uint256[]"
        }
      ],
      "stateMutability": "nonpayable",
      "type": "constructor"
    },
    {
      "anonymous": false,
      "inputs": [
        {
          "indexed": true,
          "internalType": "address",
          "name": "owner",
          "type": "address"
        },
        {
          "indexed": true,
          "internalType": "address",
          "name": "approved",
          "type": "address"
        },
        {
          "indexed": true,
          "internalType": "uint256",
          "name": "tokenId",
          "type": "uint256"
        }
      ],
      "name": "Approval",
      "type": "event"
    },
    {
      "anonymous": false,
      "inputs": [
        {
          "indexed": true,
          "internalType": "address",
          "name": "owner",
          "type": "address"
        },
        {
          "indexed": true,
          "internalType": "address",
          "name": "operator",
          "type": "address"
        },
        {
          "indexed": false,
          "internalType": "bool",
          "name": "approved",
          "type": "bool"
        }
      ],
      "name": "ApprovalForAll",
      "type": "event"
    },
    {
      "anonymous": false,
      "inputs": [
        {
          "indexed": false,
          "internalType": "address",
          "name": "",
          "type": "address"
        },
        {
          "indexed": false,
          "internalType": "string",
          "name": "",
          "type": "string"
        }
      ],
      "name": "Grant",
      "type": "event"
    },
    {
      "anonymous": false,
      "inputs": [
        {
          "indexed": true,
          "internalType": "address",
          "name": "previousOwner",
          "type": "address"
        },
        {
          "indexed": true,
          "internalType": "address",
          "name": "newOwner",
          "type": "address"
        }
      ],
      "name": "OwnershipTransferred",
      "type": "event"
    },
    {
      "anonymous": false,
      "inputs": [
        {
          "indexed": false,
          "internalType": "address",
          "name": "account",
          "type": "address"
        }
      ],
      "name": "Paused",
      "type": "event"
    },
    {
      "anonymous": false,
      "inputs": [
        {
          "indexed": true,
          "internalType": "bytes32",
          "name": "role",
          "type": "bytes32"
        },
        {
          "indexed": true,
          "internalType": "bytes32",
          "name": "previousAdminRole",
          "type": "bytes32"
        },
        {
          "indexed": true,
          "internalType": "bytes32",
          "name": "newAdminRole",
          "type": "bytes32"
        }
      ],
      "name": "RoleAdminChanged",
      "type": "event"
    },
    {
      "anonymous": false,
      "inputs": [
        {
          "indexed": true,
          "internalType": "bytes32",
          "name": "role",
          "type": "bytes32"
        },
        {
          "indexed": true,
          "internalType": "address",
          "name": "account",
          "type": "address"
        },
        {
          "indexed": true,
          "internalType": "address",
          "name": "sender",
          "type": "address"
        }
      ],
      "name": "RoleGranted",
      "type": "event"
    },
    {
      "anonymous": false,
      "inputs": [
        {
          "indexed": true,
          "internalType": "bytes32",
          "name": "role",
          "type": "bytes32"
        },
        {
          "indexed": true,
          "internalType": "address",
          "name": "account",
          "type": "address"
        },
        {
          "indexed": true,
          "internalType": "address",
          "name": "sender",
          "type": "address"
        }
      ],
      "name": "RoleRevoked",
      "type": "event"
    },
    {
      "anonymous": false,
      "inputs": [
        {
          "indexed": false,
          "internalType": "address",
          "name": "",
          "type": "address"
        },
        {
          "indexed": false,
          "internalType": "address",
          "name": "",
          "type": "address"
        },
        {
          "indexed": false,
          "internalType": "uint256",
          "name": "",
          "type": "uint256"
        }
      ],
      "name": "SetConfig",
      "type": "event"
    },
    {
      "anonymous": false,
      "inputs": [
        {
          "indexed": false,
          "internalType": "uint256",
          "name": "",
          "type": "uint256"
        }
      ],
      "name": "SetHardCap",
      "type": "event"
    },
    {
      "anonymous": false,
      "inputs": [
        {
          "indexed": false,
          "internalType": "uint256",
          "name": "",
          "type": "uint256"
        }
      ],
      "name": "SetLaunch",
      "type": "event"
    },
    {
      "anonymous": false,
      "inputs": [
        {
          "indexed": false,
          "internalType": "uint256",
          "name": "",
          "type": "uint256"
        }
      ],
      "name": "SetLockup",
      "type": "event"
    },
    {
      "anonymous": false,
      "inputs": [
        {
          "indexed": false,
          "internalType": "address",
          "name": "",
          "type": "address"
        }
      ],
      "name": "SetMysteryBox",
      "type": "event"
    },
    {
      "anonymous": false,
      "inputs": [
        {
          "indexed": false,
          "internalType": "address",
          "name": "",
          "type": "address"
        }
      ],
      "name": "SetQuote",
      "type": "event"
    },
    {
      "anonymous": false,
      "inputs": [
        {
          "indexed": true,
          "internalType": "address",
          "name": "from",
          "type": "address"
        },
        {
          "indexed": true,
          "internalType": "address",
          "name": "to",
          "type": "address"
        },
        {
          "indexed": true,
          "internalType": "uint256",
          "name": "tokenId",
          "type": "uint256"
        }
      ],
      "name": "Transfer",
      "type": "event"
    },
    {
      "anonymous": false,
      "inputs": [
        {
          "indexed": false,
          "internalType": "address",
          "name": "account",
          "type": "address"
        }
      ],
      "name": "Unpaused",
      "type": "event"
    },
    {
      "inputs": [],
      "name": "DEFAULT_ADMIN_ROLE",
      "outputs": [
        {
          "internalType": "bytes32",
          "name": "",
          "type": "bytes32"
        }
      ],
      "stateMutability": "view",
      "type": "function"
    },
    {
      "inputs": [],
      "name": "MINTER_ROLE",
      "outputs": [
        {
          "internalType": "bytes32",
          "name": "",
          "type": "bytes32"
        }
      ],
      "stateMutability": "view",
      "type": "function"
    },
    {
      "inputs": [],
      "name": "PAUSER_ROLE",
      "outputs": [
        {
          "internalType": "bytes32",
          "name": "",
          "type": "bytes32"
        }
      ],
      "stateMutability": "view",
      "type": "function"
    },
    {
      "inputs": [
        {
          "internalType": "address",
          "name": "minter",
          "type": "address"
        }
      ],
      "name": "addMinter",
      "outputs": [],
      "stateMutability": "nonpayable",
      "type": "function"
    },
    {
      "inputs": [
        {
          "internalType": "address",
          "name": "pauser",
          "type": "address"
        }
      ],
      "name": "addPauser",
      "outputs": [],
      "stateMutability": "nonpayable",
      "type": "function"
    },
    {
      "inputs": [],
      "name": "andOr",
      "outputs": [
        {
          "internalType": "bool",
          "name": "",
          "type": "bool"
        }
      ],
      "stateMutability": "view",
      "type": "function"
    },
    {
      "inputs": [
        {
          "internalType": "address",
          "name": "to",
          "type": "address"
        },
        {
          "internalType": "uint256",
          "name": "tokenId",
          "type": "uint256"
        }
      ],
      "name": "approve",
      "outputs": [],
      "stateMutability": "nonpayable",
      "type": "function"
    },
    {
      "inputs": [
        {
          "internalType": "address",
          "name": "owner",
          "type": "address"
        }
      ],
      "name": "balanceOf",
      "outputs": [
        {
          "internalType": "uint256",
          "name": "",
          "type": "uint256"
        }
      ],
      "stateMutability": "view",
      "type": "function"
    },
    {
      "inputs": [
        {
          "internalType": "uint256",
          "name": "tokenId",
          "type": "uint256"
        }
      ],
      "name": "burn",
      "outputs": [],
      "stateMutability": "nonpayable",
      "type": "function"
    },
    {
      "inputs": [],
      "name": "claim",
      "outputs": [],
      "stateMutability": "nonpayable",
      "type": "function"
    },
    {
      "inputs": [],
      "name": "feeRate",
      "outputs": [
        {
          "internalType": "uint256",
          "name": "",
          "type": "uint256"
        }
      ],
      "stateMutability": "view",
      "type": "function"
    },
    {
      "inputs": [],
      "name": "flagMandatory",
      "outputs": [
        {
          "internalType": "bool",
          "name": "",
          "type": "bool"
        }
      ],
      "stateMutability": "view",
      "type": "function"
    },
    {
      "inputs": [
        {
          "internalType": "uint256",
          "name": "tokenId",
          "type": "uint256"
        }
      ],
      "name": "getApproved",
      "outputs": [
        {
          "internalType": "address",
          "name": "",
          "type": "address"
        }
      ],
      "stateMutability": "view",
      "type": "function"
    },
    {
      "inputs": [],
      "name": "getItemRemains",
      "outputs": [
        {
          "internalType": "uint256",
          "name": "",
          "type": "uint256"
        }
      ],
      "stateMutability": "view",
      "type": "function"
    },
    {
      "inputs": [
        {
          "internalType": "bytes32",
          "name": "role",
          "type": "bytes32"
        }
      ],
      "name": "getRoleAdmin",
      "outputs": [
        {
          "internalType": "bytes32",
          "name": "",
          "type": "bytes32"
        }
      ],
      "stateMutability": "view",
      "type": "function"
    },
    {
      "inputs": [],
      "name": "globalURI",
      "outputs": [
        {
          "internalType": "string",
          "name": "",
          "type": "string"
        }
      ],
      "stateMutability": "view",
      "type": "function"
    },
    {
      "inputs": [
        {
          "internalType": "bytes32",
          "name": "role",
          "type": "bytes32"
        },
        {
          "internalType": "address",
          "name": "account",
          "type": "address"
        }
      ],
      "name": "grantRole",
      "outputs": [],
      "stateMutability": "nonpayable",
      "type": "function"
    },
    {
      "inputs": [],
      "name": "hardCap",
      "outputs": [
        {
          "internalType": "uint256",
          "name": "",
          "type": "uint256"
        }
      ],
      "stateMutability": "view",
      "type": "function"
    },
    {
      "inputs": [
        {
          "internalType": "bytes32",
          "name": "role",
          "type": "bytes32"
        },
        {
          "internalType": "address",
          "name": "account",
          "type": "address"
        }
      ],
      "name": "hasRole",
      "outputs": [
        {
          "internalType": "bool",
          "name": "",
          "type": "bool"
        }
      ],
      "stateMutability": "view",
      "type": "function"
    },
    {
      "inputs": [
        {
          "internalType": "address",
          "name": "owner",
          "type": "address"
        },
        {
          "internalType": "address",
          "name": "operator",
          "type": "address"
        }
      ],
      "name": "isApprovedForAll",
      "outputs": [
        {
          "internalType": "bool",
          "name": "",
          "type": "bool"
        }
      ],
      "stateMutability": "view",
      "type": "function"
    },
    {
      "inputs": [
        {
          "internalType": "uint256",
          "name": "",
          "type": "uint256"
        }
      ],
      "name": "itemAmounts",
      "outputs": [
        {
          "internalType": "uint256",
          "name": "",
          "type": "uint256"
        }
      ],
      "stateMutability": "view",
      "type": "function"
    },
    {
      "inputs": [
        {
          "internalType": "uint256",
          "name": "",
          "type": "uint256"
        }
      ],
      "name": "itemSolds",
      "outputs": [
        {
          "internalType": "uint256",
          "name": "",
          "type": "uint256"
        }
      ],
      "stateMutability": "view",
      "type": "function"
    },
    {
      "inputs": [
        {
          "internalType": "uint256",
          "name": "",
          "type": "uint256"
        }
      ],
      "name": "itemURIs",
      "outputs": [
        {
          "internalType": "string",
          "name": "",
          "type": "string"
        }
      ],
      "stateMutability": "view",
      "type": "function"
    },
    {
      "inputs": [],
      "name": "launch",
      "outputs": [
        {
          "internalType": "uint256",
          "name": "",
          "type": "uint256"
        }
      ],
      "stateMutability": "view",
      "type": "function"
    },
    {
      "inputs": [],
      "name": "lockup",
      "outputs": [
        {
          "internalType": "uint256",
          "name": "",
          "type": "uint256"
        }
      ],
      "stateMutability": "view",
      "type": "function"
    },
    {
      "inputs": [
        {
          "internalType": "uint256",
          "name": "",
          "type": "uint256"
        }
      ],
      "name": "mandatory",
      "outputs": [
        {
          "internalType": "address",
          "name": "",
          "type": "address"
        }
      ],
      "stateMutability": "view",
      "type": "function"
    },
    {
      "inputs": [],
      "name": "mysteryBox",
      "outputs": [
        {
          "internalType": "address",
          "name": "",
          "type": "address"
        }
      ],
      "stateMutability": "view",
      "type": "function"
    },
    {
      "inputs": [],
      "name": "name",
      "outputs": [
        {
          "internalType": "string",
          "name": "",
          "type": "string"
        }
      ],
      "stateMutability": "view",
      "type": "function"
    },
    {
      "inputs": [
        {
          "internalType": "address",
          "name": "operator",
          "type": "address"
        },
        {
          "internalType": "address",
          "name": "from",
          "type": "address"
        },
        {
          "internalType": "uint256",
          "name": "tokenId",
          "type": "uint256"
        },
        {
          "internalType": "bytes",
          "name": "data",
          "type": "bytes"
        }
      ],
      "name": "onERC721Received",
      "outputs": [
        {
          "internalType": "bytes4",
          "name": "",
          "type": "bytes4"
        }
      ],
      "stateMutability": "pure",
      "type": "function"
    },
    {
      "inputs": [],
      "name": "owner",
      "outputs": [
        {
          "internalType": "address",
          "name": "",
          "type": "address"
        }
      ],
      "stateMutability": "view",
      "type": "function"
    },
    {
      "inputs": [
        {
          "internalType": "uint256",
          "name": "tokenId",
          "type": "uint256"
        }
      ],
      "name": "ownerOf",
      "outputs": [
        {
          "internalType": "address",
          "name": "",
          "type": "address"
        }
      ],
      "stateMutability": "view",
      "type": "function"
    },
    {
      "inputs": [],
      "name": "pause",
      "outputs": [],
      "stateMutability": "nonpayable",
      "type": "function"
    },
    {
      "inputs": [],
      "name": "paused",
      "outputs": [
        {
          "internalType": "bool",
          "name": "",
          "type": "bool"
        }
      ],
      "stateMutability": "view",
      "type": "function"
    },
    {
      "inputs": [],
      "name": "payment",
      "outputs": [
        {
          "internalType": "address",
          "name": "",
          "type": "address"
        }
      ],
      "stateMutability": "view",
      "type": "function"
    },
    {
      "inputs": [],
      "name": "quote",
      "outputs": [
        {
          "internalType": "address",
          "name": "",
          "type": "address"
        }
      ],
      "stateMutability": "view",
      "type": "function"
    },
    {
      "inputs": [
        {
          "internalType": "string[]",
          "name": "uris",
          "type": "string[]"
        },
        {
          "internalType": "uint256[]",
          "name": "amounts",
          "type": "uint256[]"
        }
      ],
      "name": "registerItems",
      "outputs": [],
      "stateMutability": "nonpayable",
      "type": "function"
    },
    {
      "inputs": [],
      "name": "renounceOwnership",
      "outputs": [],
      "stateMutability": "nonpayable",
      "type": "function"
    },
    {
      "inputs": [
        {
          "internalType": "bytes32",
          "name": "role",
          "type": "bytes32"
        },
        {
          "internalType": "address",
          "name": "account",
          "type": "address"
        }
      ],
      "name": "renounceRole",
      "outputs": [],
      "stateMutability": "nonpayable",
      "type": "function"
    },
    {
      "inputs": [
        {
          "internalType": "bytes32",
          "name": "role",
          "type": "bytes32"
        },
        {
          "internalType": "address",
          "name": "account",
          "type": "address"
        }
      ],
      "name": "revokeRole",
      "outputs": [],
      "stateMutability": "nonpayable",
      "type": "function"
    },
    {
      "inputs": [
        {
          "internalType": "address",
          "name": "to",
          "type": "address"
        },
        {
          "internalType": "string[]",
          "name": "uris",
          "type": "string[]"
        }
      ],
      "name": "safeBatchMint",
      "outputs": [],
      "stateMutability": "view",
      "type": "function"
    },
    {
      "inputs": [
        {
          "internalType": "address",
          "name": "to",
          "type": "address"
        },
        {
          "internalType": "string",
          "name": "uri",
          "type": "string"
        },
        {
          "internalType": "uint256",
          "name": "amount",
          "type": "uint256"
        }
      ],
      "name": "safeBatchMintLight",
      "outputs": [],
      "stateMutability": "nonpayable",
      "type": "function"
    },
    {
      "inputs": [
        {
          "internalType": "address",
          "name": "to",
          "type": "address"
        },
        {
          "internalType": "string",
          "name": "uri",
          "type": "string"
        }
      ],
      "name": "safeMint",
      "outputs": [
        {
          "internalType": "uint256",
          "name": "",
          "type": "uint256"
        }
      ],
      "stateMutability": "view",
      "type": "function"
    },
    {
      "inputs": [
        {
          "internalType": "address",
          "name": "to",
          "type": "address"
        }
      ],
      "name": "safeMintTo",
      "outputs": [],
      "stateMutability": "nonpayable",
      "type": "function"
    },
    {
      "inputs": [
        {
          "internalType": "address",
          "name": "from",
          "type": "address"
        },
        {
          "internalType": "address",
          "name": "to",
          "type": "address"
        },
        {
          "internalType": "uint256",
          "name": "tokenId",
          "type": "uint256"
        }
      ],
      "name": "safeTransferFrom",
      "outputs": [],
      "stateMutability": "nonpayable",
      "type": "function"
    },
    {
      "inputs": [
        {
          "internalType": "address",
          "name": "from",
          "type": "address"
        },
        {
          "internalType": "address",
          "name": "to",
          "type": "address"
        },
        {
          "internalType": "uint256",
          "name": "tokenId",
          "type": "uint256"
        },
        {
          "internalType": "bytes",
          "name": "_data",
          "type": "bytes"
        }
      ],
      "name": "safeTransferFrom",
      "outputs": [],
      "stateMutability": "nonpayable",
      "type": "function"
    },
    {
      "inputs": [
        {
          "internalType": "address",
          "name": "operator",
          "type": "address"
        },
        {
          "internalType": "bool",
          "name": "approved",
          "type": "bool"
        }
      ],
      "name": "setApprovalForAll",
      "outputs": [],
      "stateMutability": "nonpayable",
      "type": "function"
    },
    {
      "inputs": [
        {
          "internalType": "address",
          "name": "_payment",
          "type": "address"
        },
        {
          "internalType": "address",
          "name": "_treasury",
          "type": "address"
        },
        {
          "internalType": "uint256",
          "name": "_feeRate",
          "type": "uint256"
        }
      ],
      "name": "setConfig",
      "outputs": [],
      "stateMutability": "nonpayable",
      "type": "function"
    },
    {
      "inputs": [
        {
          "internalType": "uint256",
          "name": "_hardCap",
          "type": "uint256"
        },
        {
          "internalType": "string",
          "name": "_uri",
          "type": "string"
        }
      ],
      "name": "setHardCap",
      "outputs": [],
      "stateMutability": "nonpayable",
      "type": "function"
    },
    {
      "inputs": [
        {
          "internalType": "uint256",
          "name": "_launch",
          "type": "uint256"
        }
      ],
      "name": "setLaunch",
      "outputs": [],
      "stateMutability": "nonpayable",
      "type": "function"
    },
    {
      "inputs": [
        {
          "internalType": "uint256",
          "name": "_lockup",
          "type": "uint256"
        }
      ],
      "name": "setLockup",
      "outputs": [],
      "stateMutability": "nonpayable",
      "type": "function"
    },
    {
      "inputs": [
        {
          "internalType": "address[]",
          "name": "_nfts",
          "type": "address[]"
        },
        {
          "internalType": "bool",
          "name": "_andOr",
          "type": "bool"
        }
      ],
      "name": "setMandatory",
      "outputs": [],
      "stateMutability": "nonpayable",
      "type": "function"
    },
    {
      "inputs": [
        {
          "internalType": "address",
          "name": "_mbox",
          "type": "address"
        }
      ],
      "name": "setMysteryBox",
      "outputs": [],
      "stateMutability": "nonpayable",
      "type": "function"
    },
    {
      "inputs": [
        {
          "internalType": "address",
          "name": "_quote",
          "type": "address"
        }
      ],
      "name": "setQuote",
      "outputs": [],
      "stateMutability": "nonpayable",
      "type": "function"
    },
    {
      "inputs": [
        {
          "internalType": "bytes4",
          "name": "interfaceId",
          "type": "bytes4"
        }
      ],
      "name": "supportsInterface",
      "outputs": [
        {
          "internalType": "bool",
          "name": "",
          "type": "bool"
        }
      ],
      "stateMutability": "view",
      "type": "function"
    },
    {
      "inputs": [],
      "name": "symbol",
      "outputs": [
        {
          "internalType": "string",
          "name": "",
          "type": "string"
        }
      ],
      "stateMutability": "view",
      "type": "function"
    },
    {
      "inputs": [
        {
          "internalType": "uint256",
          "name": "index",
          "type": "uint256"
        }
      ],
      "name": "tokenByIndex",
      "outputs": [
        {
          "internalType": "uint256",
          "name": "",
          "type": "uint256"
        }
      ],
      "stateMutability": "view",
      "type": "function"
    },
    {
      "inputs": [
        {
          "internalType": "address",
          "name": "owner",
          "type": "address"
        },
        {
          "internalType": "uint256",
          "name": "index",
          "type": "uint256"
        }
      ],
      "name": "tokenOfOwnerByIndex",
      "outputs": [
        {
          "internalType": "uint256",
          "name": "",
          "type": "uint256"
        }
      ],
      "stateMutability": "view",
      "type": "function"
    },
    {
      "inputs": [
        {
          "internalType": "uint256",
          "name": "tokenId",
          "type": "uint256"
        }
      ],
      "name": "tokenURI",
      "outputs": [
        {
          "internalType": "string",
          "name": "",
          "type": "string"
        }
      ],
      "stateMutability": "view",
      "type": "function"
    },
    {
      "inputs": [],
      "name": "totalItems",
      "outputs": [
        {
          "internalType": "uint256",
          "name": "",
          "type": "uint256"
        }
      ],
      "stateMutability": "view",
      "type": "function"
    },
    {
      "inputs": [],
      "name": "totalSold",
      "outputs": [
        {
          "internalType": "uint256",
          "name": "",
          "type": "uint256"
        }
      ],
      "stateMutability": "view",
      "type": "function"
    },
    {
      "inputs": [],
      "name": "totalSupply",
      "outputs": [
        {
          "internalType": "uint256",
          "name": "",
          "type": "uint256"
        }
      ],
      "stateMutability": "view",
      "type": "function"
    },
    {
      "inputs": [
        {
          "internalType": "address",
          "name": "from",
          "type": "address"
        },
        {
          "internalType": "address",
          "name": "to",
          "type": "address"
        },
        {
          "internalType": "uint256",
          "name": "tokenId",
          "type": "uint256"
        }
      ],
      "name": "transferFrom",
      "outputs": [],
      "stateMutability": "nonpayable",
      "type": "function"
    },
    {
      "inputs": [
        {
          "internalType": "address",
          "name": "newOwner",
          "type": "address"
        }
      ],
      "name": "transferOwnership",
      "outputs": [],
      "stateMutability": "nonpayable",
      "type": "function"
    },
    {
      "inputs": [],
      "name": "treasury",
      "outputs": [
        {
          "internalType": "address",
          "name": "",
          "type": "address"
        }
      ],
      "stateMutability": "view",
      "type": "function"
    },
    {
      "inputs": [],
      "name": "unpause",
      "outputs": [],
      "stateMutability": "nonpayable",
      "type": "function"
    },
    {
      "stateMutability": "payable",
      "type": "receive"
    }
  ],
  "bytecode": "0x60806040526000600d819055601280546001600160a01b031916905560778190556078556032607d556081805460ff199081169091556083805490911690553480156200004b57600080fd5b5060405162004d6938038062004d698339810160408190526200006e91620007e6565b8585818181600090805190602001906200008a92919062000692565b508051620000a090600190602084019062000692565b5050600b805460ff1916905550620000b83362000263565b620000c5600033620002bd565b620000e060008051602062004d2983398151915233620002bd565b620000fb60008051602062004d4983398151915233620002bd565b505060016011558051600314620001595760405162461bcd60e51b815260206004820152601a60248201527f696e76616c696420636f6e6669672064617461206c656e67746800000000000060448201526064015b60405180910390fd5b62000166600033620002bd565b6200018160008051602062004d2983398151915233620002bd565b6200019c60008051602062004d4983398151915233620002bd565b620001d681600081518110620001c257634e487b7160e01b600052603260045260246000fd5b60200260200101516200036260201b60201c565b6200021081600181518110620001fc57634e487b7160e01b600052603260045260246000fd5b6020026020010151620003ef60201b60201c565b6200024c8383836002815181106200023857634e487b7160e01b600052603260045260246000fd5b60200260200101516200047660201b60201c565b6200025784620005f2565b505050505050620009a0565b600b80546001600160a01b03838116610100818102610100600160a81b031985161790945560405193909204169182907f8be0079c531659141344cd1fd0a4f28419497f9722a3daafe3b4186f6b6457e090600090a35050565b6000828152600c602090815260408083206001600160a01b038516845290915290205460ff166200035e576000828152600c602090815260408083206001600160a01b03851684529091529020805460ff191660011790556200031d3390565b6001600160a01b0316816001600160a01b0316837f2f8788117e7eff1d82e926ec794901d17c78024a50270940304540a733656f0d60405160405180910390a45b5050565b600b546001600160a01b03610100909104163314620003b35760405162461bcd60e51b8152602060048201819052602482015260008051602062004d09833981519152604482015260640162000150565b60798190556040518181527f7c8826e4db3679f20c86da0c68d37f9dbcd1d638c56717e014f93c56d14c02d1906020015b60405180910390a150565b600b546001600160a01b03610100909104163314620004405760405162461bcd60e51b8152602060048201819052602482015260008051602062004d09833981519152604482015260640162000150565b607a8190556040518181527fa7ade4ab976b6643a971383d9822fb7c2fce66aa2e497d88c3b4f1475ea2b2e090602001620003e4565b600b546001600160a01b03610100909104163314620004c75760405162461bcd60e51b8152602060048201819052602482015260008051602062004d09833981519152604482015260640162000150565b6001600160a01b0383166200051f5760405162461bcd60e51b815260206004820152601760248201527f696e76616c6964207061796d656e742061646472657373000000000000000000604482015260640162000150565b6001600160a01b038216620005775760405162461bcd60e51b815260206004820152601860248201527f696e76616c696420747265617375727920616464726573730000000000000000604482015260640162000150565b607b80546001600160a01b038581166001600160a01b03199283168117909355607c8054918616919092168117909155607d83905560408051928352602083019190915281018290527fe2be3027f197494650b7a98fd1cae67dacf615bd1d8bb05102999676f11638669060600160405180910390a1505050565b600b546001600160a01b03610100909104163314620006435760405162461bcd60e51b8152602060048201819052602482015260008051602062004d09833981519152604482015260640162000150565b601280546001600160a01b0319166001600160a01b0383169081179091556040519081527fca92c759228172fe3894a344908fd20dfd37ba561b5af191f1f5b02ee03881fc90602001620003e4565b828054620006a0906200094d565b90600052602060002090601f016020900481019282620006c457600085556200070f565b82601f10620006df57805160ff19168380011785556200070f565b828001600101855582156200070f579182015b828111156200070f578251825591602001919060010190620006f2565b506200071d92915062000721565b5090565b5b808211156200071d576000815560010162000722565b80516001600160a01b03811681146200075057600080fd5b919050565b600082601f83011262000766578081fd5b81516001600160401b038111156200078257620007826200098a565b602062000798601f8301601f191682016200091a565b8281528582848701011115620007ac578384fd5b835b83811015620007cb578581018301518282018401528201620007ae565b83811115620007dc57848385840101525b5095945050505050565b60008060008060008060c08789031215620007ff578182fd5b86516001600160401b038082111562000816578384fd5b620008248a838b0162000755565b97506020915081890151818111156200083b578485fd5b620008498b828c0162000755565b9750506200085a60408a0162000738565b95506200086a60608a0162000738565b94506200087a60808a0162000738565b935060a0890151818111156200088e578384fd5b8901601f81018b136200089f578384fd5b805182811115620008b457620008b46200098a565b8060051b9250620008c78484016200091a565b8181528481019083860185850187018f1015620008e2578788fd5b8795505b8386101562000906578051835260019590950194918601918601620008e6565b508096505050505050509295509295509295565b604051601f8201601f191681016001600160401b03811182821017156200094557620009456200098a565b604052919050565b600181811c908216806200096257607f821691505b602082108114156200098457634e487b7160e01b600052602260045260246000fd5b50919050565b634e487b7160e01b600052604160045260246000fd5b61435980620009b06000396000f3fe6080604052600436106103d25760003560e01c806370a08231116101fd578063a22cb46511610118578063d204c45e116100ab578063e63ab1e91161007a578063e63ab1e914610b33578063e985e9c514610b55578063ec32719614610b9e578063f2fde38b14610bbe578063fb86a40414610bde57600080fd5b8063d204c45e14610abc578063d3d3224a14610adc578063d539139314610af1578063d547741f14610b1357600080fd5b8063b9d6abe9116100e7578063b9d6abe914610a3d578063bebc2b5214610a5d578063c38b761c14610a7c578063c87b56dd14610a9c57600080fd5b8063a22cb465146109bd578063a2aa61eb146109dd578063b5a87cc1146109fd578063b88d4fde14610a1d57600080fd5b8063902835f611610190578063978bbdb91161015f578063978bbdb914610952578063983b2d5614610968578063999b93af14610988578063a217fddf146109a857600080fd5b8063902835f6146108e75780639106d7ba1461090757806391d148541461091d57806395d89b411461093d57600080fd5b806382dc1ec4116101cc57806382dc1ec41461086f5780638456cb591461088f5780638a55b866146108a45780638da5cb5b146108c457600080fd5b806370a0823114610800578063715018a6146108205780637b43b82714610835578063809a249e1461085557600080fd5b80632f785908116102ed57806358dd6d95116102805780635dce73831161024f5780635dce73831461078b57806361d027b3146107a05780636352211e146107c05780636ae6b459146107e057600080fd5b806358dd6d95146107135780635c975abb146107335780635d1d37c31461074b5780635d814dea1461076b57600080fd5b806342966c68116102bc57806342966c681461069e57806342f6487a146106be5780634e71d92d146106de5780634f6ccce7146106f357600080fd5b80632f7859081461062957806336568abe146106495780633f4ba83a1461066957806342842e0e1461067e57600080fd5b806321bae9e411610365578063248a9ca311610334578063248a9ca3146105a35780632799276d146105d35780632f2ff15d146105e95780632f745c591461060957600080fd5b806321bae9e414610523578063230a67ee1461054357806323b872dd14610563578063244906591461058357600080fd5b8063081812fc116103a1578063081812fc1461046f578063095ea7b3146104a7578063150b7a02146104c957806318160ddd1461050e57600080fd5b806301339c21146103de57806301ffc9a71461040757806306490f471461043757806306fdde031461044d57600080fd5b366103d957005b600080fd5b3480156103ea57600080fd5b506103f460795481565b6040519081526020015b60405180910390f35b34801561041357600080fd5b50610427610422366004613e78565b610bf4565b60405190151581526020016103fe565b34801561044357600080fd5b506103f4607a5481565b34801561045957600080fd5b50610462610c1f565b6040516103fe9190614003565b34801561047b57600080fd5b5061048f61048a366004613e3e565b610cb1565b6040516001600160a01b0390911681526020016103fe565b3480156104b357600080fd5b506104c76104c2366004613cdc565b610d3e565b005b3480156104d557600080fd5b506104f56104e4366004613ac6565b630a85bd0160e11b95945050505050565b6040516001600160e01b031990911681526020016103fe565b34801561051a57600080fd5b506008546103f4565b34801561052f57600080fd5b506104c761053e366004613a3f565b610e54565b34801561054f57600080fd5b506104c761055e366004613d83565b610fa1565b34801561056f57600080fd5b506104c761057e366004613a8b565b61114d565b34801561058f57600080fd5b506104c761059e366004613ec8565b61117f565b3480156105af57600080fd5b506103f46105be366004613e3e565b6000908152600c602052604090206001015490565b3480156105df57600080fd5b506103f460775481565b3480156105f557600080fd5b506104c7610604366004613e56565b611207565b34801561061557600080fd5b506103f4610624366004613cdc565b61122c565b34801561063557600080fd5b5061048f610644366004613e3e565b6112c2565b34801561065557600080fd5b506104c7610664366004613e56565b6112ec565b34801561067557600080fd5b506104c761136a565b34801561068a57600080fd5b506104c7610699366004613a8b565b61138d565b3480156106aa57600080fd5b506104c76106b9366004613e3e565b6113a8565b3480156106ca57600080fd5b50607b5461048f906001600160a01b031681565b3480156106ea57600080fd5b506104c761141f565b3480156106ff57600080fd5b506103f461070e366004613e3e565b61186b565b34801561071f57600080fd5b506104c761072e366004613bd3565b61190c565b34801561073f57600080fd5b50600b5460ff16610427565b34801561075757600080fd5b506104c7610766366004613e3e565b611957565b34801561077757600080fd5b50610462610786366004613e3e565b6119c3565b34801561079757600080fd5b506103f4611a6f565b3480156107ac57600080fd5b50607c5461048f906001600160a01b031681565b3480156107cc57600080fd5b5061048f6107db366004613e3e565b611b0b565b3480156107ec57600080fd5b506104c76107fb366004613e3e565b611b82565b34801561080c57600080fd5b506103f461081b366004613a3f565b611be7565b34801561082c57600080fd5b506104c7611c6e565b34801561084157600080fd5b506104c7610850366004613a3f565b611caa565b34801561086157600080fd5b506083546104279060ff1681565b34801561087b57600080fd5b506104c761088a366004613a3f565b611d4a565b34801561089b57600080fd5b506104c7611df0565b3480156108b057600080fd5b506103f46108bf366004613e3e565b611e10565b3480156108d057600080fd5b50600b5461010090046001600160a01b031661048f565b3480156108f357600080fd5b506104c7610902366004613a8b565b611e31565b34801561091357600080fd5b506103f460785481565b34801561092957600080fd5b50610427610938366004613e56565b611f88565b34801561094957600080fd5b50610462611fb3565b34801561095e57600080fd5b506103f4607d5481565b34801561097457600080fd5b506104c7610983366004613a3f565b611fc2565b34801561099457600080fd5b5060125461048f906001600160a01b031681565b3480156109b457600080fd5b506103f4600081565b3480156109c957600080fd5b506104c76109d8366004613c1e565b612068565b3480156109e957600080fd5b506104c76109f8366004613a3f565b612073565b348015610a0957600080fd5b506104c7610a18366004613c88565b6120f1565b348015610a2957600080fd5b506104c7610a38366004613b5b565b612183565b348015610a4957600080fd5b506103f4610a58366004613e3e565b6121bb565b348015610a6957600080fd5b5060835461042790610100900460ff1681565b348015610a8857600080fd5b50600f5461048f906001600160a01b031681565b348015610aa857600080fd5b50610462610ab7366004613e3e565b6121cb565b348015610ac857600080fd5b506103f4610ad7366004613c47565b6121d6565b348015610ae857600080fd5b506104626121f0565b348015610afd57600080fd5b506103f460008051602061430483398151915281565b348015610b1f57600080fd5b506104c7610b2e366004613e56565b6121fd565b348015610b3f57600080fd5b506103f46000805160206142e483398151915281565b348015610b6157600080fd5b50610427610b70366004613a59565b6001600160a01b03918216600090815260056020908152604080832093909416825291909152205460ff1690565b348015610baa57600080fd5b506104c7610bb9366004613d05565b612222565b348015610bca57600080fd5b506104c7610bd9366004613a3f565b612309565b348015610bea57600080fd5b506103f4600d5481565b60006001600160e01b031982166380ac58cd60e01b1480610c195750610c19826123a7565b92915050565b606060008054610c2e90614227565b80601f0160208091040260200160405190810160405280929190818152602001828054610c5a90614227565b8015610ca75780601f10610c7c57610100808354040283529160200191610ca7565b820191906000526020600020905b815481529060010190602001808311610c8a57829003601f168201915b5050505050905090565b6000610cbc826123cc565b610d225760405162461bcd60e51b815260206004820152602c60248201527f4552433732313a20617070726f76656420717565727920666f72206e6f6e657860448201526b34b9ba32b73a103a37b5b2b760a11b60648201526084015b60405180910390fd5b506000908152600460205260409020546001600160a01b031690565b6000610d4982611b0b565b9050806001600160a01b0316836001600160a01b03161415610db75760405162461bcd60e51b815260206004820152602160248201527f4552433732313a20617070726f76616c20746f2063757272656e74206f776e656044820152603960f91b6064820152608401610d19565b336001600160a01b0382161480610dd35750610dd38133610b70565b610e455760405162461bcd60e51b815260206004820152603860248201527f4552433732313a20617070726f76652063616c6c6572206973206e6f74206f7760448201527f6e6572206e6f7220617070726f76656420666f7220616c6c00000000000000006064820152608401610d19565b610e4f83836123e9565b505050565b600080516020614304833981519152610e6c81612457565b6000600e8054610e7b90614227565b905011610ec25760405162461bcd60e51b815260206004820152601560248201527411db1bd8985b08155492481a5cc81b9bdd081cd95d605a1b6044820152606401610d19565b6001600160a01b038216610f0d5760405162461bcd60e51b8152602060048201526012602482015271496e76616c696420746f206164647265737360701b6044820152606401610d19565b610e4f82600e8054610f1e90614227565b80601f0160208091040260200160405190810160405280929190818152602001828054610f4a90614227565b8015610f975780601f10610f6c57610100808354040283529160200191610f97565b820191906000526020600020905b815481529060010190602001808311610f7a57829003601f168201915b50505050506121d6565b600080516020614304833981519152610fb981612457565b60815460ff161561100c5760405162461bcd60e51b815260206004820152601860248201527f4974656d7320616c7265616479207265676973746572656400000000000000006044820152606401610d19565b81518351146110555760405162461bcd60e51b8152602060048201526015602482015274082e4e4c2f240d8cadccee8d040dad2e6dac2e8c6d605b1b6044820152606401610d19565b815161106890607f90602085019061378d565b50825161107c90607e9060208601906137d8565b5060005b835181101561113a576110c58382815181106110ac57634e487b7160e01b600052603260045260246000fd5b602002602001015160775461246190919063ffffffff16565b6077556110f6601382606481106110ec57634e487b7160e01b600052603260045260246000fd5b0180546001019055565b6080805460018101825560009182527f59f3fb058c6bba7a4e76396639fc4dd21bd59163db798899cf56cef48b3c9ec90155806111328161425c565b915050611080565b50506081805460ff191660011790555050565b611158335b82612474565b6111745760405162461bcd60e51b8152600401610d19906140de565b610e4f83838361255e565b600b546001600160a01b036101009091041633146111af5760405162461bcd60e51b8152600401610d1990614068565b600d82905580516111c790600e906020840190613831565b507f57bbf0b7295e3c8587fe0fa3c76592771f6a96123bf723292fd0e3933436b71f600d546040516111fb91815260200190565b60405180910390a15050565b6000828152600c602052604090206001015461122281612457565b610e4f8383612705565b600061123783611be7565b82106112995760405162461bcd60e51b815260206004820152602b60248201527f455243373231456e756d657261626c653a206f776e657220696e646578206f7560448201526a74206f6620626f756e647360a81b6064820152608401610d19565b506001600160a01b03919091166000908152600660209081526040808320938352929052205490565b608281815481106112d257600080fd5b6000918252602090912001546001600160a01b0316905081565b6001600160a01b038116331461135c5760405162461bcd60e51b815260206004820152602f60248201527f416363657373436f6e74726f6c3a2063616e206f6e6c792072656e6f756e636560448201526e103937b632b9903337b91039b2b63360891b6064820152608401610d19565b611366828261278b565b5050565b6000805160206142e483398151915261138281612457565b61138a6127f2565b50565b610e4f83838360405180602001604052806000815250612183565b6113b133611152565b6114165760405162461bcd60e51b815260206004820152603060248201527f4552433732314275726e61626c653a2063616c6c6572206973206e6f74206f7760448201526f1b995c881b9bdc88185c1c1c9bdd995960821b6064820152608401610d19565b61138a81612885565b60795442116114705760405162461bcd60e51b815260206004820152601b60248201527f4e6f7420796574206c61756e63682074696d65207265616368656400000000006044820152606401610d19565b607854607754116114b65760405162461bcd60e51b815260206004820152601060248201526f185c9a591c9bdc081cdbdb19081bdd5d60821b6044820152606401610d19565b60835460ff161561160a576000805b6082548110156115e7576000608282815481106114f257634e487b7160e01b600052603260045260246000fd5b6000918252602090912001546040516370a0823160e01b81523360048201526001600160a01b03909116906370a082319060240160206040518083038186803b15801561153e57600080fd5b505afa158015611552573d6000803e3d6000fd5b505050506040513d601f19601f820116820180604052508101906115769190613eb0565b608354909150610100900460ff16156115bb57600081116115a95760405162461bcd60e51b8152600401610d199061409d565b6115b4836001612461565b92506115d4565b80156115d4576115cc836001612461565b9250506115e7565b50806115df8161425c565b9150506114c5565b50600081116116085760405162461bcd60e51b8152600401610d199061409d565b505b600080805b607f548110156116d157607f818154811061163a57634e487b7160e01b600052603260045260246000fd5b90600052602060002001546080828154811061166657634e487b7160e01b600052603260045260246000fd5b9060005260206000200154106116bb576116b4607f828154811061169a57634e487b7160e01b600052603260045260246000fd5b90600052602060002001548361246190919063ffffffff16565b91506116bf565b8092505b806116c98161425c565b91505061160f565b506117056116fe601384606481106116f957634e487b7160e01b600052603260045260246000fd5b015490565b8290612461565b90506117c53382607e858154811061172d57634e487b7160e01b600052603260045260246000fd5b90600052602060002001805461174290614227565b80601f016020809104026020016040519081016040528092919081815260200182805461176e90614227565b80156117bb5780601f10611790576101008083540402835291602001916117bb565b820191906000526020600020905b81548152906001019060200180831161179e57829003601f168201915b505050505061288e565b506117ea601383606481106110ec57634e487b7160e01b600052603260045260246000fd5b61182960016080848154811061181057634e487b7160e01b600052603260045260246000fd5b906000526020600020015461246190919063ffffffff16565b6080838154811061184a57634e487b7160e01b600052603260045260246000fd5b600091825260209091200155607854611864906001612461565b6078555050565b600061187660085490565b82106118d95760405162461bcd60e51b815260206004820152602c60248201527f455243373231456e756d657261626c653a20676c6f62616c20696e646578206f60448201526b7574206f6620626f756e647360a01b6064820152608401610d19565b600882815481106118fa57634e487b7160e01b600052603260045260246000fd5b90600052602060002001549050919050565b60008051602061430483398151915261192481612457565b60405162461bcd60e51b8152602060048201526008602482015267111a5cd8589b195960c21b6044820152606401610d19565b600b546001600160a01b036101009091041633146119875760405162461bcd60e51b8152600401610d1990614068565b60798190556040518181527f7c8826e4db3679f20c86da0c68d37f9dbcd1d638c56717e014f93c56d14c02d1906020015b60405180910390a150565b607e81815481106119d357600080fd5b9060005260206000200160009150905080546119ee90614227565b80601f0160208091040260200160405190810160405280929190818152602001828054611a1a90614227565b8015611a675780601f10611a3c57610100808354040283529160200191611a67565b820191906000526020600020905b815481529060010190602001808311611a4a57829003601f168201915b505050505081565b600080805b607f54811015611b0557611af1611aea60808381548110611aa557634e487b7160e01b600052603260045260246000fd5b9060005260206000200154607f8481548110611ad157634e487b7160e01b600052603260045260246000fd5b90600052602060002001546128a590919063ffffffff16565b8390612461565b915080611afd8161425c565b915050611a74565b50919050565b6000818152600260205260408120546001600160a01b031680610c195760405162461bcd60e51b815260206004820152602960248201527f4552433732313a206f776e657220717565727920666f72206e6f6e657869737460448201526832b73a103a37b5b2b760b91b6064820152608401610d19565b600b546001600160a01b03610100909104163314611bb25760405162461bcd60e51b8152600401610d1990614068565b607a8190556040518181527fa7ade4ab976b6643a971383d9822fb7c2fce66aa2e497d88c3b4f1475ea2b2e0906020016119b8565b60006001600160a01b038216611c525760405162461bcd60e51b815260206004820152602a60248201527f4552433732313a2062616c616e636520717565727920666f7220746865207a65604482015269726f206164647265737360b01b6064820152608401610d19565b506001600160a01b031660009081526003602052604090205490565b600b546001600160a01b03610100909104163314611c9e5760405162461bcd60e51b8152600401610d1990614068565b611ca860006128b1565b565b600b546001600160a01b03610100909104163314611cda5760405162461bcd60e51b8152600401610d1990614068565b600f80546001600160a01b0319166001600160a01b038316179055611d0d60008051602061430483398151915282612705565b600f546040516001600160a01b0390911681527f329b1203fc60a62c4a0fd3ff1554a07f92a2f117cc590422dd105811bb484ded906020016119b8565b600b546001600160a01b03610100909104163314611d7a5760405162461bcd60e51b8152600401610d1990614068565b611d926000805160206142e483398151915282612705565b604080516001600160a01b038316815260208101829052600b918101919091526a5041555345525f524f4c4560a81b60608201527f0578acc86b18d67c13a5e6eed8c670fb7052f530b48a2acb167d6ca77509a384906080016119b8565b6000805160206142e4833981519152611e0881612457565b61138a61290b565b607f8181548110611e2057600080fd5b600091825260209091200154905081565b600b546001600160a01b03610100909104163314611e615760405162461bcd60e51b8152600401610d1990614068565b6001600160a01b038316611eb75760405162461bcd60e51b815260206004820152601760248201527f696e76616c6964207061796d656e7420616464726573730000000000000000006044820152606401610d19565b6001600160a01b038216611f0d5760405162461bcd60e51b815260206004820152601860248201527f696e76616c6964207472656173757279206164647265737300000000000000006044820152606401610d19565b607b80546001600160a01b038581166001600160a01b03199283168117909355607c8054918616919092168117909155607d83905560408051928352602083019190915281018290527fe2be3027f197494650b7a98fd1cae67dacf615bd1d8bb05102999676f11638669060600160405180910390a1505050565b6000918252600c602090815260408084206001600160a01b0393909316845291905290205460ff1690565b606060018054610c2e90614227565b600b546001600160a01b03610100909104163314611ff25760405162461bcd60e51b8152600401610d1990614068565b61200a60008051602061430483398151915282612705565b604080516001600160a01b038316815260208101829052600b918101919091526a4d494e5445525f524f4c4560a81b60608201527f0578acc86b18d67c13a5e6eed8c670fb7052f530b48a2acb167d6ca77509a384906080016119b8565b611366338383612986565b600b546001600160a01b036101009091041633146120a35760405162461bcd60e51b8152600401610d1990614068565b601280546001600160a01b0319166001600160a01b0383169081179091556040519081527fca92c759228172fe3894a344908fd20dfd37ba561b5af191f1f5b02ee03881fc906020016119b8565b60008051602061430483398151915261210981612457565b6001600160a01b0384166121545760405162461bcd60e51b8152602060048201526012602482015271496e76616c696420746f206164647265737360701b6044820152606401610d19565b60005b8281101561217c5761216985856121d6565b50806121748161425c565b915050612157565b5050505050565b61218d3383612474565b6121a95760405162461bcd60e51b8152600401610d19906140de565b6121b584848484612a55565b50505050565b60808181548110611e2057600080fd5b6060610c1982612a88565b600060008051602061430483398151915261192481612457565b600e80546119ee90614227565b6000828152600c602052604090206001015461221881612457565b610e4f838361278b565b600b546001600160a01b036101009091041633146122525760405162461bcd60e51b8152600401610d1990614068565b81156122ed5760005b828110156122de57608284848381811061228557634e487b7160e01b600052603260045260246000fd5b905060200201602081019061229a9190613a3f565b81546001810183556000928352602090922090910180546001600160a01b0319166001600160a01b03909216919091179055806122d68161425c565b91505061225b565b506083805460ff191660011790555b608380549115156101000261ff00199092169190911790555050565b600b546001600160a01b036101009091041633146123395760405162461bcd60e51b8152600401610d1990614068565b6001600160a01b03811661239e5760405162461bcd60e51b815260206004820152602660248201527f4f776e61626c653a206e6577206f776e657220697320746865207a65726f206160448201526564647265737360d01b6064820152608401610d19565b61138a816128b1565b60006001600160e01b03198216637965db0b60e01b1480610c195750610c1982612bf7565b6000908152600260205260409020546001600160a01b0316151590565b600081815260046020526040902080546001600160a01b0319166001600160a01b038416908117909155819061241e82611b0b565b6001600160a01b03167f8c5be1e5ebec7d5bd14f71427d1e84f3dd0314c0f7b2291e5b200ac8c7c3b92560405160405180910390a45050565b61138a8133612c1c565b600061246d8284614182565b9392505050565b600061247f826123cc565b6124e05760405162461bcd60e51b815260206004820152602c60248201527f4552433732313a206f70657261746f7220717565727920666f72206e6f6e657860448201526b34b9ba32b73a103a37b5b2b760a11b6064820152608401610d19565b60006124eb83611b0b565b9050806001600160a01b0316846001600160a01b0316148061253257506001600160a01b0380821660009081526005602090815260408083209388168352929052205460ff165b806125565750836001600160a01b031661254b84610cb1565b6001600160a01b0316145b949350505050565b826001600160a01b031661257182611b0b565b6001600160a01b0316146125d55760405162461bcd60e51b815260206004820152602560248201527f4552433732313a207472616e736665722066726f6d20696e636f72726563742060448201526437bbb732b960d91b6064820152608401610d19565b6001600160a01b0382166126375760405162461bcd60e51b8152602060048201526024808201527f4552433732313a207472616e7366657220746f20746865207a65726f206164646044820152637265737360e01b6064820152608401610d19565b612642838383612c80565b61264d6000826123e9565b6001600160a01b03831660009081526003602052604081208054600192906126769084906141cd565b90915550506001600160a01b03821660009081526003602052604081208054600192906126a4908490614182565b909155505060008181526002602052604080822080546001600160a01b0319166001600160a01b0386811691821790925591518493918716917fddf252ad1be2c89b69c2b068fc378daa952ba7f163c4a11628f55a4df523b3ef91a4505050565b61270f8282611f88565b611366576000828152600c602090815260408083206001600160a01b03851684529091529020805460ff191660011790556127473390565b6001600160a01b0316816001600160a01b0316837f2f8788117e7eff1d82e926ec794901d17c78024a50270940304540a733656f0d60405160405180910390a45050565b6127958282611f88565b15611366576000828152600c602090815260408083206001600160a01b0385168085529252808320805460ff1916905551339285917ff6391f5c32d9c69d2a47ea670b442974b53935d1edc7fd64eb21e047a839171b9190a45050565b600b5460ff1661283b5760405162461bcd60e51b815260206004820152601460248201527314185d5cd8589b194e881b9bdd081c185d5cd95960621b6044820152606401610d19565b600b805460ff191690557f5db9ee0a495bf2e6ff9c91a7834c1ba4fdd244a5e8aa4e537bd38aeae4b073aa335b6040516001600160a01b03909116815260200160405180910390a1565b61138a81612cd1565b60008061289c858585612d11565b95945050505050565b600061246d82846141cd565b600b80546001600160a01b03838116610100818102610100600160a81b031985161790945560405193909204169182907f8be0079c531659141344cd1fd0a4f28419497f9722a3daafe3b4186f6b6457e090600090a35050565b600b5460ff16156129515760405162461bcd60e51b815260206004820152601060248201526f14185d5cd8589b194e881c185d5cd95960821b6044820152606401610d19565b600b805460ff191660011790557f62e78cea01bee320cd4e420270b5ea74000d11b0c9f74754ebdbfc544b05a2586128683390565b816001600160a01b0316836001600160a01b031614156129e85760405162461bcd60e51b815260206004820152601960248201527f4552433732313a20617070726f766520746f2063616c6c6572000000000000006044820152606401610d19565b6001600160a01b03838116600081815260056020908152604080832094871680845294825291829020805460ff191686151590811790915591519182527f17307eab39ab6107e8899845ad3d59bd9653f200f220920489ca2b5937696c31910160405180910390a3505050565b612a6084848461255e565b612a6c84848484612d2f565b6121b55760405162461bcd60e51b8152600401610d1990614016565b6060612a93826123cc565b612af95760405162461bcd60e51b815260206004820152603160248201527f45524337323155524953746f726167653a2055524920717565727920666f72206044820152703737b732bc34b9ba32b73a103a37b5b2b760791b6064820152608401610d19565b6000828152600a602052604081208054612b1290614227565b80601f0160208091040260200160405190810160405280929190818152602001828054612b3e90614227565b8015612b8b5780601f10612b6057610100808354040283529160200191612b8b565b820191906000526020600020905b815481529060010190602001808311612b6e57829003601f168201915b505050505090506000612ba960408051602081019091526000815290565b9050805160001415612bbc575092915050565b815115612bee578082604051602001612bd6929190613f22565b60405160208183030381529060405292505050919050565b61255684612e3c565b60006001600160e01b0319821663780e9d6360e01b1480610c195750610c1982612f13565b612c268282611f88565b61136657612c3e816001600160a01b03166014612f63565b612c49836020612f63565b604051602001612c5a929190613f51565b60408051601f198184030181529082905262461bcd60e51b8252610d1991600401614003565b600b5460ff1615612cc65760405162461bcd60e51b815260206004820152601060248201526f14185d5cd8589b194e881c185d5cd95960821b6044820152606401610d19565b610e4f838383613144565b612cda816131fc565b6000818152600a602052604090208054612cf390614227565b15905061138a576000818152600a6020526040812061138a916138a4565b6000612d1d84846132a3565b612d2783836132bd565b509092915050565b60006001600160a01b0384163b15612e3157604051630a85bd0160e11b81526001600160a01b0385169063150b7a0290612d73903390899088908890600401613fc6565b602060405180830381600087803b158015612d8d57600080fd5b505af1925050508015612dbd575060408051601f3d908101601f19168201909252612dba91810190613e94565b60015b612e17573d808015612deb576040519150601f19603f3d011682016040523d82523d6000602084013e612df0565b606091505b508051612e0f5760405162461bcd60e51b8152600401610d1990614016565b805181602001fd5b6001600160e01b031916630a85bd0160e11b149050612556565b506001949350505050565b6060612e47826123cc565b612eab5760405162461bcd60e51b815260206004820152602f60248201527f4552433732314d657461646174613a2055524920717565727920666f72206e6f60448201526e3732bc34b9ba32b73a103a37b5b2b760891b6064820152608401610d19565b6000612ec260408051602081019091526000815290565b90506000815111612ee2576040518060200160405280600081525061246d565b80612eec84613348565b604051602001612efd929190613f22565b6040516020818303038152906040529392505050565b60006001600160e01b031982166380ac58cd60e01b1480612f4457506001600160e01b03198216635b5e139f60e01b145b80610c1957506301ffc9a760e01b6001600160e01b0319831614610c19565b60606000612f728360026141ae565b612f7d906002614182565b6001600160401b03811115612fa257634e487b7160e01b600052604160045260246000fd5b6040519080825280601f01601f191660200182016040528015612fcc576020820181803683370190505b509050600360fc1b81600081518110612ff557634e487b7160e01b600052603260045260246000fd5b60200101906001600160f81b031916908160001a905350600f60fb1b8160018151811061303257634e487b7160e01b600052603260045260246000fd5b60200101906001600160f81b031916908160001a90535060006130568460026141ae565b613061906001614182565b90505b60018111156130f5576f181899199a1a9b1b9c1cb0b131b232b360811b85600f16601081106130a357634e487b7160e01b600052603260045260246000fd5b1a60f81b8282815181106130c757634e487b7160e01b600052603260045260246000fd5b60200101906001600160f81b031916908160001a90535060049490941c936130ee81614210565b9050613064565b50831561246d5760405162461bcd60e51b815260206004820181905260248201527f537472696e67733a20686578206c656e67746820696e73756666696369656e746044820152606401610d19565b6001600160a01b03831661319f5761319a81600880546000838152600960205260408120829055600182018355919091527ff3f7a9fe364faab93b216da50a3214154f22a0a2b415b23a84c8169e8b636ee30155565b6131c2565b816001600160a01b0316836001600160a01b0316146131c2576131c28382613461565b6001600160a01b0382166131d957610e4f816134fe565b826001600160a01b0316826001600160a01b031614610e4f57610e4f82826135d7565b600061320782611b0b565b905061321581600084612c80565b6132206000836123e9565b6001600160a01b03811660009081526003602052604081208054600192906132499084906141cd565b909155505060008281526002602052604080822080546001600160a01b0319169055518391906001600160a01b038416907fddf252ad1be2c89b69c2b068fc378daa952ba7f163c4a11628f55a4df523b3ef908390a45050565b61136682826040518060200160405280600081525061361b565b6132c6826123cc565b6133295760405162461bcd60e51b815260206004820152602e60248201527f45524337323155524953746f726167653a2055524920736574206f66206e6f6e60448201526d32bc34b9ba32b73a103a37b5b2b760911b6064820152608401610d19565b6000828152600a602090815260409091208251610e4f92840190613831565b60608161336c5750506040805180820190915260018152600360fc1b602082015290565b8160005b811561339657806133808161425c565b915061338f9050600a8361419a565b9150613370565b6000816001600160401b038111156133be57634e487b7160e01b600052604160045260246000fd5b6040519080825280601f01601f1916602001820160405280156133e8576020820181803683370190505b5090505b8415612556576133fd6001836141cd565b915061340a600a86614277565b613415906030614182565b60f81b81838151811061343857634e487b7160e01b600052603260045260246000fd5b60200101906001600160f81b031916908160001a90535061345a600a8661419a565b94506133ec565b6000600161346e84611be7565b61347891906141cd565b6000838152600760205260409020549091508082146134cb576001600160a01b03841660009081526006602090815260408083208584528252808320548484528184208190558352600790915290208190555b5060009182526007602090815260408084208490556001600160a01b039094168352600681528383209183525290812055565b600854600090613510906001906141cd565b6000838152600960205260408120546008805493945090928490811061354657634e487b7160e01b600052603260045260246000fd5b90600052602060002001549050806008838154811061357557634e487b7160e01b600052603260045260246000fd5b60009182526020808320909101929092558281526009909152604080822084905585825281205560088054806135bb57634e487b7160e01b600052603160045260246000fd5b6001900381819060005260206000200160009055905550505050565b60006135e283611be7565b6001600160a01b039093166000908152600660209081526040808320868452825280832085905593825260079052919091209190915550565b613625838361364e565b6136326000848484612d2f565b610e4f5760405162461bcd60e51b8152600401610d1990614016565b6001600160a01b0382166136a45760405162461bcd60e51b815260206004820181905260248201527f4552433732313a206d696e7420746f20746865207a65726f20616464726573736044820152606401610d19565b6136ad816123cc565b156136fa5760405162461bcd60e51b815260206004820152601c60248201527f4552433732313a20746f6b656e20616c7265616479206d696e746564000000006044820152606401610d19565b61370660008383612c80565b6001600160a01b038216600090815260036020526040812080546001929061372f908490614182565b909155505060008181526002602052604080822080546001600160a01b0319166001600160a01b03861690811790915590518392907fddf252ad1be2c89b69c2b068fc378daa952ba7f163c4a11628f55a4df523b3ef908290a45050565b8280548282559060005260206000209081019282156137c8579160200282015b828111156137c85782518255916020019190600101906137ad565b506137d49291506138da565b5090565b828054828255906000526020600020908101928215613825579160200282015b828111156138255782518051613815918491602090910190613831565b50916020019190600101906137f8565b506137d49291506138ef565b82805461383d90614227565b90600052602060002090601f01602090048101928261385f57600085556137c8565b82601f1061387857805160ff19168380011785556137c8565b828001600101855582156137c857918201828111156137c85782518255916020019190600101906137ad565b5080546138b090614227565b6000825580601f106138c0575050565b601f01602090049060005260206000209081019061138a91905b5b808211156137d457600081556001016138db565b808211156137d457600061390382826138a4565b506001016138ef565b60006001600160401b03831115613925576139256142b7565b613938601f8401601f191660200161412f565b905082815283838301111561394c57600080fd5b828260208301376000602084830101529392505050565b80356001600160a01b038116811461397a57600080fd5b919050565b600082601f83011261398f578081fd5b813560206139a461399f8361415f565b61412f565b80838252828201915082860187848660051b89010111156139c3578586fd5b855b85811015613a035781356001600160401b038111156139e2578788fd5b6139f08a87838c0101613a20565b85525092840192908401906001016139c5565b5090979650505050505050565b8035801515811461397a57600080fd5b600082601f830112613a30578081fd5b61246d8383356020850161390c565b600060208284031215613a50578081fd5b61246d82613963565b60008060408385031215613a6b578081fd5b613a7483613963565b9150613a8260208401613963565b90509250929050565b600080600060608486031215613a9f578081fd5b613aa884613963565b9250613ab660208501613963565b9150604084013590509250925092565b600080600080600060808688031215613add578081fd5b613ae686613963565b9450613af460208701613963565b93506040860135925060608601356001600160401b0380821115613b16578283fd5b818801915088601f830112613b29578283fd5b813581811115613b37578384fd5b896020828501011115613b48578384fd5b9699959850939650602001949392505050565b60008060008060808587031215613b70578384fd5b613b7985613963565b9350613b8760208601613963565b92506040850135915060608501356001600160401b03811115613ba8578182fd5b8501601f81018713613bb8578182fd5b613bc78782356020840161390c565b91505092959194509250565b60008060408385031215613be5578182fd5b613bee83613963565b915060208301356001600160401b03811115613c08578182fd5b613c148582860161397f565b9150509250929050565b60008060408385031215613c30578182fd5b613c3983613963565b9150613a8260208401613a10565b60008060408385031215613c59578182fd5b613c6283613963565b915060208301356001600160401b03811115613c7c578182fd5b613c1485828601613a20565b600080600060608486031215613c9c578081fd5b613ca584613963565b925060208401356001600160401b03811115613cbf578182fd5b613ccb86828701613a20565b925050604084013590509250925092565b60008060408385031215613cee578182fd5b613cf783613963565b946020939093013593505050565b600080600060408486031215613d19578081fd5b83356001600160401b0380821115613d2f578283fd5b818601915086601f830112613d42578283fd5b813581811115613d50578384fd5b8760208260051b8501011115613d64578384fd5b602092830195509350613d7a9186019050613a10565b90509250925092565b60008060408385031215613d95578182fd5b82356001600160401b0380821115613dab578384fd5b613db78683870161397f565b9350602091508185013581811115613dcd578384fd5b85019050601f81018613613ddf578283fd5b8035613ded61399f8261415f565b80828252848201915084840189868560051b8701011115613e0c578687fd5b8694505b83851015613e2e578035835260019490940193918501918501613e10565b5080955050505050509250929050565b600060208284031215613e4f578081fd5b5035919050565b60008060408385031215613e68578182fd5b82359150613a8260208401613963565b600060208284031215613e89578081fd5b813561246d816142cd565b600060208284031215613ea5578081fd5b815161246d816142cd565b600060208284031215613ec1578081fd5b5051919050565b60008060408385031215613eda578182fd5b8235915060208301356001600160401b03811115613c7c578182fd5b60008151808452613f0e8160208601602086016141e4565b601f01601f19169290920160200192915050565b60008351613f348184602088016141e4565b835190830190613f488183602088016141e4565b01949350505050565b7f416363657373436f6e74726f6c3a206163636f756e7420000000000000000000815260008351613f898160178501602088016141e4565b7001034b99036b4b9b9b4b733903937b6329607d1b6017918401918201528351613fba8160288401602088016141e4565b01602801949350505050565b6001600160a01b0385811682528416602082015260408101839052608060608201819052600090613ff990830184613ef6565b9695505050505050565b60208152600061246d6020830184613ef6565b60208082526032908201527f4552433732313a207472616e7366657220746f206e6f6e20455243373231526560408201527131b2b4bb32b91034b6b83632b6b2b73a32b960711b606082015260800190565b6020808252818101527f4f776e61626c653a2063616c6c6572206973206e6f7420746865206f776e6572604082015260600190565b60208082526021908201527f73686f756c642062757920616c6c20636f6c6c656374696f6e73206265666f726040820152606560f81b606082015260800190565b60208082526031908201527f4552433732313a207472616e736665722063616c6c6572206973206e6f74206f6040820152701ddb995c881b9bdc88185c1c1c9bdd9959607a1b606082015260800190565b604051601f8201601f191681016001600160401b0381118282101715614157576141576142b7565b604052919050565b60006001600160401b03821115614178576141786142b7565b5060051b60200190565b600082198211156141955761419561428b565b500190565b6000826141a9576141a96142a1565b500490565b60008160001904831182151516156141c8576141c861428b565b500290565b6000828210156141df576141df61428b565b500390565b60005b838110156141ff5781810151838201526020016141e7565b838111156121b55750506000910152565b60008161421f5761421f61428b565b506000190190565b600181811c9082168061423b57607f821691505b60208210811415611b0557634e487b7160e01b600052602260045260246000fd5b60006000198214156142705761427061428b565b5060010190565b600082614286576142866142a1565b500690565b634e487b7160e01b600052601160045260246000fd5b634e487b7160e01b600052601260045260246000fd5b634e487b7160e01b600052604160045260246000fd5b6001600160e01b03198116811461138a57600080fdfe65d7a28e3265b37a6474929f336521b332c1681b933f6cb9f3376673440d862a9f2df0fed2c77648de5860a4cc508cd0818c85b8b8a1ab4ceeef8d981c8956a6a264697066735822122021517204d64444d2940a3ef1aa542d14450f6374c54494b7ff08820ae359a9e264736f6c634300080400334f776e61626c653a2063616c6c6572206973206e6f7420746865206f776e657265d7a28e3265b37a6474929f336521b332c1681b933f6cb9f3376673440d862a9f2df0fed2c77648de5860a4cc508cd0818c85b8b8a1ab4ceeef8d981c8956a6",
  "linkReferences": {},
  "deployedLinkReferences": {}
}