{
  "_format": "hh-sol-artifact-1",
  "contractName": "AirDrop",
  "sourceName": "contracts/AirDrop.sol",
  "abi": [
    {
      "inputs": [
        {
          "internalType": "string",
          "name": "name",
          "type": "string"
        },
        {
          "internalType": "string",
          "name": "symbol",
          "type": "string"
        },
        {
          "internalType": "address",
          "name": "_quote",
          "type": "address"
        },
        {
          "internalType": "address",
          "name": "_payment",
          "type": "address"
        },
        {
          "internalType": "address",
          "name": "_treasury",
          "type": "address"
        },
        {
          "internalType": "uint256[]",
          "name": "configValues",
          "type": "uint256[]"
        }
      ],
      "stateMutability": "nonpayable",
      "type": "constructor"
    },
    {
      "anonymous": false,
      "inputs": [
        {
          "indexed": true,
          "internalType": "address",
          "name": "owner",
          "type": "address"
        },
        {
          "indexed": true,
          "internalType": "address",
          "name": "approved",
          "type": "address"
        },
        {
          "indexed": true,
          "internalType": "uint256",
          "name": "tokenId",
          "type": "uint256"
        }
      ],
      "name": "Approval",
      "type": "event"
    },
    {
      "anonymous": false,
      "inputs": [
        {
          "indexed": true,
          "internalType": "address",
          "name": "owner",
          "type": "address"
        },
        {
          "indexed": true,
          "internalType": "address",
          "name": "operator",
          "type": "address"
        },
        {
          "indexed": false,
          "internalType": "bool",
          "name": "approved",
          "type": "bool"
        }
      ],
      "name": "ApprovalForAll",
      "type": "event"
    },
    {
      "anonymous": false,
      "inputs": [
        {
          "indexed": false,
          "internalType": "address",
          "name": "",
          "type": "address"
        },
        {
          "indexed": false,
          "internalType": "string",
          "name": "",
          "type": "string"
        }
      ],
      "name": "Grant",
      "type": "event"
    },
    {
      "anonymous": false,
      "inputs": [
        {
          "indexed": true,
          "internalType": "address",
          "name": "previousOwner",
          "type": "address"
        },
        {
          "indexed": true,
          "internalType": "address",
          "name": "newOwner",
          "type": "address"
        }
      ],
      "name": "OwnershipTransferred",
      "type": "event"
    },
    {
      "anonymous": false,
      "inputs": [
        {
          "indexed": false,
          "internalType": "address",
          "name": "account",
          "type": "address"
        }
      ],
      "name": "Paused",
      "type": "event"
    },
    {
      "anonymous": false,
      "inputs": [
        {
          "indexed": true,
          "internalType": "bytes32",
          "name": "role",
          "type": "bytes32"
        },
        {
          "indexed": true,
          "internalType": "bytes32",
          "name": "previousAdminRole",
          "type": "bytes32"
        },
        {
          "indexed": true,
          "internalType": "bytes32",
          "name": "newAdminRole",
          "type": "bytes32"
        }
      ],
      "name": "RoleAdminChanged",
      "type": "event"
    },
    {
      "anonymous": false,
      "inputs": [
        {
          "indexed": true,
          "internalType": "bytes32",
          "name": "role",
          "type": "bytes32"
        },
        {
          "indexed": true,
          "internalType": "address",
          "name": "account",
          "type": "address"
        },
        {
          "indexed": true,
          "internalType": "address",
          "name": "sender",
          "type": "address"
        }
      ],
      "name": "RoleGranted",
      "type": "event"
    },
    {
      "anonymous": false,
      "inputs": [
        {
          "indexed": true,
          "internalType": "bytes32",
          "name": "role",
          "type": "bytes32"
        },
        {
          "indexed": true,
          "internalType": "address",
          "name": "account",
          "type": "address"
        },
        {
          "indexed": true,
          "internalType": "address",
          "name": "sender",
          "type": "address"
        }
      ],
      "name": "RoleRevoked",
      "type": "event"
    },
    {
      "anonymous": false,
      "inputs": [
        {
          "indexed": false,
          "internalType": "address",
          "name": "",
          "type": "address"
        },
        {
          "indexed": false,
          "internalType": "address",
          "name": "",
          "type": "address"
        },
        {
          "indexed": false,
          "internalType": "uint256",
          "name": "",
          "type": "uint256"
        }
      ],
      "name": "SetConfig",
      "type": "event"
    },
    {
      "anonymous": false,
      "inputs": [
        {
          "indexed": false,
          "internalType": "uint256",
          "name": "",
          "type": "uint256"
        }
      ],
      "name": "SetHardCap",
      "type": "event"
    },
    {
      "anonymous": false,
      "inputs": [
        {
          "indexed": false,
          "internalType": "uint256",
          "name": "",
          "type": "uint256"
        }
      ],
      "name": "SetLaunch",
      "type": "event"
    },
    {
      "anonymous": false,
      "inputs": [
        {
          "indexed": false,
          "internalType": "uint256",
          "name": "",
          "type": "uint256"
        }
      ],
      "name": "SetLockup",
      "type": "event"
    },
    {
      "anonymous": false,
      "inputs": [
        {
          "indexed": false,
          "internalType": "address",
          "name": "",
          "type": "address"
        }
      ],
      "name": "SetMysteryBox",
      "type": "event"
    },
    {
      "anonymous": false,
      "inputs": [
        {
          "indexed": false,
          "internalType": "address",
          "name": "",
          "type": "address"
        }
      ],
      "name": "SetQuote",
      "type": "event"
    },
    {
      "anonymous": false,
      "inputs": [
        {
          "indexed": true,
          "internalType": "address",
          "name": "from",
          "type": "address"
        },
        {
          "indexed": true,
          "internalType": "address",
          "name": "to",
          "type": "address"
        },
        {
          "indexed": true,
          "internalType": "uint256",
          "name": "tokenId",
          "type": "uint256"
        }
      ],
      "name": "Transfer",
      "type": "event"
    },
    {
      "anonymous": false,
      "inputs": [
        {
          "indexed": false,
          "internalType": "address",
          "name": "account",
          "type": "address"
        }
      ],
      "name": "Unpaused",
      "type": "event"
    },
    {
      "inputs": [],
      "name": "DEFAULT_ADMIN_ROLE",
      "outputs": [
        {
          "internalType": "bytes32",
          "name": "",
          "type": "bytes32"
        }
      ],
      "stateMutability": "view",
      "type": "function"
    },
    {
      "inputs": [],
      "name": "MINTER_ROLE",
      "outputs": [
        {
          "internalType": "bytes32",
          "name": "",
          "type": "bytes32"
        }
      ],
      "stateMutability": "view",
      "type": "function"
    },
    {
      "inputs": [],
      "name": "PAUSER_ROLE",
      "outputs": [
        {
          "internalType": "bytes32",
          "name": "",
          "type": "bytes32"
        }
      ],
      "stateMutability": "view",
      "type": "function"
    },
    {
      "inputs": [
        {
          "internalType": "address",
          "name": "minter",
          "type": "address"
        }
      ],
      "name": "addMinter",
      "outputs": [],
      "stateMutability": "nonpayable",
      "type": "function"
    },
    {
      "inputs": [
        {
          "internalType": "address",
          "name": "pauser",
          "type": "address"
        }
      ],
      "name": "addPauser",
      "outputs": [],
      "stateMutability": "nonpayable",
      "type": "function"
    },
    {
      "inputs": [
        {
          "internalType": "address",
          "name": "to",
          "type": "address"
        },
        {
          "internalType": "uint256",
          "name": "tokenId",
          "type": "uint256"
        }
      ],
      "name": "approve",
      "outputs": [],
      "stateMutability": "nonpayable",
      "type": "function"
    },
    {
      "inputs": [
        {
          "internalType": "address",
          "name": "owner",
          "type": "address"
        }
      ],
      "name": "balanceOf",
      "outputs": [
        {
          "internalType": "uint256",
          "name": "",
          "type": "uint256"
        }
      ],
      "stateMutability": "view",
      "type": "function"
    },
    {
      "inputs": [
        {
          "internalType": "uint256",
          "name": "tokenId",
          "type": "uint256"
        }
      ],
      "name": "burn",
      "outputs": [],
      "stateMutability": "nonpayable",
      "type": "function"
    },
    {
      "inputs": [],
      "name": "claim",
      "outputs": [],
      "stateMutability": "nonpayable",
      "type": "function"
    },
    {
      "inputs": [],
      "name": "feeRate",
      "outputs": [
        {
          "internalType": "uint256",
          "name": "",
          "type": "uint256"
        }
      ],
      "stateMutability": "view",
      "type": "function"
    },
    {
      "inputs": [
        {
          "internalType": "uint256",
          "name": "tokenId",
          "type": "uint256"
        }
      ],
      "name": "getApproved",
      "outputs": [
        {
          "internalType": "address",
          "name": "",
          "type": "address"
        }
      ],
      "stateMutability": "view",
      "type": "function"
    },
    {
      "inputs": [],
      "name": "getItemRemains",
      "outputs": [
        {
          "internalType": "uint256",
          "name": "",
          "type": "uint256"
        }
      ],
      "stateMutability": "view",
      "type": "function"
    },
    {
      "inputs": [
        {
          "internalType": "bytes32",
          "name": "role",
          "type": "bytes32"
        }
      ],
      "name": "getRoleAdmin",
      "outputs": [
        {
          "internalType": "bytes32",
          "name": "",
          "type": "bytes32"
        }
      ],
      "stateMutability": "view",
      "type": "function"
    },
    {
      "inputs": [],
      "name": "globalURI",
      "outputs": [
        {
          "internalType": "string",
          "name": "",
          "type": "string"
        }
      ],
      "stateMutability": "view",
      "type": "function"
    },
    {
      "inputs": [
        {
          "internalType": "bytes32",
          "name": "role",
          "type": "bytes32"
        },
        {
          "internalType": "address",
          "name": "account",
          "type": "address"
        }
      ],
      "name": "grantRole",
      "outputs": [],
      "stateMutability": "nonpayable",
      "type": "function"
    },
    {
      "inputs": [],
      "name": "hardCap",
      "outputs": [
        {
          "internalType": "uint256",
          "name": "",
          "type": "uint256"
        }
      ],
      "stateMutability": "view",
      "type": "function"
    },
    {
      "inputs": [
        {
          "internalType": "bytes32",
          "name": "role",
          "type": "bytes32"
        },
        {
          "internalType": "address",
          "name": "account",
          "type": "address"
        }
      ],
      "name": "hasRole",
      "outputs": [
        {
          "internalType": "bool",
          "name": "",
          "type": "bool"
        }
      ],
      "stateMutability": "view",
      "type": "function"
    },
    {
      "inputs": [
        {
          "internalType": "address",
          "name": "owner",
          "type": "address"
        },
        {
          "internalType": "address",
          "name": "operator",
          "type": "address"
        }
      ],
      "name": "isApprovedForAll",
      "outputs": [
        {
          "internalType": "bool",
          "name": "",
          "type": "bool"
        }
      ],
      "stateMutability": "view",
      "type": "function"
    },
    {
      "inputs": [
        {
          "internalType": "uint256",
          "name": "",
          "type": "uint256"
        }
      ],
      "name": "itemAmounts",
      "outputs": [
        {
          "internalType": "uint256",
          "name": "",
          "type": "uint256"
        }
      ],
      "stateMutability": "view",
      "type": "function"
    },
    {
      "inputs": [
        {
          "internalType": "uint256",
          "name": "",
          "type": "uint256"
        }
      ],
      "name": "itemPrices",
      "outputs": [
        {
          "internalType": "uint256",
          "name": "",
          "type": "uint256"
        }
      ],
      "stateMutability": "view",
      "type": "function"
    },
    {
      "inputs": [
        {
          "internalType": "uint256",
          "name": "",
          "type": "uint256"
        }
      ],
      "name": "itemSold",
      "outputs": [
        {
          "internalType": "uint256",
          "name": "",
          "type": "uint256"
        }
      ],
      "stateMutability": "view",
      "type": "function"
    },
    {
      "inputs": [
        {
          "internalType": "uint256",
          "name": "",
          "type": "uint256"
        }
      ],
      "name": "itemURIs",
      "outputs": [
        {
          "internalType": "string",
          "name": "",
          "type": "string"
        }
      ],
      "stateMutability": "view",
      "type": "function"
    },
    {
      "inputs": [],
      "name": "launch",
      "outputs": [
        {
          "internalType": "uint256",
          "name": "",
          "type": "uint256"
        }
      ],
      "stateMutability": "view",
      "type": "function"
    },
    {
      "inputs": [],
      "name": "lockup",
      "outputs": [
        {
          "internalType": "uint256",
          "name": "",
          "type": "uint256"
        }
      ],
      "stateMutability": "view",
      "type": "function"
    },
    {
      "inputs": [
        {
          "internalType": "uint256",
          "name": "",
          "type": "uint256"
        }
      ],
      "name": "mandatory",
      "outputs": [
        {
          "internalType": "address",
          "name": "",
          "type": "address"
        }
      ],
      "stateMutability": "view",
      "type": "function"
    },
    {
      "inputs": [],
      "name": "mysteryBox",
      "outputs": [
        {
          "internalType": "address",
          "name": "",
          "type": "address"
        }
      ],
      "stateMutability": "view",
      "type": "function"
    },
    {
      "inputs": [],
      "name": "name",
      "outputs": [
        {
          "internalType": "string",
          "name": "",
          "type": "string"
        }
      ],
      "stateMutability": "view",
      "type": "function"
    },
    {
      "inputs": [
        {
          "internalType": "address",
          "name": "operator",
          "type": "address"
        },
        {
          "internalType": "address",
          "name": "from",
          "type": "address"
        },
        {
          "internalType": "uint256",
          "name": "tokenId",
          "type": "uint256"
        },
        {
          "internalType": "bytes",
          "name": "data",
          "type": "bytes"
        }
      ],
      "name": "onERC721Received",
      "outputs": [
        {
          "internalType": "bytes4",
          "name": "",
          "type": "bytes4"
        }
      ],
      "stateMutability": "pure",
      "type": "function"
    },
    {
      "inputs": [],
      "name": "owner",
      "outputs": [
        {
          "internalType": "address",
          "name": "",
          "type": "address"
        }
      ],
      "stateMutability": "view",
      "type": "function"
    },
    {
      "inputs": [
        {
          "internalType": "uint256",
          "name": "tokenId",
          "type": "uint256"
        }
      ],
      "name": "ownerOf",
      "outputs": [
        {
          "internalType": "address",
          "name": "",
          "type": "address"
        }
      ],
      "stateMutability": "view",
      "type": "function"
    },
    {
      "inputs": [],
      "name": "pause",
      "outputs": [],
      "stateMutability": "nonpayable",
      "type": "function"
    },
    {
      "inputs": [],
      "name": "paused",
      "outputs": [
        {
          "internalType": "bool",
          "name": "",
          "type": "bool"
        }
      ],
      "stateMutability": "view",
      "type": "function"
    },
    {
      "inputs": [],
      "name": "payment",
      "outputs": [
        {
          "internalType": "address",
          "name": "",
          "type": "address"
        }
      ],
      "stateMutability": "view",
      "type": "function"
    },
    {
      "inputs": [],
      "name": "quote",
      "outputs": [
        {
          "internalType": "address",
          "name": "",
          "type": "address"
        }
      ],
      "stateMutability": "view",
      "type": "function"
    },
    {
      "inputs": [
        {
          "internalType": "string[]",
          "name": "uris",
          "type": "string[]"
        },
        {
          "internalType": "uint256[]",
          "name": "amounts",
          "type": "uint256[]"
        },
        {
          "internalType": "uint256[]",
          "name": "prices",
          "type": "uint256[]"
        }
      ],
      "name": "registerItems",
      "outputs": [],
      "stateMutability": "nonpayable",
      "type": "function"
    },
    {
      "inputs": [],
      "name": "renounceOwnership",
      "outputs": [],
      "stateMutability": "nonpayable",
      "type": "function"
    },
    {
      "inputs": [
        {
          "internalType": "bytes32",
          "name": "role",
          "type": "bytes32"
        },
        {
          "internalType": "address",
          "name": "account",
          "type": "address"
        }
      ],
      "name": "renounceRole",
      "outputs": [],
      "stateMutability": "nonpayable",
      "type": "function"
    },
    {
      "inputs": [
        {
          "internalType": "bytes32",
          "name": "role",
          "type": "bytes32"
        },
        {
          "internalType": "address",
          "name": "account",
          "type": "address"
        }
      ],
      "name": "revokeRole",
      "outputs": [],
      "stateMutability": "nonpayable",
      "type": "function"
    },
    {
      "inputs": [
        {
          "internalType": "address",
          "name": "to",
          "type": "address"
        },
        {
          "internalType": "string[]",
          "name": "uris",
          "type": "string[]"
        }
      ],
      "name": "safeBatchMint",
      "outputs": [],
      "stateMutability": "view",
      "type": "function"
    },
    {
      "inputs": [
        {
          "internalType": "address",
          "name": "to",
          "type": "address"
        },
        {
          "internalType": "string",
          "name": "uri",
          "type": "string"
        },
        {
          "internalType": "uint256",
          "name": "amount",
          "type": "uint256"
        }
      ],
      "name": "safeBatchMintLight",
      "outputs": [],
      "stateMutability": "nonpayable",
      "type": "function"
    },
    {
      "inputs": [
        {
          "internalType": "address",
          "name": "to",
          "type": "address"
        },
        {
          "internalType": "string",
          "name": "uri",
          "type": "string"
        }
      ],
      "name": "safeMint",
      "outputs": [
        {
          "internalType": "uint256",
          "name": "",
          "type": "uint256"
        }
      ],
      "stateMutability": "view",
      "type": "function"
    },
    {
      "inputs": [
        {
          "internalType": "address",
          "name": "to",
          "type": "address"
        }
      ],
      "name": "safeMintTo",
      "outputs": [],
      "stateMutability": "nonpayable",
      "type": "function"
    },
    {
      "inputs": [
        {
          "internalType": "address",
          "name": "from",
          "type": "address"
        },
        {
          "internalType": "address",
          "name": "to",
          "type": "address"
        },
        {
          "internalType": "uint256",
          "name": "tokenId",
          "type": "uint256"
        }
      ],
      "name": "safeTransferFrom",
      "outputs": [],
      "stateMutability": "nonpayable",
      "type": "function"
    },
    {
      "inputs": [
        {
          "internalType": "address",
          "name": "from",
          "type": "address"
        },
        {
          "internalType": "address",
          "name": "to",
          "type": "address"
        },
        {
          "internalType": "uint256",
          "name": "tokenId",
          "type": "uint256"
        },
        {
          "internalType": "bytes",
          "name": "_data",
          "type": "bytes"
        }
      ],
      "name": "safeTransferFrom",
      "outputs": [],
      "stateMutability": "nonpayable",
      "type": "function"
    },
    {
      "inputs": [
        {
          "internalType": "address",
          "name": "operator",
          "type": "address"
        },
        {
          "internalType": "bool",
          "name": "approved",
          "type": "bool"
        }
      ],
      "name": "setApprovalForAll",
      "outputs": [],
      "stateMutability": "nonpayable",
      "type": "function"
    },
    {
      "inputs": [
        {
          "internalType": "address",
          "name": "_payment",
          "type": "address"
        },
        {
          "internalType": "address",
          "name": "_treasury",
          "type": "address"
        },
        {
          "internalType": "uint256",
          "name": "_feeRate",
          "type": "uint256"
        }
      ],
      "name": "setConfig",
      "outputs": [],
      "stateMutability": "nonpayable",
      "type": "function"
    },
    {
      "inputs": [
        {
          "internalType": "uint256",
          "name": "_hardCap",
          "type": "uint256"
        },
        {
          "internalType": "string",
          "name": "_uri",
          "type": "string"
        }
      ],
      "name": "setHardCap",
      "outputs": [],
      "stateMutability": "nonpayable",
      "type": "function"
    },
    {
      "inputs": [
        {
          "internalType": "uint256",
          "name": "_launch",
          "type": "uint256"
        }
      ],
      "name": "setLaunch",
      "outputs": [],
      "stateMutability": "nonpayable",
      "type": "function"
    },
    {
      "inputs": [
        {
          "internalType": "uint256",
          "name": "_lockup",
          "type": "uint256"
        }
      ],
      "name": "setLockup",
      "outputs": [],
      "stateMutability": "nonpayable",
      "type": "function"
    },
    {
      "inputs": [
        {
          "internalType": "address[]",
          "name": "_nfts",
          "type": "address[]"
        }
      ],
      "name": "setMandatory",
      "outputs": [],
      "stateMutability": "nonpayable",
      "type": "function"
    },
    {
      "inputs": [
        {
          "internalType": "address",
          "name": "_mbox",
          "type": "address"
        }
      ],
      "name": "setMysteryBox",
      "outputs": [],
      "stateMutability": "nonpayable",
      "type": "function"
    },
    {
      "inputs": [
        {
          "internalType": "address",
          "name": "_quote",
          "type": "address"
        }
      ],
      "name": "setQuote",
      "outputs": [],
      "stateMutability": "nonpayable",
      "type": "function"
    },
    {
      "inputs": [
        {
          "internalType": "bytes4",
          "name": "interfaceId",
          "type": "bytes4"
        }
      ],
      "name": "supportsInterface",
      "outputs": [
        {
          "internalType": "bool",
          "name": "",
          "type": "bool"
        }
      ],
      "stateMutability": "view",
      "type": "function"
    },
    {
      "inputs": [],
      "name": "symbol",
      "outputs": [
        {
          "internalType": "string",
          "name": "",
          "type": "string"
        }
      ],
      "stateMutability": "view",
      "type": "function"
    },
    {
      "inputs": [
        {
          "internalType": "uint256",
          "name": "index",
          "type": "uint256"
        }
      ],
      "name": "tokenByIndex",
      "outputs": [
        {
          "internalType": "uint256",
          "name": "",
          "type": "uint256"
        }
      ],
      "stateMutability": "view",
      "type": "function"
    },
    {
      "inputs": [
        {
          "internalType": "address",
          "name": "owner",
          "type": "address"
        },
        {
          "internalType": "uint256",
          "name": "index",
          "type": "uint256"
        }
      ],
      "name": "tokenOfOwnerByIndex",
      "outputs": [
        {
          "internalType": "uint256",
          "name": "",
          "type": "uint256"
        }
      ],
      "stateMutability": "view",
      "type": "function"
    },
    {
      "inputs": [
        {
          "internalType": "uint256",
          "name": "tokenId",
          "type": "uint256"
        }
      ],
      "name": "tokenURI",
      "outputs": [
        {
          "internalType": "string",
          "name": "",
          "type": "string"
        }
      ],
      "stateMutability": "view",
      "type": "function"
    },
    {
      "inputs": [],
      "name": "totalItems",
      "outputs": [
        {
          "internalType": "uint256",
          "name": "",
          "type": "uint256"
        }
      ],
      "stateMutability": "view",
      "type": "function"
    },
    {
      "inputs": [],
      "name": "totalSold",
      "outputs": [
        {
          "internalType": "uint256",
          "name": "",
          "type": "uint256"
        }
      ],
      "stateMutability": "view",
      "type": "function"
    },
    {
      "inputs": [],
      "name": "totalSupply",
      "outputs": [
        {
          "internalType": "uint256",
          "name": "",
          "type": "uint256"
        }
      ],
      "stateMutability": "view",
      "type": "function"
    },
    {
      "inputs": [
        {
          "internalType": "address",
          "name": "from",
          "type": "address"
        },
        {
          "internalType": "address",
          "name": "to",
          "type": "address"
        },
        {
          "internalType": "uint256",
          "name": "tokenId",
          "type": "uint256"
        }
      ],
      "name": "transferFrom",
      "outputs": [],
      "stateMutability": "nonpayable",
      "type": "function"
    },
    {
      "inputs": [
        {
          "internalType": "address",
          "name": "newOwner",
          "type": "address"
        }
      ],
      "name": "transferOwnership",
      "outputs": [],
      "stateMutability": "nonpayable",
      "type": "function"
    },
    {
      "inputs": [],
      "name": "treasury",
      "outputs": [
        {
          "internalType": "address",
          "name": "",
          "type": "address"
        }
      ],
      "stateMutability": "view",
      "type": "function"
    },
    {
      "inputs": [],
      "name": "unpause",
      "outputs": [],
      "stateMutability": "nonpayable",
      "type": "function"
    },
    {
      "stateMutability": "payable",
      "type": "receive"
    }
  ],
  "bytecode": "0x60806040526000600d819055601280546001600160a01b031916905560778190556078556032607d556082805460ff191690553480156200003f57600080fd5b5060405162004ca638038062004ca68339810160408190526200006291620007da565b8585818181600090805190602001906200007e92919062000686565b5080516200009490600190602084019062000686565b5050600b805460ff1916905550620000ac3362000257565b620000b9600033620002b1565b620000d460008051602062004c6683398151915233620002b1565b620000ef60008051602062004c8683398151915233620002b1565b5050600160115580516003146200014d5760405162461bcd60e51b815260206004820152601a60248201527f696e76616c696420636f6e6669672064617461206c656e67746800000000000060448201526064015b60405180910390fd5b6200015a600033620002b1565b6200017560008051602062004c6683398151915233620002b1565b6200019060008051602062004c8683398151915233620002b1565b620001ca81600081518110620001b657634e487b7160e01b600052603260045260246000fd5b60200260200101516200035660201b60201c565b6200020481600181518110620001f057634e487b7160e01b600052603260045260246000fd5b6020026020010151620003e360201b60201c565b620002408383836002815181106200022c57634e487b7160e01b600052603260045260246000fd5b60200260200101516200046a60201b60201c565b6200024b84620005e6565b50505050505062000994565b600b80546001600160a01b03838116610100818102610100600160a81b031985161790945560405193909204169182907f8be0079c531659141344cd1fd0a4f28419497f9722a3daafe3b4186f6b6457e090600090a35050565b6000828152600c602090815260408083206001600160a01b038516845290915290205460ff1662000352576000828152600c602090815260408083206001600160a01b03851684529091529020805460ff19166001179055620003113390565b6001600160a01b0316816001600160a01b0316837f2f8788117e7eff1d82e926ec794901d17c78024a50270940304540a733656f0d60405160405180910390a45b5050565b600b546001600160a01b03610100909104163314620003a75760405162461bcd60e51b8152602060048201819052602482015260008051602062004c46833981519152604482015260640162000144565b60798190556040518181527f7c8826e4db3679f20c86da0c68d37f9dbcd1d638c56717e014f93c56d14c02d1906020015b60405180910390a150565b600b546001600160a01b03610100909104163314620004345760405162461bcd60e51b8152602060048201819052602482015260008051602062004c46833981519152604482015260640162000144565b607a8190556040518181527fa7ade4ab976b6643a971383d9822fb7c2fce66aa2e497d88c3b4f1475ea2b2e090602001620003d8565b600b546001600160a01b03610100909104163314620004bb5760405162461bcd60e51b8152602060048201819052602482015260008051602062004c46833981519152604482015260640162000144565b6001600160a01b038316620005135760405162461bcd60e51b815260206004820152601760248201527f696e76616c6964207061796d656e742061646472657373000000000000000000604482015260640162000144565b6001600160a01b0382166200056b5760405162461bcd60e51b815260206004820152601860248201527f696e76616c696420747265617375727920616464726573730000000000000000604482015260640162000144565b607b80546001600160a01b038581166001600160a01b03199283168117909355607c8054918616919092168117909155607d83905560408051928352602083019190915281018290527fe2be3027f197494650b7a98fd1cae67dacf615bd1d8bb05102999676f11638669060600160405180910390a1505050565b600b546001600160a01b03610100909104163314620006375760405162461bcd60e51b8152602060048201819052602482015260008051602062004c46833981519152604482015260640162000144565b601280546001600160a01b0319166001600160a01b0383169081179091556040519081527fca92c759228172fe3894a344908fd20dfd37ba561b5af191f1f5b02ee03881fc90602001620003d8565b828054620006949062000941565b90600052602060002090601f016020900481019282620006b8576000855562000703565b82601f10620006d357805160ff191683800117855562000703565b8280016001018555821562000703579182015b8281111562000703578251825591602001919060010190620006e6565b506200071192915062000715565b5090565b5b8082111562000711576000815560010162000716565b80516001600160a01b03811681146200074457600080fd5b919050565b600082601f8301126200075a578081fd5b81516001600160401b038111156200077657620007766200097e565b60206200078c601f8301601f191682016200090e565b8281528582848701011115620007a0578384fd5b835b83811015620007bf578581018301518282018401528201620007a2565b83811115620007d057848385840101525b5095945050505050565b60008060008060008060c08789031215620007f3578182fd5b86516001600160401b03808211156200080a578384fd5b620008188a838b0162000749565b97506020915081890151818111156200082f578485fd5b6200083d8b828c0162000749565b9750506200084e60408a016200072c565b95506200085e60608a016200072c565b94506200086e60808a016200072c565b935060a08901518181111562000882578384fd5b8901601f81018b1362000893578384fd5b805182811115620008a857620008a86200097e565b8060051b9250620008bb8484016200090e565b8181528481019083860185850187018f1015620008d6578788fd5b8795505b83861015620008fa578051835260019590950194918601918601620008da565b508096505050505050509295509295509295565b604051601f8201601f191681016001600160401b03811182821017156200093957620009396200097e565b604052919050565b600181811c908216806200095657607f821691505b602082108114156200097857634e487b7160e01b600052602260045260246000fd5b50919050565b634e487b7160e01b600052604160045260246000fd5b6142a280620009a46000396000f3fe6080604052600436106103c75760003560e01c8063715018a6116101f2578063b5a87cc11161010d578063d5391393116100a0578063f0596a791161006f578063f0596a7914610b5a578063f2fde38b14610b7a578063f3c8dc5914610b9a578063fb86a40414610bba57600080fd5b8063d539139314610aad578063d547741f14610acf578063e63ab1e914610aef578063e985e9c514610b1157600080fd5b8063c38b761c116100dc578063c38b761c14610a38578063c87b56dd14610a58578063d204c45e14610a78578063d3d3224a14610a9857600080fd5b8063b5a87cc1146109b8578063b88d4fde146109d8578063bf0809f9146109f8578063bf91ad9e14610a1857600080fd5b806391d1485411610185578063999b93af11610154578063999b93af14610943578063a217fddf14610963578063a22cb46514610978578063a2aa61eb1461099857600080fd5b806391d14854146108d857806395d89b41146108f8578063978bbdb91461090d578063983b2d561461092357600080fd5b80638a55b866116101c15780638a55b8661461085f5780638da5cb5b1461087f578063902835f6146108a25780639106d7ba146108c257600080fd5b8063715018a6146107f55780637b43b8271461080a57806382dc1ec41461082a5780638456cb591461084a57600080fd5b806336568abe116102e25780635c975abb1161027557806361d027b31161024457806361d027b3146107755780636352211e146107955780636ae6b459146107b557806370a08231146107d557600080fd5b80635c975abb146107085780635d1d37c3146107205780635d814dea146107405780635dce73831461076057600080fd5b806342f6487a116102b157806342f6487a146106935780634e71d92d146106b35780634f6ccce7146106c857806358dd6d95146106e857600080fd5b806336568abe1461061e5780633f4ba83a1461063e57806342842e0e1461065357806342966c681461067357600080fd5b806321bae9e41161035a5780632799276d116103295780632799276d146105a85780632f2ff15d146105be5780632f745c59146105de5780632f785908146105fe57600080fd5b806321bae9e41461051857806323b872dd146105385780632449065914610558578063248a9ca31461057857600080fd5b8063081812fc11610396578063081812fc14610464578063095ea7b31461049c578063150b7a02146104be57806318160ddd1461050357600080fd5b806301339c21146103d357806301ffc9a7146103fc57806306490f471461042c57806306fdde031461044257600080fd5b366103ce57005b600080fd5b3480156103df57600080fd5b506103e960795481565b6040519081526020015b60405180910390f35b34801561040857600080fd5b5061041c610417366004613e02565b610bd0565b60405190151581526020016103f3565b34801561043857600080fd5b506103e9607a5481565b34801561044e57600080fd5b50610457610bfb565b6040516103f39190613f8d565b34801561047057600080fd5b5061048461047f366004613dc8565b610c8d565b6040516001600160a01b0390911681526020016103f3565b3480156104a857600080fd5b506104bc6104b7366004613cad565b610d1a565b005b3480156104ca57600080fd5b506104ea6104d9366004613a86565b630a85bd0160e11b95945050505050565b6040516001600160e01b031990911681526020016103f3565b34801561050f57600080fd5b506008546103e9565b34801561052457600080fd5b506104bc6105333660046139ff565b610e30565b34801561054457600080fd5b506104bc610553366004613a4b565b610f7d565b34801561056457600080fd5b506104bc610573366004613e52565b610faf565b34801561058457600080fd5b506103e9610593366004613dc8565b6000908152600c602052604090206001015490565b3480156105b457600080fd5b506103e960775481565b3480156105ca57600080fd5b506104bc6105d9366004613de0565b611037565b3480156105ea57600080fd5b506103e96105f9366004613cad565b61105c565b34801561060a57600080fd5b50610484610619366004613dc8565b6110f2565b34801561062a57600080fd5b506104bc610639366004613de0565b61111c565b34801561064a57600080fd5b506104bc61119a565b34801561065f57600080fd5b506104bc61066e366004613a4b565b6111bd565b34801561067f57600080fd5b506104bc61068e366004613dc8565b6111d8565b34801561069f57600080fd5b50607b54610484906001600160a01b031681565b3480156106bf57600080fd5b506104bc61124f565b3480156106d457600080fd5b506103e96106e3366004613dc8565b61166f565b3480156106f457600080fd5b506104bc610703366004613b93565b611710565b34801561071457600080fd5b50600b5460ff1661041c565b34801561072c57600080fd5b506104bc61073b366004613dc8565b61175b565b34801561074c57600080fd5b5061045761075b366004613dc8565b6117c7565b34801561076c57600080fd5b506103e9611873565b34801561078157600080fd5b50607c54610484906001600160a01b031681565b3480156107a157600080fd5b506104846107b0366004613dc8565b61190f565b3480156107c157600080fd5b506104bc6107d0366004613dc8565b611986565b3480156107e157600080fd5b506103e96107f03660046139ff565b6119eb565b34801561080157600080fd5b506104bc611a72565b34801561081657600080fd5b506104bc6108253660046139ff565b611aae565b34801561083657600080fd5b506104bc6108453660046139ff565b611b4e565b34801561085657600080fd5b506104bc611bf4565b34801561086b57600080fd5b506103e961087a366004613dc8565b611c14565b34801561088b57600080fd5b50600b5461010090046001600160a01b0316610484565b3480156108ae57600080fd5b506104bc6108bd366004613a4b565b611c35565b3480156108ce57600080fd5b506103e960785481565b3480156108e457600080fd5b5061041c6108f3366004613de0565b611d8c565b34801561090457600080fd5b50610457611db7565b34801561091957600080fd5b506103e9607d5481565b34801561092f57600080fd5b506104bc61093e3660046139ff565b611dc6565b34801561094f57600080fd5b50601254610484906001600160a01b031681565b34801561096f57600080fd5b506103e9600081565b34801561098457600080fd5b506104bc610993366004613bde565b611e6c565b3480156109a457600080fd5b506104bc6109b33660046139ff565b611e77565b3480156109c457600080fd5b506104bc6109d3366004613c59565b611ef5565b3480156109e457600080fd5b506104bc6109f3366004613b1b565b611f87565b348015610a0457600080fd5b506104bc610a13366004613cd6565b611fbf565b348015610a2457600080fd5b506103e9610a33366004613dc8565b611ffb565b348015610a4457600080fd5b50600f54610484906001600160a01b031681565b348015610a6457600080fd5b50610457610a73366004613dc8565b61200b565b348015610a8457600080fd5b506103e9610a93366004613c18565b612016565b348015610aa457600080fd5b50610457612030565b348015610ab957600080fd5b506103e960008051602061424d83398151915281565b348015610adb57600080fd5b506104bc610aea366004613de0565b61203d565b348015610afb57600080fd5b506103e960008051602061422d83398151915281565b348015610b1d57600080fd5b5061041c610b2c366004613a19565b6001600160a01b03918216600090815260056020908152604080832093909416825291909152205460ff1690565b348015610b6657600080fd5b506103e9610b75366004613dc8565b612062565b348015610b8657600080fd5b506104bc610b953660046139ff565b612072565b348015610ba657600080fd5b506104bc610bb5366004613d45565b612110565b348015610bc657600080fd5b506103e9600d5481565b60006001600160e01b031982166380ac58cd60e01b1480610bf55750610bf5826122c7565b92915050565b606060008054610c0a90614170565b80601f0160208091040260200160405190810160405280929190818152602001828054610c3690614170565b8015610c835780601f10610c5857610100808354040283529160200191610c83565b820191906000526020600020905b815481529060010190602001808311610c6657829003601f168201915b5050505050905090565b6000610c98826122ec565b610cfe5760405162461bcd60e51b815260206004820152602c60248201527f4552433732313a20617070726f76656420717565727920666f72206e6f6e657860448201526b34b9ba32b73a103a37b5b2b760a11b60648201526084015b60405180910390fd5b506000908152600460205260409020546001600160a01b031690565b6000610d258261190f565b9050806001600160a01b0316836001600160a01b03161415610d935760405162461bcd60e51b815260206004820152602160248201527f4552433732313a20617070726f76616c20746f2063757272656e74206f776e656044820152603960f91b6064820152608401610cf5565b336001600160a01b0382161480610daf5750610daf8133610b2c565b610e215760405162461bcd60e51b815260206004820152603860248201527f4552433732313a20617070726f76652063616c6c6572206973206e6f74206f7760448201527f6e6572206e6f7220617070726f76656420666f7220616c6c00000000000000006064820152608401610cf5565b610e2b8383612309565b505050565b60008051602061424d833981519152610e4881612377565b6000600e8054610e5790614170565b905011610e9e5760405162461bcd60e51b815260206004820152601560248201527411db1bd8985b08155492481a5cc81b9bdd081cd95d605a1b6044820152606401610cf5565b6001600160a01b038216610ee95760405162461bcd60e51b8152602060048201526012602482015271496e76616c696420746f206164647265737360701b6044820152606401610cf5565b610e2b82600e8054610efa90614170565b80601f0160208091040260200160405190810160405280929190818152602001828054610f2690614170565b8015610f735780601f10610f4857610100808354040283529160200191610f73565b820191906000526020600020905b815481529060010190602001808311610f5657829003601f168201915b5050505050612016565b610f88335b82612381565b610fa45760405162461bcd60e51b8152600401610cf590614027565b610e2b83838361246b565b600b546001600160a01b03610100909104163314610fdf5760405162461bcd60e51b8152600401610cf590613ff2565b600d8290558051610ff790600e9060208401906136ad565b507f57bbf0b7295e3c8587fe0fa3c76592771f6a96123bf723292fd0e3933436b71f600d5460405161102b91815260200190565b60405180910390a15050565b6000828152600c602052604090206001015461105281612377565b610e2b8383612612565b6000611067836119eb565b82106110c95760405162461bcd60e51b815260206004820152602b60248201527f455243373231456e756d657261626c653a206f776e657220696e646578206f7560448201526a74206f6620626f756e647360a81b6064820152608401610cf5565b506001600160a01b03919091166000908152600660209081526040808320938352929052205490565b6083818154811061110257600080fd5b6000918252602090912001546001600160a01b0316905081565b6001600160a01b038116331461118c5760405162461bcd60e51b815260206004820152602f60248201527f416363657373436f6e74726f6c3a2063616e206f6e6c792072656e6f756e636560448201526e103937b632b9903337b91039b2b63360891b6064820152608401610cf5565b6111968282612698565b5050565b60008051602061422d8339815191526111b281612377565b6111ba6126ff565b50565b610e2b83838360405180602001604052806000815250611f87565b6111e133610f82565b6112465760405162461bcd60e51b815260206004820152603060248201527f4552433732314275726e61626c653a2063616c6c6572206973206e6f74206f7760448201526f1b995c881b9bdc88185c1c1c9bdd995960821b6064820152608401610cf5565b6111ba81612792565b60795442116112a05760405162461bcd60e51b815260206004820152601b60248201527f4e6f7420796574206c61756e63682074696d65207265616368656400000000006044820152606401610cf5565b607854607754116112e65760405162461bcd60e51b815260206004820152601060248201526f185c9a591c9bdc081cdbdb19081bdd5d60821b6044820152606401610cf5565b60005b6083548110156114035760006083828154811061131657634e487b7160e01b600052603260045260246000fd5b6000918252602090912001546040516370a0823160e01b81523360048201526001600160a01b03909116906370a082319060240160206040518083038186803b15801561136257600080fd5b505afa158015611376573d6000803e3d6000fd5b505050506040513d601f19601f8201168201806040525081019061139a9190613e3a565b116113f15760405162461bcd60e51b815260206004820152602160248201527f73686f756c642062757920616c6c20636f6c6c656374696f6e73206265666f726044820152606560f81b6064820152608401610cf5565b806113fb816141a5565b9150506112e9565b50600080805b607f548110156114cb57607f818154811061143457634e487b7160e01b600052603260045260246000fd5b90600052602060002001546080828154811061146057634e487b7160e01b600052603260045260246000fd5b9060005260206000200154106114b5576114ae607f828154811061149457634e487b7160e01b600052603260045260246000fd5b90600052602060002001548361279b90919063ffffffff16565b91506114b9565b8092505b806114c3816141a5565b915050611409565b506114ff6114f8601384606481106114f357634e487b7160e01b600052603260045260246000fd5b015490565b829061279b565b90506115bf3382607e858154811061152757634e487b7160e01b600052603260045260246000fd5b90600052602060002001805461153c90614170565b80601f016020809104026020016040519081016040528092919081815260200182805461156890614170565b80156115b55780601f1061158a576101008083540402835291602001916115b5565b820191906000526020600020905b81548152906001019060200180831161159857829003601f168201915b50505050506127ae565b506115ee601383606481106115e457634e487b7160e01b600052603260045260246000fd5b0180546001019055565b61162d60016080848154811061161457634e487b7160e01b600052603260045260246000fd5b906000526020600020015461279b90919063ffffffff16565b6080838154811061164e57634e487b7160e01b600052603260045260246000fd5b60009182526020909120015560785461166890600161279b565b6078555050565b600061167a60085490565b82106116dd5760405162461bcd60e51b815260206004820152602c60248201527f455243373231456e756d657261626c653a20676c6f62616c20696e646578206f60448201526b7574206f6620626f756e647360a01b6064820152608401610cf5565b600882815481106116fe57634e487b7160e01b600052603260045260246000fd5b90600052602060002001549050919050565b60008051602061424d83398151915261172881612377565b60405162461bcd60e51b8152602060048201526008602482015267111a5cd8589b195960c21b6044820152606401610cf5565b600b546001600160a01b0361010090910416331461178b5760405162461bcd60e51b8152600401610cf590613ff2565b60798190556040518181527f7c8826e4db3679f20c86da0c68d37f9dbcd1d638c56717e014f93c56d14c02d1906020015b60405180910390a150565b607e81815481106117d757600080fd5b9060005260206000200160009150905080546117f290614170565b80601f016020809104026020016040519081016040528092919081815260200182805461181e90614170565b801561186b5780601f106118405761010080835404028352916020019161186b565b820191906000526020600020905b81548152906001019060200180831161184e57829003601f168201915b505050505081565b600080805b607f54811015611909576118f56118ee608083815481106118a957634e487b7160e01b600052603260045260246000fd5b9060005260206000200154607f84815481106118d557634e487b7160e01b600052603260045260246000fd5b90600052602060002001546127c590919063ffffffff16565b839061279b565b915080611901816141a5565b915050611878565b50919050565b6000818152600260205260408120546001600160a01b031680610bf55760405162461bcd60e51b815260206004820152602960248201527f4552433732313a206f776e657220717565727920666f72206e6f6e657869737460448201526832b73a103a37b5b2b760b91b6064820152608401610cf5565b600b546001600160a01b036101009091041633146119b65760405162461bcd60e51b8152600401610cf590613ff2565b607a8190556040518181527fa7ade4ab976b6643a971383d9822fb7c2fce66aa2e497d88c3b4f1475ea2b2e0906020016117bc565b60006001600160a01b038216611a565760405162461bcd60e51b815260206004820152602a60248201527f4552433732313a2062616c616e636520717565727920666f7220746865207a65604482015269726f206164647265737360b01b6064820152608401610cf5565b506001600160a01b031660009081526003602052604090205490565b600b546001600160a01b03610100909104163314611aa25760405162461bcd60e51b8152600401610cf590613ff2565b611aac60006127d1565b565b600b546001600160a01b03610100909104163314611ade5760405162461bcd60e51b8152600401610cf590613ff2565b600f80546001600160a01b0319166001600160a01b038316179055611b1160008051602061424d83398151915282612612565b600f546040516001600160a01b0390911681527f329b1203fc60a62c4a0fd3ff1554a07f92a2f117cc590422dd105811bb484ded906020016117bc565b600b546001600160a01b03610100909104163314611b7e5760405162461bcd60e51b8152600401610cf590613ff2565b611b9660008051602061422d83398151915282612612565b604080516001600160a01b038316815260208101829052600b918101919091526a5041555345525f524f4c4560a81b60608201527f0578acc86b18d67c13a5e6eed8c670fb7052f530b48a2acb167d6ca77509a384906080016117bc565b60008051602061422d833981519152611c0c81612377565b6111ba61282b565b607f8181548110611c2457600080fd5b600091825260209091200154905081565b600b546001600160a01b03610100909104163314611c655760405162461bcd60e51b8152600401610cf590613ff2565b6001600160a01b038316611cbb5760405162461bcd60e51b815260206004820152601760248201527f696e76616c6964207061796d656e7420616464726573730000000000000000006044820152606401610cf5565b6001600160a01b038216611d115760405162461bcd60e51b815260206004820152601860248201527f696e76616c6964207472656173757279206164647265737300000000000000006044820152606401610cf5565b607b80546001600160a01b038581166001600160a01b03199283168117909355607c8054918616919092168117909155607d83905560408051928352602083019190915281018290527fe2be3027f197494650b7a98fd1cae67dacf615bd1d8bb05102999676f11638669060600160405180910390a1505050565b6000918252600c602090815260408084206001600160a01b0393909316845291905290205460ff1690565b606060018054610c0a90614170565b600b546001600160a01b03610100909104163314611df65760405162461bcd60e51b8152600401610cf590613ff2565b611e0e60008051602061424d83398151915282612612565b604080516001600160a01b038316815260208101829052600b918101919091526a4d494e5445525f524f4c4560a81b60608201527f0578acc86b18d67c13a5e6eed8c670fb7052f530b48a2acb167d6ca77509a384906080016117bc565b6111963383836128a6565b600b546001600160a01b03610100909104163314611ea75760405162461bcd60e51b8152600401610cf590613ff2565b601280546001600160a01b0319166001600160a01b0383169081179091556040519081527fca92c759228172fe3894a344908fd20dfd37ba561b5af191f1f5b02ee03881fc906020016117bc565b60008051602061424d833981519152611f0d81612377565b6001600160a01b038416611f585760405162461bcd60e51b8152602060048201526012602482015271496e76616c696420746f206164647265737360701b6044820152606401610cf5565b60005b82811015611f8057611f6d8585612016565b5080611f78816141a5565b915050611f5b565b5050505050565b611f913383612381565b611fad5760405162461bcd60e51b8152600401610cf590614027565b611fb984848484612975565b50505050565b600b546001600160a01b03610100909104163314611fef5760405162461bcd60e51b8152600401610cf590613ff2565b610e2b60838383613731565b60818181548110611c2457600080fd5b6060610bf5826129a8565b600060008051602061424d83398151915261172881612377565b600e80546117f290614170565b6000828152600c602052604090206001015461205881612377565b610e2b8383612698565b60808181548110611c2457600080fd5b600b546001600160a01b036101009091041633146120a25760405162461bcd60e51b8152600401610cf590613ff2565b6001600160a01b0381166121075760405162461bcd60e51b815260206004820152602660248201527f4f776e61626c653a206e6577206f776e657220697320746865207a65726f206160448201526564647265737360d01b6064820152608401610cf5565b6111ba816127d1565b60008051602061424d83398151915261212881612377565b60825460ff161561217b5760405162461bcd60e51b815260206004820152601860248201527f4974656d7320616c7265616479207265676973746572656400000000000000006044820152606401610cf5565b82518451146121c45760405162461bcd60e51b8152602060048201526015602482015274082e4e4c2f240d8cadccee8d040dad2e6dac2e8c6d605b1b6044820152606401610cf5565b82516121d790607f906020860190613784565b5083516121eb90607e9060208701906137be565b5081516121ff906081906020850190613784565b5060005b84518110156122b35761224884828151811061222f57634e487b7160e01b600052603260045260246000fd5b602002602001015160775461279b90919063ffffffff16565b60775561226f601382606481106115e457634e487b7160e01b600052603260045260246000fd5b6080805460018101825560009182527f59f3fb058c6bba7a4e76396639fc4dd21bd59163db798899cf56cef48b3c9ec90155806122ab816141a5565b915050612203565b50506082805460ff19166001179055505050565b60006001600160e01b03198216637965db0b60e01b1480610bf55750610bf582612b17565b6000908152600260205260409020546001600160a01b0316151590565b600081815260046020526040902080546001600160a01b0319166001600160a01b038416908117909155819061233e8261190f565b6001600160a01b03167f8c5be1e5ebec7d5bd14f71427d1e84f3dd0314c0f7b2291e5b200ac8c7c3b92560405160405180910390a45050565b6111ba8133612b3c565b600061238c826122ec565b6123ed5760405162461bcd60e51b815260206004820152602c60248201527f4552433732313a206f70657261746f7220717565727920666f72206e6f6e657860448201526b34b9ba32b73a103a37b5b2b760a11b6064820152608401610cf5565b60006123f88361190f565b9050806001600160a01b0316846001600160a01b0316148061243f57506001600160a01b0380821660009081526005602090815260408083209388168352929052205460ff165b806124635750836001600160a01b031661245884610c8d565b6001600160a01b0316145b949350505050565b826001600160a01b031661247e8261190f565b6001600160a01b0316146124e25760405162461bcd60e51b815260206004820152602560248201527f4552433732313a207472616e736665722066726f6d20696e636f72726563742060448201526437bbb732b960d91b6064820152608401610cf5565b6001600160a01b0382166125445760405162461bcd60e51b8152602060048201526024808201527f4552433732313a207472616e7366657220746f20746865207a65726f206164646044820152637265737360e01b6064820152608401610cf5565b61254f838383612ba0565b61255a600082612309565b6001600160a01b0383166000908152600360205260408120805460019290612583908490614116565b90915550506001600160a01b03821660009081526003602052604081208054600192906125b19084906140cb565b909155505060008181526002602052604080822080546001600160a01b0319166001600160a01b0386811691821790925591518493918716917fddf252ad1be2c89b69c2b068fc378daa952ba7f163c4a11628f55a4df523b3ef91a4505050565b61261c8282611d8c565b611196576000828152600c602090815260408083206001600160a01b03851684529091529020805460ff191660011790556126543390565b6001600160a01b0316816001600160a01b0316837f2f8788117e7eff1d82e926ec794901d17c78024a50270940304540a733656f0d60405160405180910390a45050565b6126a28282611d8c565b15611196576000828152600c602090815260408083206001600160a01b0385168085529252808320805460ff1916905551339285917ff6391f5c32d9c69d2a47ea670b442974b53935d1edc7fd64eb21e047a839171b9190a45050565b600b5460ff166127485760405162461bcd60e51b815260206004820152601460248201527314185d5cd8589b194e881b9bdd081c185d5cd95960621b6044820152606401610cf5565b600b805460ff191690557f5db9ee0a495bf2e6ff9c91a7834c1ba4fdd244a5e8aa4e537bd38aeae4b073aa335b6040516001600160a01b03909116815260200160405180910390a1565b6111ba81612bf1565b60006127a782846140cb565b9392505050565b6000806127bc858585612c31565b95945050505050565b60006127a78284614116565b600b80546001600160a01b03838116610100818102610100600160a81b031985161790945560405193909204169182907f8be0079c531659141344cd1fd0a4f28419497f9722a3daafe3b4186f6b6457e090600090a35050565b600b5460ff16156128715760405162461bcd60e51b815260206004820152601060248201526f14185d5cd8589b194e881c185d5cd95960821b6044820152606401610cf5565b600b805460ff191660011790557f62e78cea01bee320cd4e420270b5ea74000d11b0c9f74754ebdbfc544b05a2586127753390565b816001600160a01b0316836001600160a01b031614156129085760405162461bcd60e51b815260206004820152601960248201527f4552433732313a20617070726f766520746f2063616c6c6572000000000000006044820152606401610cf5565b6001600160a01b03838116600081815260056020908152604080832094871680845294825291829020805460ff191686151590811790915591519182527f17307eab39ab6107e8899845ad3d59bd9653f200f220920489ca2b5937696c31910160405180910390a3505050565b61298084848461246b565b61298c84848484612c4f565b611fb95760405162461bcd60e51b8152600401610cf590613fa0565b60606129b3826122ec565b612a195760405162461bcd60e51b815260206004820152603160248201527f45524337323155524953746f726167653a2055524920717565727920666f72206044820152703737b732bc34b9ba32b73a103a37b5b2b760791b6064820152608401610cf5565b6000828152600a602052604081208054612a3290614170565b80601f0160208091040260200160405190810160405280929190818152602001828054612a5e90614170565b8015612aab5780601f10612a8057610100808354040283529160200191612aab565b820191906000526020600020905b815481529060010190602001808311612a8e57829003601f168201915b505050505090506000612ac960408051602081019091526000815290565b9050805160001415612adc575092915050565b815115612b0e578082604051602001612af6929190613eac565b60405160208183030381529060405292505050919050565b61246384612d5c565b60006001600160e01b0319821663780e9d6360e01b1480610bf55750610bf582612e33565b612b468282611d8c565b61119657612b5e816001600160a01b03166014612e83565b612b69836020612e83565b604051602001612b7a929190613edb565b60408051601f198184030181529082905262461bcd60e51b8252610cf591600401613f8d565b600b5460ff1615612be65760405162461bcd60e51b815260206004820152601060248201526f14185d5cd8589b194e881c185d5cd95960821b6044820152606401610cf5565b610e2b838383613064565b612bfa8161311c565b6000818152600a602052604090208054612c1390614170565b1590506111ba576000818152600a602052604081206111ba91613817565b6000612c3d84846131c3565b612c4783836131dd565b509092915050565b60006001600160a01b0384163b15612d5157604051630a85bd0160e11b81526001600160a01b0385169063150b7a0290612c93903390899088908890600401613f50565b602060405180830381600087803b158015612cad57600080fd5b505af1925050508015612cdd575060408051601f3d908101601f19168201909252612cda91810190613e1e565b60015b612d37573d808015612d0b576040519150601f19603f3d011682016040523d82523d6000602084013e612d10565b606091505b508051612d2f5760405162461bcd60e51b8152600401610cf590613fa0565b805181602001fd5b6001600160e01b031916630a85bd0160e11b149050612463565b506001949350505050565b6060612d67826122ec565b612dcb5760405162461bcd60e51b815260206004820152602f60248201527f4552433732314d657461646174613a2055524920717565727920666f72206e6f60448201526e3732bc34b9ba32b73a103a37b5b2b760891b6064820152608401610cf5565b6000612de260408051602081019091526000815290565b90506000815111612e0257604051806020016040528060008152506127a7565b80612e0c84613268565b604051602001612e1d929190613eac565b6040516020818303038152906040529392505050565b60006001600160e01b031982166380ac58cd60e01b1480612e6457506001600160e01b03198216635b5e139f60e01b145b80610bf557506301ffc9a760e01b6001600160e01b0319831614610bf5565b60606000612e928360026140f7565b612e9d9060026140cb565b6001600160401b03811115612ec257634e487b7160e01b600052604160045260246000fd5b6040519080825280601f01601f191660200182016040528015612eec576020820181803683370190505b509050600360fc1b81600081518110612f1557634e487b7160e01b600052603260045260246000fd5b60200101906001600160f81b031916908160001a905350600f60fb1b81600181518110612f5257634e487b7160e01b600052603260045260246000fd5b60200101906001600160f81b031916908160001a9053506000612f768460026140f7565b612f819060016140cb565b90505b6001811115613015576f181899199a1a9b1b9c1cb0b131b232b360811b85600f1660108110612fc357634e487b7160e01b600052603260045260246000fd5b1a60f81b828281518110612fe757634e487b7160e01b600052603260045260246000fd5b60200101906001600160f81b031916908160001a90535060049490941c9361300e81614159565b9050612f84565b5083156127a75760405162461bcd60e51b815260206004820181905260248201527f537472696e67733a20686578206c656e67746820696e73756666696369656e746044820152606401610cf5565b6001600160a01b0383166130bf576130ba81600880546000838152600960205260408120829055600182018355919091527ff3f7a9fe364faab93b216da50a3214154f22a0a2b415b23a84c8169e8b636ee30155565b6130e2565b816001600160a01b0316836001600160a01b0316146130e2576130e28382613381565b6001600160a01b0382166130f957610e2b8161341e565b826001600160a01b0316826001600160a01b031614610e2b57610e2b82826134f7565b60006131278261190f565b905061313581600084612ba0565b613140600083612309565b6001600160a01b0381166000908152600360205260408120805460019290613169908490614116565b909155505060008281526002602052604080822080546001600160a01b0319169055518391906001600160a01b038416907fddf252ad1be2c89b69c2b068fc378daa952ba7f163c4a11628f55a4df523b3ef908390a45050565b61119682826040518060200160405280600081525061353b565b6131e6826122ec565b6132495760405162461bcd60e51b815260206004820152602e60248201527f45524337323155524953746f726167653a2055524920736574206f66206e6f6e60448201526d32bc34b9ba32b73a103a37b5b2b760911b6064820152608401610cf5565b6000828152600a602090815260409091208251610e2b928401906136ad565b60608161328c5750506040805180820190915260018152600360fc1b602082015290565b8160005b81156132b657806132a0816141a5565b91506132af9050600a836140e3565b9150613290565b6000816001600160401b038111156132de57634e487b7160e01b600052604160045260246000fd5b6040519080825280601f01601f191660200182016040528015613308576020820181803683370190505b5090505b84156124635761331d600183614116565b915061332a600a866141c0565b6133359060306140cb565b60f81b81838151811061335857634e487b7160e01b600052603260045260246000fd5b60200101906001600160f81b031916908160001a90535061337a600a866140e3565b945061330c565b6000600161338e846119eb565b6133989190614116565b6000838152600760205260409020549091508082146133eb576001600160a01b03841660009081526006602090815260408083208584528252808320548484528184208190558352600790915290208190555b5060009182526007602090815260408084208490556001600160a01b039094168352600681528383209183525290812055565b60085460009061343090600190614116565b6000838152600960205260408120546008805493945090928490811061346657634e487b7160e01b600052603260045260246000fd5b90600052602060002001549050806008838154811061349557634e487b7160e01b600052603260045260246000fd5b60009182526020808320909101929092558281526009909152604080822084905585825281205560088054806134db57634e487b7160e01b600052603160045260246000fd5b6001900381819060005260206000200160009055905550505050565b6000613502836119eb565b6001600160a01b039093166000908152600660209081526040808320868452825280832085905593825260079052919091209190915550565b613545838361356e565b6135526000848484612c4f565b610e2b5760405162461bcd60e51b8152600401610cf590613fa0565b6001600160a01b0382166135c45760405162461bcd60e51b815260206004820181905260248201527f4552433732313a206d696e7420746f20746865207a65726f20616464726573736044820152606401610cf5565b6135cd816122ec565b1561361a5760405162461bcd60e51b815260206004820152601c60248201527f4552433732313a20746f6b656e20616c7265616479206d696e746564000000006044820152606401610cf5565b61362660008383612ba0565b6001600160a01b038216600090815260036020526040812080546001929061364f9084906140cb565b909155505060008181526002602052604080822080546001600160a01b0319166001600160a01b03861690811790915590518392907fddf252ad1be2c89b69c2b068fc378daa952ba7f163c4a11628f55a4df523b3ef908290a45050565b8280546136b990614170565b90600052602060002090601f0160209004810192826136db5760008555613721565b82601f106136f457805160ff1916838001178555613721565b82800160010185558215613721579182015b82811115613721578251825591602001919060010190613706565b5061372d92915061384d565b5090565b828054828255906000526020600020908101928215613721579160200282015b828111156137215781546001600160a01b0319166001600160a01b03843516178255602090920191600190910190613751565b8280548282559060005260206000209081019282156137215791602002820182811115613721578251825591602001919060010190613706565b82805482825590600052602060002090810192821561380b579160200282015b8281111561380b57825180516137fb9184916020909101906136ad565b50916020019190600101906137de565b5061372d929150613862565b50805461382390614170565b6000825580601f10613833575050565b601f0160209004906000526020600020908101906111ba91905b5b8082111561372d576000815560010161384e565b8082111561372d5760006138768282613817565b50600101613862565b60006001600160401b0383111561389857613898614200565b6138ab601f8401601f1916602001614078565b90508281528383830111156138bf57600080fd5b828260208301376000602084830101529392505050565b80356001600160a01b03811681146138ed57600080fd5b919050565b600082601f830112613902578081fd5b81356020613917613912836140a8565b614078565b80838252828201915082860187848660051b8901011115613936578586fd5b855b858110156139765781356001600160401b03811115613955578788fd5b6139638a87838c01016139e0565b8552509284019290840190600101613938565b5090979650505050505050565b600082601f830112613993578081fd5b813560206139a3613912836140a8565b80838252828201915082860187848660051b89010111156139c2578586fd5b855b85811015613976578135845292840192908401906001016139c4565b600082601f8301126139f0578081fd5b6127a78383356020850161387f565b600060208284031215613a10578081fd5b6127a7826138d6565b60008060408385031215613a2b578081fd5b613a34836138d6565b9150613a42602084016138d6565b90509250929050565b600080600060608486031215613a5f578081fd5b613a68846138d6565b9250613a76602085016138d6565b9150604084013590509250925092565b600080600080600060808688031215613a9d578081fd5b613aa6866138d6565b9450613ab4602087016138d6565b93506040860135925060608601356001600160401b0380821115613ad6578283fd5b818801915088601f830112613ae9578283fd5b813581811115613af7578384fd5b896020828501011115613b08578384fd5b9699959850939650602001949392505050565b60008060008060808587031215613b30578384fd5b613b39856138d6565b9350613b47602086016138d6565b92506040850135915060608501356001600160401b03811115613b68578182fd5b8501601f81018713613b78578182fd5b613b878782356020840161387f565b91505092959194509250565b60008060408385031215613ba5578182fd5b613bae836138d6565b915060208301356001600160401b03811115613bc8578182fd5b613bd4858286016138f2565b9150509250929050565b60008060408385031215613bf0578182fd5b613bf9836138d6565b915060208301358015158114613c0d578182fd5b809150509250929050565b60008060408385031215613c2a578182fd5b613c33836138d6565b915060208301356001600160401b03811115613c4d578182fd5b613bd4858286016139e0565b600080600060608486031215613c6d578081fd5b613c76846138d6565b925060208401356001600160401b03811115613c90578182fd5b613c9c868287016139e0565b925050604084013590509250925092565b60008060408385031215613cbf578182fd5b613cc8836138d6565b946020939093013593505050565b60008060208385031215613ce8578182fd5b82356001600160401b0380821115613cfe578384fd5b818501915085601f830112613d11578384fd5b813581811115613d1f578485fd5b8660208260051b8501011115613d33578485fd5b60209290920196919550909350505050565b600080600060608486031215613d59578081fd5b83356001600160401b0380821115613d6f578283fd5b613d7b878388016138f2565b94506020860135915080821115613d90578283fd5b613d9c87838801613983565b93506040860135915080821115613db1578283fd5b50613dbe86828701613983565b9150509250925092565b600060208284031215613dd9578081fd5b5035919050565b60008060408385031215613df2578182fd5b82359150613a42602084016138d6565b600060208284031215613e13578081fd5b81356127a781614216565b600060208284031215613e2f578081fd5b81516127a781614216565b600060208284031215613e4b578081fd5b5051919050565b60008060408385031215613e64578182fd5b8235915060208301356001600160401b03811115613c4d578182fd5b60008151808452613e9881602086016020860161412d565b601f01601f19169290920160200192915050565b60008351613ebe81846020880161412d565b835190830190613ed281836020880161412d565b01949350505050565b7f416363657373436f6e74726f6c3a206163636f756e7420000000000000000000815260008351613f1381601785016020880161412d565b7001034b99036b4b9b9b4b733903937b6329607d1b6017918401918201528351613f4481602884016020880161412d565b01602801949350505050565b6001600160a01b0385811682528416602082015260408101839052608060608201819052600090613f8390830184613e80565b9695505050505050565b6020815260006127a76020830184613e80565b60208082526032908201527f4552433732313a207472616e7366657220746f206e6f6e20455243373231526560408201527131b2b4bb32b91034b6b83632b6b2b73a32b960711b606082015260800190565b6020808252818101527f4f776e61626c653a2063616c6c6572206973206e6f7420746865206f776e6572604082015260600190565b60208082526031908201527f4552433732313a207472616e736665722063616c6c6572206973206e6f74206f6040820152701ddb995c881b9bdc88185c1c1c9bdd9959607a1b606082015260800190565b604051601f8201601f191681016001600160401b03811182821017156140a0576140a0614200565b604052919050565b60006001600160401b038211156140c1576140c1614200565b5060051b60200190565b600082198211156140de576140de6141d4565b500190565b6000826140f2576140f26141ea565b500490565b6000816000190483118215151615614111576141116141d4565b500290565b600082821015614128576141286141d4565b500390565b60005b83811015614148578181015183820152602001614130565b83811115611fb95750506000910152565b600081614168576141686141d4565b506000190190565b600181811c9082168061418457607f821691505b6020821081141561190957634e487b7160e01b600052602260045260246000fd5b60006000198214156141b9576141b96141d4565b5060010190565b6000826141cf576141cf6141ea565b500690565b634e487b7160e01b600052601160045260246000fd5b634e487b7160e01b600052601260045260246000fd5b634e487b7160e01b600052604160045260246000fd5b6001600160e01b0319811681146111ba57600080fdfe65d7a28e3265b37a6474929f336521b332c1681b933f6cb9f3376673440d862a9f2df0fed2c77648de5860a4cc508cd0818c85b8b8a1ab4ceeef8d981c8956a6a2646970667358221220963b1176ee5ce353c2d93de3e3cf359750b1a34697a958c79692c27a0115c3b664736f6c634300080400334f776e61626c653a2063616c6c6572206973206e6f7420746865206f776e657265d7a28e3265b37a6474929f336521b332c1681b933f6cb9f3376673440d862a9f2df0fed2c77648de5860a4cc508cd0818c85b8b8a1ab4ceeef8d981c8956a6",
  "linkReferences": {},
  "deployedLinkReferences": {}
}