{
  "_format": "hh-sol-artifact-1",
  "contractName": "AirDrop",
  "sourceName": "contracts/AirDrop.sol",
  "abi": [
    {
      "inputs": [
        {
          "internalType": "string",
          "name": "name",
          "type": "string"
        },
        {
          "internalType": "string",
          "name": "symbol",
          "type": "string"
        },
        {
          "internalType": "address",
          "name": "_quote",
          "type": "address"
        },
        {
          "internalType": "address",
          "name": "_payment",
          "type": "address"
        },
        {
          "internalType": "address",
          "name": "_treasury",
          "type": "address"
        },
        {
          "internalType": "bool",
          "name": "_soulbound",
          "type": "bool"
        },
        {
          "internalType": "uint256[]",
          "name": "configValues",
          "type": "uint256[]"
        }
      ],
      "stateMutability": "nonpayable",
      "type": "constructor"
    },
    {
      "anonymous": false,
      "inputs": [
        {
          "indexed": true,
          "internalType": "address",
          "name": "owner",
          "type": "address"
        },
        {
          "indexed": true,
          "internalType": "address",
          "name": "approved",
          "type": "address"
        },
        {
          "indexed": true,
          "internalType": "uint256",
          "name": "tokenId",
          "type": "uint256"
        }
      ],
      "name": "Approval",
      "type": "event"
    },
    {
      "anonymous": false,
      "inputs": [
        {
          "indexed": true,
          "internalType": "address",
          "name": "owner",
          "type": "address"
        },
        {
          "indexed": true,
          "internalType": "address",
          "name": "operator",
          "type": "address"
        },
        {
          "indexed": false,
          "internalType": "bool",
          "name": "approved",
          "type": "bool"
        }
      ],
      "name": "ApprovalForAll",
      "type": "event"
    },
    {
      "anonymous": false,
      "inputs": [
        {
          "indexed": false,
          "internalType": "address",
          "name": "",
          "type": "address"
        },
        {
          "indexed": false,
          "internalType": "string",
          "name": "",
          "type": "string"
        }
      ],
      "name": "Grant",
      "type": "event"
    },
    {
      "anonymous": false,
      "inputs": [
        {
          "indexed": true,
          "internalType": "address",
          "name": "previousOwner",
          "type": "address"
        },
        {
          "indexed": true,
          "internalType": "address",
          "name": "newOwner",
          "type": "address"
        }
      ],
      "name": "OwnershipTransferred",
      "type": "event"
    },
    {
      "anonymous": false,
      "inputs": [
        {
          "indexed": false,
          "internalType": "address",
          "name": "account",
          "type": "address"
        }
      ],
      "name": "Paused",
      "type": "event"
    },
    {
      "anonymous": false,
      "inputs": [
        {
          "indexed": true,
          "internalType": "bytes32",
          "name": "role",
          "type": "bytes32"
        },
        {
          "indexed": true,
          "internalType": "bytes32",
          "name": "previousAdminRole",
          "type": "bytes32"
        },
        {
          "indexed": true,
          "internalType": "bytes32",
          "name": "newAdminRole",
          "type": "bytes32"
        }
      ],
      "name": "RoleAdminChanged",
      "type": "event"
    },
    {
      "anonymous": false,
      "inputs": [
        {
          "indexed": true,
          "internalType": "bytes32",
          "name": "role",
          "type": "bytes32"
        },
        {
          "indexed": true,
          "internalType": "address",
          "name": "account",
          "type": "address"
        },
        {
          "indexed": true,
          "internalType": "address",
          "name": "sender",
          "type": "address"
        }
      ],
      "name": "RoleGranted",
      "type": "event"
    },
    {
      "anonymous": false,
      "inputs": [
        {
          "indexed": true,
          "internalType": "bytes32",
          "name": "role",
          "type": "bytes32"
        },
        {
          "indexed": true,
          "internalType": "address",
          "name": "account",
          "type": "address"
        },
        {
          "indexed": true,
          "internalType": "address",
          "name": "sender",
          "type": "address"
        }
      ],
      "name": "RoleRevoked",
      "type": "event"
    },
    {
      "anonymous": false,
      "inputs": [
        {
          "indexed": false,
          "internalType": "address",
          "name": "",
          "type": "address"
        },
        {
          "indexed": false,
          "internalType": "address",
          "name": "",
          "type": "address"
        },
        {
          "indexed": false,
          "internalType": "uint256",
          "name": "",
          "type": "uint256"
        }
      ],
      "name": "SetConfig",
      "type": "event"
    },
    {
      "anonymous": false,
      "inputs": [
        {
          "indexed": false,
          "internalType": "uint256",
          "name": "",
          "type": "uint256"
        }
      ],
      "name": "SetHardCap",
      "type": "event"
    },
    {
      "anonymous": false,
      "inputs": [
        {
          "indexed": false,
          "internalType": "uint256",
          "name": "",
          "type": "uint256"
        }
      ],
      "name": "SetLaunch",
      "type": "event"
    },
    {
      "anonymous": false,
      "inputs": [
        {
          "indexed": false,
          "internalType": "uint256",
          "name": "",
          "type": "uint256"
        }
      ],
      "name": "SetLockup",
      "type": "event"
    },
    {
      "anonymous": false,
      "inputs": [
        {
          "indexed": false,
          "internalType": "address",
          "name": "",
          "type": "address"
        }
      ],
      "name": "SetMysteryBox",
      "type": "event"
    },
    {
      "anonymous": false,
      "inputs": [
        {
          "indexed": false,
          "internalType": "address",
          "name": "",
          "type": "address"
        }
      ],
      "name": "SetQuote",
      "type": "event"
    },
    {
      "anonymous": false,
      "inputs": [
        {
          "indexed": false,
          "internalType": "bool",
          "name": "",
          "type": "bool"
        }
      ],
      "name": "SetSoulbound",
      "type": "event"
    },
    {
      "anonymous": false,
      "inputs": [
        {
          "indexed": true,
          "internalType": "address",
          "name": "from",
          "type": "address"
        },
        {
          "indexed": true,
          "internalType": "address",
          "name": "to",
          "type": "address"
        },
        {
          "indexed": true,
          "internalType": "uint256",
          "name": "tokenId",
          "type": "uint256"
        }
      ],
      "name": "Transfer",
      "type": "event"
    },
    {
      "anonymous": false,
      "inputs": [
        {
          "indexed": false,
          "internalType": "address",
          "name": "account",
          "type": "address"
        }
      ],
      "name": "Unpaused",
      "type": "event"
    },
    {
      "inputs": [],
      "name": "DEFAULT_ADMIN_ROLE",
      "outputs": [
        {
          "internalType": "bytes32",
          "name": "",
          "type": "bytes32"
        }
      ],
      "stateMutability": "view",
      "type": "function"
    },
    {
      "inputs": [],
      "name": "MINTER_ROLE",
      "outputs": [
        {
          "internalType": "bytes32",
          "name": "",
          "type": "bytes32"
        }
      ],
      "stateMutability": "view",
      "type": "function"
    },
    {
      "inputs": [],
      "name": "PAUSER_ROLE",
      "outputs": [
        {
          "internalType": "bytes32",
          "name": "",
          "type": "bytes32"
        }
      ],
      "stateMutability": "view",
      "type": "function"
    },
    {
      "inputs": [
        {
          "internalType": "address",
          "name": "minter",
          "type": "address"
        }
      ],
      "name": "addMinter",
      "outputs": [],
      "stateMutability": "nonpayable",
      "type": "function"
    },
    {
      "inputs": [
        {
          "internalType": "address",
          "name": "pauser",
          "type": "address"
        }
      ],
      "name": "addPauser",
      "outputs": [],
      "stateMutability": "nonpayable",
      "type": "function"
    },
    {
      "inputs": [],
      "name": "andOr",
      "outputs": [
        {
          "internalType": "bool",
          "name": "",
          "type": "bool"
        }
      ],
      "stateMutability": "view",
      "type": "function"
    },
    {
      "inputs": [
        {
          "internalType": "address",
          "name": "to",
          "type": "address"
        },
        {
          "internalType": "uint256",
          "name": "tokenId",
          "type": "uint256"
        }
      ],
      "name": "approve",
      "outputs": [],
      "stateMutability": "nonpayable",
      "type": "function"
    },
    {
      "inputs": [
        {
          "internalType": "address",
          "name": "owner",
          "type": "address"
        }
      ],
      "name": "balanceOf",
      "outputs": [
        {
          "internalType": "uint256",
          "name": "",
          "type": "uint256"
        }
      ],
      "stateMutability": "view",
      "type": "function"
    },
    {
      "inputs": [
        {
          "internalType": "uint256",
          "name": "tokenId",
          "type": "uint256"
        }
      ],
      "name": "burn",
      "outputs": [],
      "stateMutability": "nonpayable",
      "type": "function"
    },
    {
      "inputs": [],
      "name": "claim",
      "outputs": [],
      "stateMutability": "nonpayable",
      "type": "function"
    },
    {
      "inputs": [],
      "name": "feeRate",
      "outputs": [
        {
          "internalType": "uint256",
          "name": "",
          "type": "uint256"
        }
      ],
      "stateMutability": "view",
      "type": "function"
    },
    {
      "inputs": [],
      "name": "flagMandatory",
      "outputs": [
        {
          "internalType": "bool",
          "name": "",
          "type": "bool"
        }
      ],
      "stateMutability": "view",
      "type": "function"
    },
    {
      "inputs": [
        {
          "internalType": "uint256",
          "name": "tokenId",
          "type": "uint256"
        }
      ],
      "name": "getApproved",
      "outputs": [
        {
          "internalType": "address",
          "name": "",
          "type": "address"
        }
      ],
      "stateMutability": "view",
      "type": "function"
    },
    {
      "inputs": [],
      "name": "getItemRemains",
      "outputs": [
        {
          "internalType": "uint256",
          "name": "",
          "type": "uint256"
        }
      ],
      "stateMutability": "view",
      "type": "function"
    },
    {
      "inputs": [
        {
          "internalType": "bytes32",
          "name": "role",
          "type": "bytes32"
        }
      ],
      "name": "getRoleAdmin",
      "outputs": [
        {
          "internalType": "bytes32",
          "name": "",
          "type": "bytes32"
        }
      ],
      "stateMutability": "view",
      "type": "function"
    },
    {
      "inputs": [],
      "name": "globalURI",
      "outputs": [
        {
          "internalType": "string",
          "name": "",
          "type": "string"
        }
      ],
      "stateMutability": "view",
      "type": "function"
    },
    {
      "inputs": [
        {
          "internalType": "bytes32",
          "name": "role",
          "type": "bytes32"
        },
        {
          "internalType": "address",
          "name": "account",
          "type": "address"
        }
      ],
      "name": "grantRole",
      "outputs": [],
      "stateMutability": "nonpayable",
      "type": "function"
    },
    {
      "inputs": [],
      "name": "hardCap",
      "outputs": [
        {
          "internalType": "uint256",
          "name": "",
          "type": "uint256"
        }
      ],
      "stateMutability": "view",
      "type": "function"
    },
    {
      "inputs": [
        {
          "internalType": "bytes32",
          "name": "role",
          "type": "bytes32"
        },
        {
          "internalType": "address",
          "name": "account",
          "type": "address"
        }
      ],
      "name": "hasRole",
      "outputs": [
        {
          "internalType": "bool",
          "name": "",
          "type": "bool"
        }
      ],
      "stateMutability": "view",
      "type": "function"
    },
    {
      "inputs": [
        {
          "internalType": "address",
          "name": "owner",
          "type": "address"
        },
        {
          "internalType": "address",
          "name": "operator",
          "type": "address"
        }
      ],
      "name": "isApprovedForAll",
      "outputs": [
        {
          "internalType": "bool",
          "name": "",
          "type": "bool"
        }
      ],
      "stateMutability": "view",
      "type": "function"
    },
    {
      "inputs": [
        {
          "internalType": "uint256",
          "name": "",
          "type": "uint256"
        }
      ],
      "name": "itemAmounts",
      "outputs": [
        {
          "internalType": "uint256",
          "name": "",
          "type": "uint256"
        }
      ],
      "stateMutability": "view",
      "type": "function"
    },
    {
      "inputs": [
        {
          "internalType": "uint256",
          "name": "",
          "type": "uint256"
        }
      ],
      "name": "itemSolds",
      "outputs": [
        {
          "internalType": "uint256",
          "name": "",
          "type": "uint256"
        }
      ],
      "stateMutability": "view",
      "type": "function"
    },
    {
      "inputs": [
        {
          "internalType": "uint256",
          "name": "",
          "type": "uint256"
        }
      ],
      "name": "itemURIs",
      "outputs": [
        {
          "internalType": "string",
          "name": "",
          "type": "string"
        }
      ],
      "stateMutability": "view",
      "type": "function"
    },
    {
      "inputs": [],
      "name": "launch",
      "outputs": [
        {
          "internalType": "uint256",
          "name": "",
          "type": "uint256"
        }
      ],
      "stateMutability": "view",
      "type": "function"
    },
    {
      "inputs": [],
      "name": "lockup",
      "outputs": [
        {
          "internalType": "uint256",
          "name": "",
          "type": "uint256"
        }
      ],
      "stateMutability": "view",
      "type": "function"
    },
    {
      "inputs": [
        {
          "internalType": "uint256",
          "name": "",
          "type": "uint256"
        }
      ],
      "name": "mandatory",
      "outputs": [
        {
          "internalType": "address",
          "name": "",
          "type": "address"
        }
      ],
      "stateMutability": "view",
      "type": "function"
    },
    {
      "inputs": [],
      "name": "mysteryBox",
      "outputs": [
        {
          "internalType": "address",
          "name": "",
          "type": "address"
        }
      ],
      "stateMutability": "view",
      "type": "function"
    },
    {
      "inputs": [],
      "name": "name",
      "outputs": [
        {
          "internalType": "string",
          "name": "",
          "type": "string"
        }
      ],
      "stateMutability": "view",
      "type": "function"
    },
    {
      "inputs": [
        {
          "internalType": "address",
          "name": "operator",
          "type": "address"
        },
        {
          "internalType": "address",
          "name": "from",
          "type": "address"
        },
        {
          "internalType": "uint256",
          "name": "tokenId",
          "type": "uint256"
        },
        {
          "internalType": "bytes",
          "name": "data",
          "type": "bytes"
        }
      ],
      "name": "onERC721Received",
      "outputs": [
        {
          "internalType": "bytes4",
          "name": "",
          "type": "bytes4"
        }
      ],
      "stateMutability": "pure",
      "type": "function"
    },
    {
      "inputs": [],
      "name": "owner",
      "outputs": [
        {
          "internalType": "address",
          "name": "",
          "type": "address"
        }
      ],
      "stateMutability": "view",
      "type": "function"
    },
    {
      "inputs": [
        {
          "internalType": "uint256",
          "name": "tokenId",
          "type": "uint256"
        }
      ],
      "name": "ownerOf",
      "outputs": [
        {
          "internalType": "address",
          "name": "",
          "type": "address"
        }
      ],
      "stateMutability": "view",
      "type": "function"
    },
    {
      "inputs": [],
      "name": "pause",
      "outputs": [],
      "stateMutability": "nonpayable",
      "type": "function"
    },
    {
      "inputs": [],
      "name": "paused",
      "outputs": [
        {
          "internalType": "bool",
          "name": "",
          "type": "bool"
        }
      ],
      "stateMutability": "view",
      "type": "function"
    },
    {
      "inputs": [],
      "name": "payment",
      "outputs": [
        {
          "internalType": "address",
          "name": "",
          "type": "address"
        }
      ],
      "stateMutability": "view",
      "type": "function"
    },
    {
      "inputs": [],
      "name": "quote",
      "outputs": [
        {
          "internalType": "address",
          "name": "",
          "type": "address"
        }
      ],
      "stateMutability": "view",
      "type": "function"
    },
    {
      "inputs": [
        {
          "internalType": "string[]",
          "name": "uris",
          "type": "string[]"
        },
        {
          "internalType": "uint256[]",
          "name": "amounts",
          "type": "uint256[]"
        }
      ],
      "name": "registerItems",
      "outputs": [],
      "stateMutability": "nonpayable",
      "type": "function"
    },
    {
      "inputs": [],
      "name": "renounceOwnership",
      "outputs": [],
      "stateMutability": "nonpayable",
      "type": "function"
    },
    {
      "inputs": [
        {
          "internalType": "bytes32",
          "name": "role",
          "type": "bytes32"
        },
        {
          "internalType": "address",
          "name": "account",
          "type": "address"
        }
      ],
      "name": "renounceRole",
      "outputs": [],
      "stateMutability": "nonpayable",
      "type": "function"
    },
    {
      "inputs": [
        {
          "internalType": "bytes32",
          "name": "role",
          "type": "bytes32"
        },
        {
          "internalType": "address",
          "name": "account",
          "type": "address"
        }
      ],
      "name": "revokeRole",
      "outputs": [],
      "stateMutability": "nonpayable",
      "type": "function"
    },
    {
      "inputs": [
        {
          "internalType": "address",
          "name": "to",
          "type": "address"
        },
        {
          "internalType": "string[]",
          "name": "uris",
          "type": "string[]"
        }
      ],
      "name": "safeBatchMint",
      "outputs": [],
      "stateMutability": "view",
      "type": "function"
    },
    {
      "inputs": [
        {
          "internalType": "address",
          "name": "to",
          "type": "address"
        },
        {
          "internalType": "string",
          "name": "uri",
          "type": "string"
        },
        {
          "internalType": "uint256",
          "name": "amount",
          "type": "uint256"
        }
      ],
      "name": "safeBatchMintLight",
      "outputs": [],
      "stateMutability": "nonpayable",
      "type": "function"
    },
    {
      "inputs": [
        {
          "internalType": "address",
          "name": "to",
          "type": "address"
        },
        {
          "internalType": "string",
          "name": "uri",
          "type": "string"
        }
      ],
      "name": "safeMint",
      "outputs": [
        {
          "internalType": "uint256",
          "name": "",
          "type": "uint256"
        }
      ],
      "stateMutability": "view",
      "type": "function"
    },
    {
      "inputs": [
        {
          "internalType": "address",
          "name": "to",
          "type": "address"
        }
      ],
      "name": "safeMintTo",
      "outputs": [],
      "stateMutability": "nonpayable",
      "type": "function"
    },
    {
      "inputs": [
        {
          "internalType": "address",
          "name": "from",
          "type": "address"
        },
        {
          "internalType": "address",
          "name": "to",
          "type": "address"
        },
        {
          "internalType": "uint256",
          "name": "tokenId",
          "type": "uint256"
        }
      ],
      "name": "safeTransferFrom",
      "outputs": [],
      "stateMutability": "nonpayable",
      "type": "function"
    },
    {
      "inputs": [
        {
          "internalType": "address",
          "name": "from",
          "type": "address"
        },
        {
          "internalType": "address",
          "name": "to",
          "type": "address"
        },
        {
          "internalType": "uint256",
          "name": "tokenId",
          "type": "uint256"
        },
        {
          "internalType": "bytes",
          "name": "_data",
          "type": "bytes"
        }
      ],
      "name": "safeTransferFrom",
      "outputs": [],
      "stateMutability": "nonpayable",
      "type": "function"
    },
    {
      "inputs": [
        {
          "internalType": "address",
          "name": "operator",
          "type": "address"
        },
        {
          "internalType": "bool",
          "name": "approved",
          "type": "bool"
        }
      ],
      "name": "setApprovalForAll",
      "outputs": [],
      "stateMutability": "nonpayable",
      "type": "function"
    },
    {
      "inputs": [
        {
          "internalType": "address",
          "name": "_payment",
          "type": "address"
        },
        {
          "internalType": "address",
          "name": "_treasury",
          "type": "address"
        },
        {
          "internalType": "uint256",
          "name": "_feeRate",
          "type": "uint256"
        }
      ],
      "name": "setConfig",
      "outputs": [],
      "stateMutability": "nonpayable",
      "type": "function"
    },
    {
      "inputs": [
        {
          "internalType": "uint256",
          "name": "_hardCap",
          "type": "uint256"
        },
        {
          "internalType": "string",
          "name": "_uri",
          "type": "string"
        }
      ],
      "name": "setHardCap",
      "outputs": [],
      "stateMutability": "nonpayable",
      "type": "function"
    },
    {
      "inputs": [
        {
          "internalType": "uint256",
          "name": "_launch",
          "type": "uint256"
        }
      ],
      "name": "setLaunch",
      "outputs": [],
      "stateMutability": "nonpayable",
      "type": "function"
    },
    {
      "inputs": [
        {
          "internalType": "uint256",
          "name": "_lockup",
          "type": "uint256"
        }
      ],
      "name": "setLockup",
      "outputs": [],
      "stateMutability": "nonpayable",
      "type": "function"
    },
    {
      "inputs": [
        {
          "internalType": "address[]",
          "name": "_nfts",
          "type": "address[]"
        },
        {
          "internalType": "bool",
          "name": "_andOr",
          "type": "bool"
        }
      ],
      "name": "setMandatory",
      "outputs": [],
      "stateMutability": "nonpayable",
      "type": "function"
    },
    {
      "inputs": [
        {
          "internalType": "address",
          "name": "_mbox",
          "type": "address"
        }
      ],
      "name": "setMysteryBox",
      "outputs": [],
      "stateMutability": "nonpayable",
      "type": "function"
    },
    {
      "inputs": [
        {
          "internalType": "address",
          "name": "_quote",
          "type": "address"
        }
      ],
      "name": "setQuote",
      "outputs": [],
      "stateMutability": "nonpayable",
      "type": "function"
    },
    {
      "inputs": [
        {
          "internalType": "bool",
          "name": "_soulbound",
          "type": "bool"
        }
      ],
      "name": "setSoulbound",
      "outputs": [],
      "stateMutability": "nonpayable",
      "type": "function"
    },
    {
      "inputs": [],
      "name": "soulbound",
      "outputs": [
        {
          "internalType": "bool",
          "name": "",
          "type": "bool"
        }
      ],
      "stateMutability": "view",
      "type": "function"
    },
    {
      "inputs": [
        {
          "internalType": "bytes4",
          "name": "interfaceId",
          "type": "bytes4"
        }
      ],
      "name": "supportsInterface",
      "outputs": [
        {
          "internalType": "bool",
          "name": "",
          "type": "bool"
        }
      ],
      "stateMutability": "view",
      "type": "function"
    },
    {
      "inputs": [],
      "name": "symbol",
      "outputs": [
        {
          "internalType": "string",
          "name": "",
          "type": "string"
        }
      ],
      "stateMutability": "view",
      "type": "function"
    },
    {
      "inputs": [
        {
          "internalType": "uint256",
          "name": "index",
          "type": "uint256"
        }
      ],
      "name": "tokenByIndex",
      "outputs": [
        {
          "internalType": "uint256",
          "name": "",
          "type": "uint256"
        }
      ],
      "stateMutability": "view",
      "type": "function"
    },
    {
      "inputs": [
        {
          "internalType": "address",
          "name": "owner",
          "type": "address"
        },
        {
          "internalType": "uint256",
          "name": "index",
          "type": "uint256"
        }
      ],
      "name": "tokenOfOwnerByIndex",
      "outputs": [
        {
          "internalType": "uint256",
          "name": "",
          "type": "uint256"
        }
      ],
      "stateMutability": "view",
      "type": "function"
    },
    {
      "inputs": [
        {
          "internalType": "uint256",
          "name": "tokenId",
          "type": "uint256"
        }
      ],
      "name": "tokenURI",
      "outputs": [
        {
          "internalType": "string",
          "name": "",
          "type": "string"
        }
      ],
      "stateMutability": "view",
      "type": "function"
    },
    {
      "inputs": [],
      "name": "totalItems",
      "outputs": [
        {
          "internalType": "uint256",
          "name": "",
          "type": "uint256"
        }
      ],
      "stateMutability": "view",
      "type": "function"
    },
    {
      "inputs": [],
      "name": "totalSold",
      "outputs": [
        {
          "internalType": "uint256",
          "name": "",
          "type": "uint256"
        }
      ],
      "stateMutability": "view",
      "type": "function"
    },
    {
      "inputs": [],
      "name": "totalSupply",
      "outputs": [
        {
          "internalType": "uint256",
          "name": "",
          "type": "uint256"
        }
      ],
      "stateMutability": "view",
      "type": "function"
    },
    {
      "inputs": [
        {
          "internalType": "address",
          "name": "from",
          "type": "address"
        },
        {
          "internalType": "address",
          "name": "to",
          "type": "address"
        },
        {
          "internalType": "uint256",
          "name": "tokenId",
          "type": "uint256"
        }
      ],
      "name": "transferFrom",
      "outputs": [],
      "stateMutability": "nonpayable",
      "type": "function"
    },
    {
      "inputs": [
        {
          "internalType": "address",
          "name": "newOwner",
          "type": "address"
        }
      ],
      "name": "transferOwnership",
      "outputs": [],
      "stateMutability": "nonpayable",
      "type": "function"
    },
    {
      "inputs": [],
      "name": "treasury",
      "outputs": [
        {
          "internalType": "address",
          "name": "",
          "type": "address"
        }
      ],
      "stateMutability": "view",
      "type": "function"
    },
    {
      "inputs": [],
      "name": "unpause",
      "outputs": [],
      "stateMutability": "nonpayable",
      "type": "function"
    },
    {
      "stateMutability": "payable",
      "type": "receive"
    }
  ],
  "bytecode": "0x60806040526000600d819055601280546001600160a01b03191690556077805460ff1990811690915560788290556079919091556032607e5560828054821690556084805490911690553480156200005657600080fd5b506040516200501338038062005013833981016040819052620000799162000921565b8686818181600090805190602001906200009592919062000742565b508051620000ab90600190602084019062000742565b5050600b805460ff1916905550620000c3336200027a565b620000d0600033620002d4565b620000eb60008051602062004fd383398151915233620002d4565b6200010660008051602062004ff383398151915233620002d4565b505060016011558051600314620001645760405162461bcd60e51b815260206004820152601a60248201527f696e76616c696420636f6e6669672064617461206c656e67746800000000000060448201526064015b60405180910390fd5b62000171600033620002d4565b6200018c60008051602062004fd383398151915233620002d4565b620001a760008051602062004ff383398151915233620002d4565b620001e181600081518110620001cd57634e487b7160e01b600052603260045260246000fd5b60200260200101516200037960201b60201c565b6200021b816001815181106200020757634e487b7160e01b600052603260045260246000fd5b60200260200101516200040660201b60201c565b620002578484836002815181106200024357634e487b7160e01b600052603260045260246000fd5b60200260200101516200048d60201b60201c565b620002628562000609565b6200026d82620006a9565b5050505050505062000a85565b600b80546001600160a01b03838116610100818102610100600160a81b031985161790945560405193909204169182907f8be0079c531659141344cd1fd0a4f28419497f9722a3daafe3b4186f6b6457e090600090a35050565b6000828152600c602090815260408083206001600160a01b038516845290915290205460ff1662000375576000828152600c602090815260408083206001600160a01b03851684529091529020805460ff19166001179055620003343390565b6001600160a01b0316816001600160a01b0316837f2f8788117e7eff1d82e926ec794901d17c78024a50270940304540a733656f0d60405160405180910390a45b5050565b600b546001600160a01b03610100909104163314620003ca5760405162461bcd60e51b8152602060048201819052602482015260008051602062004fb383398151915260448201526064016200015b565b607a8190556040518181527f7c8826e4db3679f20c86da0c68d37f9dbcd1d638c56717e014f93c56d14c02d1906020015b60405180910390a150565b600b546001600160a01b03610100909104163314620004575760405162461bcd60e51b8152602060048201819052602482015260008051602062004fb383398151915260448201526064016200015b565b607b8190556040518181527fa7ade4ab976b6643a971383d9822fb7c2fce66aa2e497d88c3b4f1475ea2b2e090602001620003fb565b600b546001600160a01b03610100909104163314620004de5760405162461bcd60e51b8152602060048201819052602482015260008051602062004fb383398151915260448201526064016200015b565b6001600160a01b038316620005365760405162461bcd60e51b815260206004820152601760248201527f696e76616c6964207061796d656e74206164647265737300000000000000000060448201526064016200015b565b6001600160a01b0382166200058e5760405162461bcd60e51b815260206004820152601860248201527f696e76616c69642074726561737572792061646472657373000000000000000060448201526064016200015b565b607c80546001600160a01b038581166001600160a01b03199283168117909355607d8054918616919092168117909155607e83905560408051928352602083019190915281018290527fe2be3027f197494650b7a98fd1cae67dacf615bd1d8bb05102999676f11638669060600160405180910390a1505050565b600b546001600160a01b036101009091041633146200065a5760405162461bcd60e51b8152602060048201819052602482015260008051602062004fb383398151915260448201526064016200015b565b601280546001600160a01b0319166001600160a01b0383169081179091556040519081527fca92c759228172fe3894a344908fd20dfd37ba561b5af191f1f5b02ee03881fc90602001620003fb565b600b546001600160a01b03610100909104163314620006fa5760405162461bcd60e51b8152602060048201819052602482015260008051602062004fb383398151915260448201526064016200015b565b6077805460ff191682151590811790915560405160ff909116151581527f3686565173a764dcbff6d4a0fc2d3850197c34103ddb438a36f4bfdc3baa376490602001620003fb565b828054620007509062000a32565b90600052602060002090601f016020900481019282620007745760008555620007bf565b82601f106200078f57805160ff1916838001178555620007bf565b82800160010185558215620007bf579182015b82811115620007bf578251825591602001919060010190620007a2565b50620007cd929150620007d1565b5090565b5b80821115620007cd5760008155600101620007d2565b80516001600160a01b03811681146200080057600080fd5b919050565b600082601f83011262000816578081fd5b815160206001600160401b0382111562000834576200083462000a6f565b8160051b62000845828201620009ff565b83815282810190868401838801850189101562000860578687fd5b8693505b858410156200088457805183526001939093019291840191840162000864565b50979650505050505050565b600082601f830112620008a1578081fd5b81516001600160401b03811115620008bd57620008bd62000a6f565b6020620008d3601f8301601f19168201620009ff565b8281528582848701011115620008e7578384fd5b835b8381101562000906578581018301518282018401528201620008e9565b838111156200091757848385840101525b5095945050505050565b600080600080600080600060e0888a0312156200093c578283fd5b87516001600160401b038082111562000953578485fd5b620009618b838c0162000890565b985060208a015191508082111562000977578485fd5b620009858b838c0162000890565b97506200099560408b01620007e8565b9650620009a560608b01620007e8565b9550620009b560808b01620007e8565b945060a08a015191508115158214620009cc578384fd5b60c08a015191935080821115620009e1578283fd5b50620009f08a828b0162000805565b91505092959891949750929550565b604051601f8201601f191681016001600160401b038111828210171562000a2a5762000a2a62000a6f565b604052919050565b600181811c9082168062000a4757607f821691505b6020821081141562000a6957634e487b7160e01b600052602260045260246000fd5b50919050565b634e487b7160e01b600052604160045260246000fd5b61451e8062000a956000396000f3fe6080604052600436106103e85760003560e01c806370a0823111610208578063a2aa61eb11610118578063d3d3224a116100ab578063e63ab1e91161007a578063e63ab1e914610b83578063e985e9c514610ba5578063ec32719614610bee578063f2fde38b14610c0e578063fb86a40414610c2e57600080fd5b8063d3d3224a14610b0c578063d539139314610b21578063d547741f14610b43578063df30e54b14610b6357600080fd5b8063bebc2b52116100e7578063bebc2b5214610a8d578063c38b761c14610aac578063c87b56dd14610acc578063d204c45e14610aec57600080fd5b8063a2aa61eb14610a0d578063b5a87cc114610a2d578063b88d4fde14610a4d578063b9d6abe914610a6d57600080fd5b8063902835f61161019b578063978bbdb91161016a578063978bbdb914610982578063983b2d5614610998578063999b93af146109b8578063a217fddf146109d8578063a22cb465146109ed57600080fd5b8063902835f6146109175780639106d7ba1461093757806391d148541461094d57806395d89b411461096d57600080fd5b806382dc1ec4116101d757806382dc1ec41461089f5780638456cb59146108bf5780638a55b866146108d45780638da5cb5b146108f457600080fd5b806370a0823114610830578063715018a6146108505780637b43b82714610865578063809a249e1461088557600080fd5b80632f745c59116103035780634f6ccce7116102965780635d814dea116102655780635d814dea1461079b5780635dce7383146107bb57806361d027b3146107d05780636352211e146107f05780636ae6b4591461081057600080fd5b80634f6ccce71461072357806358dd6d95146107435780635c975abb146107635780635d1d37c31461077b57600080fd5b806342842e0e116102d257806342842e0e146106ae57806342966c68146106ce57806342f6487a146106ee5780634e71d92d1461070e57600080fd5b80632f745c59146106395780632f7859081461065957806336568abe146106795780633f4ba83a1461069957600080fd5b806318160ddd1161037b578063244906591161034a57806324490659146105b3578063248a9ca3146105d35780632799276d146106035780632f2ff15d1461061957600080fd5b806318160ddd1461053e57806321bae9e414610553578063230a67ee1461057357806323b872dd1461059357600080fd5b8063081812fc116103b7578063081812fc14610485578063095ea7b3146104bd5780630fad0f51146104df578063150b7a02146104f957600080fd5b806301339c21146103f457806301ffc9a71461041d57806306490f471461044d57806306fdde031461046357600080fd5b366103ef57005b600080fd5b34801561040057600080fd5b5061040a607a5481565b6040519081526020015b60405180910390f35b34801561042957600080fd5b5061043d610438366004614013565b610c44565b6040519015158152602001610414565b34801561045957600080fd5b5061040a607b5481565b34801561046f57600080fd5b50610478610c6f565b604051610414919061419e565b34801561049157600080fd5b506104a56104a0366004613fd9565b610d01565b6040516001600160a01b039091168152602001610414565b3480156104c957600080fd5b506104dd6104d8366004613e5d565b610d8e565b005b3480156104eb57600080fd5b5060775461043d9060ff1681565b34801561050557600080fd5b50610525610514366004613c47565b630a85bd0160e11b95945050505050565b6040516001600160e01b03199091168152602001610414565b34801561054a57600080fd5b5060085461040a565b34801561055f57600080fd5b506104dd61056e366004613bc0565b610ea4565b34801561057f57600080fd5b506104dd61058e366004613f04565b610ff1565b34801561059f57600080fd5b506104dd6105ae366004613c0c565b61119d565b3480156105bf57600080fd5b506104dd6105ce366004614063565b6111cf565b3480156105df57600080fd5b5061040a6105ee366004613fd9565b6000908152600c602052604090206001015490565b34801561060f57600080fd5b5061040a60785481565b34801561062557600080fd5b506104dd610634366004613ff1565b611257565b34801561064557600080fd5b5061040a610654366004613e5d565b61127c565b34801561066557600080fd5b506104a5610674366004613fd9565b611312565b34801561068557600080fd5b506104dd610694366004613ff1565b61133c565b3480156106a557600080fd5b506104dd6113ba565b3480156106ba57600080fd5b506104dd6106c9366004613c0c565b6113dd565b3480156106da57600080fd5b506104dd6106e9366004613fd9565b6113f8565b3480156106fa57600080fd5b50607c546104a5906001600160a01b031681565b34801561071a57600080fd5b506104dd61146f565b34801561072f57600080fd5b5061040a61073e366004613fd9565b6118bb565b34801561074f57600080fd5b506104dd61075e366004613d54565b61195c565b34801561076f57600080fd5b50600b5460ff1661043d565b34801561078757600080fd5b506104dd610796366004613fd9565b6119a7565b3480156107a757600080fd5b506104786107b6366004613fd9565b611a13565b3480156107c757600080fd5b5061040a611abf565b3480156107dc57600080fd5b50607d546104a5906001600160a01b031681565b3480156107fc57600080fd5b506104a561080b366004613fd9565b611b5b565b34801561081c57600080fd5b506104dd61082b366004613fd9565b611bd2565b34801561083c57600080fd5b5061040a61084b366004613bc0565b611c37565b34801561085c57600080fd5b506104dd611cbe565b34801561087157600080fd5b506104dd610880366004613bc0565b611cfa565b34801561089157600080fd5b5060845461043d9060ff1681565b3480156108ab57600080fd5b506104dd6108ba366004613bc0565b611d9a565b3480156108cb57600080fd5b506104dd611e40565b3480156108e057600080fd5b5061040a6108ef366004613fd9565b611e60565b34801561090057600080fd5b50600b5461010090046001600160a01b03166104a5565b34801561092357600080fd5b506104dd610932366004613c0c565b611e81565b34801561094357600080fd5b5061040a60795481565b34801561095957600080fd5b5061043d610968366004613ff1565b611fd8565b34801561097957600080fd5b50610478612003565b34801561098e57600080fd5b5061040a607e5481565b3480156109a457600080fd5b506104dd6109b3366004613bc0565b612012565b3480156109c457600080fd5b506012546104a5906001600160a01b031681565b3480156109e457600080fd5b5061040a600081565b3480156109f957600080fd5b506104dd610a08366004613d9f565b6120b8565b348015610a1957600080fd5b506104dd610a28366004613bc0565b6120c3565b348015610a3957600080fd5b506104dd610a48366004613e09565b612141565b348015610a5957600080fd5b506104dd610a68366004613cdc565b6121d3565b348015610a7957600080fd5b5061040a610a88366004613fd9565b61220b565b348015610a9957600080fd5b5060845461043d90610100900460ff1681565b348015610ab857600080fd5b50600f546104a5906001600160a01b031681565b348015610ad857600080fd5b50610478610ae7366004613fd9565b61221b565b348015610af857600080fd5b5061040a610b07366004613dc8565b612226565b348015610b1857600080fd5b50610478612240565b348015610b2d57600080fd5b5061040a6000805160206144c983398151915281565b348015610b4f57600080fd5b506104dd610b5e366004613ff1565b61224d565b348015610b6f57600080fd5b506104dd610b7e366004613fbf565b612272565b348015610b8f57600080fd5b5061040a6000805160206144a983398151915281565b348015610bb157600080fd5b5061043d610bc0366004613bda565b6001600160a01b03918216600090815260056020908152604080832093909416825291909152205460ff1690565b348015610bfa57600080fd5b506104dd610c09366004613e86565b6122e9565b348015610c1a57600080fd5b506104dd610c29366004613bc0565b6123d0565b348015610c3a57600080fd5b5061040a600d5481565b60006001600160e01b031982166380ac58cd60e01b1480610c695750610c698261246e565b92915050565b606060008054610c7e906143ec565b80601f0160208091040260200160405190810160405280929190818152602001828054610caa906143ec565b8015610cf75780601f10610ccc57610100808354040283529160200191610cf7565b820191906000526020600020905b815481529060010190602001808311610cda57829003601f168201915b5050505050905090565b6000610d0c82612493565b610d725760405162461bcd60e51b815260206004820152602c60248201527f4552433732313a20617070726f76656420717565727920666f72206e6f6e657860448201526b34b9ba32b73a103a37b5b2b760a11b60648201526084015b60405180910390fd5b506000908152600460205260409020546001600160a01b031690565b6000610d9982611b5b565b9050806001600160a01b0316836001600160a01b03161415610e075760405162461bcd60e51b815260206004820152602160248201527f4552433732313a20617070726f76616c20746f2063757272656e74206f776e656044820152603960f91b6064820152608401610d69565b336001600160a01b0382161480610e235750610e238133610bc0565b610e955760405162461bcd60e51b815260206004820152603860248201527f4552433732313a20617070726f76652063616c6c6572206973206e6f74206f7760448201527f6e6572206e6f7220617070726f76656420666f7220616c6c00000000000000006064820152608401610d69565b610e9f83836124b0565b505050565b6000805160206144c9833981519152610ebc8161251e565b6000600e8054610ecb906143ec565b905011610f125760405162461bcd60e51b815260206004820152601560248201527411db1bd8985b08155492481a5cc81b9bdd081cd95d605a1b6044820152606401610d69565b6001600160a01b038216610f5d5760405162461bcd60e51b8152602060048201526012602482015271496e76616c696420746f206164647265737360701b6044820152606401610d69565b610e9f82600e8054610f6e906143ec565b80601f0160208091040260200160405190810160405280929190818152602001828054610f9a906143ec565b8015610fe75780601f10610fbc57610100808354040283529160200191610fe7565b820191906000526020600020905b815481529060010190602001808311610fca57829003601f168201915b5050505050612226565b6000805160206144c98339815191526110098161251e565b60825460ff161561105c5760405162461bcd60e51b815260206004820152601860248201527f4974656d7320616c7265616479207265676973746572656400000000000000006044820152606401610d69565b81518351146110a55760405162461bcd60e51b8152602060048201526015602482015274082e4e4c2f240d8cadccee8d040dad2e6dac2e8c6d605b1b6044820152606401610d69565b81516110b890608090602085019061390e565b5082516110cc90607f906020860190613959565b5060005b835181101561118a576111158382815181106110fc57634e487b7160e01b600052603260045260246000fd5b602002602001015160785461252890919063ffffffff16565b6078556111466013826064811061113c57634e487b7160e01b600052603260045260246000fd5b0180546001019055565b6081805460018101825560009182527f76fce494794d92ac286b20d6126fc49ecb9cca2fa94b5c726f6ec1109b89141401558061118281614421565b9150506110d0565b50506082805460ff191660011790555050565b6111a8335b8261253b565b6111c45760405162461bcd60e51b8152600401610d69906142a3565b610e9f838383612625565b600b546001600160a01b036101009091041633146111ff5760405162461bcd60e51b8152600401610d699061422d565b600d829055805161121790600e9060208401906139b2565b507f57bbf0b7295e3c8587fe0fa3c76592771f6a96123bf723292fd0e3933436b71f600d5460405161124b91815260200190565b60405180910390a15050565b6000828152600c60205260409020600101546112728161251e565b610e9f83836127cc565b600061128783611c37565b82106112e95760405162461bcd60e51b815260206004820152602b60248201527f455243373231456e756d657261626c653a206f776e657220696e646578206f7560448201526a74206f6620626f756e647360a81b6064820152608401610d69565b506001600160a01b03919091166000908152600660209081526040808320938352929052205490565b6083818154811061132257600080fd5b6000918252602090912001546001600160a01b0316905081565b6001600160a01b03811633146113ac5760405162461bcd60e51b815260206004820152602f60248201527f416363657373436f6e74726f6c3a2063616e206f6e6c792072656e6f756e636560448201526e103937b632b9903337b91039b2b63360891b6064820152608401610d69565b6113b68282612852565b5050565b6000805160206144a98339815191526113d28161251e565b6113da6128b9565b50565b610e9f838383604051806020016040528060008152506121d3565b611401336111a2565b6114665760405162461bcd60e51b815260206004820152603060248201527f4552433732314275726e61626c653a2063616c6c6572206973206e6f74206f7760448201526f1b995c881b9bdc88185c1c1c9bdd995960821b6064820152608401610d69565b6113da8161294c565b607a5442116114c05760405162461bcd60e51b815260206004820152601b60248201527f4e6f7420796574206c61756e63682074696d65207265616368656400000000006044820152606401610d69565b607954607854116115065760405162461bcd60e51b815260206004820152601060248201526f185c9a591c9bdc081cdbdb19081bdd5d60821b6044820152606401610d69565b60845460ff161561165a576000805b6083548110156116375760006083828154811061154257634e487b7160e01b600052603260045260246000fd5b6000918252602090912001546040516370a0823160e01b81523360048201526001600160a01b03909116906370a082319060240160206040518083038186803b15801561158e57600080fd5b505afa1580156115a2573d6000803e3d6000fd5b505050506040513d601f19601f820116820180604052508101906115c6919061404b565b608454909150610100900460ff161561160b57600081116115f95760405162461bcd60e51b8152600401610d6990614262565b611604836001612528565b9250611624565b80156116245761161c836001612528565b925050611637565b508061162f81614421565b915050611515565b50600081116116585760405162461bcd60e51b8152600401610d6990614262565b505b600080805b608054811015611721576080818154811061168a57634e487b7160e01b600052603260045260246000fd5b9060005260206000200154608182815481106116b657634e487b7160e01b600052603260045260246000fd5b90600052602060002001541061170b57611704608082815481106116ea57634e487b7160e01b600052603260045260246000fd5b90600052602060002001548361252890919063ffffffff16565b915061170f565b8092505b8061171981614421565b91505061165f565b5061175561174e6013846064811061174957634e487b7160e01b600052603260045260246000fd5b015490565b8290612528565b90506118153382607f858154811061177d57634e487b7160e01b600052603260045260246000fd5b906000526020600020018054611792906143ec565b80601f01602080910402602001604051908101604052809291908181526020018280546117be906143ec565b801561180b5780601f106117e05761010080835404028352916020019161180b565b820191906000526020600020905b8154815290600101906020018083116117ee57829003601f168201915b5050505050612955565b5061183a6013836064811061113c57634e487b7160e01b600052603260045260246000fd5b61187960016081848154811061186057634e487b7160e01b600052603260045260246000fd5b906000526020600020015461252890919063ffffffff16565b6081838154811061189a57634e487b7160e01b600052603260045260246000fd5b6000918252602090912001556079546118b4906001612528565b6079555050565b60006118c660085490565b82106119295760405162461bcd60e51b815260206004820152602c60248201527f455243373231456e756d657261626c653a20676c6f62616c20696e646578206f60448201526b7574206f6620626f756e647360a01b6064820152608401610d69565b6008828154811061194a57634e487b7160e01b600052603260045260246000fd5b90600052602060002001549050919050565b6000805160206144c98339815191526119748161251e565b60405162461bcd60e51b8152602060048201526008602482015267111a5cd8589b195960c21b6044820152606401610d69565b600b546001600160a01b036101009091041633146119d75760405162461bcd60e51b8152600401610d699061422d565b607a8190556040518181527f7c8826e4db3679f20c86da0c68d37f9dbcd1d638c56717e014f93c56d14c02d1906020015b60405180910390a150565b607f8181548110611a2357600080fd5b906000526020600020016000915090508054611a3e906143ec565b80601f0160208091040260200160405190810160405280929190818152602001828054611a6a906143ec565b8015611ab75780601f10611a8c57610100808354040283529160200191611ab7565b820191906000526020600020905b815481529060010190602001808311611a9a57829003601f168201915b505050505081565b600080805b608054811015611b5557611b41611b3a60818381548110611af557634e487b7160e01b600052603260045260246000fd5b906000526020600020015460808481548110611b2157634e487b7160e01b600052603260045260246000fd5b906000526020600020015461296c90919063ffffffff16565b8390612528565b915080611b4d81614421565b915050611ac4565b50919050565b6000818152600260205260408120546001600160a01b031680610c695760405162461bcd60e51b815260206004820152602960248201527f4552433732313a206f776e657220717565727920666f72206e6f6e657869737460448201526832b73a103a37b5b2b760b91b6064820152608401610d69565b600b546001600160a01b03610100909104163314611c025760405162461bcd60e51b8152600401610d699061422d565b607b8190556040518181527fa7ade4ab976b6643a971383d9822fb7c2fce66aa2e497d88c3b4f1475ea2b2e090602001611a08565b60006001600160a01b038216611ca25760405162461bcd60e51b815260206004820152602a60248201527f4552433732313a2062616c616e636520717565727920666f7220746865207a65604482015269726f206164647265737360b01b6064820152608401610d69565b506001600160a01b031660009081526003602052604090205490565b600b546001600160a01b03610100909104163314611cee5760405162461bcd60e51b8152600401610d699061422d565b611cf86000612978565b565b600b546001600160a01b03610100909104163314611d2a5760405162461bcd60e51b8152600401610d699061422d565b600f80546001600160a01b0319166001600160a01b038316179055611d5d6000805160206144c9833981519152826127cc565b600f546040516001600160a01b0390911681527f329b1203fc60a62c4a0fd3ff1554a07f92a2f117cc590422dd105811bb484ded90602001611a08565b600b546001600160a01b03610100909104163314611dca5760405162461bcd60e51b8152600401610d699061422d565b611de26000805160206144a9833981519152826127cc565b604080516001600160a01b038316815260208101829052600b918101919091526a5041555345525f524f4c4560a81b60608201527f0578acc86b18d67c13a5e6eed8c670fb7052f530b48a2acb167d6ca77509a38490608001611a08565b6000805160206144a9833981519152611e588161251e565b6113da6129d2565b60808181548110611e7057600080fd5b600091825260209091200154905081565b600b546001600160a01b03610100909104163314611eb15760405162461bcd60e51b8152600401610d699061422d565b6001600160a01b038316611f075760405162461bcd60e51b815260206004820152601760248201527f696e76616c6964207061796d656e7420616464726573730000000000000000006044820152606401610d69565b6001600160a01b038216611f5d5760405162461bcd60e51b815260206004820152601860248201527f696e76616c6964207472656173757279206164647265737300000000000000006044820152606401610d69565b607c80546001600160a01b038581166001600160a01b03199283168117909355607d8054918616919092168117909155607e83905560408051928352602083019190915281018290527fe2be3027f197494650b7a98fd1cae67dacf615bd1d8bb05102999676f11638669060600160405180910390a1505050565b6000918252600c602090815260408084206001600160a01b0393909316845291905290205460ff1690565b606060018054610c7e906143ec565b600b546001600160a01b036101009091041633146120425760405162461bcd60e51b8152600401610d699061422d565b61205a6000805160206144c9833981519152826127cc565b604080516001600160a01b038316815260208101829052600b918101919091526a4d494e5445525f524f4c4560a81b60608201527f0578acc86b18d67c13a5e6eed8c670fb7052f530b48a2acb167d6ca77509a38490608001611a08565b6113b6338383612a2a565b600b546001600160a01b036101009091041633146120f35760405162461bcd60e51b8152600401610d699061422d565b601280546001600160a01b0319166001600160a01b0383169081179091556040519081527fca92c759228172fe3894a344908fd20dfd37ba561b5af191f1f5b02ee03881fc90602001611a08565b6000805160206144c98339815191526121598161251e565b6001600160a01b0384166121a45760405162461bcd60e51b8152602060048201526012602482015271496e76616c696420746f206164647265737360701b6044820152606401610d69565b60005b828110156121cc576121b98585612226565b50806121c481614421565b9150506121a7565b5050505050565b6121dd338361253b565b6121f95760405162461bcd60e51b8152600401610d69906142a3565b61220584848484612af9565b50505050565b60818181548110611e7057600080fd5b6060610c6982612b2c565b60006000805160206144c98339815191526119748161251e565b600e8054611a3e906143ec565b6000828152600c60205260409020600101546122688161251e565b610e9f8383612852565b600b546001600160a01b036101009091041633146122a25760405162461bcd60e51b8152600401610d699061422d565b6077805460ff191682151590811790915560405160ff909116151581527f3686565173a764dcbff6d4a0fc2d3850197c34103ddb438a36f4bfdc3baa376490602001611a08565b600b546001600160a01b036101009091041633146123195760405162461bcd60e51b8152600401610d699061422d565b81156123b45760005b828110156123a557608384848381811061234c57634e487b7160e01b600052603260045260246000fd5b90506020020160208101906123619190613bc0565b81546001810183556000928352602090922090910180546001600160a01b0319166001600160a01b039092169190911790558061239d81614421565b915050612322565b506084805460ff191660011790555b608480549115156101000261ff00199092169190911790555050565b600b546001600160a01b036101009091041633146124005760405162461bcd60e51b8152600401610d699061422d565b6001600160a01b0381166124655760405162461bcd60e51b815260206004820152602660248201527f4f776e61626c653a206e6577206f776e657220697320746865207a65726f206160448201526564647265737360d01b6064820152608401610d69565b6113da81612978565b60006001600160e01b03198216637965db0b60e01b1480610c695750610c6982612c9b565b6000908152600260205260409020546001600160a01b0316151590565b600081815260046020526040902080546001600160a01b0319166001600160a01b03841690811790915581906124e582611b5b565b6001600160a01b03167f8c5be1e5ebec7d5bd14f71427d1e84f3dd0314c0f7b2291e5b200ac8c7c3b92560405160405180910390a45050565b6113da8133612cc0565b60006125348284614347565b9392505050565b600061254682612493565b6125a75760405162461bcd60e51b815260206004820152602c60248201527f4552433732313a206f70657261746f7220717565727920666f72206e6f6e657860448201526b34b9ba32b73a103a37b5b2b760a11b6064820152608401610d69565b60006125b283611b5b565b9050806001600160a01b0316846001600160a01b031614806125f957506001600160a01b0380821660009081526005602090815260408083209388168352929052205460ff165b8061261d5750836001600160a01b031661261284610d01565b6001600160a01b0316145b949350505050565b826001600160a01b031661263882611b5b565b6001600160a01b03161461269c5760405162461bcd60e51b815260206004820152602560248201527f4552433732313a207472616e736665722066726f6d20696e636f72726563742060448201526437bbb732b960d91b6064820152608401610d69565b6001600160a01b0382166126fe5760405162461bcd60e51b8152602060048201526024808201527f4552433732313a207472616e7366657220746f20746865207a65726f206164646044820152637265737360e01b6064820152608401610d69565b612709838383612d24565b6127146000826124b0565b6001600160a01b038316600090815260036020526040812080546001929061273d908490614392565b90915550506001600160a01b038216600090815260036020526040812080546001929061276b908490614347565b909155505060008181526002602052604080822080546001600160a01b0319166001600160a01b0386811691821790925591518493918716917fddf252ad1be2c89b69c2b068fc378daa952ba7f163c4a11628f55a4df523b3ef91a4505050565b6127d68282611fd8565b6113b6576000828152600c602090815260408083206001600160a01b03851684529091529020805460ff1916600117905561280e3390565b6001600160a01b0316816001600160a01b0316837f2f8788117e7eff1d82e926ec794901d17c78024a50270940304540a733656f0d60405160405180910390a45050565b61285c8282611fd8565b156113b6576000828152600c602090815260408083206001600160a01b0385168085529252808320805460ff1916905551339285917ff6391f5c32d9c69d2a47ea670b442974b53935d1edc7fd64eb21e047a839171b9190a45050565b600b5460ff166129025760405162461bcd60e51b815260206004820152601460248201527314185d5cd8589b194e881b9bdd081c185d5cd95960621b6044820152606401610d69565b600b805460ff191690557f5db9ee0a495bf2e6ff9c91a7834c1ba4fdd244a5e8aa4e537bd38aeae4b073aa335b6040516001600160a01b03909116815260200160405180910390a1565b6113da81612e24565b600080612963858585612e64565b95945050505050565b60006125348284614392565b600b80546001600160a01b03838116610100818102610100600160a81b031985161790945560405193909204169182907f8be0079c531659141344cd1fd0a4f28419497f9722a3daafe3b4186f6b6457e090600090a35050565b600b5460ff16156129f55760405162461bcd60e51b8152600401610d6990614203565b600b805460ff191660011790557f62e78cea01bee320cd4e420270b5ea74000d11b0c9f74754ebdbfc544b05a25861292f3390565b816001600160a01b0316836001600160a01b03161415612a8c5760405162461bcd60e51b815260206004820152601960248201527f4552433732313a20617070726f766520746f2063616c6c6572000000000000006044820152606401610d69565b6001600160a01b03838116600081815260056020908152604080832094871680845294825291829020805460ff191686151590811790915591519182527f17307eab39ab6107e8899845ad3d59bd9653f200f220920489ca2b5937696c31910160405180910390a3505050565b612b04848484612625565b612b1084848484612e82565b6122055760405162461bcd60e51b8152600401610d69906141b1565b6060612b3782612493565b612b9d5760405162461bcd60e51b815260206004820152603160248201527f45524337323155524953746f726167653a2055524920717565727920666f72206044820152703737b732bc34b9ba32b73a103a37b5b2b760791b6064820152608401610d69565b6000828152600a602052604081208054612bb6906143ec565b80601f0160208091040260200160405190810160405280929190818152602001828054612be2906143ec565b8015612c2f5780601f10612c0457610100808354040283529160200191612c2f565b820191906000526020600020905b815481529060010190602001808311612c1257829003601f168201915b505050505090506000612c4d60408051602081019091526000815290565b9050805160001415612c60575092915050565b815115612c92578082604051602001612c7a9291906140bd565b60405160208183030381529060405292505050919050565b61261d84612f8f565b60006001600160e01b0319821663780e9d6360e01b1480610c695750610c6982613066565b612cca8282611fd8565b6113b657612ce2816001600160a01b031660146130b6565b612ced8360206130b6565b604051602001612cfe9291906140ec565b60408051601f198184030181529082905262461bcd60e51b8252610d699160040161419e565b600b5460ff1615612d475760405162461bcd60e51b8152600401610d6990614203565b612d52838383613297565b60775460ff16151560011415610e9f576001600160a01b03821615801590612dcf57506040516bffffffffffffffffffffffff19606084901b1660208201527f2737ae3b2bd6d6c72cf8b2980d313b701bc30259538be7ee03f14837058cb838906034016040516020818303038152906040528051906020012014155b8015612de357506001600160a01b03831615155b15610e9f5760405162461bcd60e51b81526020600482015260116024820152701b9bdd081cdbdd5b189bdd5b9908139195607a1b6044820152606401610d69565b612e2d816132c5565b6000818152600a602052604090208054612e46906143ec565b1590506113da576000818152600a602052604081206113da91613a25565b6000612e70848461336c565b612e7a8383613386565b509092915050565b60006001600160a01b0384163b15612f8457604051630a85bd0160e11b81526001600160a01b0385169063150b7a0290612ec6903390899088908890600401614161565b602060405180830381600087803b158015612ee057600080fd5b505af1925050508015612f10575060408051601f3d908101601f19168201909252612f0d9181019061402f565b60015b612f6a573d808015612f3e576040519150601f19603f3d011682016040523d82523d6000602084013e612f43565b606091505b508051612f625760405162461bcd60e51b8152600401610d69906141b1565b805181602001fd5b6001600160e01b031916630a85bd0160e11b14905061261d565b506001949350505050565b6060612f9a82612493565b612ffe5760405162461bcd60e51b815260206004820152602f60248201527f4552433732314d657461646174613a2055524920717565727920666f72206e6f60448201526e3732bc34b9ba32b73a103a37b5b2b760891b6064820152608401610d69565b600061301560408051602081019091526000815290565b905060008151116130355760405180602001604052806000815250612534565b8061303f84613411565b6040516020016130509291906140bd565b6040516020818303038152906040529392505050565b60006001600160e01b031982166380ac58cd60e01b148061309757506001600160e01b03198216635b5e139f60e01b145b80610c6957506301ffc9a760e01b6001600160e01b0319831614610c69565b606060006130c5836002614373565b6130d0906002614347565b6001600160401b038111156130f557634e487b7160e01b600052604160045260246000fd5b6040519080825280601f01601f19166020018201604052801561311f576020820181803683370190505b509050600360fc1b8160008151811061314857634e487b7160e01b600052603260045260246000fd5b60200101906001600160f81b031916908160001a905350600f60fb1b8160018151811061318557634e487b7160e01b600052603260045260246000fd5b60200101906001600160f81b031916908160001a90535060006131a9846002614373565b6131b4906001614347565b90505b6001811115613248576f181899199a1a9b1b9c1cb0b131b232b360811b85600f16601081106131f657634e487b7160e01b600052603260045260246000fd5b1a60f81b82828151811061321a57634e487b7160e01b600052603260045260246000fd5b60200101906001600160f81b031916908160001a90535060049490941c93613241816143d5565b90506131b7565b5083156125345760405162461bcd60e51b815260206004820181905260248201527f537472696e67733a20686578206c656e67746820696e73756666696369656e746044820152606401610d69565b600b5460ff16156132ba5760405162461bcd60e51b8152600401610d6990614203565b610e9f83838361352a565b60006132d082611b5b565b90506132de81600084612d24565b6132e96000836124b0565b6001600160a01b0381166000908152600360205260408120805460019290613312908490614392565b909155505060008281526002602052604080822080546001600160a01b0319169055518391906001600160a01b038416907fddf252ad1be2c89b69c2b068fc378daa952ba7f163c4a11628f55a4df523b3ef908390a45050565b6113b68282604051806020016040528060008152506135e2565b61338f82612493565b6133f25760405162461bcd60e51b815260206004820152602e60248201527f45524337323155524953746f726167653a2055524920736574206f66206e6f6e60448201526d32bc34b9ba32b73a103a37b5b2b760911b6064820152608401610d69565b6000828152600a602090815260409091208251610e9f928401906139b2565b6060816134355750506040805180820190915260018152600360fc1b602082015290565b8160005b811561345f578061344981614421565b91506134589050600a8361435f565b9150613439565b6000816001600160401b0381111561348757634e487b7160e01b600052604160045260246000fd5b6040519080825280601f01601f1916602001820160405280156134b1576020820181803683370190505b5090505b841561261d576134c6600183614392565b91506134d3600a8661443c565b6134de906030614347565b60f81b81838151811061350157634e487b7160e01b600052603260045260246000fd5b60200101906001600160f81b031916908160001a905350613523600a8661435f565b94506134b5565b6001600160a01b0383166135855761358081600880546000838152600960205260408120829055600182018355919091527ff3f7a9fe364faab93b216da50a3214154f22a0a2b415b23a84c8169e8b636ee30155565b6135a8565b816001600160a01b0316836001600160a01b0316146135a8576135a88382613615565b6001600160a01b0382166135bf57610e9f816136b2565b826001600160a01b0316826001600160a01b031614610e9f57610e9f828261378b565b6135ec83836137cf565b6135f96000848484612e82565b610e9f5760405162461bcd60e51b8152600401610d69906141b1565b6000600161362284611c37565b61362c9190614392565b60008381526007602052604090205490915080821461367f576001600160a01b03841660009081526006602090815260408083208584528252808320548484528184208190558352600790915290208190555b5060009182526007602090815260408084208490556001600160a01b039094168352600681528383209183525290812055565b6008546000906136c490600190614392565b600083815260096020526040812054600880549394509092849081106136fa57634e487b7160e01b600052603260045260246000fd5b90600052602060002001549050806008838154811061372957634e487b7160e01b600052603260045260246000fd5b600091825260208083209091019290925582815260099091526040808220849055858252812055600880548061376f57634e487b7160e01b600052603160045260246000fd5b6001900381819060005260206000200160009055905550505050565b600061379683611c37565b6001600160a01b039093166000908152600660209081526040808320868452825280832085905593825260079052919091209190915550565b6001600160a01b0382166138255760405162461bcd60e51b815260206004820181905260248201527f4552433732313a206d696e7420746f20746865207a65726f20616464726573736044820152606401610d69565b61382e81612493565b1561387b5760405162461bcd60e51b815260206004820152601c60248201527f4552433732313a20746f6b656e20616c7265616479206d696e746564000000006044820152606401610d69565b61388760008383612d24565b6001600160a01b03821660009081526003602052604081208054600192906138b0908490614347565b909155505060008181526002602052604080822080546001600160a01b0319166001600160a01b03861690811790915590518392907fddf252ad1be2c89b69c2b068fc378daa952ba7f163c4a11628f55a4df523b3ef908290a45050565b828054828255906000526020600020908101928215613949579160200282015b8281111561394957825182559160200191906001019061392e565b50613955929150613a5b565b5090565b8280548282559060005260206000209081019282156139a6579160200282015b828111156139a657825180516139969184916020909101906139b2565b5091602001919060010190613979565b50613955929150613a70565b8280546139be906143ec565b90600052602060002090601f0160209004810192826139e05760008555613949565b82601f106139f957805160ff1916838001178555613949565b82800160010185558215613949579182018281111561394957825182559160200191906001019061392e565b508054613a31906143ec565b6000825580601f10613a41575050565b601f0160209004906000526020600020908101906113da91905b5b808211156139555760008155600101613a5c565b80821115613955576000613a848282613a25565b50600101613a70565b60006001600160401b03831115613aa657613aa661447c565b613ab9601f8401601f19166020016142f4565b9050828152838383011115613acd57600080fd5b828260208301376000602084830101529392505050565b80356001600160a01b0381168114613afb57600080fd5b919050565b600082601f830112613b10578081fd5b81356020613b25613b2083614324565b6142f4565b80838252828201915082860187848660051b8901011115613b44578586fd5b855b85811015613b845781356001600160401b03811115613b63578788fd5b613b718a87838c0101613ba1565b8552509284019290840190600101613b46565b5090979650505050505050565b80358015158114613afb57600080fd5b600082601f830112613bb1578081fd5b61253483833560208501613a8d565b600060208284031215613bd1578081fd5b61253482613ae4565b60008060408385031215613bec578081fd5b613bf583613ae4565b9150613c0360208401613ae4565b90509250929050565b600080600060608486031215613c20578081fd5b613c2984613ae4565b9250613c3760208501613ae4565b9150604084013590509250925092565b600080600080600060808688031215613c5e578081fd5b613c6786613ae4565b9450613c7560208701613ae4565b93506040860135925060608601356001600160401b0380821115613c97578283fd5b818801915088601f830112613caa578283fd5b813581811115613cb8578384fd5b896020828501011115613cc9578384fd5b9699959850939650602001949392505050565b60008060008060808587031215613cf1578384fd5b613cfa85613ae4565b9350613d0860208601613ae4565b92506040850135915060608501356001600160401b03811115613d29578182fd5b8501601f81018713613d39578182fd5b613d4887823560208401613a8d565b91505092959194509250565b60008060408385031215613d66578182fd5b613d6f83613ae4565b915060208301356001600160401b03811115613d89578182fd5b613d9585828601613b00565b9150509250929050565b60008060408385031215613db1578182fd5b613dba83613ae4565b9150613c0360208401613b91565b60008060408385031215613dda578182fd5b613de383613ae4565b915060208301356001600160401b03811115613dfd578182fd5b613d9585828601613ba1565b600080600060608486031215613e1d578081fd5b613e2684613ae4565b925060208401356001600160401b03811115613e40578182fd5b613e4c86828701613ba1565b925050604084013590509250925092565b60008060408385031215613e6f578182fd5b613e7883613ae4565b946020939093013593505050565b600080600060408486031215613e9a578081fd5b83356001600160401b0380821115613eb0578283fd5b818601915086601f830112613ec3578283fd5b813581811115613ed1578384fd5b8760208260051b8501011115613ee5578384fd5b602092830195509350613efb9186019050613b91565b90509250925092565b60008060408385031215613f16578182fd5b82356001600160401b0380821115613f2c578384fd5b613f3886838701613b00565b9350602091508185013581811115613f4e578384fd5b85019050601f81018613613f60578283fd5b8035613f6e613b2082614324565b80828252848201915084840189868560051b8701011115613f8d578687fd5b8694505b83851015613faf578035835260019490940193918501918501613f91565b5080955050505050509250929050565b600060208284031215613fd0578081fd5b61253482613b91565b600060208284031215613fea578081fd5b5035919050565b60008060408385031215614003578182fd5b82359150613c0360208401613ae4565b600060208284031215614024578081fd5b813561253481614492565b600060208284031215614040578081fd5b815161253481614492565b60006020828403121561405c578081fd5b5051919050565b60008060408385031215614075578182fd5b8235915060208301356001600160401b03811115613dfd578182fd5b600081518084526140a98160208601602086016143a9565b601f01601f19169290920160200192915050565b600083516140cf8184602088016143a9565b8351908301906140e38183602088016143a9565b01949350505050565b7f416363657373436f6e74726f6c3a206163636f756e74200000000000000000008152600083516141248160178501602088016143a9565b7001034b99036b4b9b9b4b733903937b6329607d1b60179184019182015283516141558160288401602088016143a9565b01602801949350505050565b6001600160a01b038581168252841660208201526040810183905260806060820181905260009061419490830184614091565b9695505050505050565b6020815260006125346020830184614091565b60208082526032908201527f4552433732313a207472616e7366657220746f206e6f6e20455243373231526560408201527131b2b4bb32b91034b6b83632b6b2b73a32b960711b606082015260800190565b60208082526010908201526f14185d5cd8589b194e881c185d5cd95960821b604082015260600190565b6020808252818101527f4f776e61626c653a2063616c6c6572206973206e6f7420746865206f776e6572604082015260600190565b60208082526021908201527f73686f756c642062757920616c6c20636f6c6c656374696f6e73206265666f726040820152606560f81b606082015260800190565b60208082526031908201527f4552433732313a207472616e736665722063616c6c6572206973206e6f74206f6040820152701ddb995c881b9bdc88185c1c1c9bdd9959607a1b606082015260800190565b604051601f8201601f191681016001600160401b038111828210171561431c5761431c61447c565b604052919050565b60006001600160401b0382111561433d5761433d61447c565b5060051b60200190565b6000821982111561435a5761435a614450565b500190565b60008261436e5761436e614466565b500490565b600081600019048311821515161561438d5761438d614450565b500290565b6000828210156143a4576143a4614450565b500390565b60005b838110156143c45781810151838201526020016143ac565b838111156122055750506000910152565b6000816143e4576143e4614450565b506000190190565b600181811c9082168061440057607f821691505b60208210811415611b5557634e487b7160e01b600052602260045260246000fd5b600060001982141561443557614435614450565b5060010190565b60008261444b5761444b614466565b500690565b634e487b7160e01b600052601160045260246000fd5b634e487b7160e01b600052601260045260246000fd5b634e487b7160e01b600052604160045260246000fd5b6001600160e01b0319811681146113da57600080fdfe65d7a28e3265b37a6474929f336521b332c1681b933f6cb9f3376673440d862a9f2df0fed2c77648de5860a4cc508cd0818c85b8b8a1ab4ceeef8d981c8956a6a2646970667358221220501fe29a3b321627b5e1270ff83e0a196b122bf4186afbeb65590bfaf5f3e37764736f6c634300080400334f776e61626c653a2063616c6c6572206973206e6f7420746865206f776e657265d7a28e3265b37a6474929f336521b332c1681b933f6cb9f3376673440d862a9f2df0fed2c77648de5860a4cc508cd0818c85b8b8a1ab4ceeef8d981c8956a6",
  "linkReferences": {},
  "deployedLinkReferences": {}
}