{
  "_format": "hh-sol-artifact-1",
  "contractName": "AirDrop",
  "sourceName": "contracts/AirDrop.sol",
  "abi": [
    {
      "inputs": [
        {
          "internalType": "string",
          "name": "name",
          "type": "string"
        },
        {
          "internalType": "string",
          "name": "symbol",
          "type": "string"
        },
        {
          "internalType": "address",
          "name": "_quote",
          "type": "address"
        },
        {
          "internalType": "address",
          "name": "_payment",
          "type": "address"
        },
        {
          "internalType": "address",
          "name": "_treasury",
          "type": "address"
        },
        {
          "internalType": "bool",
          "name": "_soulbound",
          "type": "bool"
        },
        {
          "internalType": "uint256[]",
          "name": "configValues",
          "type": "uint256[]"
        }
      ],
      "stateMutability": "nonpayable",
      "type": "constructor"
    },
    {
      "anonymous": false,
      "inputs": [
        {
          "indexed": true,
          "internalType": "address",
          "name": "owner",
          "type": "address"
        },
        {
          "indexed": true,
          "internalType": "address",
          "name": "approved",
          "type": "address"
        },
        {
          "indexed": true,
          "internalType": "uint256",
          "name": "tokenId",
          "type": "uint256"
        }
      ],
      "name": "Approval",
      "type": "event"
    },
    {
      "anonymous": false,
      "inputs": [
        {
          "indexed": true,
          "internalType": "address",
          "name": "owner",
          "type": "address"
        },
        {
          "indexed": true,
          "internalType": "address",
          "name": "operator",
          "type": "address"
        },
        {
          "indexed": false,
          "internalType": "bool",
          "name": "approved",
          "type": "bool"
        }
      ],
      "name": "ApprovalForAll",
      "type": "event"
    },
    {
      "anonymous": false,
      "inputs": [
        {
          "indexed": false,
          "internalType": "address",
          "name": "",
          "type": "address"
        },
        {
          "indexed": false,
          "internalType": "string",
          "name": "",
          "type": "string"
        }
      ],
      "name": "Grant",
      "type": "event"
    },
    {
      "anonymous": false,
      "inputs": [
        {
          "indexed": true,
          "internalType": "address",
          "name": "previousOwner",
          "type": "address"
        },
        {
          "indexed": true,
          "internalType": "address",
          "name": "newOwner",
          "type": "address"
        }
      ],
      "name": "OwnershipTransferred",
      "type": "event"
    },
    {
      "anonymous": false,
      "inputs": [
        {
          "indexed": false,
          "internalType": "address",
          "name": "account",
          "type": "address"
        }
      ],
      "name": "Paused",
      "type": "event"
    },
    {
      "anonymous": false,
      "inputs": [
        {
          "indexed": true,
          "internalType": "bytes32",
          "name": "role",
          "type": "bytes32"
        },
        {
          "indexed": true,
          "internalType": "bytes32",
          "name": "previousAdminRole",
          "type": "bytes32"
        },
        {
          "indexed": true,
          "internalType": "bytes32",
          "name": "newAdminRole",
          "type": "bytes32"
        }
      ],
      "name": "RoleAdminChanged",
      "type": "event"
    },
    {
      "anonymous": false,
      "inputs": [
        {
          "indexed": true,
          "internalType": "bytes32",
          "name": "role",
          "type": "bytes32"
        },
        {
          "indexed": true,
          "internalType": "address",
          "name": "account",
          "type": "address"
        },
        {
          "indexed": true,
          "internalType": "address",
          "name": "sender",
          "type": "address"
        }
      ],
      "name": "RoleGranted",
      "type": "event"
    },
    {
      "anonymous": false,
      "inputs": [
        {
          "indexed": true,
          "internalType": "bytes32",
          "name": "role",
          "type": "bytes32"
        },
        {
          "indexed": true,
          "internalType": "address",
          "name": "account",
          "type": "address"
        },
        {
          "indexed": true,
          "internalType": "address",
          "name": "sender",
          "type": "address"
        }
      ],
      "name": "RoleRevoked",
      "type": "event"
    },
    {
      "anonymous": false,
      "inputs": [
        {
          "indexed": false,
          "internalType": "address",
          "name": "",
          "type": "address"
        },
        {
          "indexed": false,
          "internalType": "address",
          "name": "",
          "type": "address"
        },
        {
          "indexed": false,
          "internalType": "uint256",
          "name": "",
          "type": "uint256"
        }
      ],
      "name": "SetConfig",
      "type": "event"
    },
    {
      "anonymous": false,
      "inputs": [
        {
          "indexed": false,
          "internalType": "uint256",
          "name": "",
          "type": "uint256"
        }
      ],
      "name": "SetHardCap",
      "type": "event"
    },
    {
      "anonymous": false,
      "inputs": [
        {
          "indexed": false,
          "internalType": "uint256",
          "name": "",
          "type": "uint256"
        }
      ],
      "name": "SetLaunch",
      "type": "event"
    },
    {
      "anonymous": false,
      "inputs": [
        {
          "indexed": false,
          "internalType": "uint256",
          "name": "",
          "type": "uint256"
        }
      ],
      "name": "SetLockup",
      "type": "event"
    },
    {
      "anonymous": false,
      "inputs": [
        {
          "indexed": false,
          "internalType": "address",
          "name": "",
          "type": "address"
        }
      ],
      "name": "SetMysteryBox",
      "type": "event"
    },
    {
      "anonymous": false,
      "inputs": [
        {
          "indexed": false,
          "internalType": "address",
          "name": "",
          "type": "address"
        }
      ],
      "name": "SetQuote",
      "type": "event"
    },
    {
      "anonymous": false,
      "inputs": [
        {
          "indexed": false,
          "internalType": "bool",
          "name": "",
          "type": "bool"
        }
      ],
      "name": "SetSoulbound",
      "type": "event"
    },
    {
      "anonymous": false,
      "inputs": [
        {
          "indexed": true,
          "internalType": "address",
          "name": "from",
          "type": "address"
        },
        {
          "indexed": true,
          "internalType": "address",
          "name": "to",
          "type": "address"
        },
        {
          "indexed": true,
          "internalType": "uint256",
          "name": "tokenId",
          "type": "uint256"
        }
      ],
      "name": "Transfer",
      "type": "event"
    },
    {
      "anonymous": false,
      "inputs": [
        {
          "indexed": false,
          "internalType": "address",
          "name": "account",
          "type": "address"
        }
      ],
      "name": "Unpaused",
      "type": "event"
    },
    {
      "inputs": [],
      "name": "DEFAULT_ADMIN_ROLE",
      "outputs": [
        {
          "internalType": "bytes32",
          "name": "",
          "type": "bytes32"
        }
      ],
      "stateMutability": "view",
      "type": "function"
    },
    {
      "inputs": [],
      "name": "MINTER_ROLE",
      "outputs": [
        {
          "internalType": "bytes32",
          "name": "",
          "type": "bytes32"
        }
      ],
      "stateMutability": "view",
      "type": "function"
    },
    {
      "inputs": [],
      "name": "PAUSER_ROLE",
      "outputs": [
        {
          "internalType": "bytes32",
          "name": "",
          "type": "bytes32"
        }
      ],
      "stateMutability": "view",
      "type": "function"
    },
    {
      "inputs": [
        {
          "internalType": "address",
          "name": "minter",
          "type": "address"
        }
      ],
      "name": "addMinter",
      "outputs": [],
      "stateMutability": "nonpayable",
      "type": "function"
    },
    {
      "inputs": [
        {
          "internalType": "address",
          "name": "pauser",
          "type": "address"
        }
      ],
      "name": "addPauser",
      "outputs": [],
      "stateMutability": "nonpayable",
      "type": "function"
    },
    {
      "inputs": [],
      "name": "andOr",
      "outputs": [
        {
          "internalType": "bool",
          "name": "",
          "type": "bool"
        }
      ],
      "stateMutability": "view",
      "type": "function"
    },
    {
      "inputs": [
        {
          "internalType": "address",
          "name": "to",
          "type": "address"
        },
        {
          "internalType": "uint256",
          "name": "tokenId",
          "type": "uint256"
        }
      ],
      "name": "approve",
      "outputs": [],
      "stateMutability": "nonpayable",
      "type": "function"
    },
    {
      "inputs": [
        {
          "internalType": "address",
          "name": "owner",
          "type": "address"
        }
      ],
      "name": "balanceOf",
      "outputs": [
        {
          "internalType": "uint256",
          "name": "",
          "type": "uint256"
        }
      ],
      "stateMutability": "view",
      "type": "function"
    },
    {
      "inputs": [
        {
          "internalType": "uint256",
          "name": "tokenId",
          "type": "uint256"
        }
      ],
      "name": "burn",
      "outputs": [],
      "stateMutability": "nonpayable",
      "type": "function"
    },
    {
      "inputs": [
        {
          "internalType": "uint256",
          "name": "_itemIx",
          "type": "uint256"
        },
        {
          "internalType": "uint256",
          "name": "amount",
          "type": "uint256"
        },
        {
          "internalType": "address",
          "name": "to",
          "type": "address"
        }
      ],
      "name": "buyItemCredit",
      "outputs": [],
      "stateMutability": "nonpayable",
      "type": "function"
    },
    {
      "inputs": [],
      "name": "claim",
      "outputs": [],
      "stateMutability": "nonpayable",
      "type": "function"
    },
    {
      "inputs": [],
      "name": "feeRate",
      "outputs": [
        {
          "internalType": "uint256",
          "name": "",
          "type": "uint256"
        }
      ],
      "stateMutability": "view",
      "type": "function"
    },
    {
      "inputs": [],
      "name": "flagMandatory",
      "outputs": [
        {
          "internalType": "bool",
          "name": "",
          "type": "bool"
        }
      ],
      "stateMutability": "view",
      "type": "function"
    },
    {
      "inputs": [
        {
          "internalType": "uint256",
          "name": "tokenId",
          "type": "uint256"
        }
      ],
      "name": "getApproved",
      "outputs": [
        {
          "internalType": "address",
          "name": "",
          "type": "address"
        }
      ],
      "stateMutability": "view",
      "type": "function"
    },
    {
      "inputs": [],
      "name": "getItemRemains",
      "outputs": [
        {
          "internalType": "uint256",
          "name": "",
          "type": "uint256"
        }
      ],
      "stateMutability": "view",
      "type": "function"
    },
    {
      "inputs": [
        {
          "internalType": "bytes32",
          "name": "role",
          "type": "bytes32"
        }
      ],
      "name": "getRoleAdmin",
      "outputs": [
        {
          "internalType": "bytes32",
          "name": "",
          "type": "bytes32"
        }
      ],
      "stateMutability": "view",
      "type": "function"
    },
    {
      "inputs": [],
      "name": "globalURI",
      "outputs": [
        {
          "internalType": "string",
          "name": "",
          "type": "string"
        }
      ],
      "stateMutability": "view",
      "type": "function"
    },
    {
      "inputs": [
        {
          "internalType": "bytes32",
          "name": "role",
          "type": "bytes32"
        },
        {
          "internalType": "address",
          "name": "account",
          "type": "address"
        }
      ],
      "name": "grantRole",
      "outputs": [],
      "stateMutability": "nonpayable",
      "type": "function"
    },
    {
      "inputs": [],
      "name": "hardCap",
      "outputs": [
        {
          "internalType": "uint256",
          "name": "",
          "type": "uint256"
        }
      ],
      "stateMutability": "view",
      "type": "function"
    },
    {
      "inputs": [
        {
          "internalType": "bytes32",
          "name": "role",
          "type": "bytes32"
        },
        {
          "internalType": "address",
          "name": "account",
          "type": "address"
        }
      ],
      "name": "hasRole",
      "outputs": [
        {
          "internalType": "bool",
          "name": "",
          "type": "bool"
        }
      ],
      "stateMutability": "view",
      "type": "function"
    },
    {
      "inputs": [
        {
          "internalType": "address",
          "name": "owner",
          "type": "address"
        },
        {
          "internalType": "address",
          "name": "operator",
          "type": "address"
        }
      ],
      "name": "isApprovedForAll",
      "outputs": [
        {
          "internalType": "bool",
          "name": "",
          "type": "bool"
        }
      ],
      "stateMutability": "view",
      "type": "function"
    },
    {
      "inputs": [
        {
          "internalType": "uint256",
          "name": "",
          "type": "uint256"
        }
      ],
      "name": "itemAmounts",
      "outputs": [
        {
          "internalType": "uint256",
          "name": "",
          "type": "uint256"
        }
      ],
      "stateMutability": "view",
      "type": "function"
    },
    {
      "inputs": [
        {
          "internalType": "uint256",
          "name": "",
          "type": "uint256"
        }
      ],
      "name": "itemSolds",
      "outputs": [
        {
          "internalType": "uint256",
          "name": "",
          "type": "uint256"
        }
      ],
      "stateMutability": "view",
      "type": "function"
    },
    {
      "inputs": [
        {
          "internalType": "uint256",
          "name": "",
          "type": "uint256"
        }
      ],
      "name": "itemURIs",
      "outputs": [
        {
          "internalType": "string",
          "name": "",
          "type": "string"
        }
      ],
      "stateMutability": "view",
      "type": "function"
    },
    {
      "inputs": [],
      "name": "launch",
      "outputs": [
        {
          "internalType": "uint256",
          "name": "",
          "type": "uint256"
        }
      ],
      "stateMutability": "view",
      "type": "function"
    },
    {
      "inputs": [],
      "name": "lockup",
      "outputs": [
        {
          "internalType": "uint256",
          "name": "",
          "type": "uint256"
        }
      ],
      "stateMutability": "view",
      "type": "function"
    },
    {
      "inputs": [
        {
          "internalType": "uint256",
          "name": "",
          "type": "uint256"
        }
      ],
      "name": "mandatory",
      "outputs": [
        {
          "internalType": "address",
          "name": "",
          "type": "address"
        }
      ],
      "stateMutability": "view",
      "type": "function"
    },
    {
      "inputs": [],
      "name": "mysteryBox",
      "outputs": [
        {
          "internalType": "address",
          "name": "",
          "type": "address"
        }
      ],
      "stateMutability": "view",
      "type": "function"
    },
    {
      "inputs": [],
      "name": "name",
      "outputs": [
        {
          "internalType": "string",
          "name": "",
          "type": "string"
        }
      ],
      "stateMutability": "view",
      "type": "function"
    },
    {
      "inputs": [
        {
          "internalType": "address",
          "name": "operator",
          "type": "address"
        },
        {
          "internalType": "address",
          "name": "from",
          "type": "address"
        },
        {
          "internalType": "uint256",
          "name": "tokenId",
          "type": "uint256"
        },
        {
          "internalType": "bytes",
          "name": "data",
          "type": "bytes"
        }
      ],
      "name": "onERC721Received",
      "outputs": [
        {
          "internalType": "bytes4",
          "name": "",
          "type": "bytes4"
        }
      ],
      "stateMutability": "pure",
      "type": "function"
    },
    {
      "inputs": [],
      "name": "owner",
      "outputs": [
        {
          "internalType": "address",
          "name": "",
          "type": "address"
        }
      ],
      "stateMutability": "view",
      "type": "function"
    },
    {
      "inputs": [
        {
          "internalType": "uint256",
          "name": "tokenId",
          "type": "uint256"
        }
      ],
      "name": "ownerOf",
      "outputs": [
        {
          "internalType": "address",
          "name": "",
          "type": "address"
        }
      ],
      "stateMutability": "view",
      "type": "function"
    },
    {
      "inputs": [],
      "name": "pause",
      "outputs": [],
      "stateMutability": "nonpayable",
      "type": "function"
    },
    {
      "inputs": [],
      "name": "paused",
      "outputs": [
        {
          "internalType": "bool",
          "name": "",
          "type": "bool"
        }
      ],
      "stateMutability": "view",
      "type": "function"
    },
    {
      "inputs": [],
      "name": "payment",
      "outputs": [
        {
          "internalType": "address",
          "name": "",
          "type": "address"
        }
      ],
      "stateMutability": "view",
      "type": "function"
    },
    {
      "inputs": [],
      "name": "quote",
      "outputs": [
        {
          "internalType": "address",
          "name": "",
          "type": "address"
        }
      ],
      "stateMutability": "view",
      "type": "function"
    },
    {
      "inputs": [
        {
          "internalType": "string[]",
          "name": "uris",
          "type": "string[]"
        },
        {
          "internalType": "uint256[]",
          "name": "amounts",
          "type": "uint256[]"
        }
      ],
      "name": "registerItems",
      "outputs": [],
      "stateMutability": "nonpayable",
      "type": "function"
    },
    {
      "inputs": [],
      "name": "renounceOwnership",
      "outputs": [],
      "stateMutability": "nonpayable",
      "type": "function"
    },
    {
      "inputs": [
        {
          "internalType": "bytes32",
          "name": "role",
          "type": "bytes32"
        },
        {
          "internalType": "address",
          "name": "account",
          "type": "address"
        }
      ],
      "name": "renounceRole",
      "outputs": [],
      "stateMutability": "nonpayable",
      "type": "function"
    },
    {
      "inputs": [
        {
          "internalType": "bytes32",
          "name": "role",
          "type": "bytes32"
        },
        {
          "internalType": "address",
          "name": "account",
          "type": "address"
        }
      ],
      "name": "revokeRole",
      "outputs": [],
      "stateMutability": "nonpayable",
      "type": "function"
    },
    {
      "inputs": [
        {
          "internalType": "address",
          "name": "to",
          "type": "address"
        },
        {
          "internalType": "string[]",
          "name": "uris",
          "type": "string[]"
        }
      ],
      "name": "safeBatchMint",
      "outputs": [],
      "stateMutability": "view",
      "type": "function"
    },
    {
      "inputs": [
        {
          "internalType": "address",
          "name": "to",
          "type": "address"
        },
        {
          "internalType": "string",
          "name": "uri",
          "type": "string"
        },
        {
          "internalType": "uint256",
          "name": "amount",
          "type": "uint256"
        }
      ],
      "name": "safeBatchMintLight",
      "outputs": [],
      "stateMutability": "nonpayable",
      "type": "function"
    },
    {
      "inputs": [
        {
          "internalType": "address",
          "name": "to",
          "type": "address"
        },
        {
          "internalType": "string",
          "name": "uri",
          "type": "string"
        }
      ],
      "name": "safeMint",
      "outputs": [
        {
          "internalType": "uint256",
          "name": "",
          "type": "uint256"
        }
      ],
      "stateMutability": "view",
      "type": "function"
    },
    {
      "inputs": [
        {
          "internalType": "address",
          "name": "to",
          "type": "address"
        }
      ],
      "name": "safeMintTo",
      "outputs": [],
      "stateMutability": "nonpayable",
      "type": "function"
    },
    {
      "inputs": [
        {
          "internalType": "address",
          "name": "from",
          "type": "address"
        },
        {
          "internalType": "address",
          "name": "to",
          "type": "address"
        },
        {
          "internalType": "uint256",
          "name": "tokenId",
          "type": "uint256"
        }
      ],
      "name": "safeTransferFrom",
      "outputs": [],
      "stateMutability": "nonpayable",
      "type": "function"
    },
    {
      "inputs": [
        {
          "internalType": "address",
          "name": "from",
          "type": "address"
        },
        {
          "internalType": "address",
          "name": "to",
          "type": "address"
        },
        {
          "internalType": "uint256",
          "name": "tokenId",
          "type": "uint256"
        },
        {
          "internalType": "bytes",
          "name": "_data",
          "type": "bytes"
        }
      ],
      "name": "safeTransferFrom",
      "outputs": [],
      "stateMutability": "nonpayable",
      "type": "function"
    },
    {
      "inputs": [
        {
          "internalType": "address",
          "name": "operator",
          "type": "address"
        },
        {
          "internalType": "bool",
          "name": "approved",
          "type": "bool"
        }
      ],
      "name": "setApprovalForAll",
      "outputs": [],
      "stateMutability": "nonpayable",
      "type": "function"
    },
    {
      "inputs": [
        {
          "internalType": "address",
          "name": "_payment",
          "type": "address"
        },
        {
          "internalType": "address",
          "name": "_treasury",
          "type": "address"
        },
        {
          "internalType": "uint256",
          "name": "_feeRate",
          "type": "uint256"
        }
      ],
      "name": "setConfig",
      "outputs": [],
      "stateMutability": "nonpayable",
      "type": "function"
    },
    {
      "inputs": [
        {
          "internalType": "uint256",
          "name": "_hardCap",
          "type": "uint256"
        },
        {
          "internalType": "string",
          "name": "_uri",
          "type": "string"
        }
      ],
      "name": "setHardCap",
      "outputs": [],
      "stateMutability": "nonpayable",
      "type": "function"
    },
    {
      "inputs": [
        {
          "internalType": "uint256",
          "name": "_launch",
          "type": "uint256"
        }
      ],
      "name": "setLaunch",
      "outputs": [],
      "stateMutability": "nonpayable",
      "type": "function"
    },
    {
      "inputs": [
        {
          "internalType": "uint256",
          "name": "_lockup",
          "type": "uint256"
        }
      ],
      "name": "setLockup",
      "outputs": [],
      "stateMutability": "nonpayable",
      "type": "function"
    },
    {
      "inputs": [
        {
          "internalType": "address[]",
          "name": "_nfts",
          "type": "address[]"
        },
        {
          "internalType": "bool",
          "name": "_andOr",
          "type": "bool"
        }
      ],
      "name": "setMandatory",
      "outputs": [],
      "stateMutability": "nonpayable",
      "type": "function"
    },
    {
      "inputs": [
        {
          "internalType": "address",
          "name": "_mbox",
          "type": "address"
        }
      ],
      "name": "setMysteryBox",
      "outputs": [],
      "stateMutability": "nonpayable",
      "type": "function"
    },
    {
      "inputs": [
        {
          "internalType": "address",
          "name": "_quote",
          "type": "address"
        }
      ],
      "name": "setQuote",
      "outputs": [],
      "stateMutability": "nonpayable",
      "type": "function"
    },
    {
      "inputs": [
        {
          "internalType": "bool",
          "name": "_soulbound",
          "type": "bool"
        }
      ],
      "name": "setSoulbound",
      "outputs": [],
      "stateMutability": "nonpayable",
      "type": "function"
    },
    {
      "inputs": [],
      "name": "soulbound",
      "outputs": [
        {
          "internalType": "bool",
          "name": "",
          "type": "bool"
        }
      ],
      "stateMutability": "view",
      "type": "function"
    },
    {
      "inputs": [
        {
          "internalType": "bytes4",
          "name": "interfaceId",
          "type": "bytes4"
        }
      ],
      "name": "supportsInterface",
      "outputs": [
        {
          "internalType": "bool",
          "name": "",
          "type": "bool"
        }
      ],
      "stateMutability": "view",
      "type": "function"
    },
    {
      "inputs": [],
      "name": "symbol",
      "outputs": [
        {
          "internalType": "string",
          "name": "",
          "type": "string"
        }
      ],
      "stateMutability": "view",
      "type": "function"
    },
    {
      "inputs": [
        {
          "internalType": "uint256",
          "name": "index",
          "type": "uint256"
        }
      ],
      "name": "tokenByIndex",
      "outputs": [
        {
          "internalType": "uint256",
          "name": "",
          "type": "uint256"
        }
      ],
      "stateMutability": "view",
      "type": "function"
    },
    {
      "inputs": [
        {
          "internalType": "address",
          "name": "owner",
          "type": "address"
        },
        {
          "internalType": "uint256",
          "name": "index",
          "type": "uint256"
        }
      ],
      "name": "tokenOfOwnerByIndex",
      "outputs": [
        {
          "internalType": "uint256",
          "name": "",
          "type": "uint256"
        }
      ],
      "stateMutability": "view",
      "type": "function"
    },
    {
      "inputs": [
        {
          "internalType": "uint256",
          "name": "tokenId",
          "type": "uint256"
        }
      ],
      "name": "tokenURI",
      "outputs": [
        {
          "internalType": "string",
          "name": "",
          "type": "string"
        }
      ],
      "stateMutability": "view",
      "type": "function"
    },
    {
      "inputs": [],
      "name": "totalItems",
      "outputs": [
        {
          "internalType": "uint256",
          "name": "",
          "type": "uint256"
        }
      ],
      "stateMutability": "view",
      "type": "function"
    },
    {
      "inputs": [],
      "name": "totalSold",
      "outputs": [
        {
          "internalType": "uint256",
          "name": "",
          "type": "uint256"
        }
      ],
      "stateMutability": "view",
      "type": "function"
    },
    {
      "inputs": [],
      "name": "totalSupply",
      "outputs": [
        {
          "internalType": "uint256",
          "name": "",
          "type": "uint256"
        }
      ],
      "stateMutability": "view",
      "type": "function"
    },
    {
      "inputs": [
        {
          "internalType": "address",
          "name": "from",
          "type": "address"
        },
        {
          "internalType": "address",
          "name": "to",
          "type": "address"
        },
        {
          "internalType": "uint256",
          "name": "tokenId",
          "type": "uint256"
        }
      ],
      "name": "transferFrom",
      "outputs": [],
      "stateMutability": "nonpayable",
      "type": "function"
    },
    {
      "inputs": [
        {
          "internalType": "address",
          "name": "newOwner",
          "type": "address"
        }
      ],
      "name": "transferOwnership",
      "outputs": [],
      "stateMutability": "nonpayable",
      "type": "function"
    },
    {
      "inputs": [],
      "name": "treasury",
      "outputs": [
        {
          "internalType": "address",
          "name": "",
          "type": "address"
        }
      ],
      "stateMutability": "view",
      "type": "function"
    },
    {
      "inputs": [],
      "name": "unpause",
      "outputs": [],
      "stateMutability": "nonpayable",
      "type": "function"
    },
    {
      "stateMutability": "payable",
      "type": "receive"
    }
  ],
  "bytecode": "0x60806040526000600d819055601280546001600160a01b03191690556077805460ff1990811690915560788290556079919091556032607e5560828054821690556084805490911690553480156200005657600080fd5b50604051620052a8380380620052a8833981016040819052620000799162000921565b8686818181600090805190602001906200009592919062000742565b508051620000ab90600190602084019062000742565b5050600b805460ff1916905550620000c3336200027a565b620000d0600033620002d4565b620000eb6000805160206200526883398151915233620002d4565b620001066000805160206200528883398151915233620002d4565b505060016011558051600314620001645760405162461bcd60e51b815260206004820152601a60248201527f696e76616c696420636f6e6669672064617461206c656e67746800000000000060448201526064015b60405180910390fd5b62000171600033620002d4565b6200018c6000805160206200526883398151915233620002d4565b620001a76000805160206200528883398151915233620002d4565b620001e181600081518110620001cd57634e487b7160e01b600052603260045260246000fd5b60200260200101516200037960201b60201c565b6200021b816001815181106200020757634e487b7160e01b600052603260045260246000fd5b60200260200101516200040660201b60201c565b620002578484836002815181106200024357634e487b7160e01b600052603260045260246000fd5b60200260200101516200048d60201b60201c565b620002628562000609565b6200026d82620006a9565b5050505050505062000a85565b600b80546001600160a01b03838116610100818102610100600160a81b031985161790945560405193909204169182907f8be0079c531659141344cd1fd0a4f28419497f9722a3daafe3b4186f6b6457e090600090a35050565b6000828152600c602090815260408083206001600160a01b038516845290915290205460ff1662000375576000828152600c602090815260408083206001600160a01b03851684529091529020805460ff19166001179055620003343390565b6001600160a01b0316816001600160a01b0316837f2f8788117e7eff1d82e926ec794901d17c78024a50270940304540a733656f0d60405160405180910390a45b5050565b600b546001600160a01b03610100909104163314620003ca5760405162461bcd60e51b815260206004820181905260248201526000805160206200524883398151915260448201526064016200015b565b607a8190556040518181527f7c8826e4db3679f20c86da0c68d37f9dbcd1d638c56717e014f93c56d14c02d1906020015b60405180910390a150565b600b546001600160a01b03610100909104163314620004575760405162461bcd60e51b815260206004820181905260248201526000805160206200524883398151915260448201526064016200015b565b607b8190556040518181527fa7ade4ab976b6643a971383d9822fb7c2fce66aa2e497d88c3b4f1475ea2b2e090602001620003fb565b600b546001600160a01b03610100909104163314620004de5760405162461bcd60e51b815260206004820181905260248201526000805160206200524883398151915260448201526064016200015b565b6001600160a01b038316620005365760405162461bcd60e51b815260206004820152601760248201527f696e76616c6964207061796d656e74206164647265737300000000000000000060448201526064016200015b565b6001600160a01b0382166200058e5760405162461bcd60e51b815260206004820152601860248201527f696e76616c69642074726561737572792061646472657373000000000000000060448201526064016200015b565b607c80546001600160a01b038581166001600160a01b03199283168117909355607d8054918616919092168117909155607e83905560408051928352602083019190915281018290527fe2be3027f197494650b7a98fd1cae67dacf615bd1d8bb05102999676f11638669060600160405180910390a1505050565b600b546001600160a01b036101009091041633146200065a5760405162461bcd60e51b815260206004820181905260248201526000805160206200524883398151915260448201526064016200015b565b601280546001600160a01b0319166001600160a01b0383169081179091556040519081527fca92c759228172fe3894a344908fd20dfd37ba561b5af191f1f5b02ee03881fc90602001620003fb565b600b546001600160a01b03610100909104163314620006fa5760405162461bcd60e51b815260206004820181905260248201526000805160206200524883398151915260448201526064016200015b565b6077805460ff191682151590811790915560405160ff909116151581527f3686565173a764dcbff6d4a0fc2d3850197c34103ddb438a36f4bfdc3baa376490602001620003fb565b828054620007509062000a32565b90600052602060002090601f016020900481019282620007745760008555620007bf565b82601f106200078f57805160ff1916838001178555620007bf565b82800160010185558215620007bf579182015b82811115620007bf578251825591602001919060010190620007a2565b50620007cd929150620007d1565b5090565b5b80821115620007cd5760008155600101620007d2565b80516001600160a01b03811681146200080057600080fd5b919050565b600082601f83011262000816578081fd5b815160206001600160401b0382111562000834576200083462000a6f565b8160051b62000845828201620009ff565b83815282810190868401838801850189101562000860578687fd5b8693505b858410156200088457805183526001939093019291840191840162000864565b50979650505050505050565b600082601f830112620008a1578081fd5b81516001600160401b03811115620008bd57620008bd62000a6f565b6020620008d3601f8301601f19168201620009ff565b8281528582848701011115620008e7578384fd5b835b8381101562000906578581018301518282018401528201620008e9565b838111156200091757848385840101525b5095945050505050565b600080600080600080600060e0888a0312156200093c578283fd5b87516001600160401b038082111562000953578485fd5b620009618b838c0162000890565b985060208a015191508082111562000977578485fd5b620009858b838c0162000890565b97506200099560408b01620007e8565b9650620009a560608b01620007e8565b9550620009b560808b01620007e8565b945060a08a015191508115158214620009cc578384fd5b60c08a015191935080821115620009e1578283fd5b50620009f08a828b0162000805565b91505092959891949750929550565b604051601f8201601f191681016001600160401b038111828210171562000a2a5762000a2a62000a6f565b604052919050565b600181811c9082168062000a4757607f821691505b6020821081141562000a6957634e487b7160e01b600052602260045260246000fd5b50919050565b634e487b7160e01b600052604160045260246000fd5b6147b38062000a956000396000f3fe6080604052600436106103f35760003560e01c806370a0823111610208578063a2aa61eb11610118578063d3d3224a116100ab578063e63ab1e91161007a578063e63ab1e914610bae578063e985e9c514610bd0578063ec32719614610c19578063f2fde38b14610c39578063fb86a40414610c5957600080fd5b8063d3d3224a14610b37578063d539139314610b4c578063d547741f14610b6e578063df30e54b14610b8e57600080fd5b8063bebc2b52116100e7578063bebc2b5214610ab8578063c38b761c14610ad7578063c87b56dd14610af7578063d204c45e14610b1757600080fd5b8063a2aa61eb14610a38578063b5a87cc114610a58578063b88d4fde14610a78578063b9d6abe914610a9857600080fd5b8063902835f61161019b578063978bbdb91161016a578063978bbdb9146109ad578063983b2d56146109c3578063999b93af146109e3578063a217fddf14610a03578063a22cb46514610a1857600080fd5b8063902835f6146109425780639106d7ba1461096257806391d148541461097857806395d89b411461099857600080fd5b806382dc1ec4116101d757806382dc1ec4146108ca5780638456cb59146108ea5780638a55b866146108ff5780638da5cb5b1461091f57600080fd5b806370a082311461085b578063715018a61461087b5780637b43b82714610890578063809a249e146108b057600080fd5b80632f785908116103035780634f6ccce7116102965780635d814dea116102655780635d814dea146107c65780635dce7383146107e657806361d027b3146107fb5780636352211e1461081b5780636ae6b4591461083b57600080fd5b80634f6ccce71461074e57806358dd6d951461076e5780635c975abb1461078e5780635d1d37c3146107a657600080fd5b806342842e0e116102d257806342842e0e146106d957806342966c68146106f957806342f6487a146107195780634e71d92d1461073957600080fd5b80632f7859081461066457806330c045a81461068457806336568abe146106a45780633f4ba83a146106c457600080fd5b806318160ddd11610386578063244906591161035557806324490659146105be578063248a9ca3146105de5780632799276d1461060e5780632f2ff15d146106245780632f745c591461064457600080fd5b806318160ddd1461054957806321bae9e41461055e578063230a67ee1461057e57806323b872dd1461059e57600080fd5b8063081812fc116103c2578063081812fc14610490578063095ea7b3146104c85780630fad0f51146104ea578063150b7a021461050457600080fd5b806301339c21146103ff57806301ffc9a71461042857806306490f471461045857806306fdde031461046e57600080fd5b366103fa57005b600080fd5b34801561040b57600080fd5b50610415607a5481565b6040519081526020015b60405180910390f35b34801561043457600080fd5b5061044861044336600461427d565b610c6f565b604051901515815260200161041f565b34801561046457600080fd5b50610415607b5481565b34801561047a57600080fd5b50610483610c9a565b60405161041f9190614433565b34801561049c57600080fd5b506104b06104ab366004614243565b610d2c565b6040516001600160a01b03909116815260200161041f565b3480156104d457600080fd5b506104e86104e33660046140c7565b610db9565b005b3480156104f657600080fd5b506077546104489060ff1681565b34801561051057600080fd5b5061053061051f366004613eb1565b630a85bd0160e11b95945050505050565b6040516001600160e01b0319909116815260200161041f565b34801561055557600080fd5b50600854610415565b34801561056a57600080fd5b506104e8610579366004613e2a565b610ecf565b34801561058a57600080fd5b506104e861059936600461416e565b61101c565b3480156105aa57600080fd5b506104e86105b9366004613e76565b6111c8565b3480156105ca57600080fd5b506104e86105d93660046142cd565b6111fa565b3480156105ea57600080fd5b506104156105f9366004614243565b6000908152600c602052604090206001015490565b34801561061a57600080fd5b5061041560785481565b34801561063057600080fd5b506104e861063f36600461425b565b611282565b34801561065057600080fd5b5061041561065f3660046140c7565b6112a7565b34801561067057600080fd5b506104b061067f366004614243565b61133d565b34801561069057600080fd5b506104e861069f3660046142fb565b611367565b3480156106b057600080fd5b506104e86106bf36600461425b565b611681565b3480156106d057600080fd5b506104e86116ff565b3480156106e557600080fd5b506104e86106f4366004613e76565b611722565b34801561070557600080fd5b506104e8610714366004614243565b61173d565b34801561072557600080fd5b50607c546104b0906001600160a01b031681565b34801561074557600080fd5b506104e86117b4565b34801561075a57600080fd5b50610415610769366004614243565b611b30565b34801561077a57600080fd5b506104e8610789366004613fbe565b611bd1565b34801561079a57600080fd5b50600b5460ff16610448565b3480156107b257600080fd5b506104e86107c1366004614243565b611c1c565b3480156107d257600080fd5b506104836107e1366004614243565b611c88565b3480156107f257600080fd5b50610415611d34565b34801561080757600080fd5b50607d546104b0906001600160a01b031681565b34801561082757600080fd5b506104b0610836366004614243565b611dd0565b34801561084757600080fd5b506104e8610856366004614243565b611e47565b34801561086757600080fd5b50610415610876366004613e2a565b611eac565b34801561088757600080fd5b506104e8611f33565b34801561089c57600080fd5b506104e86108ab366004613e2a565b611f6f565b3480156108bc57600080fd5b506084546104489060ff1681565b3480156108d657600080fd5b506104e86108e5366004613e2a565b61200f565b3480156108f657600080fd5b506104e86120b5565b34801561090b57600080fd5b5061041561091a366004614243565b6120d5565b34801561092b57600080fd5b50600b5461010090046001600160a01b03166104b0565b34801561094e57600080fd5b506104e861095d366004613e76565b6120f6565b34801561096e57600080fd5b5061041560795481565b34801561098457600080fd5b5061044861099336600461425b565b61224d565b3480156109a457600080fd5b50610483612278565b3480156109b957600080fd5b50610415607e5481565b3480156109cf57600080fd5b506104e86109de366004613e2a565b612287565b3480156109ef57600080fd5b506012546104b0906001600160a01b031681565b348015610a0f57600080fd5b50610415600081565b348015610a2457600080fd5b506104e8610a33366004614009565b61232d565b348015610a4457600080fd5b506104e8610a53366004613e2a565b612338565b348015610a6457600080fd5b506104e8610a73366004614073565b6123b6565b348015610a8457600080fd5b506104e8610a93366004613f46565b612441565b348015610aa457600080fd5b50610415610ab3366004614243565b612479565b348015610ac457600080fd5b5060845461044890610100900460ff1681565b348015610ae357600080fd5b50600f546104b0906001600160a01b031681565b348015610b0357600080fd5b50610483610b12366004614243565b612489565b348015610b2357600080fd5b50610415610b32366004614032565b612494565b348015610b4357600080fd5b506104836124ae565b348015610b5857600080fd5b5061041560008051602061475e83398151915281565b348015610b7a57600080fd5b506104e8610b8936600461425b565b6124bb565b348015610b9a57600080fd5b506104e8610ba9366004614229565b6124e0565b348015610bba57600080fd5b5061041560008051602061473e83398151915281565b348015610bdc57600080fd5b50610448610beb366004613e44565b6001600160a01b03918216600090815260056020908152604080832093909416825291909152205460ff1690565b348015610c2557600080fd5b506104e8610c343660046140f0565b612557565b348015610c4557600080fd5b506104e8610c54366004613e2a565b61263e565b348015610c6557600080fd5b50610415600d5481565b60006001600160e01b031982166380ac58cd60e01b1480610c945750610c94826126dc565b92915050565b606060008054610ca990614681565b80601f0160208091040260200160405190810160405280929190818152602001828054610cd590614681565b8015610d225780601f10610cf757610100808354040283529160200191610d22565b820191906000526020600020905b815481529060010190602001808311610d0557829003601f168201915b5050505050905090565b6000610d3782612701565b610d9d5760405162461bcd60e51b815260206004820152602c60248201527f4552433732313a20617070726f76656420717565727920666f72206e6f6e657860448201526b34b9ba32b73a103a37b5b2b760a11b60648201526084015b60405180910390fd5b506000908152600460205260409020546001600160a01b031690565b6000610dc482611dd0565b9050806001600160a01b0316836001600160a01b03161415610e325760405162461bcd60e51b815260206004820152602160248201527f4552433732313a20617070726f76616c20746f2063757272656e74206f776e656044820152603960f91b6064820152608401610d94565b336001600160a01b0382161480610e4e5750610e4e8133610beb565b610ec05760405162461bcd60e51b815260206004820152603860248201527f4552433732313a20617070726f76652063616c6c6572206973206e6f74206f7760448201527f6e6572206e6f7220617070726f76656420666f7220616c6c00000000000000006064820152608401610d94565b610eca838361271e565b505050565b60008051602061475e833981519152610ee78161278c565b6000600e8054610ef690614681565b905011610f3d5760405162461bcd60e51b815260206004820152601560248201527411db1bd8985b08155492481a5cc81b9bdd081cd95d605a1b6044820152606401610d94565b6001600160a01b038216610f885760405162461bcd60e51b8152602060048201526012602482015271496e76616c696420746f206164647265737360701b6044820152606401610d94565b610eca82600e8054610f9990614681565b80601f0160208091040260200160405190810160405280929190818152602001828054610fc590614681565b80156110125780601f10610fe757610100808354040283529160200191611012565b820191906000526020600020905b815481529060010190602001808311610ff557829003601f168201915b5050505050612494565b60008051602061475e8339815191526110348161278c565b60825460ff16156110875760405162461bcd60e51b815260206004820152601860248201527f4974656d7320616c7265616479207265676973746572656400000000000000006044820152606401610d94565b81518351146110d05760405162461bcd60e51b8152602060048201526015602482015274082e4e4c2f240d8cadccee8d040dad2e6dac2e8c6d605b1b6044820152606401610d94565b81516110e3906080906020850190613b78565b5082516110f790607f906020860190613bc3565b5060005b83518110156111b55761114083828151811061112757634e487b7160e01b600052603260045260246000fd5b602002602001015160785461279690919063ffffffff16565b6078556111716013826064811061116757634e487b7160e01b600052603260045260246000fd5b0180546001019055565b6081805460018101825560009182527f76fce494794d92ac286b20d6126fc49ecb9cca2fa94b5c726f6ec1109b8914140155806111ad816146b6565b9150506110fb565b50506082805460ff191660011790555050565b6111d3335b826127a9565b6111ef5760405162461bcd60e51b8152600401610d9490614538565b610eca838383612893565b600b546001600160a01b0361010090910416331461122a5760405162461bcd60e51b8152600401610d94906144c2565b600d829055805161124290600e906020840190613c1c565b507f57bbf0b7295e3c8587fe0fa3c76592771f6a96123bf723292fd0e3933436b71f600d5460405161127691815260200190565b60405180910390a15050565b6000828152600c602052604090206001015461129d8161278c565b610eca8383612a3a565b60006112b283611eac565b82106113145760405162461bcd60e51b815260206004820152602b60248201527f455243373231456e756d657261626c653a206f776e657220696e646578206f7560448201526a74206f6620626f756e647360a81b6064820152608401610d94565b506001600160a01b03919091166000908152600660209081526040808320938352929052205490565b6083818154811061134d57600080fd5b6000918252602090912001546001600160a01b0316905081565b607a5442116113b85760405162461bcd60e51b815260206004820152601b60248201527f4e6f7420796574206c61756e63682074696d65207265616368656400000000006044820152606401610d94565b607954607854116113fe5760405162461bcd60e51b815260206004820152601060248201526f185c9a591c9bdc081cdbdb19081bdd5d60821b6044820152606401610d94565b6000805b6080548110156114c4576080818154811061142d57634e487b7160e01b600052603260045260246000fd5b90600052602060002001546081828154811061145957634e487b7160e01b600052603260045260246000fd5b9060005260206000200154106114ae576114a76080828154811061148d57634e487b7160e01b600052603260045260246000fd5b90600052602060002001548361279690919063ffffffff16565b91506114b2565b8094505b806114bc816146b6565b915050611402565b5060005b8381101561167a5760006115056114fe601388606481106114f957634e487b7160e01b600052603260045260246000fd5b015490565b8490612796565b90506115c58482607f898154811061152d57634e487b7160e01b600052603260045260246000fd5b90600052602060002001805461154290614681565b80601f016020809104026020016040519081016040528092919081815260200182805461156e90614681565b80156115bb5780601f10611590576101008083540402835291602001916115bb565b820191906000526020600020905b81548152906001019060200180831161159e57829003601f168201915b5050505050612ac0565b506115ea6013876064811061116757634e487b7160e01b600052603260045260246000fd5b61162960016081888154811061161057634e487b7160e01b600052603260045260246000fd5b906000526020600020015461279690919063ffffffff16565b6081878154811061164a57634e487b7160e01b600052603260045260246000fd5b600091825260209091200155607954611664906001612796565b6079555080611672816146b6565b9150506114c8565b5050505050565b6001600160a01b03811633146116f15760405162461bcd60e51b815260206004820152602f60248201527f416363657373436f6e74726f6c3a2063616e206f6e6c792072656e6f756e636560448201526e103937b632b9903337b91039b2b63360891b6064820152608401610d94565b6116fb8282612ad7565b5050565b60008051602061473e8339815191526117178161278c565b61171f612b3e565b50565b610eca83838360405180602001604052806000815250612441565b611746336111cd565b6117ab5760405162461bcd60e51b815260206004820152603060248201527f4552433732314275726e61626c653a2063616c6c6572206973206e6f74206f7760448201526f1b995c881b9bdc88185c1c1c9bdd995960821b6064820152608401610d94565b61171f81612bd1565b607a5442116118055760405162461bcd60e51b815260206004820152601b60248201527f4e6f7420796574206c61756e63682074696d65207265616368656400000000006044820152606401610d94565b6079546078541161184b5760405162461bcd60e51b815260206004820152601060248201526f185c9a591c9bdc081cdbdb19081bdd5d60821b6044820152606401610d94565b60845460ff161561199f576000805b60835481101561197c5760006083828154811061188757634e487b7160e01b600052603260045260246000fd5b6000918252602090912001546040516370a0823160e01b81523360048201526001600160a01b03909116906370a082319060240160206040518083038186803b1580156118d357600080fd5b505afa1580156118e7573d6000803e3d6000fd5b505050506040513d601f19601f8201168201806040525081019061190b91906142b5565b608454909150610100900460ff1615611950576000811161193e5760405162461bcd60e51b8152600401610d94906144f7565b611949836001612796565b9250611969565b801561196957611961836001612796565b92505061197c565b5080611974816146b6565b91505061185a565b506000811161199d5760405162461bcd60e51b8152600401610d94906144f7565b505b600080805b608054811015611a4c57608081815481106119cf57634e487b7160e01b600052603260045260246000fd5b9060005260206000200154608182815481106119fb57634e487b7160e01b600052603260045260246000fd5b906000526020600020015410611a3657611a2f6080828154811061148d57634e487b7160e01b600052603260045260246000fd5b9150611a3a565b8092505b80611a44816146b6565b9150506119a4565b50611a7b611a74601384606481106114f957634e487b7160e01b600052603260045260246000fd5b8290612796565b9050611aa33382607f858154811061152d57634e487b7160e01b600052603260045260246000fd5b50611ac86013836064811061116757634e487b7160e01b600052603260045260246000fd5b611aee60016081848154811061161057634e487b7160e01b600052603260045260246000fd5b60818381548110611b0f57634e487b7160e01b600052603260045260246000fd5b600091825260209091200155607954611b29906001612796565b6079555050565b6000611b3b60085490565b8210611b9e5760405162461bcd60e51b815260206004820152602c60248201527f455243373231456e756d657261626c653a20676c6f62616c20696e646578206f60448201526b7574206f6620626f756e647360a01b6064820152608401610d94565b60088281548110611bbf57634e487b7160e01b600052603260045260246000fd5b90600052602060002001549050919050565b60008051602061475e833981519152611be98161278c565b60405162461bcd60e51b8152602060048201526008602482015267111a5cd8589b195960c21b6044820152606401610d94565b600b546001600160a01b03610100909104163314611c4c5760405162461bcd60e51b8152600401610d94906144c2565b607a8190556040518181527f7c8826e4db3679f20c86da0c68d37f9dbcd1d638c56717e014f93c56d14c02d1906020015b60405180910390a150565b607f8181548110611c9857600080fd5b906000526020600020016000915090508054611cb390614681565b80601f0160208091040260200160405190810160405280929190818152602001828054611cdf90614681565b8015611d2c5780601f10611d0157610100808354040283529160200191611d2c565b820191906000526020600020905b815481529060010190602001808311611d0f57829003601f168201915b505050505081565b600080805b608054811015611dca57611db6611daf60818381548110611d6a57634e487b7160e01b600052603260045260246000fd5b906000526020600020015460808481548110611d9657634e487b7160e01b600052603260045260246000fd5b9060005260206000200154612bda90919063ffffffff16565b8390612796565b915080611dc2816146b6565b915050611d39565b50919050565b6000818152600260205260408120546001600160a01b031680610c945760405162461bcd60e51b815260206004820152602960248201527f4552433732313a206f776e657220717565727920666f72206e6f6e657869737460448201526832b73a103a37b5b2b760b91b6064820152608401610d94565b600b546001600160a01b03610100909104163314611e775760405162461bcd60e51b8152600401610d94906144c2565b607b8190556040518181527fa7ade4ab976b6643a971383d9822fb7c2fce66aa2e497d88c3b4f1475ea2b2e090602001611c7d565b60006001600160a01b038216611f175760405162461bcd60e51b815260206004820152602a60248201527f4552433732313a2062616c616e636520717565727920666f7220746865207a65604482015269726f206164647265737360b01b6064820152608401610d94565b506001600160a01b031660009081526003602052604090205490565b600b546001600160a01b03610100909104163314611f635760405162461bcd60e51b8152600401610d94906144c2565b611f6d6000612be6565b565b600b546001600160a01b03610100909104163314611f9f5760405162461bcd60e51b8152600401610d94906144c2565b600f80546001600160a01b0319166001600160a01b038316179055611fd260008051602061475e83398151915282612a3a565b600f546040516001600160a01b0390911681527f329b1203fc60a62c4a0fd3ff1554a07f92a2f117cc590422dd105811bb484ded90602001611c7d565b600b546001600160a01b0361010090910416331461203f5760405162461bcd60e51b8152600401610d94906144c2565b61205760008051602061473e83398151915282612a3a565b604080516001600160a01b038316815260208101829052600b918101919091526a5041555345525f524f4c4560a81b60608201527f0578acc86b18d67c13a5e6eed8c670fb7052f530b48a2acb167d6ca77509a38490608001611c7d565b60008051602061473e8339815191526120cd8161278c565b61171f612c40565b608081815481106120e557600080fd5b600091825260209091200154905081565b600b546001600160a01b036101009091041633146121265760405162461bcd60e51b8152600401610d94906144c2565b6001600160a01b03831661217c5760405162461bcd60e51b815260206004820152601760248201527f696e76616c6964207061796d656e7420616464726573730000000000000000006044820152606401610d94565b6001600160a01b0382166121d25760405162461bcd60e51b815260206004820152601860248201527f696e76616c6964207472656173757279206164647265737300000000000000006044820152606401610d94565b607c80546001600160a01b038581166001600160a01b03199283168117909355607d8054918616919092168117909155607e83905560408051928352602083019190915281018290527fe2be3027f197494650b7a98fd1cae67dacf615bd1d8bb05102999676f11638669060600160405180910390a1505050565b6000918252600c602090815260408084206001600160a01b0393909316845291905290205460ff1690565b606060018054610ca990614681565b600b546001600160a01b036101009091041633146122b75760405162461bcd60e51b8152600401610d94906144c2565b6122cf60008051602061475e83398151915282612a3a565b604080516001600160a01b038316815260208101829052600b918101919091526a4d494e5445525f524f4c4560a81b60608201527f0578acc86b18d67c13a5e6eed8c670fb7052f530b48a2acb167d6ca77509a38490608001611c7d565b6116fb338383612c98565b600b546001600160a01b036101009091041633146123685760405162461bcd60e51b8152600401610d94906144c2565b601280546001600160a01b0319166001600160a01b0383169081179091556040519081527fca92c759228172fe3894a344908fd20dfd37ba561b5af191f1f5b02ee03881fc90602001611c7d565b60008051602061475e8339815191526123ce8161278c565b6001600160a01b0384166124195760405162461bcd60e51b8152602060048201526012602482015271496e76616c696420746f206164647265737360701b6044820152606401610d94565b60005b8281101561167a5761242e8585612494565b5080612439816146b6565b91505061241c565b61244b33836127a9565b6124675760405162461bcd60e51b8152600401610d9490614538565b61247384848484612d67565b50505050565b608181815481106120e557600080fd5b6060610c9482612d9a565b600060008051602061475e833981519152611be98161278c565b600e8054611cb390614681565b6000828152600c60205260409020600101546124d68161278c565b610eca8383612ad7565b600b546001600160a01b036101009091041633146125105760405162461bcd60e51b8152600401610d94906144c2565b6077805460ff191682151590811790915560405160ff909116151581527f3686565173a764dcbff6d4a0fc2d3850197c34103ddb438a36f4bfdc3baa376490602001611c7d565b600b546001600160a01b036101009091041633146125875760405162461bcd60e51b8152600401610d94906144c2565b81156126225760005b828110156126135760838484838181106125ba57634e487b7160e01b600052603260045260246000fd5b90506020020160208101906125cf9190613e2a565b81546001810183556000928352602090922090910180546001600160a01b0319166001600160a01b039092169190911790558061260b816146b6565b915050612590565b506084805460ff191660011790555b608480549115156101000261ff00199092169190911790555050565b600b546001600160a01b0361010090910416331461266e5760405162461bcd60e51b8152600401610d94906144c2565b6001600160a01b0381166126d35760405162461bcd60e51b815260206004820152602660248201527f4f776e61626c653a206e6577206f776e657220697320746865207a65726f206160448201526564647265737360d01b6064820152608401610d94565b61171f81612be6565b60006001600160e01b03198216637965db0b60e01b1480610c945750610c9482612f09565b6000908152600260205260409020546001600160a01b0316151590565b600081815260046020526040902080546001600160a01b0319166001600160a01b038416908117909155819061275382611dd0565b6001600160a01b03167f8c5be1e5ebec7d5bd14f71427d1e84f3dd0314c0f7b2291e5b200ac8c7c3b92560405160405180910390a45050565b61171f8133612f2e565b60006127a282846145dc565b9392505050565b60006127b482612701565b6128155760405162461bcd60e51b815260206004820152602c60248201527f4552433732313a206f70657261746f7220717565727920666f72206e6f6e657860448201526b34b9ba32b73a103a37b5b2b760a11b6064820152608401610d94565b600061282083611dd0565b9050806001600160a01b0316846001600160a01b0316148061286757506001600160a01b0380821660009081526005602090815260408083209388168352929052205460ff165b8061288b5750836001600160a01b031661288084610d2c565b6001600160a01b0316145b949350505050565b826001600160a01b03166128a682611dd0565b6001600160a01b03161461290a5760405162461bcd60e51b815260206004820152602560248201527f4552433732313a207472616e736665722066726f6d20696e636f72726563742060448201526437bbb732b960d91b6064820152608401610d94565b6001600160a01b03821661296c5760405162461bcd60e51b8152602060048201526024808201527f4552433732313a207472616e7366657220746f20746865207a65726f206164646044820152637265737360e01b6064820152608401610d94565b612977838383612f92565b61298260008261271e565b6001600160a01b03831660009081526003602052604081208054600192906129ab908490614627565b90915550506001600160a01b03821660009081526003602052604081208054600192906129d99084906145dc565b909155505060008181526002602052604080822080546001600160a01b0319166001600160a01b0386811691821790925591518493918716917fddf252ad1be2c89b69c2b068fc378daa952ba7f163c4a11628f55a4df523b3ef91a4505050565b612a44828261224d565b6116fb576000828152600c602090815260408083206001600160a01b03851684529091529020805460ff19166001179055612a7c3390565b6001600160a01b0316816001600160a01b0316837f2f8788117e7eff1d82e926ec794901d17c78024a50270940304540a733656f0d60405160405180910390a45050565b600080612ace85858561308e565b95945050505050565b612ae1828261224d565b156116fb576000828152600c602090815260408083206001600160a01b0385168085529252808320805460ff1916905551339285917ff6391f5c32d9c69d2a47ea670b442974b53935d1edc7fd64eb21e047a839171b9190a45050565b600b5460ff16612b875760405162461bcd60e51b815260206004820152601460248201527314185d5cd8589b194e881b9bdd081c185d5cd95960621b6044820152606401610d94565b600b805460ff191690557f5db9ee0a495bf2e6ff9c91a7834c1ba4fdd244a5e8aa4e537bd38aeae4b073aa335b6040516001600160a01b03909116815260200160405180910390a1565b61171f816130ac565b60006127a28284614627565b600b80546001600160a01b03838116610100818102610100600160a81b031985161790945560405193909204169182907f8be0079c531659141344cd1fd0a4f28419497f9722a3daafe3b4186f6b6457e090600090a35050565b600b5460ff1615612c635760405162461bcd60e51b8152600401610d9490614498565b600b805460ff191660011790557f62e78cea01bee320cd4e420270b5ea74000d11b0c9f74754ebdbfc544b05a258612bb43390565b816001600160a01b0316836001600160a01b03161415612cfa5760405162461bcd60e51b815260206004820152601960248201527f4552433732313a20617070726f766520746f2063616c6c6572000000000000006044820152606401610d94565b6001600160a01b03838116600081815260056020908152604080832094871680845294825291829020805460ff191686151590811790915591519182527f17307eab39ab6107e8899845ad3d59bd9653f200f220920489ca2b5937696c31910160405180910390a3505050565b612d72848484612893565b612d7e848484846130ec565b6124735760405162461bcd60e51b8152600401610d9490614446565b6060612da582612701565b612e0b5760405162461bcd60e51b815260206004820152603160248201527f45524337323155524953746f726167653a2055524920717565727920666f72206044820152703737b732bc34b9ba32b73a103a37b5b2b760791b6064820152608401610d94565b6000828152600a602052604081208054612e2490614681565b80601f0160208091040260200160405190810160405280929190818152602001828054612e5090614681565b8015612e9d5780601f10612e7257610100808354040283529160200191612e9d565b820191906000526020600020905b815481529060010190602001808311612e8057829003601f168201915b505050505090506000612ebb60408051602081019091526000815290565b9050805160001415612ece575092915050565b815115612f00578082604051602001612ee8929190614352565b60405160208183030381529060405292505050919050565b61288b846131f9565b60006001600160e01b0319821663780e9d6360e01b1480610c945750610c94826132d0565b612f38828261224d565b6116fb57612f50816001600160a01b03166014613320565b612f5b836020613320565b604051602001612f6c929190614381565b60408051601f198184030181529082905262461bcd60e51b8252610d9491600401614433565b600b5460ff1615612fb55760405162461bcd60e51b8152600401610d9490614498565b612fc0838383613501565b60775460ff16151560011415610eca576001600160a01b0382161580159061303d57506040516bffffffffffffffffffffffff19606084901b1660208201527f2737ae3b2bd6d6c72cf8b2980d313b701bc30259538be7ee03f14837058cb838906034016040516020818303038152906040528051906020012014155b801561305157506001600160a01b03831615155b15610eca5760405162461bcd60e51b815260206004820152600d60248201526c1cdbdd5b189bdd5b9908139195609a1b6044820152606401610d94565b600061309a848461352f565b6130a48383613549565b509092915050565b6130b5816135d4565b6000818152600a6020526040902080546130ce90614681565b15905061171f576000818152600a6020526040812061171f91613c8f565b60006001600160a01b0384163b156131ee57604051630a85bd0160e11b81526001600160a01b0385169063150b7a02906131309033908990889088906004016143f6565b602060405180830381600087803b15801561314a57600080fd5b505af192505050801561317a575060408051601f3d908101601f1916820190925261317791810190614299565b60015b6131d4573d8080156131a8576040519150601f19603f3d011682016040523d82523d6000602084013e6131ad565b606091505b5080516131cc5760405162461bcd60e51b8152600401610d9490614446565b805181602001fd5b6001600160e01b031916630a85bd0160e11b14905061288b565b506001949350505050565b606061320482612701565b6132685760405162461bcd60e51b815260206004820152602f60248201527f4552433732314d657461646174613a2055524920717565727920666f72206e6f60448201526e3732bc34b9ba32b73a103a37b5b2b760891b6064820152608401610d94565b600061327f60408051602081019091526000815290565b9050600081511161329f57604051806020016040528060008152506127a2565b806132a98461367b565b6040516020016132ba929190614352565b6040516020818303038152906040529392505050565b60006001600160e01b031982166380ac58cd60e01b148061330157506001600160e01b03198216635b5e139f60e01b145b80610c9457506301ffc9a760e01b6001600160e01b0319831614610c94565b6060600061332f836002614608565b61333a9060026145dc565b6001600160401b0381111561335f57634e487b7160e01b600052604160045260246000fd5b6040519080825280601f01601f191660200182016040528015613389576020820181803683370190505b509050600360fc1b816000815181106133b257634e487b7160e01b600052603260045260246000fd5b60200101906001600160f81b031916908160001a905350600f60fb1b816001815181106133ef57634e487b7160e01b600052603260045260246000fd5b60200101906001600160f81b031916908160001a9053506000613413846002614608565b61341e9060016145dc565b90505b60018111156134b2576f181899199a1a9b1b9c1cb0b131b232b360811b85600f166010811061346057634e487b7160e01b600052603260045260246000fd5b1a60f81b82828151811061348457634e487b7160e01b600052603260045260246000fd5b60200101906001600160f81b031916908160001a90535060049490941c936134ab8161466a565b9050613421565b5083156127a25760405162461bcd60e51b815260206004820181905260248201527f537472696e67733a20686578206c656e67746820696e73756666696369656e746044820152606401610d94565b600b5460ff16156135245760405162461bcd60e51b8152600401610d9490614498565b610eca838383613794565b6116fb82826040518060200160405280600081525061384c565b61355282612701565b6135b55760405162461bcd60e51b815260206004820152602e60248201527f45524337323155524953746f726167653a2055524920736574206f66206e6f6e60448201526d32bc34b9ba32b73a103a37b5b2b760911b6064820152608401610d94565b6000828152600a602090815260409091208251610eca92840190613c1c565b60006135df82611dd0565b90506135ed81600084612f92565b6135f860008361271e565b6001600160a01b0381166000908152600360205260408120805460019290613621908490614627565b909155505060008281526002602052604080822080546001600160a01b0319169055518391906001600160a01b038416907fddf252ad1be2c89b69c2b068fc378daa952ba7f163c4a11628f55a4df523b3ef908390a45050565b60608161369f5750506040805180820190915260018152600360fc1b602082015290565b8160005b81156136c957806136b3816146b6565b91506136c29050600a836145f4565b91506136a3565b6000816001600160401b038111156136f157634e487b7160e01b600052604160045260246000fd5b6040519080825280601f01601f19166020018201604052801561371b576020820181803683370190505b5090505b841561288b57613730600183614627565b915061373d600a866146d1565b6137489060306145dc565b60f81b81838151811061376b57634e487b7160e01b600052603260045260246000fd5b60200101906001600160f81b031916908160001a90535061378d600a866145f4565b945061371f565b6001600160a01b0383166137ef576137ea81600880546000838152600960205260408120829055600182018355919091527ff3f7a9fe364faab93b216da50a3214154f22a0a2b415b23a84c8169e8b636ee30155565b613812565b816001600160a01b0316836001600160a01b03161461381257613812838261387f565b6001600160a01b03821661382957610eca8161391c565b826001600160a01b0316826001600160a01b031614610eca57610eca82826139f5565b6138568383613a39565b61386360008484846130ec565b610eca5760405162461bcd60e51b8152600401610d9490614446565b6000600161388c84611eac565b6138969190614627565b6000838152600760205260409020549091508082146138e9576001600160a01b03841660009081526006602090815260408083208584528252808320548484528184208190558352600790915290208190555b5060009182526007602090815260408084208490556001600160a01b039094168352600681528383209183525290812055565b60085460009061392e90600190614627565b6000838152600960205260408120546008805493945090928490811061396457634e487b7160e01b600052603260045260246000fd5b90600052602060002001549050806008838154811061399357634e487b7160e01b600052603260045260246000fd5b60009182526020808320909101929092558281526009909152604080822084905585825281205560088054806139d957634e487b7160e01b600052603160045260246000fd5b6001900381819060005260206000200160009055905550505050565b6000613a0083611eac565b6001600160a01b039093166000908152600660209081526040808320868452825280832085905593825260079052919091209190915550565b6001600160a01b038216613a8f5760405162461bcd60e51b815260206004820181905260248201527f4552433732313a206d696e7420746f20746865207a65726f20616464726573736044820152606401610d94565b613a9881612701565b15613ae55760405162461bcd60e51b815260206004820152601c60248201527f4552433732313a20746f6b656e20616c7265616479206d696e746564000000006044820152606401610d94565b613af160008383612f92565b6001600160a01b0382166000908152600360205260408120805460019290613b1a9084906145dc565b909155505060008181526002602052604080822080546001600160a01b0319166001600160a01b03861690811790915590518392907fddf252ad1be2c89b69c2b068fc378daa952ba7f163c4a11628f55a4df523b3ef908290a45050565b828054828255906000526020600020908101928215613bb3579160200282015b82811115613bb3578251825591602001919060010190613b98565b50613bbf929150613cc5565b5090565b828054828255906000526020600020908101928215613c10579160200282015b82811115613c105782518051613c00918491602090910190613c1c565b5091602001919060010190613be3565b50613bbf929150613cda565b828054613c2890614681565b90600052602060002090601f016020900481019282613c4a5760008555613bb3565b82601f10613c6357805160ff1916838001178555613bb3565b82800160010185558215613bb35791820182811115613bb3578251825591602001919060010190613b98565b508054613c9b90614681565b6000825580601f10613cab575050565b601f01602090049060005260206000209081019061171f91905b5b80821115613bbf5760008155600101613cc6565b80821115613bbf576000613cee8282613c8f565b50600101613cda565b60006001600160401b03831115613d1057613d10614711565b613d23601f8401601f1916602001614589565b9050828152838383011115613d3757600080fd5b828260208301376000602084830101529392505050565b80356001600160a01b0381168114613d6557600080fd5b919050565b600082601f830112613d7a578081fd5b81356020613d8f613d8a836145b9565b614589565b80838252828201915082860187848660051b8901011115613dae578586fd5b855b85811015613dee5781356001600160401b03811115613dcd578788fd5b613ddb8a87838c0101613e0b565b8552509284019290840190600101613db0565b5090979650505050505050565b80358015158114613d6557600080fd5b600082601f830112613e1b578081fd5b6127a283833560208501613cf7565b600060208284031215613e3b578081fd5b6127a282613d4e565b60008060408385031215613e56578081fd5b613e5f83613d4e565b9150613e6d60208401613d4e565b90509250929050565b600080600060608486031215613e8a578081fd5b613e9384613d4e565b9250613ea160208501613d4e565b9150604084013590509250925092565b600080600080600060808688031215613ec8578081fd5b613ed186613d4e565b9450613edf60208701613d4e565b93506040860135925060608601356001600160401b0380821115613f01578283fd5b818801915088601f830112613f14578283fd5b813581811115613f22578384fd5b896020828501011115613f33578384fd5b9699959850939650602001949392505050565b60008060008060808587031215613f5b578384fd5b613f6485613d4e565b9350613f7260208601613d4e565b92506040850135915060608501356001600160401b03811115613f93578182fd5b8501601f81018713613fa3578182fd5b613fb287823560208401613cf7565b91505092959194509250565b60008060408385031215613fd0578182fd5b613fd983613d4e565b915060208301356001600160401b03811115613ff3578182fd5b613fff85828601613d6a565b9150509250929050565b6000806040838503121561401b578182fd5b61402483613d4e565b9150613e6d60208401613dfb565b60008060408385031215614044578182fd5b61404d83613d4e565b915060208301356001600160401b03811115614067578182fd5b613fff85828601613e0b565b600080600060608486031215614087578081fd5b61409084613d4e565b925060208401356001600160401b038111156140aa578182fd5b6140b686828701613e0b565b925050604084013590509250925092565b600080604083850312156140d9578182fd5b6140e283613d4e565b946020939093013593505050565b600080600060408486031215614104578081fd5b83356001600160401b038082111561411a578283fd5b818601915086601f83011261412d578283fd5b81358181111561413b578384fd5b8760208260051b850101111561414f578384fd5b6020928301955093506141659186019050613dfb565b90509250925092565b60008060408385031215614180578182fd5b82356001600160401b0380821115614196578384fd5b6141a286838701613d6a565b93506020915081850135818111156141b8578384fd5b85019050601f810186136141ca578283fd5b80356141d8613d8a826145b9565b80828252848201915084840189868560051b87010111156141f7578687fd5b8694505b838510156142195780358352600194909401939185019185016141fb565b5080955050505050509250929050565b60006020828403121561423a578081fd5b6127a282613dfb565b600060208284031215614254578081fd5b5035919050565b6000806040838503121561426d578182fd5b82359150613e6d60208401613d4e565b60006020828403121561428e578081fd5b81356127a281614727565b6000602082840312156142aa578081fd5b81516127a281614727565b6000602082840312156142c6578081fd5b5051919050565b600080604083850312156142df578182fd5b8235915060208301356001600160401b03811115614067578182fd5b60008060006060848603121561430f578081fd5b833592506020840135915061416560408501613d4e565b6000815180845261433e81602086016020860161463e565b601f01601f19169290920160200192915050565b6000835161436481846020880161463e565b83519083019061437881836020880161463e565b01949350505050565b7f416363657373436f6e74726f6c3a206163636f756e74200000000000000000008152600083516143b981601785016020880161463e565b7001034b99036b4b9b9b4b733903937b6329607d1b60179184019182015283516143ea81602884016020880161463e565b01602801949350505050565b6001600160a01b038581168252841660208201526040810183905260806060820181905260009061442990830184614326565b9695505050505050565b6020815260006127a26020830184614326565b60208082526032908201527f4552433732313a207472616e7366657220746f206e6f6e20455243373231526560408201527131b2b4bb32b91034b6b83632b6b2b73a32b960711b606082015260800190565b60208082526010908201526f14185d5cd8589b194e881c185d5cd95960821b604082015260600190565b6020808252818101527f4f776e61626c653a2063616c6c6572206973206e6f7420746865206f776e6572604082015260600190565b60208082526021908201527f73686f756c642062757920616c6c20636f6c6c656374696f6e73206265666f726040820152606560f81b606082015260800190565b60208082526031908201527f4552433732313a207472616e736665722063616c6c6572206973206e6f74206f6040820152701ddb995c881b9bdc88185c1c1c9bdd9959607a1b606082015260800190565b604051601f8201601f191681016001600160401b03811182821017156145b1576145b1614711565b604052919050565b60006001600160401b038211156145d2576145d2614711565b5060051b60200190565b600082198211156145ef576145ef6146e5565b500190565b600082614603576146036146fb565b500490565b6000816000190483118215151615614622576146226146e5565b500290565b600082821015614639576146396146e5565b500390565b60005b83811015614659578181015183820152602001614641565b838111156124735750506000910152565b600081614679576146796146e5565b506000190190565b600181811c9082168061469557607f821691505b60208210811415611dca57634e487b7160e01b600052602260045260246000fd5b60006000198214156146ca576146ca6146e5565b5060010190565b6000826146e0576146e06146fb565b500690565b634e487b7160e01b600052601160045260246000fd5b634e487b7160e01b600052601260045260246000fd5b634e487b7160e01b600052604160045260246000fd5b6001600160e01b03198116811461171f57600080fdfe65d7a28e3265b37a6474929f336521b332c1681b933f6cb9f3376673440d862a9f2df0fed2c77648de5860a4cc508cd0818c85b8b8a1ab4ceeef8d981c8956a6a2646970667358221220b8ef35cfe21268f83a3d63b694283ab554e94a278785c01d8ebcddd1492ce59864736f6c634300080400334f776e61626c653a2063616c6c6572206973206e6f7420746865206f776e657265d7a28e3265b37a6474929f336521b332c1681b933f6cb9f3376673440d862a9f2df0fed2c77648de5860a4cc508cd0818c85b8b8a1ab4ceeef8d981c8956a6",
  "linkReferences": {},
  "deployedLinkReferences": {}
}