{
  "_format": "hh-sol-artifact-1",
  "contractName": "AirDrop",
  "sourceName": "contracts/AirDrop.sol",
  "abi": [
    {
      "inputs": [
        {
          "internalType": "string",
          "name": "name",
          "type": "string"
        },
        {
          "internalType": "string",
          "name": "symbol",
          "type": "string"
        },
        {
          "internalType": "address",
          "name": "_quote",
          "type": "address"
        },
        {
          "internalType": "address",
          "name": "_payment",
          "type": "address"
        },
        {
          "internalType": "address",
          "name": "_treasury",
          "type": "address"
        },
        {
          "internalType": "uint256[]",
          "name": "configValues",
          "type": "uint256[]"
        }
      ],
      "stateMutability": "nonpayable",
      "type": "constructor"
    },
    {
      "anonymous": false,
      "inputs": [
        {
          "indexed": true,
          "internalType": "address",
          "name": "owner",
          "type": "address"
        },
        {
          "indexed": true,
          "internalType": "address",
          "name": "approved",
          "type": "address"
        },
        {
          "indexed": true,
          "internalType": "uint256",
          "name": "tokenId",
          "type": "uint256"
        }
      ],
      "name": "Approval",
      "type": "event"
    },
    {
      "anonymous": false,
      "inputs": [
        {
          "indexed": true,
          "internalType": "address",
          "name": "owner",
          "type": "address"
        },
        {
          "indexed": true,
          "internalType": "address",
          "name": "operator",
          "type": "address"
        },
        {
          "indexed": false,
          "internalType": "bool",
          "name": "approved",
          "type": "bool"
        }
      ],
      "name": "ApprovalForAll",
      "type": "event"
    },
    {
      "anonymous": false,
      "inputs": [
        {
          "indexed": false,
          "internalType": "address",
          "name": "",
          "type": "address"
        },
        {
          "indexed": false,
          "internalType": "string",
          "name": "",
          "type": "string"
        }
      ],
      "name": "Grant",
      "type": "event"
    },
    {
      "anonymous": false,
      "inputs": [
        {
          "indexed": true,
          "internalType": "address",
          "name": "previousOwner",
          "type": "address"
        },
        {
          "indexed": true,
          "internalType": "address",
          "name": "newOwner",
          "type": "address"
        }
      ],
      "name": "OwnershipTransferred",
      "type": "event"
    },
    {
      "anonymous": false,
      "inputs": [
        {
          "indexed": false,
          "internalType": "address",
          "name": "account",
          "type": "address"
        }
      ],
      "name": "Paused",
      "type": "event"
    },
    {
      "anonymous": false,
      "inputs": [
        {
          "indexed": true,
          "internalType": "bytes32",
          "name": "role",
          "type": "bytes32"
        },
        {
          "indexed": true,
          "internalType": "bytes32",
          "name": "previousAdminRole",
          "type": "bytes32"
        },
        {
          "indexed": true,
          "internalType": "bytes32",
          "name": "newAdminRole",
          "type": "bytes32"
        }
      ],
      "name": "RoleAdminChanged",
      "type": "event"
    },
    {
      "anonymous": false,
      "inputs": [
        {
          "indexed": true,
          "internalType": "bytes32",
          "name": "role",
          "type": "bytes32"
        },
        {
          "indexed": true,
          "internalType": "address",
          "name": "account",
          "type": "address"
        },
        {
          "indexed": true,
          "internalType": "address",
          "name": "sender",
          "type": "address"
        }
      ],
      "name": "RoleGranted",
      "type": "event"
    },
    {
      "anonymous": false,
      "inputs": [
        {
          "indexed": true,
          "internalType": "bytes32",
          "name": "role",
          "type": "bytes32"
        },
        {
          "indexed": true,
          "internalType": "address",
          "name": "account",
          "type": "address"
        },
        {
          "indexed": true,
          "internalType": "address",
          "name": "sender",
          "type": "address"
        }
      ],
      "name": "RoleRevoked",
      "type": "event"
    },
    {
      "anonymous": false,
      "inputs": [
        {
          "indexed": false,
          "internalType": "address",
          "name": "",
          "type": "address"
        },
        {
          "indexed": false,
          "internalType": "address",
          "name": "",
          "type": "address"
        },
        {
          "indexed": false,
          "internalType": "uint256",
          "name": "",
          "type": "uint256"
        }
      ],
      "name": "SetConfig",
      "type": "event"
    },
    {
      "anonymous": false,
      "inputs": [
        {
          "indexed": false,
          "internalType": "uint256",
          "name": "",
          "type": "uint256"
        }
      ],
      "name": "SetHardCap",
      "type": "event"
    },
    {
      "anonymous": false,
      "inputs": [
        {
          "indexed": false,
          "internalType": "uint256",
          "name": "",
          "type": "uint256"
        }
      ],
      "name": "SetLaunch",
      "type": "event"
    },
    {
      "anonymous": false,
      "inputs": [
        {
          "indexed": false,
          "internalType": "uint256",
          "name": "",
          "type": "uint256"
        }
      ],
      "name": "SetLockup",
      "type": "event"
    },
    {
      "anonymous": false,
      "inputs": [
        {
          "indexed": false,
          "internalType": "address",
          "name": "",
          "type": "address"
        }
      ],
      "name": "SetMysteryBox",
      "type": "event"
    },
    {
      "anonymous": false,
      "inputs": [
        {
          "indexed": false,
          "internalType": "address",
          "name": "",
          "type": "address"
        }
      ],
      "name": "SetQuote",
      "type": "event"
    },
    {
      "anonymous": false,
      "inputs": [
        {
          "indexed": true,
          "internalType": "address",
          "name": "from",
          "type": "address"
        },
        {
          "indexed": true,
          "internalType": "address",
          "name": "to",
          "type": "address"
        },
        {
          "indexed": true,
          "internalType": "uint256",
          "name": "tokenId",
          "type": "uint256"
        }
      ],
      "name": "Transfer",
      "type": "event"
    },
    {
      "anonymous": false,
      "inputs": [
        {
          "indexed": false,
          "internalType": "address",
          "name": "account",
          "type": "address"
        }
      ],
      "name": "Unpaused",
      "type": "event"
    },
    {
      "inputs": [],
      "name": "DEFAULT_ADMIN_ROLE",
      "outputs": [
        {
          "internalType": "bytes32",
          "name": "",
          "type": "bytes32"
        }
      ],
      "stateMutability": "view",
      "type": "function"
    },
    {
      "inputs": [],
      "name": "MINTER_ROLE",
      "outputs": [
        {
          "internalType": "bytes32",
          "name": "",
          "type": "bytes32"
        }
      ],
      "stateMutability": "view",
      "type": "function"
    },
    {
      "inputs": [],
      "name": "PAUSER_ROLE",
      "outputs": [
        {
          "internalType": "bytes32",
          "name": "",
          "type": "bytes32"
        }
      ],
      "stateMutability": "view",
      "type": "function"
    },
    {
      "inputs": [
        {
          "internalType": "address",
          "name": "minter",
          "type": "address"
        }
      ],
      "name": "addMinter",
      "outputs": [],
      "stateMutability": "nonpayable",
      "type": "function"
    },
    {
      "inputs": [
        {
          "internalType": "address",
          "name": "pauser",
          "type": "address"
        }
      ],
      "name": "addPauser",
      "outputs": [],
      "stateMutability": "nonpayable",
      "type": "function"
    },
    {
      "inputs": [],
      "name": "andOr",
      "outputs": [
        {
          "internalType": "bool",
          "name": "",
          "type": "bool"
        }
      ],
      "stateMutability": "view",
      "type": "function"
    },
    {
      "inputs": [
        {
          "internalType": "address",
          "name": "to",
          "type": "address"
        },
        {
          "internalType": "uint256",
          "name": "tokenId",
          "type": "uint256"
        }
      ],
      "name": "approve",
      "outputs": [],
      "stateMutability": "nonpayable",
      "type": "function"
    },
    {
      "inputs": [
        {
          "internalType": "address",
          "name": "owner",
          "type": "address"
        }
      ],
      "name": "balanceOf",
      "outputs": [
        {
          "internalType": "uint256",
          "name": "",
          "type": "uint256"
        }
      ],
      "stateMutability": "view",
      "type": "function"
    },
    {
      "inputs": [
        {
          "internalType": "uint256",
          "name": "tokenId",
          "type": "uint256"
        }
      ],
      "name": "burn",
      "outputs": [],
      "stateMutability": "nonpayable",
      "type": "function"
    },
    {
      "inputs": [],
      "name": "claim",
      "outputs": [],
      "stateMutability": "nonpayable",
      "type": "function"
    },
    {
      "inputs": [],
      "name": "feeRate",
      "outputs": [
        {
          "internalType": "uint256",
          "name": "",
          "type": "uint256"
        }
      ],
      "stateMutability": "view",
      "type": "function"
    },
    {
      "inputs": [
        {
          "internalType": "uint256",
          "name": "tokenId",
          "type": "uint256"
        }
      ],
      "name": "getApproved",
      "outputs": [
        {
          "internalType": "address",
          "name": "",
          "type": "address"
        }
      ],
      "stateMutability": "view",
      "type": "function"
    },
    {
      "inputs": [],
      "name": "getItemRemains",
      "outputs": [
        {
          "internalType": "uint256",
          "name": "",
          "type": "uint256"
        }
      ],
      "stateMutability": "view",
      "type": "function"
    },
    {
      "inputs": [
        {
          "internalType": "bytes32",
          "name": "role",
          "type": "bytes32"
        }
      ],
      "name": "getRoleAdmin",
      "outputs": [
        {
          "internalType": "bytes32",
          "name": "",
          "type": "bytes32"
        }
      ],
      "stateMutability": "view",
      "type": "function"
    },
    {
      "inputs": [],
      "name": "globalURI",
      "outputs": [
        {
          "internalType": "string",
          "name": "",
          "type": "string"
        }
      ],
      "stateMutability": "view",
      "type": "function"
    },
    {
      "inputs": [
        {
          "internalType": "bytes32",
          "name": "role",
          "type": "bytes32"
        },
        {
          "internalType": "address",
          "name": "account",
          "type": "address"
        }
      ],
      "name": "grantRole",
      "outputs": [],
      "stateMutability": "nonpayable",
      "type": "function"
    },
    {
      "inputs": [],
      "name": "hardCap",
      "outputs": [
        {
          "internalType": "uint256",
          "name": "",
          "type": "uint256"
        }
      ],
      "stateMutability": "view",
      "type": "function"
    },
    {
      "inputs": [
        {
          "internalType": "bytes32",
          "name": "role",
          "type": "bytes32"
        },
        {
          "internalType": "address",
          "name": "account",
          "type": "address"
        }
      ],
      "name": "hasRole",
      "outputs": [
        {
          "internalType": "bool",
          "name": "",
          "type": "bool"
        }
      ],
      "stateMutability": "view",
      "type": "function"
    },
    {
      "inputs": [
        {
          "internalType": "address",
          "name": "owner",
          "type": "address"
        },
        {
          "internalType": "address",
          "name": "operator",
          "type": "address"
        }
      ],
      "name": "isApprovedForAll",
      "outputs": [
        {
          "internalType": "bool",
          "name": "",
          "type": "bool"
        }
      ],
      "stateMutability": "view",
      "type": "function"
    },
    {
      "inputs": [
        {
          "internalType": "uint256",
          "name": "",
          "type": "uint256"
        }
      ],
      "name": "itemAmounts",
      "outputs": [
        {
          "internalType": "uint256",
          "name": "",
          "type": "uint256"
        }
      ],
      "stateMutability": "view",
      "type": "function"
    },
    {
      "inputs": [
        {
          "internalType": "uint256",
          "name": "",
          "type": "uint256"
        }
      ],
      "name": "itemSolds",
      "outputs": [
        {
          "internalType": "uint256",
          "name": "",
          "type": "uint256"
        }
      ],
      "stateMutability": "view",
      "type": "function"
    },
    {
      "inputs": [
        {
          "internalType": "uint256",
          "name": "",
          "type": "uint256"
        }
      ],
      "name": "itemURIs",
      "outputs": [
        {
          "internalType": "string",
          "name": "",
          "type": "string"
        }
      ],
      "stateMutability": "view",
      "type": "function"
    },
    {
      "inputs": [],
      "name": "launch",
      "outputs": [
        {
          "internalType": "uint256",
          "name": "",
          "type": "uint256"
        }
      ],
      "stateMutability": "view",
      "type": "function"
    },
    {
      "inputs": [],
      "name": "lockup",
      "outputs": [
        {
          "internalType": "uint256",
          "name": "",
          "type": "uint256"
        }
      ],
      "stateMutability": "view",
      "type": "function"
    },
    {
      "inputs": [
        {
          "internalType": "uint256",
          "name": "",
          "type": "uint256"
        }
      ],
      "name": "mandatory",
      "outputs": [
        {
          "internalType": "address",
          "name": "",
          "type": "address"
        }
      ],
      "stateMutability": "view",
      "type": "function"
    },
    {
      "inputs": [],
      "name": "mysteryBox",
      "outputs": [
        {
          "internalType": "address",
          "name": "",
          "type": "address"
        }
      ],
      "stateMutability": "view",
      "type": "function"
    },
    {
      "inputs": [],
      "name": "name",
      "outputs": [
        {
          "internalType": "string",
          "name": "",
          "type": "string"
        }
      ],
      "stateMutability": "view",
      "type": "function"
    },
    {
      "inputs": [
        {
          "internalType": "address",
          "name": "operator",
          "type": "address"
        },
        {
          "internalType": "address",
          "name": "from",
          "type": "address"
        },
        {
          "internalType": "uint256",
          "name": "tokenId",
          "type": "uint256"
        },
        {
          "internalType": "bytes",
          "name": "data",
          "type": "bytes"
        }
      ],
      "name": "onERC721Received",
      "outputs": [
        {
          "internalType": "bytes4",
          "name": "",
          "type": "bytes4"
        }
      ],
      "stateMutability": "pure",
      "type": "function"
    },
    {
      "inputs": [],
      "name": "owner",
      "outputs": [
        {
          "internalType": "address",
          "name": "",
          "type": "address"
        }
      ],
      "stateMutability": "view",
      "type": "function"
    },
    {
      "inputs": [
        {
          "internalType": "uint256",
          "name": "tokenId",
          "type": "uint256"
        }
      ],
      "name": "ownerOf",
      "outputs": [
        {
          "internalType": "address",
          "name": "",
          "type": "address"
        }
      ],
      "stateMutability": "view",
      "type": "function"
    },
    {
      "inputs": [],
      "name": "pause",
      "outputs": [],
      "stateMutability": "nonpayable",
      "type": "function"
    },
    {
      "inputs": [],
      "name": "paused",
      "outputs": [
        {
          "internalType": "bool",
          "name": "",
          "type": "bool"
        }
      ],
      "stateMutability": "view",
      "type": "function"
    },
    {
      "inputs": [],
      "name": "payment",
      "outputs": [
        {
          "internalType": "address",
          "name": "",
          "type": "address"
        }
      ],
      "stateMutability": "view",
      "type": "function"
    },
    {
      "inputs": [],
      "name": "quote",
      "outputs": [
        {
          "internalType": "address",
          "name": "",
          "type": "address"
        }
      ],
      "stateMutability": "view",
      "type": "function"
    },
    {
      "inputs": [
        {
          "internalType": "string[]",
          "name": "uris",
          "type": "string[]"
        },
        {
          "internalType": "uint256[]",
          "name": "amounts",
          "type": "uint256[]"
        }
      ],
      "name": "registerItems",
      "outputs": [],
      "stateMutability": "nonpayable",
      "type": "function"
    },
    {
      "inputs": [],
      "name": "renounceOwnership",
      "outputs": [],
      "stateMutability": "nonpayable",
      "type": "function"
    },
    {
      "inputs": [
        {
          "internalType": "bytes32",
          "name": "role",
          "type": "bytes32"
        },
        {
          "internalType": "address",
          "name": "account",
          "type": "address"
        }
      ],
      "name": "renounceRole",
      "outputs": [],
      "stateMutability": "nonpayable",
      "type": "function"
    },
    {
      "inputs": [
        {
          "internalType": "bytes32",
          "name": "role",
          "type": "bytes32"
        },
        {
          "internalType": "address",
          "name": "account",
          "type": "address"
        }
      ],
      "name": "revokeRole",
      "outputs": [],
      "stateMutability": "nonpayable",
      "type": "function"
    },
    {
      "inputs": [
        {
          "internalType": "address",
          "name": "to",
          "type": "address"
        },
        {
          "internalType": "string[]",
          "name": "uris",
          "type": "string[]"
        }
      ],
      "name": "safeBatchMint",
      "outputs": [],
      "stateMutability": "view",
      "type": "function"
    },
    {
      "inputs": [
        {
          "internalType": "address",
          "name": "to",
          "type": "address"
        },
        {
          "internalType": "string",
          "name": "uri",
          "type": "string"
        },
        {
          "internalType": "uint256",
          "name": "amount",
          "type": "uint256"
        }
      ],
      "name": "safeBatchMintLight",
      "outputs": [],
      "stateMutability": "nonpayable",
      "type": "function"
    },
    {
      "inputs": [
        {
          "internalType": "address",
          "name": "to",
          "type": "address"
        },
        {
          "internalType": "string",
          "name": "uri",
          "type": "string"
        }
      ],
      "name": "safeMint",
      "outputs": [
        {
          "internalType": "uint256",
          "name": "",
          "type": "uint256"
        }
      ],
      "stateMutability": "view",
      "type": "function"
    },
    {
      "inputs": [
        {
          "internalType": "address",
          "name": "to",
          "type": "address"
        }
      ],
      "name": "safeMintTo",
      "outputs": [],
      "stateMutability": "nonpayable",
      "type": "function"
    },
    {
      "inputs": [
        {
          "internalType": "address",
          "name": "from",
          "type": "address"
        },
        {
          "internalType": "address",
          "name": "to",
          "type": "address"
        },
        {
          "internalType": "uint256",
          "name": "tokenId",
          "type": "uint256"
        }
      ],
      "name": "safeTransferFrom",
      "outputs": [],
      "stateMutability": "nonpayable",
      "type": "function"
    },
    {
      "inputs": [
        {
          "internalType": "address",
          "name": "from",
          "type": "address"
        },
        {
          "internalType": "address",
          "name": "to",
          "type": "address"
        },
        {
          "internalType": "uint256",
          "name": "tokenId",
          "type": "uint256"
        },
        {
          "internalType": "bytes",
          "name": "_data",
          "type": "bytes"
        }
      ],
      "name": "safeTransferFrom",
      "outputs": [],
      "stateMutability": "nonpayable",
      "type": "function"
    },
    {
      "inputs": [
        {
          "internalType": "address",
          "name": "operator",
          "type": "address"
        },
        {
          "internalType": "bool",
          "name": "approved",
          "type": "bool"
        }
      ],
      "name": "setApprovalForAll",
      "outputs": [],
      "stateMutability": "nonpayable",
      "type": "function"
    },
    {
      "inputs": [
        {
          "internalType": "address",
          "name": "_payment",
          "type": "address"
        },
        {
          "internalType": "address",
          "name": "_treasury",
          "type": "address"
        },
        {
          "internalType": "uint256",
          "name": "_feeRate",
          "type": "uint256"
        }
      ],
      "name": "setConfig",
      "outputs": [],
      "stateMutability": "nonpayable",
      "type": "function"
    },
    {
      "inputs": [
        {
          "internalType": "uint256",
          "name": "_hardCap",
          "type": "uint256"
        },
        {
          "internalType": "string",
          "name": "_uri",
          "type": "string"
        }
      ],
      "name": "setHardCap",
      "outputs": [],
      "stateMutability": "nonpayable",
      "type": "function"
    },
    {
      "inputs": [
        {
          "internalType": "uint256",
          "name": "_launch",
          "type": "uint256"
        }
      ],
      "name": "setLaunch",
      "outputs": [],
      "stateMutability": "nonpayable",
      "type": "function"
    },
    {
      "inputs": [
        {
          "internalType": "uint256",
          "name": "_lockup",
          "type": "uint256"
        }
      ],
      "name": "setLockup",
      "outputs": [],
      "stateMutability": "nonpayable",
      "type": "function"
    },
    {
      "inputs": [
        {
          "internalType": "address[]",
          "name": "_nfts",
          "type": "address[]"
        },
        {
          "internalType": "bool",
          "name": "_andOr",
          "type": "bool"
        }
      ],
      "name": "setMandatory",
      "outputs": [],
      "stateMutability": "nonpayable",
      "type": "function"
    },
    {
      "inputs": [
        {
          "internalType": "address",
          "name": "_mbox",
          "type": "address"
        }
      ],
      "name": "setMysteryBox",
      "outputs": [],
      "stateMutability": "nonpayable",
      "type": "function"
    },
    {
      "inputs": [
        {
          "internalType": "address",
          "name": "_quote",
          "type": "address"
        }
      ],
      "name": "setQuote",
      "outputs": [],
      "stateMutability": "nonpayable",
      "type": "function"
    },
    {
      "inputs": [
        {
          "internalType": "bytes4",
          "name": "interfaceId",
          "type": "bytes4"
        }
      ],
      "name": "supportsInterface",
      "outputs": [
        {
          "internalType": "bool",
          "name": "",
          "type": "bool"
        }
      ],
      "stateMutability": "view",
      "type": "function"
    },
    {
      "inputs": [],
      "name": "symbol",
      "outputs": [
        {
          "internalType": "string",
          "name": "",
          "type": "string"
        }
      ],
      "stateMutability": "view",
      "type": "function"
    },
    {
      "inputs": [
        {
          "internalType": "uint256",
          "name": "index",
          "type": "uint256"
        }
      ],
      "name": "tokenByIndex",
      "outputs": [
        {
          "internalType": "uint256",
          "name": "",
          "type": "uint256"
        }
      ],
      "stateMutability": "view",
      "type": "function"
    },
    {
      "inputs": [
        {
          "internalType": "address",
          "name": "owner",
          "type": "address"
        },
        {
          "internalType": "uint256",
          "name": "index",
          "type": "uint256"
        }
      ],
      "name": "tokenOfOwnerByIndex",
      "outputs": [
        {
          "internalType": "uint256",
          "name": "",
          "type": "uint256"
        }
      ],
      "stateMutability": "view",
      "type": "function"
    },
    {
      "inputs": [
        {
          "internalType": "uint256",
          "name": "tokenId",
          "type": "uint256"
        }
      ],
      "name": "tokenURI",
      "outputs": [
        {
          "internalType": "string",
          "name": "",
          "type": "string"
        }
      ],
      "stateMutability": "view",
      "type": "function"
    },
    {
      "inputs": [],
      "name": "totalItems",
      "outputs": [
        {
          "internalType": "uint256",
          "name": "",
          "type": "uint256"
        }
      ],
      "stateMutability": "view",
      "type": "function"
    },
    {
      "inputs": [],
      "name": "totalSold",
      "outputs": [
        {
          "internalType": "uint256",
          "name": "",
          "type": "uint256"
        }
      ],
      "stateMutability": "view",
      "type": "function"
    },
    {
      "inputs": [],
      "name": "totalSupply",
      "outputs": [
        {
          "internalType": "uint256",
          "name": "",
          "type": "uint256"
        }
      ],
      "stateMutability": "view",
      "type": "function"
    },
    {
      "inputs": [
        {
          "internalType": "address",
          "name": "from",
          "type": "address"
        },
        {
          "internalType": "address",
          "name": "to",
          "type": "address"
        },
        {
          "internalType": "uint256",
          "name": "tokenId",
          "type": "uint256"
        }
      ],
      "name": "transferFrom",
      "outputs": [],
      "stateMutability": "nonpayable",
      "type": "function"
    },
    {
      "inputs": [
        {
          "internalType": "address",
          "name": "newOwner",
          "type": "address"
        }
      ],
      "name": "transferOwnership",
      "outputs": [],
      "stateMutability": "nonpayable",
      "type": "function"
    },
    {
      "inputs": [],
      "name": "treasury",
      "outputs": [
        {
          "internalType": "address",
          "name": "",
          "type": "address"
        }
      ],
      "stateMutability": "view",
      "type": "function"
    },
    {
      "inputs": [],
      "name": "unpause",
      "outputs": [],
      "stateMutability": "nonpayable",
      "type": "function"
    },
    {
      "stateMutability": "payable",
      "type": "receive"
    }
  ],
  "bytecode": "0x60806040526000600d819055601280546001600160a01b031916905560778190556078556032607d556081805460ff191690553480156200003f57600080fd5b5060405162004ce038038062004ce08339810160408190526200006291620007da565b8585818181600090805190602001906200007e92919062000686565b5080516200009490600190602084019062000686565b5050600b805460ff1916905550620000ac3362000257565b620000b9600033620002b1565b620000d460008051602062004ca083398151915233620002b1565b620000ef60008051602062004cc083398151915233620002b1565b5050600160115580516003146200014d5760405162461bcd60e51b815260206004820152601a60248201527f696e76616c696420636f6e6669672064617461206c656e67746800000000000060448201526064015b60405180910390fd5b6200015a600033620002b1565b6200017560008051602062004ca083398151915233620002b1565b6200019060008051602062004cc083398151915233620002b1565b620001ca81600081518110620001b657634e487b7160e01b600052603260045260246000fd5b60200260200101516200035660201b60201c565b6200020481600181518110620001f057634e487b7160e01b600052603260045260246000fd5b6020026020010151620003e360201b60201c565b620002408383836002815181106200022c57634e487b7160e01b600052603260045260246000fd5b60200260200101516200046a60201b60201c565b6200024b84620005e6565b50505050505062000994565b600b80546001600160a01b03838116610100818102610100600160a81b031985161790945560405193909204169182907f8be0079c531659141344cd1fd0a4f28419497f9722a3daafe3b4186f6b6457e090600090a35050565b6000828152600c602090815260408083206001600160a01b038516845290915290205460ff1662000352576000828152600c602090815260408083206001600160a01b03851684529091529020805460ff19166001179055620003113390565b6001600160a01b0316816001600160a01b0316837f2f8788117e7eff1d82e926ec794901d17c78024a50270940304540a733656f0d60405160405180910390a45b5050565b600b546001600160a01b03610100909104163314620003a75760405162461bcd60e51b8152602060048201819052602482015260008051602062004c80833981519152604482015260640162000144565b60798190556040518181527f7c8826e4db3679f20c86da0c68d37f9dbcd1d638c56717e014f93c56d14c02d1906020015b60405180910390a150565b600b546001600160a01b03610100909104163314620004345760405162461bcd60e51b8152602060048201819052602482015260008051602062004c80833981519152604482015260640162000144565b607a8190556040518181527fa7ade4ab976b6643a971383d9822fb7c2fce66aa2e497d88c3b4f1475ea2b2e090602001620003d8565b600b546001600160a01b03610100909104163314620004bb5760405162461bcd60e51b8152602060048201819052602482015260008051602062004c80833981519152604482015260640162000144565b6001600160a01b038316620005135760405162461bcd60e51b815260206004820152601760248201527f696e76616c6964207061796d656e742061646472657373000000000000000000604482015260640162000144565b6001600160a01b0382166200056b5760405162461bcd60e51b815260206004820152601860248201527f696e76616c696420747265617375727920616464726573730000000000000000604482015260640162000144565b607b80546001600160a01b038581166001600160a01b03199283168117909355607c8054918616919092168117909155607d83905560408051928352602083019190915281018290527fe2be3027f197494650b7a98fd1cae67dacf615bd1d8bb05102999676f11638669060600160405180910390a1505050565b600b546001600160a01b03610100909104163314620006375760405162461bcd60e51b8152602060048201819052602482015260008051602062004c80833981519152604482015260640162000144565b601280546001600160a01b0319166001600160a01b0383169081179091556040519081527fca92c759228172fe3894a344908fd20dfd37ba561b5af191f1f5b02ee03881fc90602001620003d8565b828054620006949062000941565b90600052602060002090601f016020900481019282620006b8576000855562000703565b82601f10620006d357805160ff191683800117855562000703565b8280016001018555821562000703579182015b8281111562000703578251825591602001919060010190620006e6565b506200071192915062000715565b5090565b5b8082111562000711576000815560010162000716565b80516001600160a01b03811681146200074457600080fd5b919050565b600082601f8301126200075a578081fd5b81516001600160401b038111156200077657620007766200097e565b60206200078c601f8301601f191682016200090e565b8281528582848701011115620007a0578384fd5b835b83811015620007bf578581018301518282018401528201620007a2565b83811115620007d057848385840101525b5095945050505050565b60008060008060008060c08789031215620007f3578182fd5b86516001600160401b03808211156200080a578384fd5b620008188a838b0162000749565b97506020915081890151818111156200082f578485fd5b6200083d8b828c0162000749565b9750506200084e60408a016200072c565b95506200085e60608a016200072c565b94506200086e60808a016200072c565b935060a08901518181111562000882578384fd5b8901601f81018b1362000893578384fd5b805182811115620008a857620008a86200097e565b8060051b9250620008bb8484016200090e565b8181528481019083860185850187018f1015620008d6578788fd5b8795505b83861015620008fa578051835260019590950194918601918601620008da565b508096505050505050509295509295509295565b604051601f8201601f191681016001600160401b03811182821017156200093957620009396200097e565b604052919050565b600181811c908216806200095657607f821691505b602082108114156200097857634e487b7160e01b600052602260045260246000fd5b50919050565b634e487b7160e01b600052604160045260246000fd5b6142dc80620009a46000396000f3fe6080604052600436106103c75760003560e01c806370a08231116101f2578063a2aa61eb1161010d578063d3d3224a116100a0578063e985e9c51161006f578063e985e9c514610b2b578063ec32719614610b74578063f2fde38b14610b94578063fb86a40414610bb457600080fd5b8063d3d3224a14610ab2578063d539139314610ac7578063d547741f14610ae9578063e63ab1e914610b0957600080fd5b8063bebc2b52116100dc578063bebc2b5214610a38578063c38b761c14610a52578063c87b56dd14610a72578063d204c45e14610a9257600080fd5b8063a2aa61eb146109b8578063b5a87cc1146109d8578063b88d4fde146109f8578063b9d6abe914610a1857600080fd5b80639106d7ba11610185578063983b2d5611610154578063983b2d5614610943578063999b93af14610963578063a217fddf14610983578063a22cb4651461099857600080fd5b80639106d7ba146108e257806391d14854146108f857806395d89b4114610918578063978bbdb91461092d57600080fd5b80638456cb59116101c15780638456cb591461086a5780638a55b8661461087f5780638da5cb5b1461089f578063902835f6146108c257600080fd5b806370a08231146107f5578063715018a6146108155780637b43b8271461082a57806382dc1ec41461084a57600080fd5b80632f785908116102e257806358dd6d95116102755780635dce7383116102445780635dce73831461078057806361d027b3146107955780636352211e146107b55780636ae6b459146107d557600080fd5b806358dd6d95146107085780635c975abb146107285780635d1d37c3146107405780635d814dea1461076057600080fd5b806342966c68116102b157806342966c681461069357806342f6487a146106b35780634e71d92d146106d35780634f6ccce7146106e857600080fd5b80632f7859081461061e57806336568abe1461063e5780633f4ba83a1461065e57806342842e0e1461067357600080fd5b806321bae9e41161035a578063248a9ca311610329578063248a9ca3146105985780632799276d146105c85780632f2ff15d146105de5780632f745c59146105fe57600080fd5b806321bae9e414610518578063230a67ee1461053857806323b872dd14610558578063244906591461057857600080fd5b8063081812fc11610396578063081812fc14610464578063095ea7b31461049c578063150b7a02146104be57806318160ddd1461050357600080fd5b806301339c21146103d357806301ffc9a7146103fc57806306490f471461042c57806306fdde031461044257600080fd5b366103ce57005b600080fd5b3480156103df57600080fd5b506103e960795481565b6040519081526020015b60405180910390f35b34801561040857600080fd5b5061041c610417366004613dfb565b610bca565b60405190151581526020016103f3565b34801561043857600080fd5b506103e9607a5481565b34801561044e57600080fd5b50610457610bf5565b6040516103f39190613f86565b34801561047057600080fd5b5061048461047f366004613dc1565b610c87565b6040516001600160a01b0390911681526020016103f3565b3480156104a857600080fd5b506104bc6104b7366004613c5f565b610d14565b005b3480156104ca57600080fd5b506104ea6104d9366004613a49565b630a85bd0160e11b95945050505050565b6040516001600160e01b031990911681526020016103f3565b34801561050f57600080fd5b506008546103e9565b34801561052457600080fd5b506104bc6105333660046139c2565b610e2a565b34801561054457600080fd5b506104bc610553366004613d06565b610f77565b34801561056457600080fd5b506104bc610573366004613a0e565b611123565b34801561058457600080fd5b506104bc610593366004613e4b565b611155565b3480156105a457600080fd5b506103e96105b3366004613dc1565b6000908152600c602052604090206001015490565b3480156105d457600080fd5b506103e960775481565b3480156105ea57600080fd5b506104bc6105f9366004613dd9565b6111dd565b34801561060a57600080fd5b506103e9610619366004613c5f565b611202565b34801561062a57600080fd5b50610484610639366004613dc1565b611298565b34801561064a57600080fd5b506104bc610659366004613dd9565b6112c2565b34801561066a57600080fd5b506104bc611340565b34801561067f57600080fd5b506104bc61068e366004613a0e565b611363565b34801561069f57600080fd5b506104bc6106ae366004613dc1565b61137e565b3480156106bf57600080fd5b50607b54610484906001600160a01b031681565b3480156106df57600080fd5b506104bc6113f5565b3480156106f457600080fd5b506103e9610703366004613dc1565b611830565b34801561071457600080fd5b506104bc610723366004613b56565b6118d1565b34801561073457600080fd5b50600b5460ff1661041c565b34801561074c57600080fd5b506104bc61075b366004613dc1565b61191c565b34801561076c57600080fd5b5061045761077b366004613dc1565b611988565b34801561078c57600080fd5b506103e9611a34565b3480156107a157600080fd5b50607c54610484906001600160a01b031681565b3480156107c157600080fd5b506104846107d0366004613dc1565b611ad0565b3480156107e157600080fd5b506104bc6107f0366004613dc1565b611b47565b34801561080157600080fd5b506103e96108103660046139c2565b611bac565b34801561082157600080fd5b506104bc611c33565b34801561083657600080fd5b506104bc6108453660046139c2565b611c6f565b34801561085657600080fd5b506104bc6108653660046139c2565b611d0f565b34801561087657600080fd5b506104bc611db5565b34801561088b57600080fd5b506103e961089a366004613dc1565b611dd5565b3480156108ab57600080fd5b50600b5461010090046001600160a01b0316610484565b3480156108ce57600080fd5b506104bc6108dd366004613a0e565b611df6565b3480156108ee57600080fd5b506103e960785481565b34801561090457600080fd5b5061041c610913366004613dd9565b611f4d565b34801561092457600080fd5b50610457611f78565b34801561093957600080fd5b506103e9607d5481565b34801561094f57600080fd5b506104bc61095e3660046139c2565b611f87565b34801561096f57600080fd5b50601254610484906001600160a01b031681565b34801561098f57600080fd5b506103e9600081565b3480156109a457600080fd5b506104bc6109b3366004613ba1565b61202d565b3480156109c457600080fd5b506104bc6109d33660046139c2565b612038565b3480156109e457600080fd5b506104bc6109f3366004613c0b565b6120b6565b348015610a0457600080fd5b506104bc610a13366004613ade565b612148565b348015610a2457600080fd5b506103e9610a33366004613dc1565b612180565b348015610a4457600080fd5b5060835461041c9060ff1681565b348015610a5e57600080fd5b50600f54610484906001600160a01b031681565b348015610a7e57600080fd5b50610457610a8d366004613dc1565b612190565b348015610a9e57600080fd5b506103e9610aad366004613bca565b61219b565b348015610abe57600080fd5b506104576121b5565b348015610ad357600080fd5b506103e960008051602061428783398151915281565b348015610af557600080fd5b506104bc610b04366004613dd9565b6121c2565b348015610b1557600080fd5b506103e960008051602061426783398151915281565b348015610b3757600080fd5b5061041c610b463660046139dc565b6001600160a01b03918216600090815260056020908152604080832093909416825291909152205460ff1690565b348015610b8057600080fd5b506104bc610b8f366004613c88565b6121e7565b348015610ba057600080fd5b506104bc610baf3660046139c2565b612239565b348015610bc057600080fd5b506103e9600d5481565b60006001600160e01b031982166380ac58cd60e01b1480610bef5750610bef826122d7565b92915050565b606060008054610c04906141aa565b80601f0160208091040260200160405190810160405280929190818152602001828054610c30906141aa565b8015610c7d5780601f10610c5257610100808354040283529160200191610c7d565b820191906000526020600020905b815481529060010190602001808311610c6057829003601f168201915b5050505050905090565b6000610c92826122fc565b610cf85760405162461bcd60e51b815260206004820152602c60248201527f4552433732313a20617070726f76656420717565727920666f72206e6f6e657860448201526b34b9ba32b73a103a37b5b2b760a11b60648201526084015b60405180910390fd5b506000908152600460205260409020546001600160a01b031690565b6000610d1f82611ad0565b9050806001600160a01b0316836001600160a01b03161415610d8d5760405162461bcd60e51b815260206004820152602160248201527f4552433732313a20617070726f76616c20746f2063757272656e74206f776e656044820152603960f91b6064820152608401610cef565b336001600160a01b0382161480610da95750610da98133610b46565b610e1b5760405162461bcd60e51b815260206004820152603860248201527f4552433732313a20617070726f76652063616c6c6572206973206e6f74206f7760448201527f6e6572206e6f7220617070726f76656420666f7220616c6c00000000000000006064820152608401610cef565b610e258383612319565b505050565b600080516020614287833981519152610e4281612387565b6000600e8054610e51906141aa565b905011610e985760405162461bcd60e51b815260206004820152601560248201527411db1bd8985b08155492481a5cc81b9bdd081cd95d605a1b6044820152606401610cef565b6001600160a01b038216610ee35760405162461bcd60e51b8152602060048201526012602482015271496e76616c696420746f206164647265737360701b6044820152606401610cef565b610e2582600e8054610ef4906141aa565b80601f0160208091040260200160405190810160405280929190818152602001828054610f20906141aa565b8015610f6d5780601f10610f4257610100808354040283529160200191610f6d565b820191906000526020600020905b815481529060010190602001808311610f5057829003601f168201915b505050505061219b565b600080516020614287833981519152610f8f81612387565b60815460ff1615610fe25760405162461bcd60e51b815260206004820152601860248201527f4974656d7320616c7265616479207265676973746572656400000000000000006044820152606401610cef565b815183511461102b5760405162461bcd60e51b8152602060048201526015602482015274082e4e4c2f240d8cadccee8d040dad2e6dac2e8c6d605b1b6044820152606401610cef565b815161103e90607f9060208501906136bd565b50825161105290607e906020860190613708565b5060005b83518110156111105761109b83828151811061108257634e487b7160e01b600052603260045260246000fd5b602002602001015160775461239190919063ffffffff16565b6077556110cc601382606481106110c257634e487b7160e01b600052603260045260246000fd5b0180546001019055565b6080805460018101825560009182527f59f3fb058c6bba7a4e76396639fc4dd21bd59163db798899cf56cef48b3c9ec9015580611108816141df565b915050611056565b50506081805460ff191660011790555050565b61112e335b826123a4565b61114a5760405162461bcd60e51b8152600401610cef90614061565b610e2583838361248e565b600b546001600160a01b036101009091041633146111855760405162461bcd60e51b8152600401610cef90613feb565b600d829055805161119d90600e906020840190613761565b507f57bbf0b7295e3c8587fe0fa3c76592771f6a96123bf723292fd0e3933436b71f600d546040516111d191815260200190565b60405180910390a15050565b6000828152600c60205260409020600101546111f881612387565b610e258383612635565b600061120d83611bac565b821061126f5760405162461bcd60e51b815260206004820152602b60248201527f455243373231456e756d657261626c653a206f776e657220696e646578206f7560448201526a74206f6620626f756e647360a81b6064820152608401610cef565b506001600160a01b03919091166000908152600660209081526040808320938352929052205490565b608281815481106112a857600080fd5b6000918252602090912001546001600160a01b0316905081565b6001600160a01b03811633146113325760405162461bcd60e51b815260206004820152602f60248201527f416363657373436f6e74726f6c3a2063616e206f6e6c792072656e6f756e636560448201526e103937b632b9903337b91039b2b63360891b6064820152608401610cef565b61133c82826126bb565b5050565b60008051602061426783398151915261135881612387565b611360612722565b50565b610e2583838360405180602001604052806000815250612148565b61138733611128565b6113ec5760405162461bcd60e51b815260206004820152603060248201527f4552433732314275726e61626c653a2063616c6c6572206973206e6f74206f7760448201526f1b995c881b9bdc88185c1c1c9bdd995960821b6064820152608401610cef565b611360816127b5565b60795442116114465760405162461bcd60e51b815260206004820152601b60248201527f4e6f7420796574206c61756e63682074696d65207265616368656400000000006044820152606401610cef565b6078546077541161148c5760405162461bcd60e51b815260206004820152601060248201526f185c9a591c9bdc081cdbdb19081bdd5d60821b6044820152606401610cef565b6000805b6082548110156115ad576000608282815481106114bd57634e487b7160e01b600052603260045260246000fd5b6000918252602090912001546040516370a0823160e01b81523360048201526001600160a01b03909116906370a082319060240160206040518083038186803b15801561150957600080fd5b505afa15801561151d573d6000803e3d6000fd5b505050506040513d601f19601f820116820180604052508101906115419190613e33565b60835490915060ff1615611581576000811161156f5760405162461bcd60e51b8152600401610cef90614020565b61157a836001612391565b925061159a565b801561159a57611592836001612391565b9250506115ad565b50806115a5816141df565b915050611490565b50600081116115ce5760405162461bcd60e51b8152600401610cef90614020565b600080805b607f5481101561169557607f81815481106115fe57634e487b7160e01b600052603260045260246000fd5b90600052602060002001546080828154811061162a57634e487b7160e01b600052603260045260246000fd5b90600052602060002001541061167f57611678607f828154811061165e57634e487b7160e01b600052603260045260246000fd5b90600052602060002001548361239190919063ffffffff16565b9150611683565b8092505b8061168d816141df565b9150506115d3565b506116c96116c2601384606481106116bd57634e487b7160e01b600052603260045260246000fd5b015490565b8290612391565b90506117893382607e85815481106116f157634e487b7160e01b600052603260045260246000fd5b906000526020600020018054611706906141aa565b80601f0160208091040260200160405190810160405280929190818152602001828054611732906141aa565b801561177f5780601f106117545761010080835404028352916020019161177f565b820191906000526020600020905b81548152906001019060200180831161176257829003601f168201915b50505050506127be565b506117ae601383606481106110c257634e487b7160e01b600052603260045260246000fd5b6117ed6001608084815481106117d457634e487b7160e01b600052603260045260246000fd5b906000526020600020015461239190919063ffffffff16565b6080838154811061180e57634e487b7160e01b600052603260045260246000fd5b600091825260209091200155607854611828906001612391565b607855505050565b600061183b60085490565b821061189e5760405162461bcd60e51b815260206004820152602c60248201527f455243373231456e756d657261626c653a20676c6f62616c20696e646578206f60448201526b7574206f6620626f756e647360a01b6064820152608401610cef565b600882815481106118bf57634e487b7160e01b600052603260045260246000fd5b90600052602060002001549050919050565b6000805160206142878339815191526118e981612387565b60405162461bcd60e51b8152602060048201526008602482015267111a5cd8589b195960c21b6044820152606401610cef565b600b546001600160a01b0361010090910416331461194c5760405162461bcd60e51b8152600401610cef90613feb565b60798190556040518181527f7c8826e4db3679f20c86da0c68d37f9dbcd1d638c56717e014f93c56d14c02d1906020015b60405180910390a150565b607e818154811061199857600080fd5b9060005260206000200160009150905080546119b3906141aa565b80601f01602080910402602001604051908101604052809291908181526020018280546119df906141aa565b8015611a2c5780601f10611a0157610100808354040283529160200191611a2c565b820191906000526020600020905b815481529060010190602001808311611a0f57829003601f168201915b505050505081565b600080805b607f54811015611aca57611ab6611aaf60808381548110611a6a57634e487b7160e01b600052603260045260246000fd5b9060005260206000200154607f8481548110611a9657634e487b7160e01b600052603260045260246000fd5b90600052602060002001546127d590919063ffffffff16565b8390612391565b915080611ac2816141df565b915050611a39565b50919050565b6000818152600260205260408120546001600160a01b031680610bef5760405162461bcd60e51b815260206004820152602960248201527f4552433732313a206f776e657220717565727920666f72206e6f6e657869737460448201526832b73a103a37b5b2b760b91b6064820152608401610cef565b600b546001600160a01b03610100909104163314611b775760405162461bcd60e51b8152600401610cef90613feb565b607a8190556040518181527fa7ade4ab976b6643a971383d9822fb7c2fce66aa2e497d88c3b4f1475ea2b2e09060200161197d565b60006001600160a01b038216611c175760405162461bcd60e51b815260206004820152602a60248201527f4552433732313a2062616c616e636520717565727920666f7220746865207a65604482015269726f206164647265737360b01b6064820152608401610cef565b506001600160a01b031660009081526003602052604090205490565b600b546001600160a01b03610100909104163314611c635760405162461bcd60e51b8152600401610cef90613feb565b611c6d60006127e1565b565b600b546001600160a01b03610100909104163314611c9f5760405162461bcd60e51b8152600401610cef90613feb565b600f80546001600160a01b0319166001600160a01b038316179055611cd260008051602061428783398151915282612635565b600f546040516001600160a01b0390911681527f329b1203fc60a62c4a0fd3ff1554a07f92a2f117cc590422dd105811bb484ded9060200161197d565b600b546001600160a01b03610100909104163314611d3f5760405162461bcd60e51b8152600401610cef90613feb565b611d5760008051602061426783398151915282612635565b604080516001600160a01b038316815260208101829052600b918101919091526a5041555345525f524f4c4560a81b60608201527f0578acc86b18d67c13a5e6eed8c670fb7052f530b48a2acb167d6ca77509a3849060800161197d565b600080516020614267833981519152611dcd81612387565b61136061283b565b607f8181548110611de557600080fd5b600091825260209091200154905081565b600b546001600160a01b03610100909104163314611e265760405162461bcd60e51b8152600401610cef90613feb565b6001600160a01b038316611e7c5760405162461bcd60e51b815260206004820152601760248201527f696e76616c6964207061796d656e7420616464726573730000000000000000006044820152606401610cef565b6001600160a01b038216611ed25760405162461bcd60e51b815260206004820152601860248201527f696e76616c6964207472656173757279206164647265737300000000000000006044820152606401610cef565b607b80546001600160a01b038581166001600160a01b03199283168117909355607c8054918616919092168117909155607d83905560408051928352602083019190915281018290527fe2be3027f197494650b7a98fd1cae67dacf615bd1d8bb05102999676f11638669060600160405180910390a1505050565b6000918252600c602090815260408084206001600160a01b0393909316845291905290205460ff1690565b606060018054610c04906141aa565b600b546001600160a01b03610100909104163314611fb75760405162461bcd60e51b8152600401610cef90613feb565b611fcf60008051602061428783398151915282612635565b604080516001600160a01b038316815260208101829052600b918101919091526a4d494e5445525f524f4c4560a81b60608201527f0578acc86b18d67c13a5e6eed8c670fb7052f530b48a2acb167d6ca77509a3849060800161197d565b61133c3383836128b6565b600b546001600160a01b036101009091041633146120685760405162461bcd60e51b8152600401610cef90613feb565b601280546001600160a01b0319166001600160a01b0383169081179091556040519081527fca92c759228172fe3894a344908fd20dfd37ba561b5af191f1f5b02ee03881fc9060200161197d565b6000805160206142878339815191526120ce81612387565b6001600160a01b0384166121195760405162461bcd60e51b8152602060048201526012602482015271496e76616c696420746f206164647265737360701b6044820152606401610cef565b60005b828110156121415761212e858561219b565b5080612139816141df565b91505061211c565b5050505050565b61215233836123a4565b61216e5760405162461bcd60e51b8152600401610cef90614061565b61217a84848484612985565b50505050565b60808181548110611de557600080fd5b6060610bef826129b8565b60006000805160206142878339815191526118e981612387565b600e80546119b3906141aa565b6000828152600c60205260409020600101546121dd81612387565b610e2583836126bb565b600b546001600160a01b036101009091041633146122175760405162461bcd60e51b8152600401610cef90613feb565b612223608284846137d4565b506083805460ff19169115159190911790555050565b600b546001600160a01b036101009091041633146122695760405162461bcd60e51b8152600401610cef90613feb565b6001600160a01b0381166122ce5760405162461bcd60e51b815260206004820152602660248201527f4f776e61626c653a206e6577206f776e657220697320746865207a65726f206160448201526564647265737360d01b6064820152608401610cef565b611360816127e1565b60006001600160e01b03198216637965db0b60e01b1480610bef5750610bef82612b27565b6000908152600260205260409020546001600160a01b0316151590565b600081815260046020526040902080546001600160a01b0319166001600160a01b038416908117909155819061234e82611ad0565b6001600160a01b03167f8c5be1e5ebec7d5bd14f71427d1e84f3dd0314c0f7b2291e5b200ac8c7c3b92560405160405180910390a45050565b6113608133612b4c565b600061239d8284614105565b9392505050565b60006123af826122fc565b6124105760405162461bcd60e51b815260206004820152602c60248201527f4552433732313a206f70657261746f7220717565727920666f72206e6f6e657860448201526b34b9ba32b73a103a37b5b2b760a11b6064820152608401610cef565b600061241b83611ad0565b9050806001600160a01b0316846001600160a01b0316148061246257506001600160a01b0380821660009081526005602090815260408083209388168352929052205460ff165b806124865750836001600160a01b031661247b84610c87565b6001600160a01b0316145b949350505050565b826001600160a01b03166124a182611ad0565b6001600160a01b0316146125055760405162461bcd60e51b815260206004820152602560248201527f4552433732313a207472616e736665722066726f6d20696e636f72726563742060448201526437bbb732b960d91b6064820152608401610cef565b6001600160a01b0382166125675760405162461bcd60e51b8152602060048201526024808201527f4552433732313a207472616e7366657220746f20746865207a65726f206164646044820152637265737360e01b6064820152608401610cef565b612572838383612bb0565b61257d600082612319565b6001600160a01b03831660009081526003602052604081208054600192906125a6908490614150565b90915550506001600160a01b03821660009081526003602052604081208054600192906125d4908490614105565b909155505060008181526002602052604080822080546001600160a01b0319166001600160a01b0386811691821790925591518493918716917fddf252ad1be2c89b69c2b068fc378daa952ba7f163c4a11628f55a4df523b3ef91a4505050565b61263f8282611f4d565b61133c576000828152600c602090815260408083206001600160a01b03851684529091529020805460ff191660011790556126773390565b6001600160a01b0316816001600160a01b0316837f2f8788117e7eff1d82e926ec794901d17c78024a50270940304540a733656f0d60405160405180910390a45050565b6126c58282611f4d565b1561133c576000828152600c602090815260408083206001600160a01b0385168085529252808320805460ff1916905551339285917ff6391f5c32d9c69d2a47ea670b442974b53935d1edc7fd64eb21e047a839171b9190a45050565b600b5460ff1661276b5760405162461bcd60e51b815260206004820152601460248201527314185d5cd8589b194e881b9bdd081c185d5cd95960621b6044820152606401610cef565b600b805460ff191690557f5db9ee0a495bf2e6ff9c91a7834c1ba4fdd244a5e8aa4e537bd38aeae4b073aa335b6040516001600160a01b03909116815260200160405180910390a1565b61136081612c01565b6000806127cc858585612c41565b95945050505050565b600061239d8284614150565b600b80546001600160a01b03838116610100818102610100600160a81b031985161790945560405193909204169182907f8be0079c531659141344cd1fd0a4f28419497f9722a3daafe3b4186f6b6457e090600090a35050565b600b5460ff16156128815760405162461bcd60e51b815260206004820152601060248201526f14185d5cd8589b194e881c185d5cd95960821b6044820152606401610cef565b600b805460ff191660011790557f62e78cea01bee320cd4e420270b5ea74000d11b0c9f74754ebdbfc544b05a2586127983390565b816001600160a01b0316836001600160a01b031614156129185760405162461bcd60e51b815260206004820152601960248201527f4552433732313a20617070726f766520746f2063616c6c6572000000000000006044820152606401610cef565b6001600160a01b03838116600081815260056020908152604080832094871680845294825291829020805460ff191686151590811790915591519182527f17307eab39ab6107e8899845ad3d59bd9653f200f220920489ca2b5937696c31910160405180910390a3505050565b61299084848461248e565b61299c84848484612c5f565b61217a5760405162461bcd60e51b8152600401610cef90613f99565b60606129c3826122fc565b612a295760405162461bcd60e51b815260206004820152603160248201527f45524337323155524953746f726167653a2055524920717565727920666f72206044820152703737b732bc34b9ba32b73a103a37b5b2b760791b6064820152608401610cef565b6000828152600a602052604081208054612a42906141aa565b80601f0160208091040260200160405190810160405280929190818152602001828054612a6e906141aa565b8015612abb5780601f10612a9057610100808354040283529160200191612abb565b820191906000526020600020905b815481529060010190602001808311612a9e57829003601f168201915b505050505090506000612ad960408051602081019091526000815290565b9050805160001415612aec575092915050565b815115612b1e578082604051602001612b06929190613ea5565b60405160208183030381529060405292505050919050565b61248684612d6c565b60006001600160e01b0319821663780e9d6360e01b1480610bef5750610bef82612e43565b612b568282611f4d565b61133c57612b6e816001600160a01b03166014612e93565b612b79836020612e93565b604051602001612b8a929190613ed4565b60408051601f198184030181529082905262461bcd60e51b8252610cef91600401613f86565b600b5460ff1615612bf65760405162461bcd60e51b815260206004820152601060248201526f14185d5cd8589b194e881c185d5cd95960821b6044820152606401610cef565b610e25838383613074565b612c0a8161312c565b6000818152600a602052604090208054612c23906141aa565b159050611360576000818152600a6020526040812061136091613827565b6000612c4d84846131d3565b612c5783836131ed565b509092915050565b60006001600160a01b0384163b15612d6157604051630a85bd0160e11b81526001600160a01b0385169063150b7a0290612ca3903390899088908890600401613f49565b602060405180830381600087803b158015612cbd57600080fd5b505af1925050508015612ced575060408051601f3d908101601f19168201909252612cea91810190613e17565b60015b612d47573d808015612d1b576040519150601f19603f3d011682016040523d82523d6000602084013e612d20565b606091505b508051612d3f5760405162461bcd60e51b8152600401610cef90613f99565b805181602001fd5b6001600160e01b031916630a85bd0160e11b149050612486565b506001949350505050565b6060612d77826122fc565b612ddb5760405162461bcd60e51b815260206004820152602f60248201527f4552433732314d657461646174613a2055524920717565727920666f72206e6f60448201526e3732bc34b9ba32b73a103a37b5b2b760891b6064820152608401610cef565b6000612df260408051602081019091526000815290565b90506000815111612e12576040518060200160405280600081525061239d565b80612e1c84613278565b604051602001612e2d929190613ea5565b6040516020818303038152906040529392505050565b60006001600160e01b031982166380ac58cd60e01b1480612e7457506001600160e01b03198216635b5e139f60e01b145b80610bef57506301ffc9a760e01b6001600160e01b0319831614610bef565b60606000612ea2836002614131565b612ead906002614105565b6001600160401b03811115612ed257634e487b7160e01b600052604160045260246000fd5b6040519080825280601f01601f191660200182016040528015612efc576020820181803683370190505b509050600360fc1b81600081518110612f2557634e487b7160e01b600052603260045260246000fd5b60200101906001600160f81b031916908160001a905350600f60fb1b81600181518110612f6257634e487b7160e01b600052603260045260246000fd5b60200101906001600160f81b031916908160001a9053506000612f86846002614131565b612f91906001614105565b90505b6001811115613025576f181899199a1a9b1b9c1cb0b131b232b360811b85600f1660108110612fd357634e487b7160e01b600052603260045260246000fd5b1a60f81b828281518110612ff757634e487b7160e01b600052603260045260246000fd5b60200101906001600160f81b031916908160001a90535060049490941c9361301e81614193565b9050612f94565b50831561239d5760405162461bcd60e51b815260206004820181905260248201527f537472696e67733a20686578206c656e67746820696e73756666696369656e746044820152606401610cef565b6001600160a01b0383166130cf576130ca81600880546000838152600960205260408120829055600182018355919091527ff3f7a9fe364faab93b216da50a3214154f22a0a2b415b23a84c8169e8b636ee30155565b6130f2565b816001600160a01b0316836001600160a01b0316146130f2576130f28382613391565b6001600160a01b03821661310957610e258161342e565b826001600160a01b0316826001600160a01b031614610e2557610e258282613507565b600061313782611ad0565b905061314581600084612bb0565b613150600083612319565b6001600160a01b0381166000908152600360205260408120805460019290613179908490614150565b909155505060008281526002602052604080822080546001600160a01b0319169055518391906001600160a01b038416907fddf252ad1be2c89b69c2b068fc378daa952ba7f163c4a11628f55a4df523b3ef908390a45050565b61133c82826040518060200160405280600081525061354b565b6131f6826122fc565b6132595760405162461bcd60e51b815260206004820152602e60248201527f45524337323155524953746f726167653a2055524920736574206f66206e6f6e60448201526d32bc34b9ba32b73a103a37b5b2b760911b6064820152608401610cef565b6000828152600a602090815260409091208251610e2592840190613761565b60608161329c5750506040805180820190915260018152600360fc1b602082015290565b8160005b81156132c657806132b0816141df565b91506132bf9050600a8361411d565b91506132a0565b6000816001600160401b038111156132ee57634e487b7160e01b600052604160045260246000fd5b6040519080825280601f01601f191660200182016040528015613318576020820181803683370190505b5090505b84156124865761332d600183614150565b915061333a600a866141fa565b613345906030614105565b60f81b81838151811061336857634e487b7160e01b600052603260045260246000fd5b60200101906001600160f81b031916908160001a90535061338a600a8661411d565b945061331c565b6000600161339e84611bac565b6133a89190614150565b6000838152600760205260409020549091508082146133fb576001600160a01b03841660009081526006602090815260408083208584528252808320548484528184208190558352600790915290208190555b5060009182526007602090815260408084208490556001600160a01b039094168352600681528383209183525290812055565b60085460009061344090600190614150565b6000838152600960205260408120546008805493945090928490811061347657634e487b7160e01b600052603260045260246000fd5b9060005260206000200154905080600883815481106134a557634e487b7160e01b600052603260045260246000fd5b60009182526020808320909101929092558281526009909152604080822084905585825281205560088054806134eb57634e487b7160e01b600052603160045260246000fd5b6001900381819060005260206000200160009055905550505050565b600061351283611bac565b6001600160a01b039093166000908152600660209081526040808320868452825280832085905593825260079052919091209190915550565b613555838361357e565b6135626000848484612c5f565b610e255760405162461bcd60e51b8152600401610cef90613f99565b6001600160a01b0382166135d45760405162461bcd60e51b815260206004820181905260248201527f4552433732313a206d696e7420746f20746865207a65726f20616464726573736044820152606401610cef565b6135dd816122fc565b1561362a5760405162461bcd60e51b815260206004820152601c60248201527f4552433732313a20746f6b656e20616c7265616479206d696e746564000000006044820152606401610cef565b61363660008383612bb0565b6001600160a01b038216600090815260036020526040812080546001929061365f908490614105565b909155505060008181526002602052604080822080546001600160a01b0319166001600160a01b03861690811790915590518392907fddf252ad1be2c89b69c2b068fc378daa952ba7f163c4a11628f55a4df523b3ef908290a45050565b8280548282559060005260206000209081019282156136f8579160200282015b828111156136f85782518255916020019190600101906136dd565b5061370492915061385d565b5090565b828054828255906000526020600020908101928215613755579160200282015b828111156137555782518051613745918491602090910190613761565b5091602001919060010190613728565b50613704929150613872565b82805461376d906141aa565b90600052602060002090601f01602090048101928261378f57600085556136f8565b82601f106137a857805160ff19168380011785556136f8565b828001600101855582156136f857918201828111156136f85782518255916020019190600101906136dd565b8280548282559060005260206000209081019282156136f8579160200282015b828111156136f85781546001600160a01b0319166001600160a01b038435161782556020909201916001909101906137f4565b508054613833906141aa565b6000825580601f10613843575050565b601f01602090049060005260206000209081019061136091905b5b80821115613704576000815560010161385e565b808211156137045760006138868282613827565b50600101613872565b60006001600160401b038311156138a8576138a861423a565b6138bb601f8401601f19166020016140b2565b90508281528383830111156138cf57600080fd5b828260208301376000602084830101529392505050565b80356001600160a01b03811681146138fd57600080fd5b919050565b600082601f830112613912578081fd5b81356020613927613922836140e2565b6140b2565b80838252828201915082860187848660051b8901011115613946578586fd5b855b858110156139865781356001600160401b03811115613965578788fd5b6139738a87838c01016139a3565b8552509284019290840190600101613948565b5090979650505050505050565b803580151581146138fd57600080fd5b600082601f8301126139b3578081fd5b61239d8383356020850161388f565b6000602082840312156139d3578081fd5b61239d826138e6565b600080604083850312156139ee578081fd5b6139f7836138e6565b9150613a05602084016138e6565b90509250929050565b600080600060608486031215613a22578081fd5b613a2b846138e6565b9250613a39602085016138e6565b9150604084013590509250925092565b600080600080600060808688031215613a60578081fd5b613a69866138e6565b9450613a77602087016138e6565b93506040860135925060608601356001600160401b0380821115613a99578283fd5b818801915088601f830112613aac578283fd5b813581811115613aba578384fd5b896020828501011115613acb578384fd5b9699959850939650602001949392505050565b60008060008060808587031215613af3578384fd5b613afc856138e6565b9350613b0a602086016138e6565b92506040850135915060608501356001600160401b03811115613b2b578182fd5b8501601f81018713613b3b578182fd5b613b4a8782356020840161388f565b91505092959194509250565b60008060408385031215613b68578182fd5b613b71836138e6565b915060208301356001600160401b03811115613b8b578182fd5b613b9785828601613902565b9150509250929050565b60008060408385031215613bb3578182fd5b613bbc836138e6565b9150613a0560208401613993565b60008060408385031215613bdc578182fd5b613be5836138e6565b915060208301356001600160401b03811115613bff578182fd5b613b97858286016139a3565b600080600060608486031215613c1f578081fd5b613c28846138e6565b925060208401356001600160401b03811115613c42578182fd5b613c4e868287016139a3565b925050604084013590509250925092565b60008060408385031215613c71578182fd5b613c7a836138e6565b946020939093013593505050565b600080600060408486031215613c9c578081fd5b83356001600160401b0380821115613cb2578283fd5b818601915086601f830112613cc5578283fd5b813581811115613cd3578384fd5b8760208260051b8501011115613ce7578384fd5b602092830195509350613cfd9186019050613993565b90509250925092565b60008060408385031215613d18578182fd5b82356001600160401b0380821115613d2e578384fd5b613d3a86838701613902565b9350602091508185013581811115613d50578384fd5b85019050601f81018613613d62578283fd5b8035613d70613922826140e2565b80828252848201915084840189868560051b8701011115613d8f578687fd5b8694505b83851015613db1578035835260019490940193918501918501613d93565b5080955050505050509250929050565b600060208284031215613dd2578081fd5b5035919050565b60008060408385031215613deb578182fd5b82359150613a05602084016138e6565b600060208284031215613e0c578081fd5b813561239d81614250565b600060208284031215613e28578081fd5b815161239d81614250565b600060208284031215613e44578081fd5b5051919050565b60008060408385031215613e5d578182fd5b8235915060208301356001600160401b03811115613bff578182fd5b60008151808452613e91816020860160208601614167565b601f01601f19169290920160200192915050565b60008351613eb7818460208801614167565b835190830190613ecb818360208801614167565b01949350505050565b7f416363657373436f6e74726f6c3a206163636f756e7420000000000000000000815260008351613f0c816017850160208801614167565b7001034b99036b4b9b9b4b733903937b6329607d1b6017918401918201528351613f3d816028840160208801614167565b01602801949350505050565b6001600160a01b0385811682528416602082015260408101839052608060608201819052600090613f7c90830184613e79565b9695505050505050565b60208152600061239d6020830184613e79565b60208082526032908201527f4552433732313a207472616e7366657220746f206e6f6e20455243373231526560408201527131b2b4bb32b91034b6b83632b6b2b73a32b960711b606082015260800190565b6020808252818101527f4f776e61626c653a2063616c6c6572206973206e6f7420746865206f776e6572604082015260600190565b60208082526021908201527f73686f756c642062757920616c6c20636f6c6c656374696f6e73206265666f726040820152606560f81b606082015260800190565b60208082526031908201527f4552433732313a207472616e736665722063616c6c6572206973206e6f74206f6040820152701ddb995c881b9bdc88185c1c1c9bdd9959607a1b606082015260800190565b604051601f8201601f191681016001600160401b03811182821017156140da576140da61423a565b604052919050565b60006001600160401b038211156140fb576140fb61423a565b5060051b60200190565b600082198211156141185761411861420e565b500190565b60008261412c5761412c614224565b500490565b600081600019048311821515161561414b5761414b61420e565b500290565b6000828210156141625761416261420e565b500390565b60005b8381101561418257818101518382015260200161416a565b8381111561217a5750506000910152565b6000816141a2576141a261420e565b506000190190565b600181811c908216806141be57607f821691505b60208210811415611aca57634e487b7160e01b600052602260045260246000fd5b60006000198214156141f3576141f361420e565b5060010190565b60008261420957614209614224565b500690565b634e487b7160e01b600052601160045260246000fd5b634e487b7160e01b600052601260045260246000fd5b634e487b7160e01b600052604160045260246000fd5b6001600160e01b03198116811461136057600080fdfe65d7a28e3265b37a6474929f336521b332c1681b933f6cb9f3376673440d862a9f2df0fed2c77648de5860a4cc508cd0818c85b8b8a1ab4ceeef8d981c8956a6a264697066735822122032cee2c089276fcc451de7b574e47465eb12d540e25c276547c1bb66ce75ee3164736f6c634300080400334f776e61626c653a2063616c6c6572206973206e6f7420746865206f776e657265d7a28e3265b37a6474929f336521b332c1681b933f6cb9f3376673440d862a9f2df0fed2c77648de5860a4cc508cd0818c85b8b8a1ab4ceeef8d981c8956a6",
  "linkReferences": {},
  "deployedLinkReferences": {}
}