{
  "_format": "hh-sol-artifact-1",
  "contractName": "Collection",
  "sourceName": "contracts/Collection.sol",
  "abi": [
    {
      "inputs": [
        {
          "internalType": "string",
          "name": "name",
          "type": "string"
        },
        {
          "internalType": "string",
          "name": "symbol",
          "type": "string"
        },
        {
          "internalType": "address",
          "name": "_quote",
          "type": "address"
        },
        {
          "internalType": "address",
          "name": "_payment",
          "type": "address"
        },
        {
          "internalType": "address",
          "name": "_treasury",
          "type": "address"
        },
        {
          "internalType": "uint256[]",
          "name": "configValues",
          "type": "uint256[]"
        }
      ],
      "stateMutability": "nonpayable",
      "type": "constructor"
    },
    {
      "anonymous": false,
      "inputs": [
        {
          "indexed": true,
          "internalType": "address",
          "name": "owner",
          "type": "address"
        },
        {
          "indexed": true,
          "internalType": "address",
          "name": "approved",
          "type": "address"
        },
        {
          "indexed": true,
          "internalType": "uint256",
          "name": "tokenId",
          "type": "uint256"
        }
      ],
      "name": "Approval",
      "type": "event"
    },
    {
      "anonymous": false,
      "inputs": [
        {
          "indexed": true,
          "internalType": "address",
          "name": "owner",
          "type": "address"
        },
        {
          "indexed": true,
          "internalType": "address",
          "name": "operator",
          "type": "address"
        },
        {
          "indexed": false,
          "internalType": "bool",
          "name": "approved",
          "type": "bool"
        }
      ],
      "name": "ApprovalForAll",
      "type": "event"
    },
    {
      "anonymous": false,
      "inputs": [
        {
          "indexed": false,
          "internalType": "address",
          "name": "",
          "type": "address"
        },
        {
          "indexed": false,
          "internalType": "string",
          "name": "",
          "type": "string"
        }
      ],
      "name": "Grant",
      "type": "event"
    },
    {
      "anonymous": false,
      "inputs": [
        {
          "indexed": true,
          "internalType": "address",
          "name": "previousOwner",
          "type": "address"
        },
        {
          "indexed": true,
          "internalType": "address",
          "name": "newOwner",
          "type": "address"
        }
      ],
      "name": "OwnershipTransferred",
      "type": "event"
    },
    {
      "anonymous": false,
      "inputs": [
        {
          "indexed": false,
          "internalType": "address",
          "name": "account",
          "type": "address"
        }
      ],
      "name": "Paused",
      "type": "event"
    },
    {
      "anonymous": false,
      "inputs": [
        {
          "indexed": true,
          "internalType": "bytes32",
          "name": "role",
          "type": "bytes32"
        },
        {
          "indexed": true,
          "internalType": "bytes32",
          "name": "previousAdminRole",
          "type": "bytes32"
        },
        {
          "indexed": true,
          "internalType": "bytes32",
          "name": "newAdminRole",
          "type": "bytes32"
        }
      ],
      "name": "RoleAdminChanged",
      "type": "event"
    },
    {
      "anonymous": false,
      "inputs": [
        {
          "indexed": true,
          "internalType": "bytes32",
          "name": "role",
          "type": "bytes32"
        },
        {
          "indexed": true,
          "internalType": "address",
          "name": "account",
          "type": "address"
        },
        {
          "indexed": true,
          "internalType": "address",
          "name": "sender",
          "type": "address"
        }
      ],
      "name": "RoleGranted",
      "type": "event"
    },
    {
      "anonymous": false,
      "inputs": [
        {
          "indexed": true,
          "internalType": "bytes32",
          "name": "role",
          "type": "bytes32"
        },
        {
          "indexed": true,
          "internalType": "address",
          "name": "account",
          "type": "address"
        },
        {
          "indexed": true,
          "internalType": "address",
          "name": "sender",
          "type": "address"
        }
      ],
      "name": "RoleRevoked",
      "type": "event"
    },
    {
      "anonymous": false,
      "inputs": [
        {
          "indexed": false,
          "internalType": "address",
          "name": "",
          "type": "address"
        },
        {
          "indexed": false,
          "internalType": "address",
          "name": "",
          "type": "address"
        },
        {
          "indexed": false,
          "internalType": "uint256",
          "name": "",
          "type": "uint256"
        }
      ],
      "name": "SetConfig",
      "type": "event"
    },
    {
      "anonymous": false,
      "inputs": [
        {
          "indexed": false,
          "internalType": "uint256",
          "name": "",
          "type": "uint256"
        }
      ],
      "name": "SetHardCap",
      "type": "event"
    },
    {
      "anonymous": false,
      "inputs": [
        {
          "indexed": false,
          "internalType": "uint256",
          "name": "",
          "type": "uint256"
        }
      ],
      "name": "SetLaunch",
      "type": "event"
    },
    {
      "anonymous": false,
      "inputs": [
        {
          "indexed": false,
          "internalType": "uint256",
          "name": "",
          "type": "uint256"
        }
      ],
      "name": "SetLockup",
      "type": "event"
    },
    {
      "anonymous": false,
      "inputs": [
        {
          "indexed": false,
          "internalType": "address",
          "name": "",
          "type": "address"
        }
      ],
      "name": "SetMysteryBox",
      "type": "event"
    },
    {
      "anonymous": false,
      "inputs": [
        {
          "indexed": false,
          "internalType": "address",
          "name": "",
          "type": "address"
        }
      ],
      "name": "SetQuote",
      "type": "event"
    },
    {
      "anonymous": false,
      "inputs": [
        {
          "indexed": true,
          "internalType": "address",
          "name": "from",
          "type": "address"
        },
        {
          "indexed": true,
          "internalType": "address",
          "name": "to",
          "type": "address"
        },
        {
          "indexed": true,
          "internalType": "uint256",
          "name": "tokenId",
          "type": "uint256"
        }
      ],
      "name": "Transfer",
      "type": "event"
    },
    {
      "anonymous": false,
      "inputs": [
        {
          "indexed": false,
          "internalType": "address",
          "name": "account",
          "type": "address"
        }
      ],
      "name": "Unpaused",
      "type": "event"
    },
    {
      "inputs": [],
      "name": "DEFAULT_ADMIN_ROLE",
      "outputs": [
        {
          "internalType": "bytes32",
          "name": "",
          "type": "bytes32"
        }
      ],
      "stateMutability": "view",
      "type": "function"
    },
    {
      "inputs": [],
      "name": "MINTER_ROLE",
      "outputs": [
        {
          "internalType": "bytes32",
          "name": "",
          "type": "bytes32"
        }
      ],
      "stateMutability": "view",
      "type": "function"
    },
    {
      "inputs": [],
      "name": "PAUSER_ROLE",
      "outputs": [
        {
          "internalType": "bytes32",
          "name": "",
          "type": "bytes32"
        }
      ],
      "stateMutability": "view",
      "type": "function"
    },
    {
      "inputs": [
        {
          "internalType": "address",
          "name": "minter",
          "type": "address"
        }
      ],
      "name": "addMinter",
      "outputs": [],
      "stateMutability": "nonpayable",
      "type": "function"
    },
    {
      "inputs": [
        {
          "internalType": "address",
          "name": "pauser",
          "type": "address"
        }
      ],
      "name": "addPauser",
      "outputs": [],
      "stateMutability": "nonpayable",
      "type": "function"
    },
    {
      "inputs": [],
      "name": "andOr",
      "outputs": [
        {
          "internalType": "bool",
          "name": "",
          "type": "bool"
        }
      ],
      "stateMutability": "view",
      "type": "function"
    },
    {
      "inputs": [
        {
          "internalType": "address",
          "name": "to",
          "type": "address"
        },
        {
          "internalType": "uint256",
          "name": "tokenId",
          "type": "uint256"
        }
      ],
      "name": "approve",
      "outputs": [],
      "stateMutability": "nonpayable",
      "type": "function"
    },
    {
      "inputs": [
        {
          "internalType": "address",
          "name": "owner",
          "type": "address"
        }
      ],
      "name": "balanceOf",
      "outputs": [
        {
          "internalType": "uint256",
          "name": "",
          "type": "uint256"
        }
      ],
      "stateMutability": "view",
      "type": "function"
    },
    {
      "inputs": [
        {
          "internalType": "uint256",
          "name": "tokenId",
          "type": "uint256"
        }
      ],
      "name": "burn",
      "outputs": [],
      "stateMutability": "nonpayable",
      "type": "function"
    },
    {
      "inputs": [
        {
          "internalType": "uint256",
          "name": "_itemIx",
          "type": "uint256"
        },
        {
          "internalType": "uint256",
          "name": "_amount",
          "type": "uint256"
        },
        {
          "internalType": "address",
          "name": "to",
          "type": "address"
        }
      ],
      "name": "buyItemCredit",
      "outputs": [],
      "stateMutability": "nonpayable",
      "type": "function"
    },
    {
      "inputs": [
        {
          "internalType": "uint256",
          "name": "_itemIx",
          "type": "uint256"
        },
        {
          "internalType": "uint256",
          "name": "_amount",
          "type": "uint256"
        }
      ],
      "name": "buyItemEth",
      "outputs": [],
      "stateMutability": "payable",
      "type": "function"
    },
    {
      "inputs": [
        {
          "internalType": "uint256",
          "name": "_itemIx",
          "type": "uint256"
        },
        {
          "internalType": "uint256",
          "name": "_payment",
          "type": "uint256"
        },
        {
          "internalType": "uint256",
          "name": "_amount",
          "type": "uint256"
        }
      ],
      "name": "buyItemQuote",
      "outputs": [],
      "stateMutability": "nonpayable",
      "type": "function"
    },
    {
      "inputs": [],
      "name": "feeRate",
      "outputs": [
        {
          "internalType": "uint256",
          "name": "",
          "type": "uint256"
        }
      ],
      "stateMutability": "view",
      "type": "function"
    },
    {
      "inputs": [],
      "name": "flagMandatory",
      "outputs": [
        {
          "internalType": "bool",
          "name": "",
          "type": "bool"
        }
      ],
      "stateMutability": "view",
      "type": "function"
    },
    {
      "inputs": [
        {
          "internalType": "uint256",
          "name": "tokenId",
          "type": "uint256"
        }
      ],
      "name": "getApproved",
      "outputs": [
        {
          "internalType": "address",
          "name": "",
          "type": "address"
        }
      ],
      "stateMutability": "view",
      "type": "function"
    },
    {
      "inputs": [],
      "name": "getItemRemains",
      "outputs": [
        {
          "internalType": "uint256",
          "name": "",
          "type": "uint256"
        }
      ],
      "stateMutability": "view",
      "type": "function"
    },
    {
      "inputs": [
        {
          "internalType": "bytes32",
          "name": "role",
          "type": "bytes32"
        }
      ],
      "name": "getRoleAdmin",
      "outputs": [
        {
          "internalType": "bytes32",
          "name": "",
          "type": "bytes32"
        }
      ],
      "stateMutability": "view",
      "type": "function"
    },
    {
      "inputs": [],
      "name": "globalURI",
      "outputs": [
        {
          "internalType": "string",
          "name": "",
          "type": "string"
        }
      ],
      "stateMutability": "view",
      "type": "function"
    },
    {
      "inputs": [
        {
          "internalType": "bytes32",
          "name": "role",
          "type": "bytes32"
        },
        {
          "internalType": "address",
          "name": "account",
          "type": "address"
        }
      ],
      "name": "grantRole",
      "outputs": [],
      "stateMutability": "nonpayable",
      "type": "function"
    },
    {
      "inputs": [],
      "name": "hardCap",
      "outputs": [
        {
          "internalType": "uint256",
          "name": "",
          "type": "uint256"
        }
      ],
      "stateMutability": "view",
      "type": "function"
    },
    {
      "inputs": [
        {
          "internalType": "bytes32",
          "name": "role",
          "type": "bytes32"
        },
        {
          "internalType": "address",
          "name": "account",
          "type": "address"
        }
      ],
      "name": "hasRole",
      "outputs": [
        {
          "internalType": "bool",
          "name": "",
          "type": "bool"
        }
      ],
      "stateMutability": "view",
      "type": "function"
    },
    {
      "inputs": [
        {
          "internalType": "address",
          "name": "owner",
          "type": "address"
        },
        {
          "internalType": "address",
          "name": "operator",
          "type": "address"
        }
      ],
      "name": "isApprovedForAll",
      "outputs": [
        {
          "internalType": "bool",
          "name": "",
          "type": "bool"
        }
      ],
      "stateMutability": "view",
      "type": "function"
    },
    {
      "inputs": [
        {
          "internalType": "uint256",
          "name": "",
          "type": "uint256"
        }
      ],
      "name": "itemAmounts",
      "outputs": [
        {
          "internalType": "uint256",
          "name": "",
          "type": "uint256"
        }
      ],
      "stateMutability": "view",
      "type": "function"
    },
    {
      "inputs": [
        {
          "internalType": "uint256",
          "name": "",
          "type": "uint256"
        }
      ],
      "name": "itemPrices",
      "outputs": [
        {
          "internalType": "uint256",
          "name": "",
          "type": "uint256"
        }
      ],
      "stateMutability": "view",
      "type": "function"
    },
    {
      "inputs": [
        {
          "internalType": "uint256",
          "name": "",
          "type": "uint256"
        }
      ],
      "name": "itemSolds",
      "outputs": [
        {
          "internalType": "uint256",
          "name": "",
          "type": "uint256"
        }
      ],
      "stateMutability": "view",
      "type": "function"
    },
    {
      "inputs": [
        {
          "internalType": "uint256",
          "name": "",
          "type": "uint256"
        }
      ],
      "name": "itemURIs",
      "outputs": [
        {
          "internalType": "string",
          "name": "",
          "type": "string"
        }
      ],
      "stateMutability": "view",
      "type": "function"
    },
    {
      "inputs": [],
      "name": "launch",
      "outputs": [
        {
          "internalType": "uint256",
          "name": "",
          "type": "uint256"
        }
      ],
      "stateMutability": "view",
      "type": "function"
    },
    {
      "inputs": [],
      "name": "lockup",
      "outputs": [
        {
          "internalType": "uint256",
          "name": "",
          "type": "uint256"
        }
      ],
      "stateMutability": "view",
      "type": "function"
    },
    {
      "inputs": [
        {
          "internalType": "uint256",
          "name": "",
          "type": "uint256"
        }
      ],
      "name": "mandatory",
      "outputs": [
        {
          "internalType": "address",
          "name": "",
          "type": "address"
        }
      ],
      "stateMutability": "view",
      "type": "function"
    },
    {
      "inputs": [],
      "name": "mysteryBox",
      "outputs": [
        {
          "internalType": "address",
          "name": "",
          "type": "address"
        }
      ],
      "stateMutability": "view",
      "type": "function"
    },
    {
      "inputs": [],
      "name": "name",
      "outputs": [
        {
          "internalType": "string",
          "name": "",
          "type": "string"
        }
      ],
      "stateMutability": "view",
      "type": "function"
    },
    {
      "inputs": [
        {
          "internalType": "address",
          "name": "operator",
          "type": "address"
        },
        {
          "internalType": "address",
          "name": "from",
          "type": "address"
        },
        {
          "internalType": "uint256",
          "name": "tokenId",
          "type": "uint256"
        },
        {
          "internalType": "bytes",
          "name": "data",
          "type": "bytes"
        }
      ],
      "name": "onERC721Received",
      "outputs": [
        {
          "internalType": "bytes4",
          "name": "",
          "type": "bytes4"
        }
      ],
      "stateMutability": "pure",
      "type": "function"
    },
    {
      "inputs": [],
      "name": "owner",
      "outputs": [
        {
          "internalType": "address",
          "name": "",
          "type": "address"
        }
      ],
      "stateMutability": "view",
      "type": "function"
    },
    {
      "inputs": [
        {
          "internalType": "uint256",
          "name": "tokenId",
          "type": "uint256"
        }
      ],
      "name": "ownerOf",
      "outputs": [
        {
          "internalType": "address",
          "name": "",
          "type": "address"
        }
      ],
      "stateMutability": "view",
      "type": "function"
    },
    {
      "inputs": [],
      "name": "pause",
      "outputs": [],
      "stateMutability": "nonpayable",
      "type": "function"
    },
    {
      "inputs": [],
      "name": "paused",
      "outputs": [
        {
          "internalType": "bool",
          "name": "",
          "type": "bool"
        }
      ],
      "stateMutability": "view",
      "type": "function"
    },
    {
      "inputs": [],
      "name": "payment",
      "outputs": [
        {
          "internalType": "address",
          "name": "",
          "type": "address"
        }
      ],
      "stateMutability": "view",
      "type": "function"
    },
    {
      "inputs": [],
      "name": "quote",
      "outputs": [
        {
          "internalType": "address",
          "name": "",
          "type": "address"
        }
      ],
      "stateMutability": "view",
      "type": "function"
    },
    {
      "inputs": [
        {
          "internalType": "string[]",
          "name": "uris",
          "type": "string[]"
        },
        {
          "internalType": "uint256[]",
          "name": "amounts",
          "type": "uint256[]"
        },
        {
          "internalType": "uint256[]",
          "name": "prices",
          "type": "uint256[]"
        }
      ],
      "name": "registerItems",
      "outputs": [],
      "stateMutability": "nonpayable",
      "type": "function"
    },
    {
      "inputs": [],
      "name": "renounceOwnership",
      "outputs": [],
      "stateMutability": "nonpayable",
      "type": "function"
    },
    {
      "inputs": [
        {
          "internalType": "bytes32",
          "name": "role",
          "type": "bytes32"
        },
        {
          "internalType": "address",
          "name": "account",
          "type": "address"
        }
      ],
      "name": "renounceRole",
      "outputs": [],
      "stateMutability": "nonpayable",
      "type": "function"
    },
    {
      "inputs": [
        {
          "internalType": "bytes32",
          "name": "role",
          "type": "bytes32"
        },
        {
          "internalType": "address",
          "name": "account",
          "type": "address"
        }
      ],
      "name": "revokeRole",
      "outputs": [],
      "stateMutability": "nonpayable",
      "type": "function"
    },
    {
      "inputs": [
        {
          "internalType": "address",
          "name": "to",
          "type": "address"
        },
        {
          "internalType": "string[]",
          "name": "uris",
          "type": "string[]"
        }
      ],
      "name": "safeBatchMint",
      "outputs": [],
      "stateMutability": "view",
      "type": "function"
    },
    {
      "inputs": [
        {
          "internalType": "address",
          "name": "to",
          "type": "address"
        },
        {
          "internalType": "string",
          "name": "uri",
          "type": "string"
        },
        {
          "internalType": "uint256",
          "name": "amount",
          "type": "uint256"
        }
      ],
      "name": "safeBatchMintLight",
      "outputs": [],
      "stateMutability": "nonpayable",
      "type": "function"
    },
    {
      "inputs": [
        {
          "internalType": "address",
          "name": "to",
          "type": "address"
        },
        {
          "internalType": "string",
          "name": "uri",
          "type": "string"
        }
      ],
      "name": "safeMint",
      "outputs": [
        {
          "internalType": "uint256",
          "name": "",
          "type": "uint256"
        }
      ],
      "stateMutability": "view",
      "type": "function"
    },
    {
      "inputs": [
        {
          "internalType": "address",
          "name": "to",
          "type": "address"
        }
      ],
      "name": "safeMintTo",
      "outputs": [],
      "stateMutability": "nonpayable",
      "type": "function"
    },
    {
      "inputs": [
        {
          "internalType": "address",
          "name": "from",
          "type": "address"
        },
        {
          "internalType": "address",
          "name": "to",
          "type": "address"
        },
        {
          "internalType": "uint256",
          "name": "tokenId",
          "type": "uint256"
        }
      ],
      "name": "safeTransferFrom",
      "outputs": [],
      "stateMutability": "nonpayable",
      "type": "function"
    },
    {
      "inputs": [
        {
          "internalType": "address",
          "name": "from",
          "type": "address"
        },
        {
          "internalType": "address",
          "name": "to",
          "type": "address"
        },
        {
          "internalType": "uint256",
          "name": "tokenId",
          "type": "uint256"
        },
        {
          "internalType": "bytes",
          "name": "_data",
          "type": "bytes"
        }
      ],
      "name": "safeTransferFrom",
      "outputs": [],
      "stateMutability": "nonpayable",
      "type": "function"
    },
    {
      "inputs": [
        {
          "internalType": "address",
          "name": "operator",
          "type": "address"
        },
        {
          "internalType": "bool",
          "name": "approved",
          "type": "bool"
        }
      ],
      "name": "setApprovalForAll",
      "outputs": [],
      "stateMutability": "nonpayable",
      "type": "function"
    },
    {
      "inputs": [
        {
          "internalType": "address",
          "name": "_payment",
          "type": "address"
        },
        {
          "internalType": "address",
          "name": "_treasury",
          "type": "address"
        },
        {
          "internalType": "uint256",
          "name": "_feeRate",
          "type": "uint256"
        }
      ],
      "name": "setConfig",
      "outputs": [],
      "stateMutability": "nonpayable",
      "type": "function"
    },
    {
      "inputs": [
        {
          "internalType": "uint256",
          "name": "_hardCap",
          "type": "uint256"
        },
        {
          "internalType": "string",
          "name": "_uri",
          "type": "string"
        }
      ],
      "name": "setHardCap",
      "outputs": [],
      "stateMutability": "nonpayable",
      "type": "function"
    },
    {
      "inputs": [
        {
          "internalType": "uint256",
          "name": "_launch",
          "type": "uint256"
        }
      ],
      "name": "setLaunch",
      "outputs": [],
      "stateMutability": "nonpayable",
      "type": "function"
    },
    {
      "inputs": [
        {
          "internalType": "uint256",
          "name": "_lockup",
          "type": "uint256"
        }
      ],
      "name": "setLockup",
      "outputs": [],
      "stateMutability": "nonpayable",
      "type": "function"
    },
    {
      "inputs": [
        {
          "internalType": "address[]",
          "name": "_nfts",
          "type": "address[]"
        },
        {
          "internalType": "bool",
          "name": "_andOr",
          "type": "bool"
        }
      ],
      "name": "setMandatory",
      "outputs": [],
      "stateMutability": "nonpayable",
      "type": "function"
    },
    {
      "inputs": [
        {
          "internalType": "address",
          "name": "_mbox",
          "type": "address"
        }
      ],
      "name": "setMysteryBox",
      "outputs": [],
      "stateMutability": "nonpayable",
      "type": "function"
    },
    {
      "inputs": [
        {
          "internalType": "address",
          "name": "_quote",
          "type": "address"
        }
      ],
      "name": "setQuote",
      "outputs": [],
      "stateMutability": "nonpayable",
      "type": "function"
    },
    {
      "inputs": [
        {
          "internalType": "bytes4",
          "name": "interfaceId",
          "type": "bytes4"
        }
      ],
      "name": "supportsInterface",
      "outputs": [
        {
          "internalType": "bool",
          "name": "",
          "type": "bool"
        }
      ],
      "stateMutability": "view",
      "type": "function"
    },
    {
      "inputs": [],
      "name": "symbol",
      "outputs": [
        {
          "internalType": "string",
          "name": "",
          "type": "string"
        }
      ],
      "stateMutability": "view",
      "type": "function"
    },
    {
      "inputs": [
        {
          "internalType": "uint256",
          "name": "index",
          "type": "uint256"
        }
      ],
      "name": "tokenByIndex",
      "outputs": [
        {
          "internalType": "uint256",
          "name": "",
          "type": "uint256"
        }
      ],
      "stateMutability": "view",
      "type": "function"
    },
    {
      "inputs": [
        {
          "internalType": "address",
          "name": "owner",
          "type": "address"
        },
        {
          "internalType": "uint256",
          "name": "index",
          "type": "uint256"
        }
      ],
      "name": "tokenOfOwnerByIndex",
      "outputs": [
        {
          "internalType": "uint256",
          "name": "",
          "type": "uint256"
        }
      ],
      "stateMutability": "view",
      "type": "function"
    },
    {
      "inputs": [
        {
          "internalType": "uint256",
          "name": "tokenId",
          "type": "uint256"
        }
      ],
      "name": "tokenURI",
      "outputs": [
        {
          "internalType": "string",
          "name": "",
          "type": "string"
        }
      ],
      "stateMutability": "view",
      "type": "function"
    },
    {
      "inputs": [],
      "name": "totalItems",
      "outputs": [
        {
          "internalType": "uint256",
          "name": "",
          "type": "uint256"
        }
      ],
      "stateMutability": "view",
      "type": "function"
    },
    {
      "inputs": [],
      "name": "totalSupply",
      "outputs": [
        {
          "internalType": "uint256",
          "name": "",
          "type": "uint256"
        }
      ],
      "stateMutability": "view",
      "type": "function"
    },
    {
      "inputs": [
        {
          "internalType": "address",
          "name": "from",
          "type": "address"
        },
        {
          "internalType": "address",
          "name": "to",
          "type": "address"
        },
        {
          "internalType": "uint256",
          "name": "tokenId",
          "type": "uint256"
        }
      ],
      "name": "transferFrom",
      "outputs": [],
      "stateMutability": "nonpayable",
      "type": "function"
    },
    {
      "inputs": [
        {
          "internalType": "address",
          "name": "newOwner",
          "type": "address"
        }
      ],
      "name": "transferOwnership",
      "outputs": [],
      "stateMutability": "nonpayable",
      "type": "function"
    },
    {
      "inputs": [],
      "name": "treasury",
      "outputs": [
        {
          "internalType": "address",
          "name": "",
          "type": "address"
        }
      ],
      "stateMutability": "view",
      "type": "function"
    },
    {
      "inputs": [],
      "name": "unpause",
      "outputs": [],
      "stateMutability": "nonpayable",
      "type": "function"
    },
    {
      "stateMutability": "payable",
      "type": "receive"
    }
  ],
  "bytecode": "0x60806040526000600d819055601280546001600160a01b03191690556077556032607c556081805460ff199081169091556083805490911690553480156200004657600080fd5b5060405162005d2538038062005d258339810160408190526200006991620007e1565b858581818160009080519060200190620000859291906200068d565b5080516200009b9060019060208401906200068d565b5050600b805460ff1916905550620000b3336200025e565b620000c0600033620002b8565b620000db60008051602062005ce583398151915233620002b8565b620000f660008051602062005d0583398151915233620002b8565b505060016011558051600314620001545760405162461bcd60e51b815260206004820152601a60248201527f696e76616c696420636f6e6669672064617461206c656e67746800000000000060448201526064015b60405180910390fd5b62000161600033620002b8565b6200017c60008051602062005ce583398151915233620002b8565b6200019760008051602062005d0583398151915233620002b8565b620001d181600081518110620001bd57634e487b7160e01b600052603260045260246000fd5b60200260200101516200035d60201b60201c565b6200020b81600181518110620001f757634e487b7160e01b600052603260045260246000fd5b6020026020010151620003ea60201b60201c565b620002478383836002815181106200023357634e487b7160e01b600052603260045260246000fd5b60200260200101516200047160201b60201c565b6200025284620005ed565b5050505050506200099b565b600b80546001600160a01b03838116610100818102610100600160a81b031985161790945560405193909204169182907f8be0079c531659141344cd1fd0a4f28419497f9722a3daafe3b4186f6b6457e090600090a35050565b6000828152600c602090815260408083206001600160a01b038516845290915290205460ff1662000359576000828152600c602090815260408083206001600160a01b03851684529091529020805460ff19166001179055620003183390565b6001600160a01b0316816001600160a01b0316837f2f8788117e7eff1d82e926ec794901d17c78024a50270940304540a733656f0d60405160405180910390a45b5050565b600b546001600160a01b03610100909104163314620003ae5760405162461bcd60e51b8152602060048201819052602482015260008051602062005cc583398151915260448201526064016200014b565b60788190556040518181527f7c8826e4db3679f20c86da0c68d37f9dbcd1d638c56717e014f93c56d14c02d1906020015b60405180910390a150565b600b546001600160a01b036101009091041633146200043b5760405162461bcd60e51b8152602060048201819052602482015260008051602062005cc583398151915260448201526064016200014b565b60798190556040518181527fa7ade4ab976b6643a971383d9822fb7c2fce66aa2e497d88c3b4f1475ea2b2e090602001620003df565b600b546001600160a01b03610100909104163314620004c25760405162461bcd60e51b8152602060048201819052602482015260008051602062005cc583398151915260448201526064016200014b565b6001600160a01b0383166200051a5760405162461bcd60e51b815260206004820152601760248201527f696e76616c6964207061796d656e74206164647265737300000000000000000060448201526064016200014b565b6001600160a01b038216620005725760405162461bcd60e51b815260206004820152601860248201527f696e76616c69642074726561737572792061646472657373000000000000000060448201526064016200014b565b607a80546001600160a01b038581166001600160a01b03199283168117909355607b8054918616919092168117909155607c83905560408051928352602083019190915281018290527fe2be3027f197494650b7a98fd1cae67dacf615bd1d8bb05102999676f11638669060600160405180910390a1505050565b600b546001600160a01b036101009091041633146200063e5760405162461bcd60e51b8152602060048201819052602482015260008051602062005cc583398151915260448201526064016200014b565b601280546001600160a01b0319166001600160a01b0383169081179091556040519081527fca92c759228172fe3894a344908fd20dfd37ba561b5af191f1f5b02ee03881fc90602001620003df565b8280546200069b9062000948565b90600052602060002090601f016020900481019282620006bf57600085556200070a565b82601f10620006da57805160ff19168380011785556200070a565b828001600101855582156200070a579182015b828111156200070a578251825591602001919060010190620006ed565b50620007189291506200071c565b5090565b5b808211156200071857600081556001016200071d565b80516001600160a01b03811681146200074b57600080fd5b919050565b600082601f83011262000761578081fd5b81516001600160401b038111156200077d576200077d62000985565b602062000793601f8301601f1916820162000915565b8281528582848701011115620007a7578384fd5b835b83811015620007c6578581018301518282018401528201620007a9565b83811115620007d757848385840101525b5095945050505050565b60008060008060008060c08789031215620007fa578182fd5b86516001600160401b038082111562000811578384fd5b6200081f8a838b0162000750565b975060209150818901518181111562000836578485fd5b620008448b828c0162000750565b9750506200085560408a0162000733565b95506200086560608a0162000733565b94506200087560808a0162000733565b935060a08901518181111562000889578384fd5b8901601f81018b136200089a578384fd5b805182811115620008af57620008af62000985565b8060051b9250620008c284840162000915565b8181528481019083860185850187018f1015620008dd578788fd5b8795505b8386101562000901578051835260019590950194918601918601620008e1565b508096505050505050509295509295509295565b604051601f8201601f191681016001600160401b038111828210171562000940576200094062000985565b604052919050565b600181811c908216806200095d57607f821691505b602082108114156200097f57634e487b7160e01b600052602260045260246000fd5b50919050565b634e487b7160e01b600052604160045260246000fd5b61531a80620009ab6000396000f3fe6080604052600436106103e85760003560e01c8063715018a611610208578063b5a87cc111610118578063d3d3224a116100ab578063e985e9c51161007a578063e985e9c514610b93578063ec32719614610bdc578063f2fde38b14610bfc578063f3c8dc5914610c1c578063fb86a40414610c3c57600080fd5b8063d3d3224a14610b1a578063d539139314610b2f578063d547741f14610b51578063e63ab1e914610b7157600080fd5b8063bf91ad9e116100e7578063bf91ad9e14610a9a578063c38b761c14610aba578063c87b56dd14610ada578063d204c45e14610afa57600080fd5b8063b5a87cc114610a1b578063b88d4fde14610a3b578063b9d6abe914610a5b578063bebc2b5214610a7b57600080fd5b8063902835f61161019b578063983b2d561161016a578063983b2d5614610986578063999b93af146109a6578063a217fddf146109c6578063a22cb465146109db578063a2aa61eb146109fb57600080fd5b8063902835f61461091b57806391d148541461093b57806395d89b411461095b578063978bbdb91461097057600080fd5b80638456cb59116101d75780638456cb59146108b057806385be1b3b146108c55780638a55b866146108d85780638da5cb5b146108f857600080fd5b8063715018a6146108415780637b43b82714610856578063809a249e1461087657806382dc1ec41461089057600080fd5b806330c045a81161030357806358dd6d95116102965780635dce7383116102655780635dce7383146107ac57806361d027b3146107c15780636352211e146107e15780636ae6b4591461080157806370a082311461082157600080fd5b806358dd6d95146107345780635c975abb146107545780635d1d37c31461076c5780635d814dea1461078c57600080fd5b806342842e0e116102d257806342842e0e146106b457806342966c68146106d457806342f6487a146106f45780634f6ccce71461071457600080fd5b806330c045a81461063f57806336568abe1461065f5780633f4ba83a1461067f5780633f7d70551461069457600080fd5b806321bae9e41161037b5780632799276d1161034a5780632799276d146105c95780632f2ff15d146105df5780632f745c59146105ff5780632f7859081461061f57600080fd5b806321bae9e41461053957806323b872dd146105595780632449065914610579578063248a9ca31461059957600080fd5b8063081812fc116103b7578063081812fc14610485578063095ea7b3146104bd578063150b7a02146104df57806318160ddd1461052457600080fd5b806301339c21146103f457806301ffc9a71461041d57806306490f471461044d57806306fdde031461046357600080fd5b366103ef57005b600080fd5b34801561040057600080fd5b5061040a60785481565b6040519081526020015b60405180910390f35b34801561042957600080fd5b5061043d610438366004614cc4565b610c52565b6040519015158152602001610414565b34801561045957600080fd5b5061040a60795481565b34801561046f57600080fd5b50610478610c7d565b6040516104149190614eeb565b34801561049157600080fd5b506104a56104a0366004614c8a565b610d0f565b6040516001600160a01b039091168152602001610414565b3480156104c957600080fd5b506104dd6104d8366004614b42565b610d9c565b005b3480156104eb57600080fd5b5061050b6104fa36600461491f565b630a85bd0160e11b95945050505050565b6040516001600160e01b03199091168152602001610414565b34801561053057600080fd5b5060085461040a565b34801561054557600080fd5b506104dd610554366004614898565b610eb2565b34801561056557600080fd5b506104dd6105743660046148e4565b610fff565b34801561058557600080fd5b506104dd610594366004614d14565b611031565b3480156105a557600080fd5b5061040a6105b4366004614c8a565b6000908152600c602052604090206001015490565b3480156105d557600080fd5b5061040a60775481565b3480156105eb57600080fd5b506104dd6105fa366004614ca2565b6110b9565b34801561060b57600080fd5b5061040a61061a366004614b42565b6110de565b34801561062b57600080fd5b506104a561063a366004614c8a565b611174565b34801561064b57600080fd5b506104dd61065a366004614d63565b61119e565b34801561066b57600080fd5b506104dd61067a366004614ca2565b61162e565b34801561068b57600080fd5b506104dd6116ac565b3480156106a057600080fd5b506104dd6106af366004614d97565b6116cf565b3480156106c057600080fd5b506104dd6106cf3660046148e4565b611c8c565b3480156106e057600080fd5b506104dd6106ef366004614c8a565b611ca7565b34801561070057600080fd5b50607a546104a5906001600160a01b031681565b34801561072057600080fd5b5061040a61072f366004614c8a565b611d1e565b34801561074057600080fd5b506104dd61074f366004614a2c565b611dbf565b34801561076057600080fd5b50600b5460ff1661043d565b34801561077857600080fd5b506104dd610787366004614c8a565b611e0a565b34801561079857600080fd5b506104786107a7366004614c8a565b611e76565b3480156107b857600080fd5b5061040a611f22565b3480156107cd57600080fd5b50607b546104a5906001600160a01b031681565b3480156107ed57600080fd5b506104a56107fc366004614c8a565b611fbe565b34801561080d57600080fd5b506104dd61081c366004614c8a565b612035565b34801561082d57600080fd5b5061040a61083c366004614898565b61209a565b34801561084d57600080fd5b506104dd612121565b34801561086257600080fd5b506104dd610871366004614898565b61215d565b34801561088257600080fd5b5060835461043d9060ff1681565b34801561089c57600080fd5b506104dd6108ab366004614898565b6121fd565b3480156108bc57600080fd5b506104dd6122a3565b6104dd6108d3366004614d42565b6122c3565b3480156108e457600080fd5b5061040a6108f3366004614c8a565b612741565b34801561090457600080fd5b50600b5461010090046001600160a01b03166104a5565b34801561092757600080fd5b506104dd6109363660046148e4565b612762565b34801561094757600080fd5b5061043d610956366004614ca2565b6128b9565b34801561096757600080fd5b506104786128e4565b34801561097c57600080fd5b5061040a607c5481565b34801561099257600080fd5b506104dd6109a1366004614898565b6128f3565b3480156109b257600080fd5b506012546104a5906001600160a01b031681565b3480156109d257600080fd5b5061040a600081565b3480156109e757600080fd5b506104dd6109f6366004614a77565b612999565b348015610a0757600080fd5b506104dd610a16366004614898565b6129a4565b348015610a2757600080fd5b506104dd610a36366004614aee565b612a22565b348015610a4757600080fd5b506104dd610a563660046149b4565b612ab4565b348015610a6757600080fd5b5061040a610a76366004614c8a565b612aec565b348015610a8757600080fd5b5060835461043d90610100900460ff1681565b348015610aa657600080fd5b5061040a610ab5366004614c8a565b612afc565b348015610ac657600080fd5b50600f546104a5906001600160a01b031681565b348015610ae657600080fd5b50610478610af5366004614c8a565b612b0c565b348015610b0657600080fd5b5061040a610b15366004614aad565b612b17565b348015610b2657600080fd5b50610478612b31565b348015610b3b57600080fd5b5061040a6000805160206152c583398151915281565b348015610b5d57600080fd5b506104dd610b6c366004614ca2565b612b3e565b348015610b7d57600080fd5b5061040a6000805160206152a583398151915281565b348015610b9f57600080fd5b5061043d610bae3660046148b2565b6001600160a01b03918216600090815260056020908152604080832093909416825291909152205460ff1690565b348015610be857600080fd5b506104dd610bf7366004614b6b565b612b63565b348015610c0857600080fd5b506104dd610c17366004614898565b612c4a565b348015610c2857600080fd5b506104dd610c37366004614beb565b612ce8565b348015610c4857600080fd5b5061040a600d5481565b60006001600160e01b031982166380ac58cd60e01b1480610c775750610c7782612e9f565b92915050565b606060008054610c8c906151da565b80601f0160208091040260200160405190810160405280929190818152602001828054610cb8906151da565b8015610d055780601f10610cda57610100808354040283529160200191610d05565b820191906000526020600020905b815481529060010190602001808311610ce857829003601f168201915b5050505050905090565b6000610d1a82612ec4565b610d805760405162461bcd60e51b815260206004820152602c60248201527f4552433732313a20617070726f76656420717565727920666f72206e6f6e657860448201526b34b9ba32b73a103a37b5b2b760a11b60648201526084015b60405180910390fd5b506000908152600460205260409020546001600160a01b031690565b6000610da782611fbe565b9050806001600160a01b0316836001600160a01b03161415610e155760405162461bcd60e51b815260206004820152602160248201527f4552433732313a20617070726f76616c20746f2063757272656e74206f776e656044820152603960f91b6064820152608401610d77565b336001600160a01b0382161480610e315750610e318133610bae565b610ea35760405162461bcd60e51b815260206004820152603860248201527f4552433732313a20617070726f76652063616c6c6572206973206e6f74206f7760448201527f6e6572206e6f7220617070726f76656420666f7220616c6c00000000000000006064820152608401610d77565b610ead8383612ee1565b505050565b6000805160206152c5833981519152610eca81612f4f565b6000600e8054610ed9906151da565b905011610f205760405162461bcd60e51b815260206004820152601560248201527411db1bd8985b08155492481a5cc81b9bdd081cd95d605a1b6044820152606401610d77565b6001600160a01b038216610f6b5760405162461bcd60e51b8152602060048201526012602482015271496e76616c696420746f206164647265737360701b6044820152606401610d77565b610ead82600e8054610f7c906151da565b80601f0160208091040260200160405190810160405280929190818152602001828054610fa8906151da565b8015610ff55780601f10610fca57610100808354040283529160200191610ff5565b820191906000526020600020905b815481529060010190602001808311610fd857829003601f168201915b5050505050612b17565b61100a335b82612f59565b6110265760405162461bcd60e51b8152600401610d7790615091565b610ead838383613043565b600b546001600160a01b036101009091041633146110615760405162461bcd60e51b8152600401610d7790614fa3565b600d829055805161107990600e906020840190614599565b507f57bbf0b7295e3c8587fe0fa3c76592771f6a96123bf723292fd0e3933436b71f600d546040516110ad91815260200190565b60405180910390a15050565b6000828152600c60205260409020600101546110d481612f4f565b610ead83836131ea565b60006110e98361209a565b821061114b5760405162461bcd60e51b815260206004820152602b60248201527f455243373231456e756d657261626c653a206f776e657220696e646578206f7560448201526a74206f6620626f756e647360a81b6064820152608401610d77565b506001600160a01b03919091166000908152600660209081526040808320938352929052205490565b6082818154811061118457600080fd5b6000918252602090912001546001600160a01b0316905081565b6000805160206152c58339815191526111b681612f4f565b60785442116111d75760405162461bcd60e51b8152600401610d779061505a565b607f84815481106111f857634e487b7160e01b600052603260045260246000fd5b9060005260206000200154607e858154811061122457634e487b7160e01b600052603260045260246000fd5b90600052602060002001541161124c5760405162461bcd60e51b8152600401610d7790614f7c565b61128a83607f868154811061127157634e487b7160e01b600052603260045260246000fd5b906000526020600020015461327090919063ffffffff16565b607e85815481106112ab57634e487b7160e01b600052603260045260246000fd5b906000526020600020015410156112d45760405162461bcd60e51b8152600401610d7790614f50565b60835460ff1615611428576000805b6082548110156114055760006082828154811061131057634e487b7160e01b600052603260045260246000fd5b6000918252602090912001546040516370a0823160e01b81523360048201526001600160a01b03909116906370a082319060240160206040518083038186803b15801561135c57600080fd5b505afa158015611370573d6000803e3d6000fd5b505050506040513d601f19601f820116820180604052508101906113949190614cfc565b608354909150610100900460ff16156113d957600081116113c75760405162461bcd60e51b8152600401610d7790614fd8565b6113d2836001613270565b92506113f2565b80156113f2576113ea836001613270565b925050611405565b50806113fd8161520f565b9150506112e3565b50600081116114265760405162461bcd60e51b8152600401610d7790614fd8565b505b6000805b607e54811015611491578086101561147f5761147c607e828154811061146257634e487b7160e01b600052603260045260246000fd5b90600052602060002001548361327090919063ffffffff16565b91505b806114898161520f565b91505061142c565b5060005b848110156115d45760006114d26114cb601389606481106114c657634e487b7160e01b600052603260045260246000fd5b015490565b8490613270565b90506115928582607d8a815481106114fa57634e487b7160e01b600052603260045260246000fd5b90600052602060002001805461150f906151da565b80601f016020809104026020016040519081016040528092919081815260200182805461153b906151da565b80156115885780601f1061155d57610100808354040283529160200191611588565b820191906000526020600020905b81548152906001019060200180831161156b57829003601f168201915b5050505050613283565b506115c1601388606481106115b757634e487b7160e01b600052603260045260246000fd5b0180546001019055565b50806115cc8161520f565b915050611495565b506115fa84607f878154811061127157634e487b7160e01b600052603260045260246000fd5b607f868154811061161b57634e487b7160e01b600052603260045260246000fd5b6000918252602090912001555050505050565b6001600160a01b038116331461169e5760405162461bcd60e51b815260206004820152602f60248201527f416363657373436f6e74726f6c3a2063616e206f6e6c792072656e6f756e636560448201526e103937b632b9903337b91039b2b63360891b6064820152608401610d77565b6116a8828261329a565b5050565b6000805160206152a58339815191526116c481612f4f565b6116cc613301565b50565b6012546001600160a01b031661171b5760405162461bcd60e51b81526020600482015260116024820152702bb937b7339038bab7ba32903a37b5b2b760791b6044820152606401610d77565b607854421161173c5760405162461bcd60e51b8152600401610d779061505a565b6000821161175c5760405162461bcd60e51b8152600401610d7790615019565b61179a6080848154811061178057634e487b7160e01b600052603260045260246000fd5b90600052602060002001548261339490919063ffffffff16565b82146117e85760405162461bcd60e51b815260206004820152601d60248201527f76616c756520616e6420616d6f756e74206973206e6f74206d617463680000006044820152606401610d77565b6012546040516370a0823160e01b81523360048201526000916001600160a01b0316906370a082319060240160206040518083038186803b15801561182c57600080fd5b505afa158015611840573d6000803e3d6000fd5b505050506040513d601f19601f820116820180604052508101906118649190614cfc565b90508281116118b55760405162461bcd60e51b815260206004820152601b60248201527f6c61636b206f662071756f746520746f6b656e2062616c616e636500000000006044820152606401610d77565b607f84815481106118d657634e487b7160e01b600052603260045260246000fd5b9060005260206000200154607e858154811061190257634e487b7160e01b600052603260045260246000fd5b90600052602060002001541161192a5760405162461bcd60e51b8152600401610d7790614f7c565b61194f82607f868154811061127157634e487b7160e01b600052603260045260246000fd5b607e858154811061197057634e487b7160e01b600052603260045260246000fd5b906000526020600020015410156119995760405162461bcd60e51b8152600401610d7790614f50565b60835460ff1615611aed576000805b608254811015611aca576000608282815481106119d557634e487b7160e01b600052603260045260246000fd5b6000918252602090912001546040516370a0823160e01b81523360048201526001600160a01b03909116906370a082319060240160206040518083038186803b158015611a2157600080fd5b505afa158015611a35573d6000803e3d6000fd5b505050506040513d601f19601f82011682018060405250810190611a599190614cfc565b608354909150610100900460ff1615611a9e5760008111611a8c5760405162461bcd60e51b8152600401610d7790614fd8565b611a97836001613270565b9250611ab7565b8015611ab757611aaf836001613270565b925050611aca565b5080611ac28161520f565b9150506119a8565b5060008111611aeb5760405162461bcd60e51b8152600401610d7790614fd8565b505b6012546040516323b872dd60e01b8152336004820152306024820152604481018590526001600160a01b03909116906323b872dd90606401602060405180830381600087803b158015611b3f57600080fd5b505af1158015611b53573d6000803e3d6000fd5b505050506040513d601f19601f82011682018060405250810190611b779190614c6e565b506000805b607e54811015611bc75780861015611bb557611bb2607e828154811061146257634e487b7160e01b600052603260045260246000fd5b91505b80611bbf8161520f565b915050611b7c565b5060005b83811015611c5c576000611bfc6114cb601389606481106114c657634e487b7160e01b600052603260045260246000fd5b9050611c243382607d8a815481106114fa57634e487b7160e01b600052603260045260246000fd5b50611c49601388606481106115b757634e487b7160e01b600052603260045260246000fd5b5080611c548161520f565b915050611bcb565b50611c6785846133a0565b6115fa83607f878154811061127157634e487b7160e01b600052603260045260246000fd5b610ead83838360405180602001604052806000815250612ab4565b611cb033611004565b611d155760405162461bcd60e51b815260206004820152603060248201527f4552433732314275726e61626c653a2063616c6c6572206973206e6f74206f7760448201526f1b995c881b9bdc88185c1c1c9bdd995960821b6064820152608401610d77565b6116cc816135c2565b6000611d2960085490565b8210611d8c5760405162461bcd60e51b815260206004820152602c60248201527f455243373231456e756d657261626c653a20676c6f62616c20696e646578206f60448201526b7574206f6620626f756e647360a01b6064820152608401610d77565b60088281548110611dad57634e487b7160e01b600052603260045260246000fd5b90600052602060002001549050919050565b6000805160206152c5833981519152611dd781612f4f565b60405162461bcd60e51b8152602060048201526008602482015267111a5cd8589b195960c21b6044820152606401610d77565b600b546001600160a01b03610100909104163314611e3a5760405162461bcd60e51b8152600401610d7790614fa3565b60788190556040518181527f7c8826e4db3679f20c86da0c68d37f9dbcd1d638c56717e014f93c56d14c02d1906020015b60405180910390a150565b607d8181548110611e8657600080fd5b906000526020600020016000915090508054611ea1906151da565b80601f0160208091040260200160405190810160405280929190818152602001828054611ecd906151da565b8015611f1a5780601f10611eef57610100808354040283529160200191611f1a565b820191906000526020600020905b815481529060010190602001808311611efd57829003601f168201915b505050505081565b600080805b607e54811015611fb857611fa4611f9d607f8381548110611f5857634e487b7160e01b600052603260045260246000fd5b9060005260206000200154607e8481548110611f8457634e487b7160e01b600052603260045260246000fd5b90600052602060002001546135cb90919063ffffffff16565b8390613270565b915080611fb08161520f565b915050611f27565b50919050565b6000818152600260205260408120546001600160a01b031680610c775760405162461bcd60e51b815260206004820152602960248201527f4552433732313a206f776e657220717565727920666f72206e6f6e657869737460448201526832b73a103a37b5b2b760b91b6064820152608401610d77565b600b546001600160a01b036101009091041633146120655760405162461bcd60e51b8152600401610d7790614fa3565b60798190556040518181527fa7ade4ab976b6643a971383d9822fb7c2fce66aa2e497d88c3b4f1475ea2b2e090602001611e6b565b60006001600160a01b0382166121055760405162461bcd60e51b815260206004820152602a60248201527f4552433732313a2062616c616e636520717565727920666f7220746865207a65604482015269726f206164647265737360b01b6064820152608401610d77565b506001600160a01b031660009081526003602052604090205490565b600b546001600160a01b036101009091041633146121515760405162461bcd60e51b8152600401610d7790614fa3565b61215b60006135d7565b565b600b546001600160a01b0361010090910416331461218d5760405162461bcd60e51b8152600401610d7790614fa3565b600f80546001600160a01b0319166001600160a01b0383161790556121c06000805160206152c5833981519152826131ea565b600f546040516001600160a01b0390911681527f329b1203fc60a62c4a0fd3ff1554a07f92a2f117cc590422dd105811bb484ded90602001611e6b565b600b546001600160a01b0361010090910416331461222d5760405162461bcd60e51b8152600401610d7790614fa3565b6122456000805160206152a5833981519152826131ea565b604080516001600160a01b038316815260208101829052600b918101919091526a5041555345525f524f4c4560a81b60608201527f0578acc86b18d67c13a5e6eed8c670fb7052f530b48a2acb167d6ca77509a38490608001611e6b565b6000805160206152a58339815191526122bb81612f4f565b6116cc613631565b6012546001600160a01b0316156123105760405162461bcd60e51b81526020600482015260116024820152702bb937b7339038bab7ba32903a37b5b2b760791b6044820152606401610d77565b60785442116123315760405162461bcd60e51b8152600401610d779061505a565b600034116123515760405162461bcd60e51b8152600401610d7790615019565b6123756080838154811061178057634e487b7160e01b600052603260045260246000fd5b34146123c35760405162461bcd60e51b815260206004820152601d60248201527f76616c756520616e6420616d6f756e74206973206e6f74206d617463680000006044820152606401610d77565b607f82815481106123e457634e487b7160e01b600052603260045260246000fd5b9060005260206000200154607e838154811061241057634e487b7160e01b600052603260045260246000fd5b9060005260206000200154116124385760405162461bcd60e51b8152600401610d7790614f7c565b61245d81607f848154811061127157634e487b7160e01b600052603260045260246000fd5b607e838154811061247e57634e487b7160e01b600052603260045260246000fd5b906000526020600020015410156124a75760405162461bcd60e51b8152600401610d7790614f50565b60835460ff16156125fb576000805b6082548110156125d8576000608282815481106124e357634e487b7160e01b600052603260045260246000fd5b6000918252602090912001546040516370a0823160e01b81523360048201526001600160a01b03909116906370a082319060240160206040518083038186803b15801561252f57600080fd5b505afa158015612543573d6000803e3d6000fd5b505050506040513d601f19601f820116820180604052508101906125679190614cfc565b608354909150610100900460ff16156125ac576000811161259a5760405162461bcd60e51b8152600401610d7790614fd8565b6125a5836001613270565b92506125c5565b80156125c5576125bd836001613270565b9250506125d8565b50806125d08161520f565b9150506124b6565b50600081116125f95760405162461bcd60e51b8152600401610d7790614fd8565b505b6000805b607e5481101561264a578084101561263857612635607e828154811061146257634e487b7160e01b600052603260045260246000fd5b91505b806126428161520f565b9150506125ff565b5060005b828110156126df57600061267f6114cb601387606481106114c657634e487b7160e01b600052603260045260246000fd5b90506126a73382607d88815481106114fa57634e487b7160e01b600052603260045260246000fd5b506126cc601386606481106115b757634e487b7160e01b600052603260045260246000fd5b50806126d78161520f565b91505061264e565b506126ea83836133a0565b61270f82607f858154811061127157634e487b7160e01b600052603260045260246000fd5b607f848154811061273057634e487b7160e01b600052603260045260246000fd5b600091825260209091200155505050565b607e818154811061275157600080fd5b600091825260209091200154905081565b600b546001600160a01b036101009091041633146127925760405162461bcd60e51b8152600401610d7790614fa3565b6001600160a01b0383166127e85760405162461bcd60e51b815260206004820152601760248201527f696e76616c6964207061796d656e7420616464726573730000000000000000006044820152606401610d77565b6001600160a01b03821661283e5760405162461bcd60e51b815260206004820152601860248201527f696e76616c6964207472656173757279206164647265737300000000000000006044820152606401610d77565b607a80546001600160a01b038581166001600160a01b03199283168117909355607b8054918616919092168117909155607c83905560408051928352602083019190915281018290527fe2be3027f197494650b7a98fd1cae67dacf615bd1d8bb05102999676f11638669060600160405180910390a1505050565b6000918252600c602090815260408084206001600160a01b0393909316845291905290205460ff1690565b606060018054610c8c906151da565b600b546001600160a01b036101009091041633146129235760405162461bcd60e51b8152600401610d7790614fa3565b61293b6000805160206152c5833981519152826131ea565b604080516001600160a01b038316815260208101829052600b918101919091526a4d494e5445525f524f4c4560a81b60608201527f0578acc86b18d67c13a5e6eed8c670fb7052f530b48a2acb167d6ca77509a38490608001611e6b565b6116a83383836136ac565b600b546001600160a01b036101009091041633146129d45760405162461bcd60e51b8152600401610d7790614fa3565b601280546001600160a01b0319166001600160a01b0383169081179091556040519081527fca92c759228172fe3894a344908fd20dfd37ba561b5af191f1f5b02ee03881fc90602001611e6b565b6000805160206152c5833981519152612a3a81612f4f565b6001600160a01b038416612a855760405162461bcd60e51b8152602060048201526012602482015271496e76616c696420746f206164647265737360701b6044820152606401610d77565b60005b82811015612aad57612a9a8585612b17565b5080612aa58161520f565b915050612a88565b5050505050565b612abe3383612f59565b612ada5760405162461bcd60e51b8152600401610d7790615091565b612ae68484848461377b565b50505050565b607f818154811061275157600080fd5b6080818154811061275157600080fd5b6060610c77826137ae565b60006000805160206152c5833981519152611dd781612f4f565b600e8054611ea1906151da565b6000828152600c6020526040902060010154612b5981612f4f565b610ead838361329a565b600b546001600160a01b03610100909104163314612b935760405162461bcd60e51b8152600401610d7790614fa3565b8115612c2e5760005b82811015612c1f576082848483818110612bc657634e487b7160e01b600052603260045260246000fd5b9050602002016020810190612bdb9190614898565b81546001810183556000928352602090922090910180546001600160a01b0319166001600160a01b0390921691909117905580612c178161520f565b915050612b9c565b506083805460ff191660011790555b608380549115156101000261ff00199092169190911790555050565b600b546001600160a01b03610100909104163314612c7a5760405162461bcd60e51b8152600401610d7790614fa3565b6001600160a01b038116612cdf5760405162461bcd60e51b815260206004820152602660248201527f4f776e61626c653a206e6577206f776e657220697320746865207a65726f206160448201526564647265737360d01b6064820152608401610d77565b6116cc816135d7565b6000805160206152c5833981519152612d0081612f4f565b60815460ff1615612d535760405162461bcd60e51b815260206004820152601860248201527f4974656d7320616c7265616479207265676973746572656400000000000000006044820152606401610d77565b8251845114612d9c5760405162461bcd60e51b8152602060048201526015602482015274082e4e4c2f240d8cadccee8d040dad2e6dac2e8c6d605b1b6044820152606401610d77565b8251612daf90607e90602086019061461d565b508351612dc390607d906020870190614657565b508151612dd790608090602085019061461d565b5060005b8451811015612e8b57612e20848281518110612e0757634e487b7160e01b600052603260045260246000fd5b602002602001015160775461327090919063ffffffff16565b607755612e47601382606481106115b757634e487b7160e01b600052603260045260246000fd5b607f805460018101825560009182527f66925e85f1a4743fd8d60ba595ed74887b7caf321dd83b21e04d77c115383408015580612e838161520f565b915050612ddb565b50506081805460ff19166001179055505050565b60006001600160e01b03198216637965db0b60e01b1480610c775750610c778261391d565b6000908152600260205260409020546001600160a01b0316151590565b600081815260046020526040902080546001600160a01b0319166001600160a01b0384169081179091558190612f1682611fbe565b6001600160a01b03167f8c5be1e5ebec7d5bd14f71427d1e84f3dd0314c0f7b2291e5b200ac8c7c3b92560405160405180910390a45050565b6116cc8133613942565b6000612f6482612ec4565b612fc55760405162461bcd60e51b815260206004820152602c60248201527f4552433732313a206f70657261746f7220717565727920666f72206e6f6e657860448201526b34b9ba32b73a103a37b5b2b760a11b6064820152608401610d77565b6000612fd083611fbe565b9050806001600160a01b0316846001600160a01b0316148061301757506001600160a01b0380821660009081526005602090815260408083209388168352929052205460ff165b8061303b5750836001600160a01b031661303084610d0f565b6001600160a01b0316145b949350505050565b826001600160a01b031661305682611fbe565b6001600160a01b0316146130ba5760405162461bcd60e51b815260206004820152602560248201527f4552433732313a207472616e736665722066726f6d20696e636f72726563742060448201526437bbb732b960d91b6064820152608401610d77565b6001600160a01b03821661311c5760405162461bcd60e51b8152602060048201526024808201527f4552433732313a207472616e7366657220746f20746865207a65726f206164646044820152637265737360e01b6064820152608401610d77565b6131278383836139a6565b613132600082612ee1565b6001600160a01b038316600090815260036020526040812080546001929061315b908490615180565b90915550506001600160a01b0382166000908152600360205260408120805460019290613189908490615135565b909155505060008181526002602052604080822080546001600160a01b0319166001600160a01b0386811691821790925591518493918716917fddf252ad1be2c89b69c2b068fc378daa952ba7f163c4a11628f55a4df523b3ef91a4505050565b6131f482826128b9565b6116a8576000828152600c602090815260408083206001600160a01b03851684529091529020805460ff1916600117905561322c3390565b6001600160a01b0316816001600160a01b0316837f2f8788117e7eff1d82e926ec794901d17c78024a50270940304540a733656f0d60405160405180910390a45050565b600061327c8284615135565b9392505050565b6000806132918585856139f7565b95945050505050565b6132a482826128b9565b156116a8576000828152600c602090815260408083206001600160a01b0385168085529252808320805460ff1916905551339285917ff6391f5c32d9c69d2a47ea670b442974b53935d1edc7fd64eb21e047a839171b9190a45050565b600b5460ff1661334a5760405162461bcd60e51b815260206004820152601460248201527314185d5cd8589b194e881b9bdd081c185d5cd95960621b6044820152606401610d77565b600b805460ff191690557f5db9ee0a495bf2e6ff9c91a7834c1ba4fdd244a5e8aa4e537bd38aeae4b073aa335b6040516001600160a01b03909116815260200160405180910390a1565b600061327c8284615161565b607a546001600160a01b03166133f85760405162461bcd60e51b815260206004820152601a60248201527f7061796d656e742061646472657373206973206e6f74207365740000000000006044820152606401610d77565b60006134386080848154811061341e57634e487b7160e01b600052603260045260246000fd5b90600052602060002001548361339490919063ffffffff16565b9050600061345d6103e8613457607c548561339490919063ffffffff16565b90613a15565b9050600061346b83836135cb565b6012549091506001600160a01b03161561359657601254607b5460405163a9059cbb60e01b81526001600160a01b0391821660048201526024810185905291169063a9059cbb90604401602060405180830381600087803b1580156134cf57600080fd5b505af11580156134e3573d6000803e3d6000fd5b505050506040513d601f19601f820116820180604052508101906135079190614c6e565b50601254607a5460405163a9059cbb60e01b81526001600160a01b0391821660048201526024810184905291169063a9059cbb90604401602060405180830381600087803b15801561355857600080fd5b505af115801561356c573d6000803e3d6000fd5b505050506040513d601f19601f820116820180604052508101906135909190614c6e565b50612aad565b607b546135ac906001600160a01b031683613a21565b607a54612aad906001600160a01b031682613a21565b6116cc81613afb565b600061327c8284615180565b600b80546001600160a01b03838116610100818102610100600160a81b031985161790945560405193909204169182907f8be0079c531659141344cd1fd0a4f28419497f9722a3daafe3b4186f6b6457e090600090a35050565b600b5460ff16156136775760405162461bcd60e51b815260206004820152601060248201526f14185d5cd8589b194e881c185d5cd95960821b6044820152606401610d77565b600b805460ff191660011790557f62e78cea01bee320cd4e420270b5ea74000d11b0c9f74754ebdbfc544b05a2586133773390565b816001600160a01b0316836001600160a01b0316141561370e5760405162461bcd60e51b815260206004820152601960248201527f4552433732313a20617070726f766520746f2063616c6c6572000000000000006044820152606401610d77565b6001600160a01b03838116600081815260056020908152604080832094871680845294825291829020805460ff191686151590811790915591519182527f17307eab39ab6107e8899845ad3d59bd9653f200f220920489ca2b5937696c31910160405180910390a3505050565b613786848484613043565b61379284848484613b3b565b612ae65760405162461bcd60e51b8152600401610d7790614efe565b60606137b982612ec4565b61381f5760405162461bcd60e51b815260206004820152603160248201527f45524337323155524953746f726167653a2055524920717565727920666f72206044820152703737b732bc34b9ba32b73a103a37b5b2b760791b6064820152608401610d77565b6000828152600a602052604081208054613838906151da565b80601f0160208091040260200160405190810160405280929190818152602001828054613864906151da565b80156138b15780601f10613886576101008083540402835291602001916138b1565b820191906000526020600020905b81548152906001019060200180831161389457829003601f168201915b5050505050905060006138cf60408051602081019091526000815290565b90508051600014156138e2575092915050565b8151156139145780826040516020016138fc929190614e0a565b60405160208183030381529060405292505050919050565b61303b84613c48565b60006001600160e01b0319821663780e9d6360e01b1480610c775750610c7782613d1f565b61394c82826128b9565b6116a857613964816001600160a01b03166014613d6f565b61396f836020613d6f565b604051602001613980929190614e39565b60408051601f198184030181529082905262461bcd60e51b8252610d7791600401614eeb565b600b5460ff16156139ec5760405162461bcd60e51b815260206004820152601060248201526f14185d5cd8589b194e881c185d5cd95960821b6044820152606401610d77565b610ead838383613f50565b6000613a038484614008565b613a0d8383614022565b509092915050565b600061327c828461514d565b604080516000808252602082019092526001600160a01b038416908390604051613a4b9190614dee565b60006040518083038185875af1925050503d8060008114613a88576040519150601f19603f3d011682016040523d82523d6000602084013e613a8d565b606091505b5050905080610ead5760405162461bcd60e51b815260206004820152603460248201527f5472616e7366657248656c7065723a3a736166655472616e736665724554483a60448201527308115512081d1c985b9cd9995c8819985a5b195960621b6064820152608401610d77565b613b04816140ad565b6000818152600a602052604090208054613b1d906151da565b1590506116cc576000818152600a602052604081206116cc916146b0565b60006001600160a01b0384163b15613c3d57604051630a85bd0160e11b81526001600160a01b0385169063150b7a0290613b7f903390899088908890600401614eae565b602060405180830381600087803b158015613b9957600080fd5b505af1925050508015613bc9575060408051601f3d908101601f19168201909252613bc691810190614ce0565b60015b613c23573d808015613bf7576040519150601f19603f3d011682016040523d82523d6000602084013e613bfc565b606091505b508051613c1b5760405162461bcd60e51b8152600401610d7790614efe565b805181602001fd5b6001600160e01b031916630a85bd0160e11b14905061303b565b506001949350505050565b6060613c5382612ec4565b613cb75760405162461bcd60e51b815260206004820152602f60248201527f4552433732314d657461646174613a2055524920717565727920666f72206e6f60448201526e3732bc34b9ba32b73a103a37b5b2b760891b6064820152608401610d77565b6000613cce60408051602081019091526000815290565b90506000815111613cee576040518060200160405280600081525061327c565b80613cf884614154565b604051602001613d09929190614e0a565b6040516020818303038152906040529392505050565b60006001600160e01b031982166380ac58cd60e01b1480613d5057506001600160e01b03198216635b5e139f60e01b145b80610c7757506301ffc9a760e01b6001600160e01b0319831614610c77565b60606000613d7e836002615161565b613d89906002615135565b6001600160401b03811115613dae57634e487b7160e01b600052604160045260246000fd5b6040519080825280601f01601f191660200182016040528015613dd8576020820181803683370190505b509050600360fc1b81600081518110613e0157634e487b7160e01b600052603260045260246000fd5b60200101906001600160f81b031916908160001a905350600f60fb1b81600181518110613e3e57634e487b7160e01b600052603260045260246000fd5b60200101906001600160f81b031916908160001a9053506000613e62846002615161565b613e6d906001615135565b90505b6001811115613f01576f181899199a1a9b1b9c1cb0b131b232b360811b85600f1660108110613eaf57634e487b7160e01b600052603260045260246000fd5b1a60f81b828281518110613ed357634e487b7160e01b600052603260045260246000fd5b60200101906001600160f81b031916908160001a90535060049490941c93613efa816151c3565b9050613e70565b50831561327c5760405162461bcd60e51b815260206004820181905260248201527f537472696e67733a20686578206c656e67746820696e73756666696369656e746044820152606401610d77565b6001600160a01b038316613fab57613fa681600880546000838152600960205260408120829055600182018355919091527ff3f7a9fe364faab93b216da50a3214154f22a0a2b415b23a84c8169e8b636ee30155565b613fce565b816001600160a01b0316836001600160a01b031614613fce57613fce838261426d565b6001600160a01b038216613fe557610ead8161430a565b826001600160a01b0316826001600160a01b031614610ead57610ead82826143e3565b6116a8828260405180602001604052806000815250614427565b61402b82612ec4565b61408e5760405162461bcd60e51b815260206004820152602e60248201527f45524337323155524953746f726167653a2055524920736574206f66206e6f6e60448201526d32bc34b9ba32b73a103a37b5b2b760911b6064820152608401610d77565b6000828152600a602090815260409091208251610ead92840190614599565b60006140b882611fbe565b90506140c6816000846139a6565b6140d1600083612ee1565b6001600160a01b03811660009081526003602052604081208054600192906140fa908490615180565b909155505060008281526002602052604080822080546001600160a01b0319169055518391906001600160a01b038416907fddf252ad1be2c89b69c2b068fc378daa952ba7f163c4a11628f55a4df523b3ef908390a45050565b6060816141785750506040805180820190915260018152600360fc1b602082015290565b8160005b81156141a2578061418c8161520f565b915061419b9050600a8361514d565b915061417c565b6000816001600160401b038111156141ca57634e487b7160e01b600052604160045260246000fd5b6040519080825280601f01601f1916602001820160405280156141f4576020820181803683370190505b5090505b841561303b57614209600183615180565b9150614216600a8661522a565b614221906030615135565b60f81b81838151811061424457634e487b7160e01b600052603260045260246000fd5b60200101906001600160f81b031916908160001a905350614266600a8661514d565b94506141f8565b6000600161427a8461209a565b6142849190615180565b6000838152600760205260409020549091508082146142d7576001600160a01b03841660009081526006602090815260408083208584528252808320548484528184208190558352600790915290208190555b5060009182526007602090815260408084208490556001600160a01b039094168352600681528383209183525290812055565b60085460009061431c90600190615180565b6000838152600960205260408120546008805493945090928490811061435257634e487b7160e01b600052603260045260246000fd5b90600052602060002001549050806008838154811061438157634e487b7160e01b600052603260045260246000fd5b60009182526020808320909101929092558281526009909152604080822084905585825281205560088054806143c757634e487b7160e01b600052603160045260246000fd5b6001900381819060005260206000200160009055905550505050565b60006143ee8361209a565b6001600160a01b039093166000908152600660209081526040808320868452825280832085905593825260079052919091209190915550565b614431838361445a565b61443e6000848484613b3b565b610ead5760405162461bcd60e51b8152600401610d7790614efe565b6001600160a01b0382166144b05760405162461bcd60e51b815260206004820181905260248201527f4552433732313a206d696e7420746f20746865207a65726f20616464726573736044820152606401610d77565b6144b981612ec4565b156145065760405162461bcd60e51b815260206004820152601c60248201527f4552433732313a20746f6b656e20616c7265616479206d696e746564000000006044820152606401610d77565b614512600083836139a6565b6001600160a01b038216600090815260036020526040812080546001929061453b908490615135565b909155505060008181526002602052604080822080546001600160a01b0319166001600160a01b03861690811790915590518392907fddf252ad1be2c89b69c2b068fc378daa952ba7f163c4a11628f55a4df523b3ef908290a45050565b8280546145a5906151da565b90600052602060002090601f0160209004810192826145c7576000855561460d565b82601f106145e057805160ff191683800117855561460d565b8280016001018555821561460d579182015b8281111561460d5782518255916020019190600101906145f2565b506146199291506146e6565b5090565b82805482825590600052602060002090810192821561460d579160200282018281111561460d5782518255916020019190600101906145f2565b8280548282559060005260206000209081019282156146a4579160200282015b828111156146a45782518051614694918491602090910190614599565b5091602001919060010190614677565b506146199291506146fb565b5080546146bc906151da565b6000825580601f106146cc575050565b601f0160209004906000526020600020908101906116cc91905b5b8082111561461957600081556001016146e7565b8082111561461957600061470f82826146b0565b506001016146fb565b60006001600160401b038311156147315761473161526a565b614744601f8401601f19166020016150e2565b905082815283838301111561475857600080fd5b828260208301376000602084830101529392505050565b80356001600160a01b038116811461478657600080fd5b919050565b600082601f83011261479b578081fd5b813560206147b06147ab83615112565b6150e2565b80838252828201915082860187848660051b89010111156147cf578586fd5b855b8581101561480f5781356001600160401b038111156147ee578788fd5b6147fc8a87838c0101614879565b85525092840192908401906001016147d1565b5090979650505050505050565b600082601f83011261482c578081fd5b8135602061483c6147ab83615112565b80838252828201915082860187848660051b890101111561485b578586fd5b855b8581101561480f5781358452928401929084019060010161485d565b600082601f830112614889578081fd5b61327c83833560208501614718565b6000602082840312156148a9578081fd5b61327c8261476f565b600080604083850312156148c4578081fd5b6148cd8361476f565b91506148db6020840161476f565b90509250929050565b6000806000606084860312156148f8578081fd5b6149018461476f565b925061490f6020850161476f565b9150604084013590509250925092565b600080600080600060808688031215614936578081fd5b61493f8661476f565b945061494d6020870161476f565b93506040860135925060608601356001600160401b038082111561496f578283fd5b818801915088601f830112614982578283fd5b813581811115614990578384fd5b8960208285010111156149a1578384fd5b9699959850939650602001949392505050565b600080600080608085870312156149c9578384fd5b6149d28561476f565b93506149e06020860161476f565b92506040850135915060608501356001600160401b03811115614a01578182fd5b8501601f81018713614a11578182fd5b614a2087823560208401614718565b91505092959194509250565b60008060408385031215614a3e578081fd5b614a478361476f565b915060208301356001600160401b03811115614a61578182fd5b614a6d8582860161478b565b9150509250929050565b60008060408385031215614a89578182fd5b614a928361476f565b91506020830135614aa281615280565b809150509250929050565b60008060408385031215614abf578182fd5b614ac88361476f565b915060208301356001600160401b03811115614ae2578182fd5b614a6d85828601614879565b600080600060608486031215614b02578081fd5b614b0b8461476f565b925060208401356001600160401b03811115614b25578182fd5b614b3186828701614879565b925050604084013590509250925092565b60008060408385031215614b54578182fd5b614b5d8361476f565b946020939093013593505050565b600080600060408486031215614b7f578081fd5b83356001600160401b0380821115614b95578283fd5b818601915086601f830112614ba8578283fd5b813581811115614bb6578384fd5b8760208260051b8501011115614bca578384fd5b60209283019550935050840135614be081615280565b809150509250925092565b600080600060608486031215614bff578081fd5b83356001600160401b0380821115614c15578283fd5b614c218783880161478b565b94506020860135915080821115614c36578283fd5b614c428783880161481c565b93506040860135915080821115614c57578283fd5b50614c648682870161481c565b9150509250925092565b600060208284031215614c7f578081fd5b815161327c81615280565b600060208284031215614c9b578081fd5b5035919050565b60008060408385031215614cb4578182fd5b823591506148db6020840161476f565b600060208284031215614cd5578081fd5b813561327c8161528e565b600060208284031215614cf1578081fd5b815161327c8161528e565b600060208284031215614d0d578081fd5b5051919050565b60008060408385031215614d26578182fd5b8235915060208301356001600160401b03811115614ae2578182fd5b60008060408385031215614d54578182fd5b50508035926020909101359150565b600080600060608486031215614d77578081fd5b8335925060208401359150614d8e6040850161476f565b90509250925092565b600080600060608486031215614dab578081fd5b505081359360208301359350604090920135919050565b60008151808452614dda816020860160208601615197565b601f01601f19169290920160200192915050565b60008251614e00818460208701615197565b9190910192915050565b60008351614e1c818460208801615197565b835190830190614e30818360208801615197565b01949350505050565b7f416363657373436f6e74726f6c3a206163636f756e7420000000000000000000815260008351614e71816017850160208801615197565b7001034b99036b4b9b9b4b733903937b6329607d1b6017918401918201528351614ea2816028840160208801615197565b01602801949350505050565b6001600160a01b0385811682528416602082015260408101839052608060608201819052600090614ee190830184614dc2565b9695505050505050565b60208152600061327c6020830184614dc2565b60208082526032908201527f4552433732313a207472616e7366657220746f206e6f6e20455243373231526560408201527131b2b4bb32b91034b6b83632b6b2b73a32b960711b606082015260800190565b6020808252601290820152711b1858dac81bd9881a5d195b5cc81b19599d60721b604082015260600190565b6020808252600d908201526c1a5d195b481cdbdb19081bdd5d609a1b604082015260600190565b6020808252818101527f4f776e61626c653a2063616c6c6572206973206e6f7420746865206f776e6572604082015260600190565b60208082526021908201527f73686f756c642062757920616c6c20636f6c6c656374696f6e73206265666f726040820152606560f81b606082015260800190565b60208082526021908201527f76616c75652073686f756c642062652067726561746572207468616e207a65726040820152606f60f81b606082015260800190565b6020808252601b908201527f4e6f7420796574206c61756e63682074696d6520726561636865640000000000604082015260600190565b60208082526031908201527f4552433732313a207472616e736665722063616c6c6572206973206e6f74206f6040820152701ddb995c881b9bdc88185c1c1c9bdd9959607a1b606082015260800190565b604051601f8201601f191681016001600160401b038111828210171561510a5761510a61526a565b604052919050565b60006001600160401b0382111561512b5761512b61526a565b5060051b60200190565b600082198211156151485761514861523e565b500190565b60008261515c5761515c615254565b500490565b600081600019048311821515161561517b5761517b61523e565b500290565b6000828210156151925761519261523e565b500390565b60005b838110156151b257818101518382015260200161519a565b83811115612ae65750506000910152565b6000816151d2576151d261523e565b506000190190565b600181811c908216806151ee57607f821691505b60208210811415611fb857634e487b7160e01b600052602260045260246000fd5b60006000198214156152235761522361523e565b5060010190565b60008261523957615239615254565b500690565b634e487b7160e01b600052601160045260246000fd5b634e487b7160e01b600052601260045260246000fd5b634e487b7160e01b600052604160045260246000fd5b80151581146116cc57600080fd5b6001600160e01b0319811681146116cc57600080fdfe65d7a28e3265b37a6474929f336521b332c1681b933f6cb9f3376673440d862a9f2df0fed2c77648de5860a4cc508cd0818c85b8b8a1ab4ceeef8d981c8956a6a2646970667358221220ce6b5e56ceef75d9539c7304c958893fca4414500e9fe558830c68f6fb88e78464736f6c634300080400334f776e61626c653a2063616c6c6572206973206e6f7420746865206f776e657265d7a28e3265b37a6474929f336521b332c1681b933f6cb9f3376673440d862a9f2df0fed2c77648de5860a4cc508cd0818c85b8b8a1ab4ceeef8d981c8956a6",
  "linkReferences": {},
  "deployedLinkReferences": {}
}