{
  "_format": "hh-sol-artifact-1",
  "contractName": "Collection",
  "sourceName": "contracts/Collection.sol",
  "abi": [
    {
      "inputs": [
        {
          "internalType": "string",
          "name": "name",
          "type": "string"
        },
        {
          "internalType": "string",
          "name": "symbol",
          "type": "string"
        },
        {
          "internalType": "address",
          "name": "_quote",
          "type": "address"
        },
        {
          "internalType": "address",
          "name": "_payment",
          "type": "address"
        },
        {
          "internalType": "address",
          "name": "_treasury",
          "type": "address"
        },
        {
          "internalType": "uint256[]",
          "name": "configValues",
          "type": "uint256[]"
        }
      ],
      "stateMutability": "nonpayable",
      "type": "constructor"
    },
    {
      "anonymous": false,
      "inputs": [
        {
          "indexed": true,
          "internalType": "address",
          "name": "owner",
          "type": "address"
        },
        {
          "indexed": true,
          "internalType": "address",
          "name": "approved",
          "type": "address"
        },
        {
          "indexed": true,
          "internalType": "uint256",
          "name": "tokenId",
          "type": "uint256"
        }
      ],
      "name": "Approval",
      "type": "event"
    },
    {
      "anonymous": false,
      "inputs": [
        {
          "indexed": true,
          "internalType": "address",
          "name": "owner",
          "type": "address"
        },
        {
          "indexed": true,
          "internalType": "address",
          "name": "operator",
          "type": "address"
        },
        {
          "indexed": false,
          "internalType": "bool",
          "name": "approved",
          "type": "bool"
        }
      ],
      "name": "ApprovalForAll",
      "type": "event"
    },
    {
      "anonymous": false,
      "inputs": [
        {
          "indexed": false,
          "internalType": "address",
          "name": "",
          "type": "address"
        },
        {
          "indexed": false,
          "internalType": "string",
          "name": "",
          "type": "string"
        }
      ],
      "name": "Grant",
      "type": "event"
    },
    {
      "anonymous": false,
      "inputs": [
        {
          "indexed": true,
          "internalType": "address",
          "name": "previousOwner",
          "type": "address"
        },
        {
          "indexed": true,
          "internalType": "address",
          "name": "newOwner",
          "type": "address"
        }
      ],
      "name": "OwnershipTransferred",
      "type": "event"
    },
    {
      "anonymous": false,
      "inputs": [
        {
          "indexed": false,
          "internalType": "address",
          "name": "account",
          "type": "address"
        }
      ],
      "name": "Paused",
      "type": "event"
    },
    {
      "anonymous": false,
      "inputs": [
        {
          "indexed": true,
          "internalType": "bytes32",
          "name": "role",
          "type": "bytes32"
        },
        {
          "indexed": true,
          "internalType": "bytes32",
          "name": "previousAdminRole",
          "type": "bytes32"
        },
        {
          "indexed": true,
          "internalType": "bytes32",
          "name": "newAdminRole",
          "type": "bytes32"
        }
      ],
      "name": "RoleAdminChanged",
      "type": "event"
    },
    {
      "anonymous": false,
      "inputs": [
        {
          "indexed": true,
          "internalType": "bytes32",
          "name": "role",
          "type": "bytes32"
        },
        {
          "indexed": true,
          "internalType": "address",
          "name": "account",
          "type": "address"
        },
        {
          "indexed": true,
          "internalType": "address",
          "name": "sender",
          "type": "address"
        }
      ],
      "name": "RoleGranted",
      "type": "event"
    },
    {
      "anonymous": false,
      "inputs": [
        {
          "indexed": true,
          "internalType": "bytes32",
          "name": "role",
          "type": "bytes32"
        },
        {
          "indexed": true,
          "internalType": "address",
          "name": "account",
          "type": "address"
        },
        {
          "indexed": true,
          "internalType": "address",
          "name": "sender",
          "type": "address"
        }
      ],
      "name": "RoleRevoked",
      "type": "event"
    },
    {
      "anonymous": false,
      "inputs": [
        {
          "indexed": false,
          "internalType": "address",
          "name": "",
          "type": "address"
        },
        {
          "indexed": false,
          "internalType": "address",
          "name": "",
          "type": "address"
        },
        {
          "indexed": false,
          "internalType": "uint256",
          "name": "",
          "type": "uint256"
        }
      ],
      "name": "SetConfig",
      "type": "event"
    },
    {
      "anonymous": false,
      "inputs": [
        {
          "indexed": false,
          "internalType": "uint256",
          "name": "",
          "type": "uint256"
        }
      ],
      "name": "SetHardCap",
      "type": "event"
    },
    {
      "anonymous": false,
      "inputs": [
        {
          "indexed": false,
          "internalType": "uint256",
          "name": "",
          "type": "uint256"
        }
      ],
      "name": "SetLaunch",
      "type": "event"
    },
    {
      "anonymous": false,
      "inputs": [
        {
          "indexed": false,
          "internalType": "uint256",
          "name": "",
          "type": "uint256"
        }
      ],
      "name": "SetLockup",
      "type": "event"
    },
    {
      "anonymous": false,
      "inputs": [
        {
          "indexed": false,
          "internalType": "address",
          "name": "",
          "type": "address"
        }
      ],
      "name": "SetMysteryBox",
      "type": "event"
    },
    {
      "anonymous": false,
      "inputs": [
        {
          "indexed": false,
          "internalType": "address",
          "name": "",
          "type": "address"
        }
      ],
      "name": "SetQuote",
      "type": "event"
    },
    {
      "anonymous": false,
      "inputs": [
        {
          "indexed": true,
          "internalType": "address",
          "name": "from",
          "type": "address"
        },
        {
          "indexed": true,
          "internalType": "address",
          "name": "to",
          "type": "address"
        },
        {
          "indexed": true,
          "internalType": "uint256",
          "name": "tokenId",
          "type": "uint256"
        }
      ],
      "name": "Transfer",
      "type": "event"
    },
    {
      "anonymous": false,
      "inputs": [
        {
          "indexed": false,
          "internalType": "address",
          "name": "account",
          "type": "address"
        }
      ],
      "name": "Unpaused",
      "type": "event"
    },
    {
      "inputs": [],
      "name": "DEFAULT_ADMIN_ROLE",
      "outputs": [
        {
          "internalType": "bytes32",
          "name": "",
          "type": "bytes32"
        }
      ],
      "stateMutability": "view",
      "type": "function"
    },
    {
      "inputs": [],
      "name": "MINTER_ROLE",
      "outputs": [
        {
          "internalType": "bytes32",
          "name": "",
          "type": "bytes32"
        }
      ],
      "stateMutability": "view",
      "type": "function"
    },
    {
      "inputs": [],
      "name": "PAUSER_ROLE",
      "outputs": [
        {
          "internalType": "bytes32",
          "name": "",
          "type": "bytes32"
        }
      ],
      "stateMutability": "view",
      "type": "function"
    },
    {
      "inputs": [
        {
          "internalType": "address",
          "name": "minter",
          "type": "address"
        }
      ],
      "name": "addMinter",
      "outputs": [],
      "stateMutability": "nonpayable",
      "type": "function"
    },
    {
      "inputs": [
        {
          "internalType": "address",
          "name": "pauser",
          "type": "address"
        }
      ],
      "name": "addPauser",
      "outputs": [],
      "stateMutability": "nonpayable",
      "type": "function"
    },
    {
      "inputs": [
        {
          "internalType": "address",
          "name": "to",
          "type": "address"
        },
        {
          "internalType": "uint256",
          "name": "tokenId",
          "type": "uint256"
        }
      ],
      "name": "approve",
      "outputs": [],
      "stateMutability": "nonpayable",
      "type": "function"
    },
    {
      "inputs": [
        {
          "internalType": "address",
          "name": "owner",
          "type": "address"
        }
      ],
      "name": "balanceOf",
      "outputs": [
        {
          "internalType": "uint256",
          "name": "",
          "type": "uint256"
        }
      ],
      "stateMutability": "view",
      "type": "function"
    },
    {
      "inputs": [
        {
          "internalType": "uint256",
          "name": "tokenId",
          "type": "uint256"
        }
      ],
      "name": "burn",
      "outputs": [],
      "stateMutability": "nonpayable",
      "type": "function"
    },
    {
      "inputs": [
        {
          "internalType": "uint256",
          "name": "_itemIx",
          "type": "uint256"
        },
        {
          "internalType": "uint256",
          "name": "_amount",
          "type": "uint256"
        }
      ],
      "name": "buyItemEth",
      "outputs": [],
      "stateMutability": "payable",
      "type": "function"
    },
    {
      "inputs": [
        {
          "internalType": "uint256",
          "name": "_itemIx",
          "type": "uint256"
        },
        {
          "internalType": "uint256",
          "name": "_payment",
          "type": "uint256"
        },
        {
          "internalType": "uint256",
          "name": "_amount",
          "type": "uint256"
        }
      ],
      "name": "buyItemQuote",
      "outputs": [],
      "stateMutability": "payable",
      "type": "function"
    },
    {
      "inputs": [],
      "name": "feeRate",
      "outputs": [
        {
          "internalType": "uint256",
          "name": "",
          "type": "uint256"
        }
      ],
      "stateMutability": "view",
      "type": "function"
    },
    {
      "inputs": [
        {
          "internalType": "uint256",
          "name": "tokenId",
          "type": "uint256"
        }
      ],
      "name": "getApproved",
      "outputs": [
        {
          "internalType": "address",
          "name": "",
          "type": "address"
        }
      ],
      "stateMutability": "view",
      "type": "function"
    },
    {
      "inputs": [],
      "name": "getItemAmounts",
      "outputs": [
        {
          "internalType": "uint256[]",
          "name": "",
          "type": "uint256[]"
        }
      ],
      "stateMutability": "view",
      "type": "function"
    },
    {
      "inputs": [
        {
          "internalType": "bytes32",
          "name": "role",
          "type": "bytes32"
        }
      ],
      "name": "getRoleAdmin",
      "outputs": [
        {
          "internalType": "bytes32",
          "name": "",
          "type": "bytes32"
        }
      ],
      "stateMutability": "view",
      "type": "function"
    },
    {
      "inputs": [],
      "name": "globalURI",
      "outputs": [
        {
          "internalType": "string",
          "name": "",
          "type": "string"
        }
      ],
      "stateMutability": "view",
      "type": "function"
    },
    {
      "inputs": [
        {
          "internalType": "bytes32",
          "name": "role",
          "type": "bytes32"
        },
        {
          "internalType": "address",
          "name": "account",
          "type": "address"
        }
      ],
      "name": "grantRole",
      "outputs": [],
      "stateMutability": "nonpayable",
      "type": "function"
    },
    {
      "inputs": [],
      "name": "hardCap",
      "outputs": [
        {
          "internalType": "uint256",
          "name": "",
          "type": "uint256"
        }
      ],
      "stateMutability": "view",
      "type": "function"
    },
    {
      "inputs": [
        {
          "internalType": "bytes32",
          "name": "role",
          "type": "bytes32"
        },
        {
          "internalType": "address",
          "name": "account",
          "type": "address"
        }
      ],
      "name": "hasRole",
      "outputs": [
        {
          "internalType": "bool",
          "name": "",
          "type": "bool"
        }
      ],
      "stateMutability": "view",
      "type": "function"
    },
    {
      "inputs": [
        {
          "internalType": "address",
          "name": "owner",
          "type": "address"
        },
        {
          "internalType": "address",
          "name": "operator",
          "type": "address"
        }
      ],
      "name": "isApprovedForAll",
      "outputs": [
        {
          "internalType": "bool",
          "name": "",
          "type": "bool"
        }
      ],
      "stateMutability": "view",
      "type": "function"
    },
    {
      "inputs": [
        {
          "internalType": "uint256",
          "name": "",
          "type": "uint256"
        }
      ],
      "name": "itemAmounts",
      "outputs": [
        {
          "internalType": "uint256",
          "name": "",
          "type": "uint256"
        }
      ],
      "stateMutability": "view",
      "type": "function"
    },
    {
      "inputs": [
        {
          "internalType": "uint256",
          "name": "",
          "type": "uint256"
        }
      ],
      "name": "itemPrices",
      "outputs": [
        {
          "internalType": "uint256",
          "name": "",
          "type": "uint256"
        }
      ],
      "stateMutability": "view",
      "type": "function"
    },
    {
      "inputs": [
        {
          "internalType": "uint256",
          "name": "",
          "type": "uint256"
        }
      ],
      "name": "itemURIs",
      "outputs": [
        {
          "internalType": "string",
          "name": "",
          "type": "string"
        }
      ],
      "stateMutability": "view",
      "type": "function"
    },
    {
      "inputs": [
        {
          "internalType": "uint256",
          "name": "",
          "type": "uint256"
        }
      ],
      "name": "items",
      "outputs": [
        {
          "internalType": "uint256",
          "name": "",
          "type": "uint256"
        }
      ],
      "stateMutability": "view",
      "type": "function"
    },
    {
      "inputs": [],
      "name": "launch",
      "outputs": [
        {
          "internalType": "uint256",
          "name": "",
          "type": "uint256"
        }
      ],
      "stateMutability": "view",
      "type": "function"
    },
    {
      "inputs": [],
      "name": "lockup",
      "outputs": [
        {
          "internalType": "uint256",
          "name": "",
          "type": "uint256"
        }
      ],
      "stateMutability": "view",
      "type": "function"
    },
    {
      "inputs": [],
      "name": "mysteryBox",
      "outputs": [
        {
          "internalType": "address",
          "name": "",
          "type": "address"
        }
      ],
      "stateMutability": "view",
      "type": "function"
    },
    {
      "inputs": [],
      "name": "name",
      "outputs": [
        {
          "internalType": "string",
          "name": "",
          "type": "string"
        }
      ],
      "stateMutability": "view",
      "type": "function"
    },
    {
      "inputs": [
        {
          "internalType": "address",
          "name": "operator",
          "type": "address"
        },
        {
          "internalType": "address",
          "name": "from",
          "type": "address"
        },
        {
          "internalType": "uint256",
          "name": "tokenId",
          "type": "uint256"
        },
        {
          "internalType": "bytes",
          "name": "data",
          "type": "bytes"
        }
      ],
      "name": "onERC721Received",
      "outputs": [
        {
          "internalType": "bytes4",
          "name": "",
          "type": "bytes4"
        }
      ],
      "stateMutability": "pure",
      "type": "function"
    },
    {
      "inputs": [],
      "name": "owner",
      "outputs": [
        {
          "internalType": "address",
          "name": "",
          "type": "address"
        }
      ],
      "stateMutability": "view",
      "type": "function"
    },
    {
      "inputs": [
        {
          "internalType": "uint256",
          "name": "tokenId",
          "type": "uint256"
        }
      ],
      "name": "ownerOf",
      "outputs": [
        {
          "internalType": "address",
          "name": "",
          "type": "address"
        }
      ],
      "stateMutability": "view",
      "type": "function"
    },
    {
      "inputs": [],
      "name": "pause",
      "outputs": [],
      "stateMutability": "nonpayable",
      "type": "function"
    },
    {
      "inputs": [],
      "name": "paused",
      "outputs": [
        {
          "internalType": "bool",
          "name": "",
          "type": "bool"
        }
      ],
      "stateMutability": "view",
      "type": "function"
    },
    {
      "inputs": [],
      "name": "payment",
      "outputs": [
        {
          "internalType": "address",
          "name": "",
          "type": "address"
        }
      ],
      "stateMutability": "view",
      "type": "function"
    },
    {
      "inputs": [],
      "name": "quote",
      "outputs": [
        {
          "internalType": "address",
          "name": "",
          "type": "address"
        }
      ],
      "stateMutability": "view",
      "type": "function"
    },
    {
      "inputs": [
        {
          "internalType": "string[]",
          "name": "uris",
          "type": "string[]"
        },
        {
          "internalType": "uint256[]",
          "name": "amounts",
          "type": "uint256[]"
        },
        {
          "internalType": "uint256[]",
          "name": "prices",
          "type": "uint256[]"
        }
      ],
      "name": "registerItems",
      "outputs": [],
      "stateMutability": "nonpayable",
      "type": "function"
    },
    {
      "inputs": [],
      "name": "renounceOwnership",
      "outputs": [],
      "stateMutability": "nonpayable",
      "type": "function"
    },
    {
      "inputs": [
        {
          "internalType": "bytes32",
          "name": "role",
          "type": "bytes32"
        },
        {
          "internalType": "address",
          "name": "account",
          "type": "address"
        }
      ],
      "name": "renounceRole",
      "outputs": [],
      "stateMutability": "nonpayable",
      "type": "function"
    },
    {
      "inputs": [
        {
          "internalType": "bytes32",
          "name": "role",
          "type": "bytes32"
        },
        {
          "internalType": "address",
          "name": "account",
          "type": "address"
        }
      ],
      "name": "revokeRole",
      "outputs": [],
      "stateMutability": "nonpayable",
      "type": "function"
    },
    {
      "inputs": [
        {
          "internalType": "address",
          "name": "to",
          "type": "address"
        },
        {
          "internalType": "string[]",
          "name": "uris",
          "type": "string[]"
        }
      ],
      "name": "safeBatchMint",
      "outputs": [],
      "stateMutability": "view",
      "type": "function"
    },
    {
      "inputs": [
        {
          "internalType": "address",
          "name": "to",
          "type": "address"
        },
        {
          "internalType": "string",
          "name": "uri",
          "type": "string"
        },
        {
          "internalType": "uint256",
          "name": "amount",
          "type": "uint256"
        }
      ],
      "name": "safeBatchMintLight",
      "outputs": [],
      "stateMutability": "nonpayable",
      "type": "function"
    },
    {
      "inputs": [
        {
          "internalType": "address",
          "name": "to",
          "type": "address"
        },
        {
          "internalType": "string",
          "name": "uri",
          "type": "string"
        }
      ],
      "name": "safeMint",
      "outputs": [
        {
          "internalType": "uint256",
          "name": "",
          "type": "uint256"
        }
      ],
      "stateMutability": "view",
      "type": "function"
    },
    {
      "inputs": [
        {
          "internalType": "address",
          "name": "to",
          "type": "address"
        }
      ],
      "name": "safeMintTo",
      "outputs": [],
      "stateMutability": "nonpayable",
      "type": "function"
    },
    {
      "inputs": [
        {
          "internalType": "address",
          "name": "from",
          "type": "address"
        },
        {
          "internalType": "address",
          "name": "to",
          "type": "address"
        },
        {
          "internalType": "uint256",
          "name": "tokenId",
          "type": "uint256"
        }
      ],
      "name": "safeTransferFrom",
      "outputs": [],
      "stateMutability": "nonpayable",
      "type": "function"
    },
    {
      "inputs": [
        {
          "internalType": "address",
          "name": "from",
          "type": "address"
        },
        {
          "internalType": "address",
          "name": "to",
          "type": "address"
        },
        {
          "internalType": "uint256",
          "name": "tokenId",
          "type": "uint256"
        },
        {
          "internalType": "bytes",
          "name": "_data",
          "type": "bytes"
        }
      ],
      "name": "safeTransferFrom",
      "outputs": [],
      "stateMutability": "nonpayable",
      "type": "function"
    },
    {
      "inputs": [
        {
          "internalType": "address",
          "name": "operator",
          "type": "address"
        },
        {
          "internalType": "bool",
          "name": "approved",
          "type": "bool"
        }
      ],
      "name": "setApprovalForAll",
      "outputs": [],
      "stateMutability": "nonpayable",
      "type": "function"
    },
    {
      "inputs": [
        {
          "internalType": "address",
          "name": "_payment",
          "type": "address"
        },
        {
          "internalType": "address",
          "name": "_treasury",
          "type": "address"
        },
        {
          "internalType": "uint256",
          "name": "_feeRate",
          "type": "uint256"
        }
      ],
      "name": "setConfig",
      "outputs": [],
      "stateMutability": "nonpayable",
      "type": "function"
    },
    {
      "inputs": [
        {
          "internalType": "uint256",
          "name": "_hardCap",
          "type": "uint256"
        },
        {
          "internalType": "string",
          "name": "_uri",
          "type": "string"
        }
      ],
      "name": "setHardCap",
      "outputs": [],
      "stateMutability": "nonpayable",
      "type": "function"
    },
    {
      "inputs": [
        {
          "internalType": "uint256",
          "name": "_launch",
          "type": "uint256"
        }
      ],
      "name": "setLaunch",
      "outputs": [],
      "stateMutability": "nonpayable",
      "type": "function"
    },
    {
      "inputs": [
        {
          "internalType": "uint256",
          "name": "_lockup",
          "type": "uint256"
        }
      ],
      "name": "setLockup",
      "outputs": [],
      "stateMutability": "nonpayable",
      "type": "function"
    },
    {
      "inputs": [
        {
          "internalType": "address",
          "name": "_mbox",
          "type": "address"
        }
      ],
      "name": "setMysteryBox",
      "outputs": [],
      "stateMutability": "nonpayable",
      "type": "function"
    },
    {
      "inputs": [
        {
          "internalType": "address",
          "name": "_quote",
          "type": "address"
        }
      ],
      "name": "setQuote",
      "outputs": [],
      "stateMutability": "nonpayable",
      "type": "function"
    },
    {
      "inputs": [
        {
          "internalType": "bytes4",
          "name": "interfaceId",
          "type": "bytes4"
        }
      ],
      "name": "supportsInterface",
      "outputs": [
        {
          "internalType": "bool",
          "name": "",
          "type": "bool"
        }
      ],
      "stateMutability": "view",
      "type": "function"
    },
    {
      "inputs": [],
      "name": "symbol",
      "outputs": [
        {
          "internalType": "string",
          "name": "",
          "type": "string"
        }
      ],
      "stateMutability": "view",
      "type": "function"
    },
    {
      "inputs": [
        {
          "internalType": "uint256",
          "name": "index",
          "type": "uint256"
        }
      ],
      "name": "tokenByIndex",
      "outputs": [
        {
          "internalType": "uint256",
          "name": "",
          "type": "uint256"
        }
      ],
      "stateMutability": "view",
      "type": "function"
    },
    {
      "inputs": [
        {
          "internalType": "address",
          "name": "owner",
          "type": "address"
        },
        {
          "internalType": "uint256",
          "name": "index",
          "type": "uint256"
        }
      ],
      "name": "tokenOfOwnerByIndex",
      "outputs": [
        {
          "internalType": "uint256",
          "name": "",
          "type": "uint256"
        }
      ],
      "stateMutability": "view",
      "type": "function"
    },
    {
      "inputs": [
        {
          "internalType": "uint256",
          "name": "tokenId",
          "type": "uint256"
        }
      ],
      "name": "tokenURI",
      "outputs": [
        {
          "internalType": "string",
          "name": "",
          "type": "string"
        }
      ],
      "stateMutability": "view",
      "type": "function"
    },
    {
      "inputs": [],
      "name": "totalItems",
      "outputs": [
        {
          "internalType": "uint256",
          "name": "",
          "type": "uint256"
        }
      ],
      "stateMutability": "view",
      "type": "function"
    },
    {
      "inputs": [],
      "name": "totalSupply",
      "outputs": [
        {
          "internalType": "uint256",
          "name": "",
          "type": "uint256"
        }
      ],
      "stateMutability": "view",
      "type": "function"
    },
    {
      "inputs": [
        {
          "internalType": "address",
          "name": "from",
          "type": "address"
        },
        {
          "internalType": "address",
          "name": "to",
          "type": "address"
        },
        {
          "internalType": "uint256",
          "name": "tokenId",
          "type": "uint256"
        }
      ],
      "name": "transferFrom",
      "outputs": [],
      "stateMutability": "nonpayable",
      "type": "function"
    },
    {
      "inputs": [
        {
          "internalType": "address",
          "name": "newOwner",
          "type": "address"
        }
      ],
      "name": "transferOwnership",
      "outputs": [],
      "stateMutability": "nonpayable",
      "type": "function"
    },
    {
      "inputs": [],
      "name": "treasury",
      "outputs": [
        {
          "internalType": "address",
          "name": "",
          "type": "address"
        }
      ],
      "stateMutability": "view",
      "type": "function"
    },
    {
      "inputs": [],
      "name": "unpause",
      "outputs": [],
      "stateMutability": "nonpayable",
      "type": "function"
    },
    {
      "stateMutability": "payable",
      "type": "receive"
    }
  ],
  "bytecode": "0x60806040526000600d819055601280546001600160a01b03191690556079556032607e556082805460ff191690553480156200003a57600080fd5b5060405162005132380380620051328339810160408190526200005d91620007d5565b8585818181600090805190602001906200007992919062000681565b5080516200008f90600190602084019062000681565b5050600b805460ff1916905550620000a73362000252565b620000b4600033620002ac565b620000cf600080516020620050f283398151915233620002ac565b620000ea6000805160206200511283398151915233620002ac565b505060016011558051600314620001485760405162461bcd60e51b815260206004820152601a60248201527f696e76616c696420636f6e6669672064617461206c656e67746800000000000060448201526064015b60405180910390fd5b62000155600033620002ac565b62000170600080516020620050f283398151915233620002ac565b6200018b6000805160206200511283398151915233620002ac565b620001c581600081518110620001b157634e487b7160e01b600052603260045260246000fd5b60200260200101516200035160201b60201c565b620001ff81600181518110620001eb57634e487b7160e01b600052603260045260246000fd5b6020026020010151620003de60201b60201c565b6200023b8383836002815181106200022757634e487b7160e01b600052603260045260246000fd5b60200260200101516200046560201b60201c565b6200024684620005e1565b5050505050506200098f565b600b80546001600160a01b03838116610100818102610100600160a81b031985161790945560405193909204169182907f8be0079c531659141344cd1fd0a4f28419497f9722a3daafe3b4186f6b6457e090600090a35050565b6000828152600c602090815260408083206001600160a01b038516845290915290205460ff166200034d576000828152600c602090815260408083206001600160a01b03851684529091529020805460ff191660011790556200030c3390565b6001600160a01b0316816001600160a01b0316837f2f8788117e7eff1d82e926ec794901d17c78024a50270940304540a733656f0d60405160405180910390a45b5050565b600b546001600160a01b03610100909104163314620003a25760405162461bcd60e51b81526020600482018190526024820152600080516020620050d283398151915260448201526064016200013f565b607a8190556040518181527f7c8826e4db3679f20c86da0c68d37f9dbcd1d638c56717e014f93c56d14c02d1906020015b60405180910390a150565b600b546001600160a01b036101009091041633146200042f5760405162461bcd60e51b81526020600482018190526024820152600080516020620050d283398151915260448201526064016200013f565b607b8190556040518181527fa7ade4ab976b6643a971383d9822fb7c2fce66aa2e497d88c3b4f1475ea2b2e090602001620003d3565b600b546001600160a01b03610100909104163314620004b65760405162461bcd60e51b81526020600482018190526024820152600080516020620050d283398151915260448201526064016200013f565b6001600160a01b0383166200050e5760405162461bcd60e51b815260206004820152601760248201527f696e76616c6964207061796d656e74206164647265737300000000000000000060448201526064016200013f565b6001600160a01b038216620005665760405162461bcd60e51b815260206004820152601860248201527f696e76616c69642074726561737572792061646472657373000000000000000060448201526064016200013f565b607c80546001600160a01b038581166001600160a01b03199283168117909355607d8054918616919092168117909155607e83905560408051928352602083019190915281018290527fe2be3027f197494650b7a98fd1cae67dacf615bd1d8bb05102999676f11638669060600160405180910390a1505050565b600b546001600160a01b03610100909104163314620006325760405162461bcd60e51b81526020600482018190526024820152600080516020620050d283398151915260448201526064016200013f565b601280546001600160a01b0319166001600160a01b0383169081179091556040519081527fca92c759228172fe3894a344908fd20dfd37ba561b5af191f1f5b02ee03881fc90602001620003d3565b8280546200068f906200093c565b90600052602060002090601f016020900481019282620006b35760008555620006fe565b82601f10620006ce57805160ff1916838001178555620006fe565b82800160010185558215620006fe579182015b82811115620006fe578251825591602001919060010190620006e1565b506200070c92915062000710565b5090565b5b808211156200070c576000815560010162000711565b80516001600160a01b03811681146200073f57600080fd5b919050565b600082601f83011262000755578081fd5b81516001600160401b0381111562000771576200077162000979565b602062000787601f8301601f1916820162000909565b82815285828487010111156200079b578384fd5b835b83811015620007ba5785810183015182820184015282016200079d565b83811115620007cb57848385840101525b5095945050505050565b60008060008060008060c08789031215620007ee578182fd5b86516001600160401b038082111562000805578384fd5b620008138a838b0162000744565b97506020915081890151818111156200082a578485fd5b620008388b828c0162000744565b9750506200084960408a0162000727565b95506200085960608a0162000727565b94506200086960808a0162000727565b935060a0890151818111156200087d578384fd5b8901601f81018b136200088e578384fd5b805182811115620008a357620008a362000979565b8060051b9250620008b684840162000909565b8181528481019083860185850187018f1015620008d1578788fd5b8795505b83861015620008f5578051835260019590950194918601918601620008d5565b508096505050505050509295509295509295565b604051601f8201601f191681016001600160401b038111828210171562000934576200093462000979565b604052919050565b600181811c908216806200095157607f821691505b602082108114156200097357634e487b7160e01b600052602260045260246000fd5b50919050565b634e487b7160e01b600052604160045260246000fd5b614733806200099f6000396000f3fe6080604052600436106103b15760003560e01c8063715018a6116101e7578063a2aa61eb1161010d578063d3d3224a116100a0578063e985e9c51161006f578063e985e9c514610ae3578063f2fde38b14610b2c578063f3c8dc5914610b4c578063fb86a40414610b6c57600080fd5b8063d3d3224a14610a6a578063d539139314610a7f578063d547741f14610aa1578063e63ab1e914610ac157600080fd5b8063bfb231d2116100dc578063bfb231d2146109ea578063c38b761c14610a0a578063c87b56dd14610a2a578063d204c45e14610a4a57600080fd5b8063a2aa61eb1461096a578063b5a87cc11461098a578063b88d4fde146109aa578063bf91ad9e146109ca57600080fd5b8063902835f611610185578063983b2d5611610154578063983b2d56146108f5578063999b93af14610915578063a217fddf14610935578063a22cb4651461094a57600080fd5b8063902835f61461088a57806391d14854146108aa57806395d89b41146108ca578063978bbdb9146108df57600080fd5b80638456cb59116101c15780638456cb591461081f57806385be1b3b146108345780638a55b866146108475780638da5cb5b1461086757600080fd5b8063715018a6146107ca5780637b43b827146107df57806382dc1ec4146107ff57600080fd5b80632f745c59116102d757806358dd6d951161026a57806361d027b31161023957806361d027b31461074a5780636352211e1461076a5780636ae6b4591461078a57806370a08231146107aa57600080fd5b806358dd6d95146106d25780635c975abb146106f25780635d1d37c31461070a5780635d814dea1461072a57600080fd5b806342842e0e116102a657806342842e0e1461065257806342966c681461067257806342f6487a146106925780634f6ccce7146106b257600080fd5b80632f745c59146105ea57806336568abe1461060a5780633f4ba83a1461062a5780633f7d70551461063f57600080fd5b806318160ddd1161034f578063248a9ca31161031e578063248a9ca3146105625780632799276d146105925780632d97714d146105a85780632f2ff15d146105ca57600080fd5b806318160ddd146104ed57806321bae9e41461050257806323b872dd14610522578063244906591461054257600080fd5b806306fdde031161038b57806306fdde031461042c578063081812fc1461044e578063095ea7b314610486578063150b7a02146104a857600080fd5b806301339c21146103bd57806301ffc9a7146103e657806306490f471461041657600080fd5b366103b857005b600080fd5b3480156103c957600080fd5b506103d3607a5481565b6040519081526020015b60405180910390f35b3480156103f257600080fd5b50610406610401366004614192565b610b82565b60405190151581526020016103dd565b34801561042257600080fd5b506103d3607b5481565b34801561043857600080fd5b50610441610bad565b6040516103dd91906143c9565b34801561045a57600080fd5b5061046e610469366004614158565b610c3f565b6040516001600160a01b0390911681526020016103dd565b34801561049257600080fd5b506104a66104a1366004614090565b610ccc565b005b3480156104b457600080fd5b506104d46104c3366004613e6d565b630a85bd0160e11b95945050505050565b6040516001600160e01b031990911681526020016103dd565b3480156104f957600080fd5b506008546103d3565b34801561050e57600080fd5b506104a661051d366004613de6565b610de2565b34801561052e57600080fd5b506104a661053d366004613e32565b610f2f565b34801561054e57600080fd5b506104a661055d3660046141e2565b610f61565b34801561056e57600080fd5b506103d361057d366004614158565b6000908152600c602052604090206001015490565b34801561059e57600080fd5b506103d360795481565b3480156105b457600080fd5b506105bd610fe9565b6040516103dd9190614385565b3480156105d657600080fd5b506104a66105e5366004614170565b611045565b3480156105f657600080fd5b506103d3610605366004614090565b61106a565b34801561061657600080fd5b506104a6610625366004614170565b611100565b34801561063657600080fd5b506104a661117e565b6104a661064d366004614231565b6111a1565b34801561065e57600080fd5b506104a661066d366004613e32565b61158a565b34801561067e57600080fd5b506104a661068d366004614158565b6115a5565b34801561069e57600080fd5b50607c5461046e906001600160a01b031681565b3480156106be57600080fd5b506103d36106cd366004614158565b61161c565b3480156106de57600080fd5b506104a66106ed366004613f7a565b6116bd565b3480156106fe57600080fd5b50600b5460ff16610406565b34801561071657600080fd5b506104a6610725366004614158565b611708565b34801561073657600080fd5b50610441610745366004614158565b611774565b34801561075657600080fd5b50607d5461046e906001600160a01b031681565b34801561077657600080fd5b5061046e610785366004614158565b611820565b34801561079657600080fd5b506104a66107a5366004614158565b611897565b3480156107b657600080fd5b506103d36107c5366004613de6565b6118fc565b3480156107d657600080fd5b506104a6611983565b3480156107eb57600080fd5b506104a66107fa366004613de6565b6119bf565b34801561080b57600080fd5b506104a661081a366004613de6565b611a5f565b34801561082b57600080fd5b506104a6611b05565b6104a6610842366004614210565b611b25565b34801561085357600080fd5b506103d3610862366004614158565b611d41565b34801561087357600080fd5b50600b5461010090046001600160a01b031661046e565b34801561089657600080fd5b506104a66108a5366004613e32565b611d62565b3480156108b657600080fd5b506104066108c5366004614170565b611eb9565b3480156108d657600080fd5b50610441611ee4565b3480156108eb57600080fd5b506103d3607e5481565b34801561090157600080fd5b506104a6610910366004613de6565b611ef3565b34801561092157600080fd5b5060125461046e906001600160a01b031681565b34801561094157600080fd5b506103d3600081565b34801561095657600080fd5b506104a6610965366004613fc5565b611f99565b34801561097657600080fd5b506104a6610985366004613de6565b611fa4565b34801561099657600080fd5b506104a66109a536600461403c565b612022565b3480156109b657600080fd5b506104a66109c5366004613f02565b6120ad565b3480156109d657600080fd5b506103d36109e5366004614158565b6120e5565b3480156109f657600080fd5b506103d3610a05366004614158565b6120f5565b348015610a1657600080fd5b50600f5461046e906001600160a01b031681565b348015610a3657600080fd5b50610441610a45366004614158565b612105565b348015610a5657600080fd5b506103d3610a65366004613ffb565b612110565b348015610a7657600080fd5b5061044161212a565b348015610a8b57600080fd5b506103d36000805160206146de83398151915281565b348015610aad57600080fd5b506104a6610abc366004614170565b612137565b348015610acd57600080fd5b506103d36000805160206146be83398151915281565b348015610aef57600080fd5b50610406610afe366004613e00565b6001600160a01b03918216600090815260056020908152604080832093909416825291909152205460ff1690565b348015610b3857600080fd5b506104a6610b47366004613de6565b61215c565b348015610b5857600080fd5b506104a6610b673660046140b9565b6121fa565b348015610b7857600080fd5b506103d3600d5481565b60006001600160e01b031982166380ac58cd60e01b1480610ba75750610ba78261237f565b92915050565b606060008054610bbc906145ed565b80601f0160208091040260200160405190810160405280929190818152602001828054610be8906145ed565b8015610c355780601f10610c0a57610100808354040283529160200191610c35565b820191906000526020600020905b815481529060010190602001808311610c1857829003601f168201915b5050505050905090565b6000610c4a826123a4565b610cb05760405162461bcd60e51b815260206004820152602c60248201527f4552433732313a20617070726f76656420717565727920666f72206e6f6e657860448201526b34b9ba32b73a103a37b5b2b760a11b60648201526084015b60405180910390fd5b506000908152600460205260409020546001600160a01b031690565b6000610cd782611820565b9050806001600160a01b0316836001600160a01b03161415610d455760405162461bcd60e51b815260206004820152602160248201527f4552433732313a20617070726f76616c20746f2063757272656e74206f776e656044820152603960f91b6064820152608401610ca7565b336001600160a01b0382161480610d615750610d618133610afe565b610dd35760405162461bcd60e51b815260206004820152603860248201527f4552433732313a20617070726f76652063616c6c6572206973206e6f74206f7760448201527f6e6572206e6f7220617070726f76656420666f7220616c6c00000000000000006064820152608401610ca7565b610ddd83836123c1565b505050565b6000805160206146de833981519152610dfa8161242f565b6000600e8054610e09906145ed565b905011610e505760405162461bcd60e51b815260206004820152601560248201527411db1bd8985b08155492481a5cc81b9bdd081cd95d605a1b6044820152606401610ca7565b6001600160a01b038216610e9b5760405162461bcd60e51b8152602060048201526012602482015271496e76616c696420746f206164647265737360701b6044820152606401610ca7565b610ddd82600e8054610eac906145ed565b80601f0160208091040260200160405190810160405280929190818152602001828054610ed8906145ed565b8015610f255780601f10610efa57610100808354040283529160200191610f25565b820191906000526020600020905b815481529060010190602001808311610f0857829003601f168201915b5050505050612110565b610f3a335b82612439565b610f565760405162461bcd60e51b8152600401610ca7906144a4565b610ddd838383612523565b600b546001600160a01b03610100909104163314610f915760405162461bcd60e51b8152600401610ca79061442e565b600d8290558051610fa990600e906020840190613ae7565b507f57bbf0b7295e3c8587fe0fa3c76592771f6a96123bf723292fd0e3933436b71f600d54604051610fdd91815260200190565b60405180910390a15050565b60606000608080548060200260200160405190810160405280929190818152602001828054801561103957602002820191906000526020600020905b815481526020019060010190808311611025575b50939695505050505050565b6000828152600c60205260409020600101546110608161242f565b610ddd83836126ca565b6000611075836118fc565b82106110d75760405162461bcd60e51b815260206004820152602b60248201527f455243373231456e756d657261626c653a206f776e657220696e646578206f7560448201526a74206f6620626f756e647360a81b6064820152608401610ca7565b506001600160a01b03919091166000908152600660209081526040808320938352929052205490565b6001600160a01b03811633146111705760405162461bcd60e51b815260206004820152602f60248201527f416363657373436f6e74726f6c3a2063616e206f6e6c792072656e6f756e636560448201526e103937b632b9903337b91039b2b63360891b6064820152608401610ca7565b61117a8282612750565b5050565b6000805160206146be8339815191526111968161242f565b61119e6127b7565b50565b6012546001600160a01b03166111ed5760405162461bcd60e51b81526020600482015260116024820152702bb937b7339038bab7ba32903a37b5b2b760791b6044820152606401610ca7565b607a54421161123e5760405162461bcd60e51b815260206004820152601b60248201527f4e6f7420796574206c61756e63682074696d65207265616368656400000000006044820152606401610ca7565b6000821161125e5760405162461bcd60e51b8152600401610ca790614463565b61129c6081848154811061128257634e487b7160e01b600052603260045260246000fd5b90600052602060002001548261284a90919063ffffffff16565b82146112ea5760405162461bcd60e51b815260206004820152601d60248201527f76616c756520616e6420616d6f756e74206973206e6f74206d617463680000006044820152606401610ca7565b6012546040516370a0823160e01b81523360048201526000916001600160a01b0316906370a082319060240160206040518083038186803b15801561132e57600080fd5b505afa158015611342573d6000803e3d6000fd5b505050506040513d601f19601f8201168201806040525081019061136691906141ca565b90508281116113b75760405162461bcd60e51b815260206004820152601b60248201527f6c61636b206f662071756f746520746f6b656e2062616c616e636500000000006044820152606401610ca7565b6012546113cf906001600160a01b031633308661285d565b6000805b6080548110156114385780861015611426576114236080828154811061140957634e487b7160e01b600052603260045260246000fd5b90600052602060002001548361299b90919063ffffffff16565b91505b8061143081614628565b9150506113d3565b5060005b83811015611578576114776114706013886064811061146b57634e487b7160e01b600052603260045260246000fd5b015490565b839061299b565b91506115373383607f898154811061149f57634e487b7160e01b600052603260045260246000fd5b9060005260206000200180546114b4906145ed565b80601f01602080910402602001604051908101604052809291908181526020018280546114e0906145ed565b801561152d5780601f106115025761010080835404028352916020019161152d565b820191906000526020600020905b81548152906001019060200180831161151057829003601f168201915b50505050506129a7565b506115666013876064811061155c57634e487b7160e01b600052603260045260246000fd5b0180546001019055565b8061157081614628565b91505061143c565b5061158385846129be565b5050505050565b610ddd838383604051806020016040528060008152506120ad565b6115ae33610f34565b6116135760405162461bcd60e51b815260206004820152603060248201527f4552433732314275726e61626c653a2063616c6c6572206973206e6f74206f7760448201526f1b995c881b9bdc88185c1c1c9bdd995960821b6064820152608401610ca7565b61119e81612b10565b600061162760085490565b821061168a5760405162461bcd60e51b815260206004820152602c60248201527f455243373231456e756d657261626c653a20676c6f62616c20696e646578206f60448201526b7574206f6620626f756e647360a01b6064820152608401610ca7565b600882815481106116ab57634e487b7160e01b600052603260045260246000fd5b90600052602060002001549050919050565b6000805160206146de8339815191526116d58161242f565b60405162461bcd60e51b8152602060048201526008602482015267111a5cd8589b195960c21b6044820152606401610ca7565b600b546001600160a01b036101009091041633146117385760405162461bcd60e51b8152600401610ca79061442e565b607a8190556040518181527f7c8826e4db3679f20c86da0c68d37f9dbcd1d638c56717e014f93c56d14c02d1906020015b60405180910390a150565b607f818154811061178457600080fd5b90600052602060002001600091509050805461179f906145ed565b80601f01602080910402602001604051908101604052809291908181526020018280546117cb906145ed565b80156118185780601f106117ed57610100808354040283529160200191611818565b820191906000526020600020905b8154815290600101906020018083116117fb57829003601f168201915b505050505081565b6000818152600260205260408120546001600160a01b031680610ba75760405162461bcd60e51b815260206004820152602960248201527f4552433732313a206f776e657220717565727920666f72206e6f6e657869737460448201526832b73a103a37b5b2b760b91b6064820152608401610ca7565b600b546001600160a01b036101009091041633146118c75760405162461bcd60e51b8152600401610ca79061442e565b607b8190556040518181527fa7ade4ab976b6643a971383d9822fb7c2fce66aa2e497d88c3b4f1475ea2b2e090602001611769565b60006001600160a01b0382166119675760405162461bcd60e51b815260206004820152602a60248201527f4552433732313a2062616c616e636520717565727920666f7220746865207a65604482015269726f206164647265737360b01b6064820152608401610ca7565b506001600160a01b031660009081526003602052604090205490565b600b546001600160a01b036101009091041633146119b35760405162461bcd60e51b8152600401610ca79061442e565b6119bd6000612b19565b565b600b546001600160a01b036101009091041633146119ef5760405162461bcd60e51b8152600401610ca79061442e565b600f80546001600160a01b0319166001600160a01b038316179055611a226000805160206146de833981519152826126ca565b600f546040516001600160a01b0390911681527f329b1203fc60a62c4a0fd3ff1554a07f92a2f117cc590422dd105811bb484ded90602001611769565b600b546001600160a01b03610100909104163314611a8f5760405162461bcd60e51b8152600401610ca79061442e565b611aa76000805160206146be833981519152826126ca565b604080516001600160a01b038316815260208101829052600b918101919091526a5041555345525f524f4c4560a81b60608201527f0578acc86b18d67c13a5e6eed8c670fb7052f530b48a2acb167d6ca77509a38490608001611769565b6000805160206146be833981519152611b1d8161242f565b61119e612b73565b6012546001600160a01b031615611b725760405162461bcd60e51b81526020600482015260116024820152702bb937b7339038bab7ba32903a37b5b2b760791b6044820152606401610ca7565b607a544211611bc35760405162461bcd60e51b815260206004820152601b60248201527f4e6f7420796574206c61756e63682074696d65207265616368656400000000006044820152606401610ca7565b60003411611be35760405162461bcd60e51b8152600401610ca790614463565b611c076081838154811061128257634e487b7160e01b600052603260045260246000fd5b3414611c555760405162461bcd60e51b815260206004820152601d60248201527f76616c756520616e6420616d6f756e74206973206e6f74206d617463680000006044820152606401610ca7565b6000805b608054811015611ca45780841015611c9257611c8f6080828154811061140957634e487b7160e01b600052603260045260246000fd5b91505b80611c9c81614628565b915050611c59565b5060005b82811015611d3657611cd76114706013866064811061146b57634e487b7160e01b600052603260045260246000fd5b9150611cff3383607f878154811061149f57634e487b7160e01b600052603260045260246000fd5b50611d246013856064811061155c57634e487b7160e01b600052603260045260246000fd5b80611d2e81614628565b915050611ca8565b50610ddd83836129be565b60808181548110611d5157600080fd5b600091825260209091200154905081565b600b546001600160a01b03610100909104163314611d925760405162461bcd60e51b8152600401610ca79061442e565b6001600160a01b038316611de85760405162461bcd60e51b815260206004820152601760248201527f696e76616c6964207061796d656e7420616464726573730000000000000000006044820152606401610ca7565b6001600160a01b038216611e3e5760405162461bcd60e51b815260206004820152601860248201527f696e76616c6964207472656173757279206164647265737300000000000000006044820152606401610ca7565b607c80546001600160a01b038581166001600160a01b03199283168117909355607d8054918616919092168117909155607e83905560408051928352602083019190915281018290527fe2be3027f197494650b7a98fd1cae67dacf615bd1d8bb05102999676f11638669060600160405180910390a1505050565b6000918252600c602090815260408084206001600160a01b0393909316845291905290205460ff1690565b606060018054610bbc906145ed565b600b546001600160a01b03610100909104163314611f235760405162461bcd60e51b8152600401610ca79061442e565b611f3b6000805160206146de833981519152826126ca565b604080516001600160a01b038316815260208101829052600b918101919091526a4d494e5445525f524f4c4560a81b60608201527f0578acc86b18d67c13a5e6eed8c670fb7052f530b48a2acb167d6ca77509a38490608001611769565b61117a338383612bee565b600b546001600160a01b03610100909104163314611fd45760405162461bcd60e51b8152600401610ca79061442e565b601280546001600160a01b0319166001600160a01b0383169081179091556040519081527fca92c759228172fe3894a344908fd20dfd37ba561b5af191f1f5b02ee03881fc90602001611769565b6000805160206146de83398151915261203a8161242f565b6001600160a01b0384166120855760405162461bcd60e51b8152602060048201526012602482015271496e76616c696420746f206164647265737360701b6044820152606401610ca7565b60005b828110156115835761209a8585612110565b50806120a581614628565b915050612088565b6120b73383612439565b6120d35760405162461bcd60e51b8152600401610ca7906144a4565b6120df84848484612cbd565b50505050565b60818181548110611d5157600080fd5b60788181548110611d5157600080fd5b6060610ba782612cf0565b60006000805160206146de8339815191526116d58161242f565b600e805461179f906145ed565b6000828152600c60205260409020600101546121528161242f565b610ddd8383612750565b600b546001600160a01b0361010090910416331461218c5760405162461bcd60e51b8152600401610ca79061442e565b6001600160a01b0381166121f15760405162461bcd60e51b815260206004820152602660248201527f4f776e61626c653a206e6577206f776e657220697320746865207a65726f206160448201526564647265737360d01b6064820152608401610ca7565b61119e81612b19565b6000805160206146de8339815191526122128161242f565b60825460ff16156122655760405162461bcd60e51b815260206004820152601860248201527f4974656d7320616c7265616479207265676973746572656400000000000000006044820152606401610ca7565b82518451146122ae5760405162461bcd60e51b8152602060048201526015602482015274082e4e4c2f240d8cadccee8d040dad2e6dac2e8c6d605b1b6044820152606401610ca7565b82516122c1906080906020860190613b6b565b5083516122d590607f906020870190613ba5565b5081516122e9906081906020850190613b6b565b5060005b845181101561236b5761233284828151811061231957634e487b7160e01b600052603260045260246000fd5b602002602001015160795461299b90919063ffffffff16565b6079556123596013826064811061155c57634e487b7160e01b600052603260045260246000fd5b8061236381614628565b9150506122ed565b50506082805460ff19166001179055505050565b60006001600160e01b03198216637965db0b60e01b1480610ba75750610ba782612e5f565b6000908152600260205260409020546001600160a01b0316151590565b600081815260046020526040902080546001600160a01b0319166001600160a01b03841690811790915581906123f682611820565b6001600160a01b03167f8c5be1e5ebec7d5bd14f71427d1e84f3dd0314c0f7b2291e5b200ac8c7c3b92560405160405180910390a45050565b61119e8133612e84565b6000612444826123a4565b6124a55760405162461bcd60e51b815260206004820152602c60248201527f4552433732313a206f70657261746f7220717565727920666f72206e6f6e657860448201526b34b9ba32b73a103a37b5b2b760a11b6064820152608401610ca7565b60006124b083611820565b9050806001600160a01b0316846001600160a01b031614806124f757506001600160a01b0380821660009081526005602090815260408083209388168352929052205460ff165b8061251b5750836001600160a01b031661251084610c3f565b6001600160a01b0316145b949350505050565b826001600160a01b031661253682611820565b6001600160a01b03161461259a5760405162461bcd60e51b815260206004820152602560248201527f4552433732313a207472616e736665722066726f6d20696e636f72726563742060448201526437bbb732b960d91b6064820152608401610ca7565b6001600160a01b0382166125fc5760405162461bcd60e51b8152602060048201526024808201527f4552433732313a207472616e7366657220746f20746865207a65726f206164646044820152637265737360e01b6064820152608401610ca7565b612607838383612ee8565b6126126000826123c1565b6001600160a01b038316600090815260036020526040812080546001929061263b908490614593565b90915550506001600160a01b0382166000908152600360205260408120805460019290612669908490614548565b909155505060008181526002602052604080822080546001600160a01b0319166001600160a01b0386811691821790925591518493918716917fddf252ad1be2c89b69c2b068fc378daa952ba7f163c4a11628f55a4df523b3ef91a4505050565b6126d48282611eb9565b61117a576000828152600c602090815260408083206001600160a01b03851684529091529020805460ff1916600117905561270c3390565b6001600160a01b0316816001600160a01b0316837f2f8788117e7eff1d82e926ec794901d17c78024a50270940304540a733656f0d60405160405180910390a45050565b61275a8282611eb9565b1561117a576000828152600c602090815260408083206001600160a01b0385168085529252808320805460ff1916905551339285917ff6391f5c32d9c69d2a47ea670b442974b53935d1edc7fd64eb21e047a839171b9190a45050565b600b5460ff166128005760405162461bcd60e51b815260206004820152601460248201527314185d5cd8589b194e881b9bdd081c185d5cd95960621b6044820152606401610ca7565b600b805460ff191690557f5db9ee0a495bf2e6ff9c91a7834c1ba4fdd244a5e8aa4e537bd38aeae4b073aa335b6040516001600160a01b03909116815260200160405180910390a1565b60006128568284614574565b9392505050565b604080516001600160a01b0385811660248301528481166044830152606480830185905283518084039091018152608490920183526020820180516001600160e01b03166323b872dd60e01b17905291516000928392908816916128c19190614288565b6000604051808303816000865af19150503d80600081146128fe576040519150601f19603f3d011682016040523d82523d6000602084013e612903565b606091505b509150915081801561292d57508051158061292d57508080602001905181019061292d919061413c565b6129935760405162461bcd60e51b815260206004820152603160248201527f5472616e7366657248656c7065723a3a7472616e7366657246726f6d3a207472604482015270185b9cd9995c919c9bdb4819985a5b1959607a1b6064820152608401610ca7565b505050505050565b60006128568284614548565b6000806129b5858585612f39565b95945050505050565b607c546001600160a01b0316612a165760405162461bcd60e51b815260206004820152601a60248201527f7061796d656e742061646472657373206973206e6f74207365740000000000006044820152606401610ca7565b6000612a5660818481548110612a3c57634e487b7160e01b600052603260045260246000fd5b90600052602060002001548361284a90919063ffffffff16565b90506000612a7b6103e8612a75607e548561284a90919063ffffffff16565b90612f57565b6012549091506001600160a01b031615612adb57601254607d54612aae916001600160a01b03908116913091168461285d565b601254607c54612ad6916001600160a01b0390811691309116612ad18686612f63565b61285d565b6120df565b607d54612af1906001600160a01b031682612f6f565b607c546120df906001600160a01b0316612b0b8484612f63565b612f6f565b61119e81613049565b600b80546001600160a01b03838116610100818102610100600160a81b031985161790945560405193909204169182907f8be0079c531659141344cd1fd0a4f28419497f9722a3daafe3b4186f6b6457e090600090a35050565b600b5460ff1615612bb95760405162461bcd60e51b815260206004820152601060248201526f14185d5cd8589b194e881c185d5cd95960821b6044820152606401610ca7565b600b805460ff191660011790557f62e78cea01bee320cd4e420270b5ea74000d11b0c9f74754ebdbfc544b05a25861282d3390565b816001600160a01b0316836001600160a01b03161415612c505760405162461bcd60e51b815260206004820152601960248201527f4552433732313a20617070726f766520746f2063616c6c6572000000000000006044820152606401610ca7565b6001600160a01b03838116600081815260056020908152604080832094871680845294825291829020805460ff191686151590811790915591519182527f17307eab39ab6107e8899845ad3d59bd9653f200f220920489ca2b5937696c31910160405180910390a3505050565b612cc8848484612523565b612cd484848484613089565b6120df5760405162461bcd60e51b8152600401610ca7906143dc565b6060612cfb826123a4565b612d615760405162461bcd60e51b815260206004820152603160248201527f45524337323155524953746f726167653a2055524920717565727920666f72206044820152703737b732bc34b9ba32b73a103a37b5b2b760791b6064820152608401610ca7565b6000828152600a602052604081208054612d7a906145ed565b80601f0160208091040260200160405190810160405280929190818152602001828054612da6906145ed565b8015612df35780601f10612dc857610100808354040283529160200191612df3565b820191906000526020600020905b815481529060010190602001808311612dd657829003601f168201915b505050505090506000612e1160408051602081019091526000815290565b9050805160001415612e24575092915050565b815115612e56578082604051602001612e3e9291906142a4565b60405160208183030381529060405292505050919050565b61251b84613196565b60006001600160e01b0319821663780e9d6360e01b1480610ba75750610ba78261326d565b612e8e8282611eb9565b61117a57612ea6816001600160a01b031660146132bd565b612eb18360206132bd565b604051602001612ec29291906142d3565b60408051601f198184030181529082905262461bcd60e51b8252610ca7916004016143c9565b600b5460ff1615612f2e5760405162461bcd60e51b815260206004820152601060248201526f14185d5cd8589b194e881c185d5cd95960821b6044820152606401610ca7565b610ddd83838361349e565b6000612f458484613556565b612f4f8383613570565b509092915050565b60006128568284614560565b60006128568284614593565b604080516000808252602082019092526001600160a01b038416908390604051612f999190614288565b60006040518083038185875af1925050503d8060008114612fd6576040519150601f19603f3d011682016040523d82523d6000602084013e612fdb565b606091505b5050905080610ddd5760405162461bcd60e51b815260206004820152603460248201527f5472616e7366657248656c7065723a3a736166655472616e736665724554483a60448201527308115512081d1c985b9cd9995c8819985a5b195960621b6064820152608401610ca7565b613052816135fb565b6000818152600a60205260409020805461306b906145ed565b15905061119e576000818152600a6020526040812061119e91613bfe565b60006001600160a01b0384163b1561318b57604051630a85bd0160e11b81526001600160a01b0385169063150b7a02906130cd903390899088908890600401614348565b602060405180830381600087803b1580156130e757600080fd5b505af1925050508015613117575060408051601f3d908101601f19168201909252613114918101906141ae565b60015b613171573d808015613145576040519150601f19603f3d011682016040523d82523d6000602084013e61314a565b606091505b5080516131695760405162461bcd60e51b8152600401610ca7906143dc565b805181602001fd5b6001600160e01b031916630a85bd0160e11b14905061251b565b506001949350505050565b60606131a1826123a4565b6132055760405162461bcd60e51b815260206004820152602f60248201527f4552433732314d657461646174613a2055524920717565727920666f72206e6f60448201526e3732bc34b9ba32b73a103a37b5b2b760891b6064820152608401610ca7565b600061321c60408051602081019091526000815290565b9050600081511161323c5760405180602001604052806000815250612856565b80613246846136a2565b6040516020016132579291906142a4565b6040516020818303038152906040529392505050565b60006001600160e01b031982166380ac58cd60e01b148061329e57506001600160e01b03198216635b5e139f60e01b145b80610ba757506301ffc9a760e01b6001600160e01b0319831614610ba7565b606060006132cc836002614574565b6132d7906002614548565b6001600160401b038111156132fc57634e487b7160e01b600052604160045260246000fd5b6040519080825280601f01601f191660200182016040528015613326576020820181803683370190505b509050600360fc1b8160008151811061334f57634e487b7160e01b600052603260045260246000fd5b60200101906001600160f81b031916908160001a905350600f60fb1b8160018151811061338c57634e487b7160e01b600052603260045260246000fd5b60200101906001600160f81b031916908160001a90535060006133b0846002614574565b6133bb906001614548565b90505b600181111561344f576f181899199a1a9b1b9c1cb0b131b232b360811b85600f16601081106133fd57634e487b7160e01b600052603260045260246000fd5b1a60f81b82828151811061342157634e487b7160e01b600052603260045260246000fd5b60200101906001600160f81b031916908160001a90535060049490941c93613448816145d6565b90506133be565b5083156128565760405162461bcd60e51b815260206004820181905260248201527f537472696e67733a20686578206c656e67746820696e73756666696369656e746044820152606401610ca7565b6001600160a01b0383166134f9576134f481600880546000838152600960205260408120829055600182018355919091527ff3f7a9fe364faab93b216da50a3214154f22a0a2b415b23a84c8169e8b636ee30155565b61351c565b816001600160a01b0316836001600160a01b03161461351c5761351c83826137bb565b6001600160a01b03821661353357610ddd81613858565b826001600160a01b0316826001600160a01b031614610ddd57610ddd8282613931565b61117a828260405180602001604052806000815250613975565b613579826123a4565b6135dc5760405162461bcd60e51b815260206004820152602e60248201527f45524337323155524953746f726167653a2055524920736574206f66206e6f6e60448201526d32bc34b9ba32b73a103a37b5b2b760911b6064820152608401610ca7565b6000828152600a602090815260409091208251610ddd92840190613ae7565b600061360682611820565b905061361481600084612ee8565b61361f6000836123c1565b6001600160a01b0381166000908152600360205260408120805460019290613648908490614593565b909155505060008281526002602052604080822080546001600160a01b0319169055518391906001600160a01b038416907fddf252ad1be2c89b69c2b068fc378daa952ba7f163c4a11628f55a4df523b3ef908390a45050565b6060816136c65750506040805180820190915260018152600360fc1b602082015290565b8160005b81156136f057806136da81614628565b91506136e99050600a83614560565b91506136ca565b6000816001600160401b0381111561371857634e487b7160e01b600052604160045260246000fd5b6040519080825280601f01601f191660200182016040528015613742576020820181803683370190505b5090505b841561251b57613757600183614593565b9150613764600a86614643565b61376f906030614548565b60f81b81838151811061379257634e487b7160e01b600052603260045260246000fd5b60200101906001600160f81b031916908160001a9053506137b4600a86614560565b9450613746565b600060016137c8846118fc565b6137d29190614593565b600083815260076020526040902054909150808214613825576001600160a01b03841660009081526006602090815260408083208584528252808320548484528184208190558352600790915290208190555b5060009182526007602090815260408084208490556001600160a01b039094168352600681528383209183525290812055565b60085460009061386a90600190614593565b600083815260096020526040812054600880549394509092849081106138a057634e487b7160e01b600052603260045260246000fd5b9060005260206000200154905080600883815481106138cf57634e487b7160e01b600052603260045260246000fd5b600091825260208083209091019290925582815260099091526040808220849055858252812055600880548061391557634e487b7160e01b600052603160045260246000fd5b6001900381819060005260206000200160009055905550505050565b600061393c836118fc565b6001600160a01b039093166000908152600660209081526040808320868452825280832085905593825260079052919091209190915550565b61397f83836139a8565b61398c6000848484613089565b610ddd5760405162461bcd60e51b8152600401610ca7906143dc565b6001600160a01b0382166139fe5760405162461bcd60e51b815260206004820181905260248201527f4552433732313a206d696e7420746f20746865207a65726f20616464726573736044820152606401610ca7565b613a07816123a4565b15613a545760405162461bcd60e51b815260206004820152601c60248201527f4552433732313a20746f6b656e20616c7265616479206d696e746564000000006044820152606401610ca7565b613a6060008383612ee8565b6001600160a01b0382166000908152600360205260408120805460019290613a89908490614548565b909155505060008181526002602052604080822080546001600160a01b0319166001600160a01b03861690811790915590518392907fddf252ad1be2c89b69c2b068fc378daa952ba7f163c4a11628f55a4df523b3ef908290a45050565b828054613af3906145ed565b90600052602060002090601f016020900481019282613b155760008555613b5b565b82601f10613b2e57805160ff1916838001178555613b5b565b82800160010185558215613b5b579182015b82811115613b5b578251825591602001919060010190613b40565b50613b67929150613c34565b5090565b828054828255906000526020600020908101928215613b5b5791602002820182811115613b5b578251825591602001919060010190613b40565b828054828255906000526020600020908101928215613bf2579160200282015b82811115613bf25782518051613be2918491602090910190613ae7565b5091602001919060010190613bc5565b50613b67929150613c49565b508054613c0a906145ed565b6000825580601f10613c1a575050565b601f01602090049060005260206000209081019061119e91905b5b80821115613b675760008155600101613c35565b80821115613b67576000613c5d8282613bfe565b50600101613c49565b60006001600160401b03831115613c7f57613c7f614683565b613c92601f8401601f19166020016144f5565b9050828152838383011115613ca657600080fd5b828260208301376000602084830101529392505050565b80356001600160a01b0381168114613cd457600080fd5b919050565b600082601f830112613ce9578081fd5b81356020613cfe613cf983614525565b6144f5565b80838252828201915082860187848660051b8901011115613d1d578586fd5b855b85811015613d5d5781356001600160401b03811115613d3c578788fd5b613d4a8a87838c0101613dc7565b8552509284019290840190600101613d1f565b5090979650505050505050565b600082601f830112613d7a578081fd5b81356020613d8a613cf983614525565b80838252828201915082860187848660051b8901011115613da9578586fd5b855b85811015613d5d57813584529284019290840190600101613dab565b600082601f830112613dd7578081fd5b61285683833560208501613c66565b600060208284031215613df7578081fd5b61285682613cbd565b60008060408385031215613e12578081fd5b613e1b83613cbd565b9150613e2960208401613cbd565b90509250929050565b600080600060608486031215613e46578081fd5b613e4f84613cbd565b9250613e5d60208501613cbd565b9150604084013590509250925092565b600080600080600060808688031215613e84578081fd5b613e8d86613cbd565b9450613e9b60208701613cbd565b93506040860135925060608601356001600160401b0380821115613ebd578283fd5b818801915088601f830112613ed0578283fd5b813581811115613ede578384fd5b896020828501011115613eef578384fd5b9699959850939650602001949392505050565b60008060008060808587031215613f17578384fd5b613f2085613cbd565b9350613f2e60208601613cbd565b92506040850135915060608501356001600160401b03811115613f4f578182fd5b8501601f81018713613f5f578182fd5b613f6e87823560208401613c66565b91505092959194509250565b60008060408385031215613f8c578182fd5b613f9583613cbd565b915060208301356001600160401b03811115613faf578182fd5b613fbb85828601613cd9565b9150509250929050565b60008060408385031215613fd7578182fd5b613fe083613cbd565b91506020830135613ff081614699565b809150509250929050565b6000806040838503121561400d578182fd5b61401683613cbd565b915060208301356001600160401b03811115614030578182fd5b613fbb85828601613dc7565b600080600060608486031215614050578081fd5b61405984613cbd565b925060208401356001600160401b03811115614073578182fd5b61407f86828701613dc7565b925050604084013590509250925092565b600080604083850312156140a2578182fd5b6140ab83613cbd565b946020939093013593505050565b6000806000606084860312156140cd578081fd5b83356001600160401b03808211156140e3578283fd5b6140ef87838801613cd9565b94506020860135915080821115614104578283fd5b61411087838801613d6a565b93506040860135915080821115614125578283fd5b5061413286828701613d6a565b9150509250925092565b60006020828403121561414d578081fd5b815161285681614699565b600060208284031215614169578081fd5b5035919050565b60008060408385031215614182578182fd5b82359150613e2960208401613cbd565b6000602082840312156141a3578081fd5b8135612856816146a7565b6000602082840312156141bf578081fd5b8151612856816146a7565b6000602082840312156141db578081fd5b5051919050565b600080604083850312156141f4578182fd5b8235915060208301356001600160401b03811115614030578182fd5b60008060408385031215614222578182fd5b50508035926020909101359150565b600080600060608486031215614245578081fd5b505081359360208301359350604090920135919050565b600081518084526142748160208601602086016145aa565b601f01601f19169290920160200192915050565b6000825161429a8184602087016145aa565b9190910192915050565b600083516142b68184602088016145aa565b8351908301906142ca8183602088016145aa565b01949350505050565b7f416363657373436f6e74726f6c3a206163636f756e742000000000000000000081526000835161430b8160178501602088016145aa565b7001034b99036b4b9b9b4b733903937b6329607d1b601791840191820152835161433c8160288401602088016145aa565b01602801949350505050565b6001600160a01b038581168252841660208201526040810183905260806060820181905260009061437b9083018461425c565b9695505050505050565b6020808252825182820181905260009190848201906040850190845b818110156143bd578351835292840192918401916001016143a1565b50909695505050505050565b602081526000612856602083018461425c565b60208082526032908201527f4552433732313a207472616e7366657220746f206e6f6e20455243373231526560408201527131b2b4bb32b91034b6b83632b6b2b73a32b960711b606082015260800190565b6020808252818101527f4f776e61626c653a2063616c6c6572206973206e6f7420746865206f776e6572604082015260600190565b60208082526021908201527f76616c75652073686f756c642062652067726561746572207468616e207a65726040820152606f60f81b606082015260800190565b60208082526031908201527f4552433732313a207472616e736665722063616c6c6572206973206e6f74206f6040820152701ddb995c881b9bdc88185c1c1c9bdd9959607a1b606082015260800190565b604051601f8201601f191681016001600160401b038111828210171561451d5761451d614683565b604052919050565b60006001600160401b0382111561453e5761453e614683565b5060051b60200190565b6000821982111561455b5761455b614657565b500190565b60008261456f5761456f61466d565b500490565b600081600019048311821515161561458e5761458e614657565b500290565b6000828210156145a5576145a5614657565b500390565b60005b838110156145c55781810151838201526020016145ad565b838111156120df5750506000910152565b6000816145e5576145e5614657565b506000190190565b600181811c9082168061460157607f821691505b6020821081141561462257634e487b7160e01b600052602260045260246000fd5b50919050565b600060001982141561463c5761463c614657565b5060010190565b6000826146525761465261466d565b500690565b634e487b7160e01b600052601160045260246000fd5b634e487b7160e01b600052601260045260246000fd5b634e487b7160e01b600052604160045260246000fd5b801515811461119e57600080fd5b6001600160e01b03198116811461119e57600080fdfe65d7a28e3265b37a6474929f336521b332c1681b933f6cb9f3376673440d862a9f2df0fed2c77648de5860a4cc508cd0818c85b8b8a1ab4ceeef8d981c8956a6a2646970667358221220840a5bfd6e969134634e6b53b79d886dfcb6c27d4159eed2e3135907631f067464736f6c634300080400334f776e61626c653a2063616c6c6572206973206e6f7420746865206f776e657265d7a28e3265b37a6474929f336521b332c1681b933f6cb9f3376673440d862a9f2df0fed2c77648de5860a4cc508cd0818c85b8b8a1ab4ceeef8d981c8956a6",
  "linkReferences": {},
  "deployedLinkReferences": {}
}