{
  "_format": "hh-sol-artifact-1",
  "contractName": "Collection",
  "sourceName": "contracts/Collection.sol",
  "abi": [
    {
      "inputs": [
        {
          "internalType": "string",
          "name": "name",
          "type": "string"
        },
        {
          "internalType": "string",
          "name": "symbol",
          "type": "string"
        },
        {
          "internalType": "address",
          "name": "_quote",
          "type": "address"
        },
        {
          "internalType": "address",
          "name": "_payment",
          "type": "address"
        },
        {
          "internalType": "address",
          "name": "_treasury",
          "type": "address"
        },
        {
          "internalType": "uint256[]",
          "name": "configValues",
          "type": "uint256[]"
        }
      ],
      "stateMutability": "nonpayable",
      "type": "constructor"
    },
    {
      "anonymous": false,
      "inputs": [
        {
          "indexed": true,
          "internalType": "address",
          "name": "owner",
          "type": "address"
        },
        {
          "indexed": true,
          "internalType": "address",
          "name": "approved",
          "type": "address"
        },
        {
          "indexed": true,
          "internalType": "uint256",
          "name": "tokenId",
          "type": "uint256"
        }
      ],
      "name": "Approval",
      "type": "event"
    },
    {
      "anonymous": false,
      "inputs": [
        {
          "indexed": true,
          "internalType": "address",
          "name": "owner",
          "type": "address"
        },
        {
          "indexed": true,
          "internalType": "address",
          "name": "operator",
          "type": "address"
        },
        {
          "indexed": false,
          "internalType": "bool",
          "name": "approved",
          "type": "bool"
        }
      ],
      "name": "ApprovalForAll",
      "type": "event"
    },
    {
      "anonymous": false,
      "inputs": [
        {
          "indexed": false,
          "internalType": "address",
          "name": "",
          "type": "address"
        },
        {
          "indexed": false,
          "internalType": "string",
          "name": "",
          "type": "string"
        }
      ],
      "name": "Grant",
      "type": "event"
    },
    {
      "anonymous": false,
      "inputs": [
        {
          "indexed": true,
          "internalType": "address",
          "name": "previousOwner",
          "type": "address"
        },
        {
          "indexed": true,
          "internalType": "address",
          "name": "newOwner",
          "type": "address"
        }
      ],
      "name": "OwnershipTransferred",
      "type": "event"
    },
    {
      "anonymous": false,
      "inputs": [
        {
          "indexed": false,
          "internalType": "address",
          "name": "account",
          "type": "address"
        }
      ],
      "name": "Paused",
      "type": "event"
    },
    {
      "anonymous": false,
      "inputs": [
        {
          "indexed": true,
          "internalType": "bytes32",
          "name": "role",
          "type": "bytes32"
        },
        {
          "indexed": true,
          "internalType": "bytes32",
          "name": "previousAdminRole",
          "type": "bytes32"
        },
        {
          "indexed": true,
          "internalType": "bytes32",
          "name": "newAdminRole",
          "type": "bytes32"
        }
      ],
      "name": "RoleAdminChanged",
      "type": "event"
    },
    {
      "anonymous": false,
      "inputs": [
        {
          "indexed": true,
          "internalType": "bytes32",
          "name": "role",
          "type": "bytes32"
        },
        {
          "indexed": true,
          "internalType": "address",
          "name": "account",
          "type": "address"
        },
        {
          "indexed": true,
          "internalType": "address",
          "name": "sender",
          "type": "address"
        }
      ],
      "name": "RoleGranted",
      "type": "event"
    },
    {
      "anonymous": false,
      "inputs": [
        {
          "indexed": true,
          "internalType": "bytes32",
          "name": "role",
          "type": "bytes32"
        },
        {
          "indexed": true,
          "internalType": "address",
          "name": "account",
          "type": "address"
        },
        {
          "indexed": true,
          "internalType": "address",
          "name": "sender",
          "type": "address"
        }
      ],
      "name": "RoleRevoked",
      "type": "event"
    },
    {
      "anonymous": false,
      "inputs": [
        {
          "indexed": false,
          "internalType": "address",
          "name": "",
          "type": "address"
        },
        {
          "indexed": false,
          "internalType": "address",
          "name": "",
          "type": "address"
        },
        {
          "indexed": false,
          "internalType": "uint256",
          "name": "",
          "type": "uint256"
        }
      ],
      "name": "SetConfig",
      "type": "event"
    },
    {
      "anonymous": false,
      "inputs": [
        {
          "indexed": false,
          "internalType": "uint256",
          "name": "",
          "type": "uint256"
        }
      ],
      "name": "SetHardCap",
      "type": "event"
    },
    {
      "anonymous": false,
      "inputs": [
        {
          "indexed": false,
          "internalType": "uint256",
          "name": "",
          "type": "uint256"
        }
      ],
      "name": "SetLaunch",
      "type": "event"
    },
    {
      "anonymous": false,
      "inputs": [
        {
          "indexed": false,
          "internalType": "uint256",
          "name": "",
          "type": "uint256"
        }
      ],
      "name": "SetLockup",
      "type": "event"
    },
    {
      "anonymous": false,
      "inputs": [
        {
          "indexed": false,
          "internalType": "address",
          "name": "",
          "type": "address"
        }
      ],
      "name": "SetMysteryBox",
      "type": "event"
    },
    {
      "anonymous": false,
      "inputs": [
        {
          "indexed": false,
          "internalType": "address",
          "name": "",
          "type": "address"
        }
      ],
      "name": "SetQuote",
      "type": "event"
    },
    {
      "anonymous": false,
      "inputs": [
        {
          "indexed": true,
          "internalType": "address",
          "name": "from",
          "type": "address"
        },
        {
          "indexed": true,
          "internalType": "address",
          "name": "to",
          "type": "address"
        },
        {
          "indexed": true,
          "internalType": "uint256",
          "name": "tokenId",
          "type": "uint256"
        }
      ],
      "name": "Transfer",
      "type": "event"
    },
    {
      "anonymous": false,
      "inputs": [
        {
          "indexed": false,
          "internalType": "address",
          "name": "account",
          "type": "address"
        }
      ],
      "name": "Unpaused",
      "type": "event"
    },
    {
      "inputs": [],
      "name": "DEFAULT_ADMIN_ROLE",
      "outputs": [
        {
          "internalType": "bytes32",
          "name": "",
          "type": "bytes32"
        }
      ],
      "stateMutability": "view",
      "type": "function"
    },
    {
      "inputs": [],
      "name": "MINTER_ROLE",
      "outputs": [
        {
          "internalType": "bytes32",
          "name": "",
          "type": "bytes32"
        }
      ],
      "stateMutability": "view",
      "type": "function"
    },
    {
      "inputs": [],
      "name": "PAUSER_ROLE",
      "outputs": [
        {
          "internalType": "bytes32",
          "name": "",
          "type": "bytes32"
        }
      ],
      "stateMutability": "view",
      "type": "function"
    },
    {
      "inputs": [
        {
          "internalType": "address",
          "name": "minter",
          "type": "address"
        }
      ],
      "name": "addMinter",
      "outputs": [],
      "stateMutability": "nonpayable",
      "type": "function"
    },
    {
      "inputs": [
        {
          "internalType": "address",
          "name": "pauser",
          "type": "address"
        }
      ],
      "name": "addPauser",
      "outputs": [],
      "stateMutability": "nonpayable",
      "type": "function"
    },
    {
      "inputs": [
        {
          "internalType": "address",
          "name": "to",
          "type": "address"
        },
        {
          "internalType": "uint256",
          "name": "tokenId",
          "type": "uint256"
        }
      ],
      "name": "approve",
      "outputs": [],
      "stateMutability": "nonpayable",
      "type": "function"
    },
    {
      "inputs": [
        {
          "internalType": "address",
          "name": "owner",
          "type": "address"
        }
      ],
      "name": "balanceOf",
      "outputs": [
        {
          "internalType": "uint256",
          "name": "",
          "type": "uint256"
        }
      ],
      "stateMutability": "view",
      "type": "function"
    },
    {
      "inputs": [
        {
          "internalType": "uint256",
          "name": "tokenId",
          "type": "uint256"
        }
      ],
      "name": "burn",
      "outputs": [],
      "stateMutability": "nonpayable",
      "type": "function"
    },
    {
      "inputs": [
        {
          "internalType": "uint256",
          "name": "_itemIx",
          "type": "uint256"
        },
        {
          "internalType": "uint256",
          "name": "_amount",
          "type": "uint256"
        }
      ],
      "name": "buyItemCredit",
      "outputs": [],
      "stateMutability": "nonpayable",
      "type": "function"
    },
    {
      "inputs": [
        {
          "internalType": "uint256",
          "name": "_itemIx",
          "type": "uint256"
        },
        {
          "internalType": "uint256",
          "name": "_amount",
          "type": "uint256"
        }
      ],
      "name": "buyItemEth",
      "outputs": [],
      "stateMutability": "payable",
      "type": "function"
    },
    {
      "inputs": [
        {
          "internalType": "uint256",
          "name": "_itemIx",
          "type": "uint256"
        },
        {
          "internalType": "uint256",
          "name": "_payment",
          "type": "uint256"
        },
        {
          "internalType": "uint256",
          "name": "_amount",
          "type": "uint256"
        }
      ],
      "name": "buyItemQuote",
      "outputs": [],
      "stateMutability": "nonpayable",
      "type": "function"
    },
    {
      "inputs": [],
      "name": "feeRate",
      "outputs": [
        {
          "internalType": "uint256",
          "name": "",
          "type": "uint256"
        }
      ],
      "stateMutability": "view",
      "type": "function"
    },
    {
      "inputs": [
        {
          "internalType": "uint256",
          "name": "tokenId",
          "type": "uint256"
        }
      ],
      "name": "getApproved",
      "outputs": [
        {
          "internalType": "address",
          "name": "",
          "type": "address"
        }
      ],
      "stateMutability": "view",
      "type": "function"
    },
    {
      "inputs": [],
      "name": "getItemRemains",
      "outputs": [
        {
          "internalType": "uint256",
          "name": "",
          "type": "uint256"
        }
      ],
      "stateMutability": "view",
      "type": "function"
    },
    {
      "inputs": [
        {
          "internalType": "bytes32",
          "name": "role",
          "type": "bytes32"
        }
      ],
      "name": "getRoleAdmin",
      "outputs": [
        {
          "internalType": "bytes32",
          "name": "",
          "type": "bytes32"
        }
      ],
      "stateMutability": "view",
      "type": "function"
    },
    {
      "inputs": [],
      "name": "globalURI",
      "outputs": [
        {
          "internalType": "string",
          "name": "",
          "type": "string"
        }
      ],
      "stateMutability": "view",
      "type": "function"
    },
    {
      "inputs": [
        {
          "internalType": "bytes32",
          "name": "role",
          "type": "bytes32"
        },
        {
          "internalType": "address",
          "name": "account",
          "type": "address"
        }
      ],
      "name": "grantRole",
      "outputs": [],
      "stateMutability": "nonpayable",
      "type": "function"
    },
    {
      "inputs": [],
      "name": "hardCap",
      "outputs": [
        {
          "internalType": "uint256",
          "name": "",
          "type": "uint256"
        }
      ],
      "stateMutability": "view",
      "type": "function"
    },
    {
      "inputs": [
        {
          "internalType": "bytes32",
          "name": "role",
          "type": "bytes32"
        },
        {
          "internalType": "address",
          "name": "account",
          "type": "address"
        }
      ],
      "name": "hasRole",
      "outputs": [
        {
          "internalType": "bool",
          "name": "",
          "type": "bool"
        }
      ],
      "stateMutability": "view",
      "type": "function"
    },
    {
      "inputs": [
        {
          "internalType": "address",
          "name": "owner",
          "type": "address"
        },
        {
          "internalType": "address",
          "name": "operator",
          "type": "address"
        }
      ],
      "name": "isApprovedForAll",
      "outputs": [
        {
          "internalType": "bool",
          "name": "",
          "type": "bool"
        }
      ],
      "stateMutability": "view",
      "type": "function"
    },
    {
      "inputs": [
        {
          "internalType": "uint256",
          "name": "",
          "type": "uint256"
        }
      ],
      "name": "itemAmounts",
      "outputs": [
        {
          "internalType": "uint256",
          "name": "",
          "type": "uint256"
        }
      ],
      "stateMutability": "view",
      "type": "function"
    },
    {
      "inputs": [
        {
          "internalType": "uint256",
          "name": "",
          "type": "uint256"
        }
      ],
      "name": "itemPrices",
      "outputs": [
        {
          "internalType": "uint256",
          "name": "",
          "type": "uint256"
        }
      ],
      "stateMutability": "view",
      "type": "function"
    },
    {
      "inputs": [
        {
          "internalType": "uint256",
          "name": "",
          "type": "uint256"
        }
      ],
      "name": "itemSolds",
      "outputs": [
        {
          "internalType": "uint256",
          "name": "",
          "type": "uint256"
        }
      ],
      "stateMutability": "view",
      "type": "function"
    },
    {
      "inputs": [
        {
          "internalType": "uint256",
          "name": "",
          "type": "uint256"
        }
      ],
      "name": "itemURIs",
      "outputs": [
        {
          "internalType": "string",
          "name": "",
          "type": "string"
        }
      ],
      "stateMutability": "view",
      "type": "function"
    },
    {
      "inputs": [],
      "name": "launch",
      "outputs": [
        {
          "internalType": "uint256",
          "name": "",
          "type": "uint256"
        }
      ],
      "stateMutability": "view",
      "type": "function"
    },
    {
      "inputs": [],
      "name": "lockup",
      "outputs": [
        {
          "internalType": "uint256",
          "name": "",
          "type": "uint256"
        }
      ],
      "stateMutability": "view",
      "type": "function"
    },
    {
      "inputs": [],
      "name": "mysteryBox",
      "outputs": [
        {
          "internalType": "address",
          "name": "",
          "type": "address"
        }
      ],
      "stateMutability": "view",
      "type": "function"
    },
    {
      "inputs": [],
      "name": "name",
      "outputs": [
        {
          "internalType": "string",
          "name": "",
          "type": "string"
        }
      ],
      "stateMutability": "view",
      "type": "function"
    },
    {
      "inputs": [
        {
          "internalType": "address",
          "name": "operator",
          "type": "address"
        },
        {
          "internalType": "address",
          "name": "from",
          "type": "address"
        },
        {
          "internalType": "uint256",
          "name": "tokenId",
          "type": "uint256"
        },
        {
          "internalType": "bytes",
          "name": "data",
          "type": "bytes"
        }
      ],
      "name": "onERC721Received",
      "outputs": [
        {
          "internalType": "bytes4",
          "name": "",
          "type": "bytes4"
        }
      ],
      "stateMutability": "pure",
      "type": "function"
    },
    {
      "inputs": [],
      "name": "owner",
      "outputs": [
        {
          "internalType": "address",
          "name": "",
          "type": "address"
        }
      ],
      "stateMutability": "view",
      "type": "function"
    },
    {
      "inputs": [
        {
          "internalType": "uint256",
          "name": "tokenId",
          "type": "uint256"
        }
      ],
      "name": "ownerOf",
      "outputs": [
        {
          "internalType": "address",
          "name": "",
          "type": "address"
        }
      ],
      "stateMutability": "view",
      "type": "function"
    },
    {
      "inputs": [],
      "name": "pause",
      "outputs": [],
      "stateMutability": "nonpayable",
      "type": "function"
    },
    {
      "inputs": [],
      "name": "paused",
      "outputs": [
        {
          "internalType": "bool",
          "name": "",
          "type": "bool"
        }
      ],
      "stateMutability": "view",
      "type": "function"
    },
    {
      "inputs": [],
      "name": "payment",
      "outputs": [
        {
          "internalType": "address",
          "name": "",
          "type": "address"
        }
      ],
      "stateMutability": "view",
      "type": "function"
    },
    {
      "inputs": [],
      "name": "quote",
      "outputs": [
        {
          "internalType": "address",
          "name": "",
          "type": "address"
        }
      ],
      "stateMutability": "view",
      "type": "function"
    },
    {
      "inputs": [
        {
          "internalType": "string[]",
          "name": "uris",
          "type": "string[]"
        },
        {
          "internalType": "uint256[]",
          "name": "amounts",
          "type": "uint256[]"
        },
        {
          "internalType": "uint256[]",
          "name": "prices",
          "type": "uint256[]"
        }
      ],
      "name": "registerItems",
      "outputs": [],
      "stateMutability": "nonpayable",
      "type": "function"
    },
    {
      "inputs": [],
      "name": "renounceOwnership",
      "outputs": [],
      "stateMutability": "nonpayable",
      "type": "function"
    },
    {
      "inputs": [
        {
          "internalType": "bytes32",
          "name": "role",
          "type": "bytes32"
        },
        {
          "internalType": "address",
          "name": "account",
          "type": "address"
        }
      ],
      "name": "renounceRole",
      "outputs": [],
      "stateMutability": "nonpayable",
      "type": "function"
    },
    {
      "inputs": [
        {
          "internalType": "bytes32",
          "name": "role",
          "type": "bytes32"
        },
        {
          "internalType": "address",
          "name": "account",
          "type": "address"
        }
      ],
      "name": "revokeRole",
      "outputs": [],
      "stateMutability": "nonpayable",
      "type": "function"
    },
    {
      "inputs": [
        {
          "internalType": "address",
          "name": "to",
          "type": "address"
        },
        {
          "internalType": "string[]",
          "name": "uris",
          "type": "string[]"
        }
      ],
      "name": "safeBatchMint",
      "outputs": [],
      "stateMutability": "view",
      "type": "function"
    },
    {
      "inputs": [
        {
          "internalType": "address",
          "name": "to",
          "type": "address"
        },
        {
          "internalType": "string",
          "name": "uri",
          "type": "string"
        },
        {
          "internalType": "uint256",
          "name": "amount",
          "type": "uint256"
        }
      ],
      "name": "safeBatchMintLight",
      "outputs": [],
      "stateMutability": "nonpayable",
      "type": "function"
    },
    {
      "inputs": [
        {
          "internalType": "address",
          "name": "to",
          "type": "address"
        },
        {
          "internalType": "string",
          "name": "uri",
          "type": "string"
        }
      ],
      "name": "safeMint",
      "outputs": [
        {
          "internalType": "uint256",
          "name": "",
          "type": "uint256"
        }
      ],
      "stateMutability": "view",
      "type": "function"
    },
    {
      "inputs": [
        {
          "internalType": "address",
          "name": "to",
          "type": "address"
        }
      ],
      "name": "safeMintTo",
      "outputs": [],
      "stateMutability": "nonpayable",
      "type": "function"
    },
    {
      "inputs": [
        {
          "internalType": "address",
          "name": "from",
          "type": "address"
        },
        {
          "internalType": "address",
          "name": "to",
          "type": "address"
        },
        {
          "internalType": "uint256",
          "name": "tokenId",
          "type": "uint256"
        }
      ],
      "name": "safeTransferFrom",
      "outputs": [],
      "stateMutability": "nonpayable",
      "type": "function"
    },
    {
      "inputs": [
        {
          "internalType": "address",
          "name": "from",
          "type": "address"
        },
        {
          "internalType": "address",
          "name": "to",
          "type": "address"
        },
        {
          "internalType": "uint256",
          "name": "tokenId",
          "type": "uint256"
        },
        {
          "internalType": "bytes",
          "name": "_data",
          "type": "bytes"
        }
      ],
      "name": "safeTransferFrom",
      "outputs": [],
      "stateMutability": "nonpayable",
      "type": "function"
    },
    {
      "inputs": [
        {
          "internalType": "address",
          "name": "operator",
          "type": "address"
        },
        {
          "internalType": "bool",
          "name": "approved",
          "type": "bool"
        }
      ],
      "name": "setApprovalForAll",
      "outputs": [],
      "stateMutability": "nonpayable",
      "type": "function"
    },
    {
      "inputs": [
        {
          "internalType": "address",
          "name": "_payment",
          "type": "address"
        },
        {
          "internalType": "address",
          "name": "_treasury",
          "type": "address"
        },
        {
          "internalType": "uint256",
          "name": "_feeRate",
          "type": "uint256"
        }
      ],
      "name": "setConfig",
      "outputs": [],
      "stateMutability": "nonpayable",
      "type": "function"
    },
    {
      "inputs": [
        {
          "internalType": "uint256",
          "name": "_hardCap",
          "type": "uint256"
        },
        {
          "internalType": "string",
          "name": "_uri",
          "type": "string"
        }
      ],
      "name": "setHardCap",
      "outputs": [],
      "stateMutability": "nonpayable",
      "type": "function"
    },
    {
      "inputs": [
        {
          "internalType": "uint256",
          "name": "_launch",
          "type": "uint256"
        }
      ],
      "name": "setLaunch",
      "outputs": [],
      "stateMutability": "nonpayable",
      "type": "function"
    },
    {
      "inputs": [
        {
          "internalType": "uint256",
          "name": "_lockup",
          "type": "uint256"
        }
      ],
      "name": "setLockup",
      "outputs": [],
      "stateMutability": "nonpayable",
      "type": "function"
    },
    {
      "inputs": [
        {
          "internalType": "address",
          "name": "_mbox",
          "type": "address"
        }
      ],
      "name": "setMysteryBox",
      "outputs": [],
      "stateMutability": "nonpayable",
      "type": "function"
    },
    {
      "inputs": [
        {
          "internalType": "address",
          "name": "_quote",
          "type": "address"
        }
      ],
      "name": "setQuote",
      "outputs": [],
      "stateMutability": "nonpayable",
      "type": "function"
    },
    {
      "inputs": [
        {
          "internalType": "bytes4",
          "name": "interfaceId",
          "type": "bytes4"
        }
      ],
      "name": "supportsInterface",
      "outputs": [
        {
          "internalType": "bool",
          "name": "",
          "type": "bool"
        }
      ],
      "stateMutability": "view",
      "type": "function"
    },
    {
      "inputs": [],
      "name": "symbol",
      "outputs": [
        {
          "internalType": "string",
          "name": "",
          "type": "string"
        }
      ],
      "stateMutability": "view",
      "type": "function"
    },
    {
      "inputs": [
        {
          "internalType": "uint256",
          "name": "index",
          "type": "uint256"
        }
      ],
      "name": "tokenByIndex",
      "outputs": [
        {
          "internalType": "uint256",
          "name": "",
          "type": "uint256"
        }
      ],
      "stateMutability": "view",
      "type": "function"
    },
    {
      "inputs": [
        {
          "internalType": "address",
          "name": "owner",
          "type": "address"
        },
        {
          "internalType": "uint256",
          "name": "index",
          "type": "uint256"
        }
      ],
      "name": "tokenOfOwnerByIndex",
      "outputs": [
        {
          "internalType": "uint256",
          "name": "",
          "type": "uint256"
        }
      ],
      "stateMutability": "view",
      "type": "function"
    },
    {
      "inputs": [
        {
          "internalType": "uint256",
          "name": "tokenId",
          "type": "uint256"
        }
      ],
      "name": "tokenURI",
      "outputs": [
        {
          "internalType": "string",
          "name": "",
          "type": "string"
        }
      ],
      "stateMutability": "view",
      "type": "function"
    },
    {
      "inputs": [],
      "name": "totalItems",
      "outputs": [
        {
          "internalType": "uint256",
          "name": "",
          "type": "uint256"
        }
      ],
      "stateMutability": "view",
      "type": "function"
    },
    {
      "inputs": [],
      "name": "totalSupply",
      "outputs": [
        {
          "internalType": "uint256",
          "name": "",
          "type": "uint256"
        }
      ],
      "stateMutability": "view",
      "type": "function"
    },
    {
      "inputs": [
        {
          "internalType": "address",
          "name": "from",
          "type": "address"
        },
        {
          "internalType": "address",
          "name": "to",
          "type": "address"
        },
        {
          "internalType": "uint256",
          "name": "tokenId",
          "type": "uint256"
        }
      ],
      "name": "transferFrom",
      "outputs": [],
      "stateMutability": "nonpayable",
      "type": "function"
    },
    {
      "inputs": [
        {
          "internalType": "address",
          "name": "newOwner",
          "type": "address"
        }
      ],
      "name": "transferOwnership",
      "outputs": [],
      "stateMutability": "nonpayable",
      "type": "function"
    },
    {
      "inputs": [],
      "name": "treasury",
      "outputs": [
        {
          "internalType": "address",
          "name": "",
          "type": "address"
        }
      ],
      "stateMutability": "view",
      "type": "function"
    },
    {
      "inputs": [],
      "name": "unpause",
      "outputs": [],
      "stateMutability": "nonpayable",
      "type": "function"
    },
    {
      "stateMutability": "payable",
      "type": "receive"
    }
  ],
  "bytecode": "0x60806040526000600d819055601280546001600160a01b03191690556077556032607c556081805460ff191690553480156200003a57600080fd5b5060405162005516380380620055168339810160408190526200005d91620007d5565b8585818181600090805190602001906200007992919062000681565b5080516200008f90600190602084019062000681565b5050600b805460ff1916905550620000a73362000252565b620000b4600033620002ac565b620000cf600080516020620054d683398151915233620002ac565b620000ea600080516020620054f683398151915233620002ac565b505060016011558051600314620001485760405162461bcd60e51b815260206004820152601a60248201527f696e76616c696420636f6e6669672064617461206c656e67746800000000000060448201526064015b60405180910390fd5b62000155600033620002ac565b62000170600080516020620054d683398151915233620002ac565b6200018b600080516020620054f683398151915233620002ac565b620001c581600081518110620001b157634e487b7160e01b600052603260045260246000fd5b60200260200101516200035160201b60201c565b620001ff81600181518110620001eb57634e487b7160e01b600052603260045260246000fd5b6020026020010151620003de60201b60201c565b6200023b8383836002815181106200022757634e487b7160e01b600052603260045260246000fd5b60200260200101516200046560201b60201c565b6200024684620005e1565b5050505050506200098f565b600b80546001600160a01b03838116610100818102610100600160a81b031985161790945560405193909204169182907f8be0079c531659141344cd1fd0a4f28419497f9722a3daafe3b4186f6b6457e090600090a35050565b6000828152600c602090815260408083206001600160a01b038516845290915290205460ff166200034d576000828152600c602090815260408083206001600160a01b03851684529091529020805460ff191660011790556200030c3390565b6001600160a01b0316816001600160a01b0316837f2f8788117e7eff1d82e926ec794901d17c78024a50270940304540a733656f0d60405160405180910390a45b5050565b600b546001600160a01b03610100909104163314620003a25760405162461bcd60e51b81526020600482018190526024820152600080516020620054b683398151915260448201526064016200013f565b60788190556040518181527f7c8826e4db3679f20c86da0c68d37f9dbcd1d638c56717e014f93c56d14c02d1906020015b60405180910390a150565b600b546001600160a01b036101009091041633146200042f5760405162461bcd60e51b81526020600482018190526024820152600080516020620054b683398151915260448201526064016200013f565b60798190556040518181527fa7ade4ab976b6643a971383d9822fb7c2fce66aa2e497d88c3b4f1475ea2b2e090602001620003d3565b600b546001600160a01b03610100909104163314620004b65760405162461bcd60e51b81526020600482018190526024820152600080516020620054b683398151915260448201526064016200013f565b6001600160a01b0383166200050e5760405162461bcd60e51b815260206004820152601760248201527f696e76616c6964207061796d656e74206164647265737300000000000000000060448201526064016200013f565b6001600160a01b038216620005665760405162461bcd60e51b815260206004820152601860248201527f696e76616c69642074726561737572792061646472657373000000000000000060448201526064016200013f565b607a80546001600160a01b038581166001600160a01b03199283168117909355607b8054918616919092168117909155607c83905560408051928352602083019190915281018290527fe2be3027f197494650b7a98fd1cae67dacf615bd1d8bb05102999676f11638669060600160405180910390a1505050565b600b546001600160a01b03610100909104163314620006325760405162461bcd60e51b81526020600482018190526024820152600080516020620054b683398151915260448201526064016200013f565b601280546001600160a01b0319166001600160a01b0383169081179091556040519081527fca92c759228172fe3894a344908fd20dfd37ba561b5af191f1f5b02ee03881fc90602001620003d3565b8280546200068f906200093c565b90600052602060002090601f016020900481019282620006b35760008555620006fe565b82601f10620006ce57805160ff1916838001178555620006fe565b82800160010185558215620006fe579182015b82811115620006fe578251825591602001919060010190620006e1565b506200070c92915062000710565b5090565b5b808211156200070c576000815560010162000711565b80516001600160a01b03811681146200073f57600080fd5b919050565b600082601f83011262000755578081fd5b81516001600160401b0381111562000771576200077162000979565b602062000787601f8301601f1916820162000909565b82815285828487010111156200079b578384fd5b835b83811015620007ba5785810183015182820184015282016200079d565b83811115620007cb57848385840101525b5095945050505050565b60008060008060008060c08789031215620007ee578182fd5b86516001600160401b038082111562000805578384fd5b620008138a838b0162000744565b97506020915081890151818111156200082a578485fd5b620008388b828c0162000744565b9750506200084960408a0162000727565b95506200085960608a0162000727565b94506200086960808a0162000727565b935060a0890151818111156200087d578384fd5b8901601f81018b136200088e578384fd5b805182811115620008a357620008a362000979565b8060051b9250620008b684840162000909565b8181528481019083860185850187018f1015620008d1578788fd5b8795505b83861015620008f5578051835260019590950194918601918601620008d5565b508096505050505050509295509295509295565b604051601f8201601f191681016001600160401b038111828210171562000934576200093462000979565b604052919050565b600181811c908216806200095157607f821691505b602082108114156200097357634e487b7160e01b600052602260045260246000fd5b50919050565b634e487b7160e01b600052604160045260246000fd5b614b17806200099f6000396000f3fe6080604052600436106103bc5760003560e01c806370a08231116101f2578063a2aa61eb1161010d578063d3d3224a116100a0578063e985e9c51161006f578063e985e9c514610b0e578063f2fde38b14610b57578063f3c8dc5914610b77578063fb86a40414610b9757600080fd5b8063d3d3224a14610a95578063d539139314610aaa578063d547741f14610acc578063e63ab1e914610aec57600080fd5b8063bf91ad9e116100dc578063bf91ad9e14610a15578063c38b761c14610a35578063c87b56dd14610a55578063d204c45e14610a7557600080fd5b8063a2aa61eb14610995578063b5a87cc1146109b5578063b88d4fde146109d5578063b9d6abe9146109f557600080fd5b8063902835f611610185578063983b2d5611610154578063983b2d5614610920578063999b93af14610940578063a217fddf14610960578063a22cb4651461097557600080fd5b8063902835f6146108b557806391d14854146108d557806395d89b41146108f5578063978bbdb91461090a57600080fd5b80638456cb59116101c15780638456cb591461084a57806385be1b3b1461085f5780638a55b866146108725780638da5cb5b1461089257600080fd5b806370a08231146107d5578063715018a6146107f55780637b43b8271461080a57806382dc1ec41461082a57600080fd5b806334ce504d116102e257806358dd6d95116102755780635dce7383116102445780635dce73831461076057806361d027b3146107755780636352211e146107955780636ae6b459146107b557600080fd5b806358dd6d95146106e85780635c975abb146107085780635d1d37c3146107205780635d814dea1461074057600080fd5b806342842e0e116102b157806342842e0e1461066857806342966c681461068857806342f6487a146106a85780634f6ccce7146106c857600080fd5b806334ce504d146105f357806336568abe146106135780633f4ba83a146106335780633f7d70551461064857600080fd5b806318160ddd1161035a578063248a9ca311610329578063248a9ca31461056d5780632799276d1461059d5780632f2ff15d146105b35780632f745c59146105d357600080fd5b806318160ddd146104f857806321bae9e41461050d57806323b872dd1461052d578063244906591461054d57600080fd5b806306fdde031161039657806306fdde0314610437578063081812fc14610459578063095ea7b314610491578063150b7a02146104b357600080fd5b806301339c21146103c857806301ffc9a7146103f157806306490f471461042157600080fd5b366103c357005b600080fd5b3480156103d457600080fd5b506103de60785481565b6040519081526020015b60405180910390f35b3480156103fd57600080fd5b5061041161040c366004614562565b610bad565b60405190151581526020016103e8565b34801561042d57600080fd5b506103de60795481565b34801561044357600080fd5b5061044c610bd8565b6040516103e89190614755565b34801561046557600080fd5b50610479610474366004614528565b610c6a565b6040516001600160a01b0390911681526020016103e8565b34801561049d57600080fd5b506104b16104ac366004614460565b610cf7565b005b3480156104bf57600080fd5b506104df6104ce36600461423d565b630a85bd0160e11b95945050505050565b6040516001600160e01b031990911681526020016103e8565b34801561050457600080fd5b506008546103de565b34801561051957600080fd5b506104b16105283660046141b6565b610e0d565b34801561053957600080fd5b506104b1610548366004614202565b610f5a565b34801561055957600080fd5b506104b16105683660046145b2565b610f8c565b34801561057957600080fd5b506103de610588366004614528565b6000908152600c602052604090206001015490565b3480156105a957600080fd5b506103de60775481565b3480156105bf57600080fd5b506104b16105ce366004614540565b611014565b3480156105df57600080fd5b506103de6105ee366004614460565b611039565b3480156105ff57600080fd5b506104b161060e3660046145e0565b6110cf565b34801561061f57600080fd5b506104b161062e366004614540565b611399565b34801561063f57600080fd5b506104b1611417565b34801561065457600080fd5b506104b1610663366004614601565b61143a565b34801561067457600080fd5b506104b1610683366004614202565b6117f3565b34801561069457600080fd5b506104b16106a3366004614528565b61180e565b3480156106b457600080fd5b50607a54610479906001600160a01b031681565b3480156106d457600080fd5b506103de6106e3366004614528565b611885565b3480156106f457600080fd5b506104b161070336600461434a565b611926565b34801561071457600080fd5b50600b5460ff16610411565b34801561072c57600080fd5b506104b161073b366004614528565b611971565b34801561074c57600080fd5b5061044c61075b366004614528565b6119dd565b34801561076c57600080fd5b506103de611a89565b34801561078157600080fd5b50607b54610479906001600160a01b031681565b3480156107a157600080fd5b506104796107b0366004614528565b611b1e565b3480156107c157600080fd5b506104b16107d0366004614528565b611b95565b3480156107e157600080fd5b506103de6107f03660046141b6565b611bfa565b34801561080157600080fd5b506104b1611c81565b34801561081657600080fd5b506104b16108253660046141b6565b611cbd565b34801561083657600080fd5b506104b16108453660046141b6565b611d5d565b34801561085657600080fd5b506104b1611e03565b6104b161086d3660046145e0565b611e23565b34801561087e57600080fd5b506103de61088d366004614528565b6120dc565b34801561089e57600080fd5b50600b5461010090046001600160a01b0316610479565b3480156108c157600080fd5b506104b16108d0366004614202565b6120fd565b3480156108e157600080fd5b506104116108f0366004614540565b612254565b34801561090157600080fd5b5061044c61227f565b34801561091657600080fd5b506103de607c5481565b34801561092c57600080fd5b506104b161093b3660046141b6565b61228e565b34801561094c57600080fd5b50601254610479906001600160a01b031681565b34801561096c57600080fd5b506103de600081565b34801561098157600080fd5b506104b1610990366004614395565b612334565b3480156109a157600080fd5b506104b16109b03660046141b6565b61233f565b3480156109c157600080fd5b506104b16109d036600461440c565b6123bd565b3480156109e157600080fd5b506104b16109f03660046142d2565b61244f565b348015610a0157600080fd5b506103de610a10366004614528565b612487565b348015610a2157600080fd5b506103de610a30366004614528565b612497565b348015610a4157600080fd5b50600f54610479906001600160a01b031681565b348015610a6157600080fd5b5061044c610a70366004614528565b6124a7565b348015610a8157600080fd5b506103de610a903660046143cb565b6124b2565b348015610aa157600080fd5b5061044c6124cc565b348015610ab657600080fd5b506103de600080516020614ac283398151915281565b348015610ad857600080fd5b506104b1610ae7366004614540565b6124d9565b348015610af857600080fd5b506103de600080516020614aa283398151915281565b348015610b1a57600080fd5b50610411610b293660046141d0565b6001600160a01b03918216600090815260056020908152604080832093909416825291909152205460ff1690565b348015610b6357600080fd5b506104b1610b723660046141b6565b6124fe565b348015610b8357600080fd5b506104b1610b92366004614489565b61259c565b348015610ba357600080fd5b506103de600d5481565b60006001600160e01b031982166380ac58cd60e01b1480610bd25750610bd282612753565b92915050565b606060008054610be7906149d7565b80601f0160208091040260200160405190810160405280929190818152602001828054610c13906149d7565b8015610c605780601f10610c3557610100808354040283529160200191610c60565b820191906000526020600020905b815481529060010190602001808311610c4357829003601f168201915b5050505050905090565b6000610c7582612778565b610cdb5760405162461bcd60e51b815260206004820152602c60248201527f4552433732313a20617070726f76656420717565727920666f72206e6f6e657860448201526b34b9ba32b73a103a37b5b2b760a11b60648201526084015b60405180910390fd5b506000908152600460205260409020546001600160a01b031690565b6000610d0282611b1e565b9050806001600160a01b0316836001600160a01b03161415610d705760405162461bcd60e51b815260206004820152602160248201527f4552433732313a20617070726f76616c20746f2063757272656e74206f776e656044820152603960f91b6064820152608401610cd2565b336001600160a01b0382161480610d8c5750610d8c8133610b29565b610dfe5760405162461bcd60e51b815260206004820152603860248201527f4552433732313a20617070726f76652063616c6c6572206973206e6f74206f7760448201527f6e6572206e6f7220617070726f76656420666f7220616c6c00000000000000006064820152608401610cd2565b610e088383612795565b505050565b600080516020614ac2833981519152610e2581612803565b6000600e8054610e34906149d7565b905011610e7b5760405162461bcd60e51b815260206004820152601560248201527411db1bd8985b08155492481a5cc81b9bdd081cd95d605a1b6044820152606401610cd2565b6001600160a01b038216610ec65760405162461bcd60e51b8152602060048201526012602482015271496e76616c696420746f206164647265737360701b6044820152606401610cd2565b610e0882600e8054610ed7906149d7565b80601f0160208091040260200160405190810160405280929190818152602001828054610f03906149d7565b8015610f505780601f10610f2557610100808354040283529160200191610f50565b820191906000526020600020905b815481529060010190602001808311610f3357829003601f168201915b50505050506124b2565b610f65335b8261280d565b610f815760405162461bcd60e51b8152600401610cd29061488e565b610e088383836128f7565b600b546001600160a01b03610100909104163314610fbc5760405162461bcd60e51b8152600401610cd2906147e1565b600d8290558051610fd490600e906020840190613eb7565b507f57bbf0b7295e3c8587fe0fa3c76592771f6a96123bf723292fd0e3933436b71f600d5460405161100891815260200190565b60405180910390a15050565b6000828152600c602052604090206001015461102f81612803565b610e088383612a9e565b600061104483611bfa565b82106110a65760405162461bcd60e51b815260206004820152602b60248201527f455243373231456e756d657261626c653a206f776e657220696e646578206f7560448201526a74206f6620626f756e647360a81b6064820152608401610cd2565b506001600160a01b03919091166000908152600660209081526040808320938352929052205490565b600080516020614ac28339815191526110e781612803565b60785442116111085760405162461bcd60e51b8152600401610cd290614857565b607f838154811061112957634e487b7160e01b600052603260045260246000fd5b9060005260206000200154607e848154811061115557634e487b7160e01b600052603260045260246000fd5b90600052602060002001541161117d5760405162461bcd60e51b8152600401610cd2906147ba565b6000805b607e548110156111e657808510156111d4576111d1607e82815481106111b757634e487b7160e01b600052603260045260246000fd5b906000526020600020015483612b2490919063ffffffff16565b91505b806111de81614a0c565b915050611181565b5060005b838110156113265761122561121e6013876064811061121957634e487b7160e01b600052603260045260246000fd5b015490565b8390612b24565b91506112e53383607d888154811061124d57634e487b7160e01b600052603260045260246000fd5b906000526020600020018054611262906149d7565b80601f016020809104026020016040519081016040528092919081815260200182805461128e906149d7565b80156112db5780601f106112b0576101008083540402835291602001916112db565b820191906000526020600020905b8154815290600101906020018083116112be57829003601f168201915b5050505050612b37565b506113146013866064811061130a57634e487b7160e01b600052603260045260246000fd5b0180546001019055565b8061131e81614a0c565b9150506111ea565b506113666001607f868154811061134d57634e487b7160e01b600052603260045260246000fd5b9060005260206000200154612b2490919063ffffffff16565b607f858154811061138757634e487b7160e01b600052603260045260246000fd5b60009182526020909120015550505050565b6001600160a01b03811633146114095760405162461bcd60e51b815260206004820152602f60248201527f416363657373436f6e74726f6c3a2063616e206f6e6c792072656e6f756e636560448201526e103937b632b9903337b91039b2b63360891b6064820152608401610cd2565b6114138282612b4e565b5050565b600080516020614aa283398151915261142f81612803565b611437612bb5565b50565b6012546001600160a01b03166114865760405162461bcd60e51b81526020600482015260116024820152702bb937b7339038bab7ba32903a37b5b2b760791b6044820152606401610cd2565b60785442116114a75760405162461bcd60e51b8152600401610cd290614857565b600082116114c75760405162461bcd60e51b8152600401610cd290614816565b611505608084815481106114eb57634e487b7160e01b600052603260045260246000fd5b906000526020600020015482612c4890919063ffffffff16565b82146115535760405162461bcd60e51b815260206004820152601d60248201527f76616c756520616e6420616d6f756e74206973206e6f74206d617463680000006044820152606401610cd2565b6012546040516370a0823160e01b81523360048201526000916001600160a01b0316906370a082319060240160206040518083038186803b15801561159757600080fd5b505afa1580156115ab573d6000803e3d6000fd5b505050506040513d601f19601f820116820180604052508101906115cf919061459a565b90508281116116205760405162461bcd60e51b815260206004820152601b60248201527f6c61636b206f662071756f746520746f6b656e2062616c616e636500000000006044820152606401610cd2565b607f848154811061164157634e487b7160e01b600052603260045260246000fd5b9060005260206000200154607e858154811061166d57634e487b7160e01b600052603260045260246000fd5b9060005260206000200154116116955760405162461bcd60e51b8152600401610cd2906147ba565b6012546116ad906001600160a01b0316333086612c54565b6000805b607e548110156116fc57808610156116ea576116e7607e82815481106111b757634e487b7160e01b600052603260045260246000fd5b91505b806116f481614a0c565b9150506116b1565b5060005b8381101561178e5761172f61121e6013886064811061121957634e487b7160e01b600052603260045260246000fd5b91506117573383607d898154811061124d57634e487b7160e01b600052603260045260246000fd5b5061177c6013876064811061130a57634e487b7160e01b600052603260045260246000fd5b8061178681614a0c565b915050611700565b506117998584612d92565b6117bf6001607f878154811061134d57634e487b7160e01b600052603260045260246000fd5b607f86815481106117e057634e487b7160e01b600052603260045260246000fd5b6000918252602090912001555050505050565b610e088383836040518060200160405280600081525061244f565b61181733610f5f565b61187c5760405162461bcd60e51b815260206004820152603060248201527f4552433732314275726e61626c653a2063616c6c6572206973206e6f74206f7760448201526f1b995c881b9bdc88185c1c1c9bdd995960821b6064820152608401610cd2565b61143781612ee0565b600061189060085490565b82106118f35760405162461bcd60e51b815260206004820152602c60248201527f455243373231456e756d657261626c653a20676c6f62616c20696e646578206f60448201526b7574206f6620626f756e647360a01b6064820152608401610cd2565b6008828154811061191457634e487b7160e01b600052603260045260246000fd5b90600052602060002001549050919050565b600080516020614ac283398151915261193e81612803565b60405162461bcd60e51b8152602060048201526008602482015267111a5cd8589b195960c21b6044820152606401610cd2565b600b546001600160a01b036101009091041633146119a15760405162461bcd60e51b8152600401610cd2906147e1565b60788190556040518181527f7c8826e4db3679f20c86da0c68d37f9dbcd1d638c56717e014f93c56d14c02d1906020015b60405180910390a150565b607d81815481106119ed57600080fd5b906000526020600020016000915090508054611a08906149d7565b80601f0160208091040260200160405190810160405280929190818152602001828054611a34906149d7565b8015611a815780601f10611a5657610100808354040283529160200191611a81565b820191906000526020600020905b815481529060010190602001808311611a6457829003601f168201915b505050505081565b600080805b607e54811015611b1857611b0461121e607f8381548110611abf57634e487b7160e01b600052603260045260246000fd5b9060005260206000200154607e8481548110611aeb57634e487b7160e01b600052603260045260246000fd5b9060005260206000200154612ee990919063ffffffff16565b915080611b1081614a0c565b915050611a8e565b50919050565b6000818152600260205260408120546001600160a01b031680610bd25760405162461bcd60e51b815260206004820152602960248201527f4552433732313a206f776e657220717565727920666f72206e6f6e657869737460448201526832b73a103a37b5b2b760b91b6064820152608401610cd2565b600b546001600160a01b03610100909104163314611bc55760405162461bcd60e51b8152600401610cd2906147e1565b60798190556040518181527fa7ade4ab976b6643a971383d9822fb7c2fce66aa2e497d88c3b4f1475ea2b2e0906020016119d2565b60006001600160a01b038216611c655760405162461bcd60e51b815260206004820152602a60248201527f4552433732313a2062616c616e636520717565727920666f7220746865207a65604482015269726f206164647265737360b01b6064820152608401610cd2565b506001600160a01b031660009081526003602052604090205490565b600b546001600160a01b03610100909104163314611cb15760405162461bcd60e51b8152600401610cd2906147e1565b611cbb6000612ef5565b565b600b546001600160a01b03610100909104163314611ced5760405162461bcd60e51b8152600401610cd2906147e1565b600f80546001600160a01b0319166001600160a01b038316179055611d20600080516020614ac283398151915282612a9e565b600f546040516001600160a01b0390911681527f329b1203fc60a62c4a0fd3ff1554a07f92a2f117cc590422dd105811bb484ded906020016119d2565b600b546001600160a01b03610100909104163314611d8d5760405162461bcd60e51b8152600401610cd2906147e1565b611da5600080516020614aa283398151915282612a9e565b604080516001600160a01b038316815260208101829052600b918101919091526a5041555345525f524f4c4560a81b60608201527f0578acc86b18d67c13a5e6eed8c670fb7052f530b48a2acb167d6ca77509a384906080016119d2565b600080516020614aa2833981519152611e1b81612803565b611437612f4f565b6012546001600160a01b031615611e705760405162461bcd60e51b81526020600482015260116024820152702bb937b7339038bab7ba32903a37b5b2b760791b6044820152606401610cd2565b6078544211611e915760405162461bcd60e51b8152600401610cd290614857565b60003411611eb15760405162461bcd60e51b8152600401610cd290614816565b611ed5608083815481106114eb57634e487b7160e01b600052603260045260246000fd5b3414611f235760405162461bcd60e51b815260206004820152601d60248201527f76616c756520616e6420616d6f756e74206973206e6f74206d617463680000006044820152606401610cd2565b607f8281548110611f4457634e487b7160e01b600052603260045260246000fd5b9060005260206000200154607e8381548110611f7057634e487b7160e01b600052603260045260246000fd5b906000526020600020015411611f985760405162461bcd60e51b8152600401610cd2906147ba565b6000805b607e54811015611fe75780841015611fd557611fd2607e82815481106111b757634e487b7160e01b600052603260045260246000fd5b91505b80611fdf81614a0c565b915050611f9c565b5060005b828110156120795761201a61121e6013866064811061121957634e487b7160e01b600052603260045260246000fd5b91506120423383607d878154811061124d57634e487b7160e01b600052603260045260246000fd5b506120676013856064811061130a57634e487b7160e01b600052603260045260246000fd5b8061207181614a0c565b915050611feb565b506120848383612d92565b6120aa6001607f858154811061134d57634e487b7160e01b600052603260045260246000fd5b607f84815481106120cb57634e487b7160e01b600052603260045260246000fd5b600091825260209091200155505050565b607e81815481106120ec57600080fd5b600091825260209091200154905081565b600b546001600160a01b0361010090910416331461212d5760405162461bcd60e51b8152600401610cd2906147e1565b6001600160a01b0383166121835760405162461bcd60e51b815260206004820152601760248201527f696e76616c6964207061796d656e7420616464726573730000000000000000006044820152606401610cd2565b6001600160a01b0382166121d95760405162461bcd60e51b815260206004820152601860248201527f696e76616c6964207472656173757279206164647265737300000000000000006044820152606401610cd2565b607a80546001600160a01b038581166001600160a01b03199283168117909355607b8054918616919092168117909155607c83905560408051928352602083019190915281018290527fe2be3027f197494650b7a98fd1cae67dacf615bd1d8bb05102999676f11638669060600160405180910390a1505050565b6000918252600c602090815260408084206001600160a01b0393909316845291905290205460ff1690565b606060018054610be7906149d7565b600b546001600160a01b036101009091041633146122be5760405162461bcd60e51b8152600401610cd2906147e1565b6122d6600080516020614ac283398151915282612a9e565b604080516001600160a01b038316815260208101829052600b918101919091526a4d494e5445525f524f4c4560a81b60608201527f0578acc86b18d67c13a5e6eed8c670fb7052f530b48a2acb167d6ca77509a384906080016119d2565b611413338383612fca565b600b546001600160a01b0361010090910416331461236f5760405162461bcd60e51b8152600401610cd2906147e1565b601280546001600160a01b0319166001600160a01b0383169081179091556040519081527fca92c759228172fe3894a344908fd20dfd37ba561b5af191f1f5b02ee03881fc906020016119d2565b600080516020614ac28339815191526123d581612803565b6001600160a01b0384166124205760405162461bcd60e51b8152602060048201526012602482015271496e76616c696420746f206164647265737360701b6044820152606401610cd2565b60005b828110156124485761243585856124b2565b508061244081614a0c565b915050612423565b5050505050565b612459338361280d565b6124755760405162461bcd60e51b8152600401610cd29061488e565b61248184848484613099565b50505050565b607f81815481106120ec57600080fd5b608081815481106120ec57600080fd5b6060610bd2826130cc565b6000600080516020614ac283398151915261193e81612803565b600e8054611a08906149d7565b6000828152600c60205260409020600101546124f481612803565b610e088383612b4e565b600b546001600160a01b0361010090910416331461252e5760405162461bcd60e51b8152600401610cd2906147e1565b6001600160a01b0381166125935760405162461bcd60e51b815260206004820152602660248201527f4f776e61626c653a206e6577206f776e657220697320746865207a65726f206160448201526564647265737360d01b6064820152608401610cd2565b61143781612ef5565b600080516020614ac28339815191526125b481612803565b60815460ff16156126075760405162461bcd60e51b815260206004820152601860248201527f4974656d7320616c7265616479207265676973746572656400000000000000006044820152606401610cd2565b82518451146126505760405162461bcd60e51b8152602060048201526015602482015274082e4e4c2f240d8cadccee8d040dad2e6dac2e8c6d605b1b6044820152606401610cd2565b825161266390607e906020860190613f3b565b50835161267790607d906020870190613f75565b50815161268b906080906020850190613f3b565b5060005b845181101561273f576126d48482815181106126bb57634e487b7160e01b600052603260045260246000fd5b6020026020010151607754612b2490919063ffffffff16565b6077556126fb6013826064811061130a57634e487b7160e01b600052603260045260246000fd5b607f805460018101825560009182527f66925e85f1a4743fd8d60ba595ed74887b7caf321dd83b21e04d77c11538340801558061273781614a0c565b91505061268f565b50506081805460ff19166001179055505050565b60006001600160e01b03198216637965db0b60e01b1480610bd25750610bd28261323b565b6000908152600260205260409020546001600160a01b0316151590565b600081815260046020526040902080546001600160a01b0319166001600160a01b03841690811790915581906127ca82611b1e565b6001600160a01b03167f8c5be1e5ebec7d5bd14f71427d1e84f3dd0314c0f7b2291e5b200ac8c7c3b92560405160405180910390a45050565b6114378133613260565b600061281882612778565b6128795760405162461bcd60e51b815260206004820152602c60248201527f4552433732313a206f70657261746f7220717565727920666f72206e6f6e657860448201526b34b9ba32b73a103a37b5b2b760a11b6064820152608401610cd2565b600061288483611b1e565b9050806001600160a01b0316846001600160a01b031614806128cb57506001600160a01b0380821660009081526005602090815260408083209388168352929052205460ff165b806128ef5750836001600160a01b03166128e484610c6a565b6001600160a01b0316145b949350505050565b826001600160a01b031661290a82611b1e565b6001600160a01b03161461296e5760405162461bcd60e51b815260206004820152602560248201527f4552433732313a207472616e736665722066726f6d20696e636f72726563742060448201526437bbb732b960d91b6064820152608401610cd2565b6001600160a01b0382166129d05760405162461bcd60e51b8152602060048201526024808201527f4552433732313a207472616e7366657220746f20746865207a65726f206164646044820152637265737360e01b6064820152608401610cd2565b6129db8383836132c4565b6129e6600082612795565b6001600160a01b0383166000908152600360205260408120805460019290612a0f90849061497d565b90915550506001600160a01b0382166000908152600360205260408120805460019290612a3d908490614932565b909155505060008181526002602052604080822080546001600160a01b0319166001600160a01b0386811691821790925591518493918716917fddf252ad1be2c89b69c2b068fc378daa952ba7f163c4a11628f55a4df523b3ef91a4505050565b612aa88282612254565b611413576000828152600c602090815260408083206001600160a01b03851684529091529020805460ff19166001179055612ae03390565b6001600160a01b0316816001600160a01b0316837f2f8788117e7eff1d82e926ec794901d17c78024a50270940304540a733656f0d60405160405180910390a45050565b6000612b308284614932565b9392505050565b600080612b45858585613315565b95945050505050565b612b588282612254565b15611413576000828152600c602090815260408083206001600160a01b0385168085529252808320805460ff1916905551339285917ff6391f5c32d9c69d2a47ea670b442974b53935d1edc7fd64eb21e047a839171b9190a45050565b600b5460ff16612bfe5760405162461bcd60e51b815260206004820152601460248201527314185d5cd8589b194e881b9bdd081c185d5cd95960621b6044820152606401610cd2565b600b805460ff191690557f5db9ee0a495bf2e6ff9c91a7834c1ba4fdd244a5e8aa4e537bd38aeae4b073aa335b6040516001600160a01b03909116815260200160405180910390a1565b6000612b30828461495e565b604080516001600160a01b0385811660248301528481166044830152606480830185905283518084039091018152608490920183526020820180516001600160e01b03166323b872dd60e01b1790529151600092839290881691612cb89190614658565b6000604051808303816000865af19150503d8060008114612cf5576040519150601f19603f3d011682016040523d82523d6000602084013e612cfa565b606091505b5091509150818015612d24575080511580612d24575080806020019051810190612d24919061450c565b612d8a5760405162461bcd60e51b815260206004820152603160248201527f5472616e7366657248656c7065723a3a7472616e7366657246726f6d3a207472604482015270185b9cd9995c919c9bdb4819985a5b1959607a1b6064820152608401610cd2565b505050505050565b607a546001600160a01b0316612dea5760405162461bcd60e51b815260206004820152601a60248201527f7061796d656e742061646472657373206973206e6f74207365740000000000006044820152606401610cd2565b6000612e2a60808481548110612e1057634e487b7160e01b600052603260045260246000fd5b906000526020600020015483612c4890919063ffffffff16565b90506000612e4f6103e8612e49607c5485612c4890919063ffffffff16565b90613333565b90506000612e5d8383612ee9565b6012549091506001600160a01b031615612eb457601254607b54612e90916001600160a01b039081169130911685612c54565b601254607a54612eaf916001600160a01b039081169130911684612c54565b612448565b607b54612eca906001600160a01b03168361333f565b607a54612448906001600160a01b03168261333f565b61143781613419565b6000612b30828461497d565b600b80546001600160a01b03838116610100818102610100600160a81b031985161790945560405193909204169182907f8be0079c531659141344cd1fd0a4f28419497f9722a3daafe3b4186f6b6457e090600090a35050565b600b5460ff1615612f955760405162461bcd60e51b815260206004820152601060248201526f14185d5cd8589b194e881c185d5cd95960821b6044820152606401610cd2565b600b805460ff191660011790557f62e78cea01bee320cd4e420270b5ea74000d11b0c9f74754ebdbfc544b05a258612c2b3390565b816001600160a01b0316836001600160a01b0316141561302c5760405162461bcd60e51b815260206004820152601960248201527f4552433732313a20617070726f766520746f2063616c6c6572000000000000006044820152606401610cd2565b6001600160a01b03838116600081815260056020908152604080832094871680845294825291829020805460ff191686151590811790915591519182527f17307eab39ab6107e8899845ad3d59bd9653f200f220920489ca2b5937696c31910160405180910390a3505050565b6130a48484846128f7565b6130b084848484613459565b6124815760405162461bcd60e51b8152600401610cd290614768565b60606130d782612778565b61313d5760405162461bcd60e51b815260206004820152603160248201527f45524337323155524953746f726167653a2055524920717565727920666f72206044820152703737b732bc34b9ba32b73a103a37b5b2b760791b6064820152608401610cd2565b6000828152600a602052604081208054613156906149d7565b80601f0160208091040260200160405190810160405280929190818152602001828054613182906149d7565b80156131cf5780601f106131a4576101008083540402835291602001916131cf565b820191906000526020600020905b8154815290600101906020018083116131b257829003601f168201915b5050505050905060006131ed60408051602081019091526000815290565b9050805160001415613200575092915050565b81511561323257808260405160200161321a929190614674565b60405160208183030381529060405292505050919050565b6128ef84613566565b60006001600160e01b0319821663780e9d6360e01b1480610bd25750610bd28261363d565b61326a8282612254565b61141357613282816001600160a01b0316601461368d565b61328d83602061368d565b60405160200161329e9291906146a3565b60408051601f198184030181529082905262461bcd60e51b8252610cd291600401614755565b600b5460ff161561330a5760405162461bcd60e51b815260206004820152601060248201526f14185d5cd8589b194e881c185d5cd95960821b6044820152606401610cd2565b610e0883838361386e565b60006133218484613926565b61332b8383613940565b509092915050565b6000612b30828461494a565b604080516000808252602082019092526001600160a01b0384169083906040516133699190614658565b60006040518083038185875af1925050503d80600081146133a6576040519150601f19603f3d011682016040523d82523d6000602084013e6133ab565b606091505b5050905080610e085760405162461bcd60e51b815260206004820152603460248201527f5472616e7366657248656c7065723a3a736166655472616e736665724554483a60448201527308115512081d1c985b9cd9995c8819985a5b195960621b6064820152608401610cd2565b613422816139cb565b6000818152600a60205260409020805461343b906149d7565b159050611437576000818152600a6020526040812061143791613fce565b60006001600160a01b0384163b1561355b57604051630a85bd0160e11b81526001600160a01b0385169063150b7a029061349d903390899088908890600401614718565b602060405180830381600087803b1580156134b757600080fd5b505af19250505080156134e7575060408051601f3d908101601f191682019092526134e49181019061457e565b60015b613541573d808015613515576040519150601f19603f3d011682016040523d82523d6000602084013e61351a565b606091505b5080516135395760405162461bcd60e51b8152600401610cd290614768565b805181602001fd5b6001600160e01b031916630a85bd0160e11b1490506128ef565b506001949350505050565b606061357182612778565b6135d55760405162461bcd60e51b815260206004820152602f60248201527f4552433732314d657461646174613a2055524920717565727920666f72206e6f60448201526e3732bc34b9ba32b73a103a37b5b2b760891b6064820152608401610cd2565b60006135ec60408051602081019091526000815290565b9050600081511161360c5760405180602001604052806000815250612b30565b8061361684613a72565b604051602001613627929190614674565b6040516020818303038152906040529392505050565b60006001600160e01b031982166380ac58cd60e01b148061366e57506001600160e01b03198216635b5e139f60e01b145b80610bd257506301ffc9a760e01b6001600160e01b0319831614610bd2565b6060600061369c83600261495e565b6136a7906002614932565b6001600160401b038111156136cc57634e487b7160e01b600052604160045260246000fd5b6040519080825280601f01601f1916602001820160405280156136f6576020820181803683370190505b509050600360fc1b8160008151811061371f57634e487b7160e01b600052603260045260246000fd5b60200101906001600160f81b031916908160001a905350600f60fb1b8160018151811061375c57634e487b7160e01b600052603260045260246000fd5b60200101906001600160f81b031916908160001a905350600061378084600261495e565b61378b906001614932565b90505b600181111561381f576f181899199a1a9b1b9c1cb0b131b232b360811b85600f16601081106137cd57634e487b7160e01b600052603260045260246000fd5b1a60f81b8282815181106137f157634e487b7160e01b600052603260045260246000fd5b60200101906001600160f81b031916908160001a90535060049490941c93613818816149c0565b905061378e565b508315612b305760405162461bcd60e51b815260206004820181905260248201527f537472696e67733a20686578206c656e67746820696e73756666696369656e746044820152606401610cd2565b6001600160a01b0383166138c9576138c481600880546000838152600960205260408120829055600182018355919091527ff3f7a9fe364faab93b216da50a3214154f22a0a2b415b23a84c8169e8b636ee30155565b6138ec565b816001600160a01b0316836001600160a01b0316146138ec576138ec8382613b8b565b6001600160a01b03821661390357610e0881613c28565b826001600160a01b0316826001600160a01b031614610e0857610e088282613d01565b611413828260405180602001604052806000815250613d45565b61394982612778565b6139ac5760405162461bcd60e51b815260206004820152602e60248201527f45524337323155524953746f726167653a2055524920736574206f66206e6f6e60448201526d32bc34b9ba32b73a103a37b5b2b760911b6064820152608401610cd2565b6000828152600a602090815260409091208251610e0892840190613eb7565b60006139d682611b1e565b90506139e4816000846132c4565b6139ef600083612795565b6001600160a01b0381166000908152600360205260408120805460019290613a1890849061497d565b909155505060008281526002602052604080822080546001600160a01b0319169055518391906001600160a01b038416907fddf252ad1be2c89b69c2b068fc378daa952ba7f163c4a11628f55a4df523b3ef908390a45050565b606081613a965750506040805180820190915260018152600360fc1b602082015290565b8160005b8115613ac05780613aaa81614a0c565b9150613ab99050600a8361494a565b9150613a9a565b6000816001600160401b03811115613ae857634e487b7160e01b600052604160045260246000fd5b6040519080825280601f01601f191660200182016040528015613b12576020820181803683370190505b5090505b84156128ef57613b2760018361497d565b9150613b34600a86614a27565b613b3f906030614932565b60f81b818381518110613b6257634e487b7160e01b600052603260045260246000fd5b60200101906001600160f81b031916908160001a905350613b84600a8661494a565b9450613b16565b60006001613b9884611bfa565b613ba2919061497d565b600083815260076020526040902054909150808214613bf5576001600160a01b03841660009081526006602090815260408083208584528252808320548484528184208190558352600790915290208190555b5060009182526007602090815260408084208490556001600160a01b039094168352600681528383209183525290812055565b600854600090613c3a9060019061497d565b60008381526009602052604081205460088054939450909284908110613c7057634e487b7160e01b600052603260045260246000fd5b906000526020600020015490508060088381548110613c9f57634e487b7160e01b600052603260045260246000fd5b6000918252602080832090910192909255828152600990915260408082208490558582528120556008805480613ce557634e487b7160e01b600052603160045260246000fd5b6001900381819060005260206000200160009055905550505050565b6000613d0c83611bfa565b6001600160a01b039093166000908152600660209081526040808320868452825280832085905593825260079052919091209190915550565b613d4f8383613d78565b613d5c6000848484613459565b610e085760405162461bcd60e51b8152600401610cd290614768565b6001600160a01b038216613dce5760405162461bcd60e51b815260206004820181905260248201527f4552433732313a206d696e7420746f20746865207a65726f20616464726573736044820152606401610cd2565b613dd781612778565b15613e245760405162461bcd60e51b815260206004820152601c60248201527f4552433732313a20746f6b656e20616c7265616479206d696e746564000000006044820152606401610cd2565b613e30600083836132c4565b6001600160a01b0382166000908152600360205260408120805460019290613e59908490614932565b909155505060008181526002602052604080822080546001600160a01b0319166001600160a01b03861690811790915590518392907fddf252ad1be2c89b69c2b068fc378daa952ba7f163c4a11628f55a4df523b3ef908290a45050565b828054613ec3906149d7565b90600052602060002090601f016020900481019282613ee55760008555613f2b565b82601f10613efe57805160ff1916838001178555613f2b565b82800160010185558215613f2b579182015b82811115613f2b578251825591602001919060010190613f10565b50613f37929150614004565b5090565b828054828255906000526020600020908101928215613f2b5791602002820182811115613f2b578251825591602001919060010190613f10565b828054828255906000526020600020908101928215613fc2579160200282015b82811115613fc25782518051613fb2918491602090910190613eb7565b5091602001919060010190613f95565b50613f37929150614019565b508054613fda906149d7565b6000825580601f10613fea575050565b601f01602090049060005260206000209081019061143791905b5b80821115613f375760008155600101614005565b80821115613f3757600061402d8282613fce565b50600101614019565b60006001600160401b0383111561404f5761404f614a67565b614062601f8401601f19166020016148df565b905082815283838301111561407657600080fd5b828260208301376000602084830101529392505050565b80356001600160a01b03811681146140a457600080fd5b919050565b600082601f8301126140b9578081fd5b813560206140ce6140c98361490f565b6148df565b80838252828201915082860187848660051b89010111156140ed578586fd5b855b8581101561412d5781356001600160401b0381111561410c578788fd5b61411a8a87838c0101614197565b85525092840192908401906001016140ef565b5090979650505050505050565b600082601f83011261414a578081fd5b8135602061415a6140c98361490f565b80838252828201915082860187848660051b8901011115614179578586fd5b855b8581101561412d5781358452928401929084019060010161417b565b600082601f8301126141a7578081fd5b612b3083833560208501614036565b6000602082840312156141c7578081fd5b612b308261408d565b600080604083850312156141e2578081fd5b6141eb8361408d565b91506141f96020840161408d565b90509250929050565b600080600060608486031215614216578081fd5b61421f8461408d565b925061422d6020850161408d565b9150604084013590509250925092565b600080600080600060808688031215614254578081fd5b61425d8661408d565b945061426b6020870161408d565b93506040860135925060608601356001600160401b038082111561428d578283fd5b818801915088601f8301126142a0578283fd5b8135818111156142ae578384fd5b8960208285010111156142bf578384fd5b9699959850939650602001949392505050565b600080600080608085870312156142e7578384fd5b6142f08561408d565b93506142fe6020860161408d565b92506040850135915060608501356001600160401b0381111561431f578182fd5b8501601f8101871361432f578182fd5b61433e87823560208401614036565b91505092959194509250565b6000806040838503121561435c578182fd5b6143658361408d565b915060208301356001600160401b0381111561437f578182fd5b61438b858286016140a9565b9150509250929050565b600080604083850312156143a7578182fd5b6143b08361408d565b915060208301356143c081614a7d565b809150509250929050565b600080604083850312156143dd578182fd5b6143e68361408d565b915060208301356001600160401b03811115614400578182fd5b61438b85828601614197565b600080600060608486031215614420578081fd5b6144298461408d565b925060208401356001600160401b03811115614443578182fd5b61444f86828701614197565b925050604084013590509250925092565b60008060408385031215614472578182fd5b61447b8361408d565b946020939093013593505050565b60008060006060848603121561449d578081fd5b83356001600160401b03808211156144b3578283fd5b6144bf878388016140a9565b945060208601359150808211156144d4578283fd5b6144e08783880161413a565b935060408601359150808211156144f5578283fd5b506145028682870161413a565b9150509250925092565b60006020828403121561451d578081fd5b8151612b3081614a7d565b600060208284031215614539578081fd5b5035919050565b60008060408385031215614552578182fd5b823591506141f96020840161408d565b600060208284031215614573578081fd5b8135612b3081614a8b565b60006020828403121561458f578081fd5b8151612b3081614a8b565b6000602082840312156145ab578081fd5b5051919050565b600080604083850312156145c4578182fd5b8235915060208301356001600160401b03811115614400578182fd5b600080604083850312156145f2578182fd5b50508035926020909101359150565b600080600060608486031215614615578081fd5b505081359360208301359350604090920135919050565b60008151808452614644816020860160208601614994565b601f01601f19169290920160200192915050565b6000825161466a818460208701614994565b9190910192915050565b60008351614686818460208801614994565b83519083019061469a818360208801614994565b01949350505050565b7f416363657373436f6e74726f6c3a206163636f756e74200000000000000000008152600083516146db816017850160208801614994565b7001034b99036b4b9b9b4b733903937b6329607d1b601791840191820152835161470c816028840160208801614994565b01602801949350505050565b6001600160a01b038581168252841660208201526040810183905260806060820181905260009061474b9083018461462c565b9695505050505050565b602081526000612b30602083018461462c565b60208082526032908201527f4552433732313a207472616e7366657220746f206e6f6e20455243373231526560408201527131b2b4bb32b91034b6b83632b6b2b73a32b960711b606082015260800190565b6020808252600d908201526c1a5d195b481cdbdb19081bdd5d609a1b604082015260600190565b6020808252818101527f4f776e61626c653a2063616c6c6572206973206e6f7420746865206f776e6572604082015260600190565b60208082526021908201527f76616c75652073686f756c642062652067726561746572207468616e207a65726040820152606f60f81b606082015260800190565b6020808252601b908201527f4e6f7420796574206c61756e63682074696d6520726561636865640000000000604082015260600190565b60208082526031908201527f4552433732313a207472616e736665722063616c6c6572206973206e6f74206f6040820152701ddb995c881b9bdc88185c1c1c9bdd9959607a1b606082015260800190565b604051601f8201601f191681016001600160401b038111828210171561490757614907614a67565b604052919050565b60006001600160401b0382111561492857614928614a67565b5060051b60200190565b6000821982111561494557614945614a3b565b500190565b60008261495957614959614a51565b500490565b600081600019048311821515161561497857614978614a3b565b500290565b60008282101561498f5761498f614a3b565b500390565b60005b838110156149af578181015183820152602001614997565b838111156124815750506000910152565b6000816149cf576149cf614a3b565b506000190190565b600181811c908216806149eb57607f821691505b60208210811415611b1857634e487b7160e01b600052602260045260246000fd5b6000600019821415614a2057614a20614a3b565b5060010190565b600082614a3657614a36614a51565b500690565b634e487b7160e01b600052601160045260246000fd5b634e487b7160e01b600052601260045260246000fd5b634e487b7160e01b600052604160045260246000fd5b801515811461143757600080fd5b6001600160e01b03198116811461143757600080fdfe65d7a28e3265b37a6474929f336521b332c1681b933f6cb9f3376673440d862a9f2df0fed2c77648de5860a4cc508cd0818c85b8b8a1ab4ceeef8d981c8956a6a2646970667358221220ee8a287b9321cd32c216fb341cb4885cbc6a351a6dd7567a099ce1ec4ce27bcc64736f6c634300080400334f776e61626c653a2063616c6c6572206973206e6f7420746865206f776e657265d7a28e3265b37a6474929f336521b332c1681b933f6cb9f3376673440d862a9f2df0fed2c77648de5860a4cc508cd0818c85b8b8a1ab4ceeef8d981c8956a6",
  "linkReferences": {},
  "deployedLinkReferences": {}
}