{
  "_format": "hh-sol-artifact-1",
  "contractName": "Collection",
  "sourceName": "contracts/Collection.sol",
  "abi": [
    {
      "inputs": [
        {
          "internalType": "string",
          "name": "name",
          "type": "string"
        },
        {
          "internalType": "string",
          "name": "symbol",
          "type": "string"
        },
        {
          "internalType": "address",
          "name": "_quote",
          "type": "address"
        },
        {
          "internalType": "address",
          "name": "_payment",
          "type": "address"
        },
        {
          "internalType": "address",
          "name": "_treasury",
          "type": "address"
        },
        {
          "internalType": "uint256[]",
          "name": "configValues",
          "type": "uint256[]"
        }
      ],
      "stateMutability": "nonpayable",
      "type": "constructor"
    },
    {
      "anonymous": false,
      "inputs": [
        {
          "indexed": true,
          "internalType": "address",
          "name": "owner",
          "type": "address"
        },
        {
          "indexed": true,
          "internalType": "address",
          "name": "approved",
          "type": "address"
        },
        {
          "indexed": true,
          "internalType": "uint256",
          "name": "tokenId",
          "type": "uint256"
        }
      ],
      "name": "Approval",
      "type": "event"
    },
    {
      "anonymous": false,
      "inputs": [
        {
          "indexed": true,
          "internalType": "address",
          "name": "owner",
          "type": "address"
        },
        {
          "indexed": true,
          "internalType": "address",
          "name": "operator",
          "type": "address"
        },
        {
          "indexed": false,
          "internalType": "bool",
          "name": "approved",
          "type": "bool"
        }
      ],
      "name": "ApprovalForAll",
      "type": "event"
    },
    {
      "anonymous": false,
      "inputs": [
        {
          "indexed": false,
          "internalType": "address",
          "name": "",
          "type": "address"
        },
        {
          "indexed": false,
          "internalType": "string",
          "name": "",
          "type": "string"
        }
      ],
      "name": "Grant",
      "type": "event"
    },
    {
      "anonymous": false,
      "inputs": [
        {
          "indexed": true,
          "internalType": "address",
          "name": "previousOwner",
          "type": "address"
        },
        {
          "indexed": true,
          "internalType": "address",
          "name": "newOwner",
          "type": "address"
        }
      ],
      "name": "OwnershipTransferred",
      "type": "event"
    },
    {
      "anonymous": false,
      "inputs": [
        {
          "indexed": false,
          "internalType": "address",
          "name": "account",
          "type": "address"
        }
      ],
      "name": "Paused",
      "type": "event"
    },
    {
      "anonymous": false,
      "inputs": [
        {
          "indexed": true,
          "internalType": "bytes32",
          "name": "role",
          "type": "bytes32"
        },
        {
          "indexed": true,
          "internalType": "bytes32",
          "name": "previousAdminRole",
          "type": "bytes32"
        },
        {
          "indexed": true,
          "internalType": "bytes32",
          "name": "newAdminRole",
          "type": "bytes32"
        }
      ],
      "name": "RoleAdminChanged",
      "type": "event"
    },
    {
      "anonymous": false,
      "inputs": [
        {
          "indexed": true,
          "internalType": "bytes32",
          "name": "role",
          "type": "bytes32"
        },
        {
          "indexed": true,
          "internalType": "address",
          "name": "account",
          "type": "address"
        },
        {
          "indexed": true,
          "internalType": "address",
          "name": "sender",
          "type": "address"
        }
      ],
      "name": "RoleGranted",
      "type": "event"
    },
    {
      "anonymous": false,
      "inputs": [
        {
          "indexed": true,
          "internalType": "bytes32",
          "name": "role",
          "type": "bytes32"
        },
        {
          "indexed": true,
          "internalType": "address",
          "name": "account",
          "type": "address"
        },
        {
          "indexed": true,
          "internalType": "address",
          "name": "sender",
          "type": "address"
        }
      ],
      "name": "RoleRevoked",
      "type": "event"
    },
    {
      "anonymous": false,
      "inputs": [
        {
          "indexed": false,
          "internalType": "address",
          "name": "",
          "type": "address"
        },
        {
          "indexed": false,
          "internalType": "address",
          "name": "",
          "type": "address"
        },
        {
          "indexed": false,
          "internalType": "uint256",
          "name": "",
          "type": "uint256"
        }
      ],
      "name": "SetConfig",
      "type": "event"
    },
    {
      "anonymous": false,
      "inputs": [
        {
          "indexed": false,
          "internalType": "uint256",
          "name": "",
          "type": "uint256"
        }
      ],
      "name": "SetHardCap",
      "type": "event"
    },
    {
      "anonymous": false,
      "inputs": [
        {
          "indexed": false,
          "internalType": "uint256",
          "name": "",
          "type": "uint256"
        }
      ],
      "name": "SetLaunch",
      "type": "event"
    },
    {
      "anonymous": false,
      "inputs": [
        {
          "indexed": false,
          "internalType": "uint256",
          "name": "",
          "type": "uint256"
        }
      ],
      "name": "SetLockup",
      "type": "event"
    },
    {
      "anonymous": false,
      "inputs": [
        {
          "indexed": false,
          "internalType": "address",
          "name": "",
          "type": "address"
        }
      ],
      "name": "SetMysteryBox",
      "type": "event"
    },
    {
      "anonymous": false,
      "inputs": [
        {
          "indexed": false,
          "internalType": "address",
          "name": "",
          "type": "address"
        }
      ],
      "name": "SetQuote",
      "type": "event"
    },
    {
      "anonymous": false,
      "inputs": [
        {
          "indexed": true,
          "internalType": "address",
          "name": "from",
          "type": "address"
        },
        {
          "indexed": true,
          "internalType": "address",
          "name": "to",
          "type": "address"
        },
        {
          "indexed": true,
          "internalType": "uint256",
          "name": "tokenId",
          "type": "uint256"
        }
      ],
      "name": "Transfer",
      "type": "event"
    },
    {
      "anonymous": false,
      "inputs": [
        {
          "indexed": false,
          "internalType": "address",
          "name": "account",
          "type": "address"
        }
      ],
      "name": "Unpaused",
      "type": "event"
    },
    {
      "inputs": [],
      "name": "DEFAULT_ADMIN_ROLE",
      "outputs": [
        {
          "internalType": "bytes32",
          "name": "",
          "type": "bytes32"
        }
      ],
      "stateMutability": "view",
      "type": "function"
    },
    {
      "inputs": [],
      "name": "MINTER_ROLE",
      "outputs": [
        {
          "internalType": "bytes32",
          "name": "",
          "type": "bytes32"
        }
      ],
      "stateMutability": "view",
      "type": "function"
    },
    {
      "inputs": [],
      "name": "PAUSER_ROLE",
      "outputs": [
        {
          "internalType": "bytes32",
          "name": "",
          "type": "bytes32"
        }
      ],
      "stateMutability": "view",
      "type": "function"
    },
    {
      "inputs": [
        {
          "internalType": "address",
          "name": "minter",
          "type": "address"
        }
      ],
      "name": "addMinter",
      "outputs": [],
      "stateMutability": "nonpayable",
      "type": "function"
    },
    {
      "inputs": [
        {
          "internalType": "address",
          "name": "pauser",
          "type": "address"
        }
      ],
      "name": "addPauser",
      "outputs": [],
      "stateMutability": "nonpayable",
      "type": "function"
    },
    {
      "inputs": [],
      "name": "andOr",
      "outputs": [
        {
          "internalType": "bool",
          "name": "",
          "type": "bool"
        }
      ],
      "stateMutability": "view",
      "type": "function"
    },
    {
      "inputs": [
        {
          "internalType": "address",
          "name": "to",
          "type": "address"
        },
        {
          "internalType": "uint256",
          "name": "tokenId",
          "type": "uint256"
        }
      ],
      "name": "approve",
      "outputs": [],
      "stateMutability": "nonpayable",
      "type": "function"
    },
    {
      "inputs": [
        {
          "internalType": "address",
          "name": "owner",
          "type": "address"
        }
      ],
      "name": "balanceOf",
      "outputs": [
        {
          "internalType": "uint256",
          "name": "",
          "type": "uint256"
        }
      ],
      "stateMutability": "view",
      "type": "function"
    },
    {
      "inputs": [
        {
          "internalType": "uint256",
          "name": "tokenId",
          "type": "uint256"
        }
      ],
      "name": "burn",
      "outputs": [],
      "stateMutability": "nonpayable",
      "type": "function"
    },
    {
      "inputs": [
        {
          "internalType": "uint256",
          "name": "_itemIx",
          "type": "uint256"
        },
        {
          "internalType": "uint256",
          "name": "_amount",
          "type": "uint256"
        },
        {
          "internalType": "address",
          "name": "to",
          "type": "address"
        }
      ],
      "name": "buyItemCredit",
      "outputs": [],
      "stateMutability": "nonpayable",
      "type": "function"
    },
    {
      "inputs": [
        {
          "internalType": "uint256",
          "name": "_itemIx",
          "type": "uint256"
        },
        {
          "internalType": "uint256",
          "name": "_amount",
          "type": "uint256"
        }
      ],
      "name": "buyItemEth",
      "outputs": [],
      "stateMutability": "payable",
      "type": "function"
    },
    {
      "inputs": [
        {
          "internalType": "uint256",
          "name": "_itemIx",
          "type": "uint256"
        },
        {
          "internalType": "uint256",
          "name": "_payment",
          "type": "uint256"
        },
        {
          "internalType": "uint256",
          "name": "_amount",
          "type": "uint256"
        }
      ],
      "name": "buyItemQuote",
      "outputs": [],
      "stateMutability": "nonpayable",
      "type": "function"
    },
    {
      "inputs": [],
      "name": "feeRate",
      "outputs": [
        {
          "internalType": "uint256",
          "name": "",
          "type": "uint256"
        }
      ],
      "stateMutability": "view",
      "type": "function"
    },
    {
      "inputs": [],
      "name": "flagMandatory",
      "outputs": [
        {
          "internalType": "bool",
          "name": "",
          "type": "bool"
        }
      ],
      "stateMutability": "view",
      "type": "function"
    },
    {
      "inputs": [
        {
          "internalType": "uint256",
          "name": "tokenId",
          "type": "uint256"
        }
      ],
      "name": "getApproved",
      "outputs": [
        {
          "internalType": "address",
          "name": "",
          "type": "address"
        }
      ],
      "stateMutability": "view",
      "type": "function"
    },
    {
      "inputs": [],
      "name": "getItemRemains",
      "outputs": [
        {
          "internalType": "uint256",
          "name": "",
          "type": "uint256"
        }
      ],
      "stateMutability": "view",
      "type": "function"
    },
    {
      "inputs": [
        {
          "internalType": "bytes32",
          "name": "role",
          "type": "bytes32"
        }
      ],
      "name": "getRoleAdmin",
      "outputs": [
        {
          "internalType": "bytes32",
          "name": "",
          "type": "bytes32"
        }
      ],
      "stateMutability": "view",
      "type": "function"
    },
    {
      "inputs": [],
      "name": "globalURI",
      "outputs": [
        {
          "internalType": "string",
          "name": "",
          "type": "string"
        }
      ],
      "stateMutability": "view",
      "type": "function"
    },
    {
      "inputs": [
        {
          "internalType": "bytes32",
          "name": "role",
          "type": "bytes32"
        },
        {
          "internalType": "address",
          "name": "account",
          "type": "address"
        }
      ],
      "name": "grantRole",
      "outputs": [],
      "stateMutability": "nonpayable",
      "type": "function"
    },
    {
      "inputs": [],
      "name": "hardCap",
      "outputs": [
        {
          "internalType": "uint256",
          "name": "",
          "type": "uint256"
        }
      ],
      "stateMutability": "view",
      "type": "function"
    },
    {
      "inputs": [
        {
          "internalType": "bytes32",
          "name": "role",
          "type": "bytes32"
        },
        {
          "internalType": "address",
          "name": "account",
          "type": "address"
        }
      ],
      "name": "hasRole",
      "outputs": [
        {
          "internalType": "bool",
          "name": "",
          "type": "bool"
        }
      ],
      "stateMutability": "view",
      "type": "function"
    },
    {
      "inputs": [
        {
          "internalType": "address",
          "name": "owner",
          "type": "address"
        },
        {
          "internalType": "address",
          "name": "operator",
          "type": "address"
        }
      ],
      "name": "isApprovedForAll",
      "outputs": [
        {
          "internalType": "bool",
          "name": "",
          "type": "bool"
        }
      ],
      "stateMutability": "view",
      "type": "function"
    },
    {
      "inputs": [
        {
          "internalType": "uint256",
          "name": "",
          "type": "uint256"
        }
      ],
      "name": "itemAmounts",
      "outputs": [
        {
          "internalType": "uint256",
          "name": "",
          "type": "uint256"
        }
      ],
      "stateMutability": "view",
      "type": "function"
    },
    {
      "inputs": [
        {
          "internalType": "uint256",
          "name": "",
          "type": "uint256"
        }
      ],
      "name": "itemPrices",
      "outputs": [
        {
          "internalType": "uint256",
          "name": "",
          "type": "uint256"
        }
      ],
      "stateMutability": "view",
      "type": "function"
    },
    {
      "inputs": [
        {
          "internalType": "uint256",
          "name": "",
          "type": "uint256"
        }
      ],
      "name": "itemSolds",
      "outputs": [
        {
          "internalType": "uint256",
          "name": "",
          "type": "uint256"
        }
      ],
      "stateMutability": "view",
      "type": "function"
    },
    {
      "inputs": [
        {
          "internalType": "uint256",
          "name": "",
          "type": "uint256"
        }
      ],
      "name": "itemURIs",
      "outputs": [
        {
          "internalType": "string",
          "name": "",
          "type": "string"
        }
      ],
      "stateMutability": "view",
      "type": "function"
    },
    {
      "inputs": [],
      "name": "launch",
      "outputs": [
        {
          "internalType": "uint256",
          "name": "",
          "type": "uint256"
        }
      ],
      "stateMutability": "view",
      "type": "function"
    },
    {
      "inputs": [],
      "name": "lockup",
      "outputs": [
        {
          "internalType": "uint256",
          "name": "",
          "type": "uint256"
        }
      ],
      "stateMutability": "view",
      "type": "function"
    },
    {
      "inputs": [
        {
          "internalType": "uint256",
          "name": "",
          "type": "uint256"
        }
      ],
      "name": "mandatory",
      "outputs": [
        {
          "internalType": "address",
          "name": "",
          "type": "address"
        }
      ],
      "stateMutability": "view",
      "type": "function"
    },
    {
      "inputs": [],
      "name": "mysteryBox",
      "outputs": [
        {
          "internalType": "address",
          "name": "",
          "type": "address"
        }
      ],
      "stateMutability": "view",
      "type": "function"
    },
    {
      "inputs": [],
      "name": "name",
      "outputs": [
        {
          "internalType": "string",
          "name": "",
          "type": "string"
        }
      ],
      "stateMutability": "view",
      "type": "function"
    },
    {
      "inputs": [
        {
          "internalType": "address",
          "name": "operator",
          "type": "address"
        },
        {
          "internalType": "address",
          "name": "from",
          "type": "address"
        },
        {
          "internalType": "uint256",
          "name": "tokenId",
          "type": "uint256"
        },
        {
          "internalType": "bytes",
          "name": "data",
          "type": "bytes"
        }
      ],
      "name": "onERC721Received",
      "outputs": [
        {
          "internalType": "bytes4",
          "name": "",
          "type": "bytes4"
        }
      ],
      "stateMutability": "pure",
      "type": "function"
    },
    {
      "inputs": [],
      "name": "owner",
      "outputs": [
        {
          "internalType": "address",
          "name": "",
          "type": "address"
        }
      ],
      "stateMutability": "view",
      "type": "function"
    },
    {
      "inputs": [
        {
          "internalType": "uint256",
          "name": "tokenId",
          "type": "uint256"
        }
      ],
      "name": "ownerOf",
      "outputs": [
        {
          "internalType": "address",
          "name": "",
          "type": "address"
        }
      ],
      "stateMutability": "view",
      "type": "function"
    },
    {
      "inputs": [],
      "name": "pause",
      "outputs": [],
      "stateMutability": "nonpayable",
      "type": "function"
    },
    {
      "inputs": [],
      "name": "paused",
      "outputs": [
        {
          "internalType": "bool",
          "name": "",
          "type": "bool"
        }
      ],
      "stateMutability": "view",
      "type": "function"
    },
    {
      "inputs": [],
      "name": "payment",
      "outputs": [
        {
          "internalType": "address",
          "name": "",
          "type": "address"
        }
      ],
      "stateMutability": "view",
      "type": "function"
    },
    {
      "inputs": [],
      "name": "quote",
      "outputs": [
        {
          "internalType": "address",
          "name": "",
          "type": "address"
        }
      ],
      "stateMutability": "view",
      "type": "function"
    },
    {
      "inputs": [
        {
          "internalType": "string[]",
          "name": "uris",
          "type": "string[]"
        },
        {
          "internalType": "uint256[]",
          "name": "amounts",
          "type": "uint256[]"
        },
        {
          "internalType": "uint256[]",
          "name": "prices",
          "type": "uint256[]"
        }
      ],
      "name": "registerItems",
      "outputs": [],
      "stateMutability": "nonpayable",
      "type": "function"
    },
    {
      "inputs": [],
      "name": "renounceOwnership",
      "outputs": [],
      "stateMutability": "nonpayable",
      "type": "function"
    },
    {
      "inputs": [
        {
          "internalType": "bytes32",
          "name": "role",
          "type": "bytes32"
        },
        {
          "internalType": "address",
          "name": "account",
          "type": "address"
        }
      ],
      "name": "renounceRole",
      "outputs": [],
      "stateMutability": "nonpayable",
      "type": "function"
    },
    {
      "inputs": [
        {
          "internalType": "bytes32",
          "name": "role",
          "type": "bytes32"
        },
        {
          "internalType": "address",
          "name": "account",
          "type": "address"
        }
      ],
      "name": "revokeRole",
      "outputs": [],
      "stateMutability": "nonpayable",
      "type": "function"
    },
    {
      "inputs": [
        {
          "internalType": "address",
          "name": "to",
          "type": "address"
        },
        {
          "internalType": "string[]",
          "name": "uris",
          "type": "string[]"
        }
      ],
      "name": "safeBatchMint",
      "outputs": [],
      "stateMutability": "view",
      "type": "function"
    },
    {
      "inputs": [
        {
          "internalType": "address",
          "name": "to",
          "type": "address"
        },
        {
          "internalType": "string",
          "name": "uri",
          "type": "string"
        },
        {
          "internalType": "uint256",
          "name": "amount",
          "type": "uint256"
        }
      ],
      "name": "safeBatchMintLight",
      "outputs": [],
      "stateMutability": "nonpayable",
      "type": "function"
    },
    {
      "inputs": [
        {
          "internalType": "address",
          "name": "to",
          "type": "address"
        },
        {
          "internalType": "string",
          "name": "uri",
          "type": "string"
        }
      ],
      "name": "safeMint",
      "outputs": [
        {
          "internalType": "uint256",
          "name": "",
          "type": "uint256"
        }
      ],
      "stateMutability": "view",
      "type": "function"
    },
    {
      "inputs": [
        {
          "internalType": "address",
          "name": "to",
          "type": "address"
        }
      ],
      "name": "safeMintTo",
      "outputs": [],
      "stateMutability": "nonpayable",
      "type": "function"
    },
    {
      "inputs": [
        {
          "internalType": "address",
          "name": "from",
          "type": "address"
        },
        {
          "internalType": "address",
          "name": "to",
          "type": "address"
        },
        {
          "internalType": "uint256",
          "name": "tokenId",
          "type": "uint256"
        }
      ],
      "name": "safeTransferFrom",
      "outputs": [],
      "stateMutability": "nonpayable",
      "type": "function"
    },
    {
      "inputs": [
        {
          "internalType": "address",
          "name": "from",
          "type": "address"
        },
        {
          "internalType": "address",
          "name": "to",
          "type": "address"
        },
        {
          "internalType": "uint256",
          "name": "tokenId",
          "type": "uint256"
        },
        {
          "internalType": "bytes",
          "name": "_data",
          "type": "bytes"
        }
      ],
      "name": "safeTransferFrom",
      "outputs": [],
      "stateMutability": "nonpayable",
      "type": "function"
    },
    {
      "inputs": [
        {
          "internalType": "address",
          "name": "operator",
          "type": "address"
        },
        {
          "internalType": "bool",
          "name": "approved",
          "type": "bool"
        }
      ],
      "name": "setApprovalForAll",
      "outputs": [],
      "stateMutability": "nonpayable",
      "type": "function"
    },
    {
      "inputs": [
        {
          "internalType": "address",
          "name": "_payment",
          "type": "address"
        },
        {
          "internalType": "address",
          "name": "_treasury",
          "type": "address"
        },
        {
          "internalType": "uint256",
          "name": "_feeRate",
          "type": "uint256"
        }
      ],
      "name": "setConfig",
      "outputs": [],
      "stateMutability": "nonpayable",
      "type": "function"
    },
    {
      "inputs": [
        {
          "internalType": "uint256",
          "name": "_hardCap",
          "type": "uint256"
        },
        {
          "internalType": "string",
          "name": "_uri",
          "type": "string"
        }
      ],
      "name": "setHardCap",
      "outputs": [],
      "stateMutability": "nonpayable",
      "type": "function"
    },
    {
      "inputs": [
        {
          "internalType": "uint256",
          "name": "_launch",
          "type": "uint256"
        }
      ],
      "name": "setLaunch",
      "outputs": [],
      "stateMutability": "nonpayable",
      "type": "function"
    },
    {
      "inputs": [
        {
          "internalType": "uint256",
          "name": "_lockup",
          "type": "uint256"
        }
      ],
      "name": "setLockup",
      "outputs": [],
      "stateMutability": "nonpayable",
      "type": "function"
    },
    {
      "inputs": [
        {
          "internalType": "address[]",
          "name": "_nfts",
          "type": "address[]"
        },
        {
          "internalType": "bool",
          "name": "_andOr",
          "type": "bool"
        }
      ],
      "name": "setMandatory",
      "outputs": [],
      "stateMutability": "nonpayable",
      "type": "function"
    },
    {
      "inputs": [
        {
          "internalType": "address",
          "name": "_mbox",
          "type": "address"
        }
      ],
      "name": "setMysteryBox",
      "outputs": [],
      "stateMutability": "nonpayable",
      "type": "function"
    },
    {
      "inputs": [
        {
          "internalType": "address",
          "name": "_quote",
          "type": "address"
        }
      ],
      "name": "setQuote",
      "outputs": [],
      "stateMutability": "nonpayable",
      "type": "function"
    },
    {
      "inputs": [
        {
          "internalType": "bytes4",
          "name": "interfaceId",
          "type": "bytes4"
        }
      ],
      "name": "supportsInterface",
      "outputs": [
        {
          "internalType": "bool",
          "name": "",
          "type": "bool"
        }
      ],
      "stateMutability": "view",
      "type": "function"
    },
    {
      "inputs": [],
      "name": "symbol",
      "outputs": [
        {
          "internalType": "string",
          "name": "",
          "type": "string"
        }
      ],
      "stateMutability": "view",
      "type": "function"
    },
    {
      "inputs": [
        {
          "internalType": "uint256",
          "name": "index",
          "type": "uint256"
        }
      ],
      "name": "tokenByIndex",
      "outputs": [
        {
          "internalType": "uint256",
          "name": "",
          "type": "uint256"
        }
      ],
      "stateMutability": "view",
      "type": "function"
    },
    {
      "inputs": [
        {
          "internalType": "address",
          "name": "owner",
          "type": "address"
        },
        {
          "internalType": "uint256",
          "name": "index",
          "type": "uint256"
        }
      ],
      "name": "tokenOfOwnerByIndex",
      "outputs": [
        {
          "internalType": "uint256",
          "name": "",
          "type": "uint256"
        }
      ],
      "stateMutability": "view",
      "type": "function"
    },
    {
      "inputs": [
        {
          "internalType": "uint256",
          "name": "tokenId",
          "type": "uint256"
        }
      ],
      "name": "tokenURI",
      "outputs": [
        {
          "internalType": "string",
          "name": "",
          "type": "string"
        }
      ],
      "stateMutability": "view",
      "type": "function"
    },
    {
      "inputs": [],
      "name": "totalItems",
      "outputs": [
        {
          "internalType": "uint256",
          "name": "",
          "type": "uint256"
        }
      ],
      "stateMutability": "view",
      "type": "function"
    },
    {
      "inputs": [],
      "name": "totalSupply",
      "outputs": [
        {
          "internalType": "uint256",
          "name": "",
          "type": "uint256"
        }
      ],
      "stateMutability": "view",
      "type": "function"
    },
    {
      "inputs": [
        {
          "internalType": "address",
          "name": "from",
          "type": "address"
        },
        {
          "internalType": "address",
          "name": "to",
          "type": "address"
        },
        {
          "internalType": "uint256",
          "name": "tokenId",
          "type": "uint256"
        }
      ],
      "name": "transferFrom",
      "outputs": [],
      "stateMutability": "nonpayable",
      "type": "function"
    },
    {
      "inputs": [
        {
          "internalType": "address",
          "name": "newOwner",
          "type": "address"
        }
      ],
      "name": "transferOwnership",
      "outputs": [],
      "stateMutability": "nonpayable",
      "type": "function"
    },
    {
      "inputs": [],
      "name": "treasury",
      "outputs": [
        {
          "internalType": "address",
          "name": "",
          "type": "address"
        }
      ],
      "stateMutability": "view",
      "type": "function"
    },
    {
      "inputs": [],
      "name": "unpause",
      "outputs": [],
      "stateMutability": "nonpayable",
      "type": "function"
    },
    {
      "stateMutability": "payable",
      "type": "receive"
    }
  ],
  "bytecode": "0x60806040526000600d819055601280546001600160a01b03191690556077556032607c556081805460ff199081169091556083805490911690553480156200004657600080fd5b5060405162005b9638038062005b968339810160408190526200006991620007e1565b858581818160009080519060200190620000859291906200068d565b5080516200009b9060019060208401906200068d565b5050600b805460ff1916905550620000b3336200025e565b620000c0600033620002b8565b620000db60008051602062005b5683398151915233620002b8565b620000f660008051602062005b7683398151915233620002b8565b505060016011558051600314620001545760405162461bcd60e51b815260206004820152601a60248201527f696e76616c696420636f6e6669672064617461206c656e67746800000000000060448201526064015b60405180910390fd5b62000161600033620002b8565b6200017c60008051602062005b5683398151915233620002b8565b6200019760008051602062005b7683398151915233620002b8565b620001d181600081518110620001bd57634e487b7160e01b600052603260045260246000fd5b60200260200101516200035d60201b60201c565b6200020b81600181518110620001f757634e487b7160e01b600052603260045260246000fd5b6020026020010151620003ea60201b60201c565b620002478383836002815181106200023357634e487b7160e01b600052603260045260246000fd5b60200260200101516200047160201b60201c565b6200025284620005ed565b5050505050506200099b565b600b80546001600160a01b03838116610100818102610100600160a81b031985161790945560405193909204169182907f8be0079c531659141344cd1fd0a4f28419497f9722a3daafe3b4186f6b6457e090600090a35050565b6000828152600c602090815260408083206001600160a01b038516845290915290205460ff1662000359576000828152600c602090815260408083206001600160a01b03851684529091529020805460ff19166001179055620003183390565b6001600160a01b0316816001600160a01b0316837f2f8788117e7eff1d82e926ec794901d17c78024a50270940304540a733656f0d60405160405180910390a45b5050565b600b546001600160a01b03610100909104163314620003ae5760405162461bcd60e51b8152602060048201819052602482015260008051602062005b3683398151915260448201526064016200014b565b60788190556040518181527f7c8826e4db3679f20c86da0c68d37f9dbcd1d638c56717e014f93c56d14c02d1906020015b60405180910390a150565b600b546001600160a01b036101009091041633146200043b5760405162461bcd60e51b8152602060048201819052602482015260008051602062005b3683398151915260448201526064016200014b565b60798190556040518181527fa7ade4ab976b6643a971383d9822fb7c2fce66aa2e497d88c3b4f1475ea2b2e090602001620003df565b600b546001600160a01b03610100909104163314620004c25760405162461bcd60e51b8152602060048201819052602482015260008051602062005b3683398151915260448201526064016200014b565b6001600160a01b0383166200051a5760405162461bcd60e51b815260206004820152601760248201527f696e76616c6964207061796d656e74206164647265737300000000000000000060448201526064016200014b565b6001600160a01b038216620005725760405162461bcd60e51b815260206004820152601860248201527f696e76616c69642074726561737572792061646472657373000000000000000060448201526064016200014b565b607a80546001600160a01b038581166001600160a01b03199283168117909355607b8054918616919092168117909155607c83905560408051928352602083019190915281018290527fe2be3027f197494650b7a98fd1cae67dacf615bd1d8bb05102999676f11638669060600160405180910390a1505050565b600b546001600160a01b036101009091041633146200063e5760405162461bcd60e51b8152602060048201819052602482015260008051602062005b3683398151915260448201526064016200014b565b601280546001600160a01b0319166001600160a01b0383169081179091556040519081527fca92c759228172fe3894a344908fd20dfd37ba561b5af191f1f5b02ee03881fc90602001620003df565b8280546200069b9062000948565b90600052602060002090601f016020900481019282620006bf57600085556200070a565b82601f10620006da57805160ff19168380011785556200070a565b828001600101855582156200070a579182015b828111156200070a578251825591602001919060010190620006ed565b50620007189291506200071c565b5090565b5b808211156200071857600081556001016200071d565b80516001600160a01b03811681146200074b57600080fd5b919050565b600082601f83011262000761578081fd5b81516001600160401b038111156200077d576200077d62000985565b602062000793601f8301601f1916820162000915565b8281528582848701011115620007a7578384fd5b835b83811015620007c6578581018301518282018401528201620007a9565b83811115620007d757848385840101525b5095945050505050565b60008060008060008060c08789031215620007fa578182fd5b86516001600160401b038082111562000811578384fd5b6200081f8a838b0162000750565b975060209150818901518181111562000836578485fd5b620008448b828c0162000750565b9750506200085560408a0162000733565b95506200086560608a0162000733565b94506200087560808a0162000733565b935060a08901518181111562000889578384fd5b8901601f81018b136200089a578384fd5b805182811115620008af57620008af62000985565b8060051b9250620008c284840162000915565b8181528481019083860185850187018f1015620008dd578788fd5b8795505b8386101562000901578051835260019590950194918601918601620008e1565b508096505050505050509295509295509295565b604051601f8201601f191681016001600160401b038111828210171562000940576200094062000985565b604052919050565b600181811c908216806200095d57607f821691505b602082108114156200097f57634e487b7160e01b600052602260045260246000fd5b50919050565b634e487b7160e01b600052604160045260246000fd5b61518b80620009ab6000396000f3fe6080604052600436106103e85760003560e01c8063715018a611610208578063b5a87cc111610118578063d3d3224a116100ab578063e985e9c51161007a578063e985e9c514610b93578063ec32719614610bdc578063f2fde38b14610bfc578063f3c8dc5914610c1c578063fb86a40414610c3c57600080fd5b8063d3d3224a14610b1a578063d539139314610b2f578063d547741f14610b51578063e63ab1e914610b7157600080fd5b8063bf91ad9e116100e7578063bf91ad9e14610a9a578063c38b761c14610aba578063c87b56dd14610ada578063d204c45e14610afa57600080fd5b8063b5a87cc114610a1b578063b88d4fde14610a3b578063b9d6abe914610a5b578063bebc2b5214610a7b57600080fd5b8063902835f61161019b578063983b2d561161016a578063983b2d5614610986578063999b93af146109a6578063a217fddf146109c6578063a22cb465146109db578063a2aa61eb146109fb57600080fd5b8063902835f61461091b57806391d148541461093b57806395d89b411461095b578063978bbdb91461097057600080fd5b80638456cb59116101d75780638456cb59146108b057806385be1b3b146108c55780638a55b866146108d85780638da5cb5b146108f857600080fd5b8063715018a6146108415780637b43b82714610856578063809a249e1461087657806382dc1ec41461089057600080fd5b806330c045a81161030357806358dd6d95116102965780635dce7383116102655780635dce7383146107ac57806361d027b3146107c15780636352211e146107e15780636ae6b4591461080157806370a082311461082157600080fd5b806358dd6d95146107345780635c975abb146107545780635d1d37c31461076c5780635d814dea1461078c57600080fd5b806342842e0e116102d257806342842e0e146106b457806342966c68146106d457806342f6487a146106f45780634f6ccce71461071457600080fd5b806330c045a81461063f57806336568abe1461065f5780633f4ba83a1461067f5780633f7d70551461069457600080fd5b806321bae9e41161037b5780632799276d1161034a5780632799276d146105c95780632f2ff15d146105df5780632f745c59146105ff5780632f7859081461061f57600080fd5b806321bae9e41461053957806323b872dd146105595780632449065914610579578063248a9ca31461059957600080fd5b8063081812fc116103b7578063081812fc14610485578063095ea7b3146104bd578063150b7a02146104df57806318160ddd1461052457600080fd5b806301339c21146103f457806301ffc9a71461041d57806306490f471461044d57806306fdde031461046357600080fd5b366103ef57005b600080fd5b34801561040057600080fd5b5061040a60785481565b6040519081526020015b60405180910390f35b34801561042957600080fd5b5061043d610438366004614b61565b610c52565b6040519015158152602001610414565b34801561045957600080fd5b5061040a60795481565b34801561046f57600080fd5b50610478610c7d565b6040516104149190614d88565b34801561049157600080fd5b506104a56104a0366004614b27565b610d0f565b6040516001600160a01b039091168152602001610414565b3480156104c957600080fd5b506104dd6104d83660046149df565b610d9c565b005b3480156104eb57600080fd5b5061050b6104fa3660046147bc565b630a85bd0160e11b95945050505050565b6040516001600160e01b03199091168152602001610414565b34801561053057600080fd5b5060085461040a565b34801561054557600080fd5b506104dd610554366004614735565b610eb2565b34801561056557600080fd5b506104dd610574366004614781565b610fff565b34801561058557600080fd5b506104dd610594366004614bb1565b611031565b3480156105a557600080fd5b5061040a6105b4366004614b27565b6000908152600c602052604090206001015490565b3480156105d557600080fd5b5061040a60775481565b3480156105eb57600080fd5b506104dd6105fa366004614b3f565b6110b9565b34801561060b57600080fd5b5061040a61061a3660046149df565b6110de565b34801561062b57600080fd5b506104a561063a366004614b27565b611174565b34801561064b57600080fd5b506104dd61065a366004614c00565b61119e565b34801561066b57600080fd5b506104dd61067a366004614b3f565b6115bd565b34801561068b57600080fd5b506104dd61163b565b3480156106a057600080fd5b506104dd6106af366004614c34565b61165e565b3480156106c057600080fd5b506104dd6106cf366004614781565b611b37565b3480156106e057600080fd5b506104dd6106ef366004614b27565b611b52565b34801561070057600080fd5b50607a546104a5906001600160a01b031681565b34801561072057600080fd5b5061040a61072f366004614b27565b611bc9565b34801561074057600080fd5b506104dd61074f3660046148c9565b611c6a565b34801561076057600080fd5b50600b5460ff1661043d565b34801561077857600080fd5b506104dd610787366004614b27565b611cb5565b34801561079857600080fd5b506104786107a7366004614b27565b611d21565b3480156107b857600080fd5b5061040a611dcd565b3480156107cd57600080fd5b50607b546104a5906001600160a01b031681565b3480156107ed57600080fd5b506104a56107fc366004614b27565b611e62565b34801561080d57600080fd5b506104dd61081c366004614b27565b611ed9565b34801561082d57600080fd5b5061040a61083c366004614735565b611f3e565b34801561084d57600080fd5b506104dd611fc5565b34801561086257600080fd5b506104dd610871366004614735565b612001565b34801561088257600080fd5b5060835461043d9060ff1681565b34801561089c57600080fd5b506104dd6108ab366004614735565b6120a1565b3480156108bc57600080fd5b506104dd612147565b6104dd6108d3366004614bdf565b612167565b3480156108e457600080fd5b5061040a6108f3366004614b27565b612574565b34801561090457600080fd5b50600b5461010090046001600160a01b03166104a5565b34801561092757600080fd5b506104dd610936366004614781565b612595565b34801561094757600080fd5b5061043d610956366004614b3f565b6126ec565b34801561096757600080fd5b50610478612717565b34801561097c57600080fd5b5061040a607c5481565b34801561099257600080fd5b506104dd6109a1366004614735565b612726565b3480156109b257600080fd5b506012546104a5906001600160a01b031681565b3480156109d257600080fd5b5061040a600081565b3480156109e757600080fd5b506104dd6109f6366004614914565b6127cc565b348015610a0757600080fd5b506104dd610a16366004614735565b6127d7565b348015610a2757600080fd5b506104dd610a3636600461498b565b612855565b348015610a4757600080fd5b506104dd610a56366004614851565b6128e7565b348015610a6757600080fd5b5061040a610a76366004614b27565b61291f565b348015610a8757600080fd5b5060835461043d90610100900460ff1681565b348015610aa657600080fd5b5061040a610ab5366004614b27565b61292f565b348015610ac657600080fd5b50600f546104a5906001600160a01b031681565b348015610ae657600080fd5b50610478610af5366004614b27565b61293f565b348015610b0657600080fd5b5061040a610b1536600461494a565b61294a565b348015610b2657600080fd5b50610478612964565b348015610b3b57600080fd5b5061040a60008051602061513683398151915281565b348015610b5d57600080fd5b506104dd610b6c366004614b3f565b612971565b348015610b7d57600080fd5b5061040a60008051602061511683398151915281565b348015610b9f57600080fd5b5061043d610bae36600461474f565b6001600160a01b03918216600090815260056020908152604080832093909416825291909152205460ff1690565b348015610be857600080fd5b506104dd610bf7366004614a08565b612996565b348015610c0857600080fd5b506104dd610c17366004614735565b612a7d565b348015610c2857600080fd5b506104dd610c37366004614a88565b612b1b565b348015610c4857600080fd5b5061040a600d5481565b60006001600160e01b031982166380ac58cd60e01b1480610c775750610c7782612cd2565b92915050565b606060008054610c8c9061504b565b80601f0160208091040260200160405190810160405280929190818152602001828054610cb89061504b565b8015610d055780601f10610cda57610100808354040283529160200191610d05565b820191906000526020600020905b815481529060010190602001808311610ce857829003601f168201915b5050505050905090565b6000610d1a82612cf7565b610d805760405162461bcd60e51b815260206004820152602c60248201527f4552433732313a20617070726f76656420717565727920666f72206e6f6e657860448201526b34b9ba32b73a103a37b5b2b760a11b60648201526084015b60405180910390fd5b506000908152600460205260409020546001600160a01b031690565b6000610da782611e62565b9050806001600160a01b0316836001600160a01b03161415610e155760405162461bcd60e51b815260206004820152602160248201527f4552433732313a20617070726f76616c20746f2063757272656e74206f776e656044820152603960f91b6064820152608401610d77565b336001600160a01b0382161480610e315750610e318133610bae565b610ea35760405162461bcd60e51b815260206004820152603860248201527f4552433732313a20617070726f76652063616c6c6572206973206e6f74206f7760448201527f6e6572206e6f7220617070726f76656420666f7220616c6c00000000000000006064820152608401610d77565b610ead8383612d14565b505050565b600080516020615136833981519152610eca81612d82565b6000600e8054610ed99061504b565b905011610f205760405162461bcd60e51b815260206004820152601560248201527411db1bd8985b08155492481a5cc81b9bdd081cd95d605a1b6044820152606401610d77565b6001600160a01b038216610f6b5760405162461bcd60e51b8152602060048201526012602482015271496e76616c696420746f206164647265737360701b6044820152606401610d77565b610ead82600e8054610f7c9061504b565b80601f0160208091040260200160405190810160405280929190818152602001828054610fa89061504b565b8015610ff55780601f10610fca57610100808354040283529160200191610ff5565b820191906000526020600020905b815481529060010190602001808311610fd857829003601f168201915b505050505061294a565b61100a335b82612d8c565b6110265760405162461bcd60e51b8152600401610d7790614f02565b610ead838383612e76565b600b546001600160a01b036101009091041633146110615760405162461bcd60e51b8152600401610d7790614e14565b600d829055805161107990600e906020840190614436565b507f57bbf0b7295e3c8587fe0fa3c76592771f6a96123bf723292fd0e3933436b71f600d546040516110ad91815260200190565b60405180910390a15050565b6000828152600c60205260409020600101546110d481612d82565b610ead838361301d565b60006110e983611f3e565b821061114b5760405162461bcd60e51b815260206004820152602b60248201527f455243373231456e756d657261626c653a206f776e657220696e646578206f7560448201526a74206f6620626f756e647360a81b6064820152608401610d77565b506001600160a01b03919091166000908152600660209081526040808320938352929052205490565b6082818154811061118457600080fd5b6000918252602090912001546001600160a01b0316905081565b6000805160206151368339815191526111b681612d82565b60785442116111d75760405162461bcd60e51b8152600401610d7790614ecb565b607f84815481106111f857634e487b7160e01b600052603260045260246000fd5b9060005260206000200154607e858154811061122457634e487b7160e01b600052603260045260246000fd5b90600052602060002001541161124c5760405162461bcd60e51b8152600401610d7790614ded565b60835460ff16156113a0576000805b60825481101561137d5760006082828154811061128857634e487b7160e01b600052603260045260246000fd5b6000918252602090912001546040516370a0823160e01b81523360048201526001600160a01b03909116906370a082319060240160206040518083038186803b1580156112d457600080fd5b505afa1580156112e8573d6000803e3d6000fd5b505050506040513d601f19601f8201168201806040525081019061130c9190614b99565b608354909150610100900460ff1615611351576000811161133f5760405162461bcd60e51b8152600401610d7790614e49565b61134a8360016130a3565b925061136a565b801561136a576113628360016130a3565b92505061137d565b508061137581615080565b91505061125b565b506000811161139e5760405162461bcd60e51b8152600401610d7790614e49565b505b6000805b607e5481101561140957808610156113f7576113f4607e82815481106113da57634e487b7160e01b600052603260045260246000fd5b9060005260206000200154836130a390919063ffffffff16565b91505b8061140181615080565b9150506113a4565b5060005b84811015611549576114486114416013886064811061143c57634e487b7160e01b600052603260045260246000fd5b015490565b83906130a3565b91506115088483607d898154811061147057634e487b7160e01b600052603260045260246000fd5b9060005260206000200180546114859061504b565b80601f01602080910402602001604051908101604052809291908181526020018280546114b19061504b565b80156114fe5780601f106114d3576101008083540402835291602001916114fe565b820191906000526020600020905b8154815290600101906020018083116114e157829003601f168201915b50505050506130b6565b506115376013876064811061152d57634e487b7160e01b600052603260045260246000fd5b0180546001019055565b8061154181615080565b91505061140d565b506115896001607f878154811061157057634e487b7160e01b600052603260045260246000fd5b90600052602060002001546130a390919063ffffffff16565b607f86815481106115aa57634e487b7160e01b600052603260045260246000fd5b6000918252602090912001555050505050565b6001600160a01b038116331461162d5760405162461bcd60e51b815260206004820152602f60248201527f416363657373436f6e74726f6c3a2063616e206f6e6c792072656e6f756e636560448201526e103937b632b9903337b91039b2b63360891b6064820152608401610d77565b61163782826130cd565b5050565b60008051602061511683398151915261165381612d82565b61165b613134565b50565b6012546001600160a01b03166116aa5760405162461bcd60e51b81526020600482015260116024820152702bb937b7339038bab7ba32903a37b5b2b760791b6044820152606401610d77565b60785442116116cb5760405162461bcd60e51b8152600401610d7790614ecb565b600082116116eb5760405162461bcd60e51b8152600401610d7790614e8a565b6117296080848154811061170f57634e487b7160e01b600052603260045260246000fd5b9060005260206000200154826131c790919063ffffffff16565b82146117775760405162461bcd60e51b815260206004820152601d60248201527f76616c756520616e6420616d6f756e74206973206e6f74206d617463680000006044820152606401610d77565b6012546040516370a0823160e01b81523360048201526000916001600160a01b0316906370a082319060240160206040518083038186803b1580156117bb57600080fd5b505afa1580156117cf573d6000803e3d6000fd5b505050506040513d601f19601f820116820180604052508101906117f39190614b99565b90508281116118445760405162461bcd60e51b815260206004820152601b60248201527f6c61636b206f662071756f746520746f6b656e2062616c616e636500000000006044820152606401610d77565b607f848154811061186557634e487b7160e01b600052603260045260246000fd5b9060005260206000200154607e858154811061189157634e487b7160e01b600052603260045260246000fd5b9060005260206000200154116118b95760405162461bcd60e51b8152600401610d7790614ded565b60835460ff1615611a0d576000805b6082548110156119ea576000608282815481106118f557634e487b7160e01b600052603260045260246000fd5b6000918252602090912001546040516370a0823160e01b81523360048201526001600160a01b03909116906370a082319060240160206040518083038186803b15801561194157600080fd5b505afa158015611955573d6000803e3d6000fd5b505050506040513d601f19601f820116820180604052508101906119799190614b99565b608354909150610100900460ff16156119be57600081116119ac5760405162461bcd60e51b8152600401610d7790614e49565b6119b78360016130a3565b92506119d7565b80156119d7576119cf8360016130a3565b9250506119ea565b50806119e281615080565b9150506118c8565b5060008111611a0b5760405162461bcd60e51b8152600401610d7790614e49565b505b601254611a25906001600160a01b03163330866131d3565b6000805b607e54811015611a745780861015611a6257611a5f607e82815481106113da57634e487b7160e01b600052603260045260246000fd5b91505b80611a6c81615080565b915050611a29565b5060005b83811015611b0657611aa76114416013886064811061143c57634e487b7160e01b600052603260045260246000fd5b9150611acf3383607d898154811061147057634e487b7160e01b600052603260045260246000fd5b50611af46013876064811061152d57634e487b7160e01b600052603260045260246000fd5b80611afe81615080565b915050611a78565b50611b118584613311565b6115896001607f878154811061157057634e487b7160e01b600052603260045260246000fd5b610ead838383604051806020016040528060008152506128e7565b611b5b33611004565b611bc05760405162461bcd60e51b815260206004820152603060248201527f4552433732314275726e61626c653a2063616c6c6572206973206e6f74206f7760448201526f1b995c881b9bdc88185c1c1c9bdd995960821b6064820152608401610d77565b61165b8161345f565b6000611bd460085490565b8210611c375760405162461bcd60e51b815260206004820152602c60248201527f455243373231456e756d657261626c653a20676c6f62616c20696e646578206f60448201526b7574206f6620626f756e647360a01b6064820152608401610d77565b60088281548110611c5857634e487b7160e01b600052603260045260246000fd5b90600052602060002001549050919050565b600080516020615136833981519152611c8281612d82565b60405162461bcd60e51b8152602060048201526008602482015267111a5cd8589b195960c21b6044820152606401610d77565b600b546001600160a01b03610100909104163314611ce55760405162461bcd60e51b8152600401610d7790614e14565b60788190556040518181527f7c8826e4db3679f20c86da0c68d37f9dbcd1d638c56717e014f93c56d14c02d1906020015b60405180910390a150565b607d8181548110611d3157600080fd5b906000526020600020016000915090508054611d4c9061504b565b80601f0160208091040260200160405190810160405280929190818152602001828054611d789061504b565b8015611dc55780601f10611d9a57610100808354040283529160200191611dc5565b820191906000526020600020905b815481529060010190602001808311611da857829003601f168201915b505050505081565b600080805b607e54811015611e5c57611e48611441607f8381548110611e0357634e487b7160e01b600052603260045260246000fd5b9060005260206000200154607e8481548110611e2f57634e487b7160e01b600052603260045260246000fd5b906000526020600020015461346890919063ffffffff16565b915080611e5481615080565b915050611dd2565b50919050565b6000818152600260205260408120546001600160a01b031680610c775760405162461bcd60e51b815260206004820152602960248201527f4552433732313a206f776e657220717565727920666f72206e6f6e657869737460448201526832b73a103a37b5b2b760b91b6064820152608401610d77565b600b546001600160a01b03610100909104163314611f095760405162461bcd60e51b8152600401610d7790614e14565b60798190556040518181527fa7ade4ab976b6643a971383d9822fb7c2fce66aa2e497d88c3b4f1475ea2b2e090602001611d16565b60006001600160a01b038216611fa95760405162461bcd60e51b815260206004820152602a60248201527f4552433732313a2062616c616e636520717565727920666f7220746865207a65604482015269726f206164647265737360b01b6064820152608401610d77565b506001600160a01b031660009081526003602052604090205490565b600b546001600160a01b03610100909104163314611ff55760405162461bcd60e51b8152600401610d7790614e14565b611fff6000613474565b565b600b546001600160a01b036101009091041633146120315760405162461bcd60e51b8152600401610d7790614e14565b600f80546001600160a01b0319166001600160a01b0383161790556120646000805160206151368339815191528261301d565b600f546040516001600160a01b0390911681527f329b1203fc60a62c4a0fd3ff1554a07f92a2f117cc590422dd105811bb484ded90602001611d16565b600b546001600160a01b036101009091041633146120d15760405162461bcd60e51b8152600401610d7790614e14565b6120e96000805160206151168339815191528261301d565b604080516001600160a01b038316815260208101829052600b918101919091526a5041555345525f524f4c4560a81b60608201527f0578acc86b18d67c13a5e6eed8c670fb7052f530b48a2acb167d6ca77509a38490608001611d16565b60008051602061511683398151915261215f81612d82565b61165b6134ce565b6012546001600160a01b0316156121b45760405162461bcd60e51b81526020600482015260116024820152702bb937b7339038bab7ba32903a37b5b2b760791b6044820152606401610d77565b60785442116121d55760405162461bcd60e51b8152600401610d7790614ecb565b600034116121f55760405162461bcd60e51b8152600401610d7790614e8a565b6122196080838154811061170f57634e487b7160e01b600052603260045260246000fd5b34146122675760405162461bcd60e51b815260206004820152601d60248201527f76616c756520616e6420616d6f756e74206973206e6f74206d617463680000006044820152606401610d77565b607f828154811061228857634e487b7160e01b600052603260045260246000fd5b9060005260206000200154607e83815481106122b457634e487b7160e01b600052603260045260246000fd5b9060005260206000200154116122dc5760405162461bcd60e51b8152600401610d7790614ded565b60835460ff1615612430576000805b60825481101561240d5760006082828154811061231857634e487b7160e01b600052603260045260246000fd5b6000918252602090912001546040516370a0823160e01b81523360048201526001600160a01b03909116906370a082319060240160206040518083038186803b15801561236457600080fd5b505afa158015612378573d6000803e3d6000fd5b505050506040513d601f19601f8201168201806040525081019061239c9190614b99565b608354909150610100900460ff16156123e157600081116123cf5760405162461bcd60e51b8152600401610d7790614e49565b6123da8360016130a3565b92506123fa565b80156123fa576123f28360016130a3565b92505061240d565b508061240581615080565b9150506122eb565b506000811161242e5760405162461bcd60e51b8152600401610d7790614e49565b505b6000805b607e5481101561247f578084101561246d5761246a607e82815481106113da57634e487b7160e01b600052603260045260246000fd5b91505b8061247781615080565b915050612434565b5060005b82811015612511576124b26114416013866064811061143c57634e487b7160e01b600052603260045260246000fd5b91506124da3383607d878154811061147057634e487b7160e01b600052603260045260246000fd5b506124ff6013856064811061152d57634e487b7160e01b600052603260045260246000fd5b8061250981615080565b915050612483565b5061251c8383613311565b6125426001607f858154811061157057634e487b7160e01b600052603260045260246000fd5b607f848154811061256357634e487b7160e01b600052603260045260246000fd5b600091825260209091200155505050565b607e818154811061258457600080fd5b600091825260209091200154905081565b600b546001600160a01b036101009091041633146125c55760405162461bcd60e51b8152600401610d7790614e14565b6001600160a01b03831661261b5760405162461bcd60e51b815260206004820152601760248201527f696e76616c6964207061796d656e7420616464726573730000000000000000006044820152606401610d77565b6001600160a01b0382166126715760405162461bcd60e51b815260206004820152601860248201527f696e76616c6964207472656173757279206164647265737300000000000000006044820152606401610d77565b607a80546001600160a01b038581166001600160a01b03199283168117909355607b8054918616919092168117909155607c83905560408051928352602083019190915281018290527fe2be3027f197494650b7a98fd1cae67dacf615bd1d8bb05102999676f11638669060600160405180910390a1505050565b6000918252600c602090815260408084206001600160a01b0393909316845291905290205460ff1690565b606060018054610c8c9061504b565b600b546001600160a01b036101009091041633146127565760405162461bcd60e51b8152600401610d7790614e14565b61276e6000805160206151368339815191528261301d565b604080516001600160a01b038316815260208101829052600b918101919091526a4d494e5445525f524f4c4560a81b60608201527f0578acc86b18d67c13a5e6eed8c670fb7052f530b48a2acb167d6ca77509a38490608001611d16565b611637338383613549565b600b546001600160a01b036101009091041633146128075760405162461bcd60e51b8152600401610d7790614e14565b601280546001600160a01b0319166001600160a01b0383169081179091556040519081527fca92c759228172fe3894a344908fd20dfd37ba561b5af191f1f5b02ee03881fc90602001611d16565b60008051602061513683398151915261286d81612d82565b6001600160a01b0384166128b85760405162461bcd60e51b8152602060048201526012602482015271496e76616c696420746f206164647265737360701b6044820152606401610d77565b60005b828110156128e0576128cd858561294a565b50806128d881615080565b9150506128bb565b5050505050565b6128f13383612d8c565b61290d5760405162461bcd60e51b8152600401610d7790614f02565b61291984848484613618565b50505050565b607f818154811061258457600080fd5b6080818154811061258457600080fd5b6060610c778261364b565b6000600080516020615136833981519152611c8281612d82565b600e8054611d4c9061504b565b6000828152600c602052604090206001015461298c81612d82565b610ead83836130cd565b600b546001600160a01b036101009091041633146129c65760405162461bcd60e51b8152600401610d7790614e14565b8115612a615760005b82811015612a525760828484838181106129f957634e487b7160e01b600052603260045260246000fd5b9050602002016020810190612a0e9190614735565b81546001810183556000928352602090922090910180546001600160a01b0319166001600160a01b0390921691909117905580612a4a81615080565b9150506129cf565b506083805460ff191660011790555b608380549115156101000261ff00199092169190911790555050565b600b546001600160a01b03610100909104163314612aad5760405162461bcd60e51b8152600401610d7790614e14565b6001600160a01b038116612b125760405162461bcd60e51b815260206004820152602660248201527f4f776e61626c653a206e6577206f776e657220697320746865207a65726f206160448201526564647265737360d01b6064820152608401610d77565b61165b81613474565b600080516020615136833981519152612b3381612d82565b60815460ff1615612b865760405162461bcd60e51b815260206004820152601860248201527f4974656d7320616c7265616479207265676973746572656400000000000000006044820152606401610d77565b8251845114612bcf5760405162461bcd60e51b8152602060048201526015602482015274082e4e4c2f240d8cadccee8d040dad2e6dac2e8c6d605b1b6044820152606401610d77565b8251612be290607e9060208601906144ba565b508351612bf690607d9060208701906144f4565b508151612c0a9060809060208501906144ba565b5060005b8451811015612cbe57612c53848281518110612c3a57634e487b7160e01b600052603260045260246000fd5b60200260200101516077546130a390919063ffffffff16565b607755612c7a6013826064811061152d57634e487b7160e01b600052603260045260246000fd5b607f805460018101825560009182527f66925e85f1a4743fd8d60ba595ed74887b7caf321dd83b21e04d77c115383408015580612cb681615080565b915050612c0e565b50506081805460ff19166001179055505050565b60006001600160e01b03198216637965db0b60e01b1480610c775750610c77826137ba565b6000908152600260205260409020546001600160a01b0316151590565b600081815260046020526040902080546001600160a01b0319166001600160a01b0384169081179091558190612d4982611e62565b6001600160a01b03167f8c5be1e5ebec7d5bd14f71427d1e84f3dd0314c0f7b2291e5b200ac8c7c3b92560405160405180910390a45050565b61165b81336137df565b6000612d9782612cf7565b612df85760405162461bcd60e51b815260206004820152602c60248201527f4552433732313a206f70657261746f7220717565727920666f72206e6f6e657860448201526b34b9ba32b73a103a37b5b2b760a11b6064820152608401610d77565b6000612e0383611e62565b9050806001600160a01b0316846001600160a01b03161480612e4a57506001600160a01b0380821660009081526005602090815260408083209388168352929052205460ff165b80612e6e5750836001600160a01b0316612e6384610d0f565b6001600160a01b0316145b949350505050565b826001600160a01b0316612e8982611e62565b6001600160a01b031614612eed5760405162461bcd60e51b815260206004820152602560248201527f4552433732313a207472616e736665722066726f6d20696e636f72726563742060448201526437bbb732b960d91b6064820152608401610d77565b6001600160a01b038216612f4f5760405162461bcd60e51b8152602060048201526024808201527f4552433732313a207472616e7366657220746f20746865207a65726f206164646044820152637265737360e01b6064820152608401610d77565b612f5a838383613843565b612f65600082612d14565b6001600160a01b0383166000908152600360205260408120805460019290612f8e908490614ff1565b90915550506001600160a01b0382166000908152600360205260408120805460019290612fbc908490614fa6565b909155505060008181526002602052604080822080546001600160a01b0319166001600160a01b0386811691821790925591518493918716917fddf252ad1be2c89b69c2b068fc378daa952ba7f163c4a11628f55a4df523b3ef91a4505050565b61302782826126ec565b611637576000828152600c602090815260408083206001600160a01b03851684529091529020805460ff1916600117905561305f3390565b6001600160a01b0316816001600160a01b0316837f2f8788117e7eff1d82e926ec794901d17c78024a50270940304540a733656f0d60405160405180910390a45050565b60006130af8284614fa6565b9392505050565b6000806130c4858585613894565b95945050505050565b6130d782826126ec565b15611637576000828152600c602090815260408083206001600160a01b0385168085529252808320805460ff1916905551339285917ff6391f5c32d9c69d2a47ea670b442974b53935d1edc7fd64eb21e047a839171b9190a45050565b600b5460ff1661317d5760405162461bcd60e51b815260206004820152601460248201527314185d5cd8589b194e881b9bdd081c185d5cd95960621b6044820152606401610d77565b600b805460ff191690557f5db9ee0a495bf2e6ff9c91a7834c1ba4fdd244a5e8aa4e537bd38aeae4b073aa335b6040516001600160a01b03909116815260200160405180910390a1565b60006130af8284614fd2565b604080516001600160a01b0385811660248301528481166044830152606480830185905283518084039091018152608490920183526020820180516001600160e01b03166323b872dd60e01b17905291516000928392908816916132379190614c8b565b6000604051808303816000865af19150503d8060008114613274576040519150601f19603f3d011682016040523d82523d6000602084013e613279565b606091505b50915091508180156132a35750805115806132a35750808060200190518101906132a39190614b0b565b6133095760405162461bcd60e51b815260206004820152603160248201527f5472616e7366657248656c7065723a3a7472616e7366657246726f6d3a207472604482015270185b9cd9995c919c9bdb4819985a5b1959607a1b6064820152608401610d77565b505050505050565b607a546001600160a01b03166133695760405162461bcd60e51b815260206004820152601a60248201527f7061796d656e742061646472657373206973206e6f74207365740000000000006044820152606401610d77565b60006133a96080848154811061338f57634e487b7160e01b600052603260045260246000fd5b9060005260206000200154836131c790919063ffffffff16565b905060006133ce6103e86133c8607c54856131c790919063ffffffff16565b906138b2565b905060006133dc8383613468565b6012549091506001600160a01b03161561343357601254607b5461340f916001600160a01b0390811691309116856131d3565b601254607a5461342e916001600160a01b0390811691309116846131d3565b6128e0565b607b54613449906001600160a01b0316836138be565b607a546128e0906001600160a01b0316826138be565b61165b81613998565b60006130af8284614ff1565b600b80546001600160a01b03838116610100818102610100600160a81b031985161790945560405193909204169182907f8be0079c531659141344cd1fd0a4f28419497f9722a3daafe3b4186f6b6457e090600090a35050565b600b5460ff16156135145760405162461bcd60e51b815260206004820152601060248201526f14185d5cd8589b194e881c185d5cd95960821b6044820152606401610d77565b600b805460ff191660011790557f62e78cea01bee320cd4e420270b5ea74000d11b0c9f74754ebdbfc544b05a2586131aa3390565b816001600160a01b0316836001600160a01b031614156135ab5760405162461bcd60e51b815260206004820152601960248201527f4552433732313a20617070726f766520746f2063616c6c6572000000000000006044820152606401610d77565b6001600160a01b03838116600081815260056020908152604080832094871680845294825291829020805460ff191686151590811790915591519182527f17307eab39ab6107e8899845ad3d59bd9653f200f220920489ca2b5937696c31910160405180910390a3505050565b613623848484612e76565b61362f848484846139d8565b6129195760405162461bcd60e51b8152600401610d7790614d9b565b606061365682612cf7565b6136bc5760405162461bcd60e51b815260206004820152603160248201527f45524337323155524953746f726167653a2055524920717565727920666f72206044820152703737b732bc34b9ba32b73a103a37b5b2b760791b6064820152608401610d77565b6000828152600a6020526040812080546136d59061504b565b80601f01602080910402602001604051908101604052809291908181526020018280546137019061504b565b801561374e5780601f106137235761010080835404028352916020019161374e565b820191906000526020600020905b81548152906001019060200180831161373157829003601f168201915b50505050509050600061376c60408051602081019091526000815290565b905080516000141561377f575092915050565b8151156137b1578082604051602001613799929190614ca7565b60405160208183030381529060405292505050919050565b612e6e84613ae5565b60006001600160e01b0319821663780e9d6360e01b1480610c775750610c7782613bbc565b6137e982826126ec565b61163757613801816001600160a01b03166014613c0c565b61380c836020613c0c565b60405160200161381d929190614cd6565b60408051601f198184030181529082905262461bcd60e51b8252610d7791600401614d88565b600b5460ff16156138895760405162461bcd60e51b815260206004820152601060248201526f14185d5cd8589b194e881c185d5cd95960821b6044820152606401610d77565b610ead838383613ded565b60006138a08484613ea5565b6138aa8383613ebf565b509092915050565b60006130af8284614fbe565b604080516000808252602082019092526001600160a01b0384169083906040516138e89190614c8b565b60006040518083038185875af1925050503d8060008114613925576040519150601f19603f3d011682016040523d82523d6000602084013e61392a565b606091505b5050905080610ead5760405162461bcd60e51b815260206004820152603460248201527f5472616e7366657248656c7065723a3a736166655472616e736665724554483a60448201527308115512081d1c985b9cd9995c8819985a5b195960621b6064820152608401610d77565b6139a181613f4a565b6000818152600a6020526040902080546139ba9061504b565b15905061165b576000818152600a6020526040812061165b9161454d565b60006001600160a01b0384163b15613ada57604051630a85bd0160e11b81526001600160a01b0385169063150b7a0290613a1c903390899088908890600401614d4b565b602060405180830381600087803b158015613a3657600080fd5b505af1925050508015613a66575060408051601f3d908101601f19168201909252613a6391810190614b7d565b60015b613ac0573d808015613a94576040519150601f19603f3d011682016040523d82523d6000602084013e613a99565b606091505b508051613ab85760405162461bcd60e51b8152600401610d7790614d9b565b805181602001fd5b6001600160e01b031916630a85bd0160e11b149050612e6e565b506001949350505050565b6060613af082612cf7565b613b545760405162461bcd60e51b815260206004820152602f60248201527f4552433732314d657461646174613a2055524920717565727920666f72206e6f60448201526e3732bc34b9ba32b73a103a37b5b2b760891b6064820152608401610d77565b6000613b6b60408051602081019091526000815290565b90506000815111613b8b57604051806020016040528060008152506130af565b80613b9584613ff1565b604051602001613ba6929190614ca7565b6040516020818303038152906040529392505050565b60006001600160e01b031982166380ac58cd60e01b1480613bed57506001600160e01b03198216635b5e139f60e01b145b80610c7757506301ffc9a760e01b6001600160e01b0319831614610c77565b60606000613c1b836002614fd2565b613c26906002614fa6565b6001600160401b03811115613c4b57634e487b7160e01b600052604160045260246000fd5b6040519080825280601f01601f191660200182016040528015613c75576020820181803683370190505b509050600360fc1b81600081518110613c9e57634e487b7160e01b600052603260045260246000fd5b60200101906001600160f81b031916908160001a905350600f60fb1b81600181518110613cdb57634e487b7160e01b600052603260045260246000fd5b60200101906001600160f81b031916908160001a9053506000613cff846002614fd2565b613d0a906001614fa6565b90505b6001811115613d9e576f181899199a1a9b1b9c1cb0b131b232b360811b85600f1660108110613d4c57634e487b7160e01b600052603260045260246000fd5b1a60f81b828281518110613d7057634e487b7160e01b600052603260045260246000fd5b60200101906001600160f81b031916908160001a90535060049490941c93613d9781615034565b9050613d0d565b5083156130af5760405162461bcd60e51b815260206004820181905260248201527f537472696e67733a20686578206c656e67746820696e73756666696369656e746044820152606401610d77565b6001600160a01b038316613e4857613e4381600880546000838152600960205260408120829055600182018355919091527ff3f7a9fe364faab93b216da50a3214154f22a0a2b415b23a84c8169e8b636ee30155565b613e6b565b816001600160a01b0316836001600160a01b031614613e6b57613e6b838261410a565b6001600160a01b038216613e8257610ead816141a7565b826001600160a01b0316826001600160a01b031614610ead57610ead8282614280565b6116378282604051806020016040528060008152506142c4565b613ec882612cf7565b613f2b5760405162461bcd60e51b815260206004820152602e60248201527f45524337323155524953746f726167653a2055524920736574206f66206e6f6e60448201526d32bc34b9ba32b73a103a37b5b2b760911b6064820152608401610d77565b6000828152600a602090815260409091208251610ead92840190614436565b6000613f5582611e62565b9050613f6381600084613843565b613f6e600083612d14565b6001600160a01b0381166000908152600360205260408120805460019290613f97908490614ff1565b909155505060008281526002602052604080822080546001600160a01b0319169055518391906001600160a01b038416907fddf252ad1be2c89b69c2b068fc378daa952ba7f163c4a11628f55a4df523b3ef908390a45050565b6060816140155750506040805180820190915260018152600360fc1b602082015290565b8160005b811561403f578061402981615080565b91506140389050600a83614fbe565b9150614019565b6000816001600160401b0381111561406757634e487b7160e01b600052604160045260246000fd5b6040519080825280601f01601f191660200182016040528015614091576020820181803683370190505b5090505b8415612e6e576140a6600183614ff1565b91506140b3600a8661509b565b6140be906030614fa6565b60f81b8183815181106140e157634e487b7160e01b600052603260045260246000fd5b60200101906001600160f81b031916908160001a905350614103600a86614fbe565b9450614095565b6000600161411784611f3e565b6141219190614ff1565b600083815260076020526040902054909150808214614174576001600160a01b03841660009081526006602090815260408083208584528252808320548484528184208190558352600790915290208190555b5060009182526007602090815260408084208490556001600160a01b039094168352600681528383209183525290812055565b6008546000906141b990600190614ff1565b600083815260096020526040812054600880549394509092849081106141ef57634e487b7160e01b600052603260045260246000fd5b90600052602060002001549050806008838154811061421e57634e487b7160e01b600052603260045260246000fd5b600091825260208083209091019290925582815260099091526040808220849055858252812055600880548061426457634e487b7160e01b600052603160045260246000fd5b6001900381819060005260206000200160009055905550505050565b600061428b83611f3e565b6001600160a01b039093166000908152600660209081526040808320868452825280832085905593825260079052919091209190915550565b6142ce83836142f7565b6142db60008484846139d8565b610ead5760405162461bcd60e51b8152600401610d7790614d9b565b6001600160a01b03821661434d5760405162461bcd60e51b815260206004820181905260248201527f4552433732313a206d696e7420746f20746865207a65726f20616464726573736044820152606401610d77565b61435681612cf7565b156143a35760405162461bcd60e51b815260206004820152601c60248201527f4552433732313a20746f6b656e20616c7265616479206d696e746564000000006044820152606401610d77565b6143af60008383613843565b6001600160a01b03821660009081526003602052604081208054600192906143d8908490614fa6565b909155505060008181526002602052604080822080546001600160a01b0319166001600160a01b03861690811790915590518392907fddf252ad1be2c89b69c2b068fc378daa952ba7f163c4a11628f55a4df523b3ef908290a45050565b8280546144429061504b565b90600052602060002090601f01602090048101928261446457600085556144aa565b82601f1061447d57805160ff19168380011785556144aa565b828001600101855582156144aa579182015b828111156144aa57825182559160200191906001019061448f565b506144b6929150614583565b5090565b8280548282559060005260206000209081019282156144aa57916020028201828111156144aa57825182559160200191906001019061448f565b828054828255906000526020600020908101928215614541579160200282015b828111156145415782518051614531918491602090910190614436565b5091602001919060010190614514565b506144b6929150614598565b5080546145599061504b565b6000825580601f10614569575050565b601f01602090049060005260206000209081019061165b91905b5b808211156144b65760008155600101614584565b808211156144b65760006145ac828261454d565b50600101614598565b60006001600160401b038311156145ce576145ce6150db565b6145e1601f8401601f1916602001614f53565b90508281528383830111156145f557600080fd5b828260208301376000602084830101529392505050565b80356001600160a01b038116811461462357600080fd5b919050565b600082601f830112614638578081fd5b8135602061464d61464883614f83565b614f53565b80838252828201915082860187848660051b890101111561466c578586fd5b855b858110156146ac5781356001600160401b0381111561468b578788fd5b6146998a87838c0101614716565b855250928401929084019060010161466e565b5090979650505050505050565b600082601f8301126146c9578081fd5b813560206146d961464883614f83565b80838252828201915082860187848660051b89010111156146f8578586fd5b855b858110156146ac578135845292840192908401906001016146fa565b600082601f830112614726578081fd5b6130af838335602085016145b5565b600060208284031215614746578081fd5b6130af8261460c565b60008060408385031215614761578081fd5b61476a8361460c565b91506147786020840161460c565b90509250929050565b600080600060608486031215614795578081fd5b61479e8461460c565b92506147ac6020850161460c565b9150604084013590509250925092565b6000806000806000608086880312156147d3578081fd5b6147dc8661460c565b94506147ea6020870161460c565b93506040860135925060608601356001600160401b038082111561480c578283fd5b818801915088601f83011261481f578283fd5b81358181111561482d578384fd5b89602082850101111561483e578384fd5b9699959850939650602001949392505050565b60008060008060808587031215614866578384fd5b61486f8561460c565b935061487d6020860161460c565b92506040850135915060608501356001600160401b0381111561489e578182fd5b8501601f810187136148ae578182fd5b6148bd878235602084016145b5565b91505092959194509250565b600080604083850312156148db578081fd5b6148e48361460c565b915060208301356001600160401b038111156148fe578182fd5b61490a85828601614628565b9150509250929050565b60008060408385031215614926578182fd5b61492f8361460c565b9150602083013561493f816150f1565b809150509250929050565b6000806040838503121561495c578182fd5b6149658361460c565b915060208301356001600160401b0381111561497f578182fd5b61490a85828601614716565b60008060006060848603121561499f578081fd5b6149a88461460c565b925060208401356001600160401b038111156149c2578182fd5b6149ce86828701614716565b925050604084013590509250925092565b600080604083850312156149f1578182fd5b6149fa8361460c565b946020939093013593505050565b600080600060408486031215614a1c578081fd5b83356001600160401b0380821115614a32578283fd5b818601915086601f830112614a45578283fd5b813581811115614a53578384fd5b8760208260051b8501011115614a67578384fd5b60209283019550935050840135614a7d816150f1565b809150509250925092565b600080600060608486031215614a9c578081fd5b83356001600160401b0380821115614ab2578283fd5b614abe87838801614628565b94506020860135915080821115614ad3578283fd5b614adf878388016146b9565b93506040860135915080821115614af4578283fd5b50614b01868287016146b9565b9150509250925092565b600060208284031215614b1c578081fd5b81516130af816150f1565b600060208284031215614b38578081fd5b5035919050565b60008060408385031215614b51578182fd5b823591506147786020840161460c565b600060208284031215614b72578081fd5b81356130af816150ff565b600060208284031215614b8e578081fd5b81516130af816150ff565b600060208284031215614baa578081fd5b5051919050565b60008060408385031215614bc3578182fd5b8235915060208301356001600160401b0381111561497f578182fd5b60008060408385031215614bf1578182fd5b50508035926020909101359150565b600080600060608486031215614c14578081fd5b8335925060208401359150614c2b6040850161460c565b90509250925092565b600080600060608486031215614c48578081fd5b505081359360208301359350604090920135919050565b60008151808452614c77816020860160208601615008565b601f01601f19169290920160200192915050565b60008251614c9d818460208701615008565b9190910192915050565b60008351614cb9818460208801615008565b835190830190614ccd818360208801615008565b01949350505050565b7f416363657373436f6e74726f6c3a206163636f756e7420000000000000000000815260008351614d0e816017850160208801615008565b7001034b99036b4b9b9b4b733903937b6329607d1b6017918401918201528351614d3f816028840160208801615008565b01602801949350505050565b6001600160a01b0385811682528416602082015260408101839052608060608201819052600090614d7e90830184614c5f565b9695505050505050565b6020815260006130af6020830184614c5f565b60208082526032908201527f4552433732313a207472616e7366657220746f206e6f6e20455243373231526560408201527131b2b4bb32b91034b6b83632b6b2b73a32b960711b606082015260800190565b6020808252600d908201526c1a5d195b481cdbdb19081bdd5d609a1b604082015260600190565b6020808252818101527f4f776e61626c653a2063616c6c6572206973206e6f7420746865206f776e6572604082015260600190565b60208082526021908201527f73686f756c642062757920616c6c20636f6c6c656374696f6e73206265666f726040820152606560f81b606082015260800190565b60208082526021908201527f76616c75652073686f756c642062652067726561746572207468616e207a65726040820152606f60f81b606082015260800190565b6020808252601b908201527f4e6f7420796574206c61756e63682074696d6520726561636865640000000000604082015260600190565b60208082526031908201527f4552433732313a207472616e736665722063616c6c6572206973206e6f74206f6040820152701ddb995c881b9bdc88185c1c1c9bdd9959607a1b606082015260800190565b604051601f8201601f191681016001600160401b0381118282101715614f7b57614f7b6150db565b604052919050565b60006001600160401b03821115614f9c57614f9c6150db565b5060051b60200190565b60008219821115614fb957614fb96150af565b500190565b600082614fcd57614fcd6150c5565b500490565b6000816000190483118215151615614fec57614fec6150af565b500290565b600082821015615003576150036150af565b500390565b60005b8381101561502357818101518382015260200161500b565b838111156129195750506000910152565b600081615043576150436150af565b506000190190565b600181811c9082168061505f57607f821691505b60208210811415611e5c57634e487b7160e01b600052602260045260246000fd5b6000600019821415615094576150946150af565b5060010190565b6000826150aa576150aa6150c5565b500690565b634e487b7160e01b600052601160045260246000fd5b634e487b7160e01b600052601260045260246000fd5b634e487b7160e01b600052604160045260246000fd5b801515811461165b57600080fd5b6001600160e01b03198116811461165b57600080fdfe65d7a28e3265b37a6474929f336521b332c1681b933f6cb9f3376673440d862a9f2df0fed2c77648de5860a4cc508cd0818c85b8b8a1ab4ceeef8d981c8956a6a2646970667358221220d4d82b5b5710f026f778286e95c26eb79d39893e151416f48092181206e4217164736f6c634300080400334f776e61626c653a2063616c6c6572206973206e6f7420746865206f776e657265d7a28e3265b37a6474929f336521b332c1681b933f6cb9f3376673440d862a9f2df0fed2c77648de5860a4cc508cd0818c85b8b8a1ab4ceeef8d981c8956a6",
  "linkReferences": {},
  "deployedLinkReferences": {}
}