{
  "_format": "hh-sol-artifact-1",
  "contractName": "Collection",
  "sourceName": "contracts/Collection.sol",
  "abi": [
    {
      "inputs": [
        {
          "internalType": "string",
          "name": "name",
          "type": "string"
        },
        {
          "internalType": "string",
          "name": "symbol",
          "type": "string"
        },
        {
          "internalType": "address",
          "name": "_quote",
          "type": "address"
        },
        {
          "internalType": "address",
          "name": "_payment",
          "type": "address"
        },
        {
          "internalType": "address",
          "name": "_treasury",
          "type": "address"
        },
        {
          "internalType": "uint256[]",
          "name": "configValues",
          "type": "uint256[]"
        }
      ],
      "stateMutability": "nonpayable",
      "type": "constructor"
    },
    {
      "anonymous": false,
      "inputs": [
        {
          "indexed": true,
          "internalType": "address",
          "name": "owner",
          "type": "address"
        },
        {
          "indexed": true,
          "internalType": "address",
          "name": "approved",
          "type": "address"
        },
        {
          "indexed": true,
          "internalType": "uint256",
          "name": "tokenId",
          "type": "uint256"
        }
      ],
      "name": "Approval",
      "type": "event"
    },
    {
      "anonymous": false,
      "inputs": [
        {
          "indexed": true,
          "internalType": "address",
          "name": "owner",
          "type": "address"
        },
        {
          "indexed": true,
          "internalType": "address",
          "name": "operator",
          "type": "address"
        },
        {
          "indexed": false,
          "internalType": "bool",
          "name": "approved",
          "type": "bool"
        }
      ],
      "name": "ApprovalForAll",
      "type": "event"
    },
    {
      "anonymous": false,
      "inputs": [
        {
          "indexed": false,
          "internalType": "address",
          "name": "",
          "type": "address"
        },
        {
          "indexed": false,
          "internalType": "string",
          "name": "",
          "type": "string"
        }
      ],
      "name": "Grant",
      "type": "event"
    },
    {
      "anonymous": false,
      "inputs": [
        {
          "indexed": true,
          "internalType": "address",
          "name": "previousOwner",
          "type": "address"
        },
        {
          "indexed": true,
          "internalType": "address",
          "name": "newOwner",
          "type": "address"
        }
      ],
      "name": "OwnershipTransferred",
      "type": "event"
    },
    {
      "anonymous": false,
      "inputs": [
        {
          "indexed": false,
          "internalType": "address",
          "name": "account",
          "type": "address"
        }
      ],
      "name": "Paused",
      "type": "event"
    },
    {
      "anonymous": false,
      "inputs": [
        {
          "indexed": true,
          "internalType": "bytes32",
          "name": "role",
          "type": "bytes32"
        },
        {
          "indexed": true,
          "internalType": "bytes32",
          "name": "previousAdminRole",
          "type": "bytes32"
        },
        {
          "indexed": true,
          "internalType": "bytes32",
          "name": "newAdminRole",
          "type": "bytes32"
        }
      ],
      "name": "RoleAdminChanged",
      "type": "event"
    },
    {
      "anonymous": false,
      "inputs": [
        {
          "indexed": true,
          "internalType": "bytes32",
          "name": "role",
          "type": "bytes32"
        },
        {
          "indexed": true,
          "internalType": "address",
          "name": "account",
          "type": "address"
        },
        {
          "indexed": true,
          "internalType": "address",
          "name": "sender",
          "type": "address"
        }
      ],
      "name": "RoleGranted",
      "type": "event"
    },
    {
      "anonymous": false,
      "inputs": [
        {
          "indexed": true,
          "internalType": "bytes32",
          "name": "role",
          "type": "bytes32"
        },
        {
          "indexed": true,
          "internalType": "address",
          "name": "account",
          "type": "address"
        },
        {
          "indexed": true,
          "internalType": "address",
          "name": "sender",
          "type": "address"
        }
      ],
      "name": "RoleRevoked",
      "type": "event"
    },
    {
      "anonymous": false,
      "inputs": [
        {
          "indexed": false,
          "internalType": "address",
          "name": "",
          "type": "address"
        },
        {
          "indexed": false,
          "internalType": "address",
          "name": "",
          "type": "address"
        },
        {
          "indexed": false,
          "internalType": "uint256",
          "name": "",
          "type": "uint256"
        }
      ],
      "name": "SetConfig",
      "type": "event"
    },
    {
      "anonymous": false,
      "inputs": [
        {
          "indexed": false,
          "internalType": "uint256",
          "name": "",
          "type": "uint256"
        }
      ],
      "name": "SetHardCap",
      "type": "event"
    },
    {
      "anonymous": false,
      "inputs": [
        {
          "indexed": false,
          "internalType": "uint256",
          "name": "",
          "type": "uint256"
        }
      ],
      "name": "SetLaunch",
      "type": "event"
    },
    {
      "anonymous": false,
      "inputs": [
        {
          "indexed": false,
          "internalType": "uint256",
          "name": "",
          "type": "uint256"
        }
      ],
      "name": "SetLockup",
      "type": "event"
    },
    {
      "anonymous": false,
      "inputs": [
        {
          "indexed": false,
          "internalType": "address",
          "name": "",
          "type": "address"
        }
      ],
      "name": "SetMysteryBox",
      "type": "event"
    },
    {
      "anonymous": false,
      "inputs": [
        {
          "indexed": false,
          "internalType": "address",
          "name": "",
          "type": "address"
        }
      ],
      "name": "SetQuote",
      "type": "event"
    },
    {
      "anonymous": false,
      "inputs": [
        {
          "indexed": true,
          "internalType": "address",
          "name": "from",
          "type": "address"
        },
        {
          "indexed": true,
          "internalType": "address",
          "name": "to",
          "type": "address"
        },
        {
          "indexed": true,
          "internalType": "uint256",
          "name": "tokenId",
          "type": "uint256"
        }
      ],
      "name": "Transfer",
      "type": "event"
    },
    {
      "anonymous": false,
      "inputs": [
        {
          "indexed": false,
          "internalType": "address",
          "name": "account",
          "type": "address"
        }
      ],
      "name": "Unpaused",
      "type": "event"
    },
    {
      "inputs": [],
      "name": "DEFAULT_ADMIN_ROLE",
      "outputs": [
        {
          "internalType": "bytes32",
          "name": "",
          "type": "bytes32"
        }
      ],
      "stateMutability": "view",
      "type": "function"
    },
    {
      "inputs": [],
      "name": "MINTER_ROLE",
      "outputs": [
        {
          "internalType": "bytes32",
          "name": "",
          "type": "bytes32"
        }
      ],
      "stateMutability": "view",
      "type": "function"
    },
    {
      "inputs": [],
      "name": "PAUSER_ROLE",
      "outputs": [
        {
          "internalType": "bytes32",
          "name": "",
          "type": "bytes32"
        }
      ],
      "stateMutability": "view",
      "type": "function"
    },
    {
      "inputs": [
        {
          "internalType": "address",
          "name": "minter",
          "type": "address"
        }
      ],
      "name": "addMinter",
      "outputs": [],
      "stateMutability": "nonpayable",
      "type": "function"
    },
    {
      "inputs": [
        {
          "internalType": "address",
          "name": "pauser",
          "type": "address"
        }
      ],
      "name": "addPauser",
      "outputs": [],
      "stateMutability": "nonpayable",
      "type": "function"
    },
    {
      "inputs": [
        {
          "internalType": "address",
          "name": "to",
          "type": "address"
        },
        {
          "internalType": "uint256",
          "name": "tokenId",
          "type": "uint256"
        }
      ],
      "name": "approve",
      "outputs": [],
      "stateMutability": "nonpayable",
      "type": "function"
    },
    {
      "inputs": [
        {
          "internalType": "address",
          "name": "owner",
          "type": "address"
        }
      ],
      "name": "balanceOf",
      "outputs": [
        {
          "internalType": "uint256",
          "name": "",
          "type": "uint256"
        }
      ],
      "stateMutability": "view",
      "type": "function"
    },
    {
      "inputs": [
        {
          "internalType": "uint256",
          "name": "tokenId",
          "type": "uint256"
        }
      ],
      "name": "burn",
      "outputs": [],
      "stateMutability": "nonpayable",
      "type": "function"
    },
    {
      "inputs": [
        {
          "internalType": "uint256",
          "name": "_itemIx",
          "type": "uint256"
        },
        {
          "internalType": "uint256",
          "name": "_amount",
          "type": "uint256"
        },
        {
          "internalType": "address",
          "name": "to",
          "type": "address"
        }
      ],
      "name": "buyItemCredit",
      "outputs": [],
      "stateMutability": "nonpayable",
      "type": "function"
    },
    {
      "inputs": [
        {
          "internalType": "uint256",
          "name": "_itemIx",
          "type": "uint256"
        },
        {
          "internalType": "uint256",
          "name": "_amount",
          "type": "uint256"
        }
      ],
      "name": "buyItemEth",
      "outputs": [],
      "stateMutability": "payable",
      "type": "function"
    },
    {
      "inputs": [
        {
          "internalType": "uint256",
          "name": "_itemIx",
          "type": "uint256"
        },
        {
          "internalType": "uint256",
          "name": "_payment",
          "type": "uint256"
        },
        {
          "internalType": "uint256",
          "name": "_amount",
          "type": "uint256"
        }
      ],
      "name": "buyItemQuote",
      "outputs": [],
      "stateMutability": "nonpayable",
      "type": "function"
    },
    {
      "inputs": [],
      "name": "feeRate",
      "outputs": [
        {
          "internalType": "uint256",
          "name": "",
          "type": "uint256"
        }
      ],
      "stateMutability": "view",
      "type": "function"
    },
    {
      "inputs": [
        {
          "internalType": "uint256",
          "name": "tokenId",
          "type": "uint256"
        }
      ],
      "name": "getApproved",
      "outputs": [
        {
          "internalType": "address",
          "name": "",
          "type": "address"
        }
      ],
      "stateMutability": "view",
      "type": "function"
    },
    {
      "inputs": [],
      "name": "getItemRemains",
      "outputs": [
        {
          "internalType": "uint256",
          "name": "",
          "type": "uint256"
        }
      ],
      "stateMutability": "view",
      "type": "function"
    },
    {
      "inputs": [
        {
          "internalType": "bytes32",
          "name": "role",
          "type": "bytes32"
        }
      ],
      "name": "getRoleAdmin",
      "outputs": [
        {
          "internalType": "bytes32",
          "name": "",
          "type": "bytes32"
        }
      ],
      "stateMutability": "view",
      "type": "function"
    },
    {
      "inputs": [],
      "name": "globalURI",
      "outputs": [
        {
          "internalType": "string",
          "name": "",
          "type": "string"
        }
      ],
      "stateMutability": "view",
      "type": "function"
    },
    {
      "inputs": [
        {
          "internalType": "bytes32",
          "name": "role",
          "type": "bytes32"
        },
        {
          "internalType": "address",
          "name": "account",
          "type": "address"
        }
      ],
      "name": "grantRole",
      "outputs": [],
      "stateMutability": "nonpayable",
      "type": "function"
    },
    {
      "inputs": [],
      "name": "hardCap",
      "outputs": [
        {
          "internalType": "uint256",
          "name": "",
          "type": "uint256"
        }
      ],
      "stateMutability": "view",
      "type": "function"
    },
    {
      "inputs": [
        {
          "internalType": "bytes32",
          "name": "role",
          "type": "bytes32"
        },
        {
          "internalType": "address",
          "name": "account",
          "type": "address"
        }
      ],
      "name": "hasRole",
      "outputs": [
        {
          "internalType": "bool",
          "name": "",
          "type": "bool"
        }
      ],
      "stateMutability": "view",
      "type": "function"
    },
    {
      "inputs": [
        {
          "internalType": "address",
          "name": "owner",
          "type": "address"
        },
        {
          "internalType": "address",
          "name": "operator",
          "type": "address"
        }
      ],
      "name": "isApprovedForAll",
      "outputs": [
        {
          "internalType": "bool",
          "name": "",
          "type": "bool"
        }
      ],
      "stateMutability": "view",
      "type": "function"
    },
    {
      "inputs": [
        {
          "internalType": "uint256",
          "name": "",
          "type": "uint256"
        }
      ],
      "name": "itemAmounts",
      "outputs": [
        {
          "internalType": "uint256",
          "name": "",
          "type": "uint256"
        }
      ],
      "stateMutability": "view",
      "type": "function"
    },
    {
      "inputs": [
        {
          "internalType": "uint256",
          "name": "",
          "type": "uint256"
        }
      ],
      "name": "itemPrices",
      "outputs": [
        {
          "internalType": "uint256",
          "name": "",
          "type": "uint256"
        }
      ],
      "stateMutability": "view",
      "type": "function"
    },
    {
      "inputs": [
        {
          "internalType": "uint256",
          "name": "",
          "type": "uint256"
        }
      ],
      "name": "itemSolds",
      "outputs": [
        {
          "internalType": "uint256",
          "name": "",
          "type": "uint256"
        }
      ],
      "stateMutability": "view",
      "type": "function"
    },
    {
      "inputs": [
        {
          "internalType": "uint256",
          "name": "",
          "type": "uint256"
        }
      ],
      "name": "itemURIs",
      "outputs": [
        {
          "internalType": "string",
          "name": "",
          "type": "string"
        }
      ],
      "stateMutability": "view",
      "type": "function"
    },
    {
      "inputs": [],
      "name": "launch",
      "outputs": [
        {
          "internalType": "uint256",
          "name": "",
          "type": "uint256"
        }
      ],
      "stateMutability": "view",
      "type": "function"
    },
    {
      "inputs": [],
      "name": "lockup",
      "outputs": [
        {
          "internalType": "uint256",
          "name": "",
          "type": "uint256"
        }
      ],
      "stateMutability": "view",
      "type": "function"
    },
    {
      "inputs": [],
      "name": "mysteryBox",
      "outputs": [
        {
          "internalType": "address",
          "name": "",
          "type": "address"
        }
      ],
      "stateMutability": "view",
      "type": "function"
    },
    {
      "inputs": [],
      "name": "name",
      "outputs": [
        {
          "internalType": "string",
          "name": "",
          "type": "string"
        }
      ],
      "stateMutability": "view",
      "type": "function"
    },
    {
      "inputs": [
        {
          "internalType": "address",
          "name": "operator",
          "type": "address"
        },
        {
          "internalType": "address",
          "name": "from",
          "type": "address"
        },
        {
          "internalType": "uint256",
          "name": "tokenId",
          "type": "uint256"
        },
        {
          "internalType": "bytes",
          "name": "data",
          "type": "bytes"
        }
      ],
      "name": "onERC721Received",
      "outputs": [
        {
          "internalType": "bytes4",
          "name": "",
          "type": "bytes4"
        }
      ],
      "stateMutability": "pure",
      "type": "function"
    },
    {
      "inputs": [],
      "name": "owner",
      "outputs": [
        {
          "internalType": "address",
          "name": "",
          "type": "address"
        }
      ],
      "stateMutability": "view",
      "type": "function"
    },
    {
      "inputs": [
        {
          "internalType": "uint256",
          "name": "tokenId",
          "type": "uint256"
        }
      ],
      "name": "ownerOf",
      "outputs": [
        {
          "internalType": "address",
          "name": "",
          "type": "address"
        }
      ],
      "stateMutability": "view",
      "type": "function"
    },
    {
      "inputs": [],
      "name": "pause",
      "outputs": [],
      "stateMutability": "nonpayable",
      "type": "function"
    },
    {
      "inputs": [],
      "name": "paused",
      "outputs": [
        {
          "internalType": "bool",
          "name": "",
          "type": "bool"
        }
      ],
      "stateMutability": "view",
      "type": "function"
    },
    {
      "inputs": [],
      "name": "payment",
      "outputs": [
        {
          "internalType": "address",
          "name": "",
          "type": "address"
        }
      ],
      "stateMutability": "view",
      "type": "function"
    },
    {
      "inputs": [],
      "name": "quote",
      "outputs": [
        {
          "internalType": "address",
          "name": "",
          "type": "address"
        }
      ],
      "stateMutability": "view",
      "type": "function"
    },
    {
      "inputs": [
        {
          "internalType": "string[]",
          "name": "uris",
          "type": "string[]"
        },
        {
          "internalType": "uint256[]",
          "name": "amounts",
          "type": "uint256[]"
        },
        {
          "internalType": "uint256[]",
          "name": "prices",
          "type": "uint256[]"
        }
      ],
      "name": "registerItems",
      "outputs": [],
      "stateMutability": "nonpayable",
      "type": "function"
    },
    {
      "inputs": [],
      "name": "renounceOwnership",
      "outputs": [],
      "stateMutability": "nonpayable",
      "type": "function"
    },
    {
      "inputs": [
        {
          "internalType": "bytes32",
          "name": "role",
          "type": "bytes32"
        },
        {
          "internalType": "address",
          "name": "account",
          "type": "address"
        }
      ],
      "name": "renounceRole",
      "outputs": [],
      "stateMutability": "nonpayable",
      "type": "function"
    },
    {
      "inputs": [
        {
          "internalType": "bytes32",
          "name": "role",
          "type": "bytes32"
        },
        {
          "internalType": "address",
          "name": "account",
          "type": "address"
        }
      ],
      "name": "revokeRole",
      "outputs": [],
      "stateMutability": "nonpayable",
      "type": "function"
    },
    {
      "inputs": [
        {
          "internalType": "address",
          "name": "to",
          "type": "address"
        },
        {
          "internalType": "string[]",
          "name": "uris",
          "type": "string[]"
        }
      ],
      "name": "safeBatchMint",
      "outputs": [],
      "stateMutability": "view",
      "type": "function"
    },
    {
      "inputs": [
        {
          "internalType": "address",
          "name": "to",
          "type": "address"
        },
        {
          "internalType": "string",
          "name": "uri",
          "type": "string"
        },
        {
          "internalType": "uint256",
          "name": "amount",
          "type": "uint256"
        }
      ],
      "name": "safeBatchMintLight",
      "outputs": [],
      "stateMutability": "nonpayable",
      "type": "function"
    },
    {
      "inputs": [
        {
          "internalType": "address",
          "name": "to",
          "type": "address"
        },
        {
          "internalType": "string",
          "name": "uri",
          "type": "string"
        }
      ],
      "name": "safeMint",
      "outputs": [
        {
          "internalType": "uint256",
          "name": "",
          "type": "uint256"
        }
      ],
      "stateMutability": "view",
      "type": "function"
    },
    {
      "inputs": [
        {
          "internalType": "address",
          "name": "to",
          "type": "address"
        }
      ],
      "name": "safeMintTo",
      "outputs": [],
      "stateMutability": "nonpayable",
      "type": "function"
    },
    {
      "inputs": [
        {
          "internalType": "address",
          "name": "from",
          "type": "address"
        },
        {
          "internalType": "address",
          "name": "to",
          "type": "address"
        },
        {
          "internalType": "uint256",
          "name": "tokenId",
          "type": "uint256"
        }
      ],
      "name": "safeTransferFrom",
      "outputs": [],
      "stateMutability": "nonpayable",
      "type": "function"
    },
    {
      "inputs": [
        {
          "internalType": "address",
          "name": "from",
          "type": "address"
        },
        {
          "internalType": "address",
          "name": "to",
          "type": "address"
        },
        {
          "internalType": "uint256",
          "name": "tokenId",
          "type": "uint256"
        },
        {
          "internalType": "bytes",
          "name": "_data",
          "type": "bytes"
        }
      ],
      "name": "safeTransferFrom",
      "outputs": [],
      "stateMutability": "nonpayable",
      "type": "function"
    },
    {
      "inputs": [
        {
          "internalType": "address",
          "name": "operator",
          "type": "address"
        },
        {
          "internalType": "bool",
          "name": "approved",
          "type": "bool"
        }
      ],
      "name": "setApprovalForAll",
      "outputs": [],
      "stateMutability": "nonpayable",
      "type": "function"
    },
    {
      "inputs": [
        {
          "internalType": "address",
          "name": "_payment",
          "type": "address"
        },
        {
          "internalType": "address",
          "name": "_treasury",
          "type": "address"
        },
        {
          "internalType": "uint256",
          "name": "_feeRate",
          "type": "uint256"
        }
      ],
      "name": "setConfig",
      "outputs": [],
      "stateMutability": "nonpayable",
      "type": "function"
    },
    {
      "inputs": [
        {
          "internalType": "uint256",
          "name": "_hardCap",
          "type": "uint256"
        },
        {
          "internalType": "string",
          "name": "_uri",
          "type": "string"
        }
      ],
      "name": "setHardCap",
      "outputs": [],
      "stateMutability": "nonpayable",
      "type": "function"
    },
    {
      "inputs": [
        {
          "internalType": "uint256",
          "name": "_launch",
          "type": "uint256"
        }
      ],
      "name": "setLaunch",
      "outputs": [],
      "stateMutability": "nonpayable",
      "type": "function"
    },
    {
      "inputs": [
        {
          "internalType": "uint256",
          "name": "_lockup",
          "type": "uint256"
        }
      ],
      "name": "setLockup",
      "outputs": [],
      "stateMutability": "nonpayable",
      "type": "function"
    },
    {
      "inputs": [
        {
          "internalType": "address",
          "name": "_mbox",
          "type": "address"
        }
      ],
      "name": "setMysteryBox",
      "outputs": [],
      "stateMutability": "nonpayable",
      "type": "function"
    },
    {
      "inputs": [
        {
          "internalType": "address",
          "name": "_quote",
          "type": "address"
        }
      ],
      "name": "setQuote",
      "outputs": [],
      "stateMutability": "nonpayable",
      "type": "function"
    },
    {
      "inputs": [
        {
          "internalType": "bytes4",
          "name": "interfaceId",
          "type": "bytes4"
        }
      ],
      "name": "supportsInterface",
      "outputs": [
        {
          "internalType": "bool",
          "name": "",
          "type": "bool"
        }
      ],
      "stateMutability": "view",
      "type": "function"
    },
    {
      "inputs": [],
      "name": "symbol",
      "outputs": [
        {
          "internalType": "string",
          "name": "",
          "type": "string"
        }
      ],
      "stateMutability": "view",
      "type": "function"
    },
    {
      "inputs": [
        {
          "internalType": "uint256",
          "name": "index",
          "type": "uint256"
        }
      ],
      "name": "tokenByIndex",
      "outputs": [
        {
          "internalType": "uint256",
          "name": "",
          "type": "uint256"
        }
      ],
      "stateMutability": "view",
      "type": "function"
    },
    {
      "inputs": [
        {
          "internalType": "address",
          "name": "owner",
          "type": "address"
        },
        {
          "internalType": "uint256",
          "name": "index",
          "type": "uint256"
        }
      ],
      "name": "tokenOfOwnerByIndex",
      "outputs": [
        {
          "internalType": "uint256",
          "name": "",
          "type": "uint256"
        }
      ],
      "stateMutability": "view",
      "type": "function"
    },
    {
      "inputs": [
        {
          "internalType": "uint256",
          "name": "tokenId",
          "type": "uint256"
        }
      ],
      "name": "tokenURI",
      "outputs": [
        {
          "internalType": "string",
          "name": "",
          "type": "string"
        }
      ],
      "stateMutability": "view",
      "type": "function"
    },
    {
      "inputs": [],
      "name": "totalItems",
      "outputs": [
        {
          "internalType": "uint256",
          "name": "",
          "type": "uint256"
        }
      ],
      "stateMutability": "view",
      "type": "function"
    },
    {
      "inputs": [],
      "name": "totalSupply",
      "outputs": [
        {
          "internalType": "uint256",
          "name": "",
          "type": "uint256"
        }
      ],
      "stateMutability": "view",
      "type": "function"
    },
    {
      "inputs": [
        {
          "internalType": "address",
          "name": "from",
          "type": "address"
        },
        {
          "internalType": "address",
          "name": "to",
          "type": "address"
        },
        {
          "internalType": "uint256",
          "name": "tokenId",
          "type": "uint256"
        }
      ],
      "name": "transferFrom",
      "outputs": [],
      "stateMutability": "nonpayable",
      "type": "function"
    },
    {
      "inputs": [
        {
          "internalType": "address",
          "name": "newOwner",
          "type": "address"
        }
      ],
      "name": "transferOwnership",
      "outputs": [],
      "stateMutability": "nonpayable",
      "type": "function"
    },
    {
      "inputs": [],
      "name": "treasury",
      "outputs": [
        {
          "internalType": "address",
          "name": "",
          "type": "address"
        }
      ],
      "stateMutability": "view",
      "type": "function"
    },
    {
      "inputs": [],
      "name": "unpause",
      "outputs": [],
      "stateMutability": "nonpayable",
      "type": "function"
    },
    {
      "stateMutability": "payable",
      "type": "receive"
    }
  ],
  "bytecode": "0x60806040526000600d819055601280546001600160a01b03191690556077556032607c556081805460ff191690553480156200003a57600080fd5b5060405162005517380380620055178339810160408190526200005d91620007d5565b8585818181600090805190602001906200007992919062000681565b5080516200008f90600190602084019062000681565b5050600b805460ff1916905550620000a73362000252565b620000b4600033620002ac565b620000cf600080516020620054d783398151915233620002ac565b620000ea600080516020620054f783398151915233620002ac565b505060016011558051600314620001485760405162461bcd60e51b815260206004820152601a60248201527f696e76616c696420636f6e6669672064617461206c656e67746800000000000060448201526064015b60405180910390fd5b62000155600033620002ac565b62000170600080516020620054d783398151915233620002ac565b6200018b600080516020620054f783398151915233620002ac565b620001c581600081518110620001b157634e487b7160e01b600052603260045260246000fd5b60200260200101516200035160201b60201c565b620001ff81600181518110620001eb57634e487b7160e01b600052603260045260246000fd5b6020026020010151620003de60201b60201c565b6200023b8383836002815181106200022757634e487b7160e01b600052603260045260246000fd5b60200260200101516200046560201b60201c565b6200024684620005e1565b5050505050506200098f565b600b80546001600160a01b03838116610100818102610100600160a81b031985161790945560405193909204169182907f8be0079c531659141344cd1fd0a4f28419497f9722a3daafe3b4186f6b6457e090600090a35050565b6000828152600c602090815260408083206001600160a01b038516845290915290205460ff166200034d576000828152600c602090815260408083206001600160a01b03851684529091529020805460ff191660011790556200030c3390565b6001600160a01b0316816001600160a01b0316837f2f8788117e7eff1d82e926ec794901d17c78024a50270940304540a733656f0d60405160405180910390a45b5050565b600b546001600160a01b03610100909104163314620003a25760405162461bcd60e51b81526020600482018190526024820152600080516020620054b783398151915260448201526064016200013f565b60788190556040518181527f7c8826e4db3679f20c86da0c68d37f9dbcd1d638c56717e014f93c56d14c02d1906020015b60405180910390a150565b600b546001600160a01b036101009091041633146200042f5760405162461bcd60e51b81526020600482018190526024820152600080516020620054b783398151915260448201526064016200013f565b60798190556040518181527fa7ade4ab976b6643a971383d9822fb7c2fce66aa2e497d88c3b4f1475ea2b2e090602001620003d3565b600b546001600160a01b03610100909104163314620004b65760405162461bcd60e51b81526020600482018190526024820152600080516020620054b783398151915260448201526064016200013f565b6001600160a01b0383166200050e5760405162461bcd60e51b815260206004820152601760248201527f696e76616c6964207061796d656e74206164647265737300000000000000000060448201526064016200013f565b6001600160a01b038216620005665760405162461bcd60e51b815260206004820152601860248201527f696e76616c69642074726561737572792061646472657373000000000000000060448201526064016200013f565b607a80546001600160a01b038581166001600160a01b03199283168117909355607b8054918616919092168117909155607c83905560408051928352602083019190915281018290527fe2be3027f197494650b7a98fd1cae67dacf615bd1d8bb05102999676f11638669060600160405180910390a1505050565b600b546001600160a01b03610100909104163314620006325760405162461bcd60e51b81526020600482018190526024820152600080516020620054b783398151915260448201526064016200013f565b601280546001600160a01b0319166001600160a01b0383169081179091556040519081527fca92c759228172fe3894a344908fd20dfd37ba561b5af191f1f5b02ee03881fc90602001620003d3565b8280546200068f906200093c565b90600052602060002090601f016020900481019282620006b35760008555620006fe565b82601f10620006ce57805160ff1916838001178555620006fe565b82800160010185558215620006fe579182015b82811115620006fe578251825591602001919060010190620006e1565b506200070c92915062000710565b5090565b5b808211156200070c576000815560010162000711565b80516001600160a01b03811681146200073f57600080fd5b919050565b600082601f83011262000755578081fd5b81516001600160401b0381111562000771576200077162000979565b602062000787601f8301601f1916820162000909565b82815285828487010111156200079b578384fd5b835b83811015620007ba5785810183015182820184015282016200079d565b83811115620007cb57848385840101525b5095945050505050565b60008060008060008060c08789031215620007ee578182fd5b86516001600160401b038082111562000805578384fd5b620008138a838b0162000744565b97506020915081890151818111156200082a578485fd5b620008388b828c0162000744565b9750506200084960408a0162000727565b95506200085960608a0162000727565b94506200086960808a0162000727565b935060a0890151818111156200087d578384fd5b8901601f81018b136200088e578384fd5b805182811115620008a357620008a362000979565b8060051b9250620008b684840162000909565b8181528481019083860185850187018f1015620008d1578788fd5b8795505b83861015620008f5578051835260019590950194918601918601620008d5565b508096505050505050509295509295509295565b604051601f8201601f191681016001600160401b038111828210171562000934576200093462000979565b604052919050565b600181811c908216806200095157607f821691505b602082108114156200097357634e487b7160e01b600052602260045260246000fd5b50919050565b634e487b7160e01b600052604160045260246000fd5b614b18806200099f6000396000f3fe6080604052600436106103bc5760003560e01c806370a08231116101f2578063a2aa61eb1161010d578063d3d3224a116100a0578063e985e9c51161006f578063e985e9c514610b0e578063f2fde38b14610b57578063f3c8dc5914610b77578063fb86a40414610b9757600080fd5b8063d3d3224a14610a95578063d539139314610aaa578063d547741f14610acc578063e63ab1e914610aec57600080fd5b8063bf91ad9e116100dc578063bf91ad9e14610a15578063c38b761c14610a35578063c87b56dd14610a55578063d204c45e14610a7557600080fd5b8063a2aa61eb14610995578063b5a87cc1146109b5578063b88d4fde146109d5578063b9d6abe9146109f557600080fd5b8063902835f611610185578063983b2d5611610154578063983b2d5614610920578063999b93af14610940578063a217fddf14610960578063a22cb4651461097557600080fd5b8063902835f6146108b557806391d14854146108d557806395d89b41146108f5578063978bbdb91461090a57600080fd5b80638456cb59116101c15780638456cb591461084a57806385be1b3b1461085f5780638a55b866146108725780638da5cb5b1461089257600080fd5b806370a08231146107d5578063715018a6146107f55780637b43b8271461080a57806382dc1ec41461082a57600080fd5b806330c045a8116102e257806358dd6d95116102755780635dce7383116102445780635dce73831461076057806361d027b3146107755780636352211e146107955780636ae6b459146107b557600080fd5b806358dd6d95146106e85780635c975abb146107085780635d1d37c3146107205780635d814dea1461074057600080fd5b806342842e0e116102b157806342842e0e1461066857806342966c681461068857806342f6487a146106a85780634f6ccce7146106c857600080fd5b806330c045a8146105f357806336568abe146106135780633f4ba83a146106335780633f7d70551461064857600080fd5b806318160ddd1161035a578063248a9ca311610329578063248a9ca31461056d5780632799276d1461059d5780632f2ff15d146105b35780632f745c59146105d357600080fd5b806318160ddd146104f857806321bae9e41461050d57806323b872dd1461052d578063244906591461054d57600080fd5b806306fdde031161039657806306fdde0314610437578063081812fc14610459578063095ea7b314610491578063150b7a02146104b357600080fd5b806301339c21146103c857806301ffc9a7146103f157806306490f471461042157600080fd5b366103c357005b600080fd5b3480156103d457600080fd5b506103de60785481565b6040519081526020015b60405180910390f35b3480156103fd57600080fd5b5061041161040c36600461452f565b610bad565b60405190151581526020016103e8565b34801561042d57600080fd5b506103de60795481565b34801561044357600080fd5b5061044c610bd8565b6040516103e89190614756565b34801561046557600080fd5b506104796104743660046144f5565b610c6a565b6040516001600160a01b0390911681526020016103e8565b34801561049d57600080fd5b506104b16104ac36600461442d565b610cf7565b005b3480156104bf57600080fd5b506104df6104ce36600461420a565b630a85bd0160e11b95945050505050565b6040516001600160e01b031990911681526020016103e8565b34801561050457600080fd5b506008546103de565b34801561051957600080fd5b506104b1610528366004614183565b610e0d565b34801561053957600080fd5b506104b16105483660046141cf565b610f5a565b34801561055957600080fd5b506104b161056836600461457f565b610f8c565b34801561057957600080fd5b506103de6105883660046144f5565b6000908152600c602052604090206001015490565b3480156105a957600080fd5b506103de60775481565b3480156105bf57600080fd5b506104b16105ce36600461450d565b611014565b3480156105df57600080fd5b506103de6105ee36600461442d565b611039565b3480156105ff57600080fd5b506104b161060e3660046145ce565b6110cf565b34801561061f57600080fd5b506104b161062e36600461450d565b61139a565b34801561063f57600080fd5b506104b1611418565b34801561065457600080fd5b506104b1610663366004614602565b61143b565b34801561067457600080fd5b506104b16106833660046141cf565b6117c0565b34801561069457600080fd5b506104b16106a33660046144f5565b6117db565b3480156106b457600080fd5b50607a54610479906001600160a01b031681565b3480156106d457600080fd5b506103de6106e33660046144f5565b611852565b3480156106f457600080fd5b506104b1610703366004614317565b6118f3565b34801561071457600080fd5b50600b5460ff16610411565b34801561072c57600080fd5b506104b161073b3660046144f5565b61193e565b34801561074c57600080fd5b5061044c61075b3660046144f5565b6119aa565b34801561076c57600080fd5b506103de611a56565b34801561078157600080fd5b50607b54610479906001600160a01b031681565b3480156107a157600080fd5b506104796107b03660046144f5565b611aeb565b3480156107c157600080fd5b506104b16107d03660046144f5565b611b62565b3480156107e157600080fd5b506103de6107f0366004614183565b611bc7565b34801561080157600080fd5b506104b1611c4e565b34801561081657600080fd5b506104b1610825366004614183565b611c8a565b34801561083657600080fd5b506104b1610845366004614183565b611d2a565b34801561085657600080fd5b506104b1611dd0565b6104b161086d3660046145ad565b611df0565b34801561087e57600080fd5b506103de61088d3660046144f5565b6120a9565b34801561089e57600080fd5b50600b5461010090046001600160a01b0316610479565b3480156108c157600080fd5b506104b16108d03660046141cf565b6120ca565b3480156108e157600080fd5b506104116108f036600461450d565b612221565b34801561090157600080fd5b5061044c61224c565b34801561091657600080fd5b506103de607c5481565b34801561092c57600080fd5b506104b161093b366004614183565b61225b565b34801561094c57600080fd5b50601254610479906001600160a01b031681565b34801561096c57600080fd5b506103de600081565b34801561098157600080fd5b506104b1610990366004614362565b612301565b3480156109a157600080fd5b506104b16109b0366004614183565b61230c565b3480156109c157600080fd5b506104b16109d03660046143d9565b61238a565b3480156109e157600080fd5b506104b16109f036600461429f565b61241c565b348015610a0157600080fd5b506103de610a103660046144f5565b612454565b348015610a2157600080fd5b506103de610a303660046144f5565b612464565b348015610a4157600080fd5b50600f54610479906001600160a01b031681565b348015610a6157600080fd5b5061044c610a703660046144f5565b612474565b348015610a8157600080fd5b506103de610a90366004614398565b61247f565b348015610aa157600080fd5b5061044c612499565b348015610ab657600080fd5b506103de600080516020614ac383398151915281565b348015610ad857600080fd5b506104b1610ae736600461450d565b6124a6565b348015610af857600080fd5b506103de600080516020614aa383398151915281565b348015610b1a57600080fd5b50610411610b2936600461419d565b6001600160a01b03918216600090815260056020908152604080832093909416825291909152205460ff1690565b348015610b6357600080fd5b506104b1610b72366004614183565b6124cb565b348015610b8357600080fd5b506104b1610b92366004614456565b612569565b348015610ba357600080fd5b506103de600d5481565b60006001600160e01b031982166380ac58cd60e01b1480610bd25750610bd282612720565b92915050565b606060008054610be7906149d8565b80601f0160208091040260200160405190810160405280929190818152602001828054610c13906149d8565b8015610c605780601f10610c3557610100808354040283529160200191610c60565b820191906000526020600020905b815481529060010190602001808311610c4357829003601f168201915b5050505050905090565b6000610c7582612745565b610cdb5760405162461bcd60e51b815260206004820152602c60248201527f4552433732313a20617070726f76656420717565727920666f72206e6f6e657860448201526b34b9ba32b73a103a37b5b2b760a11b60648201526084015b60405180910390fd5b506000908152600460205260409020546001600160a01b031690565b6000610d0282611aeb565b9050806001600160a01b0316836001600160a01b03161415610d705760405162461bcd60e51b815260206004820152602160248201527f4552433732313a20617070726f76616c20746f2063757272656e74206f776e656044820152603960f91b6064820152608401610cd2565b336001600160a01b0382161480610d8c5750610d8c8133610b29565b610dfe5760405162461bcd60e51b815260206004820152603860248201527f4552433732313a20617070726f76652063616c6c6572206973206e6f74206f7760448201527f6e6572206e6f7220617070726f76656420666f7220616c6c00000000000000006064820152608401610cd2565b610e088383612762565b505050565b600080516020614ac3833981519152610e25816127d0565b6000600e8054610e34906149d8565b905011610e7b5760405162461bcd60e51b815260206004820152601560248201527411db1bd8985b08155492481a5cc81b9bdd081cd95d605a1b6044820152606401610cd2565b6001600160a01b038216610ec65760405162461bcd60e51b8152602060048201526012602482015271496e76616c696420746f206164647265737360701b6044820152606401610cd2565b610e0882600e8054610ed7906149d8565b80601f0160208091040260200160405190810160405280929190818152602001828054610f03906149d8565b8015610f505780601f10610f2557610100808354040283529160200191610f50565b820191906000526020600020905b815481529060010190602001808311610f3357829003601f168201915b505050505061247f565b610f65335b826127da565b610f815760405162461bcd60e51b8152600401610cd29061488f565b610e088383836128c4565b600b546001600160a01b03610100909104163314610fbc5760405162461bcd60e51b8152600401610cd2906147e2565b600d8290558051610fd490600e906020840190613e84565b507f57bbf0b7295e3c8587fe0fa3c76592771f6a96123bf723292fd0e3933436b71f600d5460405161100891815260200190565b60405180910390a15050565b6000828152600c602052604090206001015461102f816127d0565b610e088383612a6b565b600061104483611bc7565b82106110a65760405162461bcd60e51b815260206004820152602b60248201527f455243373231456e756d657261626c653a206f776e657220696e646578206f7560448201526a74206f6620626f756e647360a81b6064820152608401610cd2565b506001600160a01b03919091166000908152600660209081526040808320938352929052205490565b600080516020614ac38339815191526110e7816127d0565b60785442116111085760405162461bcd60e51b8152600401610cd290614858565b607f848154811061112957634e487b7160e01b600052603260045260246000fd5b9060005260206000200154607e858154811061115557634e487b7160e01b600052603260045260246000fd5b90600052602060002001541161117d5760405162461bcd60e51b8152600401610cd2906147bb565b6000805b607e548110156111e657808610156111d4576111d1607e82815481106111b757634e487b7160e01b600052603260045260246000fd5b906000526020600020015483612af190919063ffffffff16565b91505b806111de81614a0d565b915050611181565b5060005b848110156113265761122561121e6013886064811061121957634e487b7160e01b600052603260045260246000fd5b015490565b8390612af1565b91506112e58483607d898154811061124d57634e487b7160e01b600052603260045260246000fd5b906000526020600020018054611262906149d8565b80601f016020809104026020016040519081016040528092919081815260200182805461128e906149d8565b80156112db5780601f106112b0576101008083540402835291602001916112db565b820191906000526020600020905b8154815290600101906020018083116112be57829003601f168201915b5050505050612b04565b506113146013876064811061130a57634e487b7160e01b600052603260045260246000fd5b0180546001019055565b8061131e81614a0d565b9150506111ea565b506113666001607f878154811061134d57634e487b7160e01b600052603260045260246000fd5b9060005260206000200154612af190919063ffffffff16565b607f868154811061138757634e487b7160e01b600052603260045260246000fd5b6000918252602090912001555050505050565b6001600160a01b038116331461140a5760405162461bcd60e51b815260206004820152602f60248201527f416363657373436f6e74726f6c3a2063616e206f6e6c792072656e6f756e636560448201526e103937b632b9903337b91039b2b63360891b6064820152608401610cd2565b6114148282612b1b565b5050565b600080516020614aa3833981519152611430816127d0565b611438612b82565b50565b6012546001600160a01b03166114875760405162461bcd60e51b81526020600482015260116024820152702bb937b7339038bab7ba32903a37b5b2b760791b6044820152606401610cd2565b60785442116114a85760405162461bcd60e51b8152600401610cd290614858565b600082116114c85760405162461bcd60e51b8152600401610cd290614817565b611506608084815481106114ec57634e487b7160e01b600052603260045260246000fd5b906000526020600020015482612c1590919063ffffffff16565b82146115545760405162461bcd60e51b815260206004820152601d60248201527f76616c756520616e6420616d6f756e74206973206e6f74206d617463680000006044820152606401610cd2565b6012546040516370a0823160e01b81523360048201526000916001600160a01b0316906370a082319060240160206040518083038186803b15801561159857600080fd5b505afa1580156115ac573d6000803e3d6000fd5b505050506040513d601f19601f820116820180604052508101906115d09190614567565b90508281116116215760405162461bcd60e51b815260206004820152601b60248201527f6c61636b206f662071756f746520746f6b656e2062616c616e636500000000006044820152606401610cd2565b607f848154811061164257634e487b7160e01b600052603260045260246000fd5b9060005260206000200154607e858154811061166e57634e487b7160e01b600052603260045260246000fd5b9060005260206000200154116116965760405162461bcd60e51b8152600401610cd2906147bb565b6012546116ae906001600160a01b0316333086612c21565b6000805b607e548110156116fd57808610156116eb576116e8607e82815481106111b757634e487b7160e01b600052603260045260246000fd5b91505b806116f581614a0d565b9150506116b2565b5060005b8381101561178f5761173061121e6013886064811061121957634e487b7160e01b600052603260045260246000fd5b91506117583383607d898154811061124d57634e487b7160e01b600052603260045260246000fd5b5061177d6013876064811061130a57634e487b7160e01b600052603260045260246000fd5b8061178781614a0d565b915050611701565b5061179a8584612d5f565b6113666001607f878154811061134d57634e487b7160e01b600052603260045260246000fd5b610e088383836040518060200160405280600081525061241c565b6117e433610f5f565b6118495760405162461bcd60e51b815260206004820152603060248201527f4552433732314275726e61626c653a2063616c6c6572206973206e6f74206f7760448201526f1b995c881b9bdc88185c1c1c9bdd995960821b6064820152608401610cd2565b61143881612ead565b600061185d60085490565b82106118c05760405162461bcd60e51b815260206004820152602c60248201527f455243373231456e756d657261626c653a20676c6f62616c20696e646578206f60448201526b7574206f6620626f756e647360a01b6064820152608401610cd2565b600882815481106118e157634e487b7160e01b600052603260045260246000fd5b90600052602060002001549050919050565b600080516020614ac383398151915261190b816127d0565b60405162461bcd60e51b8152602060048201526008602482015267111a5cd8589b195960c21b6044820152606401610cd2565b600b546001600160a01b0361010090910416331461196e5760405162461bcd60e51b8152600401610cd2906147e2565b60788190556040518181527f7c8826e4db3679f20c86da0c68d37f9dbcd1d638c56717e014f93c56d14c02d1906020015b60405180910390a150565b607d81815481106119ba57600080fd5b9060005260206000200160009150905080546119d5906149d8565b80601f0160208091040260200160405190810160405280929190818152602001828054611a01906149d8565b8015611a4e5780601f10611a2357610100808354040283529160200191611a4e565b820191906000526020600020905b815481529060010190602001808311611a3157829003601f168201915b505050505081565b600080805b607e54811015611ae557611ad161121e607f8381548110611a8c57634e487b7160e01b600052603260045260246000fd5b9060005260206000200154607e8481548110611ab857634e487b7160e01b600052603260045260246000fd5b9060005260206000200154612eb690919063ffffffff16565b915080611add81614a0d565b915050611a5b565b50919050565b6000818152600260205260408120546001600160a01b031680610bd25760405162461bcd60e51b815260206004820152602960248201527f4552433732313a206f776e657220717565727920666f72206e6f6e657869737460448201526832b73a103a37b5b2b760b91b6064820152608401610cd2565b600b546001600160a01b03610100909104163314611b925760405162461bcd60e51b8152600401610cd2906147e2565b60798190556040518181527fa7ade4ab976b6643a971383d9822fb7c2fce66aa2e497d88c3b4f1475ea2b2e09060200161199f565b60006001600160a01b038216611c325760405162461bcd60e51b815260206004820152602a60248201527f4552433732313a2062616c616e636520717565727920666f7220746865207a65604482015269726f206164647265737360b01b6064820152608401610cd2565b506001600160a01b031660009081526003602052604090205490565b600b546001600160a01b03610100909104163314611c7e5760405162461bcd60e51b8152600401610cd2906147e2565b611c886000612ec2565b565b600b546001600160a01b03610100909104163314611cba5760405162461bcd60e51b8152600401610cd2906147e2565b600f80546001600160a01b0319166001600160a01b038316179055611ced600080516020614ac383398151915282612a6b565b600f546040516001600160a01b0390911681527f329b1203fc60a62c4a0fd3ff1554a07f92a2f117cc590422dd105811bb484ded9060200161199f565b600b546001600160a01b03610100909104163314611d5a5760405162461bcd60e51b8152600401610cd2906147e2565b611d72600080516020614aa383398151915282612a6b565b604080516001600160a01b038316815260208101829052600b918101919091526a5041555345525f524f4c4560a81b60608201527f0578acc86b18d67c13a5e6eed8c670fb7052f530b48a2acb167d6ca77509a3849060800161199f565b600080516020614aa3833981519152611de8816127d0565b611438612f1c565b6012546001600160a01b031615611e3d5760405162461bcd60e51b81526020600482015260116024820152702bb937b7339038bab7ba32903a37b5b2b760791b6044820152606401610cd2565b6078544211611e5e5760405162461bcd60e51b8152600401610cd290614858565b60003411611e7e5760405162461bcd60e51b8152600401610cd290614817565b611ea2608083815481106114ec57634e487b7160e01b600052603260045260246000fd5b3414611ef05760405162461bcd60e51b815260206004820152601d60248201527f76616c756520616e6420616d6f756e74206973206e6f74206d617463680000006044820152606401610cd2565b607f8281548110611f1157634e487b7160e01b600052603260045260246000fd5b9060005260206000200154607e8381548110611f3d57634e487b7160e01b600052603260045260246000fd5b906000526020600020015411611f655760405162461bcd60e51b8152600401610cd2906147bb565b6000805b607e54811015611fb45780841015611fa257611f9f607e82815481106111b757634e487b7160e01b600052603260045260246000fd5b91505b80611fac81614a0d565b915050611f69565b5060005b8281101561204657611fe761121e6013866064811061121957634e487b7160e01b600052603260045260246000fd5b915061200f3383607d878154811061124d57634e487b7160e01b600052603260045260246000fd5b506120346013856064811061130a57634e487b7160e01b600052603260045260246000fd5b8061203e81614a0d565b915050611fb8565b506120518383612d5f565b6120776001607f858154811061134d57634e487b7160e01b600052603260045260246000fd5b607f848154811061209857634e487b7160e01b600052603260045260246000fd5b600091825260209091200155505050565b607e81815481106120b957600080fd5b600091825260209091200154905081565b600b546001600160a01b036101009091041633146120fa5760405162461bcd60e51b8152600401610cd2906147e2565b6001600160a01b0383166121505760405162461bcd60e51b815260206004820152601760248201527f696e76616c6964207061796d656e7420616464726573730000000000000000006044820152606401610cd2565b6001600160a01b0382166121a65760405162461bcd60e51b815260206004820152601860248201527f696e76616c6964207472656173757279206164647265737300000000000000006044820152606401610cd2565b607a80546001600160a01b038581166001600160a01b03199283168117909355607b8054918616919092168117909155607c83905560408051928352602083019190915281018290527fe2be3027f197494650b7a98fd1cae67dacf615bd1d8bb05102999676f11638669060600160405180910390a1505050565b6000918252600c602090815260408084206001600160a01b0393909316845291905290205460ff1690565b606060018054610be7906149d8565b600b546001600160a01b0361010090910416331461228b5760405162461bcd60e51b8152600401610cd2906147e2565b6122a3600080516020614ac383398151915282612a6b565b604080516001600160a01b038316815260208101829052600b918101919091526a4d494e5445525f524f4c4560a81b60608201527f0578acc86b18d67c13a5e6eed8c670fb7052f530b48a2acb167d6ca77509a3849060800161199f565b611414338383612f97565b600b546001600160a01b0361010090910416331461233c5760405162461bcd60e51b8152600401610cd2906147e2565b601280546001600160a01b0319166001600160a01b0383169081179091556040519081527fca92c759228172fe3894a344908fd20dfd37ba561b5af191f1f5b02ee03881fc9060200161199f565b600080516020614ac38339815191526123a2816127d0565b6001600160a01b0384166123ed5760405162461bcd60e51b8152602060048201526012602482015271496e76616c696420746f206164647265737360701b6044820152606401610cd2565b60005b8281101561241557612402858561247f565b508061240d81614a0d565b9150506123f0565b5050505050565b61242633836127da565b6124425760405162461bcd60e51b8152600401610cd29061488f565b61244e84848484613066565b50505050565b607f81815481106120b957600080fd5b608081815481106120b957600080fd5b6060610bd282613099565b6000600080516020614ac383398151915261190b816127d0565b600e80546119d5906149d8565b6000828152600c60205260409020600101546124c1816127d0565b610e088383612b1b565b600b546001600160a01b036101009091041633146124fb5760405162461bcd60e51b8152600401610cd2906147e2565b6001600160a01b0381166125605760405162461bcd60e51b815260206004820152602660248201527f4f776e61626c653a206e6577206f776e657220697320746865207a65726f206160448201526564647265737360d01b6064820152608401610cd2565b61143881612ec2565b600080516020614ac3833981519152612581816127d0565b60815460ff16156125d45760405162461bcd60e51b815260206004820152601860248201527f4974656d7320616c7265616479207265676973746572656400000000000000006044820152606401610cd2565b825184511461261d5760405162461bcd60e51b8152602060048201526015602482015274082e4e4c2f240d8cadccee8d040dad2e6dac2e8c6d605b1b6044820152606401610cd2565b825161263090607e906020860190613f08565b50835161264490607d906020870190613f42565b508151612658906080906020850190613f08565b5060005b845181101561270c576126a184828151811061268857634e487b7160e01b600052603260045260246000fd5b6020026020010151607754612af190919063ffffffff16565b6077556126c86013826064811061130a57634e487b7160e01b600052603260045260246000fd5b607f805460018101825560009182527f66925e85f1a4743fd8d60ba595ed74887b7caf321dd83b21e04d77c11538340801558061270481614a0d565b91505061265c565b50506081805460ff19166001179055505050565b60006001600160e01b03198216637965db0b60e01b1480610bd25750610bd282613208565b6000908152600260205260409020546001600160a01b0316151590565b600081815260046020526040902080546001600160a01b0319166001600160a01b038416908117909155819061279782611aeb565b6001600160a01b03167f8c5be1e5ebec7d5bd14f71427d1e84f3dd0314c0f7b2291e5b200ac8c7c3b92560405160405180910390a45050565b611438813361322d565b60006127e582612745565b6128465760405162461bcd60e51b815260206004820152602c60248201527f4552433732313a206f70657261746f7220717565727920666f72206e6f6e657860448201526b34b9ba32b73a103a37b5b2b760a11b6064820152608401610cd2565b600061285183611aeb565b9050806001600160a01b0316846001600160a01b0316148061289857506001600160a01b0380821660009081526005602090815260408083209388168352929052205460ff165b806128bc5750836001600160a01b03166128b184610c6a565b6001600160a01b0316145b949350505050565b826001600160a01b03166128d782611aeb565b6001600160a01b03161461293b5760405162461bcd60e51b815260206004820152602560248201527f4552433732313a207472616e736665722066726f6d20696e636f72726563742060448201526437bbb732b960d91b6064820152608401610cd2565b6001600160a01b03821661299d5760405162461bcd60e51b8152602060048201526024808201527f4552433732313a207472616e7366657220746f20746865207a65726f206164646044820152637265737360e01b6064820152608401610cd2565b6129a8838383613291565b6129b3600082612762565b6001600160a01b03831660009081526003602052604081208054600192906129dc90849061497e565b90915550506001600160a01b0382166000908152600360205260408120805460019290612a0a908490614933565b909155505060008181526002602052604080822080546001600160a01b0319166001600160a01b0386811691821790925591518493918716917fddf252ad1be2c89b69c2b068fc378daa952ba7f163c4a11628f55a4df523b3ef91a4505050565b612a758282612221565b611414576000828152600c602090815260408083206001600160a01b03851684529091529020805460ff19166001179055612aad3390565b6001600160a01b0316816001600160a01b0316837f2f8788117e7eff1d82e926ec794901d17c78024a50270940304540a733656f0d60405160405180910390a45050565b6000612afd8284614933565b9392505050565b600080612b128585856132e2565b95945050505050565b612b258282612221565b15611414576000828152600c602090815260408083206001600160a01b0385168085529252808320805460ff1916905551339285917ff6391f5c32d9c69d2a47ea670b442974b53935d1edc7fd64eb21e047a839171b9190a45050565b600b5460ff16612bcb5760405162461bcd60e51b815260206004820152601460248201527314185d5cd8589b194e881b9bdd081c185d5cd95960621b6044820152606401610cd2565b600b805460ff191690557f5db9ee0a495bf2e6ff9c91a7834c1ba4fdd244a5e8aa4e537bd38aeae4b073aa335b6040516001600160a01b03909116815260200160405180910390a1565b6000612afd828461495f565b604080516001600160a01b0385811660248301528481166044830152606480830185905283518084039091018152608490920183526020820180516001600160e01b03166323b872dd60e01b1790529151600092839290881691612c859190614659565b6000604051808303816000865af19150503d8060008114612cc2576040519150601f19603f3d011682016040523d82523d6000602084013e612cc7565b606091505b5091509150818015612cf1575080511580612cf1575080806020019051810190612cf191906144d9565b612d575760405162461bcd60e51b815260206004820152603160248201527f5472616e7366657248656c7065723a3a7472616e7366657246726f6d3a207472604482015270185b9cd9995c919c9bdb4819985a5b1959607a1b6064820152608401610cd2565b505050505050565b607a546001600160a01b0316612db75760405162461bcd60e51b815260206004820152601a60248201527f7061796d656e742061646472657373206973206e6f74207365740000000000006044820152606401610cd2565b6000612df760808481548110612ddd57634e487b7160e01b600052603260045260246000fd5b906000526020600020015483612c1590919063ffffffff16565b90506000612e1c6103e8612e16607c5485612c1590919063ffffffff16565b90613300565b90506000612e2a8383612eb6565b6012549091506001600160a01b031615612e8157601254607b54612e5d916001600160a01b039081169130911685612c21565b601254607a54612e7c916001600160a01b039081169130911684612c21565b612415565b607b54612e97906001600160a01b03168361330c565b607a54612415906001600160a01b03168261330c565b611438816133e6565b6000612afd828461497e565b600b80546001600160a01b03838116610100818102610100600160a81b031985161790945560405193909204169182907f8be0079c531659141344cd1fd0a4f28419497f9722a3daafe3b4186f6b6457e090600090a35050565b600b5460ff1615612f625760405162461bcd60e51b815260206004820152601060248201526f14185d5cd8589b194e881c185d5cd95960821b6044820152606401610cd2565b600b805460ff191660011790557f62e78cea01bee320cd4e420270b5ea74000d11b0c9f74754ebdbfc544b05a258612bf83390565b816001600160a01b0316836001600160a01b03161415612ff95760405162461bcd60e51b815260206004820152601960248201527f4552433732313a20617070726f766520746f2063616c6c6572000000000000006044820152606401610cd2565b6001600160a01b03838116600081815260056020908152604080832094871680845294825291829020805460ff191686151590811790915591519182527f17307eab39ab6107e8899845ad3d59bd9653f200f220920489ca2b5937696c31910160405180910390a3505050565b6130718484846128c4565b61307d84848484613426565b61244e5760405162461bcd60e51b8152600401610cd290614769565b60606130a482612745565b61310a5760405162461bcd60e51b815260206004820152603160248201527f45524337323155524953746f726167653a2055524920717565727920666f72206044820152703737b732bc34b9ba32b73a103a37b5b2b760791b6064820152608401610cd2565b6000828152600a602052604081208054613123906149d8565b80601f016020809104026020016040519081016040528092919081815260200182805461314f906149d8565b801561319c5780601f106131715761010080835404028352916020019161319c565b820191906000526020600020905b81548152906001019060200180831161317f57829003601f168201915b5050505050905060006131ba60408051602081019091526000815290565b90508051600014156131cd575092915050565b8151156131ff5780826040516020016131e7929190614675565b60405160208183030381529060405292505050919050565b6128bc84613533565b60006001600160e01b0319821663780e9d6360e01b1480610bd25750610bd28261360a565b6132378282612221565b6114145761324f816001600160a01b0316601461365a565b61325a83602061365a565b60405160200161326b9291906146a4565b60408051601f198184030181529082905262461bcd60e51b8252610cd291600401614756565b600b5460ff16156132d75760405162461bcd60e51b815260206004820152601060248201526f14185d5cd8589b194e881c185d5cd95960821b6044820152606401610cd2565b610e0883838361383b565b60006132ee84846138f3565b6132f8838361390d565b509092915050565b6000612afd828461494b565b604080516000808252602082019092526001600160a01b0384169083906040516133369190614659565b60006040518083038185875af1925050503d8060008114613373576040519150601f19603f3d011682016040523d82523d6000602084013e613378565b606091505b5050905080610e085760405162461bcd60e51b815260206004820152603460248201527f5472616e7366657248656c7065723a3a736166655472616e736665724554483a60448201527308115512081d1c985b9cd9995c8819985a5b195960621b6064820152608401610cd2565b6133ef81613998565b6000818152600a602052604090208054613408906149d8565b159050611438576000818152600a6020526040812061143891613f9b565b60006001600160a01b0384163b1561352857604051630a85bd0160e11b81526001600160a01b0385169063150b7a029061346a903390899088908890600401614719565b602060405180830381600087803b15801561348457600080fd5b505af19250505080156134b4575060408051601f3d908101601f191682019092526134b19181019061454b565b60015b61350e573d8080156134e2576040519150601f19603f3d011682016040523d82523d6000602084013e6134e7565b606091505b5080516135065760405162461bcd60e51b8152600401610cd290614769565b805181602001fd5b6001600160e01b031916630a85bd0160e11b1490506128bc565b506001949350505050565b606061353e82612745565b6135a25760405162461bcd60e51b815260206004820152602f60248201527f4552433732314d657461646174613a2055524920717565727920666f72206e6f60448201526e3732bc34b9ba32b73a103a37b5b2b760891b6064820152608401610cd2565b60006135b960408051602081019091526000815290565b905060008151116135d95760405180602001604052806000815250612afd565b806135e384613a3f565b6040516020016135f4929190614675565b6040516020818303038152906040529392505050565b60006001600160e01b031982166380ac58cd60e01b148061363b57506001600160e01b03198216635b5e139f60e01b145b80610bd257506301ffc9a760e01b6001600160e01b0319831614610bd2565b6060600061366983600261495f565b613674906002614933565b6001600160401b0381111561369957634e487b7160e01b600052604160045260246000fd5b6040519080825280601f01601f1916602001820160405280156136c3576020820181803683370190505b509050600360fc1b816000815181106136ec57634e487b7160e01b600052603260045260246000fd5b60200101906001600160f81b031916908160001a905350600f60fb1b8160018151811061372957634e487b7160e01b600052603260045260246000fd5b60200101906001600160f81b031916908160001a905350600061374d84600261495f565b613758906001614933565b90505b60018111156137ec576f181899199a1a9b1b9c1cb0b131b232b360811b85600f166010811061379a57634e487b7160e01b600052603260045260246000fd5b1a60f81b8282815181106137be57634e487b7160e01b600052603260045260246000fd5b60200101906001600160f81b031916908160001a90535060049490941c936137e5816149c1565b905061375b565b508315612afd5760405162461bcd60e51b815260206004820181905260248201527f537472696e67733a20686578206c656e67746820696e73756666696369656e746044820152606401610cd2565b6001600160a01b0383166138965761389181600880546000838152600960205260408120829055600182018355919091527ff3f7a9fe364faab93b216da50a3214154f22a0a2b415b23a84c8169e8b636ee30155565b6138b9565b816001600160a01b0316836001600160a01b0316146138b9576138b98382613b58565b6001600160a01b0382166138d057610e0881613bf5565b826001600160a01b0316826001600160a01b031614610e0857610e088282613cce565b611414828260405180602001604052806000815250613d12565b61391682612745565b6139795760405162461bcd60e51b815260206004820152602e60248201527f45524337323155524953746f726167653a2055524920736574206f66206e6f6e60448201526d32bc34b9ba32b73a103a37b5b2b760911b6064820152608401610cd2565b6000828152600a602090815260409091208251610e0892840190613e84565b60006139a382611aeb565b90506139b181600084613291565b6139bc600083612762565b6001600160a01b03811660009081526003602052604081208054600192906139e590849061497e565b909155505060008281526002602052604080822080546001600160a01b0319169055518391906001600160a01b038416907fddf252ad1be2c89b69c2b068fc378daa952ba7f163c4a11628f55a4df523b3ef908390a45050565b606081613a635750506040805180820190915260018152600360fc1b602082015290565b8160005b8115613a8d5780613a7781614a0d565b9150613a869050600a8361494b565b9150613a67565b6000816001600160401b03811115613ab557634e487b7160e01b600052604160045260246000fd5b6040519080825280601f01601f191660200182016040528015613adf576020820181803683370190505b5090505b84156128bc57613af460018361497e565b9150613b01600a86614a28565b613b0c906030614933565b60f81b818381518110613b2f57634e487b7160e01b600052603260045260246000fd5b60200101906001600160f81b031916908160001a905350613b51600a8661494b565b9450613ae3565b60006001613b6584611bc7565b613b6f919061497e565b600083815260076020526040902054909150808214613bc2576001600160a01b03841660009081526006602090815260408083208584528252808320548484528184208190558352600790915290208190555b5060009182526007602090815260408084208490556001600160a01b039094168352600681528383209183525290812055565b600854600090613c079060019061497e565b60008381526009602052604081205460088054939450909284908110613c3d57634e487b7160e01b600052603260045260246000fd5b906000526020600020015490508060088381548110613c6c57634e487b7160e01b600052603260045260246000fd5b6000918252602080832090910192909255828152600990915260408082208490558582528120556008805480613cb257634e487b7160e01b600052603160045260246000fd5b6001900381819060005260206000200160009055905550505050565b6000613cd983611bc7565b6001600160a01b039093166000908152600660209081526040808320868452825280832085905593825260079052919091209190915550565b613d1c8383613d45565b613d296000848484613426565b610e085760405162461bcd60e51b8152600401610cd290614769565b6001600160a01b038216613d9b5760405162461bcd60e51b815260206004820181905260248201527f4552433732313a206d696e7420746f20746865207a65726f20616464726573736044820152606401610cd2565b613da481612745565b15613df15760405162461bcd60e51b815260206004820152601c60248201527f4552433732313a20746f6b656e20616c7265616479206d696e746564000000006044820152606401610cd2565b613dfd60008383613291565b6001600160a01b0382166000908152600360205260408120805460019290613e26908490614933565b909155505060008181526002602052604080822080546001600160a01b0319166001600160a01b03861690811790915590518392907fddf252ad1be2c89b69c2b068fc378daa952ba7f163c4a11628f55a4df523b3ef908290a45050565b828054613e90906149d8565b90600052602060002090601f016020900481019282613eb25760008555613ef8565b82601f10613ecb57805160ff1916838001178555613ef8565b82800160010185558215613ef8579182015b82811115613ef8578251825591602001919060010190613edd565b50613f04929150613fd1565b5090565b828054828255906000526020600020908101928215613ef85791602002820182811115613ef8578251825591602001919060010190613edd565b828054828255906000526020600020908101928215613f8f579160200282015b82811115613f8f5782518051613f7f918491602090910190613e84565b5091602001919060010190613f62565b50613f04929150613fe6565b508054613fa7906149d8565b6000825580601f10613fb7575050565b601f01602090049060005260206000209081019061143891905b5b80821115613f045760008155600101613fd2565b80821115613f04576000613ffa8282613f9b565b50600101613fe6565b60006001600160401b0383111561401c5761401c614a68565b61402f601f8401601f19166020016148e0565b905082815283838301111561404357600080fd5b828260208301376000602084830101529392505050565b80356001600160a01b038116811461407157600080fd5b919050565b600082601f830112614086578081fd5b8135602061409b61409683614910565b6148e0565b80838252828201915082860187848660051b89010111156140ba578586fd5b855b858110156140fa5781356001600160401b038111156140d9578788fd5b6140e78a87838c0101614164565b85525092840192908401906001016140bc565b5090979650505050505050565b600082601f830112614117578081fd5b8135602061412761409683614910565b80838252828201915082860187848660051b8901011115614146578586fd5b855b858110156140fa57813584529284019290840190600101614148565b600082601f830112614174578081fd5b612afd83833560208501614003565b600060208284031215614194578081fd5b612afd8261405a565b600080604083850312156141af578081fd5b6141b88361405a565b91506141c66020840161405a565b90509250929050565b6000806000606084860312156141e3578081fd5b6141ec8461405a565b92506141fa6020850161405a565b9150604084013590509250925092565b600080600080600060808688031215614221578081fd5b61422a8661405a565b94506142386020870161405a565b93506040860135925060608601356001600160401b038082111561425a578283fd5b818801915088601f83011261426d578283fd5b81358181111561427b578384fd5b89602082850101111561428c578384fd5b9699959850939650602001949392505050565b600080600080608085870312156142b4578384fd5b6142bd8561405a565b93506142cb6020860161405a565b92506040850135915060608501356001600160401b038111156142ec578182fd5b8501601f810187136142fc578182fd5b61430b87823560208401614003565b91505092959194509250565b60008060408385031215614329578182fd5b6143328361405a565b915060208301356001600160401b0381111561434c578182fd5b61435885828601614076565b9150509250929050565b60008060408385031215614374578182fd5b61437d8361405a565b9150602083013561438d81614a7e565b809150509250929050565b600080604083850312156143aa578182fd5b6143b38361405a565b915060208301356001600160401b038111156143cd578182fd5b61435885828601614164565b6000806000606084860312156143ed578081fd5b6143f68461405a565b925060208401356001600160401b03811115614410578182fd5b61441c86828701614164565b925050604084013590509250925092565b6000806040838503121561443f578182fd5b6144488361405a565b946020939093013593505050565b60008060006060848603121561446a578081fd5b83356001600160401b0380821115614480578283fd5b61448c87838801614076565b945060208601359150808211156144a1578283fd5b6144ad87838801614107565b935060408601359150808211156144c2578283fd5b506144cf86828701614107565b9150509250925092565b6000602082840312156144ea578081fd5b8151612afd81614a7e565b600060208284031215614506578081fd5b5035919050565b6000806040838503121561451f578182fd5b823591506141c66020840161405a565b600060208284031215614540578081fd5b8135612afd81614a8c565b60006020828403121561455c578081fd5b8151612afd81614a8c565b600060208284031215614578578081fd5b5051919050565b60008060408385031215614591578182fd5b8235915060208301356001600160401b038111156143cd578182fd5b600080604083850312156145bf578182fd5b50508035926020909101359150565b6000806000606084860312156145e2578081fd5b83359250602084013591506145f96040850161405a565b90509250925092565b600080600060608486031215614616578081fd5b505081359360208301359350604090920135919050565b60008151808452614645816020860160208601614995565b601f01601f19169290920160200192915050565b6000825161466b818460208701614995565b9190910192915050565b60008351614687818460208801614995565b83519083019061469b818360208801614995565b01949350505050565b7f416363657373436f6e74726f6c3a206163636f756e74200000000000000000008152600083516146dc816017850160208801614995565b7001034b99036b4b9b9b4b733903937b6329607d1b601791840191820152835161470d816028840160208801614995565b01602801949350505050565b6001600160a01b038581168252841660208201526040810183905260806060820181905260009061474c9083018461462d565b9695505050505050565b602081526000612afd602083018461462d565b60208082526032908201527f4552433732313a207472616e7366657220746f206e6f6e20455243373231526560408201527131b2b4bb32b91034b6b83632b6b2b73a32b960711b606082015260800190565b6020808252600d908201526c1a5d195b481cdbdb19081bdd5d609a1b604082015260600190565b6020808252818101527f4f776e61626c653a2063616c6c6572206973206e6f7420746865206f776e6572604082015260600190565b60208082526021908201527f76616c75652073686f756c642062652067726561746572207468616e207a65726040820152606f60f81b606082015260800190565b6020808252601b908201527f4e6f7420796574206c61756e63682074696d6520726561636865640000000000604082015260600190565b60208082526031908201527f4552433732313a207472616e736665722063616c6c6572206973206e6f74206f6040820152701ddb995c881b9bdc88185c1c1c9bdd9959607a1b606082015260800190565b604051601f8201601f191681016001600160401b038111828210171561490857614908614a68565b604052919050565b60006001600160401b0382111561492957614929614a68565b5060051b60200190565b6000821982111561494657614946614a3c565b500190565b60008261495a5761495a614a52565b500490565b600081600019048311821515161561497957614979614a3c565b500290565b60008282101561499057614990614a3c565b500390565b60005b838110156149b0578181015183820152602001614998565b8381111561244e5750506000910152565b6000816149d0576149d0614a3c565b506000190190565b600181811c908216806149ec57607f821691505b60208210811415611ae557634e487b7160e01b600052602260045260246000fd5b6000600019821415614a2157614a21614a3c565b5060010190565b600082614a3757614a37614a52565b500690565b634e487b7160e01b600052601160045260246000fd5b634e487b7160e01b600052601260045260246000fd5b634e487b7160e01b600052604160045260246000fd5b801515811461143857600080fd5b6001600160e01b03198116811461143857600080fdfe65d7a28e3265b37a6474929f336521b332c1681b933f6cb9f3376673440d862a9f2df0fed2c77648de5860a4cc508cd0818c85b8b8a1ab4ceeef8d981c8956a6a26469706673582212207e5813f8ce8b1dc074607453b691493e89ace95021e7a99c791bd78b1e8d230564736f6c634300080400334f776e61626c653a2063616c6c6572206973206e6f7420746865206f776e657265d7a28e3265b37a6474929f336521b332c1681b933f6cb9f3376673440d862a9f2df0fed2c77648de5860a4cc508cd0818c85b8b8a1ab4ceeef8d981c8956a6",
  "linkReferences": {},
  "deployedLinkReferences": {}
}