{
  "_format": "hh-sol-artifact-1",
  "contractName": "Collection",
  "sourceName": "contracts/Collection.sol",
  "abi": [
    {
      "inputs": [
        {
          "internalType": "string",
          "name": "name",
          "type": "string"
        },
        {
          "internalType": "string",
          "name": "symbol",
          "type": "string"
        },
        {
          "internalType": "address",
          "name": "_quote",
          "type": "address"
        },
        {
          "internalType": "address",
          "name": "_payment",
          "type": "address"
        },
        {
          "internalType": "address",
          "name": "_treasury",
          "type": "address"
        },
        {
          "internalType": "uint256[]",
          "name": "configValues",
          "type": "uint256[]"
        }
      ],
      "stateMutability": "nonpayable",
      "type": "constructor"
    },
    {
      "anonymous": false,
      "inputs": [
        {
          "indexed": true,
          "internalType": "address",
          "name": "owner",
          "type": "address"
        },
        {
          "indexed": true,
          "internalType": "address",
          "name": "approved",
          "type": "address"
        },
        {
          "indexed": true,
          "internalType": "uint256",
          "name": "tokenId",
          "type": "uint256"
        }
      ],
      "name": "Approval",
      "type": "event"
    },
    {
      "anonymous": false,
      "inputs": [
        {
          "indexed": true,
          "internalType": "address",
          "name": "owner",
          "type": "address"
        },
        {
          "indexed": true,
          "internalType": "address",
          "name": "operator",
          "type": "address"
        },
        {
          "indexed": false,
          "internalType": "bool",
          "name": "approved",
          "type": "bool"
        }
      ],
      "name": "ApprovalForAll",
      "type": "event"
    },
    {
      "anonymous": false,
      "inputs": [
        {
          "indexed": false,
          "internalType": "address",
          "name": "",
          "type": "address"
        },
        {
          "indexed": false,
          "internalType": "string",
          "name": "",
          "type": "string"
        }
      ],
      "name": "Grant",
      "type": "event"
    },
    {
      "anonymous": false,
      "inputs": [
        {
          "indexed": true,
          "internalType": "address",
          "name": "previousOwner",
          "type": "address"
        },
        {
          "indexed": true,
          "internalType": "address",
          "name": "newOwner",
          "type": "address"
        }
      ],
      "name": "OwnershipTransferred",
      "type": "event"
    },
    {
      "anonymous": false,
      "inputs": [
        {
          "indexed": false,
          "internalType": "address",
          "name": "account",
          "type": "address"
        }
      ],
      "name": "Paused",
      "type": "event"
    },
    {
      "anonymous": false,
      "inputs": [
        {
          "indexed": true,
          "internalType": "bytes32",
          "name": "role",
          "type": "bytes32"
        },
        {
          "indexed": true,
          "internalType": "bytes32",
          "name": "previousAdminRole",
          "type": "bytes32"
        },
        {
          "indexed": true,
          "internalType": "bytes32",
          "name": "newAdminRole",
          "type": "bytes32"
        }
      ],
      "name": "RoleAdminChanged",
      "type": "event"
    },
    {
      "anonymous": false,
      "inputs": [
        {
          "indexed": true,
          "internalType": "bytes32",
          "name": "role",
          "type": "bytes32"
        },
        {
          "indexed": true,
          "internalType": "address",
          "name": "account",
          "type": "address"
        },
        {
          "indexed": true,
          "internalType": "address",
          "name": "sender",
          "type": "address"
        }
      ],
      "name": "RoleGranted",
      "type": "event"
    },
    {
      "anonymous": false,
      "inputs": [
        {
          "indexed": true,
          "internalType": "bytes32",
          "name": "role",
          "type": "bytes32"
        },
        {
          "indexed": true,
          "internalType": "address",
          "name": "account",
          "type": "address"
        },
        {
          "indexed": true,
          "internalType": "address",
          "name": "sender",
          "type": "address"
        }
      ],
      "name": "RoleRevoked",
      "type": "event"
    },
    {
      "anonymous": false,
      "inputs": [
        {
          "indexed": false,
          "internalType": "address",
          "name": "",
          "type": "address"
        },
        {
          "indexed": false,
          "internalType": "address",
          "name": "",
          "type": "address"
        },
        {
          "indexed": false,
          "internalType": "uint256",
          "name": "",
          "type": "uint256"
        }
      ],
      "name": "SetConfig",
      "type": "event"
    },
    {
      "anonymous": false,
      "inputs": [
        {
          "indexed": false,
          "internalType": "uint256",
          "name": "",
          "type": "uint256"
        }
      ],
      "name": "SetHardCap",
      "type": "event"
    },
    {
      "anonymous": false,
      "inputs": [
        {
          "indexed": false,
          "internalType": "uint256",
          "name": "",
          "type": "uint256"
        }
      ],
      "name": "SetLaunch",
      "type": "event"
    },
    {
      "anonymous": false,
      "inputs": [
        {
          "indexed": false,
          "internalType": "uint256",
          "name": "",
          "type": "uint256"
        }
      ],
      "name": "SetLockup",
      "type": "event"
    },
    {
      "anonymous": false,
      "inputs": [
        {
          "indexed": false,
          "internalType": "address",
          "name": "",
          "type": "address"
        }
      ],
      "name": "SetMysteryBox",
      "type": "event"
    },
    {
      "anonymous": false,
      "inputs": [
        {
          "indexed": false,
          "internalType": "address",
          "name": "",
          "type": "address"
        }
      ],
      "name": "SetQuote",
      "type": "event"
    },
    {
      "anonymous": false,
      "inputs": [
        {
          "indexed": true,
          "internalType": "address",
          "name": "from",
          "type": "address"
        },
        {
          "indexed": true,
          "internalType": "address",
          "name": "to",
          "type": "address"
        },
        {
          "indexed": true,
          "internalType": "uint256",
          "name": "tokenId",
          "type": "uint256"
        }
      ],
      "name": "Transfer",
      "type": "event"
    },
    {
      "anonymous": false,
      "inputs": [
        {
          "indexed": false,
          "internalType": "address",
          "name": "account",
          "type": "address"
        }
      ],
      "name": "Unpaused",
      "type": "event"
    },
    {
      "inputs": [],
      "name": "DEFAULT_ADMIN_ROLE",
      "outputs": [
        {
          "internalType": "bytes32",
          "name": "",
          "type": "bytes32"
        }
      ],
      "stateMutability": "view",
      "type": "function"
    },
    {
      "inputs": [],
      "name": "MINTER_ROLE",
      "outputs": [
        {
          "internalType": "bytes32",
          "name": "",
          "type": "bytes32"
        }
      ],
      "stateMutability": "view",
      "type": "function"
    },
    {
      "inputs": [],
      "name": "PAUSER_ROLE",
      "outputs": [
        {
          "internalType": "bytes32",
          "name": "",
          "type": "bytes32"
        }
      ],
      "stateMutability": "view",
      "type": "function"
    },
    {
      "inputs": [
        {
          "internalType": "address",
          "name": "minter",
          "type": "address"
        }
      ],
      "name": "addMinter",
      "outputs": [],
      "stateMutability": "nonpayable",
      "type": "function"
    },
    {
      "inputs": [
        {
          "internalType": "address",
          "name": "pauser",
          "type": "address"
        }
      ],
      "name": "addPauser",
      "outputs": [],
      "stateMutability": "nonpayable",
      "type": "function"
    },
    {
      "inputs": [
        {
          "internalType": "address",
          "name": "to",
          "type": "address"
        },
        {
          "internalType": "uint256",
          "name": "tokenId",
          "type": "uint256"
        }
      ],
      "name": "approve",
      "outputs": [],
      "stateMutability": "nonpayable",
      "type": "function"
    },
    {
      "inputs": [
        {
          "internalType": "address",
          "name": "owner",
          "type": "address"
        }
      ],
      "name": "balanceOf",
      "outputs": [
        {
          "internalType": "uint256",
          "name": "",
          "type": "uint256"
        }
      ],
      "stateMutability": "view",
      "type": "function"
    },
    {
      "inputs": [
        {
          "internalType": "uint256",
          "name": "tokenId",
          "type": "uint256"
        }
      ],
      "name": "burn",
      "outputs": [],
      "stateMutability": "nonpayable",
      "type": "function"
    },
    {
      "inputs": [
        {
          "internalType": "uint256",
          "name": "_itemIx",
          "type": "uint256"
        },
        {
          "internalType": "uint256",
          "name": "_amount",
          "type": "uint256"
        }
      ],
      "name": "buyItemEth",
      "outputs": [],
      "stateMutability": "payable",
      "type": "function"
    },
    {
      "inputs": [
        {
          "internalType": "uint256",
          "name": "_itemIx",
          "type": "uint256"
        },
        {
          "internalType": "uint256",
          "name": "_payment",
          "type": "uint256"
        },
        {
          "internalType": "uint256",
          "name": "_amount",
          "type": "uint256"
        }
      ],
      "name": "buyItemQuote",
      "outputs": [],
      "stateMutability": "payable",
      "type": "function"
    },
    {
      "inputs": [],
      "name": "feeRate",
      "outputs": [
        {
          "internalType": "uint256",
          "name": "",
          "type": "uint256"
        }
      ],
      "stateMutability": "view",
      "type": "function"
    },
    {
      "inputs": [
        {
          "internalType": "uint256",
          "name": "tokenId",
          "type": "uint256"
        }
      ],
      "name": "getApproved",
      "outputs": [
        {
          "internalType": "address",
          "name": "",
          "type": "address"
        }
      ],
      "stateMutability": "view",
      "type": "function"
    },
    {
      "inputs": [],
      "name": "getItemRemains",
      "outputs": [
        {
          "internalType": "uint256",
          "name": "",
          "type": "uint256"
        }
      ],
      "stateMutability": "view",
      "type": "function"
    },
    {
      "inputs": [
        {
          "internalType": "bytes32",
          "name": "role",
          "type": "bytes32"
        }
      ],
      "name": "getRoleAdmin",
      "outputs": [
        {
          "internalType": "bytes32",
          "name": "",
          "type": "bytes32"
        }
      ],
      "stateMutability": "view",
      "type": "function"
    },
    {
      "inputs": [],
      "name": "globalURI",
      "outputs": [
        {
          "internalType": "string",
          "name": "",
          "type": "string"
        }
      ],
      "stateMutability": "view",
      "type": "function"
    },
    {
      "inputs": [
        {
          "internalType": "bytes32",
          "name": "role",
          "type": "bytes32"
        },
        {
          "internalType": "address",
          "name": "account",
          "type": "address"
        }
      ],
      "name": "grantRole",
      "outputs": [],
      "stateMutability": "nonpayable",
      "type": "function"
    },
    {
      "inputs": [],
      "name": "hardCap",
      "outputs": [
        {
          "internalType": "uint256",
          "name": "",
          "type": "uint256"
        }
      ],
      "stateMutability": "view",
      "type": "function"
    },
    {
      "inputs": [
        {
          "internalType": "bytes32",
          "name": "role",
          "type": "bytes32"
        },
        {
          "internalType": "address",
          "name": "account",
          "type": "address"
        }
      ],
      "name": "hasRole",
      "outputs": [
        {
          "internalType": "bool",
          "name": "",
          "type": "bool"
        }
      ],
      "stateMutability": "view",
      "type": "function"
    },
    {
      "inputs": [
        {
          "internalType": "address",
          "name": "owner",
          "type": "address"
        },
        {
          "internalType": "address",
          "name": "operator",
          "type": "address"
        }
      ],
      "name": "isApprovedForAll",
      "outputs": [
        {
          "internalType": "bool",
          "name": "",
          "type": "bool"
        }
      ],
      "stateMutability": "view",
      "type": "function"
    },
    {
      "inputs": [
        {
          "internalType": "uint256",
          "name": "",
          "type": "uint256"
        }
      ],
      "name": "itemAmounts",
      "outputs": [
        {
          "internalType": "uint256",
          "name": "",
          "type": "uint256"
        }
      ],
      "stateMutability": "view",
      "type": "function"
    },
    {
      "inputs": [
        {
          "internalType": "uint256",
          "name": "",
          "type": "uint256"
        }
      ],
      "name": "itemPrices",
      "outputs": [
        {
          "internalType": "uint256",
          "name": "",
          "type": "uint256"
        }
      ],
      "stateMutability": "view",
      "type": "function"
    },
    {
      "inputs": [
        {
          "internalType": "uint256",
          "name": "",
          "type": "uint256"
        }
      ],
      "name": "itemSolds",
      "outputs": [
        {
          "internalType": "uint256",
          "name": "",
          "type": "uint256"
        }
      ],
      "stateMutability": "view",
      "type": "function"
    },
    {
      "inputs": [
        {
          "internalType": "uint256",
          "name": "",
          "type": "uint256"
        }
      ],
      "name": "itemURIs",
      "outputs": [
        {
          "internalType": "string",
          "name": "",
          "type": "string"
        }
      ],
      "stateMutability": "view",
      "type": "function"
    },
    {
      "inputs": [
        {
          "internalType": "uint256",
          "name": "",
          "type": "uint256"
        }
      ],
      "name": "items",
      "outputs": [
        {
          "internalType": "uint256",
          "name": "",
          "type": "uint256"
        }
      ],
      "stateMutability": "view",
      "type": "function"
    },
    {
      "inputs": [],
      "name": "launch",
      "outputs": [
        {
          "internalType": "uint256",
          "name": "",
          "type": "uint256"
        }
      ],
      "stateMutability": "view",
      "type": "function"
    },
    {
      "inputs": [],
      "name": "lockup",
      "outputs": [
        {
          "internalType": "uint256",
          "name": "",
          "type": "uint256"
        }
      ],
      "stateMutability": "view",
      "type": "function"
    },
    {
      "inputs": [],
      "name": "mysteryBox",
      "outputs": [
        {
          "internalType": "address",
          "name": "",
          "type": "address"
        }
      ],
      "stateMutability": "view",
      "type": "function"
    },
    {
      "inputs": [],
      "name": "name",
      "outputs": [
        {
          "internalType": "string",
          "name": "",
          "type": "string"
        }
      ],
      "stateMutability": "view",
      "type": "function"
    },
    {
      "inputs": [
        {
          "internalType": "address",
          "name": "operator",
          "type": "address"
        },
        {
          "internalType": "address",
          "name": "from",
          "type": "address"
        },
        {
          "internalType": "uint256",
          "name": "tokenId",
          "type": "uint256"
        },
        {
          "internalType": "bytes",
          "name": "data",
          "type": "bytes"
        }
      ],
      "name": "onERC721Received",
      "outputs": [
        {
          "internalType": "bytes4",
          "name": "",
          "type": "bytes4"
        }
      ],
      "stateMutability": "pure",
      "type": "function"
    },
    {
      "inputs": [],
      "name": "owner",
      "outputs": [
        {
          "internalType": "address",
          "name": "",
          "type": "address"
        }
      ],
      "stateMutability": "view",
      "type": "function"
    },
    {
      "inputs": [
        {
          "internalType": "uint256",
          "name": "tokenId",
          "type": "uint256"
        }
      ],
      "name": "ownerOf",
      "outputs": [
        {
          "internalType": "address",
          "name": "",
          "type": "address"
        }
      ],
      "stateMutability": "view",
      "type": "function"
    },
    {
      "inputs": [],
      "name": "pause",
      "outputs": [],
      "stateMutability": "nonpayable",
      "type": "function"
    },
    {
      "inputs": [],
      "name": "paused",
      "outputs": [
        {
          "internalType": "bool",
          "name": "",
          "type": "bool"
        }
      ],
      "stateMutability": "view",
      "type": "function"
    },
    {
      "inputs": [],
      "name": "payment",
      "outputs": [
        {
          "internalType": "address",
          "name": "",
          "type": "address"
        }
      ],
      "stateMutability": "view",
      "type": "function"
    },
    {
      "inputs": [],
      "name": "quote",
      "outputs": [
        {
          "internalType": "address",
          "name": "",
          "type": "address"
        }
      ],
      "stateMutability": "view",
      "type": "function"
    },
    {
      "inputs": [
        {
          "internalType": "string[]",
          "name": "uris",
          "type": "string[]"
        },
        {
          "internalType": "uint256[]",
          "name": "amounts",
          "type": "uint256[]"
        },
        {
          "internalType": "uint256[]",
          "name": "prices",
          "type": "uint256[]"
        }
      ],
      "name": "registerItems",
      "outputs": [],
      "stateMutability": "nonpayable",
      "type": "function"
    },
    {
      "inputs": [],
      "name": "renounceOwnership",
      "outputs": [],
      "stateMutability": "nonpayable",
      "type": "function"
    },
    {
      "inputs": [
        {
          "internalType": "bytes32",
          "name": "role",
          "type": "bytes32"
        },
        {
          "internalType": "address",
          "name": "account",
          "type": "address"
        }
      ],
      "name": "renounceRole",
      "outputs": [],
      "stateMutability": "nonpayable",
      "type": "function"
    },
    {
      "inputs": [
        {
          "internalType": "bytes32",
          "name": "role",
          "type": "bytes32"
        },
        {
          "internalType": "address",
          "name": "account",
          "type": "address"
        }
      ],
      "name": "revokeRole",
      "outputs": [],
      "stateMutability": "nonpayable",
      "type": "function"
    },
    {
      "inputs": [
        {
          "internalType": "address",
          "name": "to",
          "type": "address"
        },
        {
          "internalType": "string[]",
          "name": "uris",
          "type": "string[]"
        }
      ],
      "name": "safeBatchMint",
      "outputs": [],
      "stateMutability": "view",
      "type": "function"
    },
    {
      "inputs": [
        {
          "internalType": "address",
          "name": "to",
          "type": "address"
        },
        {
          "internalType": "string",
          "name": "uri",
          "type": "string"
        },
        {
          "internalType": "uint256",
          "name": "amount",
          "type": "uint256"
        }
      ],
      "name": "safeBatchMintLight",
      "outputs": [],
      "stateMutability": "nonpayable",
      "type": "function"
    },
    {
      "inputs": [
        {
          "internalType": "address",
          "name": "to",
          "type": "address"
        },
        {
          "internalType": "string",
          "name": "uri",
          "type": "string"
        }
      ],
      "name": "safeMint",
      "outputs": [
        {
          "internalType": "uint256",
          "name": "",
          "type": "uint256"
        }
      ],
      "stateMutability": "view",
      "type": "function"
    },
    {
      "inputs": [
        {
          "internalType": "address",
          "name": "to",
          "type": "address"
        }
      ],
      "name": "safeMintTo",
      "outputs": [],
      "stateMutability": "nonpayable",
      "type": "function"
    },
    {
      "inputs": [
        {
          "internalType": "address",
          "name": "from",
          "type": "address"
        },
        {
          "internalType": "address",
          "name": "to",
          "type": "address"
        },
        {
          "internalType": "uint256",
          "name": "tokenId",
          "type": "uint256"
        }
      ],
      "name": "safeTransferFrom",
      "outputs": [],
      "stateMutability": "nonpayable",
      "type": "function"
    },
    {
      "inputs": [
        {
          "internalType": "address",
          "name": "from",
          "type": "address"
        },
        {
          "internalType": "address",
          "name": "to",
          "type": "address"
        },
        {
          "internalType": "uint256",
          "name": "tokenId",
          "type": "uint256"
        },
        {
          "internalType": "bytes",
          "name": "_data",
          "type": "bytes"
        }
      ],
      "name": "safeTransferFrom",
      "outputs": [],
      "stateMutability": "nonpayable",
      "type": "function"
    },
    {
      "inputs": [
        {
          "internalType": "address",
          "name": "operator",
          "type": "address"
        },
        {
          "internalType": "bool",
          "name": "approved",
          "type": "bool"
        }
      ],
      "name": "setApprovalForAll",
      "outputs": [],
      "stateMutability": "nonpayable",
      "type": "function"
    },
    {
      "inputs": [
        {
          "internalType": "address",
          "name": "_payment",
          "type": "address"
        },
        {
          "internalType": "address",
          "name": "_treasury",
          "type": "address"
        },
        {
          "internalType": "uint256",
          "name": "_feeRate",
          "type": "uint256"
        }
      ],
      "name": "setConfig",
      "outputs": [],
      "stateMutability": "nonpayable",
      "type": "function"
    },
    {
      "inputs": [
        {
          "internalType": "uint256",
          "name": "_hardCap",
          "type": "uint256"
        },
        {
          "internalType": "string",
          "name": "_uri",
          "type": "string"
        }
      ],
      "name": "setHardCap",
      "outputs": [],
      "stateMutability": "nonpayable",
      "type": "function"
    },
    {
      "inputs": [
        {
          "internalType": "uint256",
          "name": "_launch",
          "type": "uint256"
        }
      ],
      "name": "setLaunch",
      "outputs": [],
      "stateMutability": "nonpayable",
      "type": "function"
    },
    {
      "inputs": [
        {
          "internalType": "uint256",
          "name": "_lockup",
          "type": "uint256"
        }
      ],
      "name": "setLockup",
      "outputs": [],
      "stateMutability": "nonpayable",
      "type": "function"
    },
    {
      "inputs": [
        {
          "internalType": "address",
          "name": "_mbox",
          "type": "address"
        }
      ],
      "name": "setMysteryBox",
      "outputs": [],
      "stateMutability": "nonpayable",
      "type": "function"
    },
    {
      "inputs": [
        {
          "internalType": "address",
          "name": "_quote",
          "type": "address"
        }
      ],
      "name": "setQuote",
      "outputs": [],
      "stateMutability": "nonpayable",
      "type": "function"
    },
    {
      "inputs": [
        {
          "internalType": "bytes4",
          "name": "interfaceId",
          "type": "bytes4"
        }
      ],
      "name": "supportsInterface",
      "outputs": [
        {
          "internalType": "bool",
          "name": "",
          "type": "bool"
        }
      ],
      "stateMutability": "view",
      "type": "function"
    },
    {
      "inputs": [],
      "name": "symbol",
      "outputs": [
        {
          "internalType": "string",
          "name": "",
          "type": "string"
        }
      ],
      "stateMutability": "view",
      "type": "function"
    },
    {
      "inputs": [
        {
          "internalType": "uint256",
          "name": "index",
          "type": "uint256"
        }
      ],
      "name": "tokenByIndex",
      "outputs": [
        {
          "internalType": "uint256",
          "name": "",
          "type": "uint256"
        }
      ],
      "stateMutability": "view",
      "type": "function"
    },
    {
      "inputs": [
        {
          "internalType": "address",
          "name": "owner",
          "type": "address"
        },
        {
          "internalType": "uint256",
          "name": "index",
          "type": "uint256"
        }
      ],
      "name": "tokenOfOwnerByIndex",
      "outputs": [
        {
          "internalType": "uint256",
          "name": "",
          "type": "uint256"
        }
      ],
      "stateMutability": "view",
      "type": "function"
    },
    {
      "inputs": [
        {
          "internalType": "uint256",
          "name": "tokenId",
          "type": "uint256"
        }
      ],
      "name": "tokenURI",
      "outputs": [
        {
          "internalType": "string",
          "name": "",
          "type": "string"
        }
      ],
      "stateMutability": "view",
      "type": "function"
    },
    {
      "inputs": [],
      "name": "totalItems",
      "outputs": [
        {
          "internalType": "uint256",
          "name": "",
          "type": "uint256"
        }
      ],
      "stateMutability": "view",
      "type": "function"
    },
    {
      "inputs": [],
      "name": "totalSupply",
      "outputs": [
        {
          "internalType": "uint256",
          "name": "",
          "type": "uint256"
        }
      ],
      "stateMutability": "view",
      "type": "function"
    },
    {
      "inputs": [
        {
          "internalType": "address",
          "name": "from",
          "type": "address"
        },
        {
          "internalType": "address",
          "name": "to",
          "type": "address"
        },
        {
          "internalType": "uint256",
          "name": "tokenId",
          "type": "uint256"
        }
      ],
      "name": "transferFrom",
      "outputs": [],
      "stateMutability": "nonpayable",
      "type": "function"
    },
    {
      "inputs": [
        {
          "internalType": "address",
          "name": "newOwner",
          "type": "address"
        }
      ],
      "name": "transferOwnership",
      "outputs": [],
      "stateMutability": "nonpayable",
      "type": "function"
    },
    {
      "inputs": [],
      "name": "treasury",
      "outputs": [
        {
          "internalType": "address",
          "name": "",
          "type": "address"
        }
      ],
      "stateMutability": "view",
      "type": "function"
    },
    {
      "inputs": [],
      "name": "unpause",
      "outputs": [],
      "stateMutability": "nonpayable",
      "type": "function"
    },
    {
      "stateMutability": "payable",
      "type": "receive"
    }
  ],
  "bytecode": "0x60806040526000600d819055601280546001600160a01b03191690556079556032607e556083805460ff191690553480156200003a57600080fd5b5060405162005248380380620052488339810160408190526200005d91620007d5565b8585818181600090805190602001906200007992919062000681565b5080516200008f90600190602084019062000681565b5050600b805460ff1916905550620000a73362000252565b620000b4600033620002ac565b620000cf6000805160206200520883398151915233620002ac565b620000ea6000805160206200522883398151915233620002ac565b505060016011558051600314620001485760405162461bcd60e51b815260206004820152601a60248201527f696e76616c696420636f6e6669672064617461206c656e67746800000000000060448201526064015b60405180910390fd5b62000155600033620002ac565b620001706000805160206200520883398151915233620002ac565b6200018b6000805160206200522883398151915233620002ac565b620001c581600081518110620001b157634e487b7160e01b600052603260045260246000fd5b60200260200101516200035160201b60201c565b620001ff81600181518110620001eb57634e487b7160e01b600052603260045260246000fd5b6020026020010151620003de60201b60201c565b6200023b8383836002815181106200022757634e487b7160e01b600052603260045260246000fd5b60200260200101516200046560201b60201c565b6200024684620005e1565b5050505050506200098f565b600b80546001600160a01b03838116610100818102610100600160a81b031985161790945560405193909204169182907f8be0079c531659141344cd1fd0a4f28419497f9722a3daafe3b4186f6b6457e090600090a35050565b6000828152600c602090815260408083206001600160a01b038516845290915290205460ff166200034d576000828152600c602090815260408083206001600160a01b03851684529091529020805460ff191660011790556200030c3390565b6001600160a01b0316816001600160a01b0316837f2f8788117e7eff1d82e926ec794901d17c78024a50270940304540a733656f0d60405160405180910390a45b5050565b600b546001600160a01b03610100909104163314620003a25760405162461bcd60e51b81526020600482018190526024820152600080516020620051e883398151915260448201526064016200013f565b607a8190556040518181527f7c8826e4db3679f20c86da0c68d37f9dbcd1d638c56717e014f93c56d14c02d1906020015b60405180910390a150565b600b546001600160a01b036101009091041633146200042f5760405162461bcd60e51b81526020600482018190526024820152600080516020620051e883398151915260448201526064016200013f565b607b8190556040518181527fa7ade4ab976b6643a971383d9822fb7c2fce66aa2e497d88c3b4f1475ea2b2e090602001620003d3565b600b546001600160a01b03610100909104163314620004b65760405162461bcd60e51b81526020600482018190526024820152600080516020620051e883398151915260448201526064016200013f565b6001600160a01b0383166200050e5760405162461bcd60e51b815260206004820152601760248201527f696e76616c6964207061796d656e74206164647265737300000000000000000060448201526064016200013f565b6001600160a01b038216620005665760405162461bcd60e51b815260206004820152601860248201527f696e76616c69642074726561737572792061646472657373000000000000000060448201526064016200013f565b607c80546001600160a01b038581166001600160a01b03199283168117909355607d8054918616919092168117909155607e83905560408051928352602083019190915281018290527fe2be3027f197494650b7a98fd1cae67dacf615bd1d8bb05102999676f11638669060600160405180910390a1505050565b600b546001600160a01b03610100909104163314620006325760405162461bcd60e51b81526020600482018190526024820152600080516020620051e883398151915260448201526064016200013f565b601280546001600160a01b0319166001600160a01b0383169081179091556040519081527fca92c759228172fe3894a344908fd20dfd37ba561b5af191f1f5b02ee03881fc90602001620003d3565b8280546200068f906200093c565b90600052602060002090601f016020900481019282620006b35760008555620006fe565b82601f10620006ce57805160ff1916838001178555620006fe565b82800160010185558215620006fe579182015b82811115620006fe578251825591602001919060010190620006e1565b506200070c92915062000710565b5090565b5b808211156200070c576000815560010162000711565b80516001600160a01b03811681146200073f57600080fd5b919050565b600082601f83011262000755578081fd5b81516001600160401b0381111562000771576200077162000979565b602062000787601f8301601f1916820162000909565b82815285828487010111156200079b578384fd5b835b83811015620007ba5785810183015182820184015282016200079d565b83811115620007cb57848385840101525b5095945050505050565b60008060008060008060c08789031215620007ee578182fd5b86516001600160401b038082111562000805578384fd5b620008138a838b0162000744565b97506020915081890151818111156200082a578485fd5b620008388b828c0162000744565b9750506200084960408a0162000727565b95506200085960608a0162000727565b94506200086960808a0162000727565b935060a0890151818111156200087d578384fd5b8901601f81018b136200088e578384fd5b805182811115620008a357620008a362000979565b8060051b9250620008b684840162000909565b8181528481019083860185850187018f1015620008d1578788fd5b8795505b83861015620008f5578051835260019590950194918601918601620008d5565b508096505050505050509295509295509295565b604051601f8201601f191681016001600160401b038111828210171562000934576200093462000979565b604052919050565b600181811c908216806200095157607f821691505b602082108114156200097357634e487b7160e01b600052602260045260246000fd5b50919050565b634e487b7160e01b600052604160045260246000fd5b614849806200099f6000396000f3fe6080604052600436106103bc5760003560e01c8063715018a6116101f2578063b5a87cc11161010d578063d3d3224a116100a0578063e985e9c51161006f578063e985e9c514610b01578063f2fde38b14610b4a578063f3c8dc5914610b6a578063fb86a40414610b8a57600080fd5b8063d3d3224a14610a88578063d539139314610a9d578063d547741f14610abf578063e63ab1e914610adf57600080fd5b8063bfb231d2116100dc578063bfb231d214610a08578063c38b761c14610a28578063c87b56dd14610a48578063d204c45e14610a6857600080fd5b8063b5a87cc114610988578063b88d4fde146109a8578063b9d6abe9146109c8578063bf91ad9e146109e857600080fd5b806391d1485411610185578063999b93af11610154578063999b93af14610913578063a217fddf14610933578063a22cb46514610948578063a2aa61eb1461096857600080fd5b806391d14854146108a857806395d89b41146108c8578063978bbdb9146108dd578063983b2d56146108f357600080fd5b806385be1b3b116101c157806385be1b3b146108325780638a55b866146108455780638da5cb5b14610865578063902835f61461088857600080fd5b8063715018a6146107c85780637b43b827146107dd57806382dc1ec4146107fd5780638456cb591461081d57600080fd5b806336568abe116102e25780635c975abb1161027557806361d027b31161024457806361d027b3146107485780636352211e146107685780636ae6b4591461078857806370a08231146107a857600080fd5b80635c975abb146106db5780635d1d37c3146106f35780635d814dea146107135780635dce73831461073357600080fd5b806342966c68116102b157806342966c681461065b57806342f6487a1461067b5780634f6ccce71461069b57806358dd6d95146106bb57600080fd5b806336568abe146105f35780633f4ba83a146106135780633f7d70551461062857806342842e0e1461063b57600080fd5b806318160ddd1161035a578063248a9ca311610329578063248a9ca31461056d5780632799276d1461059d5780632f2ff15d146105b35780632f745c59146105d357600080fd5b806318160ddd146104f857806321bae9e41461050d57806323b872dd1461052d578063244906591461054d57600080fd5b806306fdde031161039657806306fdde0314610437578063081812fc14610459578063095ea7b314610491578063150b7a02146104b357600080fd5b806301339c21146103c857806301ffc9a7146103f157806306490f471461042157600080fd5b366103c357005b600080fd5b3480156103d457600080fd5b506103de607a5481565b6040519081526020015b60405180910390f35b3480156103fd57600080fd5b5061041161040c3660046142f2565b610ba0565b60405190151581526020016103e8565b34801561042d57600080fd5b506103de607b5481565b34801561044357600080fd5b5061044c610bcb565b6040516103e891906144e5565b34801561046557600080fd5b506104796104743660046142b8565b610c5d565b6040516001600160a01b0390911681526020016103e8565b34801561049d57600080fd5b506104b16104ac3660046141f0565b610cea565b005b3480156104bf57600080fd5b506104df6104ce366004613fcd565b630a85bd0160e11b95945050505050565b6040516001600160e01b031990911681526020016103e8565b34801561050457600080fd5b506008546103de565b34801561051957600080fd5b506104b1610528366004613f46565b610e00565b34801561053957600080fd5b506104b1610548366004613f92565b610f4d565b34801561055957600080fd5b506104b1610568366004614342565b610f7f565b34801561057957600080fd5b506103de6105883660046142b8565b6000908152600c602052604090206001015490565b3480156105a957600080fd5b506103de60795481565b3480156105bf57600080fd5b506104b16105ce3660046142d0565b611007565b3480156105df57600080fd5b506103de6105ee3660046141f0565b61102c565b3480156105ff57600080fd5b506104b161060e3660046142d0565b6110c2565b34801561061f57600080fd5b506104b1611140565b6104b1610636366004614391565b611163565b34801561064757600080fd5b506104b1610656366004613f92565b6115b8565b34801561066757600080fd5b506104b16106763660046142b8565b6115d3565b34801561068757600080fd5b50607c54610479906001600160a01b031681565b3480156106a757600080fd5b506103de6106b63660046142b8565b61164a565b3480156106c757600080fd5b506104b16106d63660046140da565b6116eb565b3480156106e757600080fd5b50600b5460ff16610411565b3480156106ff57600080fd5b506104b161070e3660046142b8565b611736565b34801561071f57600080fd5b5061044c61072e3660046142b8565b6117a2565b34801561073f57600080fd5b506103de61184e565b34801561075457600080fd5b50607d54610479906001600160a01b031681565b34801561077457600080fd5b506104796107833660046142b8565b6118e3565b34801561079457600080fd5b506104b16107a33660046142b8565b61195a565b3480156107b457600080fd5b506103de6107c3366004613f46565b6119bf565b3480156107d457600080fd5b506104b1611a46565b3480156107e957600080fd5b506104b16107f8366004613f46565b611a82565b34801561080957600080fd5b506104b1610818366004613f46565b611b22565b34801561082957600080fd5b506104b1611bc8565b6104b1610840366004614370565b611be8565b34801561085157600080fd5b506103de6108603660046142b8565b611e5c565b34801561087157600080fd5b50600b5461010090046001600160a01b0316610479565b34801561089457600080fd5b506104b16108a3366004613f92565b611e7d565b3480156108b457600080fd5b506104116108c33660046142d0565b611fd4565b3480156108d457600080fd5b5061044c611fff565b3480156108e957600080fd5b506103de607e5481565b3480156108ff57600080fd5b506104b161090e366004613f46565b61200e565b34801561091f57600080fd5b50601254610479906001600160a01b031681565b34801561093f57600080fd5b506103de600081565b34801561095457600080fd5b506104b1610963366004614125565b6120b4565b34801561097457600080fd5b506104b1610983366004613f46565b6120bf565b34801561099457600080fd5b506104b16109a336600461419c565b61213d565b3480156109b457600080fd5b506104b16109c3366004614062565b6121cf565b3480156109d457600080fd5b506103de6109e33660046142b8565b612207565b3480156109f457600080fd5b506103de610a033660046142b8565b612217565b348015610a1457600080fd5b506103de610a233660046142b8565b612227565b348015610a3457600080fd5b50600f54610479906001600160a01b031681565b348015610a5457600080fd5b5061044c610a633660046142b8565b612237565b348015610a7457600080fd5b506103de610a8336600461415b565b612242565b348015610a9457600080fd5b5061044c61225c565b348015610aa957600080fd5b506103de6000805160206147f483398151915281565b348015610acb57600080fd5b506104b1610ada3660046142d0565b612269565b348015610aeb57600080fd5b506103de6000805160206147d483398151915281565b348015610b0d57600080fd5b50610411610b1c366004613f60565b6001600160a01b03918216600090815260056020908152604080832093909416825291909152205460ff1690565b348015610b5657600080fd5b506104b1610b65366004613f46565b61228e565b348015610b7657600080fd5b506104b1610b85366004614219565b61232c565b348015610b9657600080fd5b506103de600d5481565b60006001600160e01b031982166380ac58cd60e01b1480610bc55750610bc5826124e3565b92915050565b606060008054610bda90614709565b80601f0160208091040260200160405190810160405280929190818152602001828054610c0690614709565b8015610c535780601f10610c2857610100808354040283529160200191610c53565b820191906000526020600020905b815481529060010190602001808311610c3657829003601f168201915b5050505050905090565b6000610c6882612508565b610cce5760405162461bcd60e51b815260206004820152602c60248201527f4552433732313a20617070726f76656420717565727920666f72206e6f6e657860448201526b34b9ba32b73a103a37b5b2b760a11b60648201526084015b60405180910390fd5b506000908152600460205260409020546001600160a01b031690565b6000610cf5826118e3565b9050806001600160a01b0316836001600160a01b03161415610d635760405162461bcd60e51b815260206004820152602160248201527f4552433732313a20617070726f76616c20746f2063757272656e74206f776e656044820152603960f91b6064820152608401610cc5565b336001600160a01b0382161480610d7f5750610d7f8133610b1c565b610df15760405162461bcd60e51b815260206004820152603860248201527f4552433732313a20617070726f76652063616c6c6572206973206e6f74206f7760448201527f6e6572206e6f7220617070726f76656420666f7220616c6c00000000000000006064820152608401610cc5565b610dfb8383612525565b505050565b6000805160206147f4833981519152610e1881612593565b6000600e8054610e2790614709565b905011610e6e5760405162461bcd60e51b815260206004820152601560248201527411db1bd8985b08155492481a5cc81b9bdd081cd95d605a1b6044820152606401610cc5565b6001600160a01b038216610eb95760405162461bcd60e51b8152602060048201526012602482015271496e76616c696420746f206164647265737360701b6044820152606401610cc5565b610dfb82600e8054610eca90614709565b80601f0160208091040260200160405190810160405280929190818152602001828054610ef690614709565b8015610f435780601f10610f1857610100808354040283529160200191610f43565b820191906000526020600020905b815481529060010190602001808311610f2657829003601f168201915b5050505050612242565b610f58335b8261259d565b610f745760405162461bcd60e51b8152600401610cc5906145c0565b610dfb838383612687565b600b546001600160a01b03610100909104163314610faf5760405162461bcd60e51b8152600401610cc59061454a565b600d8290558051610fc790600e906020840190613c47565b507f57bbf0b7295e3c8587fe0fa3c76592771f6a96123bf723292fd0e3933436b71f600d54604051610ffb91815260200190565b60405180910390a15050565b6000828152600c602052604090206001015461102281612593565b610dfb838361282e565b6000611037836119bf565b82106110995760405162461bcd60e51b815260206004820152602b60248201527f455243373231456e756d657261626c653a206f776e657220696e646578206f7560448201526a74206f6620626f756e647360a81b6064820152608401610cc5565b506001600160a01b03919091166000908152600660209081526040808320938352929052205490565b6001600160a01b03811633146111325760405162461bcd60e51b815260206004820152602f60248201527f416363657373436f6e74726f6c3a2063616e206f6e6c792072656e6f756e636560448201526e103937b632b9903337b91039b2b63360891b6064820152608401610cc5565b61113c82826128b4565b5050565b6000805160206147d483398151915261115881612593565b61116061291b565b50565b6012546001600160a01b03166111af5760405162461bcd60e51b81526020600482015260116024820152702bb937b7339038bab7ba32903a37b5b2b760791b6044820152606401610cc5565b607a5442116112005760405162461bcd60e51b815260206004820152601b60248201527f4e6f7420796574206c61756e63682074696d65207265616368656400000000006044820152606401610cc5565b600082116112205760405162461bcd60e51b8152600401610cc59061457f565b61125e6082848154811061124457634e487b7160e01b600052603260045260246000fd5b9060005260206000200154826129ae90919063ffffffff16565b82146112ac5760405162461bcd60e51b815260206004820152601d60248201527f76616c756520616e6420616d6f756e74206973206e6f74206d617463680000006044820152606401610cc5565b6012546040516370a0823160e01b81523360048201526000916001600160a01b0316906370a082319060240160206040518083038186803b1580156112f057600080fd5b505afa158015611304573d6000803e3d6000fd5b505050506040513d601f19601f82011682018060405250810190611328919061432a565b90508281116113795760405162461bcd60e51b815260206004820152601b60248201527f6c61636b206f662071756f746520746f6b656e2062616c616e636500000000006044820152606401610cc5565b601254611391906001600160a01b03163330866129c1565b6000805b6080548110156113fa57808610156113e8576113e5608082815481106113cb57634e487b7160e01b600052603260045260246000fd5b906000526020600020015483612aff90919063ffffffff16565b91505b806113f28161473e565b915050611395565b5060005b8381101561153a576114396114326013886064811061142d57634e487b7160e01b600052603260045260246000fd5b015490565b8390612aff565b91506114f93383607f898154811061146157634e487b7160e01b600052603260045260246000fd5b90600052602060002001805461147690614709565b80601f01602080910402602001604051908101604052809291908181526020018280546114a290614709565b80156114ef5780601f106114c4576101008083540402835291602001916114ef565b820191906000526020600020905b8154815290600101906020018083116114d257829003601f168201915b5050505050612b0b565b506115286013876064811061151e57634e487b7160e01b600052603260045260246000fd5b0180546001019055565b806115328161473e565b9150506113fe565b506115458584612b22565b61158460016081878154811061156b57634e487b7160e01b600052603260045260246000fd5b9060005260206000200154612aff90919063ffffffff16565b608186815481106115a557634e487b7160e01b600052603260045260246000fd5b6000918252602090912001555050505050565b610dfb838383604051806020016040528060008152506121cf565b6115dc33610f52565b6116415760405162461bcd60e51b815260206004820152603060248201527f4552433732314275726e61626c653a2063616c6c6572206973206e6f74206f7760448201526f1b995c881b9bdc88185c1c1c9bdd995960821b6064820152608401610cc5565b61116081612c70565b600061165560085490565b82106116b85760405162461bcd60e51b815260206004820152602c60248201527f455243373231456e756d657261626c653a20676c6f62616c20696e646578206f60448201526b7574206f6620626f756e647360a01b6064820152608401610cc5565b600882815481106116d957634e487b7160e01b600052603260045260246000fd5b90600052602060002001549050919050565b6000805160206147f483398151915261170381612593565b60405162461bcd60e51b8152602060048201526008602482015267111a5cd8589b195960c21b6044820152606401610cc5565b600b546001600160a01b036101009091041633146117665760405162461bcd60e51b8152600401610cc59061454a565b607a8190556040518181527f7c8826e4db3679f20c86da0c68d37f9dbcd1d638c56717e014f93c56d14c02d1906020015b60405180910390a150565b607f81815481106117b257600080fd5b9060005260206000200160009150905080546117cd90614709565b80601f01602080910402602001604051908101604052809291908181526020018280546117f990614709565b80156118465780601f1061181b57610100808354040283529160200191611846565b820191906000526020600020905b81548152906001019060200180831161182957829003601f168201915b505050505081565b600080805b6080548110156118dd576118c96114326081838154811061188457634e487b7160e01b600052603260045260246000fd5b9060005260206000200154608084815481106118b057634e487b7160e01b600052603260045260246000fd5b9060005260206000200154612c7990919063ffffffff16565b9150806118d58161473e565b915050611853565b50919050565b6000818152600260205260408120546001600160a01b031680610bc55760405162461bcd60e51b815260206004820152602960248201527f4552433732313a206f776e657220717565727920666f72206e6f6e657869737460448201526832b73a103a37b5b2b760b91b6064820152608401610cc5565b600b546001600160a01b0361010090910416331461198a5760405162461bcd60e51b8152600401610cc59061454a565b607b8190556040518181527fa7ade4ab976b6643a971383d9822fb7c2fce66aa2e497d88c3b4f1475ea2b2e090602001611797565b60006001600160a01b038216611a2a5760405162461bcd60e51b815260206004820152602a60248201527f4552433732313a2062616c616e636520717565727920666f7220746865207a65604482015269726f206164647265737360b01b6064820152608401610cc5565b506001600160a01b031660009081526003602052604090205490565b600b546001600160a01b03610100909104163314611a765760405162461bcd60e51b8152600401610cc59061454a565b611a806000612c85565b565b600b546001600160a01b03610100909104163314611ab25760405162461bcd60e51b8152600401610cc59061454a565b600f80546001600160a01b0319166001600160a01b038316179055611ae56000805160206147f48339815191528261282e565b600f546040516001600160a01b0390911681527f329b1203fc60a62c4a0fd3ff1554a07f92a2f117cc590422dd105811bb484ded90602001611797565b600b546001600160a01b03610100909104163314611b525760405162461bcd60e51b8152600401610cc59061454a565b611b6a6000805160206147d48339815191528261282e565b604080516001600160a01b038316815260208101829052600b918101919091526a5041555345525f524f4c4560a81b60608201527f0578acc86b18d67c13a5e6eed8c670fb7052f530b48a2acb167d6ca77509a38490608001611797565b6000805160206147d4833981519152611be081612593565b611160612cdf565b6012546001600160a01b031615611c355760405162461bcd60e51b81526020600482015260116024820152702bb937b7339038bab7ba32903a37b5b2b760791b6044820152606401610cc5565b607a544211611c865760405162461bcd60e51b815260206004820152601b60248201527f4e6f7420796574206c61756e63682074696d65207265616368656400000000006044820152606401610cc5565b60003411611ca65760405162461bcd60e51b8152600401610cc59061457f565b611cca6082838154811061124457634e487b7160e01b600052603260045260246000fd5b3414611d185760405162461bcd60e51b815260206004820152601d60248201527f76616c756520616e6420616d6f756e74206973206e6f74206d617463680000006044820152606401610cc5565b6000805b608054811015611d675780841015611d5557611d52608082815481106113cb57634e487b7160e01b600052603260045260246000fd5b91505b80611d5f8161473e565b915050611d1c565b5060005b82811015611df957611d9a6114326013866064811061142d57634e487b7160e01b600052603260045260246000fd5b9150611dc23383607f878154811061146157634e487b7160e01b600052603260045260246000fd5b50611de76013856064811061151e57634e487b7160e01b600052603260045260246000fd5b80611df18161473e565b915050611d6b565b50611e048383612b22565b611e2a60016081858154811061156b57634e487b7160e01b600052603260045260246000fd5b60818481548110611e4b57634e487b7160e01b600052603260045260246000fd5b600091825260209091200155505050565b60808181548110611e6c57600080fd5b600091825260209091200154905081565b600b546001600160a01b03610100909104163314611ead5760405162461bcd60e51b8152600401610cc59061454a565b6001600160a01b038316611f035760405162461bcd60e51b815260206004820152601760248201527f696e76616c6964207061796d656e7420616464726573730000000000000000006044820152606401610cc5565b6001600160a01b038216611f595760405162461bcd60e51b815260206004820152601860248201527f696e76616c6964207472656173757279206164647265737300000000000000006044820152606401610cc5565b607c80546001600160a01b038581166001600160a01b03199283168117909355607d8054918616919092168117909155607e83905560408051928352602083019190915281018290527fe2be3027f197494650b7a98fd1cae67dacf615bd1d8bb05102999676f11638669060600160405180910390a1505050565b6000918252600c602090815260408084206001600160a01b0393909316845291905290205460ff1690565b606060018054610bda90614709565b600b546001600160a01b0361010090910416331461203e5760405162461bcd60e51b8152600401610cc59061454a565b6120566000805160206147f48339815191528261282e565b604080516001600160a01b038316815260208101829052600b918101919091526a4d494e5445525f524f4c4560a81b60608201527f0578acc86b18d67c13a5e6eed8c670fb7052f530b48a2acb167d6ca77509a38490608001611797565b61113c338383612d5a565b600b546001600160a01b036101009091041633146120ef5760405162461bcd60e51b8152600401610cc59061454a565b601280546001600160a01b0319166001600160a01b0383169081179091556040519081527fca92c759228172fe3894a344908fd20dfd37ba561b5af191f1f5b02ee03881fc90602001611797565b6000805160206147f483398151915261215581612593565b6001600160a01b0384166121a05760405162461bcd60e51b8152602060048201526012602482015271496e76616c696420746f206164647265737360701b6044820152606401610cc5565b60005b828110156121c8576121b58585612242565b50806121c08161473e565b9150506121a3565b5050505050565b6121d9338361259d565b6121f55760405162461bcd60e51b8152600401610cc5906145c0565b61220184848484612e29565b50505050565b60818181548110611e6c57600080fd5b60828181548110611e6c57600080fd5b60788181548110611e6c57600080fd5b6060610bc582612e5c565b60006000805160206147f483398151915261170381612593565b600e80546117cd90614709565b6000828152600c602052604090206001015461228481612593565b610dfb83836128b4565b600b546001600160a01b036101009091041633146122be5760405162461bcd60e51b8152600401610cc59061454a565b6001600160a01b0381166123235760405162461bcd60e51b815260206004820152602660248201527f4f776e61626c653a206e6577206f776e657220697320746865207a65726f206160448201526564647265737360d01b6064820152608401610cc5565b61116081612c85565b6000805160206147f483398151915261234481612593565b60835460ff16156123975760405162461bcd60e51b815260206004820152601860248201527f4974656d7320616c7265616479207265676973746572656400000000000000006044820152606401610cc5565b82518451146123e05760405162461bcd60e51b8152602060048201526015602482015274082e4e4c2f240d8cadccee8d040dad2e6dac2e8c6d605b1b6044820152606401610cc5565b82516123f3906080906020860190613ccb565b50835161240790607f906020870190613d05565b50815161241b906082906020850190613ccb565b5060005b84518110156124cf5761246484828151811061244b57634e487b7160e01b600052603260045260246000fd5b6020026020010151607954612aff90919063ffffffff16565b60795561248b6013826064811061151e57634e487b7160e01b600052603260045260246000fd5b6081805460018101825560009182527f76fce494794d92ac286b20d6126fc49ecb9cca2fa94b5c726f6ec1109b8914140155806124c78161473e565b91505061241f565b50506083805460ff19166001179055505050565b60006001600160e01b03198216637965db0b60e01b1480610bc55750610bc582612fcb565b6000908152600260205260409020546001600160a01b0316151590565b600081815260046020526040902080546001600160a01b0319166001600160a01b038416908117909155819061255a826118e3565b6001600160a01b03167f8c5be1e5ebec7d5bd14f71427d1e84f3dd0314c0f7b2291e5b200ac8c7c3b92560405160405180910390a45050565b6111608133612ff0565b60006125a882612508565b6126095760405162461bcd60e51b815260206004820152602c60248201527f4552433732313a206f70657261746f7220717565727920666f72206e6f6e657860448201526b34b9ba32b73a103a37b5b2b760a11b6064820152608401610cc5565b6000612614836118e3565b9050806001600160a01b0316846001600160a01b0316148061265b57506001600160a01b0380821660009081526005602090815260408083209388168352929052205460ff165b8061267f5750836001600160a01b031661267484610c5d565b6001600160a01b0316145b949350505050565b826001600160a01b031661269a826118e3565b6001600160a01b0316146126fe5760405162461bcd60e51b815260206004820152602560248201527f4552433732313a207472616e736665722066726f6d20696e636f72726563742060448201526437bbb732b960d91b6064820152608401610cc5565b6001600160a01b0382166127605760405162461bcd60e51b8152602060048201526024808201527f4552433732313a207472616e7366657220746f20746865207a65726f206164646044820152637265737360e01b6064820152608401610cc5565b61276b838383613054565b612776600082612525565b6001600160a01b038316600090815260036020526040812080546001929061279f9084906146af565b90915550506001600160a01b03821660009081526003602052604081208054600192906127cd908490614664565b909155505060008181526002602052604080822080546001600160a01b0319166001600160a01b0386811691821790925591518493918716917fddf252ad1be2c89b69c2b068fc378daa952ba7f163c4a11628f55a4df523b3ef91a4505050565b6128388282611fd4565b61113c576000828152600c602090815260408083206001600160a01b03851684529091529020805460ff191660011790556128703390565b6001600160a01b0316816001600160a01b0316837f2f8788117e7eff1d82e926ec794901d17c78024a50270940304540a733656f0d60405160405180910390a45050565b6128be8282611fd4565b1561113c576000828152600c602090815260408083206001600160a01b0385168085529252808320805460ff1916905551339285917ff6391f5c32d9c69d2a47ea670b442974b53935d1edc7fd64eb21e047a839171b9190a45050565b600b5460ff166129645760405162461bcd60e51b815260206004820152601460248201527314185d5cd8589b194e881b9bdd081c185d5cd95960621b6044820152606401610cc5565b600b805460ff191690557f5db9ee0a495bf2e6ff9c91a7834c1ba4fdd244a5e8aa4e537bd38aeae4b073aa335b6040516001600160a01b03909116815260200160405180910390a1565b60006129ba8284614690565b9392505050565b604080516001600160a01b0385811660248301528481166044830152606480830185905283518084039091018152608490920183526020820180516001600160e01b03166323b872dd60e01b1790529151600092839290881691612a2591906143e8565b6000604051808303816000865af19150503d8060008114612a62576040519150601f19603f3d011682016040523d82523d6000602084013e612a67565b606091505b5091509150818015612a91575080511580612a91575080806020019051810190612a91919061429c565b612af75760405162461bcd60e51b815260206004820152603160248201527f5472616e7366657248656c7065723a3a7472616e7366657246726f6d3a207472604482015270185b9cd9995c919c9bdb4819985a5b1959607a1b6064820152608401610cc5565b505050505050565b60006129ba8284614664565b600080612b198585856130a5565b95945050505050565b607c546001600160a01b0316612b7a5760405162461bcd60e51b815260206004820152601a60248201527f7061796d656e742061646472657373206973206e6f74207365740000000000006044820152606401610cc5565b6000612bba60828481548110612ba057634e487b7160e01b600052603260045260246000fd5b9060005260206000200154836129ae90919063ffffffff16565b90506000612bdf6103e8612bd9607e54856129ae90919063ffffffff16565b906130c3565b90506000612bed8383612c79565b6012549091506001600160a01b031615612c4457601254607d54612c20916001600160a01b0390811691309116856129c1565b601254607c54612c3f916001600160a01b0390811691309116846129c1565b6121c8565b607d54612c5a906001600160a01b0316836130cf565b607c546121c8906001600160a01b0316826130cf565b611160816131a9565b60006129ba82846146af565b600b80546001600160a01b03838116610100818102610100600160a81b031985161790945560405193909204169182907f8be0079c531659141344cd1fd0a4f28419497f9722a3daafe3b4186f6b6457e090600090a35050565b600b5460ff1615612d255760405162461bcd60e51b815260206004820152601060248201526f14185d5cd8589b194e881c185d5cd95960821b6044820152606401610cc5565b600b805460ff191660011790557f62e78cea01bee320cd4e420270b5ea74000d11b0c9f74754ebdbfc544b05a2586129913390565b816001600160a01b0316836001600160a01b03161415612dbc5760405162461bcd60e51b815260206004820152601960248201527f4552433732313a20617070726f766520746f2063616c6c6572000000000000006044820152606401610cc5565b6001600160a01b03838116600081815260056020908152604080832094871680845294825291829020805460ff191686151590811790915591519182527f17307eab39ab6107e8899845ad3d59bd9653f200f220920489ca2b5937696c31910160405180910390a3505050565b612e34848484612687565b612e40848484846131e9565b6122015760405162461bcd60e51b8152600401610cc5906144f8565b6060612e6782612508565b612ecd5760405162461bcd60e51b815260206004820152603160248201527f45524337323155524953746f726167653a2055524920717565727920666f72206044820152703737b732bc34b9ba32b73a103a37b5b2b760791b6064820152608401610cc5565b6000828152600a602052604081208054612ee690614709565b80601f0160208091040260200160405190810160405280929190818152602001828054612f1290614709565b8015612f5f5780601f10612f3457610100808354040283529160200191612f5f565b820191906000526020600020905b815481529060010190602001808311612f4257829003601f168201915b505050505090506000612f7d60408051602081019091526000815290565b9050805160001415612f90575092915050565b815115612fc2578082604051602001612faa929190614404565b60405160208183030381529060405292505050919050565b61267f846132f6565b60006001600160e01b0319821663780e9d6360e01b1480610bc55750610bc5826133cd565b612ffa8282611fd4565b61113c57613012816001600160a01b0316601461341d565b61301d83602061341d565b60405160200161302e929190614433565b60408051601f198184030181529082905262461bcd60e51b8252610cc5916004016144e5565b600b5460ff161561309a5760405162461bcd60e51b815260206004820152601060248201526f14185d5cd8589b194e881c185d5cd95960821b6044820152606401610cc5565b610dfb8383836135fe565b60006130b184846136b6565b6130bb83836136d0565b509092915050565b60006129ba828461467c565b604080516000808252602082019092526001600160a01b0384169083906040516130f991906143e8565b60006040518083038185875af1925050503d8060008114613136576040519150601f19603f3d011682016040523d82523d6000602084013e61313b565b606091505b5050905080610dfb5760405162461bcd60e51b815260206004820152603460248201527f5472616e7366657248656c7065723a3a736166655472616e736665724554483a60448201527308115512081d1c985b9cd9995c8819985a5b195960621b6064820152608401610cc5565b6131b28161375b565b6000818152600a6020526040902080546131cb90614709565b159050611160576000818152600a6020526040812061116091613d5e565b60006001600160a01b0384163b156132eb57604051630a85bd0160e11b81526001600160a01b0385169063150b7a029061322d9033908990889088906004016144a8565b602060405180830381600087803b15801561324757600080fd5b505af1925050508015613277575060408051601f3d908101601f191682019092526132749181019061430e565b60015b6132d1573d8080156132a5576040519150601f19603f3d011682016040523d82523d6000602084013e6132aa565b606091505b5080516132c95760405162461bcd60e51b8152600401610cc5906144f8565b805181602001fd5b6001600160e01b031916630a85bd0160e11b14905061267f565b506001949350505050565b606061330182612508565b6133655760405162461bcd60e51b815260206004820152602f60248201527f4552433732314d657461646174613a2055524920717565727920666f72206e6f60448201526e3732bc34b9ba32b73a103a37b5b2b760891b6064820152608401610cc5565b600061337c60408051602081019091526000815290565b9050600081511161339c57604051806020016040528060008152506129ba565b806133a684613802565b6040516020016133b7929190614404565b6040516020818303038152906040529392505050565b60006001600160e01b031982166380ac58cd60e01b14806133fe57506001600160e01b03198216635b5e139f60e01b145b80610bc557506301ffc9a760e01b6001600160e01b0319831614610bc5565b6060600061342c836002614690565b613437906002614664565b6001600160401b0381111561345c57634e487b7160e01b600052604160045260246000fd5b6040519080825280601f01601f191660200182016040528015613486576020820181803683370190505b509050600360fc1b816000815181106134af57634e487b7160e01b600052603260045260246000fd5b60200101906001600160f81b031916908160001a905350600f60fb1b816001815181106134ec57634e487b7160e01b600052603260045260246000fd5b60200101906001600160f81b031916908160001a9053506000613510846002614690565b61351b906001614664565b90505b60018111156135af576f181899199a1a9b1b9c1cb0b131b232b360811b85600f166010811061355d57634e487b7160e01b600052603260045260246000fd5b1a60f81b82828151811061358157634e487b7160e01b600052603260045260246000fd5b60200101906001600160f81b031916908160001a90535060049490941c936135a8816146f2565b905061351e565b5083156129ba5760405162461bcd60e51b815260206004820181905260248201527f537472696e67733a20686578206c656e67746820696e73756666696369656e746044820152606401610cc5565b6001600160a01b0383166136595761365481600880546000838152600960205260408120829055600182018355919091527ff3f7a9fe364faab93b216da50a3214154f22a0a2b415b23a84c8169e8b636ee30155565b61367c565b816001600160a01b0316836001600160a01b03161461367c5761367c838261391b565b6001600160a01b03821661369357610dfb816139b8565b826001600160a01b0316826001600160a01b031614610dfb57610dfb8282613a91565b61113c828260405180602001604052806000815250613ad5565b6136d982612508565b61373c5760405162461bcd60e51b815260206004820152602e60248201527f45524337323155524953746f726167653a2055524920736574206f66206e6f6e60448201526d32bc34b9ba32b73a103a37b5b2b760911b6064820152608401610cc5565b6000828152600a602090815260409091208251610dfb92840190613c47565b6000613766826118e3565b905061377481600084613054565b61377f600083612525565b6001600160a01b03811660009081526003602052604081208054600192906137a89084906146af565b909155505060008281526002602052604080822080546001600160a01b0319169055518391906001600160a01b038416907fddf252ad1be2c89b69c2b068fc378daa952ba7f163c4a11628f55a4df523b3ef908390a45050565b6060816138265750506040805180820190915260018152600360fc1b602082015290565b8160005b8115613850578061383a8161473e565b91506138499050600a8361467c565b915061382a565b6000816001600160401b0381111561387857634e487b7160e01b600052604160045260246000fd5b6040519080825280601f01601f1916602001820160405280156138a2576020820181803683370190505b5090505b841561267f576138b76001836146af565b91506138c4600a86614759565b6138cf906030614664565b60f81b8183815181106138f257634e487b7160e01b600052603260045260246000fd5b60200101906001600160f81b031916908160001a905350613914600a8661467c565b94506138a6565b60006001613928846119bf565b61393291906146af565b600083815260076020526040902054909150808214613985576001600160a01b03841660009081526006602090815260408083208584528252808320548484528184208190558352600790915290208190555b5060009182526007602090815260408084208490556001600160a01b039094168352600681528383209183525290812055565b6008546000906139ca906001906146af565b60008381526009602052604081205460088054939450909284908110613a0057634e487b7160e01b600052603260045260246000fd5b906000526020600020015490508060088381548110613a2f57634e487b7160e01b600052603260045260246000fd5b6000918252602080832090910192909255828152600990915260408082208490558582528120556008805480613a7557634e487b7160e01b600052603160045260246000fd5b6001900381819060005260206000200160009055905550505050565b6000613a9c836119bf565b6001600160a01b039093166000908152600660209081526040808320868452825280832085905593825260079052919091209190915550565b613adf8383613b08565b613aec60008484846131e9565b610dfb5760405162461bcd60e51b8152600401610cc5906144f8565b6001600160a01b038216613b5e5760405162461bcd60e51b815260206004820181905260248201527f4552433732313a206d696e7420746f20746865207a65726f20616464726573736044820152606401610cc5565b613b6781612508565b15613bb45760405162461bcd60e51b815260206004820152601c60248201527f4552433732313a20746f6b656e20616c7265616479206d696e746564000000006044820152606401610cc5565b613bc060008383613054565b6001600160a01b0382166000908152600360205260408120805460019290613be9908490614664565b909155505060008181526002602052604080822080546001600160a01b0319166001600160a01b03861690811790915590518392907fddf252ad1be2c89b69c2b068fc378daa952ba7f163c4a11628f55a4df523b3ef908290a45050565b828054613c5390614709565b90600052602060002090601f016020900481019282613c755760008555613cbb565b82601f10613c8e57805160ff1916838001178555613cbb565b82800160010185558215613cbb579182015b82811115613cbb578251825591602001919060010190613ca0565b50613cc7929150613d94565b5090565b828054828255906000526020600020908101928215613cbb5791602002820182811115613cbb578251825591602001919060010190613ca0565b828054828255906000526020600020908101928215613d52579160200282015b82811115613d525782518051613d42918491602090910190613c47565b5091602001919060010190613d25565b50613cc7929150613da9565b508054613d6a90614709565b6000825580601f10613d7a575050565b601f01602090049060005260206000209081019061116091905b5b80821115613cc75760008155600101613d95565b80821115613cc7576000613dbd8282613d5e565b50600101613da9565b60006001600160401b03831115613ddf57613ddf614799565b613df2601f8401601f1916602001614611565b9050828152838383011115613e0657600080fd5b828260208301376000602084830101529392505050565b80356001600160a01b0381168114613e3457600080fd5b919050565b600082601f830112613e49578081fd5b81356020613e5e613e5983614641565b614611565b80838252828201915082860187848660051b8901011115613e7d578586fd5b855b85811015613ebd5781356001600160401b03811115613e9c578788fd5b613eaa8a87838c0101613f27565b8552509284019290840190600101613e7f565b5090979650505050505050565b600082601f830112613eda578081fd5b81356020613eea613e5983614641565b80838252828201915082860187848660051b8901011115613f09578586fd5b855b85811015613ebd57813584529284019290840190600101613f0b565b600082601f830112613f37578081fd5b6129ba83833560208501613dc6565b600060208284031215613f57578081fd5b6129ba82613e1d565b60008060408385031215613f72578081fd5b613f7b83613e1d565b9150613f8960208401613e1d565b90509250929050565b600080600060608486031215613fa6578081fd5b613faf84613e1d565b9250613fbd60208501613e1d565b9150604084013590509250925092565b600080600080600060808688031215613fe4578081fd5b613fed86613e1d565b9450613ffb60208701613e1d565b93506040860135925060608601356001600160401b038082111561401d578283fd5b818801915088601f830112614030578283fd5b81358181111561403e578384fd5b89602082850101111561404f578384fd5b9699959850939650602001949392505050565b60008060008060808587031215614077578384fd5b61408085613e1d565b935061408e60208601613e1d565b92506040850135915060608501356001600160401b038111156140af578182fd5b8501601f810187136140bf578182fd5b6140ce87823560208401613dc6565b91505092959194509250565b600080604083850312156140ec578182fd5b6140f583613e1d565b915060208301356001600160401b0381111561410f578182fd5b61411b85828601613e39565b9150509250929050565b60008060408385031215614137578182fd5b61414083613e1d565b91506020830135614150816147af565b809150509250929050565b6000806040838503121561416d578182fd5b61417683613e1d565b915060208301356001600160401b03811115614190578182fd5b61411b85828601613f27565b6000806000606084860312156141b0578081fd5b6141b984613e1d565b925060208401356001600160401b038111156141d3578182fd5b6141df86828701613f27565b925050604084013590509250925092565b60008060408385031215614202578182fd5b61420b83613e1d565b946020939093013593505050565b60008060006060848603121561422d578081fd5b83356001600160401b0380821115614243578283fd5b61424f87838801613e39565b94506020860135915080821115614264578283fd5b61427087838801613eca565b93506040860135915080821115614285578283fd5b5061429286828701613eca565b9150509250925092565b6000602082840312156142ad578081fd5b81516129ba816147af565b6000602082840312156142c9578081fd5b5035919050565b600080604083850312156142e2578182fd5b82359150613f8960208401613e1d565b600060208284031215614303578081fd5b81356129ba816147bd565b60006020828403121561431f578081fd5b81516129ba816147bd565b60006020828403121561433b578081fd5b5051919050565b60008060408385031215614354578182fd5b8235915060208301356001600160401b03811115614190578182fd5b60008060408385031215614382578182fd5b50508035926020909101359150565b6000806000606084860312156143a5578081fd5b505081359360208301359350604090920135919050565b600081518084526143d48160208601602086016146c6565b601f01601f19169290920160200192915050565b600082516143fa8184602087016146c6565b9190910192915050565b600083516144168184602088016146c6565b83519083019061442a8183602088016146c6565b01949350505050565b7f416363657373436f6e74726f6c3a206163636f756e742000000000000000000081526000835161446b8160178501602088016146c6565b7001034b99036b4b9b9b4b733903937b6329607d1b601791840191820152835161449c8160288401602088016146c6565b01602801949350505050565b6001600160a01b03858116825284166020820152604081018390526080606082018190526000906144db908301846143bc565b9695505050505050565b6020815260006129ba60208301846143bc565b60208082526032908201527f4552433732313a207472616e7366657220746f206e6f6e20455243373231526560408201527131b2b4bb32b91034b6b83632b6b2b73a32b960711b606082015260800190565b6020808252818101527f4f776e61626c653a2063616c6c6572206973206e6f7420746865206f776e6572604082015260600190565b60208082526021908201527f76616c75652073686f756c642062652067726561746572207468616e207a65726040820152606f60f81b606082015260800190565b60208082526031908201527f4552433732313a207472616e736665722063616c6c6572206973206e6f74206f6040820152701ddb995c881b9bdc88185c1c1c9bdd9959607a1b606082015260800190565b604051601f8201601f191681016001600160401b038111828210171561463957614639614799565b604052919050565b60006001600160401b0382111561465a5761465a614799565b5060051b60200190565b600082198211156146775761467761476d565b500190565b60008261468b5761468b614783565b500490565b60008160001904831182151516156146aa576146aa61476d565b500290565b6000828210156146c1576146c161476d565b500390565b60005b838110156146e15781810151838201526020016146c9565b838111156122015750506000910152565b6000816147015761470161476d565b506000190190565b600181811c9082168061471d57607f821691505b602082108114156118dd57634e487b7160e01b600052602260045260246000fd5b60006000198214156147525761475261476d565b5060010190565b60008261476857614768614783565b500690565b634e487b7160e01b600052601160045260246000fd5b634e487b7160e01b600052601260045260246000fd5b634e487b7160e01b600052604160045260246000fd5b801515811461116057600080fd5b6001600160e01b03198116811461116057600080fdfe65d7a28e3265b37a6474929f336521b332c1681b933f6cb9f3376673440d862a9f2df0fed2c77648de5860a4cc508cd0818c85b8b8a1ab4ceeef8d981c8956a6a2646970667358221220647096b034d791ada68210fd68856af21a5ca52aec8057e9c891fcc933d47efd64736f6c634300080400334f776e61626c653a2063616c6c6572206973206e6f7420746865206f776e657265d7a28e3265b37a6474929f336521b332c1681b933f6cb9f3376673440d862a9f2df0fed2c77648de5860a4cc508cd0818c85b8b8a1ab4ceeef8d981c8956a6",
  "linkReferences": {},
  "deployedLinkReferences": {}
}