{
  "_format": "hh-sol-artifact-1",
  "contractName": "Collection",
  "sourceName": "contracts/Collection.sol",
  "abi": [
    {
      "inputs": [
        {
          "internalType": "string",
          "name": "name",
          "type": "string"
        },
        {
          "internalType": "string",
          "name": "symbol",
          "type": "string"
        },
        {
          "internalType": "address",
          "name": "_quote",
          "type": "address"
        },
        {
          "internalType": "address",
          "name": "_payment",
          "type": "address"
        },
        {
          "internalType": "address",
          "name": "_treasury",
          "type": "address"
        },
        {
          "internalType": "uint256[]",
          "name": "configValues",
          "type": "uint256[]"
        }
      ],
      "stateMutability": "nonpayable",
      "type": "constructor"
    },
    {
      "anonymous": false,
      "inputs": [
        {
          "indexed": true,
          "internalType": "address",
          "name": "owner",
          "type": "address"
        },
        {
          "indexed": true,
          "internalType": "address",
          "name": "approved",
          "type": "address"
        },
        {
          "indexed": true,
          "internalType": "uint256",
          "name": "tokenId",
          "type": "uint256"
        }
      ],
      "name": "Approval",
      "type": "event"
    },
    {
      "anonymous": false,
      "inputs": [
        {
          "indexed": true,
          "internalType": "address",
          "name": "owner",
          "type": "address"
        },
        {
          "indexed": true,
          "internalType": "address",
          "name": "operator",
          "type": "address"
        },
        {
          "indexed": false,
          "internalType": "bool",
          "name": "approved",
          "type": "bool"
        }
      ],
      "name": "ApprovalForAll",
      "type": "event"
    },
    {
      "anonymous": false,
      "inputs": [
        {
          "indexed": false,
          "internalType": "address",
          "name": "",
          "type": "address"
        },
        {
          "indexed": false,
          "internalType": "string",
          "name": "",
          "type": "string"
        }
      ],
      "name": "Grant",
      "type": "event"
    },
    {
      "anonymous": false,
      "inputs": [
        {
          "indexed": true,
          "internalType": "address",
          "name": "previousOwner",
          "type": "address"
        },
        {
          "indexed": true,
          "internalType": "address",
          "name": "newOwner",
          "type": "address"
        }
      ],
      "name": "OwnershipTransferred",
      "type": "event"
    },
    {
      "anonymous": false,
      "inputs": [
        {
          "indexed": false,
          "internalType": "address",
          "name": "account",
          "type": "address"
        }
      ],
      "name": "Paused",
      "type": "event"
    },
    {
      "anonymous": false,
      "inputs": [
        {
          "indexed": true,
          "internalType": "bytes32",
          "name": "role",
          "type": "bytes32"
        },
        {
          "indexed": true,
          "internalType": "bytes32",
          "name": "previousAdminRole",
          "type": "bytes32"
        },
        {
          "indexed": true,
          "internalType": "bytes32",
          "name": "newAdminRole",
          "type": "bytes32"
        }
      ],
      "name": "RoleAdminChanged",
      "type": "event"
    },
    {
      "anonymous": false,
      "inputs": [
        {
          "indexed": true,
          "internalType": "bytes32",
          "name": "role",
          "type": "bytes32"
        },
        {
          "indexed": true,
          "internalType": "address",
          "name": "account",
          "type": "address"
        },
        {
          "indexed": true,
          "internalType": "address",
          "name": "sender",
          "type": "address"
        }
      ],
      "name": "RoleGranted",
      "type": "event"
    },
    {
      "anonymous": false,
      "inputs": [
        {
          "indexed": true,
          "internalType": "bytes32",
          "name": "role",
          "type": "bytes32"
        },
        {
          "indexed": true,
          "internalType": "address",
          "name": "account",
          "type": "address"
        },
        {
          "indexed": true,
          "internalType": "address",
          "name": "sender",
          "type": "address"
        }
      ],
      "name": "RoleRevoked",
      "type": "event"
    },
    {
      "anonymous": false,
      "inputs": [
        {
          "indexed": false,
          "internalType": "address",
          "name": "",
          "type": "address"
        },
        {
          "indexed": false,
          "internalType": "address",
          "name": "",
          "type": "address"
        },
        {
          "indexed": false,
          "internalType": "uint256",
          "name": "",
          "type": "uint256"
        }
      ],
      "name": "SetConfig",
      "type": "event"
    },
    {
      "anonymous": false,
      "inputs": [
        {
          "indexed": false,
          "internalType": "uint256",
          "name": "",
          "type": "uint256"
        }
      ],
      "name": "SetHardCap",
      "type": "event"
    },
    {
      "anonymous": false,
      "inputs": [
        {
          "indexed": false,
          "internalType": "uint256",
          "name": "",
          "type": "uint256"
        }
      ],
      "name": "SetLaunch",
      "type": "event"
    },
    {
      "anonymous": false,
      "inputs": [
        {
          "indexed": false,
          "internalType": "uint256",
          "name": "",
          "type": "uint256"
        }
      ],
      "name": "SetLockup",
      "type": "event"
    },
    {
      "anonymous": false,
      "inputs": [
        {
          "indexed": false,
          "internalType": "address",
          "name": "",
          "type": "address"
        }
      ],
      "name": "SetMysteryBox",
      "type": "event"
    },
    {
      "anonymous": false,
      "inputs": [
        {
          "indexed": false,
          "internalType": "address",
          "name": "",
          "type": "address"
        }
      ],
      "name": "SetQuote",
      "type": "event"
    },
    {
      "anonymous": false,
      "inputs": [
        {
          "indexed": true,
          "internalType": "address",
          "name": "from",
          "type": "address"
        },
        {
          "indexed": true,
          "internalType": "address",
          "name": "to",
          "type": "address"
        },
        {
          "indexed": true,
          "internalType": "uint256",
          "name": "tokenId",
          "type": "uint256"
        }
      ],
      "name": "Transfer",
      "type": "event"
    },
    {
      "anonymous": false,
      "inputs": [
        {
          "indexed": false,
          "internalType": "address",
          "name": "account",
          "type": "address"
        }
      ],
      "name": "Unpaused",
      "type": "event"
    },
    {
      "inputs": [],
      "name": "DEFAULT_ADMIN_ROLE",
      "outputs": [
        {
          "internalType": "bytes32",
          "name": "",
          "type": "bytes32"
        }
      ],
      "stateMutability": "view",
      "type": "function"
    },
    {
      "inputs": [],
      "name": "MINTER_ROLE",
      "outputs": [
        {
          "internalType": "bytes32",
          "name": "",
          "type": "bytes32"
        }
      ],
      "stateMutability": "view",
      "type": "function"
    },
    {
      "inputs": [],
      "name": "PAUSER_ROLE",
      "outputs": [
        {
          "internalType": "bytes32",
          "name": "",
          "type": "bytes32"
        }
      ],
      "stateMutability": "view",
      "type": "function"
    },
    {
      "inputs": [
        {
          "internalType": "address",
          "name": "minter",
          "type": "address"
        }
      ],
      "name": "addMinter",
      "outputs": [],
      "stateMutability": "nonpayable",
      "type": "function"
    },
    {
      "inputs": [
        {
          "internalType": "address",
          "name": "pauser",
          "type": "address"
        }
      ],
      "name": "addPauser",
      "outputs": [],
      "stateMutability": "nonpayable",
      "type": "function"
    },
    {
      "inputs": [
        {
          "internalType": "address",
          "name": "to",
          "type": "address"
        },
        {
          "internalType": "uint256",
          "name": "tokenId",
          "type": "uint256"
        }
      ],
      "name": "approve",
      "outputs": [],
      "stateMutability": "nonpayable",
      "type": "function"
    },
    {
      "inputs": [
        {
          "internalType": "address",
          "name": "owner",
          "type": "address"
        }
      ],
      "name": "balanceOf",
      "outputs": [
        {
          "internalType": "uint256",
          "name": "",
          "type": "uint256"
        }
      ],
      "stateMutability": "view",
      "type": "function"
    },
    {
      "inputs": [
        {
          "internalType": "uint256",
          "name": "tokenId",
          "type": "uint256"
        }
      ],
      "name": "burn",
      "outputs": [],
      "stateMutability": "nonpayable",
      "type": "function"
    },
    {
      "inputs": [
        {
          "internalType": "uint256",
          "name": "_itemIx",
          "type": "uint256"
        },
        {
          "internalType": "uint256",
          "name": "_amount",
          "type": "uint256"
        }
      ],
      "name": "buyItemEth",
      "outputs": [],
      "stateMutability": "payable",
      "type": "function"
    },
    {
      "inputs": [
        {
          "internalType": "uint256",
          "name": "_itemIx",
          "type": "uint256"
        },
        {
          "internalType": "uint256",
          "name": "_payment",
          "type": "uint256"
        },
        {
          "internalType": "uint256",
          "name": "_amount",
          "type": "uint256"
        }
      ],
      "name": "buyItemQuote",
      "outputs": [],
      "stateMutability": "payable",
      "type": "function"
    },
    {
      "inputs": [],
      "name": "feeRate",
      "outputs": [
        {
          "internalType": "uint256",
          "name": "",
          "type": "uint256"
        }
      ],
      "stateMutability": "view",
      "type": "function"
    },
    {
      "inputs": [
        {
          "internalType": "uint256",
          "name": "tokenId",
          "type": "uint256"
        }
      ],
      "name": "getApproved",
      "outputs": [
        {
          "internalType": "address",
          "name": "",
          "type": "address"
        }
      ],
      "stateMutability": "view",
      "type": "function"
    },
    {
      "inputs": [],
      "name": "getItemAmounts",
      "outputs": [
        {
          "internalType": "uint256[]",
          "name": "",
          "type": "uint256[]"
        }
      ],
      "stateMutability": "view",
      "type": "function"
    },
    {
      "inputs": [],
      "name": "getItemRemains",
      "outputs": [
        {
          "internalType": "uint256",
          "name": "",
          "type": "uint256"
        }
      ],
      "stateMutability": "view",
      "type": "function"
    },
    {
      "inputs": [
        {
          "internalType": "bytes32",
          "name": "role",
          "type": "bytes32"
        }
      ],
      "name": "getRoleAdmin",
      "outputs": [
        {
          "internalType": "bytes32",
          "name": "",
          "type": "bytes32"
        }
      ],
      "stateMutability": "view",
      "type": "function"
    },
    {
      "inputs": [],
      "name": "globalURI",
      "outputs": [
        {
          "internalType": "string",
          "name": "",
          "type": "string"
        }
      ],
      "stateMutability": "view",
      "type": "function"
    },
    {
      "inputs": [
        {
          "internalType": "bytes32",
          "name": "role",
          "type": "bytes32"
        },
        {
          "internalType": "address",
          "name": "account",
          "type": "address"
        }
      ],
      "name": "grantRole",
      "outputs": [],
      "stateMutability": "nonpayable",
      "type": "function"
    },
    {
      "inputs": [],
      "name": "hardCap",
      "outputs": [
        {
          "internalType": "uint256",
          "name": "",
          "type": "uint256"
        }
      ],
      "stateMutability": "view",
      "type": "function"
    },
    {
      "inputs": [
        {
          "internalType": "bytes32",
          "name": "role",
          "type": "bytes32"
        },
        {
          "internalType": "address",
          "name": "account",
          "type": "address"
        }
      ],
      "name": "hasRole",
      "outputs": [
        {
          "internalType": "bool",
          "name": "",
          "type": "bool"
        }
      ],
      "stateMutability": "view",
      "type": "function"
    },
    {
      "inputs": [
        {
          "internalType": "address",
          "name": "owner",
          "type": "address"
        },
        {
          "internalType": "address",
          "name": "operator",
          "type": "address"
        }
      ],
      "name": "isApprovedForAll",
      "outputs": [
        {
          "internalType": "bool",
          "name": "",
          "type": "bool"
        }
      ],
      "stateMutability": "view",
      "type": "function"
    },
    {
      "inputs": [
        {
          "internalType": "uint256",
          "name": "",
          "type": "uint256"
        }
      ],
      "name": "itemAmounts",
      "outputs": [
        {
          "internalType": "uint256",
          "name": "",
          "type": "uint256"
        }
      ],
      "stateMutability": "view",
      "type": "function"
    },
    {
      "inputs": [
        {
          "internalType": "uint256",
          "name": "",
          "type": "uint256"
        }
      ],
      "name": "itemPrices",
      "outputs": [
        {
          "internalType": "uint256",
          "name": "",
          "type": "uint256"
        }
      ],
      "stateMutability": "view",
      "type": "function"
    },
    {
      "inputs": [
        {
          "internalType": "uint256",
          "name": "",
          "type": "uint256"
        }
      ],
      "name": "itemURIs",
      "outputs": [
        {
          "internalType": "string",
          "name": "",
          "type": "string"
        }
      ],
      "stateMutability": "view",
      "type": "function"
    },
    {
      "inputs": [
        {
          "internalType": "uint256",
          "name": "",
          "type": "uint256"
        }
      ],
      "name": "items",
      "outputs": [
        {
          "internalType": "uint256",
          "name": "",
          "type": "uint256"
        }
      ],
      "stateMutability": "view",
      "type": "function"
    },
    {
      "inputs": [
        {
          "internalType": "uint256",
          "name": "",
          "type": "uint256"
        }
      ],
      "name": "itemsSold",
      "outputs": [
        {
          "internalType": "uint256",
          "name": "",
          "type": "uint256"
        }
      ],
      "stateMutability": "view",
      "type": "function"
    },
    {
      "inputs": [],
      "name": "launch",
      "outputs": [
        {
          "internalType": "uint256",
          "name": "",
          "type": "uint256"
        }
      ],
      "stateMutability": "view",
      "type": "function"
    },
    {
      "inputs": [],
      "name": "lockup",
      "outputs": [
        {
          "internalType": "uint256",
          "name": "",
          "type": "uint256"
        }
      ],
      "stateMutability": "view",
      "type": "function"
    },
    {
      "inputs": [],
      "name": "mysteryBox",
      "outputs": [
        {
          "internalType": "address",
          "name": "",
          "type": "address"
        }
      ],
      "stateMutability": "view",
      "type": "function"
    },
    {
      "inputs": [],
      "name": "name",
      "outputs": [
        {
          "internalType": "string",
          "name": "",
          "type": "string"
        }
      ],
      "stateMutability": "view",
      "type": "function"
    },
    {
      "inputs": [
        {
          "internalType": "address",
          "name": "operator",
          "type": "address"
        },
        {
          "internalType": "address",
          "name": "from",
          "type": "address"
        },
        {
          "internalType": "uint256",
          "name": "tokenId",
          "type": "uint256"
        },
        {
          "internalType": "bytes",
          "name": "data",
          "type": "bytes"
        }
      ],
      "name": "onERC721Received",
      "outputs": [
        {
          "internalType": "bytes4",
          "name": "",
          "type": "bytes4"
        }
      ],
      "stateMutability": "pure",
      "type": "function"
    },
    {
      "inputs": [],
      "name": "owner",
      "outputs": [
        {
          "internalType": "address",
          "name": "",
          "type": "address"
        }
      ],
      "stateMutability": "view",
      "type": "function"
    },
    {
      "inputs": [
        {
          "internalType": "uint256",
          "name": "tokenId",
          "type": "uint256"
        }
      ],
      "name": "ownerOf",
      "outputs": [
        {
          "internalType": "address",
          "name": "",
          "type": "address"
        }
      ],
      "stateMutability": "view",
      "type": "function"
    },
    {
      "inputs": [],
      "name": "pause",
      "outputs": [],
      "stateMutability": "nonpayable",
      "type": "function"
    },
    {
      "inputs": [],
      "name": "paused",
      "outputs": [
        {
          "internalType": "bool",
          "name": "",
          "type": "bool"
        }
      ],
      "stateMutability": "view",
      "type": "function"
    },
    {
      "inputs": [],
      "name": "payment",
      "outputs": [
        {
          "internalType": "address",
          "name": "",
          "type": "address"
        }
      ],
      "stateMutability": "view",
      "type": "function"
    },
    {
      "inputs": [],
      "name": "quote",
      "outputs": [
        {
          "internalType": "address",
          "name": "",
          "type": "address"
        }
      ],
      "stateMutability": "view",
      "type": "function"
    },
    {
      "inputs": [
        {
          "internalType": "string[]",
          "name": "uris",
          "type": "string[]"
        },
        {
          "internalType": "uint256[]",
          "name": "amounts",
          "type": "uint256[]"
        },
        {
          "internalType": "uint256[]",
          "name": "prices",
          "type": "uint256[]"
        }
      ],
      "name": "registerItems",
      "outputs": [],
      "stateMutability": "nonpayable",
      "type": "function"
    },
    {
      "inputs": [],
      "name": "renounceOwnership",
      "outputs": [],
      "stateMutability": "nonpayable",
      "type": "function"
    },
    {
      "inputs": [
        {
          "internalType": "bytes32",
          "name": "role",
          "type": "bytes32"
        },
        {
          "internalType": "address",
          "name": "account",
          "type": "address"
        }
      ],
      "name": "renounceRole",
      "outputs": [],
      "stateMutability": "nonpayable",
      "type": "function"
    },
    {
      "inputs": [
        {
          "internalType": "bytes32",
          "name": "role",
          "type": "bytes32"
        },
        {
          "internalType": "address",
          "name": "account",
          "type": "address"
        }
      ],
      "name": "revokeRole",
      "outputs": [],
      "stateMutability": "nonpayable",
      "type": "function"
    },
    {
      "inputs": [
        {
          "internalType": "address",
          "name": "to",
          "type": "address"
        },
        {
          "internalType": "string[]",
          "name": "uris",
          "type": "string[]"
        }
      ],
      "name": "safeBatchMint",
      "outputs": [],
      "stateMutability": "view",
      "type": "function"
    },
    {
      "inputs": [
        {
          "internalType": "address",
          "name": "to",
          "type": "address"
        },
        {
          "internalType": "string",
          "name": "uri",
          "type": "string"
        },
        {
          "internalType": "uint256",
          "name": "amount",
          "type": "uint256"
        }
      ],
      "name": "safeBatchMintLight",
      "outputs": [],
      "stateMutability": "nonpayable",
      "type": "function"
    },
    {
      "inputs": [
        {
          "internalType": "address",
          "name": "to",
          "type": "address"
        },
        {
          "internalType": "string",
          "name": "uri",
          "type": "string"
        }
      ],
      "name": "safeMint",
      "outputs": [
        {
          "internalType": "uint256",
          "name": "",
          "type": "uint256"
        }
      ],
      "stateMutability": "view",
      "type": "function"
    },
    {
      "inputs": [
        {
          "internalType": "address",
          "name": "to",
          "type": "address"
        }
      ],
      "name": "safeMintTo",
      "outputs": [],
      "stateMutability": "nonpayable",
      "type": "function"
    },
    {
      "inputs": [
        {
          "internalType": "address",
          "name": "from",
          "type": "address"
        },
        {
          "internalType": "address",
          "name": "to",
          "type": "address"
        },
        {
          "internalType": "uint256",
          "name": "tokenId",
          "type": "uint256"
        }
      ],
      "name": "safeTransferFrom",
      "outputs": [],
      "stateMutability": "nonpayable",
      "type": "function"
    },
    {
      "inputs": [
        {
          "internalType": "address",
          "name": "from",
          "type": "address"
        },
        {
          "internalType": "address",
          "name": "to",
          "type": "address"
        },
        {
          "internalType": "uint256",
          "name": "tokenId",
          "type": "uint256"
        },
        {
          "internalType": "bytes",
          "name": "_data",
          "type": "bytes"
        }
      ],
      "name": "safeTransferFrom",
      "outputs": [],
      "stateMutability": "nonpayable",
      "type": "function"
    },
    {
      "inputs": [
        {
          "internalType": "address",
          "name": "operator",
          "type": "address"
        },
        {
          "internalType": "bool",
          "name": "approved",
          "type": "bool"
        }
      ],
      "name": "setApprovalForAll",
      "outputs": [],
      "stateMutability": "nonpayable",
      "type": "function"
    },
    {
      "inputs": [
        {
          "internalType": "address",
          "name": "_payment",
          "type": "address"
        },
        {
          "internalType": "address",
          "name": "_treasury",
          "type": "address"
        },
        {
          "internalType": "uint256",
          "name": "_feeRate",
          "type": "uint256"
        }
      ],
      "name": "setConfig",
      "outputs": [],
      "stateMutability": "nonpayable",
      "type": "function"
    },
    {
      "inputs": [
        {
          "internalType": "uint256",
          "name": "_hardCap",
          "type": "uint256"
        },
        {
          "internalType": "string",
          "name": "_uri",
          "type": "string"
        }
      ],
      "name": "setHardCap",
      "outputs": [],
      "stateMutability": "nonpayable",
      "type": "function"
    },
    {
      "inputs": [
        {
          "internalType": "uint256",
          "name": "_launch",
          "type": "uint256"
        }
      ],
      "name": "setLaunch",
      "outputs": [],
      "stateMutability": "nonpayable",
      "type": "function"
    },
    {
      "inputs": [
        {
          "internalType": "uint256",
          "name": "_lockup",
          "type": "uint256"
        }
      ],
      "name": "setLockup",
      "outputs": [],
      "stateMutability": "nonpayable",
      "type": "function"
    },
    {
      "inputs": [
        {
          "internalType": "address",
          "name": "_mbox",
          "type": "address"
        }
      ],
      "name": "setMysteryBox",
      "outputs": [],
      "stateMutability": "nonpayable",
      "type": "function"
    },
    {
      "inputs": [
        {
          "internalType": "address",
          "name": "_quote",
          "type": "address"
        }
      ],
      "name": "setQuote",
      "outputs": [],
      "stateMutability": "nonpayable",
      "type": "function"
    },
    {
      "inputs": [
        {
          "internalType": "bytes4",
          "name": "interfaceId",
          "type": "bytes4"
        }
      ],
      "name": "supportsInterface",
      "outputs": [
        {
          "internalType": "bool",
          "name": "",
          "type": "bool"
        }
      ],
      "stateMutability": "view",
      "type": "function"
    },
    {
      "inputs": [],
      "name": "symbol",
      "outputs": [
        {
          "internalType": "string",
          "name": "",
          "type": "string"
        }
      ],
      "stateMutability": "view",
      "type": "function"
    },
    {
      "inputs": [
        {
          "internalType": "uint256",
          "name": "index",
          "type": "uint256"
        }
      ],
      "name": "tokenByIndex",
      "outputs": [
        {
          "internalType": "uint256",
          "name": "",
          "type": "uint256"
        }
      ],
      "stateMutability": "view",
      "type": "function"
    },
    {
      "inputs": [
        {
          "internalType": "address",
          "name": "owner",
          "type": "address"
        },
        {
          "internalType": "uint256",
          "name": "index",
          "type": "uint256"
        }
      ],
      "name": "tokenOfOwnerByIndex",
      "outputs": [
        {
          "internalType": "uint256",
          "name": "",
          "type": "uint256"
        }
      ],
      "stateMutability": "view",
      "type": "function"
    },
    {
      "inputs": [
        {
          "internalType": "uint256",
          "name": "tokenId",
          "type": "uint256"
        }
      ],
      "name": "tokenURI",
      "outputs": [
        {
          "internalType": "string",
          "name": "",
          "type": "string"
        }
      ],
      "stateMutability": "view",
      "type": "function"
    },
    {
      "inputs": [],
      "name": "totalItems",
      "outputs": [
        {
          "internalType": "uint256",
          "name": "",
          "type": "uint256"
        }
      ],
      "stateMutability": "view",
      "type": "function"
    },
    {
      "inputs": [],
      "name": "totalSupply",
      "outputs": [
        {
          "internalType": "uint256",
          "name": "",
          "type": "uint256"
        }
      ],
      "stateMutability": "view",
      "type": "function"
    },
    {
      "inputs": [
        {
          "internalType": "address",
          "name": "from",
          "type": "address"
        },
        {
          "internalType": "address",
          "name": "to",
          "type": "address"
        },
        {
          "internalType": "uint256",
          "name": "tokenId",
          "type": "uint256"
        }
      ],
      "name": "transferFrom",
      "outputs": [],
      "stateMutability": "nonpayable",
      "type": "function"
    },
    {
      "inputs": [
        {
          "internalType": "address",
          "name": "newOwner",
          "type": "address"
        }
      ],
      "name": "transferOwnership",
      "outputs": [],
      "stateMutability": "nonpayable",
      "type": "function"
    },
    {
      "inputs": [],
      "name": "treasury",
      "outputs": [
        {
          "internalType": "address",
          "name": "",
          "type": "address"
        }
      ],
      "stateMutability": "view",
      "type": "function"
    },
    {
      "inputs": [],
      "name": "unpause",
      "outputs": [],
      "stateMutability": "nonpayable",
      "type": "function"
    },
    {
      "stateMutability": "payable",
      "type": "receive"
    }
  ],
  "bytecode": "0x60806040526000600d819055601280546001600160a01b03191690556079556032607e556083805460ff191690553480156200003a57600080fd5b5060405162005324380380620053248339810160408190526200005d91620007d5565b8585818181600090805190602001906200007992919062000681565b5080516200008f90600190602084019062000681565b5050600b805460ff1916905550620000a73362000252565b620000b4600033620002ac565b620000cf600080516020620052e483398151915233620002ac565b620000ea6000805160206200530483398151915233620002ac565b505060016011558051600314620001485760405162461bcd60e51b815260206004820152601a60248201527f696e76616c696420636f6e6669672064617461206c656e67746800000000000060448201526064015b60405180910390fd5b62000155600033620002ac565b62000170600080516020620052e483398151915233620002ac565b6200018b6000805160206200530483398151915233620002ac565b620001c581600081518110620001b157634e487b7160e01b600052603260045260246000fd5b60200260200101516200035160201b60201c565b620001ff81600181518110620001eb57634e487b7160e01b600052603260045260246000fd5b6020026020010151620003de60201b60201c565b6200023b8383836002815181106200022757634e487b7160e01b600052603260045260246000fd5b60200260200101516200046560201b60201c565b6200024684620005e1565b5050505050506200098f565b600b80546001600160a01b03838116610100818102610100600160a81b031985161790945560405193909204169182907f8be0079c531659141344cd1fd0a4f28419497f9722a3daafe3b4186f6b6457e090600090a35050565b6000828152600c602090815260408083206001600160a01b038516845290915290205460ff166200034d576000828152600c602090815260408083206001600160a01b03851684529091529020805460ff191660011790556200030c3390565b6001600160a01b0316816001600160a01b0316837f2f8788117e7eff1d82e926ec794901d17c78024a50270940304540a733656f0d60405160405180910390a45b5050565b600b546001600160a01b03610100909104163314620003a25760405162461bcd60e51b81526020600482018190526024820152600080516020620052c483398151915260448201526064016200013f565b607a8190556040518181527f7c8826e4db3679f20c86da0c68d37f9dbcd1d638c56717e014f93c56d14c02d1906020015b60405180910390a150565b600b546001600160a01b036101009091041633146200042f5760405162461bcd60e51b81526020600482018190526024820152600080516020620052c483398151915260448201526064016200013f565b607b8190556040518181527fa7ade4ab976b6643a971383d9822fb7c2fce66aa2e497d88c3b4f1475ea2b2e090602001620003d3565b600b546001600160a01b03610100909104163314620004b65760405162461bcd60e51b81526020600482018190526024820152600080516020620052c483398151915260448201526064016200013f565b6001600160a01b0383166200050e5760405162461bcd60e51b815260206004820152601760248201527f696e76616c6964207061796d656e74206164647265737300000000000000000060448201526064016200013f565b6001600160a01b038216620005665760405162461bcd60e51b815260206004820152601860248201527f696e76616c69642074726561737572792061646472657373000000000000000060448201526064016200013f565b607c80546001600160a01b038581166001600160a01b03199283168117909355607d8054918616919092168117909155607e83905560408051928352602083019190915281018290527fe2be3027f197494650b7a98fd1cae67dacf615bd1d8bb05102999676f11638669060600160405180910390a1505050565b600b546001600160a01b03610100909104163314620006325760405162461bcd60e51b81526020600482018190526024820152600080516020620052c483398151915260448201526064016200013f565b601280546001600160a01b0319166001600160a01b0383169081179091556040519081527fca92c759228172fe3894a344908fd20dfd37ba561b5af191f1f5b02ee03881fc90602001620003d3565b8280546200068f906200093c565b90600052602060002090601f016020900481019282620006b35760008555620006fe565b82601f10620006ce57805160ff1916838001178555620006fe565b82800160010185558215620006fe579182015b82811115620006fe578251825591602001919060010190620006e1565b506200070c92915062000710565b5090565b5b808211156200070c576000815560010162000711565b80516001600160a01b03811681146200073f57600080fd5b919050565b600082601f83011262000755578081fd5b81516001600160401b0381111562000771576200077162000979565b602062000787601f8301601f1916820162000909565b82815285828487010111156200079b578384fd5b835b83811015620007ba5785810183015182820184015282016200079d565b83811115620007cb57848385840101525b5095945050505050565b60008060008060008060c08789031215620007ee578182fd5b86516001600160401b038082111562000805578384fd5b620008138a838b0162000744565b97506020915081890151818111156200082a578485fd5b620008388b828c0162000744565b9750506200084960408a0162000727565b95506200085960608a0162000727565b94506200086960808a0162000727565b935060a0890151818111156200087d578384fd5b8901601f81018b136200088e578384fd5b805182811115620008a357620008a362000979565b8060051b9250620008b684840162000909565b8181528481019083860185850187018f1015620008d1578788fd5b8795505b83861015620008f5578051835260019590950194918601918601620008d5565b508096505050505050509295509295509295565b604051601f8201601f191681016001600160401b038111828210171562000934576200093462000979565b604052919050565b600181811c908216806200095157607f821691505b602082108114156200097357634e487b7160e01b600052602260045260246000fd5b50919050565b634e487b7160e01b600052604160045260246000fd5b614925806200099f6000396000f3fe6080604052600436106103c75760003560e01c806370a08231116101f2578063a2aa61eb1161010d578063d3d3224a116100a0578063e985e9c51161006f578063e985e9c514610b2e578063f2fde38b14610b77578063f3c8dc5914610b97578063fb86a40414610bb757600080fd5b8063d3d3224a14610ab5578063d539139314610aca578063d547741f14610aec578063e63ab1e914610b0c57600080fd5b8063bfb231d2116100dc578063bfb231d214610a35578063c38b761c14610a55578063c87b56dd14610a75578063d204c45e14610a9557600080fd5b8063a2aa61eb146109b5578063b5a87cc1146109d5578063b88d4fde146109f5578063bf91ad9e14610a1557600080fd5b8063902835f611610185578063983b2d5611610154578063983b2d5614610940578063999b93af14610960578063a217fddf14610980578063a22cb4651461099557600080fd5b8063902835f6146108d557806391d14854146108f557806395d89b4114610915578063978bbdb91461092a57600080fd5b80638456cb59116101c15780638456cb591461086a57806385be1b3b1461087f5780638a55b866146108925780638da5cb5b146108b257600080fd5b806370a08231146107f5578063715018a6146108155780637b43b8271461082a57806382dc1ec41461084a57600080fd5b806336568abe116102e257806358dd6d95116102755780635dce7383116102445780635dce73831461078057806361d027b3146107955780636352211e146107b55780636ae6b459146107d557600080fd5b806358dd6d95146107085780635c975abb146107285780635d1d37c3146107405780635d814dea1461076057600080fd5b806342842e0e116102b157806342842e0e1461068857806342966c68146106a857806342f6487a146106c85780634f6ccce7146106e857600080fd5b806336568abe146106205780633f4ba83a146106405780633f7d7055146106555780633ff1cadb1461066857600080fd5b806321bae9e41161035a5780632799276d116103295780632799276d146105a85780632d97714d146105be5780632f2ff15d146105e05780632f745c591461060057600080fd5b806321bae9e41461051857806323b872dd146105385780632449065914610558578063248a9ca31461057857600080fd5b8063081812fc11610396578063081812fc14610464578063095ea7b31461049c578063150b7a02146104be57806318160ddd1461050357600080fd5b806301339c21146103d357806301ffc9a7146103fc57806306490f471461042c57806306fdde031461044257600080fd5b366103ce57005b600080fd5b3480156103df57600080fd5b506103e9607a5481565b6040519081526020015b60405180910390f35b34801561040857600080fd5b5061041c61041736600461438a565b610bcd565b60405190151581526020016103f3565b34801561043857600080fd5b506103e9607b5481565b34801561044e57600080fd5b50610457610bf8565b6040516103f391906145c1565b34801561047057600080fd5b5061048461047f366004614350565b610c8a565b6040516001600160a01b0390911681526020016103f3565b3480156104a857600080fd5b506104bc6104b7366004614288565b610d17565b005b3480156104ca57600080fd5b506104ea6104d9366004614065565b630a85bd0160e11b95945050505050565b6040516001600160e01b031990911681526020016103f3565b34801561050f57600080fd5b506008546103e9565b34801561052457600080fd5b506104bc610533366004613fde565b610e2d565b34801561054457600080fd5b506104bc61055336600461402a565b610f7a565b34801561056457600080fd5b506104bc6105733660046143da565b610fac565b34801561058457600080fd5b506103e9610593366004614350565b6000908152600c602052604090206001015490565b3480156105b457600080fd5b506103e960795481565b3480156105ca57600080fd5b506105d3611034565b6040516103f3919061457d565b3480156105ec57600080fd5b506104bc6105fb366004614368565b6110f0565b34801561060c57600080fd5b506103e961061b366004614288565b611115565b34801561062c57600080fd5b506104bc61063b366004614368565b6111ab565b34801561064c57600080fd5b506104bc611229565b6104bc610663366004614429565b61124c565b34801561067457600080fd5b506103e9610683366004614350565b6116a1565b34801561069457600080fd5b506104bc6106a336600461402a565b6116c2565b3480156106b457600080fd5b506104bc6106c3366004614350565b6116dd565b3480156106d457600080fd5b50607c54610484906001600160a01b031681565b3480156106f457600080fd5b506103e9610703366004614350565b611754565b34801561071457600080fd5b506104bc610723366004614172565b6117f5565b34801561073457600080fd5b50600b5460ff1661041c565b34801561074c57600080fd5b506104bc61075b366004614350565b611840565b34801561076c57600080fd5b5061045761077b366004614350565b6118ac565b34801561078c57600080fd5b506103e9611958565b3480156107a157600080fd5b50607d54610484906001600160a01b031681565b3480156107c157600080fd5b506104846107d0366004614350565b6119ce565b3480156107e157600080fd5b506104bc6107f0366004614350565b611a45565b34801561080157600080fd5b506103e9610810366004613fde565b611aaa565b34801561082157600080fd5b506104bc611b31565b34801561083657600080fd5b506104bc610845366004613fde565b611b6d565b34801561085657600080fd5b506104bc610865366004613fde565b611c0d565b34801561087657600080fd5b506104bc611cb3565b6104bc61088d366004614408565b611cd3565b34801561089e57600080fd5b506103e96108ad366004614350565b611f47565b3480156108be57600080fd5b50600b5461010090046001600160a01b0316610484565b3480156108e157600080fd5b506104bc6108f036600461402a565b611f57565b34801561090157600080fd5b5061041c610910366004614368565b6120ae565b34801561092157600080fd5b506104576120d9565b34801561093657600080fd5b506103e9607e5481565b34801561094c57600080fd5b506104bc61095b366004613fde565b6120e8565b34801561096c57600080fd5b50601254610484906001600160a01b031681565b34801561098c57600080fd5b506103e9600081565b3480156109a157600080fd5b506104bc6109b03660046141bd565b61218e565b3480156109c157600080fd5b506104bc6109d0366004613fde565b612199565b3480156109e157600080fd5b506104bc6109f0366004614234565b612217565b348015610a0157600080fd5b506104bc610a103660046140fa565b6122a9565b348015610a2157600080fd5b506103e9610a30366004614350565b6122e1565b348015610a4157600080fd5b506103e9610a50366004614350565b6122f1565b348015610a6157600080fd5b50600f54610484906001600160a01b031681565b348015610a8157600080fd5b50610457610a90366004614350565b612301565b348015610aa157600080fd5b506103e9610ab03660046141f3565b61230c565b348015610ac157600080fd5b50610457612326565b348015610ad657600080fd5b506103e96000805160206148d083398151915281565b348015610af857600080fd5b506104bc610b07366004614368565b612333565b348015610b1857600080fd5b506103e96000805160206148b083398151915281565b348015610b3a57600080fd5b5061041c610b49366004613ff8565b6001600160a01b03918216600090815260056020908152604080832093909416825291909152205460ff1690565b348015610b8357600080fd5b506104bc610b92366004613fde565b612358565b348015610ba357600080fd5b506104bc610bb23660046142b1565b6123f6565b348015610bc357600080fd5b506103e9600d5481565b60006001600160e01b031982166380ac58cd60e01b1480610bf25750610bf28261257b565b92915050565b606060008054610c07906147e5565b80601f0160208091040260200160405190810160405280929190818152602001828054610c33906147e5565b8015610c805780601f10610c5557610100808354040283529160200191610c80565b820191906000526020600020905b815481529060010190602001808311610c6357829003601f168201915b5050505050905090565b6000610c95826125a0565b610cfb5760405162461bcd60e51b815260206004820152602c60248201527f4552433732313a20617070726f76656420717565727920666f72206e6f6e657860448201526b34b9ba32b73a103a37b5b2b760a11b60648201526084015b60405180910390fd5b506000908152600460205260409020546001600160a01b031690565b6000610d22826119ce565b9050806001600160a01b0316836001600160a01b03161415610d905760405162461bcd60e51b815260206004820152602160248201527f4552433732313a20617070726f76616c20746f2063757272656e74206f776e656044820152603960f91b6064820152608401610cf2565b336001600160a01b0382161480610dac5750610dac8133610b49565b610e1e5760405162461bcd60e51b815260206004820152603860248201527f4552433732313a20617070726f76652063616c6c6572206973206e6f74206f7760448201527f6e6572206e6f7220617070726f76656420666f7220616c6c00000000000000006064820152608401610cf2565b610e2883836125bd565b505050565b6000805160206148d0833981519152610e458161262b565b6000600e8054610e54906147e5565b905011610e9b5760405162461bcd60e51b815260206004820152601560248201527411db1bd8985b08155492481a5cc81b9bdd081cd95d605a1b6044820152606401610cf2565b6001600160a01b038216610ee65760405162461bcd60e51b8152602060048201526012602482015271496e76616c696420746f206164647265737360701b6044820152606401610cf2565b610e2882600e8054610ef7906147e5565b80601f0160208091040260200160405190810160405280929190818152602001828054610f23906147e5565b8015610f705780601f10610f4557610100808354040283529160200191610f70565b820191906000526020600020905b815481529060010190602001808311610f5357829003601f168201915b505050505061230c565b610f85335b82612635565b610fa15760405162461bcd60e51b8152600401610cf29061469c565b610e2883838361271f565b600b546001600160a01b03610100909104163314610fdc5760405162461bcd60e51b8152600401610cf290614626565b600d8290558051610ff490600e906020840190613cdf565b507f57bbf0b7295e3c8587fe0fa3c76592771f6a96123bf723292fd0e3933436b71f600d5460405161102891815260200190565b60405180910390a15050565b60608060005b6080548110156110ea576110ad6081828154811061106857634e487b7160e01b600052603260045260246000fd5b90600052602060002001546080838154811061109457634e487b7160e01b600052603260045260246000fd5b90600052602060002001546128c690919063ffffffff16565b8282815181106110cd57634e487b7160e01b600052603260045260246000fd5b6020908102919091010152806110e28161481a565b91505061103a565b50919050565b6000828152600c602052604090206001015461110b8161262b565b610e2883836128d9565b600061112083611aaa565b82106111825760405162461bcd60e51b815260206004820152602b60248201527f455243373231456e756d657261626c653a206f776e657220696e646578206f7560448201526a74206f6620626f756e647360a81b6064820152608401610cf2565b506001600160a01b03919091166000908152600660209081526040808320938352929052205490565b6001600160a01b038116331461121b5760405162461bcd60e51b815260206004820152602f60248201527f416363657373436f6e74726f6c3a2063616e206f6e6c792072656e6f756e636560448201526e103937b632b9903337b91039b2b63360891b6064820152608401610cf2565b611225828261295f565b5050565b6000805160206148b08339815191526112418161262b565b6112496129c6565b50565b6012546001600160a01b03166112985760405162461bcd60e51b81526020600482015260116024820152702bb937b7339038bab7ba32903a37b5b2b760791b6044820152606401610cf2565b607a5442116112e95760405162461bcd60e51b815260206004820152601b60248201527f4e6f7420796574206c61756e63682074696d65207265616368656400000000006044820152606401610cf2565b600082116113095760405162461bcd60e51b8152600401610cf29061465b565b6113476082848154811061132d57634e487b7160e01b600052603260045260246000fd5b906000526020600020015482612a5990919063ffffffff16565b82146113955760405162461bcd60e51b815260206004820152601d60248201527f76616c756520616e6420616d6f756e74206973206e6f74206d617463680000006044820152606401610cf2565b6012546040516370a0823160e01b81523360048201526000916001600160a01b0316906370a082319060240160206040518083038186803b1580156113d957600080fd5b505afa1580156113ed573d6000803e3d6000fd5b505050506040513d601f19601f8201168201806040525081019061141191906143c2565b90508281116114625760405162461bcd60e51b815260206004820152601b60248201527f6c61636b206f662071756f746520746f6b656e2062616c616e636500000000006044820152606401610cf2565b60125461147a906001600160a01b0316333086612a65565b6000805b6080548110156114e357808610156114d1576114ce608082815481106114b457634e487b7160e01b600052603260045260246000fd5b906000526020600020015483612ba390919063ffffffff16565b91505b806114db8161481a565b91505061147e565b5060005b838110156116235761152261151b6013886064811061151657634e487b7160e01b600052603260045260246000fd5b015490565b8390612ba3565b91506115e23383607f898154811061154a57634e487b7160e01b600052603260045260246000fd5b90600052602060002001805461155f906147e5565b80601f016020809104026020016040519081016040528092919081815260200182805461158b906147e5565b80156115d85780601f106115ad576101008083540402835291602001916115d8565b820191906000526020600020905b8154815290600101906020018083116115bb57829003601f168201915b5050505050612baf565b506116116013876064811061160757634e487b7160e01b600052603260045260246000fd5b0180546001019055565b8061161b8161481a565b9150506114e7565b5061162e8584612bc6565b61166d60016081878154811061165457634e487b7160e01b600052603260045260246000fd5b9060005260206000200154612ba390919063ffffffff16565b6081868154811061168e57634e487b7160e01b600052603260045260246000fd5b6000918252602090912001555050505050565b608181815481106116b157600080fd5b600091825260209091200154905081565b610e28838383604051806020016040528060008152506122a9565b6116e633610f7f565b61174b5760405162461bcd60e51b815260206004820152603060248201527f4552433732314275726e61626c653a2063616c6c6572206973206e6f74206f7760448201526f1b995c881b9bdc88185c1c1c9bdd995960821b6064820152608401610cf2565b61124981612d14565b600061175f60085490565b82106117c25760405162461bcd60e51b815260206004820152602c60248201527f455243373231456e756d657261626c653a20676c6f62616c20696e646578206f60448201526b7574206f6620626f756e647360a01b6064820152608401610cf2565b600882815481106117e357634e487b7160e01b600052603260045260246000fd5b90600052602060002001549050919050565b6000805160206148d083398151915261180d8161262b565b60405162461bcd60e51b8152602060048201526008602482015267111a5cd8589b195960c21b6044820152606401610cf2565b600b546001600160a01b036101009091041633146118705760405162461bcd60e51b8152600401610cf290614626565b607a8190556040518181527f7c8826e4db3679f20c86da0c68d37f9dbcd1d638c56717e014f93c56d14c02d1906020015b60405180910390a150565b607f81815481106118bc57600080fd5b9060005260206000200160009150905080546118d7906147e5565b80601f0160208091040260200160405190810160405280929190818152602001828054611903906147e5565b80156119505780601f1061192557610100808354040283529160200191611950565b820191906000526020600020905b81548152906001019060200180831161193357829003601f168201915b505050505081565b600080805b6080548110156110ea576119ba61151b6081838154811061198e57634e487b7160e01b600052603260045260246000fd5b90600052602060002001546080848154811061109457634e487b7160e01b600052603260045260246000fd5b9150806119c68161481a565b91505061195d565b6000818152600260205260408120546001600160a01b031680610bf25760405162461bcd60e51b815260206004820152602960248201527f4552433732313a206f776e657220717565727920666f72206e6f6e657869737460448201526832b73a103a37b5b2b760b91b6064820152608401610cf2565b600b546001600160a01b03610100909104163314611a755760405162461bcd60e51b8152600401610cf290614626565b607b8190556040518181527fa7ade4ab976b6643a971383d9822fb7c2fce66aa2e497d88c3b4f1475ea2b2e0906020016118a1565b60006001600160a01b038216611b155760405162461bcd60e51b815260206004820152602a60248201527f4552433732313a2062616c616e636520717565727920666f7220746865207a65604482015269726f206164647265737360b01b6064820152608401610cf2565b506001600160a01b031660009081526003602052604090205490565b600b546001600160a01b03610100909104163314611b615760405162461bcd60e51b8152600401610cf290614626565b611b6b6000612d1d565b565b600b546001600160a01b03610100909104163314611b9d5760405162461bcd60e51b8152600401610cf290614626565b600f80546001600160a01b0319166001600160a01b038316179055611bd06000805160206148d0833981519152826128d9565b600f546040516001600160a01b0390911681527f329b1203fc60a62c4a0fd3ff1554a07f92a2f117cc590422dd105811bb484ded906020016118a1565b600b546001600160a01b03610100909104163314611c3d5760405162461bcd60e51b8152600401610cf290614626565b611c556000805160206148b0833981519152826128d9565b604080516001600160a01b038316815260208101829052600b918101919091526a5041555345525f524f4c4560a81b60608201527f0578acc86b18d67c13a5e6eed8c670fb7052f530b48a2acb167d6ca77509a384906080016118a1565b6000805160206148b0833981519152611ccb8161262b565b611249612d77565b6012546001600160a01b031615611d205760405162461bcd60e51b81526020600482015260116024820152702bb937b7339038bab7ba32903a37b5b2b760791b6044820152606401610cf2565b607a544211611d715760405162461bcd60e51b815260206004820152601b60248201527f4e6f7420796574206c61756e63682074696d65207265616368656400000000006044820152606401610cf2565b60003411611d915760405162461bcd60e51b8152600401610cf29061465b565b611db56082838154811061132d57634e487b7160e01b600052603260045260246000fd5b3414611e035760405162461bcd60e51b815260206004820152601d60248201527f76616c756520616e6420616d6f756e74206973206e6f74206d617463680000006044820152606401610cf2565b6000805b608054811015611e525780841015611e4057611e3d608082815481106114b457634e487b7160e01b600052603260045260246000fd5b91505b80611e4a8161481a565b915050611e07565b5060005b82811015611ee457611e8561151b6013866064811061151657634e487b7160e01b600052603260045260246000fd5b9150611ead3383607f878154811061154a57634e487b7160e01b600052603260045260246000fd5b50611ed26013856064811061160757634e487b7160e01b600052603260045260246000fd5b80611edc8161481a565b915050611e56565b50611eef8383612bc6565b611f1560016081858154811061165457634e487b7160e01b600052603260045260246000fd5b60818481548110611f3657634e487b7160e01b600052603260045260246000fd5b600091825260209091200155505050565b608081815481106116b157600080fd5b600b546001600160a01b03610100909104163314611f875760405162461bcd60e51b8152600401610cf290614626565b6001600160a01b038316611fdd5760405162461bcd60e51b815260206004820152601760248201527f696e76616c6964207061796d656e7420616464726573730000000000000000006044820152606401610cf2565b6001600160a01b0382166120335760405162461bcd60e51b815260206004820152601860248201527f696e76616c6964207472656173757279206164647265737300000000000000006044820152606401610cf2565b607c80546001600160a01b038581166001600160a01b03199283168117909355607d8054918616919092168117909155607e83905560408051928352602083019190915281018290527fe2be3027f197494650b7a98fd1cae67dacf615bd1d8bb05102999676f11638669060600160405180910390a1505050565b6000918252600c602090815260408084206001600160a01b0393909316845291905290205460ff1690565b606060018054610c07906147e5565b600b546001600160a01b036101009091041633146121185760405162461bcd60e51b8152600401610cf290614626565b6121306000805160206148d0833981519152826128d9565b604080516001600160a01b038316815260208101829052600b918101919091526a4d494e5445525f524f4c4560a81b60608201527f0578acc86b18d67c13a5e6eed8c670fb7052f530b48a2acb167d6ca77509a384906080016118a1565b611225338383612df2565b600b546001600160a01b036101009091041633146121c95760405162461bcd60e51b8152600401610cf290614626565b601280546001600160a01b0319166001600160a01b0383169081179091556040519081527fca92c759228172fe3894a344908fd20dfd37ba561b5af191f1f5b02ee03881fc906020016118a1565b6000805160206148d083398151915261222f8161262b565b6001600160a01b03841661227a5760405162461bcd60e51b8152602060048201526012602482015271496e76616c696420746f206164647265737360701b6044820152606401610cf2565b60005b828110156122a25761228f858561230c565b508061229a8161481a565b91505061227d565b5050505050565b6122b33383612635565b6122cf5760405162461bcd60e51b8152600401610cf29061469c565b6122db84848484612ec1565b50505050565b608281815481106116b157600080fd5b607881815481106116b157600080fd5b6060610bf282612ef4565b60006000805160206148d083398151915261180d8161262b565b600e80546118d7906147e5565b6000828152600c602052604090206001015461234e8161262b565b610e28838361295f565b600b546001600160a01b036101009091041633146123885760405162461bcd60e51b8152600401610cf290614626565b6001600160a01b0381166123ed5760405162461bcd60e51b815260206004820152602660248201527f4f776e61626c653a206e6577206f776e657220697320746865207a65726f206160448201526564647265737360d01b6064820152608401610cf2565b61124981612d1d565b6000805160206148d083398151915261240e8161262b565b60835460ff16156124615760405162461bcd60e51b815260206004820152601860248201527f4974656d7320616c7265616479207265676973746572656400000000000000006044820152606401610cf2565b82518451146124aa5760405162461bcd60e51b8152602060048201526015602482015274082e4e4c2f240d8cadccee8d040dad2e6dac2e8c6d605b1b6044820152606401610cf2565b82516124bd906080906020860190613d63565b5083516124d190607f906020870190613d9d565b5081516124e5906082906020850190613d63565b5060005b84518110156125675761252e84828151811061251557634e487b7160e01b600052603260045260246000fd5b6020026020010151607954612ba390919063ffffffff16565b6079556125556013826064811061160757634e487b7160e01b600052603260045260246000fd5b8061255f8161481a565b9150506124e9565b50506083805460ff19166001179055505050565b60006001600160e01b03198216637965db0b60e01b1480610bf25750610bf282613063565b6000908152600260205260409020546001600160a01b0316151590565b600081815260046020526040902080546001600160a01b0319166001600160a01b03841690811790915581906125f2826119ce565b6001600160a01b03167f8c5be1e5ebec7d5bd14f71427d1e84f3dd0314c0f7b2291e5b200ac8c7c3b92560405160405180910390a45050565b6112498133613088565b6000612640826125a0565b6126a15760405162461bcd60e51b815260206004820152602c60248201527f4552433732313a206f70657261746f7220717565727920666f72206e6f6e657860448201526b34b9ba32b73a103a37b5b2b760a11b6064820152608401610cf2565b60006126ac836119ce565b9050806001600160a01b0316846001600160a01b031614806126f357506001600160a01b0380821660009081526005602090815260408083209388168352929052205460ff165b806127175750836001600160a01b031661270c84610c8a565b6001600160a01b0316145b949350505050565b826001600160a01b0316612732826119ce565b6001600160a01b0316146127965760405162461bcd60e51b815260206004820152602560248201527f4552433732313a207472616e736665722066726f6d20696e636f72726563742060448201526437bbb732b960d91b6064820152608401610cf2565b6001600160a01b0382166127f85760405162461bcd60e51b8152602060048201526024808201527f4552433732313a207472616e7366657220746f20746865207a65726f206164646044820152637265737360e01b6064820152608401610cf2565b6128038383836130ec565b61280e6000826125bd565b6001600160a01b038316600090815260036020526040812080546001929061283790849061478b565b90915550506001600160a01b0382166000908152600360205260408120805460019290612865908490614740565b909155505060008181526002602052604080822080546001600160a01b0319166001600160a01b0386811691821790925591518493918716917fddf252ad1be2c89b69c2b068fc378daa952ba7f163c4a11628f55a4df523b3ef91a4505050565b60006128d2828461478b565b9392505050565b6128e382826120ae565b611225576000828152600c602090815260408083206001600160a01b03851684529091529020805460ff1916600117905561291b3390565b6001600160a01b0316816001600160a01b0316837f2f8788117e7eff1d82e926ec794901d17c78024a50270940304540a733656f0d60405160405180910390a45050565b61296982826120ae565b15611225576000828152600c602090815260408083206001600160a01b0385168085529252808320805460ff1916905551339285917ff6391f5c32d9c69d2a47ea670b442974b53935d1edc7fd64eb21e047a839171b9190a45050565b600b5460ff16612a0f5760405162461bcd60e51b815260206004820152601460248201527314185d5cd8589b194e881b9bdd081c185d5cd95960621b6044820152606401610cf2565b600b805460ff191690557f5db9ee0a495bf2e6ff9c91a7834c1ba4fdd244a5e8aa4e537bd38aeae4b073aa335b6040516001600160a01b03909116815260200160405180910390a1565b60006128d2828461476c565b604080516001600160a01b0385811660248301528481166044830152606480830185905283518084039091018152608490920183526020820180516001600160e01b03166323b872dd60e01b1790529151600092839290881691612ac99190614480565b6000604051808303816000865af19150503d8060008114612b06576040519150601f19603f3d011682016040523d82523d6000602084013e612b0b565b606091505b5091509150818015612b35575080511580612b35575080806020019051810190612b359190614334565b612b9b5760405162461bcd60e51b815260206004820152603160248201527f5472616e7366657248656c7065723a3a7472616e7366657246726f6d3a207472604482015270185b9cd9995c919c9bdb4819985a5b1959607a1b6064820152608401610cf2565b505050505050565b60006128d28284614740565b600080612bbd85858561313d565b95945050505050565b607c546001600160a01b0316612c1e5760405162461bcd60e51b815260206004820152601a60248201527f7061796d656e742061646472657373206973206e6f74207365740000000000006044820152606401610cf2565b6000612c5e60828481548110612c4457634e487b7160e01b600052603260045260246000fd5b906000526020600020015483612a5990919063ffffffff16565b90506000612c836103e8612c7d607e5485612a5990919063ffffffff16565b9061315b565b90506000612c9183836128c6565b6012549091506001600160a01b031615612ce857601254607d54612cc4916001600160a01b039081169130911685612a65565b601254607c54612ce3916001600160a01b039081169130911684612a65565b6122a2565b607d54612cfe906001600160a01b031683613167565b607c546122a2906001600160a01b031682613167565b61124981613241565b600b80546001600160a01b03838116610100818102610100600160a81b031985161790945560405193909204169182907f8be0079c531659141344cd1fd0a4f28419497f9722a3daafe3b4186f6b6457e090600090a35050565b600b5460ff1615612dbd5760405162461bcd60e51b815260206004820152601060248201526f14185d5cd8589b194e881c185d5cd95960821b6044820152606401610cf2565b600b805460ff191660011790557f62e78cea01bee320cd4e420270b5ea74000d11b0c9f74754ebdbfc544b05a258612a3c3390565b816001600160a01b0316836001600160a01b03161415612e545760405162461bcd60e51b815260206004820152601960248201527f4552433732313a20617070726f766520746f2063616c6c6572000000000000006044820152606401610cf2565b6001600160a01b03838116600081815260056020908152604080832094871680845294825291829020805460ff191686151590811790915591519182527f17307eab39ab6107e8899845ad3d59bd9653f200f220920489ca2b5937696c31910160405180910390a3505050565b612ecc84848461271f565b612ed884848484613281565b6122db5760405162461bcd60e51b8152600401610cf2906145d4565b6060612eff826125a0565b612f655760405162461bcd60e51b815260206004820152603160248201527f45524337323155524953746f726167653a2055524920717565727920666f72206044820152703737b732bc34b9ba32b73a103a37b5b2b760791b6064820152608401610cf2565b6000828152600a602052604081208054612f7e906147e5565b80601f0160208091040260200160405190810160405280929190818152602001828054612faa906147e5565b8015612ff75780601f10612fcc57610100808354040283529160200191612ff7565b820191906000526020600020905b815481529060010190602001808311612fda57829003601f168201915b50505050509050600061301560408051602081019091526000815290565b9050805160001415613028575092915050565b81511561305a57808260405160200161304292919061449c565b60405160208183030381529060405292505050919050565b6127178461338e565b60006001600160e01b0319821663780e9d6360e01b1480610bf25750610bf282613465565b61309282826120ae565b611225576130aa816001600160a01b031660146134b5565b6130b58360206134b5565b6040516020016130c69291906144cb565b60408051601f198184030181529082905262461bcd60e51b8252610cf2916004016145c1565b600b5460ff16156131325760405162461bcd60e51b815260206004820152601060248201526f14185d5cd8589b194e881c185d5cd95960821b6044820152606401610cf2565b610e28838383613696565b6000613149848461374e565b6131538383613768565b509092915050565b60006128d28284614758565b604080516000808252602082019092526001600160a01b0384169083906040516131919190614480565b60006040518083038185875af1925050503d80600081146131ce576040519150601f19603f3d011682016040523d82523d6000602084013e6131d3565b606091505b5050905080610e285760405162461bcd60e51b815260206004820152603460248201527f5472616e7366657248656c7065723a3a736166655472616e736665724554483a60448201527308115512081d1c985b9cd9995c8819985a5b195960621b6064820152608401610cf2565b61324a816137f3565b6000818152600a602052604090208054613263906147e5565b159050611249576000818152600a6020526040812061124991613df6565b60006001600160a01b0384163b1561338357604051630a85bd0160e11b81526001600160a01b0385169063150b7a02906132c5903390899088908890600401614540565b602060405180830381600087803b1580156132df57600080fd5b505af192505050801561330f575060408051601f3d908101601f1916820190925261330c918101906143a6565b60015b613369573d80801561333d576040519150601f19603f3d011682016040523d82523d6000602084013e613342565b606091505b5080516133615760405162461bcd60e51b8152600401610cf2906145d4565b805181602001fd5b6001600160e01b031916630a85bd0160e11b149050612717565b506001949350505050565b6060613399826125a0565b6133fd5760405162461bcd60e51b815260206004820152602f60248201527f4552433732314d657461646174613a2055524920717565727920666f72206e6f60448201526e3732bc34b9ba32b73a103a37b5b2b760891b6064820152608401610cf2565b600061341460408051602081019091526000815290565b9050600081511161343457604051806020016040528060008152506128d2565b8061343e8461389a565b60405160200161344f92919061449c565b6040516020818303038152906040529392505050565b60006001600160e01b031982166380ac58cd60e01b148061349657506001600160e01b03198216635b5e139f60e01b145b80610bf257506301ffc9a760e01b6001600160e01b0319831614610bf2565b606060006134c483600261476c565b6134cf906002614740565b6001600160401b038111156134f457634e487b7160e01b600052604160045260246000fd5b6040519080825280601f01601f19166020018201604052801561351e576020820181803683370190505b509050600360fc1b8160008151811061354757634e487b7160e01b600052603260045260246000fd5b60200101906001600160f81b031916908160001a905350600f60fb1b8160018151811061358457634e487b7160e01b600052603260045260246000fd5b60200101906001600160f81b031916908160001a90535060006135a884600261476c565b6135b3906001614740565b90505b6001811115613647576f181899199a1a9b1b9c1cb0b131b232b360811b85600f16601081106135f557634e487b7160e01b600052603260045260246000fd5b1a60f81b82828151811061361957634e487b7160e01b600052603260045260246000fd5b60200101906001600160f81b031916908160001a90535060049490941c93613640816147ce565b90506135b6565b5083156128d25760405162461bcd60e51b815260206004820181905260248201527f537472696e67733a20686578206c656e67746820696e73756666696369656e746044820152606401610cf2565b6001600160a01b0383166136f1576136ec81600880546000838152600960205260408120829055600182018355919091527ff3f7a9fe364faab93b216da50a3214154f22a0a2b415b23a84c8169e8b636ee30155565b613714565b816001600160a01b0316836001600160a01b0316146137145761371483826139b3565b6001600160a01b03821661372b57610e2881613a50565b826001600160a01b0316826001600160a01b031614610e2857610e288282613b29565b611225828260405180602001604052806000815250613b6d565b613771826125a0565b6137d45760405162461bcd60e51b815260206004820152602e60248201527f45524337323155524953746f726167653a2055524920736574206f66206e6f6e60448201526d32bc34b9ba32b73a103a37b5b2b760911b6064820152608401610cf2565b6000828152600a602090815260409091208251610e2892840190613cdf565b60006137fe826119ce565b905061380c816000846130ec565b6138176000836125bd565b6001600160a01b038116600090815260036020526040812080546001929061384090849061478b565b909155505060008281526002602052604080822080546001600160a01b0319169055518391906001600160a01b038416907fddf252ad1be2c89b69c2b068fc378daa952ba7f163c4a11628f55a4df523b3ef908390a45050565b6060816138be5750506040805180820190915260018152600360fc1b602082015290565b8160005b81156138e857806138d28161481a565b91506138e19050600a83614758565b91506138c2565b6000816001600160401b0381111561391057634e487b7160e01b600052604160045260246000fd5b6040519080825280601f01601f19166020018201604052801561393a576020820181803683370190505b5090505b84156127175761394f60018361478b565b915061395c600a86614835565b613967906030614740565b60f81b81838151811061398a57634e487b7160e01b600052603260045260246000fd5b60200101906001600160f81b031916908160001a9053506139ac600a86614758565b945061393e565b600060016139c084611aaa565b6139ca919061478b565b600083815260076020526040902054909150808214613a1d576001600160a01b03841660009081526006602090815260408083208584528252808320548484528184208190558352600790915290208190555b5060009182526007602090815260408084208490556001600160a01b039094168352600681528383209183525290812055565b600854600090613a629060019061478b565b60008381526009602052604081205460088054939450909284908110613a9857634e487b7160e01b600052603260045260246000fd5b906000526020600020015490508060088381548110613ac757634e487b7160e01b600052603260045260246000fd5b6000918252602080832090910192909255828152600990915260408082208490558582528120556008805480613b0d57634e487b7160e01b600052603160045260246000fd5b6001900381819060005260206000200160009055905550505050565b6000613b3483611aaa565b6001600160a01b039093166000908152600660209081526040808320868452825280832085905593825260079052919091209190915550565b613b778383613ba0565b613b846000848484613281565b610e285760405162461bcd60e51b8152600401610cf2906145d4565b6001600160a01b038216613bf65760405162461bcd60e51b815260206004820181905260248201527f4552433732313a206d696e7420746f20746865207a65726f20616464726573736044820152606401610cf2565b613bff816125a0565b15613c4c5760405162461bcd60e51b815260206004820152601c60248201527f4552433732313a20746f6b656e20616c7265616479206d696e746564000000006044820152606401610cf2565b613c58600083836130ec565b6001600160a01b0382166000908152600360205260408120805460019290613c81908490614740565b909155505060008181526002602052604080822080546001600160a01b0319166001600160a01b03861690811790915590518392907fddf252ad1be2c89b69c2b068fc378daa952ba7f163c4a11628f55a4df523b3ef908290a45050565b828054613ceb906147e5565b90600052602060002090601f016020900481019282613d0d5760008555613d53565b82601f10613d2657805160ff1916838001178555613d53565b82800160010185558215613d53579182015b82811115613d53578251825591602001919060010190613d38565b50613d5f929150613e2c565b5090565b828054828255906000526020600020908101928215613d535791602002820182811115613d53578251825591602001919060010190613d38565b828054828255906000526020600020908101928215613dea579160200282015b82811115613dea5782518051613dda918491602090910190613cdf565b5091602001919060010190613dbd565b50613d5f929150613e41565b508054613e02906147e5565b6000825580601f10613e12575050565b601f01602090049060005260206000209081019061124991905b5b80821115613d5f5760008155600101613e2d565b80821115613d5f576000613e558282613df6565b50600101613e41565b60006001600160401b03831115613e7757613e77614875565b613e8a601f8401601f19166020016146ed565b9050828152838383011115613e9e57600080fd5b828260208301376000602084830101529392505050565b80356001600160a01b0381168114613ecc57600080fd5b919050565b600082601f830112613ee1578081fd5b81356020613ef6613ef18361471d565b6146ed565b80838252828201915082860187848660051b8901011115613f15578586fd5b855b85811015613f555781356001600160401b03811115613f34578788fd5b613f428a87838c0101613fbf565b8552509284019290840190600101613f17565b5090979650505050505050565b600082601f830112613f72578081fd5b81356020613f82613ef18361471d565b80838252828201915082860187848660051b8901011115613fa1578586fd5b855b85811015613f5557813584529284019290840190600101613fa3565b600082601f830112613fcf578081fd5b6128d283833560208501613e5e565b600060208284031215613fef578081fd5b6128d282613eb5565b6000806040838503121561400a578081fd5b61401383613eb5565b915061402160208401613eb5565b90509250929050565b60008060006060848603121561403e578081fd5b61404784613eb5565b925061405560208501613eb5565b9150604084013590509250925092565b60008060008060006080868803121561407c578081fd5b61408586613eb5565b945061409360208701613eb5565b93506040860135925060608601356001600160401b03808211156140b5578283fd5b818801915088601f8301126140c8578283fd5b8135818111156140d6578384fd5b8960208285010111156140e7578384fd5b9699959850939650602001949392505050565b6000806000806080858703121561410f578384fd5b61411885613eb5565b935061412660208601613eb5565b92506040850135915060608501356001600160401b03811115614147578182fd5b8501601f81018713614157578182fd5b61416687823560208401613e5e565b91505092959194509250565b60008060408385031215614184578182fd5b61418d83613eb5565b915060208301356001600160401b038111156141a7578182fd5b6141b385828601613ed1565b9150509250929050565b600080604083850312156141cf578182fd5b6141d883613eb5565b915060208301356141e88161488b565b809150509250929050565b60008060408385031215614205578182fd5b61420e83613eb5565b915060208301356001600160401b03811115614228578182fd5b6141b385828601613fbf565b600080600060608486031215614248578081fd5b61425184613eb5565b925060208401356001600160401b0381111561426b578182fd5b61427786828701613fbf565b925050604084013590509250925092565b6000806040838503121561429a578182fd5b6142a383613eb5565b946020939093013593505050565b6000806000606084860312156142c5578081fd5b83356001600160401b03808211156142db578283fd5b6142e787838801613ed1565b945060208601359150808211156142fc578283fd5b61430887838801613f62565b9350604086013591508082111561431d578283fd5b5061432a86828701613f62565b9150509250925092565b600060208284031215614345578081fd5b81516128d28161488b565b600060208284031215614361578081fd5b5035919050565b6000806040838503121561437a578182fd5b8235915061402160208401613eb5565b60006020828403121561439b578081fd5b81356128d281614899565b6000602082840312156143b7578081fd5b81516128d281614899565b6000602082840312156143d3578081fd5b5051919050565b600080604083850312156143ec578182fd5b8235915060208301356001600160401b03811115614228578182fd5b6000806040838503121561441a578182fd5b50508035926020909101359150565b60008060006060848603121561443d578081fd5b505081359360208301359350604090920135919050565b6000815180845261446c8160208601602086016147a2565b601f01601f19169290920160200192915050565b600082516144928184602087016147a2565b9190910192915050565b600083516144ae8184602088016147a2565b8351908301906144c28183602088016147a2565b01949350505050565b7f416363657373436f6e74726f6c3a206163636f756e74200000000000000000008152600083516145038160178501602088016147a2565b7001034b99036b4b9b9b4b733903937b6329607d1b60179184019182015283516145348160288401602088016147a2565b01602801949350505050565b6001600160a01b038581168252841660208201526040810183905260806060820181905260009061457390830184614454565b9695505050505050565b6020808252825182820181905260009190848201906040850190845b818110156145b557835183529284019291840191600101614599565b50909695505050505050565b6020815260006128d26020830184614454565b60208082526032908201527f4552433732313a207472616e7366657220746f206e6f6e20455243373231526560408201527131b2b4bb32b91034b6b83632b6b2b73a32b960711b606082015260800190565b6020808252818101527f4f776e61626c653a2063616c6c6572206973206e6f7420746865206f776e6572604082015260600190565b60208082526021908201527f76616c75652073686f756c642062652067726561746572207468616e207a65726040820152606f60f81b606082015260800190565b60208082526031908201527f4552433732313a207472616e736665722063616c6c6572206973206e6f74206f6040820152701ddb995c881b9bdc88185c1c1c9bdd9959607a1b606082015260800190565b604051601f8201601f191681016001600160401b038111828210171561471557614715614875565b604052919050565b60006001600160401b0382111561473657614736614875565b5060051b60200190565b6000821982111561475357614753614849565b500190565b6000826147675761476761485f565b500490565b600081600019048311821515161561478657614786614849565b500290565b60008282101561479d5761479d614849565b500390565b60005b838110156147bd5781810151838201526020016147a5565b838111156122db5750506000910152565b6000816147dd576147dd614849565b506000190190565b600181811c908216806147f957607f821691505b602082108114156110ea57634e487b7160e01b600052602260045260246000fd5b600060001982141561482e5761482e614849565b5060010190565b6000826148445761484461485f565b500690565b634e487b7160e01b600052601160045260246000fd5b634e487b7160e01b600052601260045260246000fd5b634e487b7160e01b600052604160045260246000fd5b801515811461124957600080fd5b6001600160e01b03198116811461124957600080fdfe65d7a28e3265b37a6474929f336521b332c1681b933f6cb9f3376673440d862a9f2df0fed2c77648de5860a4cc508cd0818c85b8b8a1ab4ceeef8d981c8956a6a2646970667358221220c4ac560e5a30ebf9414fafb5a15068d52f1149e096d16c523229a130881924fd64736f6c634300080400334f776e61626c653a2063616c6c6572206973206e6f7420746865206f776e657265d7a28e3265b37a6474929f336521b332c1681b933f6cb9f3376673440d862a9f2df0fed2c77648de5860a4cc508cd0818c85b8b8a1ab4ceeef8d981c8956a6",
  "linkReferences": {},
  "deployedLinkReferences": {}
}