{
  "_format": "hh-sol-artifact-1",
  "contractName": "Collection",
  "sourceName": "contracts/Collection.sol",
  "abi": [
    {
      "inputs": [
        {
          "internalType": "string",
          "name": "name",
          "type": "string"
        },
        {
          "internalType": "string",
          "name": "symbol",
          "type": "string"
        },
        {
          "internalType": "address",
          "name": "_quote",
          "type": "address"
        },
        {
          "internalType": "address",
          "name": "_payment",
          "type": "address"
        },
        {
          "internalType": "address",
          "name": "_treasury",
          "type": "address"
        },
        {
          "internalType": "uint256[]",
          "name": "configValues",
          "type": "uint256[]"
        }
      ],
      "stateMutability": "nonpayable",
      "type": "constructor"
    },
    {
      "anonymous": false,
      "inputs": [
        {
          "indexed": true,
          "internalType": "address",
          "name": "owner",
          "type": "address"
        },
        {
          "indexed": true,
          "internalType": "address",
          "name": "approved",
          "type": "address"
        },
        {
          "indexed": true,
          "internalType": "uint256",
          "name": "tokenId",
          "type": "uint256"
        }
      ],
      "name": "Approval",
      "type": "event"
    },
    {
      "anonymous": false,
      "inputs": [
        {
          "indexed": true,
          "internalType": "address",
          "name": "owner",
          "type": "address"
        },
        {
          "indexed": true,
          "internalType": "address",
          "name": "operator",
          "type": "address"
        },
        {
          "indexed": false,
          "internalType": "bool",
          "name": "approved",
          "type": "bool"
        }
      ],
      "name": "ApprovalForAll",
      "type": "event"
    },
    {
      "anonymous": false,
      "inputs": [
        {
          "indexed": false,
          "internalType": "address",
          "name": "",
          "type": "address"
        },
        {
          "indexed": false,
          "internalType": "string",
          "name": "",
          "type": "string"
        }
      ],
      "name": "Grant",
      "type": "event"
    },
    {
      "anonymous": false,
      "inputs": [
        {
          "indexed": true,
          "internalType": "address",
          "name": "previousOwner",
          "type": "address"
        },
        {
          "indexed": true,
          "internalType": "address",
          "name": "newOwner",
          "type": "address"
        }
      ],
      "name": "OwnershipTransferred",
      "type": "event"
    },
    {
      "anonymous": false,
      "inputs": [
        {
          "indexed": false,
          "internalType": "address",
          "name": "account",
          "type": "address"
        }
      ],
      "name": "Paused",
      "type": "event"
    },
    {
      "anonymous": false,
      "inputs": [
        {
          "indexed": true,
          "internalType": "bytes32",
          "name": "role",
          "type": "bytes32"
        },
        {
          "indexed": true,
          "internalType": "bytes32",
          "name": "previousAdminRole",
          "type": "bytes32"
        },
        {
          "indexed": true,
          "internalType": "bytes32",
          "name": "newAdminRole",
          "type": "bytes32"
        }
      ],
      "name": "RoleAdminChanged",
      "type": "event"
    },
    {
      "anonymous": false,
      "inputs": [
        {
          "indexed": true,
          "internalType": "bytes32",
          "name": "role",
          "type": "bytes32"
        },
        {
          "indexed": true,
          "internalType": "address",
          "name": "account",
          "type": "address"
        },
        {
          "indexed": true,
          "internalType": "address",
          "name": "sender",
          "type": "address"
        }
      ],
      "name": "RoleGranted",
      "type": "event"
    },
    {
      "anonymous": false,
      "inputs": [
        {
          "indexed": true,
          "internalType": "bytes32",
          "name": "role",
          "type": "bytes32"
        },
        {
          "indexed": true,
          "internalType": "address",
          "name": "account",
          "type": "address"
        },
        {
          "indexed": true,
          "internalType": "address",
          "name": "sender",
          "type": "address"
        }
      ],
      "name": "RoleRevoked",
      "type": "event"
    },
    {
      "anonymous": false,
      "inputs": [
        {
          "indexed": false,
          "internalType": "address",
          "name": "",
          "type": "address"
        },
        {
          "indexed": false,
          "internalType": "address",
          "name": "",
          "type": "address"
        },
        {
          "indexed": false,
          "internalType": "uint256",
          "name": "",
          "type": "uint256"
        }
      ],
      "name": "SetConfig",
      "type": "event"
    },
    {
      "anonymous": false,
      "inputs": [
        {
          "indexed": false,
          "internalType": "uint256",
          "name": "",
          "type": "uint256"
        }
      ],
      "name": "SetHardCap",
      "type": "event"
    },
    {
      "anonymous": false,
      "inputs": [
        {
          "indexed": false,
          "internalType": "uint256",
          "name": "",
          "type": "uint256"
        }
      ],
      "name": "SetLaunch",
      "type": "event"
    },
    {
      "anonymous": false,
      "inputs": [
        {
          "indexed": false,
          "internalType": "uint256",
          "name": "",
          "type": "uint256"
        }
      ],
      "name": "SetLockup",
      "type": "event"
    },
    {
      "anonymous": false,
      "inputs": [
        {
          "indexed": false,
          "internalType": "address",
          "name": "",
          "type": "address"
        }
      ],
      "name": "SetMysteryBox",
      "type": "event"
    },
    {
      "anonymous": false,
      "inputs": [
        {
          "indexed": false,
          "internalType": "address",
          "name": "",
          "type": "address"
        }
      ],
      "name": "SetQuote",
      "type": "event"
    },
    {
      "anonymous": false,
      "inputs": [
        {
          "indexed": true,
          "internalType": "address",
          "name": "from",
          "type": "address"
        },
        {
          "indexed": true,
          "internalType": "address",
          "name": "to",
          "type": "address"
        },
        {
          "indexed": true,
          "internalType": "uint256",
          "name": "tokenId",
          "type": "uint256"
        }
      ],
      "name": "Transfer",
      "type": "event"
    },
    {
      "anonymous": false,
      "inputs": [
        {
          "indexed": false,
          "internalType": "address",
          "name": "account",
          "type": "address"
        }
      ],
      "name": "Unpaused",
      "type": "event"
    },
    {
      "inputs": [],
      "name": "DEFAULT_ADMIN_ROLE",
      "outputs": [
        {
          "internalType": "bytes32",
          "name": "",
          "type": "bytes32"
        }
      ],
      "stateMutability": "view",
      "type": "function"
    },
    {
      "inputs": [],
      "name": "MINTER_ROLE",
      "outputs": [
        {
          "internalType": "bytes32",
          "name": "",
          "type": "bytes32"
        }
      ],
      "stateMutability": "view",
      "type": "function"
    },
    {
      "inputs": [],
      "name": "PAUSER_ROLE",
      "outputs": [
        {
          "internalType": "bytes32",
          "name": "",
          "type": "bytes32"
        }
      ],
      "stateMutability": "view",
      "type": "function"
    },
    {
      "inputs": [
        {
          "internalType": "address",
          "name": "minter",
          "type": "address"
        }
      ],
      "name": "addMinter",
      "outputs": [],
      "stateMutability": "nonpayable",
      "type": "function"
    },
    {
      "inputs": [
        {
          "internalType": "address",
          "name": "pauser",
          "type": "address"
        }
      ],
      "name": "addPauser",
      "outputs": [],
      "stateMutability": "nonpayable",
      "type": "function"
    },
    {
      "inputs": [
        {
          "internalType": "address",
          "name": "to",
          "type": "address"
        },
        {
          "internalType": "uint256",
          "name": "tokenId",
          "type": "uint256"
        }
      ],
      "name": "approve",
      "outputs": [],
      "stateMutability": "nonpayable",
      "type": "function"
    },
    {
      "inputs": [
        {
          "internalType": "address",
          "name": "owner",
          "type": "address"
        }
      ],
      "name": "balanceOf",
      "outputs": [
        {
          "internalType": "uint256",
          "name": "",
          "type": "uint256"
        }
      ],
      "stateMutability": "view",
      "type": "function"
    },
    {
      "inputs": [
        {
          "internalType": "uint256",
          "name": "tokenId",
          "type": "uint256"
        }
      ],
      "name": "burn",
      "outputs": [],
      "stateMutability": "nonpayable",
      "type": "function"
    },
    {
      "inputs": [
        {
          "internalType": "uint256",
          "name": "_itemIx",
          "type": "uint256"
        },
        {
          "internalType": "uint256",
          "name": "_amount",
          "type": "uint256"
        }
      ],
      "name": "buyItemEth",
      "outputs": [],
      "stateMutability": "payable",
      "type": "function"
    },
    {
      "inputs": [
        {
          "internalType": "uint256",
          "name": "_itemIx",
          "type": "uint256"
        },
        {
          "internalType": "uint256",
          "name": "_payment",
          "type": "uint256"
        },
        {
          "internalType": "uint256",
          "name": "_amount",
          "type": "uint256"
        }
      ],
      "name": "buyItemQuote",
      "outputs": [],
      "stateMutability": "payable",
      "type": "function"
    },
    {
      "inputs": [],
      "name": "feeRate",
      "outputs": [
        {
          "internalType": "uint256",
          "name": "",
          "type": "uint256"
        }
      ],
      "stateMutability": "view",
      "type": "function"
    },
    {
      "inputs": [
        {
          "internalType": "uint256",
          "name": "tokenId",
          "type": "uint256"
        }
      ],
      "name": "getApproved",
      "outputs": [
        {
          "internalType": "address",
          "name": "",
          "type": "address"
        }
      ],
      "stateMutability": "view",
      "type": "function"
    },
    {
      "inputs": [],
      "name": "getItemAmounts",
      "outputs": [
        {
          "internalType": "uint256[]",
          "name": "",
          "type": "uint256[]"
        }
      ],
      "stateMutability": "view",
      "type": "function"
    },
    {
      "inputs": [],
      "name": "getItemRemains",
      "outputs": [
        {
          "internalType": "uint256",
          "name": "",
          "type": "uint256"
        }
      ],
      "stateMutability": "view",
      "type": "function"
    },
    {
      "inputs": [
        {
          "internalType": "bytes32",
          "name": "role",
          "type": "bytes32"
        }
      ],
      "name": "getRoleAdmin",
      "outputs": [
        {
          "internalType": "bytes32",
          "name": "",
          "type": "bytes32"
        }
      ],
      "stateMutability": "view",
      "type": "function"
    },
    {
      "inputs": [],
      "name": "globalURI",
      "outputs": [
        {
          "internalType": "string",
          "name": "",
          "type": "string"
        }
      ],
      "stateMutability": "view",
      "type": "function"
    },
    {
      "inputs": [
        {
          "internalType": "bytes32",
          "name": "role",
          "type": "bytes32"
        },
        {
          "internalType": "address",
          "name": "account",
          "type": "address"
        }
      ],
      "name": "grantRole",
      "outputs": [],
      "stateMutability": "nonpayable",
      "type": "function"
    },
    {
      "inputs": [],
      "name": "hardCap",
      "outputs": [
        {
          "internalType": "uint256",
          "name": "",
          "type": "uint256"
        }
      ],
      "stateMutability": "view",
      "type": "function"
    },
    {
      "inputs": [
        {
          "internalType": "bytes32",
          "name": "role",
          "type": "bytes32"
        },
        {
          "internalType": "address",
          "name": "account",
          "type": "address"
        }
      ],
      "name": "hasRole",
      "outputs": [
        {
          "internalType": "bool",
          "name": "",
          "type": "bool"
        }
      ],
      "stateMutability": "view",
      "type": "function"
    },
    {
      "inputs": [
        {
          "internalType": "address",
          "name": "owner",
          "type": "address"
        },
        {
          "internalType": "address",
          "name": "operator",
          "type": "address"
        }
      ],
      "name": "isApprovedForAll",
      "outputs": [
        {
          "internalType": "bool",
          "name": "",
          "type": "bool"
        }
      ],
      "stateMutability": "view",
      "type": "function"
    },
    {
      "inputs": [
        {
          "internalType": "uint256",
          "name": "",
          "type": "uint256"
        }
      ],
      "name": "itemAmounts",
      "outputs": [
        {
          "internalType": "uint256",
          "name": "",
          "type": "uint256"
        }
      ],
      "stateMutability": "view",
      "type": "function"
    },
    {
      "inputs": [
        {
          "internalType": "uint256",
          "name": "",
          "type": "uint256"
        }
      ],
      "name": "itemPrices",
      "outputs": [
        {
          "internalType": "uint256",
          "name": "",
          "type": "uint256"
        }
      ],
      "stateMutability": "view",
      "type": "function"
    },
    {
      "inputs": [
        {
          "internalType": "uint256",
          "name": "",
          "type": "uint256"
        }
      ],
      "name": "itemURIs",
      "outputs": [
        {
          "internalType": "string",
          "name": "",
          "type": "string"
        }
      ],
      "stateMutability": "view",
      "type": "function"
    },
    {
      "inputs": [
        {
          "internalType": "uint256",
          "name": "",
          "type": "uint256"
        }
      ],
      "name": "items",
      "outputs": [
        {
          "internalType": "uint256",
          "name": "",
          "type": "uint256"
        }
      ],
      "stateMutability": "view",
      "type": "function"
    },
    {
      "inputs": [],
      "name": "launch",
      "outputs": [
        {
          "internalType": "uint256",
          "name": "",
          "type": "uint256"
        }
      ],
      "stateMutability": "view",
      "type": "function"
    },
    {
      "inputs": [],
      "name": "lockup",
      "outputs": [
        {
          "internalType": "uint256",
          "name": "",
          "type": "uint256"
        }
      ],
      "stateMutability": "view",
      "type": "function"
    },
    {
      "inputs": [],
      "name": "mysteryBox",
      "outputs": [
        {
          "internalType": "address",
          "name": "",
          "type": "address"
        }
      ],
      "stateMutability": "view",
      "type": "function"
    },
    {
      "inputs": [],
      "name": "name",
      "outputs": [
        {
          "internalType": "string",
          "name": "",
          "type": "string"
        }
      ],
      "stateMutability": "view",
      "type": "function"
    },
    {
      "inputs": [
        {
          "internalType": "address",
          "name": "operator",
          "type": "address"
        },
        {
          "internalType": "address",
          "name": "from",
          "type": "address"
        },
        {
          "internalType": "uint256",
          "name": "tokenId",
          "type": "uint256"
        },
        {
          "internalType": "bytes",
          "name": "data",
          "type": "bytes"
        }
      ],
      "name": "onERC721Received",
      "outputs": [
        {
          "internalType": "bytes4",
          "name": "",
          "type": "bytes4"
        }
      ],
      "stateMutability": "pure",
      "type": "function"
    },
    {
      "inputs": [],
      "name": "owner",
      "outputs": [
        {
          "internalType": "address",
          "name": "",
          "type": "address"
        }
      ],
      "stateMutability": "view",
      "type": "function"
    },
    {
      "inputs": [
        {
          "internalType": "uint256",
          "name": "tokenId",
          "type": "uint256"
        }
      ],
      "name": "ownerOf",
      "outputs": [
        {
          "internalType": "address",
          "name": "",
          "type": "address"
        }
      ],
      "stateMutability": "view",
      "type": "function"
    },
    {
      "inputs": [],
      "name": "pause",
      "outputs": [],
      "stateMutability": "nonpayable",
      "type": "function"
    },
    {
      "inputs": [],
      "name": "paused",
      "outputs": [
        {
          "internalType": "bool",
          "name": "",
          "type": "bool"
        }
      ],
      "stateMutability": "view",
      "type": "function"
    },
    {
      "inputs": [],
      "name": "payment",
      "outputs": [
        {
          "internalType": "address",
          "name": "",
          "type": "address"
        }
      ],
      "stateMutability": "view",
      "type": "function"
    },
    {
      "inputs": [],
      "name": "quote",
      "outputs": [
        {
          "internalType": "address",
          "name": "",
          "type": "address"
        }
      ],
      "stateMutability": "view",
      "type": "function"
    },
    {
      "inputs": [
        {
          "internalType": "string[]",
          "name": "uris",
          "type": "string[]"
        },
        {
          "internalType": "uint256[]",
          "name": "amounts",
          "type": "uint256[]"
        },
        {
          "internalType": "uint256[]",
          "name": "prices",
          "type": "uint256[]"
        }
      ],
      "name": "registerItems",
      "outputs": [],
      "stateMutability": "nonpayable",
      "type": "function"
    },
    {
      "inputs": [],
      "name": "renounceOwnership",
      "outputs": [],
      "stateMutability": "nonpayable",
      "type": "function"
    },
    {
      "inputs": [
        {
          "internalType": "bytes32",
          "name": "role",
          "type": "bytes32"
        },
        {
          "internalType": "address",
          "name": "account",
          "type": "address"
        }
      ],
      "name": "renounceRole",
      "outputs": [],
      "stateMutability": "nonpayable",
      "type": "function"
    },
    {
      "inputs": [
        {
          "internalType": "bytes32",
          "name": "role",
          "type": "bytes32"
        },
        {
          "internalType": "address",
          "name": "account",
          "type": "address"
        }
      ],
      "name": "revokeRole",
      "outputs": [],
      "stateMutability": "nonpayable",
      "type": "function"
    },
    {
      "inputs": [
        {
          "internalType": "address",
          "name": "to",
          "type": "address"
        },
        {
          "internalType": "string[]",
          "name": "uris",
          "type": "string[]"
        }
      ],
      "name": "safeBatchMint",
      "outputs": [],
      "stateMutability": "view",
      "type": "function"
    },
    {
      "inputs": [
        {
          "internalType": "address",
          "name": "to",
          "type": "address"
        },
        {
          "internalType": "string",
          "name": "uri",
          "type": "string"
        },
        {
          "internalType": "uint256",
          "name": "amount",
          "type": "uint256"
        }
      ],
      "name": "safeBatchMintLight",
      "outputs": [],
      "stateMutability": "nonpayable",
      "type": "function"
    },
    {
      "inputs": [
        {
          "internalType": "address",
          "name": "to",
          "type": "address"
        },
        {
          "internalType": "string",
          "name": "uri",
          "type": "string"
        }
      ],
      "name": "safeMint",
      "outputs": [
        {
          "internalType": "uint256",
          "name": "",
          "type": "uint256"
        }
      ],
      "stateMutability": "view",
      "type": "function"
    },
    {
      "inputs": [
        {
          "internalType": "address",
          "name": "to",
          "type": "address"
        }
      ],
      "name": "safeMintTo",
      "outputs": [],
      "stateMutability": "nonpayable",
      "type": "function"
    },
    {
      "inputs": [
        {
          "internalType": "address",
          "name": "from",
          "type": "address"
        },
        {
          "internalType": "address",
          "name": "to",
          "type": "address"
        },
        {
          "internalType": "uint256",
          "name": "tokenId",
          "type": "uint256"
        }
      ],
      "name": "safeTransferFrom",
      "outputs": [],
      "stateMutability": "nonpayable",
      "type": "function"
    },
    {
      "inputs": [
        {
          "internalType": "address",
          "name": "from",
          "type": "address"
        },
        {
          "internalType": "address",
          "name": "to",
          "type": "address"
        },
        {
          "internalType": "uint256",
          "name": "tokenId",
          "type": "uint256"
        },
        {
          "internalType": "bytes",
          "name": "_data",
          "type": "bytes"
        }
      ],
      "name": "safeTransferFrom",
      "outputs": [],
      "stateMutability": "nonpayable",
      "type": "function"
    },
    {
      "inputs": [
        {
          "internalType": "address",
          "name": "operator",
          "type": "address"
        },
        {
          "internalType": "bool",
          "name": "approved",
          "type": "bool"
        }
      ],
      "name": "setApprovalForAll",
      "outputs": [],
      "stateMutability": "nonpayable",
      "type": "function"
    },
    {
      "inputs": [
        {
          "internalType": "address",
          "name": "_payment",
          "type": "address"
        },
        {
          "internalType": "address",
          "name": "_treasury",
          "type": "address"
        },
        {
          "internalType": "uint256",
          "name": "_feeRate",
          "type": "uint256"
        }
      ],
      "name": "setConfig",
      "outputs": [],
      "stateMutability": "nonpayable",
      "type": "function"
    },
    {
      "inputs": [
        {
          "internalType": "uint256",
          "name": "_hardCap",
          "type": "uint256"
        },
        {
          "internalType": "string",
          "name": "_uri",
          "type": "string"
        }
      ],
      "name": "setHardCap",
      "outputs": [],
      "stateMutability": "nonpayable",
      "type": "function"
    },
    {
      "inputs": [
        {
          "internalType": "uint256",
          "name": "_launch",
          "type": "uint256"
        }
      ],
      "name": "setLaunch",
      "outputs": [],
      "stateMutability": "nonpayable",
      "type": "function"
    },
    {
      "inputs": [
        {
          "internalType": "uint256",
          "name": "_lockup",
          "type": "uint256"
        }
      ],
      "name": "setLockup",
      "outputs": [],
      "stateMutability": "nonpayable",
      "type": "function"
    },
    {
      "inputs": [
        {
          "internalType": "address",
          "name": "_mbox",
          "type": "address"
        }
      ],
      "name": "setMysteryBox",
      "outputs": [],
      "stateMutability": "nonpayable",
      "type": "function"
    },
    {
      "inputs": [
        {
          "internalType": "address",
          "name": "_quote",
          "type": "address"
        }
      ],
      "name": "setQuote",
      "outputs": [],
      "stateMutability": "nonpayable",
      "type": "function"
    },
    {
      "inputs": [
        {
          "internalType": "bytes4",
          "name": "interfaceId",
          "type": "bytes4"
        }
      ],
      "name": "supportsInterface",
      "outputs": [
        {
          "internalType": "bool",
          "name": "",
          "type": "bool"
        }
      ],
      "stateMutability": "view",
      "type": "function"
    },
    {
      "inputs": [],
      "name": "symbol",
      "outputs": [
        {
          "internalType": "string",
          "name": "",
          "type": "string"
        }
      ],
      "stateMutability": "view",
      "type": "function"
    },
    {
      "inputs": [
        {
          "internalType": "uint256",
          "name": "index",
          "type": "uint256"
        }
      ],
      "name": "tokenByIndex",
      "outputs": [
        {
          "internalType": "uint256",
          "name": "",
          "type": "uint256"
        }
      ],
      "stateMutability": "view",
      "type": "function"
    },
    {
      "inputs": [
        {
          "internalType": "address",
          "name": "owner",
          "type": "address"
        },
        {
          "internalType": "uint256",
          "name": "index",
          "type": "uint256"
        }
      ],
      "name": "tokenOfOwnerByIndex",
      "outputs": [
        {
          "internalType": "uint256",
          "name": "",
          "type": "uint256"
        }
      ],
      "stateMutability": "view",
      "type": "function"
    },
    {
      "inputs": [
        {
          "internalType": "uint256",
          "name": "tokenId",
          "type": "uint256"
        }
      ],
      "name": "tokenURI",
      "outputs": [
        {
          "internalType": "string",
          "name": "",
          "type": "string"
        }
      ],
      "stateMutability": "view",
      "type": "function"
    },
    {
      "inputs": [],
      "name": "totalItems",
      "outputs": [
        {
          "internalType": "uint256",
          "name": "",
          "type": "uint256"
        }
      ],
      "stateMutability": "view",
      "type": "function"
    },
    {
      "inputs": [],
      "name": "totalSupply",
      "outputs": [
        {
          "internalType": "uint256",
          "name": "",
          "type": "uint256"
        }
      ],
      "stateMutability": "view",
      "type": "function"
    },
    {
      "inputs": [
        {
          "internalType": "address",
          "name": "from",
          "type": "address"
        },
        {
          "internalType": "address",
          "name": "to",
          "type": "address"
        },
        {
          "internalType": "uint256",
          "name": "tokenId",
          "type": "uint256"
        }
      ],
      "name": "transferFrom",
      "outputs": [],
      "stateMutability": "nonpayable",
      "type": "function"
    },
    {
      "inputs": [
        {
          "internalType": "address",
          "name": "newOwner",
          "type": "address"
        }
      ],
      "name": "transferOwnership",
      "outputs": [],
      "stateMutability": "nonpayable",
      "type": "function"
    },
    {
      "inputs": [],
      "name": "treasury",
      "outputs": [
        {
          "internalType": "address",
          "name": "",
          "type": "address"
        }
      ],
      "stateMutability": "view",
      "type": "function"
    },
    {
      "inputs": [],
      "name": "unpause",
      "outputs": [],
      "stateMutability": "nonpayable",
      "type": "function"
    },
    {
      "stateMutability": "payable",
      "type": "receive"
    }
  ],
  "bytecode": "0x60806040526000600d819055601280546001600160a01b03191690556079556032607e556082805460ff191690553480156200003a57600080fd5b5060405162005199380380620051998339810160408190526200005d91620007d5565b8585818181600090805190602001906200007992919062000681565b5080516200008f90600190602084019062000681565b5050600b805460ff1916905550620000a73362000252565b620000b4600033620002ac565b620000cf6000805160206200515983398151915233620002ac565b620000ea6000805160206200517983398151915233620002ac565b505060016011558051600314620001485760405162461bcd60e51b815260206004820152601a60248201527f696e76616c696420636f6e6669672064617461206c656e67746800000000000060448201526064015b60405180910390fd5b62000155600033620002ac565b620001706000805160206200515983398151915233620002ac565b6200018b6000805160206200517983398151915233620002ac565b620001c581600081518110620001b157634e487b7160e01b600052603260045260246000fd5b60200260200101516200035160201b60201c565b620001ff81600181518110620001eb57634e487b7160e01b600052603260045260246000fd5b6020026020010151620003de60201b60201c565b6200023b8383836002815181106200022757634e487b7160e01b600052603260045260246000fd5b60200260200101516200046560201b60201c565b6200024684620005e1565b5050505050506200098f565b600b80546001600160a01b03838116610100818102610100600160a81b031985161790945560405193909204169182907f8be0079c531659141344cd1fd0a4f28419497f9722a3daafe3b4186f6b6457e090600090a35050565b6000828152600c602090815260408083206001600160a01b038516845290915290205460ff166200034d576000828152600c602090815260408083206001600160a01b03851684529091529020805460ff191660011790556200030c3390565b6001600160a01b0316816001600160a01b0316837f2f8788117e7eff1d82e926ec794901d17c78024a50270940304540a733656f0d60405160405180910390a45b5050565b600b546001600160a01b03610100909104163314620003a25760405162461bcd60e51b815260206004820181905260248201526000805160206200513983398151915260448201526064016200013f565b607a8190556040518181527f7c8826e4db3679f20c86da0c68d37f9dbcd1d638c56717e014f93c56d14c02d1906020015b60405180910390a150565b600b546001600160a01b036101009091041633146200042f5760405162461bcd60e51b815260206004820181905260248201526000805160206200513983398151915260448201526064016200013f565b607b8190556040518181527fa7ade4ab976b6643a971383d9822fb7c2fce66aa2e497d88c3b4f1475ea2b2e090602001620003d3565b600b546001600160a01b03610100909104163314620004b65760405162461bcd60e51b815260206004820181905260248201526000805160206200513983398151915260448201526064016200013f565b6001600160a01b0383166200050e5760405162461bcd60e51b815260206004820152601760248201527f696e76616c6964207061796d656e74206164647265737300000000000000000060448201526064016200013f565b6001600160a01b038216620005665760405162461bcd60e51b815260206004820152601860248201527f696e76616c69642074726561737572792061646472657373000000000000000060448201526064016200013f565b607c80546001600160a01b038581166001600160a01b03199283168117909355607d8054918616919092168117909155607e83905560408051928352602083019190915281018290527fe2be3027f197494650b7a98fd1cae67dacf615bd1d8bb05102999676f11638669060600160405180910390a1505050565b600b546001600160a01b03610100909104163314620006325760405162461bcd60e51b815260206004820181905260248201526000805160206200513983398151915260448201526064016200013f565b601280546001600160a01b0319166001600160a01b0383169081179091556040519081527fca92c759228172fe3894a344908fd20dfd37ba561b5af191f1f5b02ee03881fc90602001620003d3565b8280546200068f906200093c565b90600052602060002090601f016020900481019282620006b35760008555620006fe565b82601f10620006ce57805160ff1916838001178555620006fe565b82800160010185558215620006fe579182015b82811115620006fe578251825591602001919060010190620006e1565b506200070c92915062000710565b5090565b5b808211156200070c576000815560010162000711565b80516001600160a01b03811681146200073f57600080fd5b919050565b600082601f83011262000755578081fd5b81516001600160401b0381111562000771576200077162000979565b602062000787601f8301601f1916820162000909565b82815285828487010111156200079b578384fd5b835b83811015620007ba5785810183015182820184015282016200079d565b83811115620007cb57848385840101525b5095945050505050565b60008060008060008060c08789031215620007ee578182fd5b86516001600160401b038082111562000805578384fd5b620008138a838b0162000744565b97506020915081890151818111156200082a578485fd5b620008388b828c0162000744565b9750506200084960408a0162000727565b95506200085960608a0162000727565b94506200086960808a0162000727565b935060a0890151818111156200087d578384fd5b8901601f81018b136200088e578384fd5b805182811115620008a357620008a362000979565b8060051b9250620008b684840162000909565b8181528481019083860185850187018f1015620008d1578788fd5b8795505b83861015620008f5578051835260019590950194918601918601620008d5565b508096505050505050509295509295509295565b604051601f8201601f191681016001600160401b038111828210171562000934576200093462000979565b604052919050565b600181811c908216806200095157607f821691505b602082108114156200097357634e487b7160e01b600052602260045260246000fd5b50919050565b634e487b7160e01b600052604160045260246000fd5b61479a806200099f6000396000f3fe6080604052600436106103bc5760003560e01c806370a08231116101f2578063a2aa61eb1161010d578063d3d3224a116100a0578063e985e9c51161006f578063e985e9c514610b03578063f2fde38b14610b4c578063f3c8dc5914610b6c578063fb86a40414610b8c57600080fd5b8063d3d3224a14610a8a578063d539139314610a9f578063d547741f14610ac1578063e63ab1e914610ae157600080fd5b8063bfb231d2116100dc578063bfb231d214610a0a578063c38b761c14610a2a578063c87b56dd14610a4a578063d204c45e14610a6a57600080fd5b8063a2aa61eb1461098a578063b5a87cc1146109aa578063b88d4fde146109ca578063bf91ad9e146109ea57600080fd5b8063902835f611610185578063983b2d5611610154578063983b2d5614610915578063999b93af14610935578063a217fddf14610955578063a22cb4651461096a57600080fd5b8063902835f6146108aa57806391d14854146108ca57806395d89b41146108ea578063978bbdb9146108ff57600080fd5b80638456cb59116101c15780638456cb591461083f57806385be1b3b146108545780638a55b866146108675780638da5cb5b1461088757600080fd5b806370a08231146107ca578063715018a6146107ea5780637b43b827146107ff57806382dc1ec41461081f57600080fd5b80632f745c59116102e257806358dd6d95116102755780635dce7383116102445780635dce73831461075557806361d027b31461076a5780636352211e1461078a5780636ae6b459146107aa57600080fd5b806358dd6d95146106dd5780635c975abb146106fd5780635d1d37c3146107155780635d814dea1461073557600080fd5b806342842e0e116102b157806342842e0e1461065d57806342966c681461067d57806342f6487a1461069d5780634f6ccce7146106bd57600080fd5b80632f745c59146105f557806336568abe146106155780633f4ba83a146106355780633f7d70551461064a57600080fd5b806318160ddd1161035a578063248a9ca311610329578063248a9ca31461056d5780632799276d1461059d5780632d97714d146105b35780632f2ff15d146105d557600080fd5b806318160ddd146104f857806321bae9e41461050d57806323b872dd1461052d578063244906591461054d57600080fd5b806306fdde031161039657806306fdde0314610437578063081812fc14610459578063095ea7b314610491578063150b7a02146104b357600080fd5b806301339c21146103c857806301ffc9a7146103f157806306490f471461042157600080fd5b366103c357005b600080fd5b3480156103d457600080fd5b506103de607a5481565b6040519081526020015b60405180910390f35b3480156103fd57600080fd5b5061041161040c3660046141ff565b610ba2565b60405190151581526020016103e8565b34801561042d57600080fd5b506103de607b5481565b34801561044357600080fd5b5061044c610bcd565b6040516103e89190614436565b34801561046557600080fd5b506104796104743660046141c5565b610c5f565b6040516001600160a01b0390911681526020016103e8565b34801561049d57600080fd5b506104b16104ac3660046140fd565b610cec565b005b3480156104bf57600080fd5b506104df6104ce366004613eda565b630a85bd0160e11b95945050505050565b6040516001600160e01b031990911681526020016103e8565b34801561050457600080fd5b506008546103de565b34801561051957600080fd5b506104b1610528366004613e53565b610e02565b34801561053957600080fd5b506104b1610548366004613e9f565b610f4f565b34801561055957600080fd5b506104b161056836600461424f565b610f81565b34801561057957600080fd5b506103de6105883660046141c5565b6000908152600c602052604090206001015490565b3480156105a957600080fd5b506103de60795481565b3480156105bf57600080fd5b506105c8611009565b6040516103e891906143f2565b3480156105e157600080fd5b506104b16105f03660046141dd565b611065565b34801561060157600080fd5b506103de6106103660046140fd565b61108a565b34801561062157600080fd5b506104b16106303660046141dd565b611120565b34801561064157600080fd5b506104b161119e565b6104b161065836600461429e565b6111c1565b34801561066957600080fd5b506104b1610678366004613e9f565b6115aa565b34801561068957600080fd5b506104b16106983660046141c5565b6115c5565b3480156106a957600080fd5b50607c54610479906001600160a01b031681565b3480156106c957600080fd5b506103de6106d83660046141c5565b61163c565b3480156106e957600080fd5b506104b16106f8366004613fe7565b6116dd565b34801561070957600080fd5b50600b5460ff16610411565b34801561072157600080fd5b506104b16107303660046141c5565b611728565b34801561074157600080fd5b5061044c6107503660046141c5565b611794565b34801561076157600080fd5b506103de611840565b34801561077657600080fd5b50607d54610479906001600160a01b031681565b34801561079657600080fd5b506104796107a53660046141c5565b61188d565b3480156107b657600080fd5b506104b16107c53660046141c5565b611904565b3480156107d657600080fd5b506103de6107e5366004613e53565b611969565b3480156107f657600080fd5b506104b16119f0565b34801561080b57600080fd5b506104b161081a366004613e53565b611a2c565b34801561082b57600080fd5b506104b161083a366004613e53565b611acc565b34801561084b57600080fd5b506104b1611b72565b6104b161086236600461427d565b611b92565b34801561087357600080fd5b506103de6108823660046141c5565b611dae565b34801561089357600080fd5b50600b5461010090046001600160a01b0316610479565b3480156108b657600080fd5b506104b16108c5366004613e9f565b611dcf565b3480156108d657600080fd5b506104116108e53660046141dd565b611f26565b3480156108f657600080fd5b5061044c611f51565b34801561090b57600080fd5b506103de607e5481565b34801561092157600080fd5b506104b1610930366004613e53565b611f60565b34801561094157600080fd5b50601254610479906001600160a01b031681565b34801561096157600080fd5b506103de600081565b34801561097657600080fd5b506104b1610985366004614032565b612006565b34801561099657600080fd5b506104b16109a5366004613e53565b612011565b3480156109b657600080fd5b506104b16109c53660046140a9565b61208f565b3480156109d657600080fd5b506104b16109e5366004613f6f565b61211a565b3480156109f657600080fd5b506103de610a053660046141c5565b612152565b348015610a1657600080fd5b506103de610a253660046141c5565b612162565b348015610a3657600080fd5b50600f54610479906001600160a01b031681565b348015610a5657600080fd5b5061044c610a653660046141c5565b612172565b348015610a7657600080fd5b506103de610a85366004614068565b61217d565b348015610a9657600080fd5b5061044c612197565b348015610aab57600080fd5b506103de60008051602061474583398151915281565b348015610acd57600080fd5b506104b1610adc3660046141dd565b6121a4565b348015610aed57600080fd5b506103de60008051602061472583398151915281565b348015610b0f57600080fd5b50610411610b1e366004613e6d565b6001600160a01b03918216600090815260056020908152604080832093909416825291909152205460ff1690565b348015610b5857600080fd5b506104b1610b67366004613e53565b6121c9565b348015610b7857600080fd5b506104b1610b87366004614126565b612267565b348015610b9857600080fd5b506103de600d5481565b60006001600160e01b031982166380ac58cd60e01b1480610bc75750610bc7826123ec565b92915050565b606060008054610bdc9061465a565b80601f0160208091040260200160405190810160405280929190818152602001828054610c089061465a565b8015610c555780601f10610c2a57610100808354040283529160200191610c55565b820191906000526020600020905b815481529060010190602001808311610c3857829003601f168201915b5050505050905090565b6000610c6a82612411565b610cd05760405162461bcd60e51b815260206004820152602c60248201527f4552433732313a20617070726f76656420717565727920666f72206e6f6e657860448201526b34b9ba32b73a103a37b5b2b760a11b60648201526084015b60405180910390fd5b506000908152600460205260409020546001600160a01b031690565b6000610cf78261188d565b9050806001600160a01b0316836001600160a01b03161415610d655760405162461bcd60e51b815260206004820152602160248201527f4552433732313a20617070726f76616c20746f2063757272656e74206f776e656044820152603960f91b6064820152608401610cc7565b336001600160a01b0382161480610d815750610d818133610b1e565b610df35760405162461bcd60e51b815260206004820152603860248201527f4552433732313a20617070726f76652063616c6c6572206973206e6f74206f7760448201527f6e6572206e6f7220617070726f76656420666f7220616c6c00000000000000006064820152608401610cc7565b610dfd838361242e565b505050565b600080516020614745833981519152610e1a8161249c565b6000600e8054610e299061465a565b905011610e705760405162461bcd60e51b815260206004820152601560248201527411db1bd8985b08155492481a5cc81b9bdd081cd95d605a1b6044820152606401610cc7565b6001600160a01b038216610ebb5760405162461bcd60e51b8152602060048201526012602482015271496e76616c696420746f206164647265737360701b6044820152606401610cc7565b610dfd82600e8054610ecc9061465a565b80601f0160208091040260200160405190810160405280929190818152602001828054610ef89061465a565b8015610f455780601f10610f1a57610100808354040283529160200191610f45565b820191906000526020600020905b815481529060010190602001808311610f2857829003601f168201915b505050505061217d565b610f5a335b826124a6565b610f765760405162461bcd60e51b8152600401610cc790614511565b610dfd838383612590565b600b546001600160a01b03610100909104163314610fb15760405162461bcd60e51b8152600401610cc79061449b565b600d8290558051610fc990600e906020840190613b54565b507f57bbf0b7295e3c8587fe0fa3c76592771f6a96123bf723292fd0e3933436b71f600d54604051610ffd91815260200190565b60405180910390a15050565b60606000608080548060200260200160405190810160405280929190818152602001828054801561105957602002820191906000526020600020905b815481526020019060010190808311611045575b50939695505050505050565b6000828152600c60205260409020600101546110808161249c565b610dfd8383612737565b600061109583611969565b82106110f75760405162461bcd60e51b815260206004820152602b60248201527f455243373231456e756d657261626c653a206f776e657220696e646578206f7560448201526a74206f6620626f756e647360a81b6064820152608401610cc7565b506001600160a01b03919091166000908152600660209081526040808320938352929052205490565b6001600160a01b03811633146111905760405162461bcd60e51b815260206004820152602f60248201527f416363657373436f6e74726f6c3a2063616e206f6e6c792072656e6f756e636560448201526e103937b632b9903337b91039b2b63360891b6064820152608401610cc7565b61119a82826127bd565b5050565b6000805160206147258339815191526111b68161249c565b6111be612824565b50565b6012546001600160a01b031661120d5760405162461bcd60e51b81526020600482015260116024820152702bb937b7339038bab7ba32903a37b5b2b760791b6044820152606401610cc7565b607a54421161125e5760405162461bcd60e51b815260206004820152601b60248201527f4e6f7420796574206c61756e63682074696d65207265616368656400000000006044820152606401610cc7565b6000821161127e5760405162461bcd60e51b8152600401610cc7906144d0565b6112bc608184815481106112a257634e487b7160e01b600052603260045260246000fd5b9060005260206000200154826128b790919063ffffffff16565b821461130a5760405162461bcd60e51b815260206004820152601d60248201527f76616c756520616e6420616d6f756e74206973206e6f74206d617463680000006044820152606401610cc7565b6012546040516370a0823160e01b81523360048201526000916001600160a01b0316906370a082319060240160206040518083038186803b15801561134e57600080fd5b505afa158015611362573d6000803e3d6000fd5b505050506040513d601f19601f820116820180604052508101906113869190614237565b90508281116113d75760405162461bcd60e51b815260206004820152601b60248201527f6c61636b206f662071756f746520746f6b656e2062616c616e636500000000006044820152606401610cc7565b6012546113ef906001600160a01b03163330866128ca565b6000805b6080548110156114585780861015611446576114436080828154811061142957634e487b7160e01b600052603260045260246000fd5b906000526020600020015483612a0890919063ffffffff16565b91505b806114508161468f565b9150506113f3565b5060005b83811015611598576114976114906013886064811061148b57634e487b7160e01b600052603260045260246000fd5b015490565b8390612a08565b91506115573383607f89815481106114bf57634e487b7160e01b600052603260045260246000fd5b9060005260206000200180546114d49061465a565b80601f01602080910402602001604051908101604052809291908181526020018280546115009061465a565b801561154d5780601f106115225761010080835404028352916020019161154d565b820191906000526020600020905b81548152906001019060200180831161153057829003601f168201915b5050505050612a14565b506115866013876064811061157c57634e487b7160e01b600052603260045260246000fd5b0180546001019055565b806115908161468f565b91505061145c565b506115a38584612a2b565b5050505050565b610dfd8383836040518060200160405280600081525061211a565b6115ce33610f54565b6116335760405162461bcd60e51b815260206004820152603060248201527f4552433732314275726e61626c653a2063616c6c6572206973206e6f74206f7760448201526f1b995c881b9bdc88185c1c1c9bdd995960821b6064820152608401610cc7565b6111be81612b7d565b600061164760085490565b82106116aa5760405162461bcd60e51b815260206004820152602c60248201527f455243373231456e756d657261626c653a20676c6f62616c20696e646578206f60448201526b7574206f6620626f756e647360a01b6064820152608401610cc7565b600882815481106116cb57634e487b7160e01b600052603260045260246000fd5b90600052602060002001549050919050565b6000805160206147458339815191526116f58161249c565b60405162461bcd60e51b8152602060048201526008602482015267111a5cd8589b195960c21b6044820152606401610cc7565b600b546001600160a01b036101009091041633146117585760405162461bcd60e51b8152600401610cc79061449b565b607a8190556040518181527f7c8826e4db3679f20c86da0c68d37f9dbcd1d638c56717e014f93c56d14c02d1906020015b60405180910390a150565b607f81815481106117a457600080fd5b9060005260206000200160009150905080546117bf9061465a565b80601f01602080910402602001604051908101604052809291908181526020018280546117eb9061465a565b80156118385780601f1061180d57610100808354040283529160200191611838565b820191906000526020600020905b81548152906001019060200180831161181b57829003601f168201915b505050505081565b600080805b608054811015611887576118736080828154811061142957634e487b7160e01b600052603260045260246000fd5b91508061187f8161468f565b915050611845565b50919050565b6000818152600260205260408120546001600160a01b031680610bc75760405162461bcd60e51b815260206004820152602960248201527f4552433732313a206f776e657220717565727920666f72206e6f6e657869737460448201526832b73a103a37b5b2b760b91b6064820152608401610cc7565b600b546001600160a01b036101009091041633146119345760405162461bcd60e51b8152600401610cc79061449b565b607b8190556040518181527fa7ade4ab976b6643a971383d9822fb7c2fce66aa2e497d88c3b4f1475ea2b2e090602001611789565b60006001600160a01b0382166119d45760405162461bcd60e51b815260206004820152602a60248201527f4552433732313a2062616c616e636520717565727920666f7220746865207a65604482015269726f206164647265737360b01b6064820152608401610cc7565b506001600160a01b031660009081526003602052604090205490565b600b546001600160a01b03610100909104163314611a205760405162461bcd60e51b8152600401610cc79061449b565b611a2a6000612b86565b565b600b546001600160a01b03610100909104163314611a5c5760405162461bcd60e51b8152600401610cc79061449b565b600f80546001600160a01b0319166001600160a01b038316179055611a8f60008051602061474583398151915282612737565b600f546040516001600160a01b0390911681527f329b1203fc60a62c4a0fd3ff1554a07f92a2f117cc590422dd105811bb484ded90602001611789565b600b546001600160a01b03610100909104163314611afc5760405162461bcd60e51b8152600401610cc79061449b565b611b1460008051602061472583398151915282612737565b604080516001600160a01b038316815260208101829052600b918101919091526a5041555345525f524f4c4560a81b60608201527f0578acc86b18d67c13a5e6eed8c670fb7052f530b48a2acb167d6ca77509a38490608001611789565b600080516020614725833981519152611b8a8161249c565b6111be612be0565b6012546001600160a01b031615611bdf5760405162461bcd60e51b81526020600482015260116024820152702bb937b7339038bab7ba32903a37b5b2b760791b6044820152606401610cc7565b607a544211611c305760405162461bcd60e51b815260206004820152601b60248201527f4e6f7420796574206c61756e63682074696d65207265616368656400000000006044820152606401610cc7565b60003411611c505760405162461bcd60e51b8152600401610cc7906144d0565b611c74608183815481106112a257634e487b7160e01b600052603260045260246000fd5b3414611cc25760405162461bcd60e51b815260206004820152601d60248201527f76616c756520616e6420616d6f756e74206973206e6f74206d617463680000006044820152606401610cc7565b6000805b608054811015611d115780841015611cff57611cfc6080828154811061142957634e487b7160e01b600052603260045260246000fd5b91505b80611d098161468f565b915050611cc6565b5060005b82811015611da357611d446114906013866064811061148b57634e487b7160e01b600052603260045260246000fd5b9150611d6c3383607f87815481106114bf57634e487b7160e01b600052603260045260246000fd5b50611d916013856064811061157c57634e487b7160e01b600052603260045260246000fd5b80611d9b8161468f565b915050611d15565b50610dfd8383612a2b565b60808181548110611dbe57600080fd5b600091825260209091200154905081565b600b546001600160a01b03610100909104163314611dff5760405162461bcd60e51b8152600401610cc79061449b565b6001600160a01b038316611e555760405162461bcd60e51b815260206004820152601760248201527f696e76616c6964207061796d656e7420616464726573730000000000000000006044820152606401610cc7565b6001600160a01b038216611eab5760405162461bcd60e51b815260206004820152601860248201527f696e76616c6964207472656173757279206164647265737300000000000000006044820152606401610cc7565b607c80546001600160a01b038581166001600160a01b03199283168117909355607d8054918616919092168117909155607e83905560408051928352602083019190915281018290527fe2be3027f197494650b7a98fd1cae67dacf615bd1d8bb05102999676f11638669060600160405180910390a1505050565b6000918252600c602090815260408084206001600160a01b0393909316845291905290205460ff1690565b606060018054610bdc9061465a565b600b546001600160a01b03610100909104163314611f905760405162461bcd60e51b8152600401610cc79061449b565b611fa860008051602061474583398151915282612737565b604080516001600160a01b038316815260208101829052600b918101919091526a4d494e5445525f524f4c4560a81b60608201527f0578acc86b18d67c13a5e6eed8c670fb7052f530b48a2acb167d6ca77509a38490608001611789565b61119a338383612c5b565b600b546001600160a01b036101009091041633146120415760405162461bcd60e51b8152600401610cc79061449b565b601280546001600160a01b0319166001600160a01b0383169081179091556040519081527fca92c759228172fe3894a344908fd20dfd37ba561b5af191f1f5b02ee03881fc90602001611789565b6000805160206147458339815191526120a78161249c565b6001600160a01b0384166120f25760405162461bcd60e51b8152602060048201526012602482015271496e76616c696420746f206164647265737360701b6044820152606401610cc7565b60005b828110156115a357612107858561217d565b50806121128161468f565b9150506120f5565b61212433836124a6565b6121405760405162461bcd60e51b8152600401610cc790614511565b61214c84848484612d2a565b50505050565b60818181548110611dbe57600080fd5b60788181548110611dbe57600080fd5b6060610bc782612d5d565b60006000805160206147458339815191526116f58161249c565b600e80546117bf9061465a565b6000828152600c60205260409020600101546121bf8161249c565b610dfd83836127bd565b600b546001600160a01b036101009091041633146121f95760405162461bcd60e51b8152600401610cc79061449b565b6001600160a01b03811661225e5760405162461bcd60e51b815260206004820152602660248201527f4f776e61626c653a206e6577206f776e657220697320746865207a65726f206160448201526564647265737360d01b6064820152608401610cc7565b6111be81612b86565b60008051602061474583398151915261227f8161249c565b60825460ff16156122d25760405162461bcd60e51b815260206004820152601860248201527f4974656d7320616c7265616479207265676973746572656400000000000000006044820152606401610cc7565b825184511461231b5760405162461bcd60e51b8152602060048201526015602482015274082e4e4c2f240d8cadccee8d040dad2e6dac2e8c6d605b1b6044820152606401610cc7565b825161232e906080906020860190613bd8565b50835161234290607f906020870190613c12565b508151612356906081906020850190613bd8565b5060005b84518110156123d85761239f84828151811061238657634e487b7160e01b600052603260045260246000fd5b6020026020010151607954612a0890919063ffffffff16565b6079556123c66013826064811061157c57634e487b7160e01b600052603260045260246000fd5b806123d08161468f565b91505061235a565b50506082805460ff19166001179055505050565b60006001600160e01b03198216637965db0b60e01b1480610bc75750610bc782612ecc565b6000908152600260205260409020546001600160a01b0316151590565b600081815260046020526040902080546001600160a01b0319166001600160a01b03841690811790915581906124638261188d565b6001600160a01b03167f8c5be1e5ebec7d5bd14f71427d1e84f3dd0314c0f7b2291e5b200ac8c7c3b92560405160405180910390a45050565b6111be8133612ef1565b60006124b182612411565b6125125760405162461bcd60e51b815260206004820152602c60248201527f4552433732313a206f70657261746f7220717565727920666f72206e6f6e657860448201526b34b9ba32b73a103a37b5b2b760a11b6064820152608401610cc7565b600061251d8361188d565b9050806001600160a01b0316846001600160a01b0316148061256457506001600160a01b0380821660009081526005602090815260408083209388168352929052205460ff165b806125885750836001600160a01b031661257d84610c5f565b6001600160a01b0316145b949350505050565b826001600160a01b03166125a38261188d565b6001600160a01b0316146126075760405162461bcd60e51b815260206004820152602560248201527f4552433732313a207472616e736665722066726f6d20696e636f72726563742060448201526437bbb732b960d91b6064820152608401610cc7565b6001600160a01b0382166126695760405162461bcd60e51b8152602060048201526024808201527f4552433732313a207472616e7366657220746f20746865207a65726f206164646044820152637265737360e01b6064820152608401610cc7565b612674838383612f55565b61267f60008261242e565b6001600160a01b03831660009081526003602052604081208054600192906126a8908490614600565b90915550506001600160a01b03821660009081526003602052604081208054600192906126d69084906145b5565b909155505060008181526002602052604080822080546001600160a01b0319166001600160a01b0386811691821790925591518493918716917fddf252ad1be2c89b69c2b068fc378daa952ba7f163c4a11628f55a4df523b3ef91a4505050565b6127418282611f26565b61119a576000828152600c602090815260408083206001600160a01b03851684529091529020805460ff191660011790556127793390565b6001600160a01b0316816001600160a01b0316837f2f8788117e7eff1d82e926ec794901d17c78024a50270940304540a733656f0d60405160405180910390a45050565b6127c78282611f26565b1561119a576000828152600c602090815260408083206001600160a01b0385168085529252808320805460ff1916905551339285917ff6391f5c32d9c69d2a47ea670b442974b53935d1edc7fd64eb21e047a839171b9190a45050565b600b5460ff1661286d5760405162461bcd60e51b815260206004820152601460248201527314185d5cd8589b194e881b9bdd081c185d5cd95960621b6044820152606401610cc7565b600b805460ff191690557f5db9ee0a495bf2e6ff9c91a7834c1ba4fdd244a5e8aa4e537bd38aeae4b073aa335b6040516001600160a01b03909116815260200160405180910390a1565b60006128c382846145e1565b9392505050565b604080516001600160a01b0385811660248301528481166044830152606480830185905283518084039091018152608490920183526020820180516001600160e01b03166323b872dd60e01b179052915160009283929088169161292e91906142f5565b6000604051808303816000865af19150503d806000811461296b576040519150601f19603f3d011682016040523d82523d6000602084013e612970565b606091505b509150915081801561299a57508051158061299a57508080602001905181019061299a91906141a9565b612a005760405162461bcd60e51b815260206004820152603160248201527f5472616e7366657248656c7065723a3a7472616e7366657246726f6d3a207472604482015270185b9cd9995c919c9bdb4819985a5b1959607a1b6064820152608401610cc7565b505050505050565b60006128c382846145b5565b600080612a22858585612fa6565b95945050505050565b607c546001600160a01b0316612a835760405162461bcd60e51b815260206004820152601a60248201527f7061796d656e742061646472657373206973206e6f74207365740000000000006044820152606401610cc7565b6000612ac360818481548110612aa957634e487b7160e01b600052603260045260246000fd5b9060005260206000200154836128b790919063ffffffff16565b90506000612ae86103e8612ae2607e54856128b790919063ffffffff16565b90612fc4565b6012549091506001600160a01b031615612b4857601254607d54612b1b916001600160a01b0390811691309116846128ca565b601254607c54612b43916001600160a01b0390811691309116612b3e8686612fd0565b6128ca565b61214c565b607d54612b5e906001600160a01b031682612fdc565b607c5461214c906001600160a01b0316612b788484612fd0565b612fdc565b6111be816130b6565b600b80546001600160a01b03838116610100818102610100600160a81b031985161790945560405193909204169182907f8be0079c531659141344cd1fd0a4f28419497f9722a3daafe3b4186f6b6457e090600090a35050565b600b5460ff1615612c265760405162461bcd60e51b815260206004820152601060248201526f14185d5cd8589b194e881c185d5cd95960821b6044820152606401610cc7565b600b805460ff191660011790557f62e78cea01bee320cd4e420270b5ea74000d11b0c9f74754ebdbfc544b05a25861289a3390565b816001600160a01b0316836001600160a01b03161415612cbd5760405162461bcd60e51b815260206004820152601960248201527f4552433732313a20617070726f766520746f2063616c6c6572000000000000006044820152606401610cc7565b6001600160a01b03838116600081815260056020908152604080832094871680845294825291829020805460ff191686151590811790915591519182527f17307eab39ab6107e8899845ad3d59bd9653f200f220920489ca2b5937696c31910160405180910390a3505050565b612d35848484612590565b612d41848484846130f6565b61214c5760405162461bcd60e51b8152600401610cc790614449565b6060612d6882612411565b612dce5760405162461bcd60e51b815260206004820152603160248201527f45524337323155524953746f726167653a2055524920717565727920666f72206044820152703737b732bc34b9ba32b73a103a37b5b2b760791b6064820152608401610cc7565b6000828152600a602052604081208054612de79061465a565b80601f0160208091040260200160405190810160405280929190818152602001828054612e139061465a565b8015612e605780601f10612e3557610100808354040283529160200191612e60565b820191906000526020600020905b815481529060010190602001808311612e4357829003601f168201915b505050505090506000612e7e60408051602081019091526000815290565b9050805160001415612e91575092915050565b815115612ec3578082604051602001612eab929190614311565b60405160208183030381529060405292505050919050565b61258884613203565b60006001600160e01b0319821663780e9d6360e01b1480610bc75750610bc7826132da565b612efb8282611f26565b61119a57612f13816001600160a01b0316601461332a565b612f1e83602061332a565b604051602001612f2f929190614340565b60408051601f198184030181529082905262461bcd60e51b8252610cc791600401614436565b600b5460ff1615612f9b5760405162461bcd60e51b815260206004820152601060248201526f14185d5cd8589b194e881c185d5cd95960821b6044820152606401610cc7565b610dfd83838361350b565b6000612fb284846135c3565b612fbc83836135dd565b509092915050565b60006128c382846145cd565b60006128c38284614600565b604080516000808252602082019092526001600160a01b03841690839060405161300691906142f5565b60006040518083038185875af1925050503d8060008114613043576040519150601f19603f3d011682016040523d82523d6000602084013e613048565b606091505b5050905080610dfd5760405162461bcd60e51b815260206004820152603460248201527f5472616e7366657248656c7065723a3a736166655472616e736665724554483a60448201527308115512081d1c985b9cd9995c8819985a5b195960621b6064820152608401610cc7565b6130bf81613668565b6000818152600a6020526040902080546130d89061465a565b1590506111be576000818152600a602052604081206111be91613c6b565b60006001600160a01b0384163b156131f857604051630a85bd0160e11b81526001600160a01b0385169063150b7a029061313a9033908990889088906004016143b5565b602060405180830381600087803b15801561315457600080fd5b505af1925050508015613184575060408051601f3d908101601f191682019092526131819181019061421b565b60015b6131de573d8080156131b2576040519150601f19603f3d011682016040523d82523d6000602084013e6131b7565b606091505b5080516131d65760405162461bcd60e51b8152600401610cc790614449565b805181602001fd5b6001600160e01b031916630a85bd0160e11b149050612588565b506001949350505050565b606061320e82612411565b6132725760405162461bcd60e51b815260206004820152602f60248201527f4552433732314d657461646174613a2055524920717565727920666f72206e6f60448201526e3732bc34b9ba32b73a103a37b5b2b760891b6064820152608401610cc7565b600061328960408051602081019091526000815290565b905060008151116132a957604051806020016040528060008152506128c3565b806132b38461370f565b6040516020016132c4929190614311565b6040516020818303038152906040529392505050565b60006001600160e01b031982166380ac58cd60e01b148061330b57506001600160e01b03198216635b5e139f60e01b145b80610bc757506301ffc9a760e01b6001600160e01b0319831614610bc7565b606060006133398360026145e1565b6133449060026145b5565b6001600160401b0381111561336957634e487b7160e01b600052604160045260246000fd5b6040519080825280601f01601f191660200182016040528015613393576020820181803683370190505b509050600360fc1b816000815181106133bc57634e487b7160e01b600052603260045260246000fd5b60200101906001600160f81b031916908160001a905350600f60fb1b816001815181106133f957634e487b7160e01b600052603260045260246000fd5b60200101906001600160f81b031916908160001a905350600061341d8460026145e1565b6134289060016145b5565b90505b60018111156134bc576f181899199a1a9b1b9c1cb0b131b232b360811b85600f166010811061346a57634e487b7160e01b600052603260045260246000fd5b1a60f81b82828151811061348e57634e487b7160e01b600052603260045260246000fd5b60200101906001600160f81b031916908160001a90535060049490941c936134b581614643565b905061342b565b5083156128c35760405162461bcd60e51b815260206004820181905260248201527f537472696e67733a20686578206c656e67746820696e73756666696369656e746044820152606401610cc7565b6001600160a01b0383166135665761356181600880546000838152600960205260408120829055600182018355919091527ff3f7a9fe364faab93b216da50a3214154f22a0a2b415b23a84c8169e8b636ee30155565b613589565b816001600160a01b0316836001600160a01b031614613589576135898382613828565b6001600160a01b0382166135a057610dfd816138c5565b826001600160a01b0316826001600160a01b031614610dfd57610dfd828261399e565b61119a8282604051806020016040528060008152506139e2565b6135e682612411565b6136495760405162461bcd60e51b815260206004820152602e60248201527f45524337323155524953746f726167653a2055524920736574206f66206e6f6e60448201526d32bc34b9ba32b73a103a37b5b2b760911b6064820152608401610cc7565b6000828152600a602090815260409091208251610dfd92840190613b54565b60006136738261188d565b905061368181600084612f55565b61368c60008361242e565b6001600160a01b03811660009081526003602052604081208054600192906136b5908490614600565b909155505060008281526002602052604080822080546001600160a01b0319169055518391906001600160a01b038416907fddf252ad1be2c89b69c2b068fc378daa952ba7f163c4a11628f55a4df523b3ef908390a45050565b6060816137335750506040805180820190915260018152600360fc1b602082015290565b8160005b811561375d57806137478161468f565b91506137569050600a836145cd565b9150613737565b6000816001600160401b0381111561378557634e487b7160e01b600052604160045260246000fd5b6040519080825280601f01601f1916602001820160405280156137af576020820181803683370190505b5090505b8415612588576137c4600183614600565b91506137d1600a866146aa565b6137dc9060306145b5565b60f81b8183815181106137ff57634e487b7160e01b600052603260045260246000fd5b60200101906001600160f81b031916908160001a905350613821600a866145cd565b94506137b3565b6000600161383584611969565b61383f9190614600565b600083815260076020526040902054909150808214613892576001600160a01b03841660009081526006602090815260408083208584528252808320548484528184208190558352600790915290208190555b5060009182526007602090815260408084208490556001600160a01b039094168352600681528383209183525290812055565b6008546000906138d790600190614600565b6000838152600960205260408120546008805493945090928490811061390d57634e487b7160e01b600052603260045260246000fd5b90600052602060002001549050806008838154811061393c57634e487b7160e01b600052603260045260246000fd5b600091825260208083209091019290925582815260099091526040808220849055858252812055600880548061398257634e487b7160e01b600052603160045260246000fd5b6001900381819060005260206000200160009055905550505050565b60006139a983611969565b6001600160a01b039093166000908152600660209081526040808320868452825280832085905593825260079052919091209190915550565b6139ec8383613a15565b6139f960008484846130f6565b610dfd5760405162461bcd60e51b8152600401610cc790614449565b6001600160a01b038216613a6b5760405162461bcd60e51b815260206004820181905260248201527f4552433732313a206d696e7420746f20746865207a65726f20616464726573736044820152606401610cc7565b613a7481612411565b15613ac15760405162461bcd60e51b815260206004820152601c60248201527f4552433732313a20746f6b656e20616c7265616479206d696e746564000000006044820152606401610cc7565b613acd60008383612f55565b6001600160a01b0382166000908152600360205260408120805460019290613af69084906145b5565b909155505060008181526002602052604080822080546001600160a01b0319166001600160a01b03861690811790915590518392907fddf252ad1be2c89b69c2b068fc378daa952ba7f163c4a11628f55a4df523b3ef908290a45050565b828054613b609061465a565b90600052602060002090601f016020900481019282613b825760008555613bc8565b82601f10613b9b57805160ff1916838001178555613bc8565b82800160010185558215613bc8579182015b82811115613bc8578251825591602001919060010190613bad565b50613bd4929150613ca1565b5090565b828054828255906000526020600020908101928215613bc85791602002820182811115613bc8578251825591602001919060010190613bad565b828054828255906000526020600020908101928215613c5f579160200282015b82811115613c5f5782518051613c4f918491602090910190613b54565b5091602001919060010190613c32565b50613bd4929150613cb6565b508054613c779061465a565b6000825580601f10613c87575050565b601f0160209004906000526020600020908101906111be91905b5b80821115613bd45760008155600101613ca2565b80821115613bd4576000613cca8282613c6b565b50600101613cb6565b60006001600160401b03831115613cec57613cec6146ea565b613cff601f8401601f1916602001614562565b9050828152838383011115613d1357600080fd5b828260208301376000602084830101529392505050565b80356001600160a01b0381168114613d4157600080fd5b919050565b600082601f830112613d56578081fd5b81356020613d6b613d6683614592565b614562565b80838252828201915082860187848660051b8901011115613d8a578586fd5b855b85811015613dca5781356001600160401b03811115613da9578788fd5b613db78a87838c0101613e34565b8552509284019290840190600101613d8c565b5090979650505050505050565b600082601f830112613de7578081fd5b81356020613df7613d6683614592565b80838252828201915082860187848660051b8901011115613e16578586fd5b855b85811015613dca57813584529284019290840190600101613e18565b600082601f830112613e44578081fd5b6128c383833560208501613cd3565b600060208284031215613e64578081fd5b6128c382613d2a565b60008060408385031215613e7f578081fd5b613e8883613d2a565b9150613e9660208401613d2a565b90509250929050565b600080600060608486031215613eb3578081fd5b613ebc84613d2a565b9250613eca60208501613d2a565b9150604084013590509250925092565b600080600080600060808688031215613ef1578081fd5b613efa86613d2a565b9450613f0860208701613d2a565b93506040860135925060608601356001600160401b0380821115613f2a578283fd5b818801915088601f830112613f3d578283fd5b813581811115613f4b578384fd5b896020828501011115613f5c578384fd5b9699959850939650602001949392505050565b60008060008060808587031215613f84578384fd5b613f8d85613d2a565b9350613f9b60208601613d2a565b92506040850135915060608501356001600160401b03811115613fbc578182fd5b8501601f81018713613fcc578182fd5b613fdb87823560208401613cd3565b91505092959194509250565b60008060408385031215613ff9578182fd5b61400283613d2a565b915060208301356001600160401b0381111561401c578182fd5b61402885828601613d46565b9150509250929050565b60008060408385031215614044578182fd5b61404d83613d2a565b9150602083013561405d81614700565b809150509250929050565b6000806040838503121561407a578182fd5b61408383613d2a565b915060208301356001600160401b0381111561409d578182fd5b61402885828601613e34565b6000806000606084860312156140bd578081fd5b6140c684613d2a565b925060208401356001600160401b038111156140e0578182fd5b6140ec86828701613e34565b925050604084013590509250925092565b6000806040838503121561410f578182fd5b61411883613d2a565b946020939093013593505050565b60008060006060848603121561413a578081fd5b83356001600160401b0380821115614150578283fd5b61415c87838801613d46565b94506020860135915080821115614171578283fd5b61417d87838801613dd7565b93506040860135915080821115614192578283fd5b5061419f86828701613dd7565b9150509250925092565b6000602082840312156141ba578081fd5b81516128c381614700565b6000602082840312156141d6578081fd5b5035919050565b600080604083850312156141ef578182fd5b82359150613e9660208401613d2a565b600060208284031215614210578081fd5b81356128c38161470e565b60006020828403121561422c578081fd5b81516128c38161470e565b600060208284031215614248578081fd5b5051919050565b60008060408385031215614261578182fd5b8235915060208301356001600160401b0381111561409d578182fd5b6000806040838503121561428f578182fd5b50508035926020909101359150565b6000806000606084860312156142b2578081fd5b505081359360208301359350604090920135919050565b600081518084526142e1816020860160208601614617565b601f01601f19169290920160200192915050565b60008251614307818460208701614617565b9190910192915050565b60008351614323818460208801614617565b835190830190614337818360208801614617565b01949350505050565b7f416363657373436f6e74726f6c3a206163636f756e7420000000000000000000815260008351614378816017850160208801614617565b7001034b99036b4b9b9b4b733903937b6329607d1b60179184019182015283516143a9816028840160208801614617565b01602801949350505050565b6001600160a01b03858116825284166020820152604081018390526080606082018190526000906143e8908301846142c9565b9695505050505050565b6020808252825182820181905260009190848201906040850190845b8181101561442a5783518352928401929184019160010161440e565b50909695505050505050565b6020815260006128c360208301846142c9565b60208082526032908201527f4552433732313a207472616e7366657220746f206e6f6e20455243373231526560408201527131b2b4bb32b91034b6b83632b6b2b73a32b960711b606082015260800190565b6020808252818101527f4f776e61626c653a2063616c6c6572206973206e6f7420746865206f776e6572604082015260600190565b60208082526021908201527f76616c75652073686f756c642062652067726561746572207468616e207a65726040820152606f60f81b606082015260800190565b60208082526031908201527f4552433732313a207472616e736665722063616c6c6572206973206e6f74206f6040820152701ddb995c881b9bdc88185c1c1c9bdd9959607a1b606082015260800190565b604051601f8201601f191681016001600160401b038111828210171561458a5761458a6146ea565b604052919050565b60006001600160401b038211156145ab576145ab6146ea565b5060051b60200190565b600082198211156145c8576145c86146be565b500190565b6000826145dc576145dc6146d4565b500490565b60008160001904831182151516156145fb576145fb6146be565b500290565b600082821015614612576146126146be565b500390565b60005b8381101561463257818101518382015260200161461a565b8381111561214c5750506000910152565b600081614652576146526146be565b506000190190565b600181811c9082168061466e57607f821691505b6020821081141561188757634e487b7160e01b600052602260045260246000fd5b60006000198214156146a3576146a36146be565b5060010190565b6000826146b9576146b96146d4565b500690565b634e487b7160e01b600052601160045260246000fd5b634e487b7160e01b600052601260045260246000fd5b634e487b7160e01b600052604160045260246000fd5b80151581146111be57600080fd5b6001600160e01b0319811681146111be57600080fdfe65d7a28e3265b37a6474929f336521b332c1681b933f6cb9f3376673440d862a9f2df0fed2c77648de5860a4cc508cd0818c85b8b8a1ab4ceeef8d981c8956a6a264697066735822122045d21ac628f6b4899a86b98327cdfdcc35f3339498b130716c97ca8c8bbb0fc464736f6c634300080400334f776e61626c653a2063616c6c6572206973206e6f7420746865206f776e657265d7a28e3265b37a6474929f336521b332c1681b933f6cb9f3376673440d862a9f2df0fed2c77648de5860a4cc508cd0818c85b8b8a1ab4ceeef8d981c8956a6",
  "linkReferences": {},
  "deployedLinkReferences": {}
}