{
  "_format": "hh-sol-artifact-1",
  "contractName": "Collection",
  "sourceName": "contracts/Collection.sol",
  "abi": [
    {
      "inputs": [
        {
          "internalType": "string",
          "name": "name",
          "type": "string"
        },
        {
          "internalType": "string",
          "name": "symbol",
          "type": "string"
        },
        {
          "internalType": "address",
          "name": "_quote",
          "type": "address"
        },
        {
          "internalType": "address",
          "name": "_payment",
          "type": "address"
        },
        {
          "internalType": "address",
          "name": "_treasury",
          "type": "address"
        },
        {
          "internalType": "uint256[]",
          "name": "configValues",
          "type": "uint256[]"
        }
      ],
      "stateMutability": "nonpayable",
      "type": "constructor"
    },
    {
      "anonymous": false,
      "inputs": [
        {
          "indexed": true,
          "internalType": "address",
          "name": "owner",
          "type": "address"
        },
        {
          "indexed": true,
          "internalType": "address",
          "name": "approved",
          "type": "address"
        },
        {
          "indexed": true,
          "internalType": "uint256",
          "name": "tokenId",
          "type": "uint256"
        }
      ],
      "name": "Approval",
      "type": "event"
    },
    {
      "anonymous": false,
      "inputs": [
        {
          "indexed": true,
          "internalType": "address",
          "name": "owner",
          "type": "address"
        },
        {
          "indexed": true,
          "internalType": "address",
          "name": "operator",
          "type": "address"
        },
        {
          "indexed": false,
          "internalType": "bool",
          "name": "approved",
          "type": "bool"
        }
      ],
      "name": "ApprovalForAll",
      "type": "event"
    },
    {
      "anonymous": false,
      "inputs": [
        {
          "indexed": false,
          "internalType": "address",
          "name": "",
          "type": "address"
        },
        {
          "indexed": false,
          "internalType": "string",
          "name": "",
          "type": "string"
        }
      ],
      "name": "Grant",
      "type": "event"
    },
    {
      "anonymous": false,
      "inputs": [
        {
          "indexed": true,
          "internalType": "address",
          "name": "previousOwner",
          "type": "address"
        },
        {
          "indexed": true,
          "internalType": "address",
          "name": "newOwner",
          "type": "address"
        }
      ],
      "name": "OwnershipTransferred",
      "type": "event"
    },
    {
      "anonymous": false,
      "inputs": [
        {
          "indexed": false,
          "internalType": "address",
          "name": "account",
          "type": "address"
        }
      ],
      "name": "Paused",
      "type": "event"
    },
    {
      "anonymous": false,
      "inputs": [
        {
          "indexed": true,
          "internalType": "bytes32",
          "name": "role",
          "type": "bytes32"
        },
        {
          "indexed": true,
          "internalType": "bytes32",
          "name": "previousAdminRole",
          "type": "bytes32"
        },
        {
          "indexed": true,
          "internalType": "bytes32",
          "name": "newAdminRole",
          "type": "bytes32"
        }
      ],
      "name": "RoleAdminChanged",
      "type": "event"
    },
    {
      "anonymous": false,
      "inputs": [
        {
          "indexed": true,
          "internalType": "bytes32",
          "name": "role",
          "type": "bytes32"
        },
        {
          "indexed": true,
          "internalType": "address",
          "name": "account",
          "type": "address"
        },
        {
          "indexed": true,
          "internalType": "address",
          "name": "sender",
          "type": "address"
        }
      ],
      "name": "RoleGranted",
      "type": "event"
    },
    {
      "anonymous": false,
      "inputs": [
        {
          "indexed": true,
          "internalType": "bytes32",
          "name": "role",
          "type": "bytes32"
        },
        {
          "indexed": true,
          "internalType": "address",
          "name": "account",
          "type": "address"
        },
        {
          "indexed": true,
          "internalType": "address",
          "name": "sender",
          "type": "address"
        }
      ],
      "name": "RoleRevoked",
      "type": "event"
    },
    {
      "anonymous": false,
      "inputs": [
        {
          "indexed": false,
          "internalType": "address",
          "name": "",
          "type": "address"
        },
        {
          "indexed": false,
          "internalType": "address",
          "name": "",
          "type": "address"
        },
        {
          "indexed": false,
          "internalType": "uint256",
          "name": "",
          "type": "uint256"
        }
      ],
      "name": "SetConfig",
      "type": "event"
    },
    {
      "anonymous": false,
      "inputs": [
        {
          "indexed": false,
          "internalType": "uint256",
          "name": "",
          "type": "uint256"
        }
      ],
      "name": "SetHardCap",
      "type": "event"
    },
    {
      "anonymous": false,
      "inputs": [
        {
          "indexed": false,
          "internalType": "uint256",
          "name": "",
          "type": "uint256"
        }
      ],
      "name": "SetLaunch",
      "type": "event"
    },
    {
      "anonymous": false,
      "inputs": [
        {
          "indexed": false,
          "internalType": "uint256",
          "name": "",
          "type": "uint256"
        }
      ],
      "name": "SetLockup",
      "type": "event"
    },
    {
      "anonymous": false,
      "inputs": [
        {
          "indexed": false,
          "internalType": "address",
          "name": "",
          "type": "address"
        }
      ],
      "name": "SetMysteryBox",
      "type": "event"
    },
    {
      "anonymous": false,
      "inputs": [
        {
          "indexed": false,
          "internalType": "address",
          "name": "",
          "type": "address"
        }
      ],
      "name": "SetQuote",
      "type": "event"
    },
    {
      "anonymous": false,
      "inputs": [
        {
          "indexed": true,
          "internalType": "address",
          "name": "from",
          "type": "address"
        },
        {
          "indexed": true,
          "internalType": "address",
          "name": "to",
          "type": "address"
        },
        {
          "indexed": true,
          "internalType": "uint256",
          "name": "tokenId",
          "type": "uint256"
        }
      ],
      "name": "Transfer",
      "type": "event"
    },
    {
      "anonymous": false,
      "inputs": [
        {
          "indexed": false,
          "internalType": "address",
          "name": "account",
          "type": "address"
        }
      ],
      "name": "Unpaused",
      "type": "event"
    },
    {
      "inputs": [],
      "name": "DEFAULT_ADMIN_ROLE",
      "outputs": [
        {
          "internalType": "bytes32",
          "name": "",
          "type": "bytes32"
        }
      ],
      "stateMutability": "view",
      "type": "function"
    },
    {
      "inputs": [],
      "name": "MINTER_ROLE",
      "outputs": [
        {
          "internalType": "bytes32",
          "name": "",
          "type": "bytes32"
        }
      ],
      "stateMutability": "view",
      "type": "function"
    },
    {
      "inputs": [],
      "name": "PAUSER_ROLE",
      "outputs": [
        {
          "internalType": "bytes32",
          "name": "",
          "type": "bytes32"
        }
      ],
      "stateMutability": "view",
      "type": "function"
    },
    {
      "inputs": [
        {
          "internalType": "address",
          "name": "minter",
          "type": "address"
        }
      ],
      "name": "addMinter",
      "outputs": [],
      "stateMutability": "nonpayable",
      "type": "function"
    },
    {
      "inputs": [
        {
          "internalType": "address",
          "name": "pauser",
          "type": "address"
        }
      ],
      "name": "addPauser",
      "outputs": [],
      "stateMutability": "nonpayable",
      "type": "function"
    },
    {
      "inputs": [
        {
          "internalType": "address",
          "name": "to",
          "type": "address"
        },
        {
          "internalType": "uint256",
          "name": "tokenId",
          "type": "uint256"
        }
      ],
      "name": "approve",
      "outputs": [],
      "stateMutability": "nonpayable",
      "type": "function"
    },
    {
      "inputs": [
        {
          "internalType": "address",
          "name": "owner",
          "type": "address"
        }
      ],
      "name": "balanceOf",
      "outputs": [
        {
          "internalType": "uint256",
          "name": "",
          "type": "uint256"
        }
      ],
      "stateMutability": "view",
      "type": "function"
    },
    {
      "inputs": [
        {
          "internalType": "uint256",
          "name": "tokenId",
          "type": "uint256"
        }
      ],
      "name": "burn",
      "outputs": [],
      "stateMutability": "nonpayable",
      "type": "function"
    },
    {
      "inputs": [
        {
          "internalType": "uint256",
          "name": "_itemIx",
          "type": "uint256"
        },
        {
          "internalType": "uint256",
          "name": "_amount",
          "type": "uint256"
        }
      ],
      "name": "buyItemEth",
      "outputs": [],
      "stateMutability": "payable",
      "type": "function"
    },
    {
      "inputs": [
        {
          "internalType": "uint256",
          "name": "_itemIx",
          "type": "uint256"
        },
        {
          "internalType": "uint256",
          "name": "_payment",
          "type": "uint256"
        },
        {
          "internalType": "uint256",
          "name": "_amount",
          "type": "uint256"
        }
      ],
      "name": "buyItemQuote",
      "outputs": [],
      "stateMutability": "payable",
      "type": "function"
    },
    {
      "inputs": [],
      "name": "feeRate",
      "outputs": [
        {
          "internalType": "uint256",
          "name": "",
          "type": "uint256"
        }
      ],
      "stateMutability": "view",
      "type": "function"
    },
    {
      "inputs": [
        {
          "internalType": "uint256",
          "name": "tokenId",
          "type": "uint256"
        }
      ],
      "name": "getApproved",
      "outputs": [
        {
          "internalType": "address",
          "name": "",
          "type": "address"
        }
      ],
      "stateMutability": "view",
      "type": "function"
    },
    {
      "inputs": [],
      "name": "getItemRemains",
      "outputs": [
        {
          "internalType": "uint256",
          "name": "",
          "type": "uint256"
        }
      ],
      "stateMutability": "view",
      "type": "function"
    },
    {
      "inputs": [
        {
          "internalType": "bytes32",
          "name": "role",
          "type": "bytes32"
        }
      ],
      "name": "getRoleAdmin",
      "outputs": [
        {
          "internalType": "bytes32",
          "name": "",
          "type": "bytes32"
        }
      ],
      "stateMutability": "view",
      "type": "function"
    },
    {
      "inputs": [],
      "name": "globalURI",
      "outputs": [
        {
          "internalType": "string",
          "name": "",
          "type": "string"
        }
      ],
      "stateMutability": "view",
      "type": "function"
    },
    {
      "inputs": [
        {
          "internalType": "bytes32",
          "name": "role",
          "type": "bytes32"
        },
        {
          "internalType": "address",
          "name": "account",
          "type": "address"
        }
      ],
      "name": "grantRole",
      "outputs": [],
      "stateMutability": "nonpayable",
      "type": "function"
    },
    {
      "inputs": [],
      "name": "hardCap",
      "outputs": [
        {
          "internalType": "uint256",
          "name": "",
          "type": "uint256"
        }
      ],
      "stateMutability": "view",
      "type": "function"
    },
    {
      "inputs": [
        {
          "internalType": "bytes32",
          "name": "role",
          "type": "bytes32"
        },
        {
          "internalType": "address",
          "name": "account",
          "type": "address"
        }
      ],
      "name": "hasRole",
      "outputs": [
        {
          "internalType": "bool",
          "name": "",
          "type": "bool"
        }
      ],
      "stateMutability": "view",
      "type": "function"
    },
    {
      "inputs": [
        {
          "internalType": "address",
          "name": "owner",
          "type": "address"
        },
        {
          "internalType": "address",
          "name": "operator",
          "type": "address"
        }
      ],
      "name": "isApprovedForAll",
      "outputs": [
        {
          "internalType": "bool",
          "name": "",
          "type": "bool"
        }
      ],
      "stateMutability": "view",
      "type": "function"
    },
    {
      "inputs": [
        {
          "internalType": "uint256",
          "name": "",
          "type": "uint256"
        }
      ],
      "name": "itemAmounts",
      "outputs": [
        {
          "internalType": "uint256",
          "name": "",
          "type": "uint256"
        }
      ],
      "stateMutability": "view",
      "type": "function"
    },
    {
      "inputs": [
        {
          "internalType": "uint256",
          "name": "",
          "type": "uint256"
        }
      ],
      "name": "itemPrices",
      "outputs": [
        {
          "internalType": "uint256",
          "name": "",
          "type": "uint256"
        }
      ],
      "stateMutability": "view",
      "type": "function"
    },
    {
      "inputs": [
        {
          "internalType": "uint256",
          "name": "",
          "type": "uint256"
        }
      ],
      "name": "itemSolds",
      "outputs": [
        {
          "internalType": "uint256",
          "name": "",
          "type": "uint256"
        }
      ],
      "stateMutability": "view",
      "type": "function"
    },
    {
      "inputs": [
        {
          "internalType": "uint256",
          "name": "",
          "type": "uint256"
        }
      ],
      "name": "itemURIs",
      "outputs": [
        {
          "internalType": "string",
          "name": "",
          "type": "string"
        }
      ],
      "stateMutability": "view",
      "type": "function"
    },
    {
      "inputs": [
        {
          "internalType": "uint256",
          "name": "",
          "type": "uint256"
        }
      ],
      "name": "items",
      "outputs": [
        {
          "internalType": "uint256",
          "name": "",
          "type": "uint256"
        }
      ],
      "stateMutability": "view",
      "type": "function"
    },
    {
      "inputs": [],
      "name": "launch",
      "outputs": [
        {
          "internalType": "uint256",
          "name": "",
          "type": "uint256"
        }
      ],
      "stateMutability": "view",
      "type": "function"
    },
    {
      "inputs": [],
      "name": "lockup",
      "outputs": [
        {
          "internalType": "uint256",
          "name": "",
          "type": "uint256"
        }
      ],
      "stateMutability": "view",
      "type": "function"
    },
    {
      "inputs": [],
      "name": "mysteryBox",
      "outputs": [
        {
          "internalType": "address",
          "name": "",
          "type": "address"
        }
      ],
      "stateMutability": "view",
      "type": "function"
    },
    {
      "inputs": [],
      "name": "name",
      "outputs": [
        {
          "internalType": "string",
          "name": "",
          "type": "string"
        }
      ],
      "stateMutability": "view",
      "type": "function"
    },
    {
      "inputs": [
        {
          "internalType": "address",
          "name": "operator",
          "type": "address"
        },
        {
          "internalType": "address",
          "name": "from",
          "type": "address"
        },
        {
          "internalType": "uint256",
          "name": "tokenId",
          "type": "uint256"
        },
        {
          "internalType": "bytes",
          "name": "data",
          "type": "bytes"
        }
      ],
      "name": "onERC721Received",
      "outputs": [
        {
          "internalType": "bytes4",
          "name": "",
          "type": "bytes4"
        }
      ],
      "stateMutability": "pure",
      "type": "function"
    },
    {
      "inputs": [],
      "name": "owner",
      "outputs": [
        {
          "internalType": "address",
          "name": "",
          "type": "address"
        }
      ],
      "stateMutability": "view",
      "type": "function"
    },
    {
      "inputs": [
        {
          "internalType": "uint256",
          "name": "tokenId",
          "type": "uint256"
        }
      ],
      "name": "ownerOf",
      "outputs": [
        {
          "internalType": "address",
          "name": "",
          "type": "address"
        }
      ],
      "stateMutability": "view",
      "type": "function"
    },
    {
      "inputs": [],
      "name": "pause",
      "outputs": [],
      "stateMutability": "nonpayable",
      "type": "function"
    },
    {
      "inputs": [],
      "name": "paused",
      "outputs": [
        {
          "internalType": "bool",
          "name": "",
          "type": "bool"
        }
      ],
      "stateMutability": "view",
      "type": "function"
    },
    {
      "inputs": [],
      "name": "payment",
      "outputs": [
        {
          "internalType": "address",
          "name": "",
          "type": "address"
        }
      ],
      "stateMutability": "view",
      "type": "function"
    },
    {
      "inputs": [],
      "name": "quote",
      "outputs": [
        {
          "internalType": "address",
          "name": "",
          "type": "address"
        }
      ],
      "stateMutability": "view",
      "type": "function"
    },
    {
      "inputs": [
        {
          "internalType": "string[]",
          "name": "uris",
          "type": "string[]"
        },
        {
          "internalType": "uint256[]",
          "name": "amounts",
          "type": "uint256[]"
        },
        {
          "internalType": "uint256[]",
          "name": "prices",
          "type": "uint256[]"
        }
      ],
      "name": "registerItems",
      "outputs": [],
      "stateMutability": "nonpayable",
      "type": "function"
    },
    {
      "inputs": [],
      "name": "renounceOwnership",
      "outputs": [],
      "stateMutability": "nonpayable",
      "type": "function"
    },
    {
      "inputs": [
        {
          "internalType": "bytes32",
          "name": "role",
          "type": "bytes32"
        },
        {
          "internalType": "address",
          "name": "account",
          "type": "address"
        }
      ],
      "name": "renounceRole",
      "outputs": [],
      "stateMutability": "nonpayable",
      "type": "function"
    },
    {
      "inputs": [
        {
          "internalType": "bytes32",
          "name": "role",
          "type": "bytes32"
        },
        {
          "internalType": "address",
          "name": "account",
          "type": "address"
        }
      ],
      "name": "revokeRole",
      "outputs": [],
      "stateMutability": "nonpayable",
      "type": "function"
    },
    {
      "inputs": [
        {
          "internalType": "address",
          "name": "to",
          "type": "address"
        },
        {
          "internalType": "string[]",
          "name": "uris",
          "type": "string[]"
        }
      ],
      "name": "safeBatchMint",
      "outputs": [],
      "stateMutability": "view",
      "type": "function"
    },
    {
      "inputs": [
        {
          "internalType": "address",
          "name": "to",
          "type": "address"
        },
        {
          "internalType": "string",
          "name": "uri",
          "type": "string"
        },
        {
          "internalType": "uint256",
          "name": "amount",
          "type": "uint256"
        }
      ],
      "name": "safeBatchMintLight",
      "outputs": [],
      "stateMutability": "nonpayable",
      "type": "function"
    },
    {
      "inputs": [
        {
          "internalType": "address",
          "name": "to",
          "type": "address"
        },
        {
          "internalType": "string",
          "name": "uri",
          "type": "string"
        }
      ],
      "name": "safeMint",
      "outputs": [
        {
          "internalType": "uint256",
          "name": "",
          "type": "uint256"
        }
      ],
      "stateMutability": "view",
      "type": "function"
    },
    {
      "inputs": [
        {
          "internalType": "address",
          "name": "to",
          "type": "address"
        }
      ],
      "name": "safeMintTo",
      "outputs": [],
      "stateMutability": "nonpayable",
      "type": "function"
    },
    {
      "inputs": [
        {
          "internalType": "address",
          "name": "from",
          "type": "address"
        },
        {
          "internalType": "address",
          "name": "to",
          "type": "address"
        },
        {
          "internalType": "uint256",
          "name": "tokenId",
          "type": "uint256"
        }
      ],
      "name": "safeTransferFrom",
      "outputs": [],
      "stateMutability": "nonpayable",
      "type": "function"
    },
    {
      "inputs": [
        {
          "internalType": "address",
          "name": "from",
          "type": "address"
        },
        {
          "internalType": "address",
          "name": "to",
          "type": "address"
        },
        {
          "internalType": "uint256",
          "name": "tokenId",
          "type": "uint256"
        },
        {
          "internalType": "bytes",
          "name": "_data",
          "type": "bytes"
        }
      ],
      "name": "safeTransferFrom",
      "outputs": [],
      "stateMutability": "nonpayable",
      "type": "function"
    },
    {
      "inputs": [
        {
          "internalType": "address",
          "name": "operator",
          "type": "address"
        },
        {
          "internalType": "bool",
          "name": "approved",
          "type": "bool"
        }
      ],
      "name": "setApprovalForAll",
      "outputs": [],
      "stateMutability": "nonpayable",
      "type": "function"
    },
    {
      "inputs": [
        {
          "internalType": "address",
          "name": "_payment",
          "type": "address"
        },
        {
          "internalType": "address",
          "name": "_treasury",
          "type": "address"
        },
        {
          "internalType": "uint256",
          "name": "_feeRate",
          "type": "uint256"
        }
      ],
      "name": "setConfig",
      "outputs": [],
      "stateMutability": "nonpayable",
      "type": "function"
    },
    {
      "inputs": [
        {
          "internalType": "uint256",
          "name": "_hardCap",
          "type": "uint256"
        },
        {
          "internalType": "string",
          "name": "_uri",
          "type": "string"
        }
      ],
      "name": "setHardCap",
      "outputs": [],
      "stateMutability": "nonpayable",
      "type": "function"
    },
    {
      "inputs": [
        {
          "internalType": "uint256",
          "name": "_launch",
          "type": "uint256"
        }
      ],
      "name": "setLaunch",
      "outputs": [],
      "stateMutability": "nonpayable",
      "type": "function"
    },
    {
      "inputs": [
        {
          "internalType": "uint256",
          "name": "_lockup",
          "type": "uint256"
        }
      ],
      "name": "setLockup",
      "outputs": [],
      "stateMutability": "nonpayable",
      "type": "function"
    },
    {
      "inputs": [
        {
          "internalType": "address",
          "name": "_mbox",
          "type": "address"
        }
      ],
      "name": "setMysteryBox",
      "outputs": [],
      "stateMutability": "nonpayable",
      "type": "function"
    },
    {
      "inputs": [
        {
          "internalType": "address",
          "name": "_quote",
          "type": "address"
        }
      ],
      "name": "setQuote",
      "outputs": [],
      "stateMutability": "nonpayable",
      "type": "function"
    },
    {
      "inputs": [
        {
          "internalType": "bytes4",
          "name": "interfaceId",
          "type": "bytes4"
        }
      ],
      "name": "supportsInterface",
      "outputs": [
        {
          "internalType": "bool",
          "name": "",
          "type": "bool"
        }
      ],
      "stateMutability": "view",
      "type": "function"
    },
    {
      "inputs": [],
      "name": "symbol",
      "outputs": [
        {
          "internalType": "string",
          "name": "",
          "type": "string"
        }
      ],
      "stateMutability": "view",
      "type": "function"
    },
    {
      "inputs": [
        {
          "internalType": "uint256",
          "name": "index",
          "type": "uint256"
        }
      ],
      "name": "tokenByIndex",
      "outputs": [
        {
          "internalType": "uint256",
          "name": "",
          "type": "uint256"
        }
      ],
      "stateMutability": "view",
      "type": "function"
    },
    {
      "inputs": [
        {
          "internalType": "address",
          "name": "owner",
          "type": "address"
        },
        {
          "internalType": "uint256",
          "name": "index",
          "type": "uint256"
        }
      ],
      "name": "tokenOfOwnerByIndex",
      "outputs": [
        {
          "internalType": "uint256",
          "name": "",
          "type": "uint256"
        }
      ],
      "stateMutability": "view",
      "type": "function"
    },
    {
      "inputs": [
        {
          "internalType": "uint256",
          "name": "tokenId",
          "type": "uint256"
        }
      ],
      "name": "tokenURI",
      "outputs": [
        {
          "internalType": "string",
          "name": "",
          "type": "string"
        }
      ],
      "stateMutability": "view",
      "type": "function"
    },
    {
      "inputs": [],
      "name": "totalItems",
      "outputs": [
        {
          "internalType": "uint256",
          "name": "",
          "type": "uint256"
        }
      ],
      "stateMutability": "view",
      "type": "function"
    },
    {
      "inputs": [],
      "name": "totalSupply",
      "outputs": [
        {
          "internalType": "uint256",
          "name": "",
          "type": "uint256"
        }
      ],
      "stateMutability": "view",
      "type": "function"
    },
    {
      "inputs": [
        {
          "internalType": "address",
          "name": "from",
          "type": "address"
        },
        {
          "internalType": "address",
          "name": "to",
          "type": "address"
        },
        {
          "internalType": "uint256",
          "name": "tokenId",
          "type": "uint256"
        }
      ],
      "name": "transferFrom",
      "outputs": [],
      "stateMutability": "nonpayable",
      "type": "function"
    },
    {
      "inputs": [
        {
          "internalType": "address",
          "name": "newOwner",
          "type": "address"
        }
      ],
      "name": "transferOwnership",
      "outputs": [],
      "stateMutability": "nonpayable",
      "type": "function"
    },
    {
      "inputs": [],
      "name": "treasury",
      "outputs": [
        {
          "internalType": "address",
          "name": "",
          "type": "address"
        }
      ],
      "stateMutability": "view",
      "type": "function"
    },
    {
      "inputs": [],
      "name": "unpause",
      "outputs": [],
      "stateMutability": "nonpayable",
      "type": "function"
    },
    {
      "stateMutability": "payable",
      "type": "receive"
    }
  ],
  "bytecode": "0x60806040526000600d819055601280546001600160a01b03191690556079556032607e556083805460ff191690553480156200003a57600080fd5b5060405162005372380380620053728339810160408190526200005d91620007d5565b8585818181600090805190602001906200007992919062000681565b5080516200008f90600190602084019062000681565b5050600b805460ff1916905550620000a73362000252565b620000b4600033620002ac565b620000cf6000805160206200533283398151915233620002ac565b620000ea6000805160206200535283398151915233620002ac565b505060016011558051600314620001485760405162461bcd60e51b815260206004820152601a60248201527f696e76616c696420636f6e6669672064617461206c656e67746800000000000060448201526064015b60405180910390fd5b62000155600033620002ac565b620001706000805160206200533283398151915233620002ac565b6200018b6000805160206200535283398151915233620002ac565b620001c581600081518110620001b157634e487b7160e01b600052603260045260246000fd5b60200260200101516200035160201b60201c565b620001ff81600181518110620001eb57634e487b7160e01b600052603260045260246000fd5b6020026020010151620003de60201b60201c565b6200023b8383836002815181106200022757634e487b7160e01b600052603260045260246000fd5b60200260200101516200046560201b60201c565b6200024684620005e1565b5050505050506200098f565b600b80546001600160a01b03838116610100818102610100600160a81b031985161790945560405193909204169182907f8be0079c531659141344cd1fd0a4f28419497f9722a3daafe3b4186f6b6457e090600090a35050565b6000828152600c602090815260408083206001600160a01b038516845290915290205460ff166200034d576000828152600c602090815260408083206001600160a01b03851684529091529020805460ff191660011790556200030c3390565b6001600160a01b0316816001600160a01b0316837f2f8788117e7eff1d82e926ec794901d17c78024a50270940304540a733656f0d60405160405180910390a45b5050565b600b546001600160a01b03610100909104163314620003a25760405162461bcd60e51b815260206004820181905260248201526000805160206200531283398151915260448201526064016200013f565b607a8190556040518181527f7c8826e4db3679f20c86da0c68d37f9dbcd1d638c56717e014f93c56d14c02d1906020015b60405180910390a150565b600b546001600160a01b036101009091041633146200042f5760405162461bcd60e51b815260206004820181905260248201526000805160206200531283398151915260448201526064016200013f565b607b8190556040518181527fa7ade4ab976b6643a971383d9822fb7c2fce66aa2e497d88c3b4f1475ea2b2e090602001620003d3565b600b546001600160a01b03610100909104163314620004b65760405162461bcd60e51b815260206004820181905260248201526000805160206200531283398151915260448201526064016200013f565b6001600160a01b0383166200050e5760405162461bcd60e51b815260206004820152601760248201527f696e76616c6964207061796d656e74206164647265737300000000000000000060448201526064016200013f565b6001600160a01b038216620005665760405162461bcd60e51b815260206004820152601860248201527f696e76616c69642074726561737572792061646472657373000000000000000060448201526064016200013f565b607c80546001600160a01b038581166001600160a01b03199283168117909355607d8054918616919092168117909155607e83905560408051928352602083019190915281018290527fe2be3027f197494650b7a98fd1cae67dacf615bd1d8bb05102999676f11638669060600160405180910390a1505050565b600b546001600160a01b03610100909104163314620006325760405162461bcd60e51b815260206004820181905260248201526000805160206200531283398151915260448201526064016200013f565b601280546001600160a01b0319166001600160a01b0383169081179091556040519081527fca92c759228172fe3894a344908fd20dfd37ba561b5af191f1f5b02ee03881fc90602001620003d3565b8280546200068f906200093c565b90600052602060002090601f016020900481019282620006b35760008555620006fe565b82601f10620006ce57805160ff1916838001178555620006fe565b82800160010185558215620006fe579182015b82811115620006fe578251825591602001919060010190620006e1565b506200070c92915062000710565b5090565b5b808211156200070c576000815560010162000711565b80516001600160a01b03811681146200073f57600080fd5b919050565b600082601f83011262000755578081fd5b81516001600160401b0381111562000771576200077162000979565b602062000787601f8301601f1916820162000909565b82815285828487010111156200079b578384fd5b835b83811015620007ba5785810183015182820184015282016200079d565b83811115620007cb57848385840101525b5095945050505050565b60008060008060008060c08789031215620007ee578182fd5b86516001600160401b038082111562000805578384fd5b620008138a838b0162000744565b97506020915081890151818111156200082a578485fd5b620008388b828c0162000744565b9750506200084960408a0162000727565b95506200085960608a0162000727565b94506200086960808a0162000727565b935060a0890151818111156200087d578384fd5b8901601f81018b136200088e578384fd5b805182811115620008a357620008a362000979565b8060051b9250620008b684840162000909565b8181528481019083860185850187018f1015620008d1578788fd5b8795505b83861015620008f5578051835260019590950194918601918601620008d5565b508096505050505050509295509295509295565b604051601f8201601f191681016001600160401b038111828210171562000934576200093462000979565b604052919050565b600181811c908216806200095157607f821691505b602082108114156200097357634e487b7160e01b600052602260045260246000fd5b50919050565b634e487b7160e01b600052604160045260246000fd5b614973806200099f6000396000f3fe6080604052600436106103bc5760003560e01c8063715018a6116101f2578063b5a87cc11161010d578063d3d3224a116100a0578063e985e9c51161006f578063e985e9c514610b01578063f2fde38b14610b4a578063f3c8dc5914610b6a578063fb86a40414610b8a57600080fd5b8063d3d3224a14610a88578063d539139314610a9d578063d547741f14610abf578063e63ab1e914610adf57600080fd5b8063bfb231d2116100dc578063bfb231d214610a08578063c38b761c14610a28578063c87b56dd14610a48578063d204c45e14610a6857600080fd5b8063b5a87cc114610988578063b88d4fde146109a8578063b9d6abe9146109c8578063bf91ad9e146109e857600080fd5b806391d1485411610185578063999b93af11610154578063999b93af14610913578063a217fddf14610933578063a22cb46514610948578063a2aa61eb1461096857600080fd5b806391d14854146108a857806395d89b41146108c8578063978bbdb9146108dd578063983b2d56146108f357600080fd5b806385be1b3b116101c157806385be1b3b146108325780638a55b866146108455780638da5cb5b14610865578063902835f61461088857600080fd5b8063715018a6146107c85780637b43b827146107dd57806382dc1ec4146107fd5780638456cb591461081d57600080fd5b806336568abe116102e25780635c975abb1161027557806361d027b31161024457806361d027b3146107485780636352211e146107685780636ae6b4591461078857806370a08231146107a857600080fd5b80635c975abb146106db5780635d1d37c3146106f35780635d814dea146107135780635dce73831461073357600080fd5b806342966c68116102b157806342966c681461065b57806342f6487a1461067b5780634f6ccce71461069b57806358dd6d95146106bb57600080fd5b806336568abe146105f35780633f4ba83a146106135780633f7d70551461062857806342842e0e1461063b57600080fd5b806318160ddd1161035a578063248a9ca311610329578063248a9ca31461056d5780632799276d1461059d5780632f2ff15d146105b35780632f745c59146105d357600080fd5b806318160ddd146104f857806321bae9e41461050d57806323b872dd1461052d578063244906591461054d57600080fd5b806306fdde031161039657806306fdde0314610437578063081812fc14610459578063095ea7b314610491578063150b7a02146104b357600080fd5b806301339c21146103c857806301ffc9a7146103f157806306490f471461042157600080fd5b366103c357005b600080fd5b3480156103d457600080fd5b506103de607a5481565b6040519081526020015b60405180910390f35b3480156103fd57600080fd5b5061041161040c36600461441c565b610ba0565b60405190151581526020016103e8565b34801561042d57600080fd5b506103de607b5481565b34801561044357600080fd5b5061044c610bcb565b6040516103e8919061460f565b34801561046557600080fd5b506104796104743660046143e2565b610c5d565b6040516001600160a01b0390911681526020016103e8565b34801561049d57600080fd5b506104b16104ac36600461431a565b610cea565b005b3480156104bf57600080fd5b506104df6104ce3660046140f7565b630a85bd0160e11b95945050505050565b6040516001600160e01b031990911681526020016103e8565b34801561050457600080fd5b506008546103de565b34801561051957600080fd5b506104b1610528366004614070565b610e00565b34801561053957600080fd5b506104b16105483660046140bc565b610f4d565b34801561055957600080fd5b506104b161056836600461446c565b610f7f565b34801561057957600080fd5b506103de6105883660046143e2565b6000908152600c602052604090206001015490565b3480156105a957600080fd5b506103de60795481565b3480156105bf57600080fd5b506104b16105ce3660046143fa565b611007565b3480156105df57600080fd5b506103de6105ee36600461431a565b61102c565b3480156105ff57600080fd5b506104b161060e3660046143fa565b6110c2565b34801561061f57600080fd5b506104b1611140565b6104b16106363660046144bb565b611163565b34801561064757600080fd5b506104b16106563660046140bc565b61164d565b34801561066757600080fd5b506104b16106763660046143e2565b611668565b34801561068757600080fd5b50607c54610479906001600160a01b031681565b3480156106a757600080fd5b506103de6106b63660046143e2565b6116df565b3480156106c757600080fd5b506104b16106d6366004614204565b611780565b3480156106e757600080fd5b50600b5460ff16610411565b3480156106ff57600080fd5b506104b161070e3660046143e2565b6117cb565b34801561071f57600080fd5b5061044c61072e3660046143e2565b611837565b34801561073f57600080fd5b506103de6118e3565b34801561075457600080fd5b50607d54610479906001600160a01b031681565b34801561077457600080fd5b506104796107833660046143e2565b611978565b34801561079457600080fd5b506104b16107a33660046143e2565b6119ef565b3480156107b457600080fd5b506103de6107c3366004614070565b611a54565b3480156107d457600080fd5b506104b1611adb565b3480156107e957600080fd5b506104b16107f8366004614070565b611b17565b34801561080957600080fd5b506104b1610818366004614070565b611bb7565b34801561082957600080fd5b506104b1611c5d565b6104b161084036600461449a565b611c7d565b34801561085157600080fd5b506103de6108603660046143e2565b611f86565b34801561087157600080fd5b50600b5461010090046001600160a01b0316610479565b34801561089457600080fd5b506104b16108a33660046140bc565b611fa7565b3480156108b457600080fd5b506104116108c33660046143fa565b6120fe565b3480156108d457600080fd5b5061044c612129565b3480156108e957600080fd5b506103de607e5481565b3480156108ff57600080fd5b506104b161090e366004614070565b612138565b34801561091f57600080fd5b50601254610479906001600160a01b031681565b34801561093f57600080fd5b506103de600081565b34801561095457600080fd5b506104b161096336600461424f565b6121de565b34801561097457600080fd5b506104b1610983366004614070565b6121e9565b34801561099457600080fd5b506104b16109a33660046142c6565b612267565b3480156109b457600080fd5b506104b16109c336600461418c565b6122f9565b3480156109d457600080fd5b506103de6109e33660046143e2565b612331565b3480156109f457600080fd5b506103de610a033660046143e2565b612341565b348015610a1457600080fd5b506103de610a233660046143e2565b612351565b348015610a3457600080fd5b50600f54610479906001600160a01b031681565b348015610a5457600080fd5b5061044c610a633660046143e2565b612361565b348015610a7457600080fd5b506103de610a83366004614285565b61236c565b348015610a9457600080fd5b5061044c612386565b348015610aa957600080fd5b506103de60008051602061491e83398151915281565b348015610acb57600080fd5b506104b1610ada3660046143fa565b612393565b348015610aeb57600080fd5b506103de6000805160206148fe83398151915281565b348015610b0d57600080fd5b50610411610b1c36600461408a565b6001600160a01b03918216600090815260056020908152604080832093909416825291909152205460ff1690565b348015610b5657600080fd5b506104b1610b65366004614070565b6123b8565b348015610b7657600080fd5b506104b1610b85366004614343565b612456565b348015610b9657600080fd5b506103de600d5481565b60006001600160e01b031982166380ac58cd60e01b1480610bc55750610bc58261260d565b92915050565b606060008054610bda90614833565b80601f0160208091040260200160405190810160405280929190818152602001828054610c0690614833565b8015610c535780601f10610c2857610100808354040283529160200191610c53565b820191906000526020600020905b815481529060010190602001808311610c3657829003601f168201915b5050505050905090565b6000610c6882612632565b610cce5760405162461bcd60e51b815260206004820152602c60248201527f4552433732313a20617070726f76656420717565727920666f72206e6f6e657860448201526b34b9ba32b73a103a37b5b2b760a11b60648201526084015b60405180910390fd5b506000908152600460205260409020546001600160a01b031690565b6000610cf582611978565b9050806001600160a01b0316836001600160a01b03161415610d635760405162461bcd60e51b815260206004820152602160248201527f4552433732313a20617070726f76616c20746f2063757272656e74206f776e656044820152603960f91b6064820152608401610cc5565b336001600160a01b0382161480610d7f5750610d7f8133610b1c565b610df15760405162461bcd60e51b815260206004820152603860248201527f4552433732313a20617070726f76652063616c6c6572206973206e6f74206f7760448201527f6e6572206e6f7220617070726f76656420666f7220616c6c00000000000000006064820152608401610cc5565b610dfb838361264f565b505050565b60008051602061491e833981519152610e18816126bd565b6000600e8054610e2790614833565b905011610e6e5760405162461bcd60e51b815260206004820152601560248201527411db1bd8985b08155492481a5cc81b9bdd081cd95d605a1b6044820152606401610cc5565b6001600160a01b038216610eb95760405162461bcd60e51b8152602060048201526012602482015271496e76616c696420746f206164647265737360701b6044820152606401610cc5565b610dfb82600e8054610eca90614833565b80601f0160208091040260200160405190810160405280929190818152602001828054610ef690614833565b8015610f435780601f10610f1857610100808354040283529160200191610f43565b820191906000526020600020905b815481529060010190602001808311610f2657829003601f168201915b505050505061236c565b610f58335b826126c7565b610f745760405162461bcd60e51b8152600401610cc5906146ea565b610dfb8383836127b1565b600b546001600160a01b03610100909104163314610faf5760405162461bcd60e51b8152600401610cc590614674565b600d8290558051610fc790600e906020840190613d71565b507f57bbf0b7295e3c8587fe0fa3c76592771f6a96123bf723292fd0e3933436b71f600d54604051610ffb91815260200190565b60405180910390a15050565b6000828152600c6020526040902060010154611022816126bd565b610dfb8383612958565b600061103783611a54565b82106110995760405162461bcd60e51b815260206004820152602b60248201527f455243373231456e756d657261626c653a206f776e657220696e646578206f7560448201526a74206f6620626f756e647360a81b6064820152608401610cc5565b506001600160a01b03919091166000908152600660209081526040808320938352929052205490565b6001600160a01b03811633146111325760405162461bcd60e51b815260206004820152602f60248201527f416363657373436f6e74726f6c3a2063616e206f6e6c792072656e6f756e636560448201526e103937b632b9903337b91039b2b63360891b6064820152608401610cc5565b61113c82826129de565b5050565b6000805160206148fe833981519152611158816126bd565b611160612a45565b50565b6012546001600160a01b03166111af5760405162461bcd60e51b81526020600482015260116024820152702bb937b7339038bab7ba32903a37b5b2b760791b6044820152606401610cc5565b607a5442116112005760405162461bcd60e51b815260206004820152601b60248201527f4e6f7420796574206c61756e63682074696d65207265616368656400000000006044820152606401610cc5565b600082116112205760405162461bcd60e51b8152600401610cc5906146a9565b61125e6082848154811061124457634e487b7160e01b600052603260045260246000fd5b906000526020600020015482612ad890919063ffffffff16565b82146112ac5760405162461bcd60e51b815260206004820152601d60248201527f76616c756520616e6420616d6f756e74206973206e6f74206d617463680000006044820152606401610cc5565b6012546040516370a0823160e01b81523360048201526000916001600160a01b0316906370a082319060240160206040518083038186803b1580156112f057600080fd5b505afa158015611304573d6000803e3d6000fd5b505050506040513d601f19601f820116820180604052508101906113289190614454565b90508281116113795760405162461bcd60e51b815260206004820152601b60248201527f6c61636b206f662071756f746520746f6b656e2062616c616e636500000000006044820152606401610cc5565b6081848154811061139a57634e487b7160e01b600052603260045260246000fd5b9060005260206000200154608085815481106113c657634e487b7160e01b600052603260045260246000fd5b90600052602060002001541161140e5760405162461bcd60e51b815260206004820152600d60248201526c1a5d195b481cdbdb19081bdd5d609a1b6044820152606401610cc5565b601254611426906001600160a01b0316333086612aeb565b6000805b60805481101561148f578086101561147d5761147a6080828154811061146057634e487b7160e01b600052603260045260246000fd5b906000526020600020015483612c2990919063ffffffff16565b91505b8061148781614868565b91505061142a565b5060005b838110156115cf576114ce6114c7601388606481106114c257634e487b7160e01b600052603260045260246000fd5b015490565b8390612c29565b915061158e3383607f89815481106114f657634e487b7160e01b600052603260045260246000fd5b90600052602060002001805461150b90614833565b80601f016020809104026020016040519081016040528092919081815260200182805461153790614833565b80156115845780601f1061155957610100808354040283529160200191611584565b820191906000526020600020905b81548152906001019060200180831161156757829003601f168201915b5050505050612c35565b506115bd601387606481106115b357634e487b7160e01b600052603260045260246000fd5b0180546001019055565b806115c781614868565b915050611493565b506115da8584612c4c565b61161960016081878154811061160057634e487b7160e01b600052603260045260246000fd5b9060005260206000200154612c2990919063ffffffff16565b6081868154811061163a57634e487b7160e01b600052603260045260246000fd5b6000918252602090912001555050505050565b610dfb838383604051806020016040528060008152506122f9565b61167133610f52565b6116d65760405162461bcd60e51b815260206004820152603060248201527f4552433732314275726e61626c653a2063616c6c6572206973206e6f74206f7760448201526f1b995c881b9bdc88185c1c1c9bdd995960821b6064820152608401610cc5565b61116081612d9a565b60006116ea60085490565b821061174d5760405162461bcd60e51b815260206004820152602c60248201527f455243373231456e756d657261626c653a20676c6f62616c20696e646578206f60448201526b7574206f6620626f756e647360a01b6064820152608401610cc5565b6008828154811061176e57634e487b7160e01b600052603260045260246000fd5b90600052602060002001549050919050565b60008051602061491e833981519152611798816126bd565b60405162461bcd60e51b8152602060048201526008602482015267111a5cd8589b195960c21b6044820152606401610cc5565b600b546001600160a01b036101009091041633146117fb5760405162461bcd60e51b8152600401610cc590614674565b607a8190556040518181527f7c8826e4db3679f20c86da0c68d37f9dbcd1d638c56717e014f93c56d14c02d1906020015b60405180910390a150565b607f818154811061184757600080fd5b90600052602060002001600091509050805461186290614833565b80601f016020809104026020016040519081016040528092919081815260200182805461188e90614833565b80156118db5780601f106118b0576101008083540402835291602001916118db565b820191906000526020600020905b8154815290600101906020018083116118be57829003601f168201915b505050505081565b600080805b6080548110156119725761195e6114c76081838154811061191957634e487b7160e01b600052603260045260246000fd5b90600052602060002001546080848154811061194557634e487b7160e01b600052603260045260246000fd5b9060005260206000200154612da390919063ffffffff16565b91508061196a81614868565b9150506118e8565b50919050565b6000818152600260205260408120546001600160a01b031680610bc55760405162461bcd60e51b815260206004820152602960248201527f4552433732313a206f776e657220717565727920666f72206e6f6e657869737460448201526832b73a103a37b5b2b760b91b6064820152608401610cc5565b600b546001600160a01b03610100909104163314611a1f5760405162461bcd60e51b8152600401610cc590614674565b607b8190556040518181527fa7ade4ab976b6643a971383d9822fb7c2fce66aa2e497d88c3b4f1475ea2b2e09060200161182c565b60006001600160a01b038216611abf5760405162461bcd60e51b815260206004820152602a60248201527f4552433732313a2062616c616e636520717565727920666f7220746865207a65604482015269726f206164647265737360b01b6064820152608401610cc5565b506001600160a01b031660009081526003602052604090205490565b600b546001600160a01b03610100909104163314611b0b5760405162461bcd60e51b8152600401610cc590614674565b611b156000612daf565b565b600b546001600160a01b03610100909104163314611b475760405162461bcd60e51b8152600401610cc590614674565b600f80546001600160a01b0319166001600160a01b038316179055611b7a60008051602061491e83398151915282612958565b600f546040516001600160a01b0390911681527f329b1203fc60a62c4a0fd3ff1554a07f92a2f117cc590422dd105811bb484ded9060200161182c565b600b546001600160a01b03610100909104163314611be75760405162461bcd60e51b8152600401610cc590614674565b611bff6000805160206148fe83398151915282612958565b604080516001600160a01b038316815260208101829052600b918101919091526a5041555345525f524f4c4560a81b60608201527f0578acc86b18d67c13a5e6eed8c670fb7052f530b48a2acb167d6ca77509a3849060800161182c565b6000805160206148fe833981519152611c75816126bd565b611160612e09565b6012546001600160a01b031615611cca5760405162461bcd60e51b81526020600482015260116024820152702bb937b7339038bab7ba32903a37b5b2b760791b6044820152606401610cc5565b607a544211611d1b5760405162461bcd60e51b815260206004820152601b60248201527f4e6f7420796574206c61756e63682074696d65207265616368656400000000006044820152606401610cc5565b60003411611d3b5760405162461bcd60e51b8152600401610cc5906146a9565b611d5f6082838154811061124457634e487b7160e01b600052603260045260246000fd5b3414611dad5760405162461bcd60e51b815260206004820152601d60248201527f76616c756520616e6420616d6f756e74206973206e6f74206d617463680000006044820152606401610cc5565b60818281548110611dce57634e487b7160e01b600052603260045260246000fd5b906000526020600020015460808381548110611dfa57634e487b7160e01b600052603260045260246000fd5b906000526020600020015411611e425760405162461bcd60e51b815260206004820152600d60248201526c1a5d195b481cdbdb19081bdd5d609a1b6044820152606401610cc5565b6000805b608054811015611e915780841015611e7f57611e7c6080828154811061146057634e487b7160e01b600052603260045260246000fd5b91505b80611e8981614868565b915050611e46565b5060005b82811015611f2357611ec46114c7601386606481106114c257634e487b7160e01b600052603260045260246000fd5b9150611eec3383607f87815481106114f657634e487b7160e01b600052603260045260246000fd5b50611f11601385606481106115b357634e487b7160e01b600052603260045260246000fd5b80611f1b81614868565b915050611e95565b50611f2e8383612c4c565b611f5460016081858154811061160057634e487b7160e01b600052603260045260246000fd5b60818481548110611f7557634e487b7160e01b600052603260045260246000fd5b600091825260209091200155505050565b60808181548110611f9657600080fd5b600091825260209091200154905081565b600b546001600160a01b03610100909104163314611fd75760405162461bcd60e51b8152600401610cc590614674565b6001600160a01b03831661202d5760405162461bcd60e51b815260206004820152601760248201527f696e76616c6964207061796d656e7420616464726573730000000000000000006044820152606401610cc5565b6001600160a01b0382166120835760405162461bcd60e51b815260206004820152601860248201527f696e76616c6964207472656173757279206164647265737300000000000000006044820152606401610cc5565b607c80546001600160a01b038581166001600160a01b03199283168117909355607d8054918616919092168117909155607e83905560408051928352602083019190915281018290527fe2be3027f197494650b7a98fd1cae67dacf615bd1d8bb05102999676f11638669060600160405180910390a1505050565b6000918252600c602090815260408084206001600160a01b0393909316845291905290205460ff1690565b606060018054610bda90614833565b600b546001600160a01b036101009091041633146121685760405162461bcd60e51b8152600401610cc590614674565b61218060008051602061491e83398151915282612958565b604080516001600160a01b038316815260208101829052600b918101919091526a4d494e5445525f524f4c4560a81b60608201527f0578acc86b18d67c13a5e6eed8c670fb7052f530b48a2acb167d6ca77509a3849060800161182c565b61113c338383612e84565b600b546001600160a01b036101009091041633146122195760405162461bcd60e51b8152600401610cc590614674565b601280546001600160a01b0319166001600160a01b0383169081179091556040519081527fca92c759228172fe3894a344908fd20dfd37ba561b5af191f1f5b02ee03881fc9060200161182c565b60008051602061491e83398151915261227f816126bd565b6001600160a01b0384166122ca5760405162461bcd60e51b8152602060048201526012602482015271496e76616c696420746f206164647265737360701b6044820152606401610cc5565b60005b828110156122f2576122df858561236c565b50806122ea81614868565b9150506122cd565b5050505050565b61230333836126c7565b61231f5760405162461bcd60e51b8152600401610cc5906146ea565b61232b84848484612f53565b50505050565b60818181548110611f9657600080fd5b60828181548110611f9657600080fd5b60788181548110611f9657600080fd5b6060610bc582612f86565b600060008051602061491e833981519152611798816126bd565b600e805461186290614833565b6000828152600c60205260409020600101546123ae816126bd565b610dfb83836129de565b600b546001600160a01b036101009091041633146123e85760405162461bcd60e51b8152600401610cc590614674565b6001600160a01b03811661244d5760405162461bcd60e51b815260206004820152602660248201527f4f776e61626c653a206e6577206f776e657220697320746865207a65726f206160448201526564647265737360d01b6064820152608401610cc5565b61116081612daf565b60008051602061491e83398151915261246e816126bd565b60835460ff16156124c15760405162461bcd60e51b815260206004820152601860248201527f4974656d7320616c7265616479207265676973746572656400000000000000006044820152606401610cc5565b825184511461250a5760405162461bcd60e51b8152602060048201526015602482015274082e4e4c2f240d8cadccee8d040dad2e6dac2e8c6d605b1b6044820152606401610cc5565b825161251d906080906020860190613df5565b50835161253190607f906020870190613e2f565b508151612545906082906020850190613df5565b5060005b84518110156125f95761258e84828151811061257557634e487b7160e01b600052603260045260246000fd5b6020026020010151607954612c2990919063ffffffff16565b6079556125b5601382606481106115b357634e487b7160e01b600052603260045260246000fd5b6081805460018101825560009182527f76fce494794d92ac286b20d6126fc49ecb9cca2fa94b5c726f6ec1109b8914140155806125f181614868565b915050612549565b50506083805460ff19166001179055505050565b60006001600160e01b03198216637965db0b60e01b1480610bc55750610bc5826130f5565b6000908152600260205260409020546001600160a01b0316151590565b600081815260046020526040902080546001600160a01b0319166001600160a01b038416908117909155819061268482611978565b6001600160a01b03167f8c5be1e5ebec7d5bd14f71427d1e84f3dd0314c0f7b2291e5b200ac8c7c3b92560405160405180910390a45050565b611160813361311a565b60006126d282612632565b6127335760405162461bcd60e51b815260206004820152602c60248201527f4552433732313a206f70657261746f7220717565727920666f72206e6f6e657860448201526b34b9ba32b73a103a37b5b2b760a11b6064820152608401610cc5565b600061273e83611978565b9050806001600160a01b0316846001600160a01b0316148061278557506001600160a01b0380821660009081526005602090815260408083209388168352929052205460ff165b806127a95750836001600160a01b031661279e84610c5d565b6001600160a01b0316145b949350505050565b826001600160a01b03166127c482611978565b6001600160a01b0316146128285760405162461bcd60e51b815260206004820152602560248201527f4552433732313a207472616e736665722066726f6d20696e636f72726563742060448201526437bbb732b960d91b6064820152608401610cc5565b6001600160a01b03821661288a5760405162461bcd60e51b8152602060048201526024808201527f4552433732313a207472616e7366657220746f20746865207a65726f206164646044820152637265737360e01b6064820152608401610cc5565b61289583838361317e565b6128a060008261264f565b6001600160a01b03831660009081526003602052604081208054600192906128c99084906147d9565b90915550506001600160a01b03821660009081526003602052604081208054600192906128f790849061478e565b909155505060008181526002602052604080822080546001600160a01b0319166001600160a01b0386811691821790925591518493918716917fddf252ad1be2c89b69c2b068fc378daa952ba7f163c4a11628f55a4df523b3ef91a4505050565b61296282826120fe565b61113c576000828152600c602090815260408083206001600160a01b03851684529091529020805460ff1916600117905561299a3390565b6001600160a01b0316816001600160a01b0316837f2f8788117e7eff1d82e926ec794901d17c78024a50270940304540a733656f0d60405160405180910390a45050565b6129e882826120fe565b1561113c576000828152600c602090815260408083206001600160a01b0385168085529252808320805460ff1916905551339285917ff6391f5c32d9c69d2a47ea670b442974b53935d1edc7fd64eb21e047a839171b9190a45050565b600b5460ff16612a8e5760405162461bcd60e51b815260206004820152601460248201527314185d5cd8589b194e881b9bdd081c185d5cd95960621b6044820152606401610cc5565b600b805460ff191690557f5db9ee0a495bf2e6ff9c91a7834c1ba4fdd244a5e8aa4e537bd38aeae4b073aa335b6040516001600160a01b03909116815260200160405180910390a1565b6000612ae482846147ba565b9392505050565b604080516001600160a01b0385811660248301528481166044830152606480830185905283518084039091018152608490920183526020820180516001600160e01b03166323b872dd60e01b1790529151600092839290881691612b4f9190614512565b6000604051808303816000865af19150503d8060008114612b8c576040519150601f19603f3d011682016040523d82523d6000602084013e612b91565b606091505b5091509150818015612bbb575080511580612bbb575080806020019051810190612bbb91906143c6565b612c215760405162461bcd60e51b815260206004820152603160248201527f5472616e7366657248656c7065723a3a7472616e7366657246726f6d3a207472604482015270185b9cd9995c919c9bdb4819985a5b1959607a1b6064820152608401610cc5565b505050505050565b6000612ae4828461478e565b600080612c438585856131cf565b95945050505050565b607c546001600160a01b0316612ca45760405162461bcd60e51b815260206004820152601a60248201527f7061796d656e742061646472657373206973206e6f74207365740000000000006044820152606401610cc5565b6000612ce460828481548110612cca57634e487b7160e01b600052603260045260246000fd5b906000526020600020015483612ad890919063ffffffff16565b90506000612d096103e8612d03607e5485612ad890919063ffffffff16565b906131ed565b90506000612d178383612da3565b6012549091506001600160a01b031615612d6e57601254607d54612d4a916001600160a01b039081169130911685612aeb565b601254607c54612d69916001600160a01b039081169130911684612aeb565b6122f2565b607d54612d84906001600160a01b0316836131f9565b607c546122f2906001600160a01b0316826131f9565b611160816132d3565b6000612ae482846147d9565b600b80546001600160a01b03838116610100818102610100600160a81b031985161790945560405193909204169182907f8be0079c531659141344cd1fd0a4f28419497f9722a3daafe3b4186f6b6457e090600090a35050565b600b5460ff1615612e4f5760405162461bcd60e51b815260206004820152601060248201526f14185d5cd8589b194e881c185d5cd95960821b6044820152606401610cc5565b600b805460ff191660011790557f62e78cea01bee320cd4e420270b5ea74000d11b0c9f74754ebdbfc544b05a258612abb3390565b816001600160a01b0316836001600160a01b03161415612ee65760405162461bcd60e51b815260206004820152601960248201527f4552433732313a20617070726f766520746f2063616c6c6572000000000000006044820152606401610cc5565b6001600160a01b03838116600081815260056020908152604080832094871680845294825291829020805460ff191686151590811790915591519182527f17307eab39ab6107e8899845ad3d59bd9653f200f220920489ca2b5937696c31910160405180910390a3505050565b612f5e8484846127b1565b612f6a84848484613313565b61232b5760405162461bcd60e51b8152600401610cc590614622565b6060612f9182612632565b612ff75760405162461bcd60e51b815260206004820152603160248201527f45524337323155524953746f726167653a2055524920717565727920666f72206044820152703737b732bc34b9ba32b73a103a37b5b2b760791b6064820152608401610cc5565b6000828152600a60205260408120805461301090614833565b80601f016020809104026020016040519081016040528092919081815260200182805461303c90614833565b80156130895780601f1061305e57610100808354040283529160200191613089565b820191906000526020600020905b81548152906001019060200180831161306c57829003601f168201915b5050505050905060006130a760408051602081019091526000815290565b90508051600014156130ba575092915050565b8151156130ec5780826040516020016130d492919061452e565b60405160208183030381529060405292505050919050565b6127a984613420565b60006001600160e01b0319821663780e9d6360e01b1480610bc55750610bc5826134f7565b61312482826120fe565b61113c5761313c816001600160a01b03166014613547565b613147836020613547565b60405160200161315892919061455d565b60408051601f198184030181529082905262461bcd60e51b8252610cc59160040161460f565b600b5460ff16156131c45760405162461bcd60e51b815260206004820152601060248201526f14185d5cd8589b194e881c185d5cd95960821b6044820152606401610cc5565b610dfb838383613728565b60006131db84846137e0565b6131e583836137fa565b509092915050565b6000612ae482846147a6565b604080516000808252602082019092526001600160a01b0384169083906040516132239190614512565b60006040518083038185875af1925050503d8060008114613260576040519150601f19603f3d011682016040523d82523d6000602084013e613265565b606091505b5050905080610dfb5760405162461bcd60e51b815260206004820152603460248201527f5472616e7366657248656c7065723a3a736166655472616e736665724554483a60448201527308115512081d1c985b9cd9995c8819985a5b195960621b6064820152608401610cc5565b6132dc81613885565b6000818152600a6020526040902080546132f590614833565b159050611160576000818152600a6020526040812061116091613e88565b60006001600160a01b0384163b1561341557604051630a85bd0160e11b81526001600160a01b0385169063150b7a02906133579033908990889088906004016145d2565b602060405180830381600087803b15801561337157600080fd5b505af19250505080156133a1575060408051601f3d908101601f1916820190925261339e91810190614438565b60015b6133fb573d8080156133cf576040519150601f19603f3d011682016040523d82523d6000602084013e6133d4565b606091505b5080516133f35760405162461bcd60e51b8152600401610cc590614622565b805181602001fd5b6001600160e01b031916630a85bd0160e11b1490506127a9565b506001949350505050565b606061342b82612632565b61348f5760405162461bcd60e51b815260206004820152602f60248201527f4552433732314d657461646174613a2055524920717565727920666f72206e6f60448201526e3732bc34b9ba32b73a103a37b5b2b760891b6064820152608401610cc5565b60006134a660408051602081019091526000815290565b905060008151116134c65760405180602001604052806000815250612ae4565b806134d08461392c565b6040516020016134e192919061452e565b6040516020818303038152906040529392505050565b60006001600160e01b031982166380ac58cd60e01b148061352857506001600160e01b03198216635b5e139f60e01b145b80610bc557506301ffc9a760e01b6001600160e01b0319831614610bc5565b606060006135568360026147ba565b61356190600261478e565b6001600160401b0381111561358657634e487b7160e01b600052604160045260246000fd5b6040519080825280601f01601f1916602001820160405280156135b0576020820181803683370190505b509050600360fc1b816000815181106135d957634e487b7160e01b600052603260045260246000fd5b60200101906001600160f81b031916908160001a905350600f60fb1b8160018151811061361657634e487b7160e01b600052603260045260246000fd5b60200101906001600160f81b031916908160001a905350600061363a8460026147ba565b61364590600161478e565b90505b60018111156136d9576f181899199a1a9b1b9c1cb0b131b232b360811b85600f166010811061368757634e487b7160e01b600052603260045260246000fd5b1a60f81b8282815181106136ab57634e487b7160e01b600052603260045260246000fd5b60200101906001600160f81b031916908160001a90535060049490941c936136d28161481c565b9050613648565b508315612ae45760405162461bcd60e51b815260206004820181905260248201527f537472696e67733a20686578206c656e67746820696e73756666696369656e746044820152606401610cc5565b6001600160a01b0383166137835761377e81600880546000838152600960205260408120829055600182018355919091527ff3f7a9fe364faab93b216da50a3214154f22a0a2b415b23a84c8169e8b636ee30155565b6137a6565b816001600160a01b0316836001600160a01b0316146137a6576137a68382613a45565b6001600160a01b0382166137bd57610dfb81613ae2565b826001600160a01b0316826001600160a01b031614610dfb57610dfb8282613bbb565b61113c828260405180602001604052806000815250613bff565b61380382612632565b6138665760405162461bcd60e51b815260206004820152602e60248201527f45524337323155524953746f726167653a2055524920736574206f66206e6f6e60448201526d32bc34b9ba32b73a103a37b5b2b760911b6064820152608401610cc5565b6000828152600a602090815260409091208251610dfb92840190613d71565b600061389082611978565b905061389e8160008461317e565b6138a960008361264f565b6001600160a01b03811660009081526003602052604081208054600192906138d29084906147d9565b909155505060008281526002602052604080822080546001600160a01b0319169055518391906001600160a01b038416907fddf252ad1be2c89b69c2b068fc378daa952ba7f163c4a11628f55a4df523b3ef908390a45050565b6060816139505750506040805180820190915260018152600360fc1b602082015290565b8160005b811561397a578061396481614868565b91506139739050600a836147a6565b9150613954565b6000816001600160401b038111156139a257634e487b7160e01b600052604160045260246000fd5b6040519080825280601f01601f1916602001820160405280156139cc576020820181803683370190505b5090505b84156127a9576139e16001836147d9565b91506139ee600a86614883565b6139f990603061478e565b60f81b818381518110613a1c57634e487b7160e01b600052603260045260246000fd5b60200101906001600160f81b031916908160001a905350613a3e600a866147a6565b94506139d0565b60006001613a5284611a54565b613a5c91906147d9565b600083815260076020526040902054909150808214613aaf576001600160a01b03841660009081526006602090815260408083208584528252808320548484528184208190558352600790915290208190555b5060009182526007602090815260408084208490556001600160a01b039094168352600681528383209183525290812055565b600854600090613af4906001906147d9565b60008381526009602052604081205460088054939450909284908110613b2a57634e487b7160e01b600052603260045260246000fd5b906000526020600020015490508060088381548110613b5957634e487b7160e01b600052603260045260246000fd5b6000918252602080832090910192909255828152600990915260408082208490558582528120556008805480613b9f57634e487b7160e01b600052603160045260246000fd5b6001900381819060005260206000200160009055905550505050565b6000613bc683611a54565b6001600160a01b039093166000908152600660209081526040808320868452825280832085905593825260079052919091209190915550565b613c098383613c32565b613c166000848484613313565b610dfb5760405162461bcd60e51b8152600401610cc590614622565b6001600160a01b038216613c885760405162461bcd60e51b815260206004820181905260248201527f4552433732313a206d696e7420746f20746865207a65726f20616464726573736044820152606401610cc5565b613c9181612632565b15613cde5760405162461bcd60e51b815260206004820152601c60248201527f4552433732313a20746f6b656e20616c7265616479206d696e746564000000006044820152606401610cc5565b613cea6000838361317e565b6001600160a01b0382166000908152600360205260408120805460019290613d1390849061478e565b909155505060008181526002602052604080822080546001600160a01b0319166001600160a01b03861690811790915590518392907fddf252ad1be2c89b69c2b068fc378daa952ba7f163c4a11628f55a4df523b3ef908290a45050565b828054613d7d90614833565b90600052602060002090601f016020900481019282613d9f5760008555613de5565b82601f10613db857805160ff1916838001178555613de5565b82800160010185558215613de5579182015b82811115613de5578251825591602001919060010190613dca565b50613df1929150613ebe565b5090565b828054828255906000526020600020908101928215613de55791602002820182811115613de5578251825591602001919060010190613dca565b828054828255906000526020600020908101928215613e7c579160200282015b82811115613e7c5782518051613e6c918491602090910190613d71565b5091602001919060010190613e4f565b50613df1929150613ed3565b508054613e9490614833565b6000825580601f10613ea4575050565b601f01602090049060005260206000209081019061116091905b5b80821115613df15760008155600101613ebf565b80821115613df1576000613ee78282613e88565b50600101613ed3565b60006001600160401b03831115613f0957613f096148c3565b613f1c601f8401601f191660200161473b565b9050828152838383011115613f3057600080fd5b828260208301376000602084830101529392505050565b80356001600160a01b0381168114613f5e57600080fd5b919050565b600082601f830112613f73578081fd5b81356020613f88613f838361476b565b61473b565b80838252828201915082860187848660051b8901011115613fa7578586fd5b855b85811015613fe75781356001600160401b03811115613fc6578788fd5b613fd48a87838c0101614051565b8552509284019290840190600101613fa9565b5090979650505050505050565b600082601f830112614004578081fd5b81356020614014613f838361476b565b80838252828201915082860187848660051b8901011115614033578586fd5b855b85811015613fe757813584529284019290840190600101614035565b600082601f830112614061578081fd5b612ae483833560208501613ef0565b600060208284031215614081578081fd5b612ae482613f47565b6000806040838503121561409c578081fd5b6140a583613f47565b91506140b360208401613f47565b90509250929050565b6000806000606084860312156140d0578081fd5b6140d984613f47565b92506140e760208501613f47565b9150604084013590509250925092565b60008060008060006080868803121561410e578081fd5b61411786613f47565b945061412560208701613f47565b93506040860135925060608601356001600160401b0380821115614147578283fd5b818801915088601f83011261415a578283fd5b813581811115614168578384fd5b896020828501011115614179578384fd5b9699959850939650602001949392505050565b600080600080608085870312156141a1578384fd5b6141aa85613f47565b93506141b860208601613f47565b92506040850135915060608501356001600160401b038111156141d9578182fd5b8501601f810187136141e9578182fd5b6141f887823560208401613ef0565b91505092959194509250565b60008060408385031215614216578182fd5b61421f83613f47565b915060208301356001600160401b03811115614239578182fd5b61424585828601613f63565b9150509250929050565b60008060408385031215614261578182fd5b61426a83613f47565b9150602083013561427a816148d9565b809150509250929050565b60008060408385031215614297578182fd5b6142a083613f47565b915060208301356001600160401b038111156142ba578182fd5b61424585828601614051565b6000806000606084860312156142da578081fd5b6142e384613f47565b925060208401356001600160401b038111156142fd578182fd5b61430986828701614051565b925050604084013590509250925092565b6000806040838503121561432c578182fd5b61433583613f47565b946020939093013593505050565b600080600060608486031215614357578081fd5b83356001600160401b038082111561436d578283fd5b61437987838801613f63565b9450602086013591508082111561438e578283fd5b61439a87838801613ff4565b935060408601359150808211156143af578283fd5b506143bc86828701613ff4565b9150509250925092565b6000602082840312156143d7578081fd5b8151612ae4816148d9565b6000602082840312156143f3578081fd5b5035919050565b6000806040838503121561440c578182fd5b823591506140b360208401613f47565b60006020828403121561442d578081fd5b8135612ae4816148e7565b600060208284031215614449578081fd5b8151612ae4816148e7565b600060208284031215614465578081fd5b5051919050565b6000806040838503121561447e578182fd5b8235915060208301356001600160401b038111156142ba578182fd5b600080604083850312156144ac578182fd5b50508035926020909101359150565b6000806000606084860312156144cf578081fd5b505081359360208301359350604090920135919050565b600081518084526144fe8160208601602086016147f0565b601f01601f19169290920160200192915050565b600082516145248184602087016147f0565b9190910192915050565b600083516145408184602088016147f0565b8351908301906145548183602088016147f0565b01949350505050565b7f416363657373436f6e74726f6c3a206163636f756e74200000000000000000008152600083516145958160178501602088016147f0565b7001034b99036b4b9b9b4b733903937b6329607d1b60179184019182015283516145c68160288401602088016147f0565b01602801949350505050565b6001600160a01b0385811682528416602082015260408101839052608060608201819052600090614605908301846144e6565b9695505050505050565b602081526000612ae460208301846144e6565b60208082526032908201527f4552433732313a207472616e7366657220746f206e6f6e20455243373231526560408201527131b2b4bb32b91034b6b83632b6b2b73a32b960711b606082015260800190565b6020808252818101527f4f776e61626c653a2063616c6c6572206973206e6f7420746865206f776e6572604082015260600190565b60208082526021908201527f76616c75652073686f756c642062652067726561746572207468616e207a65726040820152606f60f81b606082015260800190565b60208082526031908201527f4552433732313a207472616e736665722063616c6c6572206973206e6f74206f6040820152701ddb995c881b9bdc88185c1c1c9bdd9959607a1b606082015260800190565b604051601f8201601f191681016001600160401b0381118282101715614763576147636148c3565b604052919050565b60006001600160401b03821115614784576147846148c3565b5060051b60200190565b600082198211156147a1576147a1614897565b500190565b6000826147b5576147b56148ad565b500490565b60008160001904831182151516156147d4576147d4614897565b500290565b6000828210156147eb576147eb614897565b500390565b60005b8381101561480b5781810151838201526020016147f3565b8381111561232b5750506000910152565b60008161482b5761482b614897565b506000190190565b600181811c9082168061484757607f821691505b6020821081141561197257634e487b7160e01b600052602260045260246000fd5b600060001982141561487c5761487c614897565b5060010190565b600082614892576148926148ad565b500690565b634e487b7160e01b600052601160045260246000fd5b634e487b7160e01b600052601260045260246000fd5b634e487b7160e01b600052604160045260246000fd5b801515811461116057600080fd5b6001600160e01b03198116811461116057600080fdfe65d7a28e3265b37a6474929f336521b332c1681b933f6cb9f3376673440d862a9f2df0fed2c77648de5860a4cc508cd0818c85b8b8a1ab4ceeef8d981c8956a6a2646970667358221220d36b05c169c9b8b0d8c234ec033405bde8175c28c75297df4ceab6402627a7eb64736f6c634300080400334f776e61626c653a2063616c6c6572206973206e6f7420746865206f776e657265d7a28e3265b37a6474929f336521b332c1681b933f6cb9f3376673440d862a9f2df0fed2c77648de5860a4cc508cd0818c85b8b8a1ab4ceeef8d981c8956a6",
  "linkReferences": {},
  "deployedLinkReferences": {}
}