{
  "_format": "hh-sol-artifact-1",
  "contractName": "ERC721Token",
  "sourceName": "contracts/ERC721Token.sol",
  "abi": [
    {
      "inputs": [
        {
          "internalType": "string",
          "name": "name",
          "type": "string"
        },
        {
          "internalType": "string",
          "name": "symbol",
          "type": "string"
        }
      ],
      "stateMutability": "nonpayable",
      "type": "constructor"
    },
    {
      "anonymous": false,
      "inputs": [
        {
          "indexed": true,
          "internalType": "address",
          "name": "owner",
          "type": "address"
        },
        {
          "indexed": true,
          "internalType": "address",
          "name": "approved",
          "type": "address"
        },
        {
          "indexed": true,
          "internalType": "uint256",
          "name": "tokenId",
          "type": "uint256"
        }
      ],
      "name": "Approval",
      "type": "event"
    },
    {
      "anonymous": false,
      "inputs": [
        {
          "indexed": true,
          "internalType": "address",
          "name": "owner",
          "type": "address"
        },
        {
          "indexed": true,
          "internalType": "address",
          "name": "operator",
          "type": "address"
        },
        {
          "indexed": false,
          "internalType": "bool",
          "name": "approved",
          "type": "bool"
        }
      ],
      "name": "ApprovalForAll",
      "type": "event"
    },
    {
      "anonymous": false,
      "inputs": [
        {
          "indexed": false,
          "internalType": "address",
          "name": "",
          "type": "address"
        },
        {
          "indexed": false,
          "internalType": "string",
          "name": "",
          "type": "string"
        }
      ],
      "name": "Grant",
      "type": "event"
    },
    {
      "anonymous": false,
      "inputs": [
        {
          "indexed": true,
          "internalType": "address",
          "name": "previousOwner",
          "type": "address"
        },
        {
          "indexed": true,
          "internalType": "address",
          "name": "newOwner",
          "type": "address"
        }
      ],
      "name": "OwnershipTransferred",
      "type": "event"
    },
    {
      "anonymous": false,
      "inputs": [
        {
          "indexed": false,
          "internalType": "address",
          "name": "account",
          "type": "address"
        }
      ],
      "name": "Paused",
      "type": "event"
    },
    {
      "anonymous": false,
      "inputs": [
        {
          "indexed": true,
          "internalType": "bytes32",
          "name": "role",
          "type": "bytes32"
        },
        {
          "indexed": true,
          "internalType": "bytes32",
          "name": "previousAdminRole",
          "type": "bytes32"
        },
        {
          "indexed": true,
          "internalType": "bytes32",
          "name": "newAdminRole",
          "type": "bytes32"
        }
      ],
      "name": "RoleAdminChanged",
      "type": "event"
    },
    {
      "anonymous": false,
      "inputs": [
        {
          "indexed": true,
          "internalType": "bytes32",
          "name": "role",
          "type": "bytes32"
        },
        {
          "indexed": true,
          "internalType": "address",
          "name": "account",
          "type": "address"
        },
        {
          "indexed": true,
          "internalType": "address",
          "name": "sender",
          "type": "address"
        }
      ],
      "name": "RoleGranted",
      "type": "event"
    },
    {
      "anonymous": false,
      "inputs": [
        {
          "indexed": true,
          "internalType": "bytes32",
          "name": "role",
          "type": "bytes32"
        },
        {
          "indexed": true,
          "internalType": "address",
          "name": "account",
          "type": "address"
        },
        {
          "indexed": true,
          "internalType": "address",
          "name": "sender",
          "type": "address"
        }
      ],
      "name": "RoleRevoked",
      "type": "event"
    },
    {
      "anonymous": false,
      "inputs": [
        {
          "indexed": false,
          "internalType": "uint256",
          "name": "",
          "type": "uint256"
        }
      ],
      "name": "SetHardCap",
      "type": "event"
    },
    {
      "anonymous": false,
      "inputs": [
        {
          "indexed": false,
          "internalType": "address",
          "name": "",
          "type": "address"
        }
      ],
      "name": "SetMysteryBox",
      "type": "event"
    },
    {
      "anonymous": false,
      "inputs": [
        {
          "indexed": true,
          "internalType": "address",
          "name": "from",
          "type": "address"
        },
        {
          "indexed": true,
          "internalType": "address",
          "name": "to",
          "type": "address"
        },
        {
          "indexed": true,
          "internalType": "uint256",
          "name": "tokenId",
          "type": "uint256"
        }
      ],
      "name": "Transfer",
      "type": "event"
    },
    {
      "anonymous": false,
      "inputs": [
        {
          "indexed": false,
          "internalType": "address",
          "name": "account",
          "type": "address"
        }
      ],
      "name": "Unpaused",
      "type": "event"
    },
    {
      "inputs": [],
      "name": "DEFAULT_ADMIN_ROLE",
      "outputs": [
        {
          "internalType": "bytes32",
          "name": "",
          "type": "bytes32"
        }
      ],
      "stateMutability": "view",
      "type": "function"
    },
    {
      "inputs": [],
      "name": "MINTER_ROLE",
      "outputs": [
        {
          "internalType": "bytes32",
          "name": "",
          "type": "bytes32"
        }
      ],
      "stateMutability": "view",
      "type": "function"
    },
    {
      "inputs": [],
      "name": "PAUSER_ROLE",
      "outputs": [
        {
          "internalType": "bytes32",
          "name": "",
          "type": "bytes32"
        }
      ],
      "stateMutability": "view",
      "type": "function"
    },
    {
      "inputs": [
        {
          "internalType": "address",
          "name": "minter",
          "type": "address"
        }
      ],
      "name": "addMinter",
      "outputs": [],
      "stateMutability": "nonpayable",
      "type": "function"
    },
    {
      "inputs": [
        {
          "internalType": "address",
          "name": "pauser",
          "type": "address"
        }
      ],
      "name": "addPauser",
      "outputs": [],
      "stateMutability": "nonpayable",
      "type": "function"
    },
    {
      "inputs": [
        {
          "internalType": "address",
          "name": "to",
          "type": "address"
        },
        {
          "internalType": "uint256",
          "name": "tokenId",
          "type": "uint256"
        }
      ],
      "name": "approve",
      "outputs": [],
      "stateMutability": "nonpayable",
      "type": "function"
    },
    {
      "inputs": [
        {
          "internalType": "address",
          "name": "owner",
          "type": "address"
        }
      ],
      "name": "balanceOf",
      "outputs": [
        {
          "internalType": "uint256",
          "name": "",
          "type": "uint256"
        }
      ],
      "stateMutability": "view",
      "type": "function"
    },
    {
      "inputs": [
        {
          "internalType": "uint256",
          "name": "tokenId",
          "type": "uint256"
        }
      ],
      "name": "burn",
      "outputs": [],
      "stateMutability": "nonpayable",
      "type": "function"
    },
    {
      "inputs": [
        {
          "internalType": "uint256",
          "name": "tokenId",
          "type": "uint256"
        }
      ],
      "name": "getApproved",
      "outputs": [
        {
          "internalType": "address",
          "name": "",
          "type": "address"
        }
      ],
      "stateMutability": "view",
      "type": "function"
    },
    {
      "inputs": [
        {
          "internalType": "bytes32",
          "name": "role",
          "type": "bytes32"
        }
      ],
      "name": "getRoleAdmin",
      "outputs": [
        {
          "internalType": "bytes32",
          "name": "",
          "type": "bytes32"
        }
      ],
      "stateMutability": "view",
      "type": "function"
    },
    {
      "inputs": [],
      "name": "globalURI",
      "outputs": [
        {
          "internalType": "string",
          "name": "",
          "type": "string"
        }
      ],
      "stateMutability": "view",
      "type": "function"
    },
    {
      "inputs": [
        {
          "internalType": "bytes32",
          "name": "role",
          "type": "bytes32"
        },
        {
          "internalType": "address",
          "name": "account",
          "type": "address"
        }
      ],
      "name": "grantRole",
      "outputs": [],
      "stateMutability": "nonpayable",
      "type": "function"
    },
    {
      "inputs": [],
      "name": "hardCap",
      "outputs": [
        {
          "internalType": "uint256",
          "name": "",
          "type": "uint256"
        }
      ],
      "stateMutability": "view",
      "type": "function"
    },
    {
      "inputs": [
        {
          "internalType": "bytes32",
          "name": "role",
          "type": "bytes32"
        },
        {
          "internalType": "address",
          "name": "account",
          "type": "address"
        }
      ],
      "name": "hasRole",
      "outputs": [
        {
          "internalType": "bool",
          "name": "",
          "type": "bool"
        }
      ],
      "stateMutability": "view",
      "type": "function"
    },
    {
      "inputs": [
        {
          "internalType": "address",
          "name": "owner",
          "type": "address"
        },
        {
          "internalType": "address",
          "name": "operator",
          "type": "address"
        }
      ],
      "name": "isApprovedForAll",
      "outputs": [
        {
          "internalType": "bool",
          "name": "",
          "type": "bool"
        }
      ],
      "stateMutability": "view",
      "type": "function"
    },
    {
      "inputs": [],
      "name": "mysteryBox",
      "outputs": [
        {
          "internalType": "address",
          "name": "",
          "type": "address"
        }
      ],
      "stateMutability": "view",
      "type": "function"
    },
    {
      "inputs": [],
      "name": "name",
      "outputs": [
        {
          "internalType": "string",
          "name": "",
          "type": "string"
        }
      ],
      "stateMutability": "view",
      "type": "function"
    },
    {
      "inputs": [],
      "name": "owner",
      "outputs": [
        {
          "internalType": "address",
          "name": "",
          "type": "address"
        }
      ],
      "stateMutability": "view",
      "type": "function"
    },
    {
      "inputs": [
        {
          "internalType": "uint256",
          "name": "tokenId",
          "type": "uint256"
        }
      ],
      "name": "ownerOf",
      "outputs": [
        {
          "internalType": "address",
          "name": "",
          "type": "address"
        }
      ],
      "stateMutability": "view",
      "type": "function"
    },
    {
      "inputs": [],
      "name": "pause",
      "outputs": [],
      "stateMutability": "nonpayable",
      "type": "function"
    },
    {
      "inputs": [],
      "name": "paused",
      "outputs": [
        {
          "internalType": "bool",
          "name": "",
          "type": "bool"
        }
      ],
      "stateMutability": "view",
      "type": "function"
    },
    {
      "inputs": [],
      "name": "renounceOwnership",
      "outputs": [],
      "stateMutability": "nonpayable",
      "type": "function"
    },
    {
      "inputs": [
        {
          "internalType": "bytes32",
          "name": "role",
          "type": "bytes32"
        },
        {
          "internalType": "address",
          "name": "account",
          "type": "address"
        }
      ],
      "name": "renounceRole",
      "outputs": [],
      "stateMutability": "nonpayable",
      "type": "function"
    },
    {
      "inputs": [
        {
          "internalType": "bytes32",
          "name": "role",
          "type": "bytes32"
        },
        {
          "internalType": "address",
          "name": "account",
          "type": "address"
        }
      ],
      "name": "revokeRole",
      "outputs": [],
      "stateMutability": "nonpayable",
      "type": "function"
    },
    {
      "inputs": [
        {
          "internalType": "address",
          "name": "to",
          "type": "address"
        },
        {
          "internalType": "string[]",
          "name": "uris",
          "type": "string[]"
        }
      ],
      "name": "safeBatchMint",
      "outputs": [],
      "stateMutability": "nonpayable",
      "type": "function"
    },
    {
      "inputs": [
        {
          "internalType": "address",
          "name": "to",
          "type": "address"
        },
        {
          "internalType": "string",
          "name": "uri",
          "type": "string"
        },
        {
          "internalType": "uint256",
          "name": "amount",
          "type": "uint256"
        }
      ],
      "name": "safeBatchMintLight",
      "outputs": [],
      "stateMutability": "nonpayable",
      "type": "function"
    },
    {
      "inputs": [
        {
          "internalType": "address",
          "name": "to",
          "type": "address"
        },
        {
          "internalType": "string",
          "name": "uri",
          "type": "string"
        }
      ],
      "name": "safeMint",
      "outputs": [
        {
          "internalType": "uint256",
          "name": "",
          "type": "uint256"
        }
      ],
      "stateMutability": "nonpayable",
      "type": "function"
    },
    {
      "inputs": [
        {
          "internalType": "address",
          "name": "to",
          "type": "address"
        }
      ],
      "name": "safeMintTo",
      "outputs": [],
      "stateMutability": "nonpayable",
      "type": "function"
    },
    {
      "inputs": [
        {
          "internalType": "address",
          "name": "from",
          "type": "address"
        },
        {
          "internalType": "address",
          "name": "to",
          "type": "address"
        },
        {
          "internalType": "uint256",
          "name": "tokenId",
          "type": "uint256"
        }
      ],
      "name": "safeTransferFrom",
      "outputs": [],
      "stateMutability": "nonpayable",
      "type": "function"
    },
    {
      "inputs": [
        {
          "internalType": "address",
          "name": "from",
          "type": "address"
        },
        {
          "internalType": "address",
          "name": "to",
          "type": "address"
        },
        {
          "internalType": "uint256",
          "name": "tokenId",
          "type": "uint256"
        },
        {
          "internalType": "bytes",
          "name": "_data",
          "type": "bytes"
        }
      ],
      "name": "safeTransferFrom",
      "outputs": [],
      "stateMutability": "nonpayable",
      "type": "function"
    },
    {
      "inputs": [
        {
          "internalType": "address",
          "name": "operator",
          "type": "address"
        },
        {
          "internalType": "bool",
          "name": "approved",
          "type": "bool"
        }
      ],
      "name": "setApprovalForAll",
      "outputs": [],
      "stateMutability": "nonpayable",
      "type": "function"
    },
    {
      "inputs": [
        {
          "internalType": "uint256",
          "name": "_hardCap",
          "type": "uint256"
        },
        {
          "internalType": "string",
          "name": "_uri",
          "type": "string"
        }
      ],
      "name": "setHardCap",
      "outputs": [],
      "stateMutability": "nonpayable",
      "type": "function"
    },
    {
      "inputs": [
        {
          "internalType": "address",
          "name": "_mbox",
          "type": "address"
        }
      ],
      "name": "setMysteryBox",
      "outputs": [],
      "stateMutability": "nonpayable",
      "type": "function"
    },
    {
      "inputs": [
        {
          "internalType": "bytes4",
          "name": "interfaceId",
          "type": "bytes4"
        }
      ],
      "name": "supportsInterface",
      "outputs": [
        {
          "internalType": "bool",
          "name": "",
          "type": "bool"
        }
      ],
      "stateMutability": "view",
      "type": "function"
    },
    {
      "inputs": [],
      "name": "symbol",
      "outputs": [
        {
          "internalType": "string",
          "name": "",
          "type": "string"
        }
      ],
      "stateMutability": "view",
      "type": "function"
    },
    {
      "inputs": [
        {
          "internalType": "uint256",
          "name": "index",
          "type": "uint256"
        }
      ],
      "name": "tokenByIndex",
      "outputs": [
        {
          "internalType": "uint256",
          "name": "",
          "type": "uint256"
        }
      ],
      "stateMutability": "view",
      "type": "function"
    },
    {
      "inputs": [
        {
          "internalType": "address",
          "name": "owner",
          "type": "address"
        },
        {
          "internalType": "uint256",
          "name": "index",
          "type": "uint256"
        }
      ],
      "name": "tokenOfOwnerByIndex",
      "outputs": [
        {
          "internalType": "uint256",
          "name": "",
          "type": "uint256"
        }
      ],
      "stateMutability": "view",
      "type": "function"
    },
    {
      "inputs": [
        {
          "internalType": "uint256",
          "name": "tokenId",
          "type": "uint256"
        }
      ],
      "name": "tokenURI",
      "outputs": [
        {
          "internalType": "string",
          "name": "",
          "type": "string"
        }
      ],
      "stateMutability": "view",
      "type": "function"
    },
    {
      "inputs": [],
      "name": "totalSupply",
      "outputs": [
        {
          "internalType": "uint256",
          "name": "",
          "type": "uint256"
        }
      ],
      "stateMutability": "view",
      "type": "function"
    },
    {
      "inputs": [
        {
          "internalType": "address",
          "name": "from",
          "type": "address"
        },
        {
          "internalType": "address",
          "name": "to",
          "type": "address"
        },
        {
          "internalType": "uint256",
          "name": "tokenId",
          "type": "uint256"
        }
      ],
      "name": "transferFrom",
      "outputs": [],
      "stateMutability": "nonpayable",
      "type": "function"
    },
    {
      "inputs": [
        {
          "internalType": "address",
          "name": "newOwner",
          "type": "address"
        }
      ],
      "name": "transferOwnership",
      "outputs": [],
      "stateMutability": "nonpayable",
      "type": "function"
    },
    {
      "inputs": [],
      "name": "unpause",
      "outputs": [],
      "stateMutability": "nonpayable",
      "type": "function"
    }
  ],
  "bytecode": "0x60806040526000600d553480156200001657600080fd5b506040516200341138038062003411833981016040819052620000399162000365565b815182908290620000529060009060208501906200020c565b508051620000689060019060208401906200020c565b5050600b805460ff1916905550620000803362000104565b6200008d6000336200015e565b620000b97f65d7a28e3265b37a6474929f336521b332c1681b933f6cb9f3376673440d862a336200015e565b620000e57f9f2df0fed2c77648de5860a4cc508cd0818c85b8b8a1ab4ceeef8d981c8956a6336200015e565b620000fc60106200020360201b620013631760201c565b50506200041f565b600b80546001600160a01b03838116610100818102610100600160a81b031985161790945560405193909204169182907f8be0079c531659141344cd1fd0a4f28419497f9722a3daafe3b4186f6b6457e090600090a35050565b6000828152600c602090815260408083206001600160a01b038516845290915290205460ff16620001ff576000828152600c602090815260408083206001600160a01b03851684529091529020805460ff19166001179055620001be3390565b6001600160a01b0316816001600160a01b0316837f2f8788117e7eff1d82e926ec794901d17c78024a50270940304540a733656f0d60405160405180910390a45b5050565b80546001019055565b8280546200021a90620003cc565b90600052602060002090601f0160209004810192826200023e576000855562000289565b82601f106200025957805160ff191683800117855562000289565b8280016001018555821562000289579182015b82811115620002895782518255916020019190600101906200026c565b50620002979291506200029b565b5090565b5b808211156200029757600081556001016200029c565b600082601f830112620002c3578081fd5b81516001600160401b0380821115620002e057620002e062000409565b604051601f8301601f19908116603f011681019082821181831017156200030b576200030b62000409565b8160405283815260209250868385880101111562000327578485fd5b8491505b838210156200034a57858201830151818301840152908201906200032b565b838211156200035b57848385830101525b9695505050505050565b6000806040838503121562000378578182fd5b82516001600160401b03808211156200038f578384fd5b6200039d86838701620002b2565b93506020850151915080821115620003b3578283fd5b50620003c285828601620002b2565b9150509250929050565b600181811c90821680620003e157607f821691505b602082108114156200040357634e487b7160e01b600052602260045260246000fd5b50919050565b634e487b7160e01b600052604160045260246000fd5b612fe2806200042f6000396000f3fe608060405234801561001057600080fd5b506004361061025e5760003560e01c80637b43b82711610146578063b88d4fde116100c3578063d539139311610087578063d539139314610508578063d547741f1461051d578063e63ab1e914610530578063e985e9c514610545578063f2fde38b14610581578063fb86a4041461059457600080fd5b8063b88d4fde146104b4578063c38b761c146104c7578063c87b56dd146104da578063d204c45e146104ed578063d3d3224a1461050057600080fd5b806395d89b411161010a57806395d89b411461046b578063983b2d5614610473578063a217fddf14610486578063a22cb4651461048e578063b5a87cc1146104a157600080fd5b80637b43b8271461041457806382dc1ec4146104275780638456cb591461043a5780638da5cb5b1461044257806391d148541461045857600080fd5b80632f745c59116101df5780634f6ccce7116101a35780634f6ccce7146103b557806358dd6d95146103c85780635c975abb146103db5780636352211e146103e657806370a08231146103f9578063715018a61461040c57600080fd5b80632f745c591461036157806336568abe146103745780633f4ba83a1461038757806342842e0e1461038f57806342966c68146103a257600080fd5b806321bae9e41161022657806321bae9e4146102f257806323b872dd146103055780632449065914610318578063248a9ca31461032b5780632f2ff15d1461034e57600080fd5b806301ffc9a71461026357806306fdde031461028b578063081812fc146102a0578063095ea7b3146102cb57806318160ddd146102e0575b600080fd5b610276610271366004612b75565b61059d565b60405190151581526020015b60405180910390f35b6102936105c8565b6040516102829190612ce9565b6102b36102ae366004612b3b565b61065a565b6040516001600160a01b039091168152602001610282565b6102de6102d9366004612b12565b6106e7565b005b6008545b604051908152602001610282565b6102de610300366004612862565b6107fd565b6102de6103133660046128ae565b61094a565b6102de610326366004612bad565b61097c565b6102e4610339366004612b3b565b6000908152600c602052604090206001015490565b6102de61035c366004612b53565b610a04565b6102e461036f366004612b12565b610a29565b6102de610382366004612b53565b610abf565b6102de610b3d565b6102de61039d3660046128ae565b610b60565b6102de6103b0366004612b3b565b610b7b565b6102e46103c3366004612b3b565b610bf2565b6102de6103d6366004612962565b610c93565b600b5460ff16610276565b6102b36103f4366004612b3b565b610d01565b6102e4610407366004612862565b610d78565b6102de610dff565b6102de610422366004612862565b610e3b565b6102de610435366004612862565b610ee2565b6102de610f88565b600b5461010090046001600160a01b03166102b3565b610276610466366004612b53565b610fa8565b610293610fd3565b6102de610481366004612862565b610fe2565b6102e4600081565b6102de61049c366004612a37565b611088565b6102de6104af366004612abd565b611093565b6102de6104c23660046128e9565b611125565b600f546102b3906001600160a01b031681565b6102936104e8366004612b3b565b611157565b6102e46104fb366004612a71565b611162565b610293611212565b6102e4600080516020612f8d83398151915281565b6102de61052b366004612b53565b6112a0565b6102e4600080516020612f6d83398151915281565b61027661055336600461287c565b6001600160a01b03918216600090815260056020908152604080832093909416825291909152205460ff1690565b6102de61058f366004612862565b6112c5565b6102e4600d5481565b60006001600160e01b031982166380ac58cd60e01b14806105c257506105c28261136c565b92915050565b6060600080546105d790612eaa565b80601f016020809104026020016040519081016040528092919081815260200182805461060390612eaa565b80156106505780601f1061062557610100808354040283529160200191610650565b820191906000526020600020905b81548152906001019060200180831161063357829003601f168201915b5050505050905090565b600061066582611391565b6106cb5760405162461bcd60e51b815260206004820152602c60248201527f4552433732313a20617070726f76656420717565727920666f72206e6f6e657860448201526b34b9ba32b73a103a37b5b2b760a11b60648201526084015b60405180910390fd5b506000908152600460205260409020546001600160a01b031690565b60006106f282610d01565b9050806001600160a01b0316836001600160a01b031614156107605760405162461bcd60e51b815260206004820152602160248201527f4552433732313a20617070726f76616c20746f2063757272656e74206f776e656044820152603960f91b60648201526084016106c2565b336001600160a01b038216148061077c575061077c8133610553565b6107ee5760405162461bcd60e51b815260206004820152603860248201527f4552433732313a20617070726f76652063616c6c6572206973206e6f74206f7760448201527f6e6572206e6f7220617070726f76656420666f7220616c6c000000000000000060648201526084016106c2565b6107f883836113ae565b505050565b600080516020612f8d8339815191526108158161141c565b6000600e805461082490612eaa565b90501161086b5760405162461bcd60e51b815260206004820152601560248201527411db1bd8985b08155492481a5cc81b9bdd081cd95d605a1b60448201526064016106c2565b6001600160a01b0382166108b65760405162461bcd60e51b8152602060048201526012602482015271496e76616c696420746f206164647265737360701b60448201526064016106c2565b6107f882600e80546108c790612eaa565b80601f01602080910402602001604051908101604052809291908181526020018280546108f390612eaa565b80156109405780601f1061091557610100808354040283529160200191610940565b820191906000526020600020905b81548152906001019060200180831161092357829003601f168201915b5050505050611162565b610955335b82611426565b6109715760405162461bcd60e51b81526004016106c290612d83565b6107f883838361150f565b600b546001600160a01b036101009091041633146109ac5760405162461bcd60e51b81526004016106c290612d4e565b600d82905580516109c490600e906020840190612700565b507f57bbf0b7295e3c8587fe0fa3c76592771f6a96123bf723292fd0e3933436b71f600d546040516109f891815260200190565b60405180910390a15050565b6000828152600c6020526040902060010154610a1f8161141c565b6107f883836116b6565b6000610a3483610d78565b8210610a965760405162461bcd60e51b815260206004820152602b60248201527f455243373231456e756d657261626c653a206f776e657220696e646578206f7560448201526a74206f6620626f756e647360a81b60648201526084016106c2565b506001600160a01b03919091166000908152600660209081526040808320938352929052205490565b6001600160a01b0381163314610b2f5760405162461bcd60e51b815260206004820152602f60248201527f416363657373436f6e74726f6c3a2063616e206f6e6c792072656e6f756e636560448201526e103937b632b9903337b91039b2b63360891b60648201526084016106c2565b610b39828261173c565b5050565b600080516020612f6d833981519152610b558161141c565b610b5d6117a3565b50565b6107f883838360405180602001604052806000815250611125565b610b843361094f565b610be95760405162461bcd60e51b815260206004820152603060248201527f4552433732314275726e61626c653a2063616c6c6572206973206e6f74206f7760448201526f1b995c881b9bdc88185c1c1c9bdd995960821b60648201526084016106c2565b610b5d81611836565b6000610bfd60085490565b8210610c605760405162461bcd60e51b815260206004820152602c60248201527f455243373231456e756d657261626c653a20676c6f62616c20696e646578206f60448201526b7574206f6620626f756e647360a01b60648201526084016106c2565b60088281548110610c8157634e487b7160e01b600052603260045260246000fd5b90600052602060002001549050919050565b600080516020612f8d833981519152610cab8161141c565b60005b8251811015610cfb57610ce884848381518110610cdb57634e487b7160e01b600052603260045260246000fd5b6020026020010151611162565b5080610cf381612ee5565b915050610cae565b50505050565b6000818152600260205260408120546001600160a01b0316806105c25760405162461bcd60e51b815260206004820152602960248201527f4552433732313a206f776e657220717565727920666f72206e6f6e657869737460448201526832b73a103a37b5b2b760b91b60648201526084016106c2565b60006001600160a01b038216610de35760405162461bcd60e51b815260206004820152602a60248201527f4552433732313a2062616c616e636520717565727920666f7220746865207a65604482015269726f206164647265737360b01b60648201526084016106c2565b506001600160a01b031660009081526003602052604090205490565b600b546001600160a01b03610100909104163314610e2f5760405162461bcd60e51b81526004016106c290612d4e565b610e39600061183f565b565b600b546001600160a01b03610100909104163314610e6b5760405162461bcd60e51b81526004016106c290612d4e565b600f80546001600160a01b0319166001600160a01b038316179055610e9e600080516020612f8d833981519152826116b6565b600f546040516001600160a01b0390911681527f329b1203fc60a62c4a0fd3ff1554a07f92a2f117cc590422dd105811bb484ded906020015b60405180910390a150565b600b546001600160a01b03610100909104163314610f125760405162461bcd60e51b81526004016106c290612d4e565b610f2a600080516020612f6d833981519152826116b6565b604080516001600160a01b038316815260208101829052600b918101919091526a5041555345525f524f4c4560a81b60608201527f0578acc86b18d67c13a5e6eed8c670fb7052f530b48a2acb167d6ca77509a38490608001610ed7565b600080516020612f6d833981519152610fa08161141c565b610b5d611899565b6000918252600c602090815260408084206001600160a01b0393909316845291905290205460ff1690565b6060600180546105d790612eaa565b600b546001600160a01b036101009091041633146110125760405162461bcd60e51b81526004016106c290612d4e565b61102a600080516020612f8d833981519152826116b6565b604080516001600160a01b038316815260208101829052600b918101919091526a4d494e5445525f524f4c4560a81b60608201527f0578acc86b18d67c13a5e6eed8c670fb7052f530b48a2acb167d6ca77509a38490608001610ed7565b610b39338383611914565b600080516020612f8d8339815191526110ab8161141c565b6001600160a01b0384166110f65760405162461bcd60e51b8152602060048201526012602482015271496e76616c696420746f206164647265737360701b60448201526064016106c2565b60005b8281101561111e5761110b8585611162565b508061111681612ee5565b9150506110f9565b5050505050565b61112f3383611426565b61114b5760405162461bcd60e51b81526004016106c290612d83565b610cfb848484846119e3565b60606105c282611a16565b6000600080516020612f8d83398151915261117c8161141c565b600061118760105490565b9050600d5481106111e85760405162461bcd60e51b815260206004820152602560248201527f63616e206e6f74206d696e74206f766572207468616e206861726420636170206044820152641b1a5b5a5d60da1b60648201526084016106c2565b6111f6601080546001019055565b6112008582611b85565b61120a8185611b9f565b949350505050565b600e805461121f90612eaa565b80601f016020809104026020016040519081016040528092919081815260200182805461124b90612eaa565b80156112985780601f1061126d57610100808354040283529160200191611298565b820191906000526020600020905b81548152906001019060200180831161127b57829003601f168201915b505050505081565b6000828152600c60205260409020600101546112bb8161141c565b6107f8838361173c565b600b546001600160a01b036101009091041633146112f55760405162461bcd60e51b81526004016106c290612d4e565b6001600160a01b03811661135a5760405162461bcd60e51b815260206004820152602660248201527f4f776e61626c653a206e6577206f776e657220697320746865207a65726f206160448201526564647265737360d01b60648201526084016106c2565b610b5d8161183f565b80546001019055565b60006001600160e01b03198216637965db0b60e01b14806105c257506105c282611c2a565b6000908152600260205260409020546001600160a01b0316151590565b600081815260046020526040902080546001600160a01b0319166001600160a01b03841690811790915581906113e382610d01565b6001600160a01b03167f8c5be1e5ebec7d5bd14f71427d1e84f3dd0314c0f7b2291e5b200ac8c7c3b92560405160405180910390a45050565b610b5d8133611c4f565b600061143182611391565b6114925760405162461bcd60e51b815260206004820152602c60248201527f4552433732313a206f70657261746f7220717565727920666f72206e6f6e657860448201526b34b9ba32b73a103a37b5b2b760a11b60648201526084016106c2565b600061149d83610d01565b9050806001600160a01b0316846001600160a01b031614806114e457506001600160a01b0380821660009081526005602090815260408083209388168352929052205460ff165b8061120a5750836001600160a01b03166114fd8461065a565b6001600160a01b031614949350505050565b826001600160a01b031661152282610d01565b6001600160a01b0316146115865760405162461bcd60e51b815260206004820152602560248201527f4552433732313a207472616e736665722066726f6d20696e636f72726563742060448201526437bbb732b960d91b60648201526084016106c2565b6001600160a01b0382166115e85760405162461bcd60e51b8152602060048201526024808201527f4552433732313a207472616e7366657220746f20746865207a65726f206164646044820152637265737360e01b60648201526084016106c2565b6115f3838383611cb3565b6115fe6000826113ae565b6001600160a01b0383166000908152600360205260408120805460019290611627908490612e50565b90915550506001600160a01b0382166000908152600360205260408120805460019290611655908490612e05565b909155505060008181526002602052604080822080546001600160a01b0319166001600160a01b0386811691821790925591518493918716917fddf252ad1be2c89b69c2b068fc378daa952ba7f163c4a11628f55a4df523b3ef91a4505050565b6116c08282610fa8565b610b39576000828152600c602090815260408083206001600160a01b03851684529091529020805460ff191660011790556116f83390565b6001600160a01b0316816001600160a01b0316837f2f8788117e7eff1d82e926ec794901d17c78024a50270940304540a733656f0d60405160405180910390a45050565b6117468282610fa8565b15610b39576000828152600c602090815260408083206001600160a01b0385168085529252808320805460ff1916905551339285917ff6391f5c32d9c69d2a47ea670b442974b53935d1edc7fd64eb21e047a839171b9190a45050565b600b5460ff166117ec5760405162461bcd60e51b815260206004820152601460248201527314185d5cd8589b194e881b9bdd081c185d5cd95960621b60448201526064016106c2565b600b805460ff191690557f5db9ee0a495bf2e6ff9c91a7834c1ba4fdd244a5e8aa4e537bd38aeae4b073aa335b6040516001600160a01b03909116815260200160405180910390a1565b610b5d81611d04565b600b80546001600160a01b03838116610100818102610100600160a81b031985161790945560405193909204169182907f8be0079c531659141344cd1fd0a4f28419497f9722a3daafe3b4186f6b6457e090600090a35050565b600b5460ff16156118df5760405162461bcd60e51b815260206004820152601060248201526f14185d5cd8589b194e881c185d5cd95960821b60448201526064016106c2565b600b805460ff191660011790557f62e78cea01bee320cd4e420270b5ea74000d11b0c9f74754ebdbfc544b05a2586118193390565b816001600160a01b0316836001600160a01b031614156119765760405162461bcd60e51b815260206004820152601960248201527f4552433732313a20617070726f766520746f2063616c6c65720000000000000060448201526064016106c2565b6001600160a01b03838116600081815260056020908152604080832094871680845294825291829020805460ff191686151590811790915591519182527f17307eab39ab6107e8899845ad3d59bd9653f200f220920489ca2b5937696c31910160405180910390a3505050565b6119ee84848461150f565b6119fa84848484611d44565b610cfb5760405162461bcd60e51b81526004016106c290612cfc565b6060611a2182611391565b611a875760405162461bcd60e51b815260206004820152603160248201527f45524337323155524953746f726167653a2055524920717565727920666f72206044820152703737b732bc34b9ba32b73a103a37b5b2b760791b60648201526084016106c2565b6000828152600a602052604081208054611aa090612eaa565b80601f0160208091040260200160405190810160405280929190818152602001828054611acc90612eaa565b8015611b195780601f10611aee57610100808354040283529160200191611b19565b820191906000526020600020905b815481529060010190602001808311611afc57829003601f168201915b505050505090506000611b3760408051602081019091526000815290565b9050805160001415611b4a575092915050565b815115611b7c578082604051602001611b64929190612c08565b60405160208183030381529060405292505050919050565b61120a84611e51565b610b39828260405180602001604052806000815250611f29565b611ba882611391565b611c0b5760405162461bcd60e51b815260206004820152602e60248201527f45524337323155524953746f726167653a2055524920736574206f66206e6f6e60448201526d32bc34b9ba32b73a103a37b5b2b760911b60648201526084016106c2565b6000828152600a6020908152604090912082516107f892840190612700565b60006001600160e01b0319821663780e9d6360e01b14806105c257506105c282611f5c565b611c598282610fa8565b610b3957611c71816001600160a01b03166014611fac565b611c7c836020611fac565b604051602001611c8d929190612c37565b60408051601f198184030181529082905262461bcd60e51b82526106c291600401612ce9565b600b5460ff1615611cf95760405162461bcd60e51b815260206004820152601060248201526f14185d5cd8589b194e881c185d5cd95960821b60448201526064016106c2565b6107f883838361218e565b611d0d81612246565b6000818152600a602052604090208054611d2690612eaa565b159050610b5d576000818152600a60205260408120610b5d91612784565b60006001600160a01b0384163b15611e4657604051630a85bd0160e11b81526001600160a01b0385169063150b7a0290611d88903390899088908890600401612cac565b602060405180830381600087803b158015611da257600080fd5b505af1925050508015611dd2575060408051601f3d908101601f19168201909252611dcf91810190612b91565b60015b611e2c573d808015611e00576040519150601f19603f3d011682016040523d82523d6000602084013e611e05565b606091505b508051611e245760405162461bcd60e51b81526004016106c290612cfc565b805181602001fd5b6001600160e01b031916630a85bd0160e11b14905061120a565b506001949350505050565b6060611e5c82611391565b611ec05760405162461bcd60e51b815260206004820152602f60248201527f4552433732314d657461646174613a2055524920717565727920666f72206e6f60448201526e3732bc34b9ba32b73a103a37b5b2b760891b60648201526084016106c2565b6000611ed760408051602081019091526000815290565b90506000815111611ef75760405180602001604052806000815250611f22565b80611f01846122ed565b604051602001611f12929190612c08565b6040516020818303038152906040525b9392505050565b611f338383612407565b611f406000848484611d44565b6107f85760405162461bcd60e51b81526004016106c290612cfc565b60006001600160e01b031982166380ac58cd60e01b1480611f8d57506001600160e01b03198216635b5e139f60e01b145b806105c257506301ffc9a760e01b6001600160e01b03198316146105c2565b60606000611fbb836002612e31565b611fc6906002612e05565b67ffffffffffffffff811115611fec57634e487b7160e01b600052604160045260246000fd5b6040519080825280601f01601f191660200182016040528015612016576020820181803683370190505b509050600360fc1b8160008151811061203f57634e487b7160e01b600052603260045260246000fd5b60200101906001600160f81b031916908160001a905350600f60fb1b8160018151811061207c57634e487b7160e01b600052603260045260246000fd5b60200101906001600160f81b031916908160001a90535060006120a0846002612e31565b6120ab906001612e05565b90505b600181111561213f576f181899199a1a9b1b9c1cb0b131b232b360811b85600f16601081106120ed57634e487b7160e01b600052603260045260246000fd5b1a60f81b82828151811061211157634e487b7160e01b600052603260045260246000fd5b60200101906001600160f81b031916908160001a90535060049490941c9361213881612e93565b90506120ae565b508315611f225760405162461bcd60e51b815260206004820181905260248201527f537472696e67733a20686578206c656e67746820696e73756666696369656e7460448201526064016106c2565b6001600160a01b0383166121e9576121e481600880546000838152600960205260408120829055600182018355919091527ff3f7a9fe364faab93b216da50a3214154f22a0a2b415b23a84c8169e8b636ee30155565b61220c565b816001600160a01b0316836001600160a01b03161461220c5761220c8382612546565b6001600160a01b038216612223576107f8816125e3565b826001600160a01b0316826001600160a01b0316146107f8576107f882826126bc565b600061225182610d01565b905061225f81600084611cb3565b61226a6000836113ae565b6001600160a01b0381166000908152600360205260408120805460019290612293908490612e50565b909155505060008281526002602052604080822080546001600160a01b0319169055518391906001600160a01b038416907fddf252ad1be2c89b69c2b068fc378daa952ba7f163c4a11628f55a4df523b3ef908390a45050565b6060816123115750506040805180820190915260018152600360fc1b602082015290565b8160005b811561233b578061232581612ee5565b91506123349050600a83612e1d565b9150612315565b60008167ffffffffffffffff81111561236457634e487b7160e01b600052604160045260246000fd5b6040519080825280601f01601f19166020018201604052801561238e576020820181803683370190505b5090505b841561120a576123a3600183612e50565b91506123b0600a86612f00565b6123bb906030612e05565b60f81b8183815181106123de57634e487b7160e01b600052603260045260246000fd5b60200101906001600160f81b031916908160001a905350612400600a86612e1d565b9450612392565b6001600160a01b03821661245d5760405162461bcd60e51b815260206004820181905260248201527f4552433732313a206d696e7420746f20746865207a65726f206164647265737360448201526064016106c2565b61246681611391565b156124b35760405162461bcd60e51b815260206004820152601c60248201527f4552433732313a20746f6b656e20616c7265616479206d696e7465640000000060448201526064016106c2565b6124bf60008383611cb3565b6001600160a01b03821660009081526003602052604081208054600192906124e8908490612e05565b909155505060008181526002602052604080822080546001600160a01b0319166001600160a01b03861690811790915590518392907fddf252ad1be2c89b69c2b068fc378daa952ba7f163c4a11628f55a4df523b3ef908290a45050565b6000600161255384610d78565b61255d9190612e50565b6000838152600760205260409020549091508082146125b0576001600160a01b03841660009081526006602090815260408083208584528252808320548484528184208190558352600790915290208190555b5060009182526007602090815260408084208490556001600160a01b039094168352600681528383209183525290812055565b6008546000906125f590600190612e50565b6000838152600960205260408120546008805493945090928490811061262b57634e487b7160e01b600052603260045260246000fd5b90600052602060002001549050806008838154811061265a57634e487b7160e01b600052603260045260246000fd5b60009182526020808320909101929092558281526009909152604080822084905585825281205560088054806126a057634e487b7160e01b600052603160045260246000fd5b6001900381819060005260206000200160009055905550505050565b60006126c783610d78565b6001600160a01b039093166000908152600660209081526040808320868452825280832085905593825260079052919091209190915550565b82805461270c90612eaa565b90600052602060002090601f01602090048101928261272e5760008555612774565b82601f1061274757805160ff1916838001178555612774565b82800160010185558215612774579182015b82811115612774578251825591602001919060010190612759565b506127809291506127ba565b5090565b50805461279090612eaa565b6000825580601f106127a0575050565b601f016020900490600052602060002090810190610b5d91905b5b8082111561278057600081556001016127bb565b600067ffffffffffffffff8311156127e9576127e9612f40565b6127fc601f8401601f1916602001612dd4565b905082815283838301111561281057600080fd5b828260208301376000602084830101529392505050565b80356001600160a01b038116811461283e57600080fd5b919050565b600082601f830112612853578081fd5b611f22838335602085016127cf565b600060208284031215612873578081fd5b611f2282612827565b6000806040838503121561288e578081fd5b61289783612827565b91506128a560208401612827565b90509250929050565b6000806000606084860312156128c2578081fd5b6128cb84612827565b92506128d960208501612827565b9150604084013590509250925092565b600080600080608085870312156128fe578081fd5b61290785612827565b935061291560208601612827565b925060408501359150606085013567ffffffffffffffff811115612937578182fd5b8501601f81018713612947578182fd5b612956878235602084016127cf565b91505092959194509250565b60008060408385031215612974578182fd5b61297d83612827565b915060208084013567ffffffffffffffff8082111561299a578384fd5b818601915086601f8301126129ad578384fd5b8135818111156129bf576129bf612f40565b8060051b6129ce858201612dd4565b8281528581019085870183870188018c10156129e8578889fd5b8893505b84841015612a2557803586811115612a0257898afd5b612a108d8a838b0101612843565b845250600193909301929187019187016129ec565b50809750505050505050509250929050565b60008060408385031215612a49578182fd5b612a5283612827565b915060208301358015158114612a66578182fd5b809150509250929050565b60008060408385031215612a83578182fd5b612a8c83612827565b9150602083013567ffffffffffffffff811115612aa7578182fd5b612ab385828601612843565b9150509250929050565b600080600060608486031215612ad1578283fd5b612ada84612827565b9250602084013567ffffffffffffffff811115612af5578283fd5b612b0186828701612843565b925050604084013590509250925092565b60008060408385031215612b24578182fd5b612b2d83612827565b946020939093013593505050565b600060208284031215612b4c578081fd5b5035919050565b60008060408385031215612b65578182fd5b823591506128a560208401612827565b600060208284031215612b86578081fd5b8135611f2281612f56565b600060208284031215612ba2578081fd5b8151611f2281612f56565b60008060408385031215612bbf578182fd5b82359150602083013567ffffffffffffffff811115612aa7578182fd5b60008151808452612bf4816020860160208601612e67565b601f01601f19169290920160200192915050565b60008351612c1a818460208801612e67565b835190830190612c2e818360208801612e67565b01949350505050565b7f416363657373436f6e74726f6c3a206163636f756e7420000000000000000000815260008351612c6f816017850160208801612e67565b7001034b99036b4b9b9b4b733903937b6329607d1b6017918401918201528351612ca0816028840160208801612e67565b01602801949350505050565b6001600160a01b0385811682528416602082015260408101839052608060608201819052600090612cdf90830184612bdc565b9695505050505050565b602081526000611f226020830184612bdc565b60208082526032908201527f4552433732313a207472616e7366657220746f206e6f6e20455243373231526560408201527131b2b4bb32b91034b6b83632b6b2b73a32b960711b606082015260800190565b6020808252818101527f4f776e61626c653a2063616c6c6572206973206e6f7420746865206f776e6572604082015260600190565b60208082526031908201527f4552433732313a207472616e736665722063616c6c6572206973206e6f74206f6040820152701ddb995c881b9bdc88185c1c1c9bdd9959607a1b606082015260800190565b604051601f8201601f1916810167ffffffffffffffff81118282101715612dfd57612dfd612f40565b604052919050565b60008219821115612e1857612e18612f14565b500190565b600082612e2c57612e2c612f2a565b500490565b6000816000190483118215151615612e4b57612e4b612f14565b500290565b600082821015612e6257612e62612f14565b500390565b60005b83811015612e82578181015183820152602001612e6a565b83811115610cfb5750506000910152565b600081612ea257612ea2612f14565b506000190190565b600181811c90821680612ebe57607f821691505b60208210811415612edf57634e487b7160e01b600052602260045260246000fd5b50919050565b6000600019821415612ef957612ef9612f14565b5060010190565b600082612f0f57612f0f612f2a565b500690565b634e487b7160e01b600052601160045260246000fd5b634e487b7160e01b600052601260045260246000fd5b634e487b7160e01b600052604160045260246000fd5b6001600160e01b031981168114610b5d57600080fdfe65d7a28e3265b37a6474929f336521b332c1681b933f6cb9f3376673440d862a9f2df0fed2c77648de5860a4cc508cd0818c85b8b8a1ab4ceeef8d981c8956a6a2646970667358221220f9c23ebfff21b6e04367e0dafebb619336a047b96a11fc6d204ebd358110cf8764736f6c63430008040033",
  "linkReferences": {},
  "deployedLinkReferences": {}
}