{
  "_format": "hh-sol-artifact-1",
  "contractName": "ERC721Token",
  "sourceName": "contracts/ERC721Token.sol",
  "abi": [
    {
      "inputs": [
        {
          "internalType": "string",
          "name": "name",
          "type": "string"
        },
        {
          "internalType": "string",
          "name": "symbol",
          "type": "string"
        }
      ],
      "stateMutability": "nonpayable",
      "type": "constructor"
    },
    {
      "anonymous": false,
      "inputs": [
        {
          "indexed": true,
          "internalType": "address",
          "name": "owner",
          "type": "address"
        },
        {
          "indexed": true,
          "internalType": "address",
          "name": "approved",
          "type": "address"
        },
        {
          "indexed": true,
          "internalType": "uint256",
          "name": "tokenId",
          "type": "uint256"
        }
      ],
      "name": "Approval",
      "type": "event"
    },
    {
      "anonymous": false,
      "inputs": [
        {
          "indexed": true,
          "internalType": "address",
          "name": "owner",
          "type": "address"
        },
        {
          "indexed": true,
          "internalType": "address",
          "name": "operator",
          "type": "address"
        },
        {
          "indexed": false,
          "internalType": "bool",
          "name": "approved",
          "type": "bool"
        }
      ],
      "name": "ApprovalForAll",
      "type": "event"
    },
    {
      "anonymous": false,
      "inputs": [
        {
          "indexed": false,
          "internalType": "address",
          "name": "",
          "type": "address"
        },
        {
          "indexed": false,
          "internalType": "string",
          "name": "",
          "type": "string"
        }
      ],
      "name": "Grant",
      "type": "event"
    },
    {
      "anonymous": false,
      "inputs": [
        {
          "indexed": true,
          "internalType": "address",
          "name": "previousOwner",
          "type": "address"
        },
        {
          "indexed": true,
          "internalType": "address",
          "name": "newOwner",
          "type": "address"
        }
      ],
      "name": "OwnershipTransferred",
      "type": "event"
    },
    {
      "anonymous": false,
      "inputs": [
        {
          "indexed": false,
          "internalType": "address",
          "name": "account",
          "type": "address"
        }
      ],
      "name": "Paused",
      "type": "event"
    },
    {
      "anonymous": false,
      "inputs": [
        {
          "indexed": true,
          "internalType": "bytes32",
          "name": "role",
          "type": "bytes32"
        },
        {
          "indexed": true,
          "internalType": "bytes32",
          "name": "previousAdminRole",
          "type": "bytes32"
        },
        {
          "indexed": true,
          "internalType": "bytes32",
          "name": "newAdminRole",
          "type": "bytes32"
        }
      ],
      "name": "RoleAdminChanged",
      "type": "event"
    },
    {
      "anonymous": false,
      "inputs": [
        {
          "indexed": true,
          "internalType": "bytes32",
          "name": "role",
          "type": "bytes32"
        },
        {
          "indexed": true,
          "internalType": "address",
          "name": "account",
          "type": "address"
        },
        {
          "indexed": true,
          "internalType": "address",
          "name": "sender",
          "type": "address"
        }
      ],
      "name": "RoleGranted",
      "type": "event"
    },
    {
      "anonymous": false,
      "inputs": [
        {
          "indexed": true,
          "internalType": "bytes32",
          "name": "role",
          "type": "bytes32"
        },
        {
          "indexed": true,
          "internalType": "address",
          "name": "account",
          "type": "address"
        },
        {
          "indexed": true,
          "internalType": "address",
          "name": "sender",
          "type": "address"
        }
      ],
      "name": "RoleRevoked",
      "type": "event"
    },
    {
      "anonymous": false,
      "inputs": [
        {
          "indexed": false,
          "internalType": "uint256",
          "name": "",
          "type": "uint256"
        }
      ],
      "name": "SetHardCap",
      "type": "event"
    },
    {
      "anonymous": false,
      "inputs": [
        {
          "indexed": false,
          "internalType": "address",
          "name": "",
          "type": "address"
        }
      ],
      "name": "SetMysteryBox",
      "type": "event"
    },
    {
      "anonymous": false,
      "inputs": [
        {
          "indexed": true,
          "internalType": "address",
          "name": "from",
          "type": "address"
        },
        {
          "indexed": true,
          "internalType": "address",
          "name": "to",
          "type": "address"
        },
        {
          "indexed": true,
          "internalType": "uint256",
          "name": "tokenId",
          "type": "uint256"
        }
      ],
      "name": "Transfer",
      "type": "event"
    },
    {
      "anonymous": false,
      "inputs": [
        {
          "indexed": false,
          "internalType": "address",
          "name": "account",
          "type": "address"
        }
      ],
      "name": "Unpaused",
      "type": "event"
    },
    {
      "inputs": [],
      "name": "DEFAULT_ADMIN_ROLE",
      "outputs": [
        {
          "internalType": "bytes32",
          "name": "",
          "type": "bytes32"
        }
      ],
      "stateMutability": "view",
      "type": "function"
    },
    {
      "inputs": [],
      "name": "MINTER_ROLE",
      "outputs": [
        {
          "internalType": "bytes32",
          "name": "",
          "type": "bytes32"
        }
      ],
      "stateMutability": "view",
      "type": "function"
    },
    {
      "inputs": [],
      "name": "PAUSER_ROLE",
      "outputs": [
        {
          "internalType": "bytes32",
          "name": "",
          "type": "bytes32"
        }
      ],
      "stateMutability": "view",
      "type": "function"
    },
    {
      "inputs": [
        {
          "internalType": "address",
          "name": "minter",
          "type": "address"
        }
      ],
      "name": "addMinter",
      "outputs": [],
      "stateMutability": "nonpayable",
      "type": "function"
    },
    {
      "inputs": [
        {
          "internalType": "address",
          "name": "pauser",
          "type": "address"
        }
      ],
      "name": "addPauser",
      "outputs": [],
      "stateMutability": "nonpayable",
      "type": "function"
    },
    {
      "inputs": [
        {
          "internalType": "address",
          "name": "to",
          "type": "address"
        },
        {
          "internalType": "uint256",
          "name": "tokenId",
          "type": "uint256"
        }
      ],
      "name": "approve",
      "outputs": [],
      "stateMutability": "nonpayable",
      "type": "function"
    },
    {
      "inputs": [
        {
          "internalType": "address",
          "name": "owner",
          "type": "address"
        }
      ],
      "name": "balanceOf",
      "outputs": [
        {
          "internalType": "uint256",
          "name": "",
          "type": "uint256"
        }
      ],
      "stateMutability": "view",
      "type": "function"
    },
    {
      "inputs": [
        {
          "internalType": "uint256",
          "name": "tokenId",
          "type": "uint256"
        }
      ],
      "name": "burn",
      "outputs": [],
      "stateMutability": "nonpayable",
      "type": "function"
    },
    {
      "inputs": [
        {
          "internalType": "uint256",
          "name": "tokenId",
          "type": "uint256"
        }
      ],
      "name": "getApproved",
      "outputs": [
        {
          "internalType": "address",
          "name": "",
          "type": "address"
        }
      ],
      "stateMutability": "view",
      "type": "function"
    },
    {
      "inputs": [
        {
          "internalType": "bytes32",
          "name": "role",
          "type": "bytes32"
        }
      ],
      "name": "getRoleAdmin",
      "outputs": [
        {
          "internalType": "bytes32",
          "name": "",
          "type": "bytes32"
        }
      ],
      "stateMutability": "view",
      "type": "function"
    },
    {
      "inputs": [],
      "name": "globalURI",
      "outputs": [
        {
          "internalType": "string",
          "name": "",
          "type": "string"
        }
      ],
      "stateMutability": "view",
      "type": "function"
    },
    {
      "inputs": [
        {
          "internalType": "bytes32",
          "name": "role",
          "type": "bytes32"
        },
        {
          "internalType": "address",
          "name": "account",
          "type": "address"
        }
      ],
      "name": "grantRole",
      "outputs": [],
      "stateMutability": "nonpayable",
      "type": "function"
    },
    {
      "inputs": [],
      "name": "hardCap",
      "outputs": [
        {
          "internalType": "uint256",
          "name": "",
          "type": "uint256"
        }
      ],
      "stateMutability": "view",
      "type": "function"
    },
    {
      "inputs": [
        {
          "internalType": "bytes32",
          "name": "role",
          "type": "bytes32"
        },
        {
          "internalType": "address",
          "name": "account",
          "type": "address"
        }
      ],
      "name": "hasRole",
      "outputs": [
        {
          "internalType": "bool",
          "name": "",
          "type": "bool"
        }
      ],
      "stateMutability": "view",
      "type": "function"
    },
    {
      "inputs": [
        {
          "internalType": "address",
          "name": "owner",
          "type": "address"
        },
        {
          "internalType": "address",
          "name": "operator",
          "type": "address"
        }
      ],
      "name": "isApprovedForAll",
      "outputs": [
        {
          "internalType": "bool",
          "name": "",
          "type": "bool"
        }
      ],
      "stateMutability": "view",
      "type": "function"
    },
    {
      "inputs": [],
      "name": "mysteryBox",
      "outputs": [
        {
          "internalType": "address",
          "name": "",
          "type": "address"
        }
      ],
      "stateMutability": "view",
      "type": "function"
    },
    {
      "inputs": [],
      "name": "name",
      "outputs": [
        {
          "internalType": "string",
          "name": "",
          "type": "string"
        }
      ],
      "stateMutability": "view",
      "type": "function"
    },
    {
      "inputs": [],
      "name": "owner",
      "outputs": [
        {
          "internalType": "address",
          "name": "",
          "type": "address"
        }
      ],
      "stateMutability": "view",
      "type": "function"
    },
    {
      "inputs": [
        {
          "internalType": "uint256",
          "name": "tokenId",
          "type": "uint256"
        }
      ],
      "name": "ownerOf",
      "outputs": [
        {
          "internalType": "address",
          "name": "",
          "type": "address"
        }
      ],
      "stateMutability": "view",
      "type": "function"
    },
    {
      "inputs": [],
      "name": "pause",
      "outputs": [],
      "stateMutability": "nonpayable",
      "type": "function"
    },
    {
      "inputs": [],
      "name": "paused",
      "outputs": [
        {
          "internalType": "bool",
          "name": "",
          "type": "bool"
        }
      ],
      "stateMutability": "view",
      "type": "function"
    },
    {
      "inputs": [],
      "name": "renounceOwnership",
      "outputs": [],
      "stateMutability": "nonpayable",
      "type": "function"
    },
    {
      "inputs": [
        {
          "internalType": "bytes32",
          "name": "role",
          "type": "bytes32"
        },
        {
          "internalType": "address",
          "name": "account",
          "type": "address"
        }
      ],
      "name": "renounceRole",
      "outputs": [],
      "stateMutability": "nonpayable",
      "type": "function"
    },
    {
      "inputs": [
        {
          "internalType": "bytes32",
          "name": "role",
          "type": "bytes32"
        },
        {
          "internalType": "address",
          "name": "account",
          "type": "address"
        }
      ],
      "name": "revokeRole",
      "outputs": [],
      "stateMutability": "nonpayable",
      "type": "function"
    },
    {
      "inputs": [
        {
          "internalType": "address",
          "name": "to",
          "type": "address"
        },
        {
          "internalType": "string[]",
          "name": "uris",
          "type": "string[]"
        }
      ],
      "name": "safeBatchMint",
      "outputs": [],
      "stateMutability": "nonpayable",
      "type": "function"
    },
    {
      "inputs": [
        {
          "internalType": "address",
          "name": "to",
          "type": "address"
        },
        {
          "internalType": "string",
          "name": "uri",
          "type": "string"
        },
        {
          "internalType": "uint256",
          "name": "amount",
          "type": "uint256"
        }
      ],
      "name": "safeBatchMintLight",
      "outputs": [],
      "stateMutability": "nonpayable",
      "type": "function"
    },
    {
      "inputs": [
        {
          "internalType": "address",
          "name": "to",
          "type": "address"
        },
        {
          "internalType": "string",
          "name": "uri",
          "type": "string"
        }
      ],
      "name": "safeMint",
      "outputs": [
        {
          "internalType": "uint256",
          "name": "",
          "type": "uint256"
        }
      ],
      "stateMutability": "nonpayable",
      "type": "function"
    },
    {
      "inputs": [
        {
          "internalType": "address",
          "name": "to",
          "type": "address"
        }
      ],
      "name": "safeMintTo",
      "outputs": [],
      "stateMutability": "nonpayable",
      "type": "function"
    },
    {
      "inputs": [
        {
          "internalType": "address",
          "name": "from",
          "type": "address"
        },
        {
          "internalType": "address",
          "name": "to",
          "type": "address"
        },
        {
          "internalType": "uint256",
          "name": "tokenId",
          "type": "uint256"
        }
      ],
      "name": "safeTransferFrom",
      "outputs": [],
      "stateMutability": "nonpayable",
      "type": "function"
    },
    {
      "inputs": [
        {
          "internalType": "address",
          "name": "from",
          "type": "address"
        },
        {
          "internalType": "address",
          "name": "to",
          "type": "address"
        },
        {
          "internalType": "uint256",
          "name": "tokenId",
          "type": "uint256"
        },
        {
          "internalType": "bytes",
          "name": "_data",
          "type": "bytes"
        }
      ],
      "name": "safeTransferFrom",
      "outputs": [],
      "stateMutability": "nonpayable",
      "type": "function"
    },
    {
      "inputs": [
        {
          "internalType": "address",
          "name": "operator",
          "type": "address"
        },
        {
          "internalType": "bool",
          "name": "approved",
          "type": "bool"
        }
      ],
      "name": "setApprovalForAll",
      "outputs": [],
      "stateMutability": "nonpayable",
      "type": "function"
    },
    {
      "inputs": [
        {
          "internalType": "uint256",
          "name": "_hardCap",
          "type": "uint256"
        },
        {
          "internalType": "string",
          "name": "_uri",
          "type": "string"
        }
      ],
      "name": "setHardCap",
      "outputs": [],
      "stateMutability": "nonpayable",
      "type": "function"
    },
    {
      "inputs": [
        {
          "internalType": "address",
          "name": "_mbox",
          "type": "address"
        }
      ],
      "name": "setMysteryBox",
      "outputs": [],
      "stateMutability": "nonpayable",
      "type": "function"
    },
    {
      "inputs": [
        {
          "internalType": "bytes4",
          "name": "interfaceId",
          "type": "bytes4"
        }
      ],
      "name": "supportsInterface",
      "outputs": [
        {
          "internalType": "bool",
          "name": "",
          "type": "bool"
        }
      ],
      "stateMutability": "view",
      "type": "function"
    },
    {
      "inputs": [],
      "name": "symbol",
      "outputs": [
        {
          "internalType": "string",
          "name": "",
          "type": "string"
        }
      ],
      "stateMutability": "view",
      "type": "function"
    },
    {
      "inputs": [
        {
          "internalType": "uint256",
          "name": "index",
          "type": "uint256"
        }
      ],
      "name": "tokenByIndex",
      "outputs": [
        {
          "internalType": "uint256",
          "name": "",
          "type": "uint256"
        }
      ],
      "stateMutability": "view",
      "type": "function"
    },
    {
      "inputs": [
        {
          "internalType": "address",
          "name": "owner",
          "type": "address"
        },
        {
          "internalType": "uint256",
          "name": "index",
          "type": "uint256"
        }
      ],
      "name": "tokenOfOwnerByIndex",
      "outputs": [
        {
          "internalType": "uint256",
          "name": "",
          "type": "uint256"
        }
      ],
      "stateMutability": "view",
      "type": "function"
    },
    {
      "inputs": [
        {
          "internalType": "uint256",
          "name": "tokenId",
          "type": "uint256"
        }
      ],
      "name": "tokenURI",
      "outputs": [
        {
          "internalType": "string",
          "name": "",
          "type": "string"
        }
      ],
      "stateMutability": "view",
      "type": "function"
    },
    {
      "inputs": [],
      "name": "totalSupply",
      "outputs": [
        {
          "internalType": "uint256",
          "name": "",
          "type": "uint256"
        }
      ],
      "stateMutability": "view",
      "type": "function"
    },
    {
      "inputs": [
        {
          "internalType": "address",
          "name": "from",
          "type": "address"
        },
        {
          "internalType": "address",
          "name": "to",
          "type": "address"
        },
        {
          "internalType": "uint256",
          "name": "tokenId",
          "type": "uint256"
        }
      ],
      "name": "transferFrom",
      "outputs": [],
      "stateMutability": "nonpayable",
      "type": "function"
    },
    {
      "inputs": [
        {
          "internalType": "address",
          "name": "newOwner",
          "type": "address"
        }
      ],
      "name": "transferOwnership",
      "outputs": [],
      "stateMutability": "nonpayable",
      "type": "function"
    },
    {
      "inputs": [],
      "name": "unpause",
      "outputs": [],
      "stateMutability": "nonpayable",
      "type": "function"
    }
  ],
  "bytecode": "0x60806040526000600d553480156200001657600080fd5b50604051620033e8380380620033e8833981016040819052620000399162000345565b81518290829062000052906000906020850190620001ec565b50805162000068906001906020840190620001ec565b5050600b805460ff19169055506200008033620000ed565b6200008d60003362000147565b620000b97f65d7a28e3265b37a6474929f336521b332c1681b933f6cb9f3376673440d862a3362000147565b620000e57f9f2df0fed2c77648de5860a4cc508cd0818c85b8b8a1ab4ceeef8d981c8956a63362000147565b5050620003ff565b600b80546001600160a01b03838116610100818102610100600160a81b031985161790945560405193909204169182907f8be0079c531659141344cd1fd0a4f28419497f9722a3daafe3b4186f6b6457e090600090a35050565b6000828152600c602090815260408083206001600160a01b038516845290915290205460ff16620001e8576000828152600c602090815260408083206001600160a01b03851684529091529020805460ff19166001179055620001a73390565b6001600160a01b0316816001600160a01b0316837f2f8788117e7eff1d82e926ec794901d17c78024a50270940304540a733656f0d60405160405180910390a45b5050565b828054620001fa90620003ac565b90600052602060002090601f0160209004810192826200021e576000855562000269565b82601f106200023957805160ff191683800117855562000269565b8280016001018555821562000269579182015b82811115620002695782518255916020019190600101906200024c565b50620002779291506200027b565b5090565b5b808211156200027757600081556001016200027c565b600082601f830112620002a3578081fd5b81516001600160401b0380821115620002c057620002c0620003e9565b604051601f8301601f19908116603f01168101908282118183101715620002eb57620002eb620003e9565b8160405283815260209250868385880101111562000307578485fd5b8491505b838210156200032a57858201830151818301840152908201906200030b565b838211156200033b57848385830101525b9695505050505050565b6000806040838503121562000358578182fd5b82516001600160401b03808211156200036f578384fd5b6200037d8683870162000292565b9350602085015191508082111562000393578283fd5b50620003a28582860162000292565b9150509250929050565b600181811c90821680620003c157607f821691505b60208210811415620003e357634e487b7160e01b600052602260045260246000fd5b50919050565b634e487b7160e01b600052604160045260246000fd5b612fd9806200040f6000396000f3fe608060405234801561001057600080fd5b506004361061025e5760003560e01c80637b43b82711610146578063b88d4fde116100c3578063d539139311610087578063d539139314610508578063d547741f1461051d578063e63ab1e914610530578063e985e9c514610545578063f2fde38b14610581578063fb86a4041461059457600080fd5b8063b88d4fde146104b4578063c38b761c146104c7578063c87b56dd146104da578063d204c45e146104ed578063d3d3224a1461050057600080fd5b806395d89b411161010a57806395d89b411461046b578063983b2d5614610473578063a217fddf14610486578063a22cb4651461048e578063b5a87cc1146104a157600080fd5b80637b43b8271461041457806382dc1ec4146104275780638456cb591461043a5780638da5cb5b1461044257806391d148541461045857600080fd5b80632f745c59116101df5780634f6ccce7116101a35780634f6ccce7146103b557806358dd6d95146103c85780635c975abb146103db5780636352211e146103e657806370a08231146103f9578063715018a61461040c57600080fd5b80632f745c591461036157806336568abe146103745780633f4ba83a1461038757806342842e0e1461038f57806342966c68146103a257600080fd5b806321bae9e41161022657806321bae9e4146102f257806323b872dd146103055780632449065914610318578063248a9ca31461032b5780632f2ff15d1461034e57600080fd5b806301ffc9a71461026357806306fdde031461028b578063081812fc146102a0578063095ea7b3146102cb57806318160ddd146102e0575b600080fd5b610276610271366004612b6c565b61059d565b60405190151581526020015b60405180910390f35b6102936105c8565b6040516102829190612ce0565b6102b36102ae366004612b32565b61065a565b6040516001600160a01b039091168152602001610282565b6102de6102d9366004612b09565b6106e7565b005b6008545b604051908152602001610282565b6102de610300366004612859565b6107fd565b6102de6103133660046128a5565b61094a565b6102de610326366004612ba4565b61097c565b6102e4610339366004612b32565b6000908152600c602052604090206001015490565b6102de61035c366004612b4a565b610a04565b6102e461036f366004612b09565b610a29565b6102de610382366004612b4a565b610abf565b6102de610b3d565b6102de61039d3660046128a5565b610b60565b6102de6103b0366004612b32565b610b7b565b6102e46103c3366004612b32565b610bf2565b6102de6103d6366004612959565b610c93565b600b5460ff16610276565b6102b36103f4366004612b32565b610d01565b6102e4610407366004612859565b610d78565b6102de610dff565b6102de610422366004612859565b610e3b565b6102de610435366004612859565b610ee2565b6102de610f88565b600b5461010090046001600160a01b03166102b3565b610276610466366004612b4a565b610fa8565b610293610fd3565b6102de610481366004612859565b610fe2565b6102e4600081565b6102de61049c366004612a2e565b611088565b6102de6104af366004612ab4565b611093565b6102de6104c23660046128e0565b611125565b600f546102b3906001600160a01b031681565b6102936104e8366004612b32565b611157565b6102e46104fb366004612a68565b611162565b610293611212565b6102e4600080516020612f8483398151915281565b6102de61052b366004612b4a565b6112a0565b6102e4600080516020612f6483398151915281565b610276610553366004612873565b6001600160a01b03918216600090815260056020908152604080832093909416825291909152205460ff1690565b6102de61058f366004612859565b6112c5565b6102e4600d5481565b60006001600160e01b031982166380ac58cd60e01b14806105c257506105c282611363565b92915050565b6060600080546105d790612ea1565b80601f016020809104026020016040519081016040528092919081815260200182805461060390612ea1565b80156106505780601f1061062557610100808354040283529160200191610650565b820191906000526020600020905b81548152906001019060200180831161063357829003601f168201915b5050505050905090565b600061066582611388565b6106cb5760405162461bcd60e51b815260206004820152602c60248201527f4552433732313a20617070726f76656420717565727920666f72206e6f6e657860448201526b34b9ba32b73a103a37b5b2b760a11b60648201526084015b60405180910390fd5b506000908152600460205260409020546001600160a01b031690565b60006106f282610d01565b9050806001600160a01b0316836001600160a01b031614156107605760405162461bcd60e51b815260206004820152602160248201527f4552433732313a20617070726f76616c20746f2063757272656e74206f776e656044820152603960f91b60648201526084016106c2565b336001600160a01b038216148061077c575061077c8133610553565b6107ee5760405162461bcd60e51b815260206004820152603860248201527f4552433732313a20617070726f76652063616c6c6572206973206e6f74206f7760448201527f6e6572206e6f7220617070726f76656420666f7220616c6c000000000000000060648201526084016106c2565b6107f883836113a5565b505050565b600080516020612f8483398151915261081581611413565b6000600e805461082490612ea1565b90501161086b5760405162461bcd60e51b815260206004820152601560248201527411db1bd8985b08155492481a5cc81b9bdd081cd95d605a1b60448201526064016106c2565b6001600160a01b0382166108b65760405162461bcd60e51b8152602060048201526012602482015271496e76616c696420746f206164647265737360701b60448201526064016106c2565b6107f882600e80546108c790612ea1565b80601f01602080910402602001604051908101604052809291908181526020018280546108f390612ea1565b80156109405780601f1061091557610100808354040283529160200191610940565b820191906000526020600020905b81548152906001019060200180831161092357829003601f168201915b5050505050611162565b610955335b8261141d565b6109715760405162461bcd60e51b81526004016106c290612d7a565b6107f8838383611506565b600b546001600160a01b036101009091041633146109ac5760405162461bcd60e51b81526004016106c290612d45565b600d82905580516109c490600e9060208401906126f7565b507f57bbf0b7295e3c8587fe0fa3c76592771f6a96123bf723292fd0e3933436b71f600d546040516109f891815260200190565b60405180910390a15050565b6000828152600c6020526040902060010154610a1f81611413565b6107f883836116ad565b6000610a3483610d78565b8210610a965760405162461bcd60e51b815260206004820152602b60248201527f455243373231456e756d657261626c653a206f776e657220696e646578206f7560448201526a74206f6620626f756e647360a81b60648201526084016106c2565b506001600160a01b03919091166000908152600660209081526040808320938352929052205490565b6001600160a01b0381163314610b2f5760405162461bcd60e51b815260206004820152602f60248201527f416363657373436f6e74726f6c3a2063616e206f6e6c792072656e6f756e636560448201526e103937b632b9903337b91039b2b63360891b60648201526084016106c2565b610b398282611733565b5050565b600080516020612f64833981519152610b5581611413565b610b5d61179a565b50565b6107f883838360405180602001604052806000815250611125565b610b843361094f565b610be95760405162461bcd60e51b815260206004820152603060248201527f4552433732314275726e61626c653a2063616c6c6572206973206e6f74206f7760448201526f1b995c881b9bdc88185c1c1c9bdd995960821b60648201526084016106c2565b610b5d8161182d565b6000610bfd60085490565b8210610c605760405162461bcd60e51b815260206004820152602c60248201527f455243373231456e756d657261626c653a20676c6f62616c20696e646578206f60448201526b7574206f6620626f756e647360a01b60648201526084016106c2565b60088281548110610c8157634e487b7160e01b600052603260045260246000fd5b90600052602060002001549050919050565b600080516020612f84833981519152610cab81611413565b60005b8251811015610cfb57610ce884848381518110610cdb57634e487b7160e01b600052603260045260246000fd5b6020026020010151611162565b5080610cf381612edc565b915050610cae565b50505050565b6000818152600260205260408120546001600160a01b0316806105c25760405162461bcd60e51b815260206004820152602960248201527f4552433732313a206f776e657220717565727920666f72206e6f6e657869737460448201526832b73a103a37b5b2b760b91b60648201526084016106c2565b60006001600160a01b038216610de35760405162461bcd60e51b815260206004820152602a60248201527f4552433732313a2062616c616e636520717565727920666f7220746865207a65604482015269726f206164647265737360b01b60648201526084016106c2565b506001600160a01b031660009081526003602052604090205490565b600b546001600160a01b03610100909104163314610e2f5760405162461bcd60e51b81526004016106c290612d45565b610e396000611836565b565b600b546001600160a01b03610100909104163314610e6b5760405162461bcd60e51b81526004016106c290612d45565b600f80546001600160a01b0319166001600160a01b038316179055610e9e600080516020612f84833981519152826116ad565b600f546040516001600160a01b0390911681527f329b1203fc60a62c4a0fd3ff1554a07f92a2f117cc590422dd105811bb484ded906020015b60405180910390a150565b600b546001600160a01b03610100909104163314610f125760405162461bcd60e51b81526004016106c290612d45565b610f2a600080516020612f64833981519152826116ad565b604080516001600160a01b038316815260208101829052600b918101919091526a5041555345525f524f4c4560a81b60608201527f0578acc86b18d67c13a5e6eed8c670fb7052f530b48a2acb167d6ca77509a38490608001610ed7565b600080516020612f64833981519152610fa081611413565b610b5d611890565b6000918252600c602090815260408084206001600160a01b0393909316845291905290205460ff1690565b6060600180546105d790612ea1565b600b546001600160a01b036101009091041633146110125760405162461bcd60e51b81526004016106c290612d45565b61102a600080516020612f84833981519152826116ad565b604080516001600160a01b038316815260208101829052600b918101919091526a4d494e5445525f524f4c4560a81b60608201527f0578acc86b18d67c13a5e6eed8c670fb7052f530b48a2acb167d6ca77509a38490608001610ed7565b610b3933838361190b565b600080516020612f848339815191526110ab81611413565b6001600160a01b0384166110f65760405162461bcd60e51b8152602060048201526012602482015271496e76616c696420746f206164647265737360701b60448201526064016106c2565b60005b8281101561111e5761110b8585611162565b508061111681612edc565b9150506110f9565b5050505050565b61112f338361141d565b61114b5760405162461bcd60e51b81526004016106c290612d7a565b610cfb848484846119da565b60606105c282611a0d565b6000600080516020612f8483398151915261117c81611413565b600061118760105490565b9050600d5481106111e85760405162461bcd60e51b815260206004820152602560248201527f63616e206e6f74206d696e74206f766572207468616e206861726420636170206044820152641b1a5b5a5d60da1b60648201526084016106c2565b6111f6601080546001019055565b6112008582611b7c565b61120a8185611b96565b949350505050565b600e805461121f90612ea1565b80601f016020809104026020016040519081016040528092919081815260200182805461124b90612ea1565b80156112985780601f1061126d57610100808354040283529160200191611298565b820191906000526020600020905b81548152906001019060200180831161127b57829003601f168201915b505050505081565b6000828152600c60205260409020600101546112bb81611413565b6107f88383611733565b600b546001600160a01b036101009091041633146112f55760405162461bcd60e51b81526004016106c290612d45565b6001600160a01b03811661135a5760405162461bcd60e51b815260206004820152602660248201527f4f776e61626c653a206e6577206f776e657220697320746865207a65726f206160448201526564647265737360d01b60648201526084016106c2565b610b5d81611836565b60006001600160e01b03198216637965db0b60e01b14806105c257506105c282611c21565b6000908152600260205260409020546001600160a01b0316151590565b600081815260046020526040902080546001600160a01b0319166001600160a01b03841690811790915581906113da82610d01565b6001600160a01b03167f8c5be1e5ebec7d5bd14f71427d1e84f3dd0314c0f7b2291e5b200ac8c7c3b92560405160405180910390a45050565b610b5d8133611c46565b600061142882611388565b6114895760405162461bcd60e51b815260206004820152602c60248201527f4552433732313a206f70657261746f7220717565727920666f72206e6f6e657860448201526b34b9ba32b73a103a37b5b2b760a11b60648201526084016106c2565b600061149483610d01565b9050806001600160a01b0316846001600160a01b031614806114db57506001600160a01b0380821660009081526005602090815260408083209388168352929052205460ff165b8061120a5750836001600160a01b03166114f48461065a565b6001600160a01b031614949350505050565b826001600160a01b031661151982610d01565b6001600160a01b03161461157d5760405162461bcd60e51b815260206004820152602560248201527f4552433732313a207472616e736665722066726f6d20696e636f72726563742060448201526437bbb732b960d91b60648201526084016106c2565b6001600160a01b0382166115df5760405162461bcd60e51b8152602060048201526024808201527f4552433732313a207472616e7366657220746f20746865207a65726f206164646044820152637265737360e01b60648201526084016106c2565b6115ea838383611caa565b6115f56000826113a5565b6001600160a01b038316600090815260036020526040812080546001929061161e908490612e47565b90915550506001600160a01b038216600090815260036020526040812080546001929061164c908490612dfc565b909155505060008181526002602052604080822080546001600160a01b0319166001600160a01b0386811691821790925591518493918716917fddf252ad1be2c89b69c2b068fc378daa952ba7f163c4a11628f55a4df523b3ef91a4505050565b6116b78282610fa8565b610b39576000828152600c602090815260408083206001600160a01b03851684529091529020805460ff191660011790556116ef3390565b6001600160a01b0316816001600160a01b0316837f2f8788117e7eff1d82e926ec794901d17c78024a50270940304540a733656f0d60405160405180910390a45050565b61173d8282610fa8565b15610b39576000828152600c602090815260408083206001600160a01b0385168085529252808320805460ff1916905551339285917ff6391f5c32d9c69d2a47ea670b442974b53935d1edc7fd64eb21e047a839171b9190a45050565b600b5460ff166117e35760405162461bcd60e51b815260206004820152601460248201527314185d5cd8589b194e881b9bdd081c185d5cd95960621b60448201526064016106c2565b600b805460ff191690557f5db9ee0a495bf2e6ff9c91a7834c1ba4fdd244a5e8aa4e537bd38aeae4b073aa335b6040516001600160a01b03909116815260200160405180910390a1565b610b5d81611cfb565b600b80546001600160a01b03838116610100818102610100600160a81b031985161790945560405193909204169182907f8be0079c531659141344cd1fd0a4f28419497f9722a3daafe3b4186f6b6457e090600090a35050565b600b5460ff16156118d65760405162461bcd60e51b815260206004820152601060248201526f14185d5cd8589b194e881c185d5cd95960821b60448201526064016106c2565b600b805460ff191660011790557f62e78cea01bee320cd4e420270b5ea74000d11b0c9f74754ebdbfc544b05a2586118103390565b816001600160a01b0316836001600160a01b0316141561196d5760405162461bcd60e51b815260206004820152601960248201527f4552433732313a20617070726f766520746f2063616c6c65720000000000000060448201526064016106c2565b6001600160a01b03838116600081815260056020908152604080832094871680845294825291829020805460ff191686151590811790915591519182527f17307eab39ab6107e8899845ad3d59bd9653f200f220920489ca2b5937696c31910160405180910390a3505050565b6119e5848484611506565b6119f184848484611d3b565b610cfb5760405162461bcd60e51b81526004016106c290612cf3565b6060611a1882611388565b611a7e5760405162461bcd60e51b815260206004820152603160248201527f45524337323155524953746f726167653a2055524920717565727920666f72206044820152703737b732bc34b9ba32b73a103a37b5b2b760791b60648201526084016106c2565b6000828152600a602052604081208054611a9790612ea1565b80601f0160208091040260200160405190810160405280929190818152602001828054611ac390612ea1565b8015611b105780601f10611ae557610100808354040283529160200191611b10565b820191906000526020600020905b815481529060010190602001808311611af357829003601f168201915b505050505090506000611b2e60408051602081019091526000815290565b9050805160001415611b41575092915050565b815115611b73578082604051602001611b5b929190612bff565b60405160208183030381529060405292505050919050565b61120a84611e48565b610b39828260405180602001604052806000815250611f20565b611b9f82611388565b611c025760405162461bcd60e51b815260206004820152602e60248201527f45524337323155524953746f726167653a2055524920736574206f66206e6f6e60448201526d32bc34b9ba32b73a103a37b5b2b760911b60648201526084016106c2565b6000828152600a6020908152604090912082516107f8928401906126f7565b60006001600160e01b0319821663780e9d6360e01b14806105c257506105c282611f53565b611c508282610fa8565b610b3957611c68816001600160a01b03166014611fa3565b611c73836020611fa3565b604051602001611c84929190612c2e565b60408051601f198184030181529082905262461bcd60e51b82526106c291600401612ce0565b600b5460ff1615611cf05760405162461bcd60e51b815260206004820152601060248201526f14185d5cd8589b194e881c185d5cd95960821b60448201526064016106c2565b6107f8838383612185565b611d048161223d565b6000818152600a602052604090208054611d1d90612ea1565b159050610b5d576000818152600a60205260408120610b5d9161277b565b60006001600160a01b0384163b15611e3d57604051630a85bd0160e11b81526001600160a01b0385169063150b7a0290611d7f903390899088908890600401612ca3565b602060405180830381600087803b158015611d9957600080fd5b505af1925050508015611dc9575060408051601f3d908101601f19168201909252611dc691810190612b88565b60015b611e23573d808015611df7576040519150601f19603f3d011682016040523d82523d6000602084013e611dfc565b606091505b508051611e1b5760405162461bcd60e51b81526004016106c290612cf3565b805181602001fd5b6001600160e01b031916630a85bd0160e11b14905061120a565b506001949350505050565b6060611e5382611388565b611eb75760405162461bcd60e51b815260206004820152602f60248201527f4552433732314d657461646174613a2055524920717565727920666f72206e6f60448201526e3732bc34b9ba32b73a103a37b5b2b760891b60648201526084016106c2565b6000611ece60408051602081019091526000815290565b90506000815111611eee5760405180602001604052806000815250611f19565b80611ef8846122e4565b604051602001611f09929190612bff565b6040516020818303038152906040525b9392505050565b611f2a83836123fe565b611f376000848484611d3b565b6107f85760405162461bcd60e51b81526004016106c290612cf3565b60006001600160e01b031982166380ac58cd60e01b1480611f8457506001600160e01b03198216635b5e139f60e01b145b806105c257506301ffc9a760e01b6001600160e01b03198316146105c2565b60606000611fb2836002612e28565b611fbd906002612dfc565b67ffffffffffffffff811115611fe357634e487b7160e01b600052604160045260246000fd5b6040519080825280601f01601f19166020018201604052801561200d576020820181803683370190505b509050600360fc1b8160008151811061203657634e487b7160e01b600052603260045260246000fd5b60200101906001600160f81b031916908160001a905350600f60fb1b8160018151811061207357634e487b7160e01b600052603260045260246000fd5b60200101906001600160f81b031916908160001a9053506000612097846002612e28565b6120a2906001612dfc565b90505b6001811115612136576f181899199a1a9b1b9c1cb0b131b232b360811b85600f16601081106120e457634e487b7160e01b600052603260045260246000fd5b1a60f81b82828151811061210857634e487b7160e01b600052603260045260246000fd5b60200101906001600160f81b031916908160001a90535060049490941c9361212f81612e8a565b90506120a5565b508315611f195760405162461bcd60e51b815260206004820181905260248201527f537472696e67733a20686578206c656e67746820696e73756666696369656e7460448201526064016106c2565b6001600160a01b0383166121e0576121db81600880546000838152600960205260408120829055600182018355919091527ff3f7a9fe364faab93b216da50a3214154f22a0a2b415b23a84c8169e8b636ee30155565b612203565b816001600160a01b0316836001600160a01b03161461220357612203838261253d565b6001600160a01b03821661221a576107f8816125da565b826001600160a01b0316826001600160a01b0316146107f8576107f882826126b3565b600061224882610d01565b905061225681600084611caa565b6122616000836113a5565b6001600160a01b038116600090815260036020526040812080546001929061228a908490612e47565b909155505060008281526002602052604080822080546001600160a01b0319169055518391906001600160a01b038416907fddf252ad1be2c89b69c2b068fc378daa952ba7f163c4a11628f55a4df523b3ef908390a45050565b6060816123085750506040805180820190915260018152600360fc1b602082015290565b8160005b8115612332578061231c81612edc565b915061232b9050600a83612e14565b915061230c565b60008167ffffffffffffffff81111561235b57634e487b7160e01b600052604160045260246000fd5b6040519080825280601f01601f191660200182016040528015612385576020820181803683370190505b5090505b841561120a5761239a600183612e47565b91506123a7600a86612ef7565b6123b2906030612dfc565b60f81b8183815181106123d557634e487b7160e01b600052603260045260246000fd5b60200101906001600160f81b031916908160001a9053506123f7600a86612e14565b9450612389565b6001600160a01b0382166124545760405162461bcd60e51b815260206004820181905260248201527f4552433732313a206d696e7420746f20746865207a65726f206164647265737360448201526064016106c2565b61245d81611388565b156124aa5760405162461bcd60e51b815260206004820152601c60248201527f4552433732313a20746f6b656e20616c7265616479206d696e7465640000000060448201526064016106c2565b6124b660008383611caa565b6001600160a01b03821660009081526003602052604081208054600192906124df908490612dfc565b909155505060008181526002602052604080822080546001600160a01b0319166001600160a01b03861690811790915590518392907fddf252ad1be2c89b69c2b068fc378daa952ba7f163c4a11628f55a4df523b3ef908290a45050565b6000600161254a84610d78565b6125549190612e47565b6000838152600760205260409020549091508082146125a7576001600160a01b03841660009081526006602090815260408083208584528252808320548484528184208190558352600790915290208190555b5060009182526007602090815260408084208490556001600160a01b039094168352600681528383209183525290812055565b6008546000906125ec90600190612e47565b6000838152600960205260408120546008805493945090928490811061262257634e487b7160e01b600052603260045260246000fd5b90600052602060002001549050806008838154811061265157634e487b7160e01b600052603260045260246000fd5b600091825260208083209091019290925582815260099091526040808220849055858252812055600880548061269757634e487b7160e01b600052603160045260246000fd5b6001900381819060005260206000200160009055905550505050565b60006126be83610d78565b6001600160a01b039093166000908152600660209081526040808320868452825280832085905593825260079052919091209190915550565b82805461270390612ea1565b90600052602060002090601f016020900481019282612725576000855561276b565b82601f1061273e57805160ff191683800117855561276b565b8280016001018555821561276b579182015b8281111561276b578251825591602001919060010190612750565b506127779291506127b1565b5090565b50805461278790612ea1565b6000825580601f10612797575050565b601f016020900490600052602060002090810190610b5d91905b5b8082111561277757600081556001016127b2565b600067ffffffffffffffff8311156127e0576127e0612f37565b6127f3601f8401601f1916602001612dcb565b905082815283838301111561280757600080fd5b828260208301376000602084830101529392505050565b80356001600160a01b038116811461283557600080fd5b919050565b600082601f83011261284a578081fd5b611f19838335602085016127c6565b60006020828403121561286a578081fd5b611f198261281e565b60008060408385031215612885578081fd5b61288e8361281e565b915061289c6020840161281e565b90509250929050565b6000806000606084860312156128b9578081fd5b6128c28461281e565b92506128d06020850161281e565b9150604084013590509250925092565b600080600080608085870312156128f5578081fd5b6128fe8561281e565b935061290c6020860161281e565b925060408501359150606085013567ffffffffffffffff81111561292e578182fd5b8501601f8101871361293e578182fd5b61294d878235602084016127c6565b91505092959194509250565b6000806040838503121561296b578182fd5b6129748361281e565b915060208084013567ffffffffffffffff80821115612991578384fd5b818601915086601f8301126129a4578384fd5b8135818111156129b6576129b6612f37565b8060051b6129c5858201612dcb565b8281528581019085870183870188018c10156129df578889fd5b8893505b84841015612a1c578035868111156129f957898afd5b612a078d8a838b010161283a565b845250600193909301929187019187016129e3565b50809750505050505050509250929050565b60008060408385031215612a40578182fd5b612a498361281e565b915060208301358015158114612a5d578182fd5b809150509250929050565b60008060408385031215612a7a578182fd5b612a838361281e565b9150602083013567ffffffffffffffff811115612a9e578182fd5b612aaa8582860161283a565b9150509250929050565b600080600060608486031215612ac8578283fd5b612ad18461281e565b9250602084013567ffffffffffffffff811115612aec578283fd5b612af88682870161283a565b925050604084013590509250925092565b60008060408385031215612b1b578182fd5b612b248361281e565b946020939093013593505050565b600060208284031215612b43578081fd5b5035919050565b60008060408385031215612b5c578182fd5b8235915061289c6020840161281e565b600060208284031215612b7d578081fd5b8135611f1981612f4d565b600060208284031215612b99578081fd5b8151611f1981612f4d565b60008060408385031215612bb6578182fd5b82359150602083013567ffffffffffffffff811115612a9e578182fd5b60008151808452612beb816020860160208601612e5e565b601f01601f19169290920160200192915050565b60008351612c11818460208801612e5e565b835190830190612c25818360208801612e5e565b01949350505050565b7f416363657373436f6e74726f6c3a206163636f756e7420000000000000000000815260008351612c66816017850160208801612e5e565b7001034b99036b4b9b9b4b733903937b6329607d1b6017918401918201528351612c97816028840160208801612e5e565b01602801949350505050565b6001600160a01b0385811682528416602082015260408101839052608060608201819052600090612cd690830184612bd3565b9695505050505050565b602081526000611f196020830184612bd3565b60208082526032908201527f4552433732313a207472616e7366657220746f206e6f6e20455243373231526560408201527131b2b4bb32b91034b6b83632b6b2b73a32b960711b606082015260800190565b6020808252818101527f4f776e61626c653a2063616c6c6572206973206e6f7420746865206f776e6572604082015260600190565b60208082526031908201527f4552433732313a207472616e736665722063616c6c6572206973206e6f74206f6040820152701ddb995c881b9bdc88185c1c1c9bdd9959607a1b606082015260800190565b604051601f8201601f1916810167ffffffffffffffff81118282101715612df457612df4612f37565b604052919050565b60008219821115612e0f57612e0f612f0b565b500190565b600082612e2357612e23612f21565b500490565b6000816000190483118215151615612e4257612e42612f0b565b500290565b600082821015612e5957612e59612f0b565b500390565b60005b83811015612e79578181015183820152602001612e61565b83811115610cfb5750506000910152565b600081612e9957612e99612f0b565b506000190190565b600181811c90821680612eb557607f821691505b60208210811415612ed657634e487b7160e01b600052602260045260246000fd5b50919050565b6000600019821415612ef057612ef0612f0b565b5060010190565b600082612f0657612f06612f21565b500690565b634e487b7160e01b600052601160045260246000fd5b634e487b7160e01b600052601260045260246000fd5b634e487b7160e01b600052604160045260246000fd5b6001600160e01b031981168114610b5d57600080fdfe65d7a28e3265b37a6474929f336521b332c1681b933f6cb9f3376673440d862a9f2df0fed2c77648de5860a4cc508cd0818c85b8b8a1ab4ceeef8d981c8956a6a2646970667358221220ef6b92a5158291a9ad7cc9bc17be8d9d8e2cbca46935fe02510ede6ca23aa11964736f6c63430008040033",
  "linkReferences": {},
  "deployedLinkReferences": {}
}