{
  "_format": "hh-sol-artifact-1",
  "contractName": "EvenAllocation",
  "sourceName": "contracts/EvenAllocation.sol",
  "abi": [
    {
      "inputs": [
        {
          "internalType": "uint256[]",
          "name": "configValues",
          "type": "uint256[]"
        },
        {
          "internalType": "address",
          "name": "_quote",
          "type": "address"
        },
        {
          "internalType": "address",
          "name": "_payment",
          "type": "address"
        },
        {
          "internalType": "address",
          "name": "_treasury",
          "type": "address"
        },
        {
          "internalType": "address",
          "name": "_mysterybox",
          "type": "address"
        },
        {
          "internalType": "address[]",
          "name": "_whitelist",
          "type": "address[]"
        },
        {
          "internalType": "bool[]",
          "name": "_types",
          "type": "bool[]"
        },
        {
          "internalType": "bool",
          "name": "_andor",
          "type": "bool"
        },
        {
          "internalType": "contract IWitnetRandomness",
          "name": "_witnetRandomness",
          "type": "address"
        }
      ],
      "stateMutability": "nonpayable",
      "type": "constructor"
    },
    {
      "anonymous": false,
      "inputs": [
        {
          "indexed": false,
          "internalType": "address",
          "name": "",
          "type": "address"
        },
        {
          "indexed": false,
          "internalType": "address",
          "name": "",
          "type": "address"
        },
        {
          "indexed": false,
          "internalType": "uint256",
          "name": "",
          "type": "uint256"
        },
        {
          "indexed": false,
          "internalType": "uint256",
          "name": "",
          "type": "uint256"
        },
        {
          "indexed": false,
          "internalType": "uint256",
          "name": "",
          "type": "uint256"
        }
      ],
      "name": "BuyTicket",
      "type": "event"
    },
    {
      "anonymous": false,
      "inputs": [
        {
          "indexed": false,
          "internalType": "address",
          "name": "",
          "type": "address"
        },
        {
          "indexed": false,
          "internalType": "uint256",
          "name": "",
          "type": "uint256"
        },
        {
          "indexed": false,
          "internalType": "uint256",
          "name": "",
          "type": "uint256"
        },
        {
          "indexed": false,
          "internalType": "uint256",
          "name": "",
          "type": "uint256"
        }
      ],
      "name": "Claim",
      "type": "event"
    },
    {
      "anonymous": false,
      "inputs": [
        {
          "indexed": true,
          "internalType": "address",
          "name": "previousOwner",
          "type": "address"
        },
        {
          "indexed": true,
          "internalType": "address",
          "name": "newOwner",
          "type": "address"
        }
      ],
      "name": "OwnershipTransferred",
      "type": "event"
    },
    {
      "anonymous": false,
      "inputs": [
        {
          "indexed": false,
          "internalType": "address",
          "name": "account",
          "type": "address"
        }
      ],
      "name": "Paused",
      "type": "event"
    },
    {
      "anonymous": false,
      "inputs": [
        {
          "indexed": false,
          "internalType": "address",
          "name": "",
          "type": "address"
        },
        {
          "indexed": false,
          "internalType": "uint256",
          "name": "",
          "type": "uint256"
        },
        {
          "indexed": false,
          "internalType": "uint256",
          "name": "",
          "type": "uint256"
        }
      ],
      "name": "Refund",
      "type": "event"
    },
    {
      "anonymous": false,
      "inputs": [
        {
          "indexed": false,
          "internalType": "address",
          "name": "",
          "type": "address"
        },
        {
          "indexed": false,
          "internalType": "uint256",
          "name": "",
          "type": "uint256"
        }
      ],
      "name": "RefundNFT",
      "type": "event"
    },
    {
      "anonymous": false,
      "inputs": [
        {
          "components": [
            {
              "internalType": "address",
              "name": "quote",
              "type": "address"
            },
            {
              "internalType": "uint256",
              "name": "rate",
              "type": "uint256"
            },
            {
              "internalType": "uint256",
              "name": "total",
              "type": "uint256"
            },
            {
              "internalType": "uint256",
              "name": "price",
              "type": "uint256"
            },
            {
              "internalType": "uint256",
              "name": "launch",
              "type": "uint256"
            },
            {
              "internalType": "uint256",
              "name": "startClaim",
              "type": "uint256"
            },
            {
              "internalType": "address",
              "name": "payment",
              "type": "address"
            },
            {
              "internalType": "address",
              "name": "treasury",
              "type": "address"
            },
            {
              "internalType": "uint256",
              "name": "shareRate",
              "type": "uint256"
            },
            {
              "internalType": "uint256",
              "name": "mboxRate",
              "type": "uint256"
            },
            {
              "internalType": "address",
              "name": "mysterybox",
              "type": "address"
            },
            {
              "internalType": "uint256",
              "name": "maxTicket",
              "type": "uint256"
            },
            {
              "internalType": "uint256",
              "name": "perTicket",
              "type": "uint256"
            }
          ],
          "indexed": false,
          "internalType": "struct EvenAllocation.Config",
          "name": "",
          "type": "tuple"
        }
      ],
      "name": "SetConfig",
      "type": "event"
    },
    {
      "anonymous": false,
      "inputs": [
        {
          "indexed": false,
          "internalType": "address[]",
          "name": "",
          "type": "address[]"
        },
        {
          "indexed": false,
          "internalType": "bool[]",
          "name": "",
          "type": "bool[]"
        },
        {
          "indexed": false,
          "internalType": "bool",
          "name": "",
          "type": "bool"
        }
      ],
      "name": "SetWhiteList",
      "type": "event"
    },
    {
      "anonymous": false,
      "inputs": [
        {
          "indexed": false,
          "internalType": "address",
          "name": "account",
          "type": "address"
        }
      ],
      "name": "Unpaused",
      "type": "event"
    },
    {
      "inputs": [],
      "name": "allocStatus",
      "outputs": [
        {
          "internalType": "bool",
          "name": "",
          "type": "bool"
        }
      ],
      "stateMutability": "view",
      "type": "function"
    },
    {
      "inputs": [],
      "name": "andor",
      "outputs": [
        {
          "internalType": "bool",
          "name": "",
          "type": "bool"
        }
      ],
      "stateMutability": "view",
      "type": "function"
    },
    {
      "inputs": [],
      "name": "available",
      "outputs": [
        {
          "internalType": "uint256",
          "name": "",
          "type": "uint256"
        }
      ],
      "stateMutability": "view",
      "type": "function"
    },
    {
      "inputs": [
        {
          "internalType": "uint256",
          "name": "",
          "type": "uint256"
        }
      ],
      "name": "booking",
      "outputs": [
        {
          "internalType": "address",
          "name": "user",
          "type": "address"
        },
        {
          "internalType": "uint256",
          "name": "nTickets",
          "type": "uint256"
        },
        {
          "internalType": "uint256",
          "name": "deposit",
          "type": "uint256"
        },
        {
          "internalType": "uint256",
          "name": "allocated",
          "type": "uint256"
        },
        {
          "internalType": "bool",
          "name": "status",
          "type": "bool"
        },
        {
          "internalType": "bool",
          "name": "claimed",
          "type": "bool"
        }
      ],
      "stateMutability": "view",
      "type": "function"
    },
    {
      "inputs": [
        {
          "internalType": "uint256",
          "name": "_nTickets",
          "type": "uint256"
        }
      ],
      "name": "buyTicketEth",
      "outputs": [],
      "stateMutability": "payable",
      "type": "function"
    },
    {
      "inputs": [
        {
          "internalType": "uint256",
          "name": "_payment",
          "type": "uint256"
        },
        {
          "internalType": "uint256",
          "name": "_nTickets",
          "type": "uint256"
        }
      ],
      "name": "buyTicketQuote",
      "outputs": [],
      "stateMutability": "nonpayable",
      "type": "function"
    },
    {
      "inputs": [],
      "name": "claim",
      "outputs": [],
      "stateMutability": "nonpayable",
      "type": "function"
    },
    {
      "inputs": [],
      "name": "config",
      "outputs": [
        {
          "internalType": "address",
          "name": "quote",
          "type": "address"
        },
        {
          "internalType": "uint256",
          "name": "rate",
          "type": "uint256"
        },
        {
          "internalType": "uint256",
          "name": "total",
          "type": "uint256"
        },
        {
          "internalType": "uint256",
          "name": "price",
          "type": "uint256"
        },
        {
          "internalType": "uint256",
          "name": "launch",
          "type": "uint256"
        },
        {
          "internalType": "uint256",
          "name": "startClaim",
          "type": "uint256"
        },
        {
          "internalType": "address",
          "name": "payment",
          "type": "address"
        },
        {
          "internalType": "address",
          "name": "treasury",
          "type": "address"
        },
        {
          "internalType": "uint256",
          "name": "shareRate",
          "type": "uint256"
        },
        {
          "internalType": "uint256",
          "name": "mboxRate",
          "type": "uint256"
        },
        {
          "internalType": "address",
          "name": "mysterybox",
          "type": "address"
        },
        {
          "internalType": "uint256",
          "name": "maxTicket",
          "type": "uint256"
        },
        {
          "internalType": "uint256",
          "name": "perTicket",
          "type": "uint256"
        }
      ],
      "stateMutability": "view",
      "type": "function"
    },
    {
      "inputs": [
        {
          "internalType": "address",
          "name": "",
          "type": "address"
        }
      ],
      "name": "depositIndex",
      "outputs": [
        {
          "internalType": "uint256",
          "name": "",
          "type": "uint256"
        }
      ],
      "stateMutability": "view",
      "type": "function"
    },
    {
      "inputs": [
        {
          "internalType": "address",
          "name": "",
          "type": "address"
        }
      ],
      "name": "depositList",
      "outputs": [
        {
          "internalType": "uint256",
          "name": "",
          "type": "uint256"
        }
      ],
      "stateMutability": "view",
      "type": "function"
    },
    {
      "inputs": [
        {
          "internalType": "uint256",
          "name": "gasPrice",
          "type": "uint256"
        }
      ],
      "name": "estimateRandomizeFee",
      "outputs": [
        {
          "internalType": "uint256",
          "name": "",
          "type": "uint256"
        }
      ],
      "stateMutability": "view",
      "type": "function"
    },
    {
      "inputs": [],
      "name": "getAllocated",
      "outputs": [
        {
          "internalType": "bool",
          "name": "",
          "type": "bool"
        }
      ],
      "stateMutability": "view",
      "type": "function"
    },
    {
      "inputs": [],
      "name": "getBooking",
      "outputs": [
        {
          "components": [
            {
              "internalType": "address",
              "name": "user",
              "type": "address"
            },
            {
              "internalType": "uint256",
              "name": "nTickets",
              "type": "uint256"
            },
            {
              "internalType": "uint256",
              "name": "deposit",
              "type": "uint256"
            },
            {
              "internalType": "uint256",
              "name": "allocated",
              "type": "uint256"
            },
            {
              "internalType": "bool",
              "name": "status",
              "type": "bool"
            },
            {
              "internalType": "bool",
              "name": "claimed",
              "type": "bool"
            }
          ],
          "internalType": "struct EvenAllocation.Book[]",
          "name": "",
          "type": "tuple[]"
        }
      ],
      "stateMutability": "view",
      "type": "function"
    },
    {
      "inputs": [],
      "name": "getClaimed",
      "outputs": [
        {
          "internalType": "bool",
          "name": "",
          "type": "bool"
        }
      ],
      "stateMutability": "view",
      "type": "function"
    },
    {
      "inputs": [],
      "name": "getMyTickets",
      "outputs": [
        {
          "internalType": "uint256",
          "name": "",
          "type": "uint256"
        }
      ],
      "stateMutability": "view",
      "type": "function"
    },
    {
      "inputs": [],
      "name": "getMyWin",
      "outputs": [
        {
          "internalType": "uint256",
          "name": "",
          "type": "uint256"
        }
      ],
      "stateMutability": "view",
      "type": "function"
    },
    {
      "inputs": [],
      "name": "getParticipants",
      "outputs": [
        {
          "internalType": "uint256",
          "name": "",
          "type": "uint256"
        }
      ],
      "stateMutability": "view",
      "type": "function"
    },
    {
      "inputs": [],
      "name": "getTicketCount",
      "outputs": [
        {
          "internalType": "uint256",
          "name": "",
          "type": "uint256"
        }
      ],
      "stateMutability": "view",
      "type": "function"
    },
    {
      "inputs": [],
      "name": "latestRandomizingBlock",
      "outputs": [
        {
          "internalType": "uint256",
          "name": "",
          "type": "uint256"
        }
      ],
      "stateMutability": "view",
      "type": "function"
    },
    {
      "inputs": [
        {
          "internalType": "address",
          "name": "operator",
          "type": "address"
        },
        {
          "internalType": "address",
          "name": "from",
          "type": "address"
        },
        {
          "internalType": "uint256",
          "name": "tokenId",
          "type": "uint256"
        },
        {
          "internalType": "bytes",
          "name": "data",
          "type": "bytes"
        }
      ],
      "name": "onERC721Received",
      "outputs": [
        {
          "internalType": "bytes4",
          "name": "",
          "type": "bytes4"
        }
      ],
      "stateMutability": "pure",
      "type": "function"
    },
    {
      "inputs": [],
      "name": "owner",
      "outputs": [
        {
          "internalType": "address",
          "name": "",
          "type": "address"
        }
      ],
      "stateMutability": "view",
      "type": "function"
    },
    {
      "inputs": [],
      "name": "paused",
      "outputs": [
        {
          "internalType": "bool",
          "name": "",
          "type": "bool"
        }
      ],
      "stateMutability": "view",
      "type": "function"
    },
    {
      "inputs": [],
      "name": "randomness",
      "outputs": [
        {
          "internalType": "uint32",
          "name": "",
          "type": "uint32"
        }
      ],
      "stateMutability": "view",
      "type": "function"
    },
    {
      "inputs": [],
      "name": "renounceOwnership",
      "outputs": [],
      "stateMutability": "nonpayable",
      "type": "function"
    },
    {
      "inputs": [],
      "name": "requestRandomNumber",
      "outputs": [],
      "stateMutability": "payable",
      "type": "function"
    },
    {
      "inputs": [
        {
          "internalType": "address[]",
          "name": "_whitelist",
          "type": "address[]"
        },
        {
          "internalType": "bool[]",
          "name": "_types",
          "type": "bool[]"
        },
        {
          "internalType": "bool",
          "name": "_andor",
          "type": "bool"
        }
      ],
      "name": "setWhiteList",
      "outputs": [],
      "stateMutability": "nonpayable",
      "type": "function"
    },
    {
      "inputs": [
        {
          "internalType": "uint256",
          "name": "",
          "type": "uint256"
        }
      ],
      "name": "ticketData",
      "outputs": [
        {
          "internalType": "uint256",
          "name": "",
          "type": "uint256"
        }
      ],
      "stateMutability": "view",
      "type": "function"
    },
    {
      "inputs": [
        {
          "internalType": "address",
          "name": "newOwner",
          "type": "address"
        }
      ],
      "name": "transferOwnership",
      "outputs": [],
      "stateMutability": "nonpayable",
      "type": "function"
    },
    {
      "inputs": [
        {
          "internalType": "uint256",
          "name": "",
          "type": "uint256"
        }
      ],
      "name": "whitelist",
      "outputs": [
        {
          "internalType": "address",
          "name": "",
          "type": "address"
        }
      ],
      "stateMutability": "view",
      "type": "function"
    },
    {
      "inputs": [],
      "name": "witnet",
      "outputs": [
        {
          "internalType": "contract IWitnetRandomness",
          "name": "",
          "type": "address"
        }
      ],
      "stateMutability": "view",
      "type": "function"
    },
    {
      "stateMutability": "payable",
      "type": "receive"
    }
  ],
  "bytecode": "0x60a06040526012805460ff199081169091556000601481905560158054909216909155601d819055601e553480156200003757600080fd5b5060405162003ef538038062003ef58339810160408190526200005a9162000a17565b620000653362000257565b6000805460ff60a01b1916905560018055620000858989898989620002a7565b6200009284848462000689565b600e54600454620000af9162000883602090811b62001f4117901c565b601b819055601c556001600160a01b038116620000dc57634e487b7160e01b600052600160045260246000fd5b606081811b6001600160601b03191660809081526040805160c08101825230815260006020808301828152938301828152958301828152600195840186815260a0850184815260168054988901815590945293517fd833147d7dc355ba459fc788f669e58cfaf9dc25ddcd0702e87d69c7b5124289600590970296870180546001600160a01b0319166001600160a01b0390921691909117905593517fd833147d7dc355ba459fc788f669e58cfaf9dc25ddcd0702e87d69c7b512428a86015594517fd833147d7dc355ba459fc788f669e58cfaf9dc25ddcd0702e87d69c7b512428b85015591517fd833147d7dc355ba459fc788f669e58cfaf9dc25ddcd0702e87d69c7b512428c840155517fd833147d7dc355ba459fc788f669e58cfaf9dc25ddcd0702e87d69c7b512428d9092018054915161ffff1990921692151561ff0019169290921761010091151591909102179055620002489060189062000898811b62001f4d17901c565b50505050505050505062000c84565b600080546001600160a01b038381166001600160a01b0319831681178455604051919092169283917f8be0079c531659141344cd1fd0a4f28419497f9722a3daafe3b4186f6b6457e09190a35050565b6000546001600160a01b03163314620002f65760405162461bcd60e51b8152602060048201819052602482015260008051602062003ed583398151915260448201526064015b60405180910390fd5b8451600814620003495760405162461bcd60e51b815260206004820152601560248201527f6d697373696e6720636f6e6669672076616c75657300000000000000000000006044820152606401620002ed565b846000815181106200036b57634e487b7160e01b600052603260045260246000fd5b6020026020010151600260030181905550846001815181106200039e57634e487b7160e01b600052603260045260246000fd5b6020026020010151600280018190555084600281518110620003d057634e487b7160e01b600052603260045260246000fd5b6020026020010151600260080181905550846003815181106200040357634e487b7160e01b600052603260045260246000fd5b6020026020010151600260090181905550846004815181106200043657634e487b7160e01b600052603260045260246000fd5b6020026020010151600260040181905550846005815181106200046957634e487b7160e01b600052603260045260246000fd5b6020026020010151600260050181905550846006815181106200049c57634e487b7160e01b600052603260045260246000fd5b6020908102919091010151600d81905515801590620004be5750600d54600a10155b6200050c5760405162461bcd60e51b815260206004820152601f60248201527f496e76616c6964206d61782e207469636b657473207065722077616c6c6574006044820152606401620002ed565b846007815181106200052e57634e487b7160e01b600052603260045260246000fd5b6020908102919091010151600e819055620005a15760405162461bcd60e51b815260206004820152602c60248201527f496e76616c6964206e756d626572206f66204e46547320706572207469636b6560448201526b74206174206c65617374203160a01b6064820152608401620002ed565b600280546001600160a01b038681166001600160a01b03199283168117909355600880548783169084168117909155600980548784169085168117909155600c8054938716939094168317909355604080519485526003546020860152600454908501526005546060850152600654608085015260075460a085015260c084015260e0830191909152600a54610100830152600b54610120830152610140820152600d54610160820152600e546101808201527fa5507bdc8df8af2c5954b697879f76593eb183b9b357f4aa0e9fcc21e2d577ab906101a00160405180910390a15050505050565b6000546001600160a01b03163314620006d45760405162461bcd60e51b8152602060048201819052602482015260008051602062003ed58339815191526044820152606401620002ed565b8151835114620007275760405162461bcd60e51b815260206004820152601460248201527f496e76616c6964206172726179206c656e6774680000000000000000000000006044820152606401620002ed565b60005b82518110156200082957600f8482815181106200075757634e487b7160e01b600052603260045260246000fd5b60209081029190910181015182546001810184556000938452919092200180546001600160a01b0319166001600160a01b039092169190911790558251839082908110620007b557634e487b7160e01b600052603260045260246000fd5b602002602001015160106000868481518110620007e257634e487b7160e01b600052603260045260246000fd5b6020908102919091018101516001600160a01b03168252810191909152604001600020805460ff191691151591909117905580620008208162000c2d565b9150506200072a565b506012805460ff19168215159081179091556040517f26b45c07c464ec1336ab82304250ed426a4b8690ff7d1ec212e8bcad5cf563d1916200087691600f91869160ff9091169062000b15565b60405180910390a1505050565b600062000891828462000c0c565b9392505050565b80546001019055565b8051620008ae8162000c6b565b919050565b600082601f830112620008c4578081fd5b81516020620008dd620008d78362000be6565b62000bb3565b80838252828201915082860187848660051b8901011115620008fd578586fd5b855b8581101562000928578151620009158162000c6b565b84529284019290840190600101620008ff565b5090979650505050505050565b600082601f83011262000946578081fd5b8151602062000959620008d78362000be6565b80838252828201915082860187848660051b890101111562000979578586fd5b855b8581101562000928576200098f8262000a06565b845292840192908401906001016200097b565b600082601f830112620009b3578081fd5b81516020620009c6620008d78362000be6565b80838252828201915082860187848660051b8901011115620009e6578586fd5b855b858110156200092857815184529284019290840190600101620009e8565b80518015158114620008ae57600080fd5b60008060008060008060008060006101208a8c03121562000a36578485fd5b89516001600160401b038082111562000a4d578687fd5b62000a5b8d838e01620009a2565b9a5062000a6b60208d01620008a1565b995062000a7b60408d01620008a1565b985062000a8b60608d01620008a1565b975062000a9b60808d01620008a1565b965060a08c015191508082111562000ab1578586fd5b62000abf8d838e01620008b3565b955060c08c015191508082111562000ad5578485fd5b5062000ae48c828d0162000935565b93505062000af560e08b0162000a06565b915062000b066101008b01620008a1565b90509295985092959850929598565b6000606082016060835280865480835260808501915087845260209250828420845b8281101562000b5e5781546001600160a01b03168452928401926001918201910162000b37565b50505083810382850152855180825286830191830190845b8181101562000b9657835115158352928401929184019160010162000b76565b50508515156040860152925062000bab915050565b949350505050565b604051601f8201601f191681016001600160401b038111828210171562000bde5762000bde62000c55565b604052919050565b60006001600160401b0382111562000c025762000c0262000c55565b5060051b60200190565b60008262000c2857634e487b7160e01b81526012600452602481fd5b500490565b600060001982141562000c4e57634e487b7160e01b81526011600452602481fd5b5060010190565b634e487b7160e01b600052604160045260246000fd5b6001600160a01b038116811462000c8157600080fd5b50565b60805160601c61321d62000cb8600039600081816103590152818161127801528181611d830152611fb0015261321d6000f3fe6080604052600436106101d15760003560e01c806379502c55116100f75780639df177e311610095578063b1fa417611610064578063b1fa417614610624578063e1d10d851461063a578063f2fde38b1461064f578063f508323f1461066f57600080fd5b80639df177e3146105bd578063a3936355146105d5578063a60ee268146105ef578063ae3bb4601461060f57600080fd5b80638da5cb5b116100d15780638da5cb5b1461053f57806398cbf8461461055d5780639974c538146105705780639ac7c2221461059057600080fd5b806379502c551461044a5780637ebd1b30146105175780638678a7b21461053757600080fd5b806346d1d21a1161016f5780635aa68ac01161013e5780635aa68ac0146103e05780635c975abb146103f5578063613723e714610420578063715018a61461043557600080fd5b806346d1d21a1461034757806348a0d754146103935780634e71d92d146103a95780634e75f40b146103c057600080fd5b8063358dc19c116101ab578063358dc19c1461026857806336013189146102c3578063394803fd146102fa5780634546ff921461031a57600080fd5b8063150b7a02146101dd57806321c63a471461022757806334dc725c1461024657600080fd5b366101d857005b600080fd5b3480156101e957600080fd5b506102096101f8366004612bd4565b630a85bd0160e11b95945050505050565b6040516001600160e01b031990911681526020015b60405180910390f35b34801561023357600080fd5b50601d545b60405190815260200161021e565b34801561025257600080fd5b5061025b610689565b60405161021e9190612e9e565b34801561027457600080fd5b50610288610283366004612d57565b610732565b604080516001600160a01b039097168752602087019590955293850192909252606084015215156080830152151560a082015260c00161021e565b3480156102cf57600080fd5b506012546102e590610100900463ffffffff1681565b60405163ffffffff909116815260200161021e565b34801561030657600080fd5b50610238610315366004612d57565b610789565b34801561032657600080fd5b50610238610335366004612bba565b60176020526000908152604090205481565b34801561035357600080fd5b5061037b7f000000000000000000000000000000000000000000000000000000000000000081565b6040516001600160a01b03909116815260200161021e565b34801561039f57600080fd5b50610238601c5481565b3480156103b557600080fd5b506103be6107aa565b005b3480156103cc57600080fd5b506103be6103db366004612c6a565b610fe4565b3480156103ec57600080fd5b506102386111a9565b34801561040157600080fd5b50600054600160a01b900460ff165b604051901515815260200161021e565b34801561042c57600080fd5b506102386111bf565b34801561044157600080fd5b506103be61120d565b34801561045657600080fd5b50600254600354600454600554600654600754600854600954600a54600b54600c54600d54600e546104a19c6001600160a01b039081169c9b9a99989781169681169594931691908d565b604080516001600160a01b039e8f168152602081019d909d528c019a909a5260608b019890985260808a019690965260a089019490945291881660c0880152871660e08701526101008601526101208501529093166101408301526101608201929092526101808101919091526101a00161021e565b34801561052357600080fd5b5061037b610532366004612d57565b611243565b6103be61126d565b34801561054b57600080fd5b506000546001600160a01b031661037b565b6103be61056b366004612d57565b61134f565b34801561057c57600080fd5b506103be61058b366004612d87565b611873565b34801561059c57600080fd5b506102386105ab366004612bba565b60196020526000908152604090205481565b3480156105c957600080fd5b5060155460ff16610410565b3480156105e157600080fd5b506012546104109060ff1681565b3480156105fb57600080fd5b5061023861060a366004612d57565b611d60565b34801561061b57600080fd5b50610410611e04565b34801561063057600080fd5b5061023860135481565b34801561064657600080fd5b50610238611e5b565b34801561065b57600080fd5b506103be61066a366004612bba565b611ea9565b34801561067b57600080fd5b506015546104109060ff1681565b60606016805480602002602001604051908101604052809291908181526020016000905b828210156107295760008481526020908190206040805160c0810182526005860290920180546001600160a01b0316835260018082015484860152600282015492840192909252600381015460608401526004015460ff8082161515608085015261010090910416151560a083015290835290920191016106ad565b50505050905090565b6016818154811061074257600080fd5b6000918252602090912060059091020180546001820154600283015460038401546004909401546001600160a01b0390931694509092909160ff8082169161010090041686565b601a818154811061079957600080fd5b600091825260209091200154905081565b600260015414156107d65760405162461bcd60e51b81526004016107cd90613081565b60405180910390fd5b6002600155336000908152601760205260409020546108475760405162461bcd60e51b815260206004820152602760248201527f4f6e6c792075736572732077686f20626f75676874207469636b6574732063616044820152666e20636c61696d60c81b60648201526084016107cd565b6007544210156108995760405162461bcd60e51b815260206004820152601d60248201527f436c61696d2074696d65206973206e6f7420796574207265616368656400000060448201526064016107cd565b3360009081526019602052604090205460168054829081106108cb57634e487b7160e01b600052603260045260246000fd5b6000918252602090912060059091020160040154610100900460ff16156109265760405162461bcd60e51b815260206004820152600f60248201526e185b1c9958591e4818db185a5b5959608a1b60448201526064016107cd565b601b54601d5410156109ea576016818154811061095357634e487b7160e01b600052603260045260246000fd5b9060005260206000209060050201600101546016828154811061098657634e487b7160e01b600052603260045260246000fd5b9060005260206000209060050201600301819055506109e2601682815481106109bf57634e487b7160e01b600052603260045260246000fd5b906000526020600020906005020160010154601c54611f5690919063ffffffff16565b601c55610ad5565b601c5415610ad55760005b60168281548110610a1657634e487b7160e01b600052603260045260246000fd5b906000526020600020906005020160010154811015610ad357610a3a601e54611f62565b601c54601254610100900463ffffffff161015610aab5760168281548110610a7257634e487b7160e01b600052603260045260246000fd5b600091825260208220600360059092020101805491610a9083613192565b9091555050601c8054906000610aa58361317b565b91905055505b601e8054906000610abb8361317b565b91905055508080610acb90613192565b9150506109f5565b505b6000610b2160026003015460168481548110610b0157634e487b7160e01b600052603260045260246000fd5b90600052602060002090600502016003015461206b90919063ffffffff16565b600b54600a54919250600091610b3691612077565b90506000610b506103e8610b4a858561206b565b90611f41565b90506000610b5e8483611f56565b600f5490915015610b7457610b74336001612083565b8360168681548110610b9657634e487b7160e01b600052603260045260246000fd5b9060005260206000209060050201600201541115610c4857610c4360168681548110610bd257634e487b7160e01b600052603260045260246000fd5b906000526020600020906005020160000160009054906101000a90046001600160a01b0316610c3c8660168981548110610c1c57634e487b7160e01b600052603260045260246000fd5b906000526020600020906005020160020154611f5690919063ffffffff16565b600061238a565b610cc8565b7f73f04af9dcc582a923ec15d3eea990fe34adabfff2879e28d44572e01a54abb660168681548110610c8a57634e487b7160e01b600052603260045260246000fd5b6000918252602080832060059290920290910154604080516001600160a01b0390921682529181018390529081019190915260600160405180910390a15b6000821180610cd75750600081115b15610e30576002546001600160a01b031615610e045760025460095460405163a9059cbb60e01b81526001600160a01b0391821660048201526024810185905291169063a9059cbb90604401602060405180830381600087803b158015610d3d57600080fd5b505af1158015610d51573d6000803e3d6000fd5b505050506040513d601f19601f82011682018060405250810190610d759190612d3b565b5060025460085460405163a9059cbb60e01b81526001600160a01b0391821660048201526024810184905291169063a9059cbb90604401602060405180830381600087803b158015610dc657600080fd5b505af1158015610dda573d6000803e3d6000fd5b505050506040513d601f19601f82011682018060405250810190610dfe9190612d3b565b50610e30565b600954610e1a906001600160a01b0316836124c0565b600854610e30906001600160a01b0316826124c0565b600060168681548110610e5357634e487b7160e01b600052603260045260246000fd5b9060005260206000209060050201600301541115610f0a57600c54600e54601680546001600160a01b039093169263fcd1ee10923392610eab928b908110610b0157634e487b7160e01b600052603260045260246000fd5b6040516001600160e01b031960e085901b1681526001600160a01b0390921660048301526024820152604401600060405180830381600087803b158015610ef157600080fd5b505af1158015610f05573d6000803e3d6000fd5b505050505b600160168681548110610f2d57634e487b7160e01b600052603260045260246000fd5b906000526020600020906005020160040160016101000a81548160ff0219169083151502179055507f45c072aa05b9853b5a993de7a28bc332ee01404a628cec1a23ce0f659f842ef13360168781548110610f9857634e487b7160e01b600052603260045260246000fd5b600091825260209182902060036005909202010154604080516001600160a01b0390941684529183015281018490526060810183905260800160405180910390a1505060018055505050565b6000546001600160a01b0316331461100e5760405162461bcd60e51b81526004016107cd90612f66565b81518351146110565760405162461bcd60e51b8152602060048201526014602482015273092dcecc2d8d2c840c2e4e4c2f240d8cadccee8d60631b60448201526064016107cd565b60005b825181101561115157600f84828151811061108457634e487b7160e01b600052603260045260246000fd5b60209081029190910181015182546001810184556000938452919092200180546001600160a01b0319166001600160a01b0390921691909117905582518390829081106110e157634e487b7160e01b600052603260045260246000fd5b60200260200101516010600086848151811061110d57634e487b7160e01b600052603260045260246000fd5b6020908102919091018101516001600160a01b03168252810191909152604001600020805460ff19169115159190911790558061114981613192565b915050611059565b506012805460ff19168215159081179091556040517f26b45c07c464ec1336ab82304250ed426a4b8690ff7d1ec212e8bcad5cf563d19161119c91600f91869160ff90911690612e05565b60405180910390a1505050565b6016546000906111ba906001611f56565b905090565b336000908152601960205260408120546016805483929081106111f257634e487b7160e01b600052603260045260246000fd5b90600052602060002090600502016003015490508091505090565b6000546001600160a01b031633146112375760405162461bcd60e51b81526004016107cd90612f66565b611241600061259f565b565b600f818154811061125357600080fd5b6000918252602090912001546001600160a01b0316905081565b4360138190555060007f00000000000000000000000000000000000000000000000000000000000000006001600160a01b031663699b328a346040518263ffffffff1660e01b81526004016020604051808303818588803b1580156112d157600080fd5b505af11580156112e5573d6000803e3d6000fd5b50505050506040513d601f19601f8201168201806040525081019061130a9190612d6f565b90503481101561134c57336108fc6113228334613164565b6040518115909202916000818181858888f1935050505015801561134a573d6000803e3d6000fd5b505b50565b6009546001600160a01b03161580159061137357506008546001600160a01b031615155b6113bf5760405162461bcd60e51b815260206004820152601f60248201527f4e6f7420796574206d79737465727920626f7820696e697469616c697a65640060448201526064016107cd565b60155460ff16156114125760405162461bcd60e51b815260206004820181905260248201527f4d79737465727920626f7820697320616c726561647920616c6c6f636174656460448201526064016107cd565b600260015414156114355760405162461bcd60e51b81526004016107cd90613081565b60026001819055546001600160a01b0316156114875760405162461bcd60e51b81526020600482015260116024820152702bb937b7339038bab7ba32903a37b5b2b760791b60448201526064016107cd565b6006544210156114d95760405162461bcd60e51b815260206004820152601b60248201527f5469636b65742073616c6573206973206e6f742073746172746564000000000060448201526064016107cd565b600081116114f95760405162461bcd60e51b81526004016107cd90613024565b600034116115195760405162461bcd60e51b81526004016107cd90612f23565b336000908152601760205260409020546115de5760055434101561157f5760405162461bcd60e51b815260206004820152601a60248201527f556e646572206c65617374207374616b696e6720616d6f756e7400000000000060448201526064016107cd565b600d5460055461158e9161206b565b3411156115ad5760405162461bcd60e51b81526004016107cd90612f9b565b60055434906115bc908361206b565b146115d95760405162461bcd60e51b81526004016107cd90612fe1565b611626565b60405162461bcd60e51b815260206004820152601960248201527f6f6e6c79206f6e63652063616e20627579207469636b6574730000000000000060448201526064016107cd565b336000908152601760205260409020546116409034612077565b336000818152601760209081526040808320949094556018546019825284832055835160c081018552928352820184815234938301938452606083018281526080840183815260a085018481526016805460018101825590865295517fd833147d7dc355ba459fc788f669e58cfaf9dc25ddcd0702e87d69c7b5124289600590970296870180546001600160a01b0319166001600160a01b0390921691909117905592517fd833147d7dc355ba459fc788f669e58cfaf9dc25ddcd0702e87d69c7b512428a86015594517fd833147d7dc355ba459fc788f669e58cfaf9dc25ddcd0702e87d69c7b512428b850155517fd833147d7dc355ba459fc788f669e58cfaf9dc25ddcd0702e87d69c7b512428c84015592517fd833147d7dc355ba459fc788f669e58cfaf9dc25ddcd0702e87d69c7b512428d9092018054935161ffff1990941692151561ff00191692909217610100931515939093029290921790555b818110156117dc57601a6117b460185490565b81546001810183556000928352602090922090910155806117d481613192565b9150506117a1565b50601d546117ea9082612077565b601d819055601e55611800601880546001019055565b600f541561181157611811336125ef565b600254601d54604080513381526001600160a01b03909316602084015234908301526060820183905260808201527f950e453ec8830eca6a4a30fc836aa9b14aefbc1dadb05ebfa99b37d90f6f45e09060a00160405180910390a15060018055565b6009546001600160a01b03161580159061189757506008546001600160a01b031615155b6118e35760405162461bcd60e51b815260206004820152601f60248201527f4e6f7420796574206d79737465727920626f7820696e697469616c697a65640060448201526064016107cd565b60155460ff16156119365760405162461bcd60e51b815260206004820181905260248201527f4d79737465727920626f7820697320616c726561647920616c6c6f636174656460448201526064016107cd565b600260015414156119595760405162461bcd60e51b81526004016107cd90613081565b60026001819055546001600160a01b03166119aa5760405162461bcd60e51b81526020600482015260116024820152702bb937b7339038bab7ba32903a37b5b2b760791b60448201526064016107cd565b6006544210156119fc5760405162461bcd60e51b815260206004820152601b60248201527f5469636b65742073616c6573206973206e6f742073746172746564000000000060448201526064016107cd565b60008111611a1c5760405162461bcd60e51b81526004016107cd90613024565b60008211611a3c5760405162461bcd60e51b81526004016107cd90612f23565b33600090815260176020526040902054611afc57600554821015611aa25760405162461bcd60e51b815260206004820152601a60248201527f556e646572206c65617374207374616b696e6720616d6f756e7400000000000060448201526064016107cd565b600d54600554611ab19161206b565b821115611ad05760405162461bcd60e51b81526004016107cd90612f9b565b6005548290611adf908361206b565b14611afc5760405162461bcd60e51b81526004016107cd90612fe1565b33600090815260176020526040902054611b169083612077565b336000818152601760209081526040808320949094556018546019825284832055835160c0810185529283528201848152928201858152606083018281526080840183815260a085018481526016805460018101825590865295517fd833147d7dc355ba459fc788f669e58cfaf9dc25ddcd0702e87d69c7b5124289600590970296870180546001600160a01b0319166001600160a01b0390921691909117905595517fd833147d7dc355ba459fc788f669e58cfaf9dc25ddcd0702e87d69c7b512428a86015591517fd833147d7dc355ba459fc788f669e58cfaf9dc25ddcd0702e87d69c7b512428b850155517fd833147d7dc355ba459fc788f669e58cfaf9dc25ddcd0702e87d69c7b512428c840155517fd833147d7dc355ba459fc788f669e58cfaf9dc25ddcd0702e87d69c7b512428d9092018054935161ffff1990941692151561ff00191692909217610100931515939093029290921790555b81811015611cb057601a611c8860185490565b8154600181018355600092835260209092209091015580611ca881613192565b915050611c75565b50601d54611cbe9082612077565b601d819055601e55611cd4601880546001019055565b600f5415611ce557611ce5336125ef565b600254611cfd906001600160a01b03163330856129dd565b600254601d54604080513381526001600160a01b03909316602084015282018490526060820183905260808201527f950e453ec8830eca6a4a30fc836aa9b14aefbc1dadb05ebfa99b37d90f6f45e09060a00160405180910390a1505060018055565b6040516314c1dc4d60e31b81526004810182905260009081906001600160a01b037f0000000000000000000000000000000000000000000000000000000000000000169063a60ee2689060240160206040518083038186803b158015611dc557600080fd5b505afa158015611dd9573d6000803e3d6000fd5b505050506040513d601f19601f82011682018060405250810190611dfd9190612d6f565b9392505050565b33600090815260196020526040812054601680549091908110611e3757634e487b7160e01b600052603260045260246000fd5b906000526020600020906005020160040160019054906101000a900460ff16905090565b33600090815260196020526040812054601680548392908110611e8e57634e487b7160e01b600052603260045260246000fd5b90600052602060002090600502016001015490508091505090565b6000546001600160a01b03163314611ed35760405162461bcd60e51b81526004016107cd90612f66565b6001600160a01b038116611f385760405162461bcd60e51b815260206004820152602660248201527f4f776e61626c653a206e6577206f776e657220697320746865207a65726f206160448201526564647265737360d01b60648201526084016107cd565b61134c8161259f565b6000611dfd8284613125565b80546001019055565b6000611dfd8284613164565b600060135411611f8257634e487b7160e01b600052600160045260246000fd5b6014546013546040516324cbbfc160e01b815263ffffffff84166004820152602481019290925260448201527f00000000000000000000000000000000000000000000000000000000000000006001600160a01b0316906324cbbfc19060640160206040518083038186803b158015611ffa57600080fd5b505afa15801561200e573d6000803e3d6000fd5b505050506040513d601f19601f820116820180604052508101906120329190612da8565b6012805463ffffffff929092166101000264ffffffff00199092169190911790556014805490600061206383613192565b919050555050565b6000611dfd8284613145565b6000611dfd828461310d565b6000805b6001600160a01b03841660009081526011602052604090205481101561234a576001600160a01b038416600090815260116020526040812080546010929190849081106120e457634e487b7160e01b600052603260045260246000fd5b600091825260208083206002909202909101546001600160a01b0316835282019290925260400190205460ff161515600114801561212457506001831515145b1561221d576001600160a01b038416600090815260116020526040902080548290811061216157634e487b7160e01b600052603260045260246000fd5b600091825260208083206002909202909101546001600160a01b03878116845260119092526040909220805491909216916342966c6891849081106121b657634e487b7160e01b600052603260045260246000fd5b9060005260206000209060020201600101546040518263ffffffff1660e01b81526004016121e691815260200190565b600060405180830381600087803b15801561220057600080fd5b505af1158015612214573d6000803e3d6000fd5b50505050612338565b6001600160a01b038416600090815260116020526040902080548290811061225557634e487b7160e01b600052603260045260246000fd5b600091825260208083206002909202909101546001600160a01b03878116845260119092526040909220805491909216916342842e0e9130918891869081106122ae57634e487b7160e01b600052603260045260246000fd5b60009182526020909120600160029092020101546040516001600160e01b031960e086901b1681526001600160a01b0393841660048201529290911660248301526044820152606401600060405180830381600087803b15801561231157600080fd5b505af1158015612325573d6000803e3d6000fd5b50505050818061233490613192565b9250505b8061234281613192565b915050612087565b50604080516001600160a01b0385168152602081018390527f2e4861fd3cb133f4df6d8c5dc2f9649e250a3517acfcb09d642ff621f9f360d5910161119c565b600082116123d15760405162461bcd60e51b8152602060048201526014602482015273139bc818985b185b98d9481d1bc81c99599d5b9960621b60448201526064016107cd565b6000600182151514156123f2576123ef6103e8610b4a85600a61206b565b90505b6002546001600160a01b031661243057612415846124108584611f56565b6124c0565b60095461242b906001600160a01b0316826124c0565b612470565b600254612451906001600160a01b0316308661244c8786611f56565b6129dd565b600254600954612470916001600160a01b0390811691309116846129dd565b604080516001600160a01b0386168152602081018590529081018290527f73f04af9dcc582a923ec15d3eea990fe34adabfff2879e28d44572e01a54abb69060600160405180910390a150505050565b604080516000808252602082019092526001600160a01b0384169083906040516124ea9190612dcc565b60006040518083038185875af1925050503d8060008114612527576040519150601f19603f3d011682016040523d82523d6000602084013e61252c565b606091505b505090508061259a5760405162461bcd60e51b815260206004820152603460248201527f5472616e7366657248656c7065723a3a736166655472616e736665724554483a60448201527308115512081d1c985b9cd9995c8819985a5b195960621b60648201526084016107cd565b505050565b600080546001600160a01b038381166001600160a01b0319831681178455604051919092169283917f8be0079c531659141344cd1fd0a4f28419497f9722a3daafe3b4186f6b6457e09190a35050565b600080805b600f5481101561283857600f818154811061261f57634e487b7160e01b600052603260045260246000fd5b6000918252602090912001546040516370a0823160e01b81526001600160a01b038681166004830152909116906370a082319060240160206040518083038186803b15801561266d57600080fd5b505afa158015612681573d6000803e3d6000fd5b505050506040513d601f19601f820116820180604052508101906126a59190612d6f565b9250821561282657816126b781613192565b9250506000600f82815481106126dd57634e487b7160e01b600052603260045260246000fd5b6000918252602082200154604051632f745c5960e01b81526001600160a01b0388811660048301526024820193909352911690632f745c599060440160206040518083038186803b15801561273157600080fd5b505afa158015612745573d6000803e3d6000fd5b505050506040513d601f19601f820116820180604052508101906127699190612d6f565b905060116000866001600160a01b03166001600160a01b031681526020019081526020016000206040518060400160405280600f85815481106127bc57634e487b7160e01b600052603260045260246000fd5b6000918252602080832091909101546001600160a01b03908116845292810186905284546001808201875595835291819020845160029093020180546001600160a01b03191692909316919091178255919091015191015560125460ff166128245750612838565b505b8061283081613192565b9150506125f4565b5060125460ff161561289557600f5481146128955760405162461bcd60e51b815260206004820152601c60248201527f4c61636b206f66206f776e65642077686974656c697374204e4654730000000060448201526064016107cd565b60005b6001600160a01b0384166000908152601160205260409020548110156129d7576001600160a01b03841660009081526011602052604090208054829081106128f057634e487b7160e01b600052603260045260246000fd5b600091825260208083206002909202909101546001600160a01b03878116845260119092526040909220805491909216916342842e0e91879130918690811061294957634e487b7160e01b600052603260045260246000fd5b60009182526020909120600160029092020101546040516001600160e01b031960e086901b1681526001600160a01b0393841660048201529290911660248301526044820152606401600060405180830381600087803b1580156129ac57600080fd5b505af11580156129c0573d6000803e3d6000fd5b5050505080806129cf90613192565b915050612898565b50505050565b604080516001600160a01b0385811660248301528481166044830152606480830185905283518084039091018152608490920183526020820180516001600160e01b03166323b872dd60e01b1790529151600092839290881691612a419190612dcc565b6000604051808303816000865af19150503d8060008114612a7e576040519150601f19603f3d011682016040523d82523d6000602084013e612a83565b606091505b5091509150818015612aad575080511580612aad575080806020019051810190612aad9190612d3b565b612b135760405162461bcd60e51b815260206004820152603160248201527f5472616e7366657248656c7065723a3a7472616e7366657246726f6d3a207472604482015270185b9cd9995c919c9bdb4819985a5b1959607a1b60648201526084016107cd565b505050505050565b80356001600160a01b0381168114612b3257600080fd5b919050565b600082601f830112612b47578081fd5b81356020612b5c612b57836130e9565b6130b8565b80838252828201915082860187848660051b8901011115612b7b578586fd5b855b85811015612ba2578135612b90816131d9565b84529284019290840190600101612b7d565b5090979650505050505050565b8035612b32816131d9565b600060208284031215612bcb578081fd5b611dfd82612b1b565b600080600080600060808688031215612beb578081fd5b612bf486612b1b565b9450612c0260208701612b1b565b935060408601359250606086013567ffffffffffffffff80821115612c25578283fd5b818801915088601f830112612c38578283fd5b813581811115612c46578384fd5b896020828501011115612c57578384fd5b9699959850939650602001949392505050565b600080600060608486031215612c7e578283fd5b833567ffffffffffffffff80821115612c95578485fd5b818601915086601f830112612ca8578485fd5b81356020612cb8612b57836130e9565b8083825282820191508286018b848660051b8901011115612cd757898afd5b8996505b84871015612d0057612cec81612b1b565b835260019690960195918301918301612cdb565b5097505087013592505080821115612d16578384fd5b50612d2386828701612b37565b925050612d3260408501612baf565b90509250925092565b600060208284031215612d4c578081fd5b8151611dfd816131d9565b600060208284031215612d68578081fd5b5035919050565b600060208284031215612d80578081fd5b5051919050565b60008060408385031215612d99578182fd5b50508035926020909101359150565b600060208284031215612db9578081fd5b815163ffffffff81168114611dfd578182fd5b60008251815b81811015612dec5760208186018101518583015201612dd2565b81811115612dfa5782828501525b509190910192915050565b6000606082016060835280865480835260808501915087845260209250828420845b82811015612e4c5781546001600160a01b031684529284019260019182019101612e27565b50505083810382850152855180825286830191830190845b81811015612e82578351151583529284019291840191600101612e64565b505085151560408601529250612e96915050565b949350505050565b602080825282518282018190526000919060409081850190868401855b82811015612f1657815180516001600160a01b03168552868101518786015285810151868601526060808201519086015260808082015115159086015260a09081015115159085015260c09093019290850190600101612ebb565b5091979650505050505050565b60208082526023908201527f5061796d656e742073686f756c642062652067726561746572207468616e207a60408201526265726f60e81b606082015260800190565b6020808252818101527f4f776e61626c653a2063616c6c6572206973206e6f7420746865206f776e6572604082015260600190565b60208082526026908201527f43616e277420627579206d6f7265207468616e206d6178696d756d20706572206040820152651dd85b1b195d60d21b606082015260800190565b60208082526023908201527f57726f6e67206e756d626572206f66207469636b65747320746f20707572636860408201526261736560e81b606082015260800190565b6020808252603c908201527f4e756d626572206f66207469636b65747320666f722070757263686173696e6760408201527f2073686f756c642062652067726561746572207468616e207a65726f00000000606082015260800190565b6020808252601f908201527f5265656e7472616e637947756172643a207265656e7472616e742063616c6c00604082015260600190565b604051601f8201601f1916810167ffffffffffffffff811182821017156130e1576130e16131c3565b604052919050565b600067ffffffffffffffff821115613103576131036131c3565b5060051b60200190565b60008219821115613120576131206131ad565b500190565b60008261314057634e487b7160e01b81526012600452602481fd5b500490565b600081600019048311821515161561315f5761315f6131ad565b500290565b600082821015613176576131766131ad565b500390565b60008161318a5761318a6131ad565b506000190190565b60006000198214156131a6576131a66131ad565b5060010190565b634e487b7160e01b600052601160045260246000fd5b634e487b7160e01b600052604160045260246000fd5b801515811461134c57600080fdfea2646970667358221220381bd775e3eb3f3c53c8aedded6f84b276a231ac7da3601bafc537c666c4278b64736f6c634300080400334f776e61626c653a2063616c6c6572206973206e6f7420746865206f776e6572",
  "linkReferences": {},
  "deployedLinkReferences": {}
}