{
  "_format": "hh-sol-artifact-1",
  "contractName": "MysteryBox",
  "sourceName": "contracts/MysteryBox.sol",
  "abi": [
    {
      "inputs": [
        {
          "internalType": "string",
          "name": "name",
          "type": "string"
        },
        {
          "internalType": "string",
          "name": "symbol",
          "type": "string"
        },
        {
          "internalType": "address",
          "name": "_key",
          "type": "address"
        },
        {
          "internalType": "address",
          "name": "_quote",
          "type": "address"
        },
        {
          "internalType": "address",
          "name": "_payment",
          "type": "address"
        },
        {
          "internalType": "address",
          "name": "_treasury",
          "type": "address"
        },
        {
          "internalType": "uint256[]",
          "name": "configValues",
          "type": "uint256[]"
        },
        {
          "internalType": "contract IWitnetRandomness",
          "name": "_witnetRandomness",
          "type": "address"
        }
      ],
      "stateMutability": "nonpayable",
      "type": "constructor"
    },
    {
      "anonymous": false,
      "inputs": [
        {
          "indexed": true,
          "internalType": "address",
          "name": "owner",
          "type": "address"
        },
        {
          "indexed": true,
          "internalType": "address",
          "name": "approved",
          "type": "address"
        },
        {
          "indexed": true,
          "internalType": "uint256",
          "name": "tokenId",
          "type": "uint256"
        }
      ],
      "name": "Approval",
      "type": "event"
    },
    {
      "anonymous": false,
      "inputs": [
        {
          "indexed": true,
          "internalType": "address",
          "name": "owner",
          "type": "address"
        },
        {
          "indexed": true,
          "internalType": "address",
          "name": "operator",
          "type": "address"
        },
        {
          "indexed": false,
          "internalType": "bool",
          "name": "approved",
          "type": "bool"
        }
      ],
      "name": "ApprovalForAll",
      "type": "event"
    },
    {
      "anonymous": false,
      "inputs": [
        {
          "indexed": false,
          "internalType": "address",
          "name": "",
          "type": "address"
        },
        {
          "indexed": false,
          "internalType": "string",
          "name": "",
          "type": "string"
        }
      ],
      "name": "Grant",
      "type": "event"
    },
    {
      "anonymous": false,
      "inputs": [
        {
          "indexed": true,
          "internalType": "address",
          "name": "previousOwner",
          "type": "address"
        },
        {
          "indexed": true,
          "internalType": "address",
          "name": "newOwner",
          "type": "address"
        }
      ],
      "name": "OwnershipTransferred",
      "type": "event"
    },
    {
      "anonymous": false,
      "inputs": [
        {
          "indexed": false,
          "internalType": "address",
          "name": "account",
          "type": "address"
        }
      ],
      "name": "Paused",
      "type": "event"
    },
    {
      "anonymous": false,
      "inputs": [
        {
          "indexed": true,
          "internalType": "bytes32",
          "name": "role",
          "type": "bytes32"
        },
        {
          "indexed": true,
          "internalType": "bytes32",
          "name": "previousAdminRole",
          "type": "bytes32"
        },
        {
          "indexed": true,
          "internalType": "bytes32",
          "name": "newAdminRole",
          "type": "bytes32"
        }
      ],
      "name": "RoleAdminChanged",
      "type": "event"
    },
    {
      "anonymous": false,
      "inputs": [
        {
          "indexed": true,
          "internalType": "bytes32",
          "name": "role",
          "type": "bytes32"
        },
        {
          "indexed": true,
          "internalType": "address",
          "name": "account",
          "type": "address"
        },
        {
          "indexed": true,
          "internalType": "address",
          "name": "sender",
          "type": "address"
        }
      ],
      "name": "RoleGranted",
      "type": "event"
    },
    {
      "anonymous": false,
      "inputs": [
        {
          "indexed": true,
          "internalType": "bytes32",
          "name": "role",
          "type": "bytes32"
        },
        {
          "indexed": true,
          "internalType": "address",
          "name": "account",
          "type": "address"
        },
        {
          "indexed": true,
          "internalType": "address",
          "name": "sender",
          "type": "address"
        }
      ],
      "name": "RoleRevoked",
      "type": "event"
    },
    {
      "anonymous": false,
      "inputs": [
        {
          "indexed": false,
          "internalType": "address",
          "name": "",
          "type": "address"
        },
        {
          "indexed": false,
          "internalType": "address",
          "name": "",
          "type": "address"
        },
        {
          "indexed": false,
          "internalType": "uint256",
          "name": "",
          "type": "uint256"
        }
      ],
      "name": "SetConfig",
      "type": "event"
    },
    {
      "anonymous": false,
      "inputs": [
        {
          "indexed": false,
          "internalType": "uint256",
          "name": "",
          "type": "uint256"
        }
      ],
      "name": "SetHardCap",
      "type": "event"
    },
    {
      "anonymous": false,
      "inputs": [
        {
          "indexed": false,
          "internalType": "uint256",
          "name": "",
          "type": "uint256"
        }
      ],
      "name": "SetLaunch",
      "type": "event"
    },
    {
      "anonymous": false,
      "inputs": [
        {
          "indexed": false,
          "internalType": "uint256",
          "name": "",
          "type": "uint256"
        }
      ],
      "name": "SetLockup",
      "type": "event"
    },
    {
      "anonymous": false,
      "inputs": [
        {
          "indexed": false,
          "internalType": "address",
          "name": "",
          "type": "address"
        },
        {
          "indexed": false,
          "internalType": "uint256",
          "name": "",
          "type": "uint256"
        }
      ],
      "name": "SetMboxKey",
      "type": "event"
    },
    {
      "anonymous": false,
      "inputs": [
        {
          "indexed": false,
          "internalType": "address",
          "name": "",
          "type": "address"
        }
      ],
      "name": "SetMysteryBox",
      "type": "event"
    },
    {
      "anonymous": false,
      "inputs": [
        {
          "indexed": false,
          "internalType": "address",
          "name": "",
          "type": "address"
        }
      ],
      "name": "SetQuote",
      "type": "event"
    },
    {
      "anonymous": false,
      "inputs": [
        {
          "indexed": false,
          "internalType": "address",
          "name": "",
          "type": "address"
        }
      ],
      "name": "SetSubscription",
      "type": "event"
    },
    {
      "anonymous": false,
      "inputs": [
        {
          "indexed": true,
          "internalType": "address",
          "name": "from",
          "type": "address"
        },
        {
          "indexed": true,
          "internalType": "address",
          "name": "to",
          "type": "address"
        },
        {
          "indexed": true,
          "internalType": "uint256",
          "name": "tokenId",
          "type": "uint256"
        }
      ],
      "name": "Transfer",
      "type": "event"
    },
    {
      "anonymous": false,
      "inputs": [
        {
          "indexed": false,
          "internalType": "address",
          "name": "account",
          "type": "address"
        }
      ],
      "name": "Unpaused",
      "type": "event"
    },
    {
      "inputs": [],
      "name": "DEFAULT_ADMIN_ROLE",
      "outputs": [
        {
          "internalType": "bytes32",
          "name": "",
          "type": "bytes32"
        }
      ],
      "stateMutability": "view",
      "type": "function"
    },
    {
      "inputs": [],
      "name": "MINTER_ROLE",
      "outputs": [
        {
          "internalType": "bytes32",
          "name": "",
          "type": "bytes32"
        }
      ],
      "stateMutability": "view",
      "type": "function"
    },
    {
      "inputs": [],
      "name": "PAUSER_ROLE",
      "outputs": [
        {
          "internalType": "bytes32",
          "name": "",
          "type": "bytes32"
        }
      ],
      "stateMutability": "view",
      "type": "function"
    },
    {
      "inputs": [
        {
          "internalType": "address",
          "name": "minter",
          "type": "address"
        }
      ],
      "name": "addMinter",
      "outputs": [],
      "stateMutability": "nonpayable",
      "type": "function"
    },
    {
      "inputs": [
        {
          "internalType": "address",
          "name": "pauser",
          "type": "address"
        }
      ],
      "name": "addPauser",
      "outputs": [],
      "stateMutability": "nonpayable",
      "type": "function"
    },
    {
      "inputs": [
        {
          "internalType": "address",
          "name": "to",
          "type": "address"
        },
        {
          "internalType": "uint256",
          "name": "tokenId",
          "type": "uint256"
        }
      ],
      "name": "approve",
      "outputs": [],
      "stateMutability": "nonpayable",
      "type": "function"
    },
    {
      "inputs": [
        {
          "internalType": "address",
          "name": "owner",
          "type": "address"
        }
      ],
      "name": "balanceOf",
      "outputs": [
        {
          "internalType": "uint256",
          "name": "",
          "type": "uint256"
        }
      ],
      "stateMutability": "view",
      "type": "function"
    },
    {
      "inputs": [
        {
          "internalType": "uint256",
          "name": "tokenId",
          "type": "uint256"
        }
      ],
      "name": "burn",
      "outputs": [],
      "stateMutability": "nonpayable",
      "type": "function"
    },
    {
      "inputs": [
        {
          "internalType": "uint256",
          "name": "_amount",
          "type": "uint256"
        }
      ],
      "name": "buyKeyEth",
      "outputs": [],
      "stateMutability": "payable",
      "type": "function"
    },
    {
      "inputs": [
        {
          "internalType": "uint256",
          "name": "_payment",
          "type": "uint256"
        },
        {
          "internalType": "uint256",
          "name": "_amount",
          "type": "uint256"
        }
      ],
      "name": "buyKeyQuote",
      "outputs": [],
      "stateMutability": "payable",
      "type": "function"
    },
    {
      "inputs": [
        {
          "internalType": "address",
          "name": "to",
          "type": "address"
        },
        {
          "internalType": "uint256",
          "name": "amount",
          "type": "uint256"
        }
      ],
      "name": "claim",
      "outputs": [],
      "stateMutability": "nonpayable",
      "type": "function"
    },
    {
      "inputs": [
        {
          "internalType": "address",
          "name": "to",
          "type": "address"
        },
        {
          "internalType": "uint256",
          "name": "_amount",
          "type": "uint256"
        }
      ],
      "name": "claimKeys",
      "outputs": [],
      "stateMutability": "nonpayable",
      "type": "function"
    },
    {
      "inputs": [
        {
          "internalType": "uint256",
          "name": "gasPrice",
          "type": "uint256"
        }
      ],
      "name": "estimateRandomizeFee",
      "outputs": [
        {
          "internalType": "uint256",
          "name": "",
          "type": "uint256"
        }
      ],
      "stateMutability": "view",
      "type": "function"
    },
    {
      "inputs": [],
      "name": "feeRate",
      "outputs": [
        {
          "internalType": "uint256",
          "name": "",
          "type": "uint256"
        }
      ],
      "stateMutability": "view",
      "type": "function"
    },
    {
      "inputs": [
        {
          "internalType": "uint256",
          "name": "tokenId",
          "type": "uint256"
        }
      ],
      "name": "getApproved",
      "outputs": [
        {
          "internalType": "address",
          "name": "",
          "type": "address"
        }
      ],
      "stateMutability": "view",
      "type": "function"
    },
    {
      "inputs": [],
      "name": "getItemAmounts",
      "outputs": [
        {
          "internalType": "uint256[]",
          "name": "",
          "type": "uint256[]"
        }
      ],
      "stateMutability": "view",
      "type": "function"
    },
    {
      "inputs": [],
      "name": "getItemRemains",
      "outputs": [
        {
          "internalType": "uint256",
          "name": "",
          "type": "uint256"
        }
      ],
      "stateMutability": "view",
      "type": "function"
    },
    {
      "inputs": [
        {
          "internalType": "bytes32",
          "name": "role",
          "type": "bytes32"
        }
      ],
      "name": "getRoleAdmin",
      "outputs": [
        {
          "internalType": "bytes32",
          "name": "",
          "type": "bytes32"
        }
      ],
      "stateMutability": "view",
      "type": "function"
    },
    {
      "inputs": [
        {
          "internalType": "address",
          "name": "_subAddr",
          "type": "address"
        }
      ],
      "name": "getSubInfos",
      "outputs": [
        {
          "internalType": "address",
          "name": "",
          "type": "address"
        },
        {
          "internalType": "uint256",
          "name": "",
          "type": "uint256"
        },
        {
          "internalType": "uint256",
          "name": "",
          "type": "uint256"
        }
      ],
      "stateMutability": "view",
      "type": "function"
    },
    {
      "inputs": [],
      "name": "globalURI",
      "outputs": [
        {
          "internalType": "string",
          "name": "",
          "type": "string"
        }
      ],
      "stateMutability": "view",
      "type": "function"
    },
    {
      "inputs": [
        {
          "internalType": "bytes32",
          "name": "role",
          "type": "bytes32"
        },
        {
          "internalType": "address",
          "name": "account",
          "type": "address"
        }
      ],
      "name": "grantRole",
      "outputs": [],
      "stateMutability": "nonpayable",
      "type": "function"
    },
    {
      "inputs": [],
      "name": "hardCap",
      "outputs": [
        {
          "internalType": "uint256",
          "name": "",
          "type": "uint256"
        }
      ],
      "stateMutability": "view",
      "type": "function"
    },
    {
      "inputs": [
        {
          "internalType": "bytes32",
          "name": "role",
          "type": "bytes32"
        },
        {
          "internalType": "address",
          "name": "account",
          "type": "address"
        }
      ],
      "name": "hasRole",
      "outputs": [
        {
          "internalType": "bool",
          "name": "",
          "type": "bool"
        }
      ],
      "stateMutability": "view",
      "type": "function"
    },
    {
      "inputs": [
        {
          "internalType": "address",
          "name": "owner",
          "type": "address"
        },
        {
          "internalType": "address",
          "name": "operator",
          "type": "address"
        }
      ],
      "name": "isApprovedForAll",
      "outputs": [
        {
          "internalType": "bool",
          "name": "",
          "type": "bool"
        }
      ],
      "stateMutability": "view",
      "type": "function"
    },
    {
      "inputs": [
        {
          "internalType": "uint256",
          "name": "",
          "type": "uint256"
        }
      ],
      "name": "itemAmounts",
      "outputs": [
        {
          "internalType": "uint256",
          "name": "",
          "type": "uint256"
        }
      ],
      "stateMutability": "view",
      "type": "function"
    },
    {
      "inputs": [
        {
          "internalType": "uint256",
          "name": "",
          "type": "uint256"
        }
      ],
      "name": "itemURIs",
      "outputs": [
        {
          "internalType": "string",
          "name": "",
          "type": "string"
        }
      ],
      "stateMutability": "view",
      "type": "function"
    },
    {
      "inputs": [
        {
          "internalType": "uint256",
          "name": "",
          "type": "uint256"
        }
      ],
      "name": "items",
      "outputs": [
        {
          "internalType": "uint256",
          "name": "",
          "type": "uint256"
        }
      ],
      "stateMutability": "view",
      "type": "function"
    },
    {
      "inputs": [],
      "name": "key",
      "outputs": [
        {
          "internalType": "address",
          "name": "",
          "type": "address"
        }
      ],
      "stateMutability": "view",
      "type": "function"
    },
    {
      "inputs": [],
      "name": "latestRandomizingBlock",
      "outputs": [
        {
          "internalType": "uint256",
          "name": "",
          "type": "uint256"
        }
      ],
      "stateMutability": "view",
      "type": "function"
    },
    {
      "inputs": [],
      "name": "launch",
      "outputs": [
        {
          "internalType": "uint256",
          "name": "",
          "type": "uint256"
        }
      ],
      "stateMutability": "view",
      "type": "function"
    },
    {
      "inputs": [],
      "name": "lockup",
      "outputs": [
        {
          "internalType": "uint256",
          "name": "",
          "type": "uint256"
        }
      ],
      "stateMutability": "view",
      "type": "function"
    },
    {
      "inputs": [],
      "name": "mysteryBox",
      "outputs": [
        {
          "internalType": "address",
          "name": "",
          "type": "address"
        }
      ],
      "stateMutability": "view",
      "type": "function"
    },
    {
      "inputs": [],
      "name": "name",
      "outputs": [
        {
          "internalType": "string",
          "name": "",
          "type": "string"
        }
      ],
      "stateMutability": "view",
      "type": "function"
    },
    {
      "inputs": [
        {
          "internalType": "address",
          "name": "operator",
          "type": "address"
        },
        {
          "internalType": "address",
          "name": "from",
          "type": "address"
        },
        {
          "internalType": "uint256",
          "name": "tokenId",
          "type": "uint256"
        },
        {
          "internalType": "bytes",
          "name": "data",
          "type": "bytes"
        }
      ],
      "name": "onERC721Received",
      "outputs": [
        {
          "internalType": "bytes4",
          "name": "",
          "type": "bytes4"
        }
      ],
      "stateMutability": "pure",
      "type": "function"
    },
    {
      "inputs": [],
      "name": "owner",
      "outputs": [
        {
          "internalType": "address",
          "name": "",
          "type": "address"
        }
      ],
      "stateMutability": "view",
      "type": "function"
    },
    {
      "inputs": [
        {
          "internalType": "uint256",
          "name": "tokenId",
          "type": "uint256"
        }
      ],
      "name": "ownerOf",
      "outputs": [
        {
          "internalType": "address",
          "name": "",
          "type": "address"
        }
      ],
      "stateMutability": "view",
      "type": "function"
    },
    {
      "inputs": [],
      "name": "pause",
      "outputs": [],
      "stateMutability": "nonpayable",
      "type": "function"
    },
    {
      "inputs": [],
      "name": "paused",
      "outputs": [
        {
          "internalType": "bool",
          "name": "",
          "type": "bool"
        }
      ],
      "stateMutability": "view",
      "type": "function"
    },
    {
      "inputs": [],
      "name": "payment",
      "outputs": [
        {
          "internalType": "address",
          "name": "",
          "type": "address"
        }
      ],
      "stateMutability": "view",
      "type": "function"
    },
    {
      "inputs": [],
      "name": "price",
      "outputs": [
        {
          "internalType": "uint256",
          "name": "",
          "type": "uint256"
        }
      ],
      "stateMutability": "view",
      "type": "function"
    },
    {
      "inputs": [],
      "name": "quote",
      "outputs": [
        {
          "internalType": "address",
          "name": "",
          "type": "address"
        }
      ],
      "stateMutability": "view",
      "type": "function"
    },
    {
      "inputs": [],
      "name": "randomness",
      "outputs": [
        {
          "internalType": "uint32",
          "name": "",
          "type": "uint32"
        }
      ],
      "stateMutability": "view",
      "type": "function"
    },
    {
      "inputs": [
        {
          "internalType": "string[]",
          "name": "uris",
          "type": "string[]"
        },
        {
          "internalType": "uint256[]",
          "name": "amounts",
          "type": "uint256[]"
        }
      ],
      "name": "registerItems",
      "outputs": [],
      "stateMutability": "nonpayable",
      "type": "function"
    },
    {
      "inputs": [],
      "name": "renounceOwnership",
      "outputs": [],
      "stateMutability": "nonpayable",
      "type": "function"
    },
    {
      "inputs": [
        {
          "internalType": "bytes32",
          "name": "role",
          "type": "bytes32"
        },
        {
          "internalType": "address",
          "name": "account",
          "type": "address"
        }
      ],
      "name": "renounceRole",
      "outputs": [],
      "stateMutability": "nonpayable",
      "type": "function"
    },
    {
      "inputs": [],
      "name": "requestRandomNumber",
      "outputs": [],
      "stateMutability": "payable",
      "type": "function"
    },
    {
      "inputs": [
        {
          "internalType": "bytes32",
          "name": "role",
          "type": "bytes32"
        },
        {
          "internalType": "address",
          "name": "account",
          "type": "address"
        }
      ],
      "name": "revokeRole",
      "outputs": [],
      "stateMutability": "nonpayable",
      "type": "function"
    },
    {
      "inputs": [
        {
          "internalType": "address",
          "name": "to",
          "type": "address"
        },
        {
          "internalType": "string[]",
          "name": "uris",
          "type": "string[]"
        }
      ],
      "name": "safeBatchMint",
      "outputs": [],
      "stateMutability": "view",
      "type": "function"
    },
    {
      "inputs": [
        {
          "internalType": "address",
          "name": "to",
          "type": "address"
        },
        {
          "internalType": "string",
          "name": "uri",
          "type": "string"
        },
        {
          "internalType": "uint256",
          "name": "amount",
          "type": "uint256"
        }
      ],
      "name": "safeBatchMintLight",
      "outputs": [],
      "stateMutability": "nonpayable",
      "type": "function"
    },
    {
      "inputs": [
        {
          "internalType": "address",
          "name": "to",
          "type": "address"
        },
        {
          "internalType": "string",
          "name": "uri",
          "type": "string"
        }
      ],
      "name": "safeMint",
      "outputs": [
        {
          "internalType": "uint256",
          "name": "",
          "type": "uint256"
        }
      ],
      "stateMutability": "view",
      "type": "function"
    },
    {
      "inputs": [
        {
          "internalType": "address",
          "name": "to",
          "type": "address"
        }
      ],
      "name": "safeMintTo",
      "outputs": [],
      "stateMutability": "nonpayable",
      "type": "function"
    },
    {
      "inputs": [
        {
          "internalType": "address",
          "name": "from",
          "type": "address"
        },
        {
          "internalType": "address",
          "name": "to",
          "type": "address"
        },
        {
          "internalType": "uint256",
          "name": "tokenId",
          "type": "uint256"
        }
      ],
      "name": "safeTransferFrom",
      "outputs": [],
      "stateMutability": "nonpayable",
      "type": "function"
    },
    {
      "inputs": [
        {
          "internalType": "address",
          "name": "from",
          "type": "address"
        },
        {
          "internalType": "address",
          "name": "to",
          "type": "address"
        },
        {
          "internalType": "uint256",
          "name": "tokenId",
          "type": "uint256"
        },
        {
          "internalType": "bytes",
          "name": "_data",
          "type": "bytes"
        }
      ],
      "name": "safeTransferFrom",
      "outputs": [],
      "stateMutability": "nonpayable",
      "type": "function"
    },
    {
      "inputs": [
        {
          "internalType": "address",
          "name": "operator",
          "type": "address"
        },
        {
          "internalType": "bool",
          "name": "approved",
          "type": "bool"
        }
      ],
      "name": "setApprovalForAll",
      "outputs": [],
      "stateMutability": "nonpayable",
      "type": "function"
    },
    {
      "inputs": [
        {
          "internalType": "address",
          "name": "_payment",
          "type": "address"
        },
        {
          "internalType": "address",
          "name": "_treasury",
          "type": "address"
        },
        {
          "internalType": "uint256",
          "name": "_feeRate",
          "type": "uint256"
        }
      ],
      "name": "setConfig",
      "outputs": [],
      "stateMutability": "nonpayable",
      "type": "function"
    },
    {
      "inputs": [
        {
          "internalType": "uint256",
          "name": "_hardCap",
          "type": "uint256"
        },
        {
          "internalType": "string",
          "name": "_uri",
          "type": "string"
        }
      ],
      "name": "setHardCap",
      "outputs": [],
      "stateMutability": "nonpayable",
      "type": "function"
    },
    {
      "inputs": [
        {
          "internalType": "uint256",
          "name": "_launch",
          "type": "uint256"
        }
      ],
      "name": "setLaunch",
      "outputs": [],
      "stateMutability": "nonpayable",
      "type": "function"
    },
    {
      "inputs": [
        {
          "internalType": "uint256",
          "name": "_lockup",
          "type": "uint256"
        }
      ],
      "name": "setLockup",
      "outputs": [],
      "stateMutability": "nonpayable",
      "type": "function"
    },
    {
      "inputs": [
        {
          "internalType": "address",
          "name": "_key",
          "type": "address"
        },
        {
          "internalType": "uint256",
          "name": "_price",
          "type": "uint256"
        }
      ],
      "name": "setMboxKey",
      "outputs": [],
      "stateMutability": "nonpayable",
      "type": "function"
    },
    {
      "inputs": [
        {
          "internalType": "address",
          "name": "_mbox",
          "type": "address"
        }
      ],
      "name": "setMysteryBox",
      "outputs": [],
      "stateMutability": "nonpayable",
      "type": "function"
    },
    {
      "inputs": [
        {
          "internalType": "address",
          "name": "_quote",
          "type": "address"
        }
      ],
      "name": "setQuote",
      "outputs": [],
      "stateMutability": "nonpayable",
      "type": "function"
    },
    {
      "inputs": [
        {
          "internalType": "address",
          "name": "_subscription",
          "type": "address"
        },
        {
          "internalType": "uint256",
          "name": "_type",
          "type": "uint256"
        },
        {
          "internalType": "uint256",
          "name": "_amount",
          "type": "uint256"
        }
      ],
      "name": "setSubscription",
      "outputs": [],
      "stateMutability": "nonpayable",
      "type": "function"
    },
    {
      "inputs": [
        {
          "internalType": "address",
          "name": "",
          "type": "address"
        }
      ],
      "name": "subAddrs",
      "outputs": [
        {
          "internalType": "uint256",
          "name": "",
          "type": "uint256"
        }
      ],
      "stateMutability": "view",
      "type": "function"
    },
    {
      "inputs": [
        {
          "internalType": "uint256",
          "name": "",
          "type": "uint256"
        }
      ],
      "name": "subInfos",
      "outputs": [
        {
          "internalType": "address",
          "name": "contractAddr",
          "type": "address"
        },
        {
          "internalType": "uint256",
          "name": "contractType",
          "type": "uint256"
        },
        {
          "internalType": "uint256",
          "name": "amount",
          "type": "uint256"
        },
        {
          "internalType": "uint256",
          "name": "start",
          "type": "uint256"
        },
        {
          "internalType": "uint256",
          "name": "end",
          "type": "uint256"
        },
        {
          "internalType": "uint256",
          "name": "count",
          "type": "uint256"
        }
      ],
      "stateMutability": "view",
      "type": "function"
    },
    {
      "inputs": [
        {
          "internalType": "bytes4",
          "name": "interfaceId",
          "type": "bytes4"
        }
      ],
      "name": "supportsInterface",
      "outputs": [
        {
          "internalType": "bool",
          "name": "",
          "type": "bool"
        }
      ],
      "stateMutability": "view",
      "type": "function"
    },
    {
      "inputs": [],
      "name": "symbol",
      "outputs": [
        {
          "internalType": "string",
          "name": "",
          "type": "string"
        }
      ],
      "stateMutability": "view",
      "type": "function"
    },
    {
      "inputs": [
        {
          "internalType": "uint256",
          "name": "index",
          "type": "uint256"
        }
      ],
      "name": "tokenByIndex",
      "outputs": [
        {
          "internalType": "uint256",
          "name": "",
          "type": "uint256"
        }
      ],
      "stateMutability": "view",
      "type": "function"
    },
    {
      "inputs": [
        {
          "internalType": "address",
          "name": "owner",
          "type": "address"
        },
        {
          "internalType": "uint256",
          "name": "index",
          "type": "uint256"
        }
      ],
      "name": "tokenOfOwnerByIndex",
      "outputs": [
        {
          "internalType": "uint256",
          "name": "",
          "type": "uint256"
        }
      ],
      "stateMutability": "view",
      "type": "function"
    },
    {
      "inputs": [
        {
          "internalType": "uint256",
          "name": "tokenId",
          "type": "uint256"
        }
      ],
      "name": "tokenURI",
      "outputs": [
        {
          "internalType": "string",
          "name": "",
          "type": "string"
        }
      ],
      "stateMutability": "view",
      "type": "function"
    },
    {
      "inputs": [],
      "name": "totalItems",
      "outputs": [
        {
          "internalType": "uint256",
          "name": "",
          "type": "uint256"
        }
      ],
      "stateMutability": "view",
      "type": "function"
    },
    {
      "inputs": [],
      "name": "totalSupply",
      "outputs": [
        {
          "internalType": "uint256",
          "name": "",
          "type": "uint256"
        }
      ],
      "stateMutability": "view",
      "type": "function"
    },
    {
      "inputs": [
        {
          "internalType": "address",
          "name": "from",
          "type": "address"
        },
        {
          "internalType": "address",
          "name": "to",
          "type": "address"
        },
        {
          "internalType": "uint256",
          "name": "tokenId",
          "type": "uint256"
        }
      ],
      "name": "transferFrom",
      "outputs": [],
      "stateMutability": "nonpayable",
      "type": "function"
    },
    {
      "inputs": [
        {
          "internalType": "address",
          "name": "newOwner",
          "type": "address"
        }
      ],
      "name": "transferOwnership",
      "outputs": [],
      "stateMutability": "nonpayable",
      "type": "function"
    },
    {
      "inputs": [],
      "name": "treasury",
      "outputs": [
        {
          "internalType": "address",
          "name": "",
          "type": "address"
        }
      ],
      "stateMutability": "view",
      "type": "function"
    },
    {
      "inputs": [],
      "name": "unpause",
      "outputs": [],
      "stateMutability": "nonpayable",
      "type": "function"
    },
    {
      "inputs": [],
      "name": "witnet",
      "outputs": [
        {
          "internalType": "contract IWitnetRandomness",
          "name": "",
          "type": "address"
        }
      ],
      "stateMutability": "view",
      "type": "function"
    },
    {
      "stateMutability": "payable",
      "type": "receive"
    }
  ],
  "bytecode": "0x60a06040526000600d819055601380546001600160a01b031916905560178190556032601c55601f8190556022805460ff1916905560248190556026553480156200004957600080fd5b50604051620063bd380380620063bd8339810160408190526200006c91620009f4565b8787818181600090805190602001906200008892919062000815565b5080516200009e90600190602084019062000815565b5050600b805460ff1916905550620000b633620002d3565b620000c36000336200032d565b620000de6000805160206200637d833981519152336200032d565b620000f96000805160206200639d833981519152336200032d565b505060016011558151600414620001575760405162461bcd60e51b815260206004820152601a60248201527f696e76616c696420636f6e6669672064617461206c656e67746800000000000060448201526064015b60405180910390fd5b620001646000336200032d565b6200017f6000805160206200637d833981519152336200032d565b6200019a6000805160206200639d833981519152336200032d565b620001d482600081518110620001c057634e487b7160e01b600052603260045260246000fd5b6020026020010151620003d260201b60201c565b6200020e82600181518110620001fa57634e487b7160e01b600052603260045260246000fd5b60200260200101516200045f60201b60201c565b6200024986836002815181106200023557634e487b7160e01b600052603260045260246000fd5b6020026020010151620004e660201b60201c565b620002858484846003815181106200027157634e487b7160e01b600052603260045260246000fd5b6020026020010151620005f960201b60201c565b620002908562000775565b6001600160a01b038116620002b557634e487b7160e01b600052600160045260246000fd5b60601b6001600160601b0319166080525062000b6595505050505050565b600b80546001600160a01b03838116610100818102610100600160a81b031985161790945560405193909204169182907f8be0079c531659141344cd1fd0a4f28419497f9722a3daafe3b4186f6b6457e090600090a35050565b6000828152600c602090815260408083206001600160a01b038516845290915290205460ff16620003ce576000828152600c602090815260408083206001600160a01b03851684529091529020805460ff191660011790556200038d3390565b6001600160a01b0316816001600160a01b0316837f2f8788117e7eff1d82e926ec794901d17c78024a50270940304540a733656f0d60405160405180910390a45b5050565b600b546001600160a01b03610100909104163314620004235760405162461bcd60e51b815260206004820181905260248201526000805160206200635d83398151915260448201526064016200014e565b60188190556040518181527f7c8826e4db3679f20c86da0c68d37f9dbcd1d638c56717e014f93c56d14c02d1906020015b60405180910390a150565b600b546001600160a01b03610100909104163314620004b05760405162461bcd60e51b815260206004820181905260248201526000805160206200635d83398151915260448201526064016200014e565b60198190556040518181527fa7ade4ab976b6643a971383d9822fb7c2fce66aa2e497d88c3b4f1475ea2b2e09060200162000454565b600b546001600160a01b03610100909104163314620005375760405162461bcd60e51b815260206004820181905260248201526000805160206200635d83398151915260448201526064016200014e565b6001600160a01b038216620005995760405162461bcd60e51b815260206004820152602160248201527f57726f6e67204d797374657279426f7820636f6e7472616374206164647265736044820152607360f81b60648201526084016200014e565b601280546001600160a01b0319166001600160a01b038416908117909155601482905560408051918252602082018390527fd46fcdc06972a446de426e47c59c6a0c4581b5c0116ac49a2efc3e7d23bdfe72910160405180910390a15050565b600b546001600160a01b036101009091041633146200064a5760405162461bcd60e51b815260206004820181905260248201526000805160206200635d83398151915260448201526064016200014e565b6001600160a01b038316620006a25760405162461bcd60e51b815260206004820152601760248201527f696e76616c6964207061796d656e74206164647265737300000000000000000060448201526064016200014e565b6001600160a01b038216620006fa5760405162461bcd60e51b815260206004820152601860248201527f696e76616c69642074726561737572792061646472657373000000000000000060448201526064016200014e565b601a80546001600160a01b038581166001600160a01b03199283168117909355601b8054918616919092168117909155601c83905560408051928352602083019190915281018290527fe2be3027f197494650b7a98fd1cae67dacf615bd1d8bb05102999676f11638669060600160405180910390a1505050565b600b546001600160a01b03610100909104163314620007c65760405162461bcd60e51b815260206004820181905260248201526000805160206200635d83398151915260448201526064016200014e565b601380546001600160a01b0319166001600160a01b0383169081179091556040519081527fca92c759228172fe3894a344908fd20dfd37ba561b5af191f1f5b02ee03881fc9060200162000454565b828054620008239062000b12565b90600052602060002090601f01602090048101928262000847576000855562000892565b82601f106200086257805160ff191683800117855562000892565b8280016001018555821562000892579182015b828111156200089257825182559160200191906001019062000875565b50620008a0929150620008a4565b5090565b5b80821115620008a05760008155600101620008a5565b80516001600160a01b0381168114620008d357600080fd5b919050565b600082601f830112620008e9578081fd5b815160206001600160401b0382111562000907576200090762000b4f565b8160051b6200091882820162000adf565b83815282810190868401838801850189101562000933578687fd5b8693505b858410156200095757805183526001939093019291840191840162000937565b50979650505050505050565b600082601f83011262000974578081fd5b81516001600160401b0381111562000990576200099062000b4f565b6020620009a6601f8301601f1916820162000adf565b8281528582848701011115620009ba578384fd5b835b83811015620009d9578581018301518282018401528201620009bc565b83811115620009ea57848385840101525b5095945050505050565b600080600080600080600080610100898b03121562000a11578384fd5b88516001600160401b038082111562000a28578586fd5b62000a368c838d0162000963565b995060208b015191508082111562000a4c578586fd5b62000a5a8c838d0162000963565b985062000a6a60408c01620008bb565b975062000a7a60608c01620008bb565b965062000a8a60808c01620008bb565b955062000a9a60a08c01620008bb565b945060c08b015191508082111562000ab0578384fd5b5062000abf8b828c01620008d8565b92505062000ad060e08a01620008bb565b90509295985092959890939650565b604051601f8201601f191681016001600160401b038111828210171562000b0a5762000b0a62000b4f565b604052919050565b600181811c9082168062000b2757607f821691505b6020821081141562000b4957634e487b7160e01b600052602260045260246000fd5b50919050565b634e487b7160e01b600052604160045260246000fd5b60805160601c6157c462000b9960003960008181610881015281816123550152818161272b0152613ab001526157c46000f3fe60806040526004361061044b5760003560e01c80636ae6b45911610234578063a22cb4651161012e578063c87b56dd116100b6578063e63ab1e91161007a578063e63ab1e914610e25578063e985e9c514610e47578063f2fde38b14610e90578063fb86a40414610eb0578063fcd1ee1014610ec657600080fd5b8063c87b56dd14610d8e578063d204c45e14610dae578063d3d3224a14610dce578063d539139314610de3578063d547741f14610e0557600080fd5b8063b1fa4176116100fd578063b1fa417614610cf8578063b5a87cc114610d0e578063b88d4fde14610d2e578063bfb231d214610d4e578063c38b761c14610d6e57600080fd5b8063a22cb46514610c78578063a2aa61eb14610c98578063a60ee26814610cb8578063aad3ec9614610cd857600080fd5b80638a55b866116101bc578063978bbdb911610180578063978bbdb914610bf7578063983b2d5614610c0d578063999b93af14610c2d578063a035b1fe14610c4d578063a217fddf14610c6357600080fd5b80638a55b86614610b5f5780638da5cb5b14610b7f578063902835f614610ba257806391d1485414610bc257806395d89b4114610be257600080fd5b80637b43b827116102035780637b43b82714610ae25780637e9598ae14610b0257806382dc1ec414610b225780638456cb5914610b425780638678a7b214610b5757600080fd5b80636ae6b459146109d057806370a08231146109f0578063715018a614610a10578063786e435c14610a2557600080fd5b806338e2d924116103455780634f6ccce7116102cd5780635d1d37c3116102915780635d1d37c31461093b5780635d814dea1461095b5780635dce73831461097b57806361d027b3146109905780636352211e146109b057600080fd5b80634f6ccce7146108a3578063557dee1f146108c357806355d69962146108d657806358dd6d95146109035780635c975abb1461092357600080fd5b80633f4ba83a116103145780633f4ba83a146107fa57806342842e0e1461080f57806342966c681461082f57806342f6487a1461084f57806346d1d21a1461086f57600080fd5b806338e2d924146107165780633943380c1461072957806339eff2be146107495780633a1395de146107da57600080fd5b8063230a67ee116103d35780632d97714d116103975780632d97714d146106625780632f2ff15d146106845780632f745c59146106a457806336013189146106c457806336568abe146106f657600080fd5b8063230a67ee146105bc57806323b872dd146105dc57806324490659146105fc578063248a9ca31461061c5780632799276d1461064c57600080fd5b8063081812fc1161041a578063081812fc146104e8578063095ea7b314610520578063150b7a021461054257806318160ddd1461058757806321bae9e41461059c57600080fd5b806301339c211461045757806301ffc9a71461048057806306490f47146104b057806306fdde03146104c657600080fd5b3661045257005b600080fd5b34801561046357600080fd5b5061046d60185481565b6040519081526020015b60405180910390f35b34801561048c57600080fd5b506104a061049b3660046151cf565b610ee6565b6040519015158152602001610477565b3480156104bc57600080fd5b5061046d60195481565b3480156104d257600080fd5b506104db610f11565b60405161047791906153ff565b3480156104f457600080fd5b50610508610503366004615195565b610fa3565b6040516001600160a01b039091168152602001610477565b34801561052c57600080fd5b5061054061053b366004615063565b611030565b005b34801561054e57600080fd5b5061056e61055d366004614e40565b630a85bd0160e11b95945050505050565b6040516001600160e01b03199091168152602001610477565b34801561059357600080fd5b5060085461046d565b3480156105a857600080fd5b506105406105b7366004614db9565b611146565b3480156105c857600080fd5b506105406105d73660046150be565b611293565b3480156105e857600080fd5b506105406105f7366004614e05565b6113de565b34801561060857600080fd5b5061054061061736600461521f565b611410565b34801561062857600080fd5b5061046d610637366004615195565b6000908152600c602052604090206001015490565b34801561065857600080fd5b5061046d60175481565b34801561066e57600080fd5b50610677611498565b60405161047791906153bb565b34801561069057600080fd5b5061054061069f3660046151ad565b6114f4565b3480156106b057600080fd5b5061046d6106bf366004615063565b611519565b3480156106d057600080fd5b50601d546106e19063ffffffff1681565b60405163ffffffff9091168152602001610477565b34801561070257600080fd5b506105406107113660046151ad565b6115af565b61054061072436600461524d565b61162d565b34801561073557600080fd5b50601254610508906001600160a01b031681565b34801561075557600080fd5b506107a3610764366004615195565b6023602052600090815260409020805460018201546002830154600384015460048501546005909501546001600160a01b039094169492939192909186565b604080516001600160a01b0390971687526020870195909552938501929092526060840152608083015260a082015260c001610477565b3480156107e657600080fd5b506105406107f536600461508c565b6118ac565b34801561080657600080fd5b50610540611a6d565b34801561081b57600080fd5b5061054061082a366004614e05565b611a90565b34801561083b57600080fd5b5061054061084a366004615195565b611aab565b34801561085b57600080fd5b50601a54610508906001600160a01b031681565b34801561087b57600080fd5b506105087f000000000000000000000000000000000000000000000000000000000000000081565b3480156108af57600080fd5b5061046d6108be366004615195565b611b22565b6105406108d1366004615195565b611bc3565b3480156108e257600080fd5b5061046d6108f1366004614db9565b60256020526000908152604090205481565b34801561090f57600080fd5b5061054061091e366004614f4d565b611d92565b34801561092f57600080fd5b50600b5460ff166104a0565b34801561094757600080fd5b50610540610956366004615195565b611ddd565b34801561096757600080fd5b506104db610976366004615195565b611e49565b34801561098757600080fd5b5061046d611ef5565b34801561099c57600080fd5b50601b54610508906001600160a01b031681565b3480156109bc57600080fd5b506105086109cb366004615195565b611f5c565b3480156109dc57600080fd5b506105406109eb366004615195565b611fd3565b3480156109fc57600080fd5b5061046d610a0b366004614db9565b612038565b348015610a1c57600080fd5b506105406120bf565b348015610a3157600080fd5b50610abd610a40366004614db9565b6001600160a01b0390811660009081526025602090815260408083205483526023825291829020825160c08101845281548516815260018201549281019290925260028101549282019290925260038201546060820181905260048301546080830181905260059093015460a09092019190915260125490921692565b604080516001600160a01b039094168452602084019290925290820152606001610477565b348015610aee57600080fd5b50610540610afd366004614db9565b6120fb565b348015610b0e57600080fd5b50610540610b1d366004615063565b61219b565b348015610b2e57600080fd5b50610540610b3d366004614db9565b612284565b348015610b4e57600080fd5b5061054061232a565b61054061234a565b348015610b6b57600080fd5b5061046d610b7a366004615195565b612427565b348015610b8b57600080fd5b50600b5461010090046001600160a01b0316610508565b348015610bae57600080fd5b50610540610bbd366004614e05565b612448565b348015610bce57600080fd5b506104a0610bdd3660046151ad565b61259f565b348015610bee57600080fd5b506104db6125ca565b348015610c0357600080fd5b5061046d601c5481565b348015610c1957600080fd5b50610540610c28366004614db9565b6125d9565b348015610c3957600080fd5b50601354610508906001600160a01b031681565b348015610c5957600080fd5b5061046d60145481565b348015610c6f57600080fd5b5061046d600081565b348015610c8457600080fd5b50610540610c93366004614f98565b61267f565b348015610ca457600080fd5b50610540610cb3366004614db9565b61268a565b348015610cc457600080fd5b5061046d610cd3366004615195565b612708565b348015610ce457600080fd5b50610540610cf3366004615063565b6127ac565b348015610d0457600080fd5b5061046d601e5481565b348015610d1a57600080fd5b50610540610d2936600461500f565b612b93565b348015610d3a57600080fd5b50610540610d49366004614ed5565b612c25565b348015610d5a57600080fd5b5061046d610d69366004615195565b612c5d565b348015610d7a57600080fd5b50600f54610508906001600160a01b031681565b348015610d9a57600080fd5b506104db610da9366004615195565b612c6d565b348015610dba57600080fd5b5061046d610dc9366004614fce565b612c78565b348015610dda57600080fd5b506104db612c92565b348015610def57600080fd5b5061046d60008051602061576f83398151915281565b348015610e1157600080fd5b50610540610e203660046151ad565b612c9f565b348015610e3157600080fd5b5061046d60008051602061574f83398151915281565b348015610e5357600080fd5b506104a0610e62366004614dd3565b6001600160a01b03918216600090815260056020908152604080832093909416825291909152205460ff1690565b348015610e9c57600080fd5b50610540610eab366004614db9565b612cc4565b348015610ebc57600080fd5b5061046d600d5481565b348015610ed257600080fd5b50610540610ee1366004615063565b612d62565b60006001600160e01b031982166380ac58cd60e01b1480610f0b5750610f0b826130e4565b92915050565b606060008054610f2090615684565b80601f0160208091040260200160405190810160405280929190818152602001828054610f4c90615684565b8015610f995780601f10610f6e57610100808354040283529160200191610f99565b820191906000526020600020905b815481529060010190602001808311610f7c57829003601f168201915b5050505050905090565b6000610fae82613109565b6110145760405162461bcd60e51b815260206004820152602c60248201527f4552433732313a20617070726f76656420717565727920666f72206e6f6e657860448201526b34b9ba32b73a103a37b5b2b760a11b60648201526084015b60405180910390fd5b506000908152600460205260409020546001600160a01b031690565b600061103b82611f5c565b9050806001600160a01b0316836001600160a01b031614156110a95760405162461bcd60e51b815260206004820152602160248201527f4552433732313a20617070726f76616c20746f2063757272656e74206f776e656044820152603960f91b606482015260840161100b565b336001600160a01b03821614806110c557506110c58133610e62565b6111375760405162461bcd60e51b815260206004820152603860248201527f4552433732313a20617070726f76652063616c6c6572206973206e6f74206f7760448201527f6e6572206e6f7220617070726f76656420666f7220616c6c0000000000000000606482015260840161100b565b6111418383613126565b505050565b60008051602061576f83398151915261115e81613194565b6000600e805461116d90615684565b9050116111b45760405162461bcd60e51b815260206004820152601560248201527411db1bd8985b08155492481a5cc81b9bdd081cd95d605a1b604482015260640161100b565b6001600160a01b0382166111ff5760405162461bcd60e51b8152602060048201526012602482015271496e76616c696420746f206164647265737360701b604482015260640161100b565b61114182600e805461121090615684565b80601f016020809104026020016040519081016040528092919081815260200182805461123c90615684565b80156112895780601f1061125e57610100808354040283529160200191611289565b820191906000526020600020905b81548152906001019060200180831161126c57829003601f168201915b5050505050612c78565b60008051602061576f8339815191526112ab81613194565b60225460ff16156112fe5760405162461bcd60e51b815260206004820152601860248201527f4974656d7320616c726561647920726567697374657265640000000000000000604482015260640161100b565b81518351146113475760405162461bcd60e51b8152602060048201526015602482015274082e4e4c2f240d8cadccee8d040dad2e6dac2e8c6d605b1b604482015260640161100b565b815161135a906021906020850190614b17565b50825161136d9060209081860190614b62565b5060005b83518110156113cb576113b683828151811061139d57634e487b7160e01b600052603260045260246000fd5b602002602001015160175461319e90919063ffffffff16565b601755806113c3816156b9565b915050611371565b50506022805460ff191660011790555050565b6113e9335b826131aa565b6114055760405162461bcd60e51b815260040161100b9061553b565b611141838383613294565b600b546001600160a01b036101009091041633146114405760405162461bcd60e51b815260040161100b9061548e565b600d829055805161145890600e906020840190614bbb565b507f57bbf0b7295e3c8587fe0fa3c76592771f6a96123bf723292fd0e3933436b71f600d5460405161148c91815260200190565b60405180910390a15050565b6060600060218054806020026020016040519081016040528092919081815260200182805480156114e857602002820191906000526020600020905b8154815260200190600101908083116114d4575b50939695505050505050565b6000828152600c602052604090206001015461150f81613194565b611141838361343b565b600061152483612038565b82106115865760405162461bcd60e51b815260206004820152602b60248201527f455243373231456e756d657261626c653a206f776e657220696e646578206f7560448201526a74206f6620626f756e647360a81b606482015260840161100b565b506001600160a01b03919091166000908152600660209081526040808320938352929052205490565b6001600160a01b038116331461161f5760405162461bcd60e51b815260206004820152602f60248201527f416363657373436f6e74726f6c3a2063616e206f6e6c792072656e6f756e636560448201526e103937b632b9903337b91039b2b63360891b606482015260840161100b565b61162982826134c1565b5050565b6013546001600160a01b03166116795760405162461bcd60e51b81526020600482015260116024820152702bb937b7339038bab7ba32903a37b5b2b760791b604482015260640161100b565b60185442116116ca5760405162461bcd60e51b815260206004820152601b60248201527f4e6f7420796574206c61756e63682074696d6520726561636865640000000000604482015260640161100b565b600082116116ea5760405162461bcd60e51b815260040161100b906154fa565b6014546116f8908290613528565b82146117165760405162461bcd60e51b815260040161100b906154c3565b601454611724908290613528565b82146117425760405162461bcd60e51b815260040161100b906154c3565b6013546040516370a0823160e01b81523360048201526000916001600160a01b0316906370a082319060240160206040518083038186803b15801561178657600080fd5b505afa15801561179a573d6000803e3d6000fd5b505050506040513d601f19601f820116820180604052508101906117be9190615207565b905082811161180f5760405162461bcd60e51b815260206004820152601b60248201527f6c61636b206f662071756f746520746f6b656e2062616c616e63650000000000604482015260640161100b565b601354611827906001600160a01b0316333086613534565b60005b828110156118a25760125460405163086eba7960e21b81523360048201526001600160a01b03909116906321bae9e490602401600060405180830381600087803b15801561187757600080fd5b505af115801561188b573d6000803e3d6000fd5b50505050808061189a906156b9565b91505061182a565b5061114182613672565b600b546001600160a01b036101009091041633146118dc5760405162461bcd60e51b815260040161100b9061548e565b6001600160a01b03831661193e5760405162461bcd60e51b815260206004820152602360248201527f57726f6e6720537562736372697074696f6e20636f6e7472616374206164647260448201526265737360e81b606482015260840161100b565b6024546001600160a01b03841660009081526025602052604081209190915560265461197790600190611971908561319e565b90613839565b6040805160c0810182526001600160a01b03878116825260208083018881528385018881526026546060860190815260808601888152600060a088018181526024805483526023909752988120975188546001600160a01b0319169716969096178755925160018701559051600286015551600385015551600484015592516005909201919091558154929350611a0d836156b9565b9091555050602654611a1f908361319e565b602655611a2b846125d9565b6040516001600160a01b03851681527f17c74683f7319a4225517b5017988f05364289712fe6386d78e265035a7872259060200160405180910390a150505050565b60008051602061574f833981519152611a8581613194565b611a8d613845565b50565b61114183838360405180602001604052806000815250612c25565b611ab4336113e3565b611b195760405162461bcd60e51b815260206004820152603060248201527f4552433732314275726e61626c653a2063616c6c6572206973206e6f74206f7760448201526f1b995c881b9bdc88185c1c1c9bdd995960821b606482015260840161100b565b611a8d816138d8565b6000611b2d60085490565b8210611b905760405162461bcd60e51b815260206004820152602c60248201527f455243373231456e756d657261626c653a20676c6f62616c20696e646578206f60448201526b7574206f6620626f756e647360a01b606482015260840161100b565b60088281548110611bb157634e487b7160e01b600052603260045260246000fd5b90600052602060002001549050919050565b6013546001600160a01b031615611c105760405162461bcd60e51b81526020600482015260116024820152702bb937b7339038bab7ba32903a37b5b2b760791b604482015260640161100b565b6018544211611c615760405162461bcd60e51b815260206004820152601b60248201527f4e6f7420796574206c61756e63682074696d6520726561636865640000000000604482015260640161100b565b60003411611c815760405162461bcd60e51b815260040161100b906154fa565b601454611c8f908290613528565b3414611cad5760405162461bcd60e51b815260040161100b906154c3565b6012546001600160a01b031615801590611cc75750602454155b611d0d5760405162461bcd60e51b81526020600482015260176024820152761ad95e4818dbdb9d1c9858dd081a5cc81b9bdd081cd95d604a1b604482015260640161100b565b60005b81811015611d885760125460405163086eba7960e21b81523360048201526001600160a01b03909116906321bae9e490602401600060405180830381600087803b158015611d5d57600080fd5b505af1158015611d71573d6000803e3d6000fd5b505050508080611d80906156b9565b915050611d10565b50611a8d81613672565b60008051602061576f833981519152611daa81613194565b60405162461bcd60e51b8152602060048201526008602482015267111a5cd8589b195960c21b604482015260640161100b565b600b546001600160a01b03610100909104163314611e0d5760405162461bcd60e51b815260040161100b9061548e565b60188190556040518181527f7c8826e4db3679f20c86da0c68d37f9dbcd1d638c56717e014f93c56d14c02d1906020015b60405180910390a150565b60208181548110611e5957600080fd5b906000526020600020016000915090508054611e7490615684565b80601f0160208091040260200160405190810160405280929190818152602001828054611ea090615684565b8015611eed5780601f10611ec257610100808354040283529160200191611eed565b820191906000526020600020905b815481529060010190602001808311611ed057829003601f168201915b505050505081565b600080805b602154811015611f5657611f4260218281548110611f2857634e487b7160e01b600052603260045260246000fd5b90600052602060002001548361319e90919063ffffffff16565b915080611f4e816156b9565b915050611efa565b50919050565b6000818152600260205260408120546001600160a01b031680610f0b5760405162461bcd60e51b815260206004820152602960248201527f4552433732313a206f776e657220717565727920666f72206e6f6e657869737460448201526832b73a103a37b5b2b760b91b606482015260840161100b565b600b546001600160a01b036101009091041633146120035760405162461bcd60e51b815260040161100b9061548e565b60198190556040518181527fa7ade4ab976b6643a971383d9822fb7c2fce66aa2e497d88c3b4f1475ea2b2e090602001611e3e565b60006001600160a01b0382166120a35760405162461bcd60e51b815260206004820152602a60248201527f4552433732313a2062616c616e636520717565727920666f7220746865207a65604482015269726f206164647265737360b01b606482015260840161100b565b506001600160a01b031660009081526003602052604090205490565b600b546001600160a01b036101009091041633146120ef5760405162461bcd60e51b815260040161100b9061548e565b6120f960006138e1565b565b600b546001600160a01b0361010090910416331461212b5760405162461bcd60e51b815260040161100b9061548e565b600f80546001600160a01b0319166001600160a01b03831617905561215e60008051602061576f8339815191528261343b565b600f546040516001600160a01b0390911681527f329b1203fc60a62c4a0fd3ff1554a07f92a2f117cc590422dd105811bb484ded90602001611e3e565b600b546001600160a01b036101009091041633146121cb5760405162461bcd60e51b815260040161100b9061548e565b6001600160a01b03821661222b5760405162461bcd60e51b815260206004820152602160248201527f57726f6e67204d797374657279426f7820636f6e7472616374206164647265736044820152607360f81b606482015260840161100b565b601280546001600160a01b0319166001600160a01b038416908117909155601482905560408051918252602082018390527fd46fcdc06972a446de426e47c59c6a0c4581b5c0116ac49a2efc3e7d23bdfe72910161148c565b600b546001600160a01b036101009091041633146122b45760405162461bcd60e51b815260040161100b9061548e565b6122cc60008051602061574f8339815191528261343b565b604080516001600160a01b038316815260208101829052600b918101919091526a5041555345525f524f4c4560a81b60608201527f0578acc86b18d67c13a5e6eed8c670fb7052f530b48a2acb167d6ca77509a38490608001611e3e565b60008051602061574f83398151915261234281613194565b611a8d61393b565b43601e8190555060007f00000000000000000000000000000000000000000000000000000000000000006001600160a01b031663699b328a346040518263ffffffff1660e01b81526004016020604051808303818588803b1580156123ae57600080fd5b505af11580156123c2573d6000803e3d6000fd5b50505050506040513d601f19601f820116820180604052508101906123e79190615207565b905034811015611a8d57336108fc6123ff833461562a565b6040518115909202916000818181858888f19350505050158015611629573d6000803e3d6000fd5b6021818154811061243757600080fd5b600091825260209091200154905081565b600b546001600160a01b036101009091041633146124785760405162461bcd60e51b815260040161100b9061548e565b6001600160a01b0383166124ce5760405162461bcd60e51b815260206004820152601760248201527f696e76616c6964207061796d656e742061646472657373000000000000000000604482015260640161100b565b6001600160a01b0382166125245760405162461bcd60e51b815260206004820152601860248201527f696e76616c696420747265617375727920616464726573730000000000000000604482015260640161100b565b601a80546001600160a01b038581166001600160a01b03199283168117909355601b8054918616919092168117909155601c83905560408051928352602083019190915281018290527fe2be3027f197494650b7a98fd1cae67dacf615bd1d8bb05102999676f11638669060600160405180910390a1505050565b6000918252600c602090815260408084206001600160a01b0393909316845291905290205460ff1690565b606060018054610f2090615684565b600b546001600160a01b036101009091041633146126095760405162461bcd60e51b815260040161100b9061548e565b61262160008051602061576f8339815191528261343b565b604080516001600160a01b038316815260208101829052600b918101919091526a4d494e5445525f524f4c4560a81b60608201527f0578acc86b18d67c13a5e6eed8c670fb7052f530b48a2acb167d6ca77509a38490608001611e3e565b611629338383613993565b600b546001600160a01b036101009091041633146126ba5760405162461bcd60e51b815260040161100b9061548e565b601380546001600160a01b0319166001600160a01b0383169081179091556040519081527fca92c759228172fe3894a344908fd20dfd37ba561b5af191f1f5b02ee03881fc90602001611e3e565b6040516314c1dc4d60e31b81526004810182905260009081906001600160a01b037f0000000000000000000000000000000000000000000000000000000000000000169063a60ee2689060240160206040518083038186803b15801561276d57600080fd5b505afa158015612781573d6000803e3d6000fd5b505050506040513d601f19601f820116820180604052508101906127a59190615207565b9392505050565b600b5460ff16156127cf5760405162461bcd60e51b815260040161100b90615464565b600260115414156128225760405162461bcd60e51b815260206004820152601f60248201527f5265656e7472616e637947756172643a207265656e7472616e742063616c6c00604482015260640161100b565b60026011556012546001600160a01b03166128765760405162461bcd60e51b81526020600482015260146024820152731ad95e4818dbdb9d1c9858dd081b9bdd081cd95d60621b604482015260640161100b565b6001600160a01b0382166128c25760405162461bcd60e51b815260206004820152601360248201527257726f6e6720636c61696d206164647265737360681b604482015260640161100b565b60195442116129135760405162461bcd60e51b815260206004820152601b60248201527f4e6f74207965742072657665616c2074696d6520726561636865640000000000604482015260640161100b565b6012546040516370a0823160e01b81523360048201526000916001600160a01b0316906370a082319060240160206040518083038186803b15801561295757600080fd5b505afa15801561296b573d6000803e3d6000fd5b505050506040513d601f19601f8201168201806040525081019061298f9190615207565b9050600081116129fd5760405162461bcd60e51b815260206004820152603360248201527f4f6e6c79206f776e657273206f66204d797374657279426f782063616e20636c60448201527261696d20756e626f786564206974656d28732960681b606482015260840161100b565b808211158015612a0d5750600082115b612a505760405162461bcd60e51b81526020600482015260146024820152731a5b9d985b1a590818db185a5b48185b5bdd5b9d60621b604482015260640161100b565b60005b82811015612b8857601254604051632f745c5960e01b8152336004820152600060248201819052916001600160a01b031690632f745c599060440160206040518083038186803b158015612aa657600080fd5b505afa158015612aba573d6000803e3d6000fd5b505050506040513d601f19601f82011682018060405250810190612ade9190615207565b601254604051632142170760e11b815233600482015261dead6024820152604481018390529192506001600160a01b0316906342842e0e90606401600060405180830381600087803b158015612b3357600080fd5b505af1158015612b47573d6000803e3d6000fd5b50505050612b56601754613a62565b601d54612b73908690612b6e9063ffffffff16613b64565b613cfd565b50508080612b80906156b9565b915050612a53565b505060016011555050565b60008051602061576f833981519152612bab81613194565b6001600160a01b038416612bf65760405162461bcd60e51b8152602060048201526012602482015271496e76616c696420746f206164647265737360701b604482015260640161100b565b60005b82811015612c1e57612c0b8585612c78565b5080612c16816156b9565b915050612bf9565b5050505050565b612c2f33836131aa565b612c4b5760405162461bcd60e51b815260040161100b9061553b565b612c5784848484613d0a565b50505050565b6016818154811061243757600080fd5b6060610f0b82613d3d565b600060008051602061576f833981519152611daa81613194565b600e8054611e7490615684565b6000828152600c6020526040902060010154612cba81613194565b61114183836134c1565b600b546001600160a01b03610100909104163314612cf45760405162461bcd60e51b815260040161100b9061548e565b6001600160a01b038116612d595760405162461bcd60e51b815260206004820152602660248201527f4f776e61626c653a206e6577206f776e657220697320746865207a65726f206160448201526564647265737360d01b606482015260840161100b565b611a8d816138e1565b600b5460ff1615612d855760405162461bcd60e51b815260040161100b90615464565b600060245411612dd75760405162461bcd60e51b815260206004820152601d60248201527f4e6f20737562736372697074696f6e20636f6e74726163747320736574000000604482015260640161100b565b33600081815260256020908152604080832054835260239091529020546001600160a01b031614612e605760405162461bcd60e51b815260206004820152602d60248201527f4f6e6c7920737562736372697074696f6e20636f6e74726163742063616e206360448201526c616c6c20636c61696d4b65797360981b606482015260840161100b565b60026011541415612eb35760405162461bcd60e51b815260206004820152601f60248201527f5265656e7472616e637947756172643a207265656e7472616e742063616c6c00604482015260640161100b565b60026011556012546001600160a01b0316612f075760405162461bcd60e51b81526020600482015260146024820152731ad95e4818dbdb9d1c9858dd081b9bdd081cd95d60621b604482015260640161100b565b6001600160a01b038216612f535760405162461bcd60e51b815260206004820152601360248201527257726f6e6720636c61696d206164647265737360681b604482015260640161100b565b60008111612fa35760405162461bcd60e51b815260206004820152601a60248201527f696e76616c696420746f6b656e49647320666f7220636c61696d000000000000604482015260640161100b565b3360009081526025602052604081205490805b838110156130d85760008381526023602052604090206005810154600390910154612fe09161319e565b6000848152602360205260409020600401549092508211156130445760405162461bcd60e51b815260206004820152601760248201527f636c61696d20746f6b656e204964206f766572666c6f77000000000000000000604482015260640161100b565b6000838152602360205260408120600501805491613061836156b9565b909155505060125460405163086eba7960e21b81526001600160a01b038781166004830152909116906321bae9e490602401600060405180830381600087803b1580156130ad57600080fd5b505af11580156130c1573d6000803e3d6000fd5b5050505080806130d0906156b9565b915050612fb6565b50506001601155505050565b60006001600160e01b03198216637965db0b60e01b1480610f0b5750610f0b82613eac565b6000908152600260205260409020546001600160a01b0316151590565b600081815260046020526040902080546001600160a01b0319166001600160a01b038416908117909155819061315b82611f5c565b6001600160a01b03167f8c5be1e5ebec7d5bd14f71427d1e84f3dd0314c0f7b2291e5b200ac8c7c3b92560405160405180910390a45050565b611a8d8133613ed1565b60006127a582846155df565b60006131b582613109565b6132165760405162461bcd60e51b815260206004820152602c60248201527f4552433732313a206f70657261746f7220717565727920666f72206e6f6e657860448201526b34b9ba32b73a103a37b5b2b760a11b606482015260840161100b565b600061322183611f5c565b9050806001600160a01b0316846001600160a01b0316148061326857506001600160a01b0380821660009081526005602090815260408083209388168352929052205460ff165b8061328c5750836001600160a01b031661328184610fa3565b6001600160a01b0316145b949350505050565b826001600160a01b03166132a782611f5c565b6001600160a01b03161461330b5760405162461bcd60e51b815260206004820152602560248201527f4552433732313a207472616e736665722066726f6d20696e636f72726563742060448201526437bbb732b960d91b606482015260840161100b565b6001600160a01b03821661336d5760405162461bcd60e51b8152602060048201526024808201527f4552433732313a207472616e7366657220746f20746865207a65726f206164646044820152637265737360e01b606482015260840161100b565b613378838383613f35565b613383600082613126565b6001600160a01b03831660009081526003602052604081208054600192906133ac90849061562a565b90915550506001600160a01b03821660009081526003602052604081208054600192906133da9084906155df565b909155505060008181526002602052604080822080546001600160a01b0319166001600160a01b0386811691821790925591518493918716917fddf252ad1be2c89b69c2b068fc378daa952ba7f163c4a11628f55a4df523b3ef91a4505050565b613445828261259f565b611629576000828152600c602090815260408083206001600160a01b03851684529091529020805460ff1916600117905561347d3390565b6001600160a01b0316816001600160a01b0316837f2f8788117e7eff1d82e926ec794901d17c78024a50270940304540a733656f0d60405160405180910390a45050565b6134cb828261259f565b15611629576000828152600c602090815260408083206001600160a01b0385168085529252808320805460ff1916905551339285917ff6391f5c32d9c69d2a47ea670b442974b53935d1edc7fd64eb21e047a839171b9190a45050565b60006127a5828461560b565b604080516001600160a01b0385811660248301528481166044830152606480830185905283518084039091018152608490920183526020820180516001600160e01b03166323b872dd60e01b179052915160009283929088169161359891906152be565b6000604051808303816000865af19150503d80600081146135d5576040519150601f19603f3d011682016040523d82523d6000602084013e6135da565b606091505b50915091508180156136045750805115806136045750808060200190518101906136049190615179565b61366a5760405162461bcd60e51b815260206004820152603160248201527f5472616e7366657248656c7065723a3a7472616e7366657246726f6d3a207472604482015270185b9cd9995c919c9bdb4819985a5b1959607a1b606482015260840161100b565b505050505050565b6012546001600160a01b03166136c45760405162461bcd60e51b81526020600482015260176024820152761ad95e4818dbdb9d1c9858dd081a5cc81b9bdd081cd95d604a1b604482015260640161100b565b602454156137145760405162461bcd60e51b815260206004820152601e60248201527f6d797374657279626f7820696e76616c6964206d6574686f642063616c6c0000604482015260640161100b565b601a546001600160a01b031661376c5760405162461bcd60e51b815260206004820152601a60248201527f7061796d656e742061646472657373206973206e6f7420736574000000000000604482015260640161100b565b60006137836014548361352890919063ffffffff16565b905060006137a86103e86137a2601c548561352890919063ffffffff16565b90613f63565b905060006137b68383613839565b6013549091506001600160a01b03161561380d57601354601b546137e9916001600160a01b039081169130911685613534565b601354601a54613808916001600160a01b039081169130911684613534565b612c57565b601b54613823906001600160a01b031683613f6f565b601a54612c57906001600160a01b031682613f6f565b60006127a5828461562a565b600b5460ff1661388e5760405162461bcd60e51b815260206004820152601460248201527314185d5cd8589b194e881b9bdd081c185d5cd95960621b604482015260640161100b565b600b805460ff191690557f5db9ee0a495bf2e6ff9c91a7834c1ba4fdd244a5e8aa4e537bd38aeae4b073aa335b6040516001600160a01b03909116815260200160405180910390a1565b611a8d81614049565b600b80546001600160a01b03838116610100818102610100600160a81b031985161790945560405193909204169182907f8be0079c531659141344cd1fd0a4f28419497f9722a3daafe3b4186f6b6457e090600090a35050565b600b5460ff161561395e5760405162461bcd60e51b815260040161100b90615464565b600b805460ff191660011790557f62e78cea01bee320cd4e420270b5ea74000d11b0c9f74754ebdbfc544b05a2586138bb3390565b816001600160a01b0316836001600160a01b031614156139f55760405162461bcd60e51b815260206004820152601960248201527f4552433732313a20617070726f766520746f2063616c6c657200000000000000604482015260640161100b565b6001600160a01b03838116600081815260056020908152604080832094871680845294825291829020805460ff191686151590811790915591519182527f17307eab39ab6107e8899845ad3d59bd9653f200f220920489ca2b5937696c31910160405180910390a3505050565b6000601e5411613a8257634e487b7160e01b600052600160045260246000fd5b601f54601e546040516324cbbfc160e01b815263ffffffff84166004820152602481019290925260448201527f00000000000000000000000000000000000000000000000000000000000000006001600160a01b0316906324cbbfc19060640160206040518083038186803b158015613afa57600080fd5b505afa158015613b0e573d6000803e3d6000fd5b505050506040513d601f19601f82011682018060405250810190613b32919061526e565b601d805463ffffffff191663ffffffff92909216919091179055601f8054906000613b5c836156b9565b919050555050565b6060600080805b602054811015613bbd57613b9960218281548110611f2857634e487b7160e01b600052603260045260246000fd5b915081851015613bab57809250613bbd565b80613bb5816156b9565b915050613b6b565b50601754613bcc906001613839565b601781905550613c11600160218481548110613bf857634e487b7160e01b600052603260045260246000fd5b906000526020600020015461383990919063ffffffff16565b60218381548110613c3257634e487b7160e01b600052603260045260246000fd5b906000526020600020018190555060208281548110613c6157634e487b7160e01b600052603260045260246000fd5b906000526020600020018054613c7690615684565b80601f0160208091040260200160405190810160405280929190818152602001828054613ca290615684565b8015613cef5780601f10613cc457610100808354040283529160200191613cef565b820191906000526020600020905b815481529060010190602001808311613cd257829003601f168201915b505050505092505050919050565b60008061328c8484614089565b613d15848484613294565b613d21848484846140b9565b612c575760405162461bcd60e51b815260040161100b90615412565b6060613d4882613109565b613dae5760405162461bcd60e51b815260206004820152603160248201527f45524337323155524953746f726167653a2055524920717565727920666f72206044820152703737b732bc34b9ba32b73a103a37b5b2b760791b606482015260840161100b565b6000828152600a602052604081208054613dc790615684565b80601f0160208091040260200160405190810160405280929190818152602001828054613df390615684565b8015613e405780601f10613e1557610100808354040283529160200191613e40565b820191906000526020600020905b815481529060010190602001808311613e2357829003601f168201915b505050505090506000613e5e60408051602081019091526000815290565b9050805160001415613e71575092915050565b815115613ea3578082604051602001613e8b9291906152da565b60405160208183030381529060405292505050919050565b61328c846141c6565b60006001600160e01b0319821663780e9d6360e01b1480610f0b5750610f0b8261429d565b613edb828261259f565b61162957613ef3816001600160a01b031660146142ed565b613efe8360206142ed565b604051602001613f0f929190615309565b60408051601f198184030181529082905262461bcd60e51b825261100b916004016153ff565b600b5460ff1615613f585760405162461bcd60e51b815260040161100b90615464565b6111418383836144ce565b60006127a582846155f7565b604080516000808252602082019092526001600160a01b038416908390604051613f9991906152be565b60006040518083038185875af1925050503d8060008114613fd6576040519150601f19603f3d011682016040523d82523d6000602084013e613fdb565b606091505b50509050806111415760405162461bcd60e51b815260206004820152603460248201527f5472616e7366657248656c7065723a3a736166655472616e736665724554483a60448201527308115512081d1c985b9cd9995c8819985a5b195960621b606482015260840161100b565b61405281614586565b6000818152600a60205260409020805461406b90615684565b159050611a8d576000818152600a60205260408120611a8d91614c2e565b60008061409560105490565b90506140a5601080546001019055565b6140af848261462d565b6127a58184614647565b60006001600160a01b0384163b156141bb57604051630a85bd0160e11b81526001600160a01b0385169063150b7a02906140fd90339089908890889060040161537e565b602060405180830381600087803b15801561411757600080fd5b505af1925050508015614147575060408051601f3d908101601f19168201909252614144918101906151eb565b60015b6141a1573d808015614175576040519150601f19603f3d011682016040523d82523d6000602084013e61417a565b606091505b5080516141995760405162461bcd60e51b815260040161100b90615412565b805181602001fd5b6001600160e01b031916630a85bd0160e11b14905061328c565b506001949350505050565b60606141d182613109565b6142355760405162461bcd60e51b815260206004820152602f60248201527f4552433732314d657461646174613a2055524920717565727920666f72206e6f60448201526e3732bc34b9ba32b73a103a37b5b2b760891b606482015260840161100b565b600061424c60408051602081019091526000815290565b9050600081511161426c57604051806020016040528060008152506127a5565b80614276846146d2565b6040516020016142879291906152da565b6040516020818303038152906040529392505050565b60006001600160e01b031982166380ac58cd60e01b14806142ce57506001600160e01b03198216635b5e139f60e01b145b80610f0b57506301ffc9a760e01b6001600160e01b0319831614610f0b565b606060006142fc83600261560b565b6143079060026155df565b6001600160401b0381111561432c57634e487b7160e01b600052604160045260246000fd5b6040519080825280601f01601f191660200182016040528015614356576020820181803683370190505b509050600360fc1b8160008151811061437f57634e487b7160e01b600052603260045260246000fd5b60200101906001600160f81b031916908160001a905350600f60fb1b816001815181106143bc57634e487b7160e01b600052603260045260246000fd5b60200101906001600160f81b031916908160001a90535060006143e084600261560b565b6143eb9060016155df565b90505b600181111561447f576f181899199a1a9b1b9c1cb0b131b232b360811b85600f166010811061442d57634e487b7160e01b600052603260045260246000fd5b1a60f81b82828151811061445157634e487b7160e01b600052603260045260246000fd5b60200101906001600160f81b031916908160001a90535060049490941c936144788161566d565b90506143ee565b5083156127a55760405162461bcd60e51b815260206004820181905260248201527f537472696e67733a20686578206c656e67746820696e73756666696369656e74604482015260640161100b565b6001600160a01b0383166145295761452481600880546000838152600960205260408120829055600182018355919091527ff3f7a9fe364faab93b216da50a3214154f22a0a2b415b23a84c8169e8b636ee30155565b61454c565b816001600160a01b0316836001600160a01b03161461454c5761454c83826147eb565b6001600160a01b0382166145635761114181614888565b826001600160a01b0316826001600160a01b031614611141576111418282614961565b600061459182611f5c565b905061459f81600084613f35565b6145aa600083613126565b6001600160a01b03811660009081526003602052604081208054600192906145d390849061562a565b909155505060008281526002602052604080822080546001600160a01b0319169055518391906001600160a01b038416907fddf252ad1be2c89b69c2b068fc378daa952ba7f163c4a11628f55a4df523b3ef908390a45050565b6116298282604051806020016040528060008152506149a5565b61465082613109565b6146b35760405162461bcd60e51b815260206004820152602e60248201527f45524337323155524953746f726167653a2055524920736574206f66206e6f6e60448201526d32bc34b9ba32b73a103a37b5b2b760911b606482015260840161100b565b6000828152600a60209081526040909120825161114192840190614bbb565b6060816146f65750506040805180820190915260018152600360fc1b602082015290565b8160005b8115614720578061470a816156b9565b91506147199050600a836155f7565b91506146fa565b6000816001600160401b0381111561474857634e487b7160e01b600052604160045260246000fd5b6040519080825280601f01601f191660200182016040528015614772576020820181803683370190505b5090505b841561328c5761478760018361562a565b9150614794600a866156d4565b61479f9060306155df565b60f81b8183815181106147c257634e487b7160e01b600052603260045260246000fd5b60200101906001600160f81b031916908160001a9053506147e4600a866155f7565b9450614776565b600060016147f884612038565b614802919061562a565b600083815260076020526040902054909150808214614855576001600160a01b03841660009081526006602090815260408083208584528252808320548484528184208190558352600790915290208190555b5060009182526007602090815260408084208490556001600160a01b039094168352600681528383209183525290812055565b60085460009061489a9060019061562a565b600083815260096020526040812054600880549394509092849081106148d057634e487b7160e01b600052603260045260246000fd5b9060005260206000200154905080600883815481106148ff57634e487b7160e01b600052603260045260246000fd5b600091825260208083209091019290925582815260099091526040808220849055858252812055600880548061494557634e487b7160e01b600052603160045260246000fd5b6001900381819060005260206000200160009055905550505050565b600061496c83612038565b6001600160a01b039093166000908152600660209081526040808320868452825280832085905593825260079052919091209190915550565b6149af83836149d8565b6149bc60008484846140b9565b6111415760405162461bcd60e51b815260040161100b90615412565b6001600160a01b038216614a2e5760405162461bcd60e51b815260206004820181905260248201527f4552433732313a206d696e7420746f20746865207a65726f2061646472657373604482015260640161100b565b614a3781613109565b15614a845760405162461bcd60e51b815260206004820152601c60248201527f4552433732313a20746f6b656e20616c7265616479206d696e74656400000000604482015260640161100b565b614a9060008383613f35565b6001600160a01b0382166000908152600360205260408120805460019290614ab99084906155df565b909155505060008181526002602052604080822080546001600160a01b0319166001600160a01b03861690811790915590518392907fddf252ad1be2c89b69c2b068fc378daa952ba7f163c4a11628f55a4df523b3ef908290a45050565b828054828255906000526020600020908101928215614b52579160200282015b82811115614b52578251825591602001919060010190614b37565b50614b5e929150614c64565b5090565b828054828255906000526020600020908101928215614baf579160200282015b82811115614baf5782518051614b9f918491602090910190614bbb565b5091602001919060010190614b82565b50614b5e929150614c79565b828054614bc790615684565b90600052602060002090601f016020900481019282614be95760008555614b52565b82601f10614c0257805160ff1916838001178555614b52565b82800160010185558215614b525791820182811115614b52578251825591602001919060010190614b37565b508054614c3a90615684565b6000825580601f10614c4a575050565b601f016020900490600052602060002090810190611a8d91905b5b80821115614b5e5760008155600101614c65565b80821115614b5e576000614c8d8282614c2e565b50600101614c79565b60006001600160401b03831115614caf57614caf615714565b614cc2601f8401601f191660200161558c565b9050828152838383011115614cd657600080fd5b828260208301376000602084830101529392505050565b80356001600160a01b0381168114614d0457600080fd5b919050565b600082601f830112614d19578081fd5b81356020614d2e614d29836155bc565b61558c565b80838252828201915082860187848660051b8901011115614d4d578586fd5b855b85811015614d8d5781356001600160401b03811115614d6c578788fd5b614d7a8a87838c0101614d9a565b8552509284019290840190600101614d4f565b5090979650505050505050565b600082601f830112614daa578081fd5b6127a583833560208501614c96565b600060208284031215614dca578081fd5b6127a582614ced565b60008060408385031215614de5578081fd5b614dee83614ced565b9150614dfc60208401614ced565b90509250929050565b600080600060608486031215614e19578081fd5b614e2284614ced565b9250614e3060208501614ced565b9150604084013590509250925092565b600080600080600060808688031215614e57578081fd5b614e6086614ced565b9450614e6e60208701614ced565b93506040860135925060608601356001600160401b0380821115614e90578283fd5b818801915088601f830112614ea3578283fd5b813581811115614eb1578384fd5b896020828501011115614ec2578384fd5b9699959850939650602001949392505050565b60008060008060808587031215614eea578384fd5b614ef385614ced565b9350614f0160208601614ced565b92506040850135915060608501356001600160401b03811115614f22578182fd5b8501601f81018713614f32578182fd5b614f4187823560208401614c96565b91505092959194509250565b60008060408385031215614f5f578182fd5b614f6883614ced565b915060208301356001600160401b03811115614f82578182fd5b614f8e85828601614d09565b9150509250929050565b60008060408385031215614faa578182fd5b614fb383614ced565b91506020830135614fc38161572a565b809150509250929050565b60008060408385031215614fe0578182fd5b614fe983614ced565b915060208301356001600160401b03811115615003578182fd5b614f8e85828601614d9a565b600080600060608486031215615023578081fd5b61502c84614ced565b925060208401356001600160401b03811115615046578182fd5b61505286828701614d9a565b925050604084013590509250925092565b60008060408385031215615075578182fd5b61507e83614ced565b946020939093013593505050565b6000806000606084860312156150a0578081fd5b6150a984614ced565b95602085013595506040909401359392505050565b600080604083850312156150d0578182fd5b82356001600160401b03808211156150e6578384fd5b6150f286838701614d09565b9350602091508185013581811115615108578384fd5b85019050601f8101861361511a578283fd5b8035615128614d29826155bc565b80828252848201915084840189868560051b8701011115615147578687fd5b8694505b8385101561516957803583526001949094019391850191850161514b565b5080955050505050509250929050565b60006020828403121561518a578081fd5b81516127a58161572a565b6000602082840312156151a6578081fd5b5035919050565b600080604083850312156151bf578182fd5b82359150614dfc60208401614ced565b6000602082840312156151e0578081fd5b81356127a581615738565b6000602082840312156151fc578081fd5b81516127a581615738565b600060208284031215615218578081fd5b5051919050565b60008060408385031215615231578182fd5b8235915060208301356001600160401b03811115615003578182fd5b6000806040838503121561525f578182fd5b50508035926020909101359150565b60006020828403121561527f578081fd5b815163ffffffff811681146127a5578182fd5b600081518084526152aa816020860160208601615641565b601f01601f19169290920160200192915050565b600082516152d0818460208701615641565b9190910192915050565b600083516152ec818460208801615641565b835190830190615300818360208801615641565b01949350505050565b7f416363657373436f6e74726f6c3a206163636f756e7420000000000000000000815260008351615341816017850160208801615641565b7001034b99036b4b9b9b4b733903937b6329607d1b6017918401918201528351615372816028840160208801615641565b01602801949350505050565b6001600160a01b03858116825284166020820152604081018390526080606082018190526000906153b190830184615292565b9695505050505050565b6020808252825182820181905260009190848201906040850190845b818110156153f3578351835292840192918401916001016153d7565b50909695505050505050565b6020815260006127a56020830184615292565b60208082526032908201527f4552433732313a207472616e7366657220746f206e6f6e20455243373231526560408201527131b2b4bb32b91034b6b83632b6b2b73a32b960711b606082015260800190565b60208082526010908201526f14185d5cd8589b194e881c185d5cd95960821b604082015260600190565b6020808252818101527f4f776e61626c653a2063616c6c6572206973206e6f7420746865206f776e6572604082015260600190565b6020808252601d908201527f76616c756520616e6420616d6f756e74206973206e6f74206d61746368000000604082015260600190565b60208082526021908201527f76616c75652073686f756c642062652067726561746572207468616e207a65726040820152606f60f81b606082015260800190565b60208082526031908201527f4552433732313a207472616e736665722063616c6c6572206973206e6f74206f6040820152701ddb995c881b9bdc88185c1c1c9bdd9959607a1b606082015260800190565b604051601f8201601f191681016001600160401b03811182821017156155b4576155b4615714565b604052919050565b60006001600160401b038211156155d5576155d5615714565b5060051b60200190565b600082198211156155f2576155f26156e8565b500190565b600082615606576156066156fe565b500490565b6000816000190483118215151615615625576156256156e8565b500290565b60008282101561563c5761563c6156e8565b500390565b60005b8381101561565c578181015183820152602001615644565b83811115612c575750506000910152565b60008161567c5761567c6156e8565b506000190190565b600181811c9082168061569857607f821691505b60208210811415611f5657634e487b7160e01b600052602260045260246000fd5b60006000198214156156cd576156cd6156e8565b5060010190565b6000826156e3576156e36156fe565b500690565b634e487b7160e01b600052601160045260246000fd5b634e487b7160e01b600052601260045260246000fd5b634e487b7160e01b600052604160045260246000fd5b8015158114611a8d57600080fd5b6001600160e01b031981168114611a8d57600080fdfe65d7a28e3265b37a6474929f336521b332c1681b933f6cb9f3376673440d862a9f2df0fed2c77648de5860a4cc508cd0818c85b8b8a1ab4ceeef8d981c8956a6a26469706673582212207336b87a156c1ab19717aded45ae1129a37e7faaab3133ae5201fd26162b0f9764736f6c634300080400334f776e61626c653a2063616c6c6572206973206e6f7420746865206f776e657265d7a28e3265b37a6474929f336521b332c1681b933f6cb9f3376673440d862a9f2df0fed2c77648de5860a4cc508cd0818c85b8b8a1ab4ceeef8d981c8956a6",
  "linkReferences": {},
  "deployedLinkReferences": {}
}