{
  "_format": "hh-sol-artifact-1",
  "contractName": "MysteryBox",
  "sourceName": "contracts/MysteryBox.sol",
  "abi": [
    {
      "inputs": [
        {
          "internalType": "string",
          "name": "name",
          "type": "string"
        },
        {
          "internalType": "string",
          "name": "symbol",
          "type": "string"
        },
        {
          "internalType": "address",
          "name": "_key",
          "type": "address"
        },
        {
          "internalType": "address",
          "name": "_quote",
          "type": "address"
        },
        {
          "internalType": "address",
          "name": "_payment",
          "type": "address"
        },
        {
          "internalType": "address",
          "name": "_treasury",
          "type": "address"
        },
        {
          "internalType": "uint256[]",
          "name": "configValues",
          "type": "uint256[]"
        },
        {
          "internalType": "contract IWitnetRandomness",
          "name": "_witnetRandomness",
          "type": "address"
        }
      ],
      "stateMutability": "nonpayable",
      "type": "constructor"
    },
    {
      "anonymous": false,
      "inputs": [
        {
          "indexed": true,
          "internalType": "address",
          "name": "owner",
          "type": "address"
        },
        {
          "indexed": true,
          "internalType": "address",
          "name": "approved",
          "type": "address"
        },
        {
          "indexed": true,
          "internalType": "uint256",
          "name": "tokenId",
          "type": "uint256"
        }
      ],
      "name": "Approval",
      "type": "event"
    },
    {
      "anonymous": false,
      "inputs": [
        {
          "indexed": true,
          "internalType": "address",
          "name": "owner",
          "type": "address"
        },
        {
          "indexed": true,
          "internalType": "address",
          "name": "operator",
          "type": "address"
        },
        {
          "indexed": false,
          "internalType": "bool",
          "name": "approved",
          "type": "bool"
        }
      ],
      "name": "ApprovalForAll",
      "type": "event"
    },
    {
      "anonymous": false,
      "inputs": [
        {
          "indexed": false,
          "internalType": "address",
          "name": "",
          "type": "address"
        },
        {
          "indexed": false,
          "internalType": "string",
          "name": "",
          "type": "string"
        }
      ],
      "name": "Grant",
      "type": "event"
    },
    {
      "anonymous": false,
      "inputs": [
        {
          "indexed": true,
          "internalType": "address",
          "name": "previousOwner",
          "type": "address"
        },
        {
          "indexed": true,
          "internalType": "address",
          "name": "newOwner",
          "type": "address"
        }
      ],
      "name": "OwnershipTransferred",
      "type": "event"
    },
    {
      "anonymous": false,
      "inputs": [
        {
          "indexed": false,
          "internalType": "address",
          "name": "account",
          "type": "address"
        }
      ],
      "name": "Paused",
      "type": "event"
    },
    {
      "anonymous": false,
      "inputs": [
        {
          "indexed": true,
          "internalType": "bytes32",
          "name": "role",
          "type": "bytes32"
        },
        {
          "indexed": true,
          "internalType": "bytes32",
          "name": "previousAdminRole",
          "type": "bytes32"
        },
        {
          "indexed": true,
          "internalType": "bytes32",
          "name": "newAdminRole",
          "type": "bytes32"
        }
      ],
      "name": "RoleAdminChanged",
      "type": "event"
    },
    {
      "anonymous": false,
      "inputs": [
        {
          "indexed": true,
          "internalType": "bytes32",
          "name": "role",
          "type": "bytes32"
        },
        {
          "indexed": true,
          "internalType": "address",
          "name": "account",
          "type": "address"
        },
        {
          "indexed": true,
          "internalType": "address",
          "name": "sender",
          "type": "address"
        }
      ],
      "name": "RoleGranted",
      "type": "event"
    },
    {
      "anonymous": false,
      "inputs": [
        {
          "indexed": true,
          "internalType": "bytes32",
          "name": "role",
          "type": "bytes32"
        },
        {
          "indexed": true,
          "internalType": "address",
          "name": "account",
          "type": "address"
        },
        {
          "indexed": true,
          "internalType": "address",
          "name": "sender",
          "type": "address"
        }
      ],
      "name": "RoleRevoked",
      "type": "event"
    },
    {
      "anonymous": false,
      "inputs": [
        {
          "indexed": false,
          "internalType": "address",
          "name": "",
          "type": "address"
        },
        {
          "indexed": false,
          "internalType": "address",
          "name": "",
          "type": "address"
        },
        {
          "indexed": false,
          "internalType": "uint256",
          "name": "",
          "type": "uint256"
        }
      ],
      "name": "SetConfig",
      "type": "event"
    },
    {
      "anonymous": false,
      "inputs": [
        {
          "indexed": false,
          "internalType": "uint256",
          "name": "",
          "type": "uint256"
        }
      ],
      "name": "SetHardCap",
      "type": "event"
    },
    {
      "anonymous": false,
      "inputs": [
        {
          "indexed": false,
          "internalType": "uint256",
          "name": "",
          "type": "uint256"
        }
      ],
      "name": "SetLaunch",
      "type": "event"
    },
    {
      "anonymous": false,
      "inputs": [
        {
          "indexed": false,
          "internalType": "uint256",
          "name": "",
          "type": "uint256"
        }
      ],
      "name": "SetLockup",
      "type": "event"
    },
    {
      "anonymous": false,
      "inputs": [
        {
          "indexed": false,
          "internalType": "address",
          "name": "",
          "type": "address"
        },
        {
          "indexed": false,
          "internalType": "uint256",
          "name": "",
          "type": "uint256"
        }
      ],
      "name": "SetMboxKey",
      "type": "event"
    },
    {
      "anonymous": false,
      "inputs": [
        {
          "indexed": false,
          "internalType": "address",
          "name": "",
          "type": "address"
        }
      ],
      "name": "SetMysteryBox",
      "type": "event"
    },
    {
      "anonymous": false,
      "inputs": [
        {
          "indexed": false,
          "internalType": "address",
          "name": "",
          "type": "address"
        }
      ],
      "name": "SetQuote",
      "type": "event"
    },
    {
      "anonymous": false,
      "inputs": [
        {
          "indexed": false,
          "internalType": "address",
          "name": "",
          "type": "address"
        }
      ],
      "name": "SetSubscription",
      "type": "event"
    },
    {
      "anonymous": false,
      "inputs": [
        {
          "indexed": true,
          "internalType": "address",
          "name": "from",
          "type": "address"
        },
        {
          "indexed": true,
          "internalType": "address",
          "name": "to",
          "type": "address"
        },
        {
          "indexed": true,
          "internalType": "uint256",
          "name": "tokenId",
          "type": "uint256"
        }
      ],
      "name": "Transfer",
      "type": "event"
    },
    {
      "anonymous": false,
      "inputs": [
        {
          "indexed": false,
          "internalType": "address",
          "name": "account",
          "type": "address"
        }
      ],
      "name": "Unpaused",
      "type": "event"
    },
    {
      "inputs": [],
      "name": "DEFAULT_ADMIN_ROLE",
      "outputs": [
        {
          "internalType": "bytes32",
          "name": "",
          "type": "bytes32"
        }
      ],
      "stateMutability": "view",
      "type": "function"
    },
    {
      "inputs": [],
      "name": "MINTER_ROLE",
      "outputs": [
        {
          "internalType": "bytes32",
          "name": "",
          "type": "bytes32"
        }
      ],
      "stateMutability": "view",
      "type": "function"
    },
    {
      "inputs": [],
      "name": "PAUSER_ROLE",
      "outputs": [
        {
          "internalType": "bytes32",
          "name": "",
          "type": "bytes32"
        }
      ],
      "stateMutability": "view",
      "type": "function"
    },
    {
      "inputs": [
        {
          "internalType": "address",
          "name": "minter",
          "type": "address"
        }
      ],
      "name": "addMinter",
      "outputs": [],
      "stateMutability": "nonpayable",
      "type": "function"
    },
    {
      "inputs": [
        {
          "internalType": "address",
          "name": "pauser",
          "type": "address"
        }
      ],
      "name": "addPauser",
      "outputs": [],
      "stateMutability": "nonpayable",
      "type": "function"
    },
    {
      "inputs": [
        {
          "internalType": "address",
          "name": "to",
          "type": "address"
        },
        {
          "internalType": "uint256",
          "name": "tokenId",
          "type": "uint256"
        }
      ],
      "name": "approve",
      "outputs": [],
      "stateMutability": "nonpayable",
      "type": "function"
    },
    {
      "inputs": [
        {
          "internalType": "address",
          "name": "owner",
          "type": "address"
        }
      ],
      "name": "balanceOf",
      "outputs": [
        {
          "internalType": "uint256",
          "name": "",
          "type": "uint256"
        }
      ],
      "stateMutability": "view",
      "type": "function"
    },
    {
      "inputs": [
        {
          "internalType": "uint256",
          "name": "tokenId",
          "type": "uint256"
        }
      ],
      "name": "burn",
      "outputs": [],
      "stateMutability": "nonpayable",
      "type": "function"
    },
    {
      "inputs": [
        {
          "internalType": "uint256",
          "name": "_amount",
          "type": "uint256"
        }
      ],
      "name": "buyKeyEth",
      "outputs": [],
      "stateMutability": "payable",
      "type": "function"
    },
    {
      "inputs": [
        {
          "internalType": "uint256",
          "name": "_payment",
          "type": "uint256"
        },
        {
          "internalType": "uint256",
          "name": "_amount",
          "type": "uint256"
        }
      ],
      "name": "buyKeyQuote",
      "outputs": [],
      "stateMutability": "payable",
      "type": "function"
    },
    {
      "inputs": [
        {
          "internalType": "address",
          "name": "to",
          "type": "address"
        },
        {
          "internalType": "uint256",
          "name": "amount",
          "type": "uint256"
        }
      ],
      "name": "claim",
      "outputs": [],
      "stateMutability": "nonpayable",
      "type": "function"
    },
    {
      "inputs": [
        {
          "internalType": "address",
          "name": "to",
          "type": "address"
        },
        {
          "internalType": "uint256",
          "name": "_amount",
          "type": "uint256"
        }
      ],
      "name": "claimKeys",
      "outputs": [],
      "stateMutability": "nonpayable",
      "type": "function"
    },
    {
      "inputs": [
        {
          "internalType": "uint256",
          "name": "gasPrice",
          "type": "uint256"
        }
      ],
      "name": "estimateRandomizeFee",
      "outputs": [
        {
          "internalType": "uint256",
          "name": "",
          "type": "uint256"
        }
      ],
      "stateMutability": "view",
      "type": "function"
    },
    {
      "inputs": [],
      "name": "feeRate",
      "outputs": [
        {
          "internalType": "uint256",
          "name": "",
          "type": "uint256"
        }
      ],
      "stateMutability": "view",
      "type": "function"
    },
    {
      "inputs": [
        {
          "internalType": "uint256",
          "name": "tokenId",
          "type": "uint256"
        }
      ],
      "name": "getApproved",
      "outputs": [
        {
          "internalType": "address",
          "name": "",
          "type": "address"
        }
      ],
      "stateMutability": "view",
      "type": "function"
    },
    {
      "inputs": [],
      "name": "getItemAmounts",
      "outputs": [
        {
          "internalType": "uint256[]",
          "name": "",
          "type": "uint256[]"
        }
      ],
      "stateMutability": "view",
      "type": "function"
    },
    {
      "inputs": [
        {
          "internalType": "bytes32",
          "name": "role",
          "type": "bytes32"
        }
      ],
      "name": "getRoleAdmin",
      "outputs": [
        {
          "internalType": "bytes32",
          "name": "",
          "type": "bytes32"
        }
      ],
      "stateMutability": "view",
      "type": "function"
    },
    {
      "inputs": [
        {
          "internalType": "address",
          "name": "_subAddr",
          "type": "address"
        }
      ],
      "name": "getSubInfos",
      "outputs": [
        {
          "internalType": "address",
          "name": "",
          "type": "address"
        },
        {
          "internalType": "uint256",
          "name": "",
          "type": "uint256"
        },
        {
          "internalType": "uint256",
          "name": "",
          "type": "uint256"
        }
      ],
      "stateMutability": "view",
      "type": "function"
    },
    {
      "inputs": [],
      "name": "globalURI",
      "outputs": [
        {
          "internalType": "string",
          "name": "",
          "type": "string"
        }
      ],
      "stateMutability": "view",
      "type": "function"
    },
    {
      "inputs": [
        {
          "internalType": "bytes32",
          "name": "role",
          "type": "bytes32"
        },
        {
          "internalType": "address",
          "name": "account",
          "type": "address"
        }
      ],
      "name": "grantRole",
      "outputs": [],
      "stateMutability": "nonpayable",
      "type": "function"
    },
    {
      "inputs": [],
      "name": "hardCap",
      "outputs": [
        {
          "internalType": "uint256",
          "name": "",
          "type": "uint256"
        }
      ],
      "stateMutability": "view",
      "type": "function"
    },
    {
      "inputs": [
        {
          "internalType": "bytes32",
          "name": "role",
          "type": "bytes32"
        },
        {
          "internalType": "address",
          "name": "account",
          "type": "address"
        }
      ],
      "name": "hasRole",
      "outputs": [
        {
          "internalType": "bool",
          "name": "",
          "type": "bool"
        }
      ],
      "stateMutability": "view",
      "type": "function"
    },
    {
      "inputs": [
        {
          "internalType": "address",
          "name": "owner",
          "type": "address"
        },
        {
          "internalType": "address",
          "name": "operator",
          "type": "address"
        }
      ],
      "name": "isApprovedForAll",
      "outputs": [
        {
          "internalType": "bool",
          "name": "",
          "type": "bool"
        }
      ],
      "stateMutability": "view",
      "type": "function"
    },
    {
      "inputs": [
        {
          "internalType": "uint256",
          "name": "",
          "type": "uint256"
        }
      ],
      "name": "itemAmounts",
      "outputs": [
        {
          "internalType": "uint256",
          "name": "",
          "type": "uint256"
        }
      ],
      "stateMutability": "view",
      "type": "function"
    },
    {
      "inputs": [
        {
          "internalType": "uint256",
          "name": "",
          "type": "uint256"
        }
      ],
      "name": "itemURIs",
      "outputs": [
        {
          "internalType": "string",
          "name": "",
          "type": "string"
        }
      ],
      "stateMutability": "view",
      "type": "function"
    },
    {
      "inputs": [
        {
          "internalType": "uint256",
          "name": "",
          "type": "uint256"
        }
      ],
      "name": "items",
      "outputs": [
        {
          "internalType": "uint256",
          "name": "",
          "type": "uint256"
        }
      ],
      "stateMutability": "view",
      "type": "function"
    },
    {
      "inputs": [],
      "name": "key",
      "outputs": [
        {
          "internalType": "address",
          "name": "",
          "type": "address"
        }
      ],
      "stateMutability": "view",
      "type": "function"
    },
    {
      "inputs": [],
      "name": "latestRandomizingBlock",
      "outputs": [
        {
          "internalType": "uint256",
          "name": "",
          "type": "uint256"
        }
      ],
      "stateMutability": "view",
      "type": "function"
    },
    {
      "inputs": [],
      "name": "launch",
      "outputs": [
        {
          "internalType": "uint256",
          "name": "",
          "type": "uint256"
        }
      ],
      "stateMutability": "view",
      "type": "function"
    },
    {
      "inputs": [],
      "name": "lockup",
      "outputs": [
        {
          "internalType": "uint256",
          "name": "",
          "type": "uint256"
        }
      ],
      "stateMutability": "view",
      "type": "function"
    },
    {
      "inputs": [],
      "name": "mysteryBox",
      "outputs": [
        {
          "internalType": "address",
          "name": "",
          "type": "address"
        }
      ],
      "stateMutability": "view",
      "type": "function"
    },
    {
      "inputs": [],
      "name": "name",
      "outputs": [
        {
          "internalType": "string",
          "name": "",
          "type": "string"
        }
      ],
      "stateMutability": "view",
      "type": "function"
    },
    {
      "inputs": [
        {
          "internalType": "address",
          "name": "operator",
          "type": "address"
        },
        {
          "internalType": "address",
          "name": "from",
          "type": "address"
        },
        {
          "internalType": "uint256",
          "name": "tokenId",
          "type": "uint256"
        },
        {
          "internalType": "bytes",
          "name": "data",
          "type": "bytes"
        }
      ],
      "name": "onERC721Received",
      "outputs": [
        {
          "internalType": "bytes4",
          "name": "",
          "type": "bytes4"
        }
      ],
      "stateMutability": "pure",
      "type": "function"
    },
    {
      "inputs": [],
      "name": "owner",
      "outputs": [
        {
          "internalType": "address",
          "name": "",
          "type": "address"
        }
      ],
      "stateMutability": "view",
      "type": "function"
    },
    {
      "inputs": [
        {
          "internalType": "uint256",
          "name": "tokenId",
          "type": "uint256"
        }
      ],
      "name": "ownerOf",
      "outputs": [
        {
          "internalType": "address",
          "name": "",
          "type": "address"
        }
      ],
      "stateMutability": "view",
      "type": "function"
    },
    {
      "inputs": [],
      "name": "pause",
      "outputs": [],
      "stateMutability": "nonpayable",
      "type": "function"
    },
    {
      "inputs": [],
      "name": "paused",
      "outputs": [
        {
          "internalType": "bool",
          "name": "",
          "type": "bool"
        }
      ],
      "stateMutability": "view",
      "type": "function"
    },
    {
      "inputs": [],
      "name": "payment",
      "outputs": [
        {
          "internalType": "address",
          "name": "",
          "type": "address"
        }
      ],
      "stateMutability": "view",
      "type": "function"
    },
    {
      "inputs": [],
      "name": "price",
      "outputs": [
        {
          "internalType": "uint256",
          "name": "",
          "type": "uint256"
        }
      ],
      "stateMutability": "view",
      "type": "function"
    },
    {
      "inputs": [],
      "name": "quote",
      "outputs": [
        {
          "internalType": "address",
          "name": "",
          "type": "address"
        }
      ],
      "stateMutability": "view",
      "type": "function"
    },
    {
      "inputs": [],
      "name": "randomness",
      "outputs": [
        {
          "internalType": "uint32",
          "name": "",
          "type": "uint32"
        }
      ],
      "stateMutability": "view",
      "type": "function"
    },
    {
      "inputs": [
        {
          "internalType": "string[]",
          "name": "uris",
          "type": "string[]"
        },
        {
          "internalType": "uint256[]",
          "name": "amounts",
          "type": "uint256[]"
        }
      ],
      "name": "registerItems",
      "outputs": [],
      "stateMutability": "nonpayable",
      "type": "function"
    },
    {
      "inputs": [],
      "name": "renounceOwnership",
      "outputs": [],
      "stateMutability": "nonpayable",
      "type": "function"
    },
    {
      "inputs": [
        {
          "internalType": "bytes32",
          "name": "role",
          "type": "bytes32"
        },
        {
          "internalType": "address",
          "name": "account",
          "type": "address"
        }
      ],
      "name": "renounceRole",
      "outputs": [],
      "stateMutability": "nonpayable",
      "type": "function"
    },
    {
      "inputs": [],
      "name": "requestRandomNumber",
      "outputs": [],
      "stateMutability": "payable",
      "type": "function"
    },
    {
      "inputs": [
        {
          "internalType": "bytes32",
          "name": "role",
          "type": "bytes32"
        },
        {
          "internalType": "address",
          "name": "account",
          "type": "address"
        }
      ],
      "name": "revokeRole",
      "outputs": [],
      "stateMutability": "nonpayable",
      "type": "function"
    },
    {
      "inputs": [
        {
          "internalType": "address",
          "name": "to",
          "type": "address"
        },
        {
          "internalType": "string[]",
          "name": "uris",
          "type": "string[]"
        }
      ],
      "name": "safeBatchMint",
      "outputs": [],
      "stateMutability": "view",
      "type": "function"
    },
    {
      "inputs": [
        {
          "internalType": "address",
          "name": "to",
          "type": "address"
        },
        {
          "internalType": "string",
          "name": "uri",
          "type": "string"
        },
        {
          "internalType": "uint256",
          "name": "amount",
          "type": "uint256"
        }
      ],
      "name": "safeBatchMintLight",
      "outputs": [],
      "stateMutability": "nonpayable",
      "type": "function"
    },
    {
      "inputs": [
        {
          "internalType": "address",
          "name": "to",
          "type": "address"
        },
        {
          "internalType": "string",
          "name": "uri",
          "type": "string"
        }
      ],
      "name": "safeMint",
      "outputs": [
        {
          "internalType": "uint256",
          "name": "",
          "type": "uint256"
        }
      ],
      "stateMutability": "view",
      "type": "function"
    },
    {
      "inputs": [
        {
          "internalType": "address",
          "name": "to",
          "type": "address"
        }
      ],
      "name": "safeMintTo",
      "outputs": [],
      "stateMutability": "nonpayable",
      "type": "function"
    },
    {
      "inputs": [
        {
          "internalType": "address",
          "name": "from",
          "type": "address"
        },
        {
          "internalType": "address",
          "name": "to",
          "type": "address"
        },
        {
          "internalType": "uint256",
          "name": "tokenId",
          "type": "uint256"
        }
      ],
      "name": "safeTransferFrom",
      "outputs": [],
      "stateMutability": "nonpayable",
      "type": "function"
    },
    {
      "inputs": [
        {
          "internalType": "address",
          "name": "from",
          "type": "address"
        },
        {
          "internalType": "address",
          "name": "to",
          "type": "address"
        },
        {
          "internalType": "uint256",
          "name": "tokenId",
          "type": "uint256"
        },
        {
          "internalType": "bytes",
          "name": "_data",
          "type": "bytes"
        }
      ],
      "name": "safeTransferFrom",
      "outputs": [],
      "stateMutability": "nonpayable",
      "type": "function"
    },
    {
      "inputs": [
        {
          "internalType": "address",
          "name": "operator",
          "type": "address"
        },
        {
          "internalType": "bool",
          "name": "approved",
          "type": "bool"
        }
      ],
      "name": "setApprovalForAll",
      "outputs": [],
      "stateMutability": "nonpayable",
      "type": "function"
    },
    {
      "inputs": [
        {
          "internalType": "address",
          "name": "_payment",
          "type": "address"
        },
        {
          "internalType": "address",
          "name": "_treasury",
          "type": "address"
        },
        {
          "internalType": "uint256",
          "name": "_feeRate",
          "type": "uint256"
        }
      ],
      "name": "setConfig",
      "outputs": [],
      "stateMutability": "nonpayable",
      "type": "function"
    },
    {
      "inputs": [
        {
          "internalType": "uint256",
          "name": "_hardCap",
          "type": "uint256"
        },
        {
          "internalType": "string",
          "name": "_uri",
          "type": "string"
        }
      ],
      "name": "setHardCap",
      "outputs": [],
      "stateMutability": "nonpayable",
      "type": "function"
    },
    {
      "inputs": [
        {
          "internalType": "uint256",
          "name": "_launch",
          "type": "uint256"
        }
      ],
      "name": "setLaunch",
      "outputs": [],
      "stateMutability": "nonpayable",
      "type": "function"
    },
    {
      "inputs": [
        {
          "internalType": "uint256",
          "name": "_lockup",
          "type": "uint256"
        }
      ],
      "name": "setLockup",
      "outputs": [],
      "stateMutability": "nonpayable",
      "type": "function"
    },
    {
      "inputs": [
        {
          "internalType": "address",
          "name": "_key",
          "type": "address"
        },
        {
          "internalType": "uint256",
          "name": "_price",
          "type": "uint256"
        }
      ],
      "name": "setMboxKey",
      "outputs": [],
      "stateMutability": "nonpayable",
      "type": "function"
    },
    {
      "inputs": [
        {
          "internalType": "address",
          "name": "_mbox",
          "type": "address"
        }
      ],
      "name": "setMysteryBox",
      "outputs": [],
      "stateMutability": "nonpayable",
      "type": "function"
    },
    {
      "inputs": [
        {
          "internalType": "address",
          "name": "_quote",
          "type": "address"
        }
      ],
      "name": "setQuote",
      "outputs": [],
      "stateMutability": "nonpayable",
      "type": "function"
    },
    {
      "inputs": [
        {
          "internalType": "address",
          "name": "_subscription",
          "type": "address"
        },
        {
          "internalType": "uint256",
          "name": "_type",
          "type": "uint256"
        },
        {
          "internalType": "uint256",
          "name": "_amount",
          "type": "uint256"
        }
      ],
      "name": "setSubscription",
      "outputs": [],
      "stateMutability": "nonpayable",
      "type": "function"
    },
    {
      "inputs": [
        {
          "internalType": "address",
          "name": "",
          "type": "address"
        }
      ],
      "name": "subAddrs",
      "outputs": [
        {
          "internalType": "uint256",
          "name": "",
          "type": "uint256"
        }
      ],
      "stateMutability": "view",
      "type": "function"
    },
    {
      "inputs": [
        {
          "internalType": "uint256",
          "name": "",
          "type": "uint256"
        }
      ],
      "name": "subInfos",
      "outputs": [
        {
          "internalType": "address",
          "name": "contractAddr",
          "type": "address"
        },
        {
          "internalType": "uint256",
          "name": "contractType",
          "type": "uint256"
        },
        {
          "internalType": "uint256",
          "name": "amount",
          "type": "uint256"
        },
        {
          "internalType": "uint256",
          "name": "start",
          "type": "uint256"
        },
        {
          "internalType": "uint256",
          "name": "end",
          "type": "uint256"
        },
        {
          "internalType": "uint256",
          "name": "count",
          "type": "uint256"
        }
      ],
      "stateMutability": "view",
      "type": "function"
    },
    {
      "inputs": [
        {
          "internalType": "bytes4",
          "name": "interfaceId",
          "type": "bytes4"
        }
      ],
      "name": "supportsInterface",
      "outputs": [
        {
          "internalType": "bool",
          "name": "",
          "type": "bool"
        }
      ],
      "stateMutability": "view",
      "type": "function"
    },
    {
      "inputs": [],
      "name": "symbol",
      "outputs": [
        {
          "internalType": "string",
          "name": "",
          "type": "string"
        }
      ],
      "stateMutability": "view",
      "type": "function"
    },
    {
      "inputs": [
        {
          "internalType": "uint256",
          "name": "index",
          "type": "uint256"
        }
      ],
      "name": "tokenByIndex",
      "outputs": [
        {
          "internalType": "uint256",
          "name": "",
          "type": "uint256"
        }
      ],
      "stateMutability": "view",
      "type": "function"
    },
    {
      "inputs": [
        {
          "internalType": "address",
          "name": "owner",
          "type": "address"
        },
        {
          "internalType": "uint256",
          "name": "index",
          "type": "uint256"
        }
      ],
      "name": "tokenOfOwnerByIndex",
      "outputs": [
        {
          "internalType": "uint256",
          "name": "",
          "type": "uint256"
        }
      ],
      "stateMutability": "view",
      "type": "function"
    },
    {
      "inputs": [
        {
          "internalType": "uint256",
          "name": "tokenId",
          "type": "uint256"
        }
      ],
      "name": "tokenURI",
      "outputs": [
        {
          "internalType": "string",
          "name": "",
          "type": "string"
        }
      ],
      "stateMutability": "view",
      "type": "function"
    },
    {
      "inputs": [],
      "name": "totalItems",
      "outputs": [
        {
          "internalType": "uint256",
          "name": "",
          "type": "uint256"
        }
      ],
      "stateMutability": "view",
      "type": "function"
    },
    {
      "inputs": [],
      "name": "totalSupply",
      "outputs": [
        {
          "internalType": "uint256",
          "name": "",
          "type": "uint256"
        }
      ],
      "stateMutability": "view",
      "type": "function"
    },
    {
      "inputs": [
        {
          "internalType": "address",
          "name": "from",
          "type": "address"
        },
        {
          "internalType": "address",
          "name": "to",
          "type": "address"
        },
        {
          "internalType": "uint256",
          "name": "tokenId",
          "type": "uint256"
        }
      ],
      "name": "transferFrom",
      "outputs": [],
      "stateMutability": "nonpayable",
      "type": "function"
    },
    {
      "inputs": [
        {
          "internalType": "address",
          "name": "newOwner",
          "type": "address"
        }
      ],
      "name": "transferOwnership",
      "outputs": [],
      "stateMutability": "nonpayable",
      "type": "function"
    },
    {
      "inputs": [],
      "name": "treasury",
      "outputs": [
        {
          "internalType": "address",
          "name": "",
          "type": "address"
        }
      ],
      "stateMutability": "view",
      "type": "function"
    },
    {
      "inputs": [],
      "name": "unpause",
      "outputs": [],
      "stateMutability": "nonpayable",
      "type": "function"
    },
    {
      "inputs": [],
      "name": "witnet",
      "outputs": [
        {
          "internalType": "contract IWitnetRandomness",
          "name": "",
          "type": "address"
        }
      ],
      "stateMutability": "view",
      "type": "function"
    },
    {
      "stateMutability": "payable",
      "type": "receive"
    }
  ],
  "bytecode": "0x60a06040526000600d819055601380546001600160a01b031916905560178190556032601c55601f8190556022805460ff1916905560248190556026553480156200004957600080fd5b506040516200633d3803806200633d8339810160408190526200006c91620009f4565b8787818181600090805190602001906200008892919062000815565b5080516200009e90600190602084019062000815565b5050600b805460ff1916905550620000b633620002d3565b620000c36000336200032d565b620000de600080516020620062fd833981519152336200032d565b620000f96000805160206200631d833981519152336200032d565b505060016011558151600414620001575760405162461bcd60e51b815260206004820152601a60248201527f696e76616c696420636f6e6669672064617461206c656e67746800000000000060448201526064015b60405180910390fd5b620001646000336200032d565b6200017f600080516020620062fd833981519152336200032d565b6200019a6000805160206200631d833981519152336200032d565b620001d482600081518110620001c057634e487b7160e01b600052603260045260246000fd5b6020026020010151620003d260201b60201c565b6200020e82600181518110620001fa57634e487b7160e01b600052603260045260246000fd5b60200260200101516200045f60201b60201c565b6200024986836002815181106200023557634e487b7160e01b600052603260045260246000fd5b6020026020010151620004e660201b60201c565b620002858484846003815181106200027157634e487b7160e01b600052603260045260246000fd5b6020026020010151620005f960201b60201c565b620002908562000775565b6001600160a01b038116620002b557634e487b7160e01b600052600160045260246000fd5b60601b6001600160601b0319166080525062000b6595505050505050565b600b80546001600160a01b03838116610100818102610100600160a81b031985161790945560405193909204169182907f8be0079c531659141344cd1fd0a4f28419497f9722a3daafe3b4186f6b6457e090600090a35050565b6000828152600c602090815260408083206001600160a01b038516845290915290205460ff16620003ce576000828152600c602090815260408083206001600160a01b03851684529091529020805460ff191660011790556200038d3390565b6001600160a01b0316816001600160a01b0316837f2f8788117e7eff1d82e926ec794901d17c78024a50270940304540a733656f0d60405160405180910390a45b5050565b600b546001600160a01b03610100909104163314620004235760405162461bcd60e51b81526020600482018190526024820152600080516020620062dd83398151915260448201526064016200014e565b60188190556040518181527f7c8826e4db3679f20c86da0c68d37f9dbcd1d638c56717e014f93c56d14c02d1906020015b60405180910390a150565b600b546001600160a01b03610100909104163314620004b05760405162461bcd60e51b81526020600482018190526024820152600080516020620062dd83398151915260448201526064016200014e565b60198190556040518181527fa7ade4ab976b6643a971383d9822fb7c2fce66aa2e497d88c3b4f1475ea2b2e09060200162000454565b600b546001600160a01b03610100909104163314620005375760405162461bcd60e51b81526020600482018190526024820152600080516020620062dd83398151915260448201526064016200014e565b6001600160a01b038216620005995760405162461bcd60e51b815260206004820152602160248201527f57726f6e67204d797374657279426f7820636f6e7472616374206164647265736044820152607360f81b60648201526084016200014e565b601280546001600160a01b0319166001600160a01b038416908117909155601482905560408051918252602082018390527fd46fcdc06972a446de426e47c59c6a0c4581b5c0116ac49a2efc3e7d23bdfe72910160405180910390a15050565b600b546001600160a01b036101009091041633146200064a5760405162461bcd60e51b81526020600482018190526024820152600080516020620062dd83398151915260448201526064016200014e565b6001600160a01b038316620006a25760405162461bcd60e51b815260206004820152601760248201527f696e76616c6964207061796d656e74206164647265737300000000000000000060448201526064016200014e565b6001600160a01b038216620006fa5760405162461bcd60e51b815260206004820152601860248201527f696e76616c69642074726561737572792061646472657373000000000000000060448201526064016200014e565b601a80546001600160a01b038581166001600160a01b03199283168117909355601b8054918616919092168117909155601c83905560408051928352602083019190915281018290527fe2be3027f197494650b7a98fd1cae67dacf615bd1d8bb05102999676f11638669060600160405180910390a1505050565b600b546001600160a01b03610100909104163314620007c65760405162461bcd60e51b81526020600482018190526024820152600080516020620062dd83398151915260448201526064016200014e565b601380546001600160a01b0319166001600160a01b0383169081179091556040519081527fca92c759228172fe3894a344908fd20dfd37ba561b5af191f1f5b02ee03881fc9060200162000454565b828054620008239062000b12565b90600052602060002090601f01602090048101928262000847576000855562000892565b82601f106200086257805160ff191683800117855562000892565b8280016001018555821562000892579182015b828111156200089257825182559160200191906001019062000875565b50620008a0929150620008a4565b5090565b5b80821115620008a05760008155600101620008a5565b80516001600160a01b0381168114620008d357600080fd5b919050565b600082601f830112620008e9578081fd5b815160206001600160401b0382111562000907576200090762000b4f565b8160051b6200091882820162000adf565b83815282810190868401838801850189101562000933578687fd5b8693505b858410156200095757805183526001939093019291840191840162000937565b50979650505050505050565b600082601f83011262000974578081fd5b81516001600160401b0381111562000990576200099062000b4f565b6020620009a6601f8301601f1916820162000adf565b8281528582848701011115620009ba578384fd5b835b83811015620009d9578581018301518282018401528201620009bc565b83811115620009ea57848385840101525b5095945050505050565b600080600080600080600080610100898b03121562000a11578384fd5b88516001600160401b038082111562000a28578586fd5b62000a368c838d0162000963565b995060208b015191508082111562000a4c578586fd5b62000a5a8c838d0162000963565b985062000a6a60408c01620008bb565b975062000a7a60608c01620008bb565b965062000a8a60808c01620008bb565b955062000a9a60a08c01620008bb565b945060c08b015191508082111562000ab0578384fd5b5062000abf8b828c01620008d8565b92505062000ad060e08a01620008bb565b90509295985092959890939650565b604051601f8201601f191681016001600160401b038111828210171562000b0a5762000b0a62000b4f565b604052919050565b600181811c9082168062000b2757607f821691505b6020821081141562000b4957634e487b7160e01b600052602260045260246000fd5b50919050565b634e487b7160e01b600052604160045260246000fd5b60805160601c61574462000b9960003960008181610876015281816122f1015281816126bf0152613a4301526157446000f3fe6080604052600436106104405760003560e01c80636ae6b45911610234578063a22cb4651161012e578063c87b56dd116100b6578063e63ab1e91161007a578063e63ab1e914610e05578063e985e9c514610e27578063f2fde38b14610e70578063fb86a40414610e90578063fcd1ee1014610ea657600080fd5b8063c87b56dd14610d6e578063d204c45e14610d8e578063d3d3224a14610dae578063d539139314610dc3578063d547741f14610de557600080fd5b8063b1fa4176116100fd578063b1fa417614610cd8578063b5a87cc114610cee578063b88d4fde14610d0e578063bfb231d214610d2e578063c38b761c14610d4e57600080fd5b8063a22cb46514610c58578063a2aa61eb14610c78578063a60ee26814610c98578063aad3ec9614610cb857600080fd5b80638a55b866116101bc578063978bbdb911610180578063978bbdb914610bd7578063983b2d5614610bed578063999b93af14610c0d578063a035b1fe14610c2d578063a217fddf14610c4357600080fd5b80638a55b86614610b3f5780638da5cb5b14610b5f578063902835f614610b8257806391d1485414610ba257806395d89b4114610bc257600080fd5b80637b43b827116102035780637b43b82714610ac25780637e9598ae14610ae257806382dc1ec414610b025780638456cb5914610b225780638678a7b214610b3757600080fd5b80636ae6b459146109b057806370a08231146109d0578063715018a6146109f0578063786e435c14610a0557600080fd5b806336568abe1161034557806346d1d21a116102cd5780635c975abb116102915780635c975abb146109185780635d1d37c3146109305780635d814dea1461095057806361d027b3146109705780636352211e1461099057600080fd5b806346d1d21a146108645780634f6ccce714610898578063557dee1f146108b857806355d69962146108cb57806358dd6d95146108f857600080fd5b80633a1395de116103145780633a1395de146107cf5780633f4ba83a146107ef57806342842e0e1461080457806342966c681461082457806342f6487a1461084457600080fd5b806336568abe146106eb57806338e2d9241461070b5780633943380c1461071e57806339eff2be1461073e57600080fd5b8063230a67ee116103c85780632799276d116103975780632799276d146106415780632d97714d146106575780632f2ff15d146106795780632f745c591461069957806336013189146106b957600080fd5b8063230a67ee146105b157806323b872dd146105d157806324490659146105f1578063248a9ca31461061157600080fd5b8063081812fc1161040f578063081812fc146104dd578063095ea7b314610515578063150b7a021461053757806318160ddd1461057c57806321bae9e41461059157600080fd5b806301339c211461044c57806301ffc9a71461047557806306490f47146104a557806306fdde03146104bb57600080fd5b3661044757005b600080fd5b34801561045857600080fd5b5061046260185481565b6040519081526020015b60405180910390f35b34801561048157600080fd5b50610495610490366004615149565b610ec6565b604051901515815260200161046c565b3480156104b157600080fd5b5061046260195481565b3480156104c757600080fd5b506104d0610ef1565b60405161046c9190615379565b3480156104e957600080fd5b506104fd6104f836600461510f565b610f83565b6040516001600160a01b03909116815260200161046c565b34801561052157600080fd5b50610535610530366004614fdd565b611010565b005b34801561054357600080fd5b50610563610552366004614dba565b630a85bd0160e11b95945050505050565b6040516001600160e01b0319909116815260200161046c565b34801561058857600080fd5b50600854610462565b34801561059d57600080fd5b506105356105ac366004614d33565b611126565b3480156105bd57600080fd5b506105356105cc366004615038565b611273565b3480156105dd57600080fd5b506105356105ec366004614d7f565b6113be565b3480156105fd57600080fd5b5061053561060c366004615199565b6113f0565b34801561061d57600080fd5b5061046261062c36600461510f565b6000908152600c602052604090206001015490565b34801561064d57600080fd5b5061046260175481565b34801561066357600080fd5b5061066c611478565b60405161046c9190615335565b34801561068557600080fd5b50610535610694366004615127565b6114d4565b3480156106a557600080fd5b506104626106b4366004614fdd565b6114f9565b3480156106c557600080fd5b50601d546106d69063ffffffff1681565b60405163ffffffff909116815260200161046c565b3480156106f757600080fd5b50610535610706366004615127565b61158f565b6105356107193660046151c7565b61160d565b34801561072a57600080fd5b506012546104fd906001600160a01b031681565b34801561074a57600080fd5b5061079861075936600461510f565b6023602052600090815260409020805460018201546002830154600384015460048501546005909501546001600160a01b039094169492939192909186565b604080516001600160a01b0390971687526020870195909552938501929092526060840152608083015260a082015260c00161046c565b3480156107db57600080fd5b506105356107ea366004615006565b61188c565b3480156107fb57600080fd5b50610535611a70565b34801561081057600080fd5b5061053561081f366004614d7f565b611a93565b34801561083057600080fd5b5061053561083f36600461510f565b611aae565b34801561085057600080fd5b50601a546104fd906001600160a01b031681565b34801561087057600080fd5b506104fd7f000000000000000000000000000000000000000000000000000000000000000081565b3480156108a457600080fd5b506104626108b336600461510f565b611b25565b6105356108c636600461510f565b611bc6565b3480156108d757600080fd5b506104626108e6366004614d33565b60256020526000908152604090205481565b34801561090457600080fd5b50610535610913366004614ec7565b611d95565b34801561092457600080fd5b50600b5460ff16610495565b34801561093c57600080fd5b5061053561094b36600461510f565b611de0565b34801561095c57600080fd5b506104d061096b36600461510f565b611e4c565b34801561097c57600080fd5b50601b546104fd906001600160a01b031681565b34801561099c57600080fd5b506104fd6109ab36600461510f565b611ef8565b3480156109bc57600080fd5b506105356109cb36600461510f565b611f6f565b3480156109dc57600080fd5b506104626109eb366004614d33565b611fd4565b3480156109fc57600080fd5b5061053561205b565b348015610a1157600080fd5b50610a9d610a20366004614d33565b6001600160a01b0390811660009081526025602090815260408083205483526023825291829020825160c08101845281548516815260018201549281019290925260028101549282019290925260038201546060820181905260048301546080830181905260059093015460a09092019190915260125490921692565b604080516001600160a01b03909416845260208401929092529082015260600161046c565b348015610ace57600080fd5b50610535610add366004614d33565b612097565b348015610aee57600080fd5b50610535610afd366004614fdd565b612137565b348015610b0e57600080fd5b50610535610b1d366004614d33565b612220565b348015610b2e57600080fd5b506105356122c6565b6105356122e6565b348015610b4b57600080fd5b50610462610b5a36600461510f565b6123c3565b348015610b6b57600080fd5b50600b5461010090046001600160a01b03166104fd565b348015610b8e57600080fd5b50610535610b9d366004614d7f565b6123e4565b348015610bae57600080fd5b50610495610bbd366004615127565b612533565b348015610bce57600080fd5b506104d061255e565b348015610be357600080fd5b50610462601c5481565b348015610bf957600080fd5b50610535610c08366004614d33565b61256d565b348015610c1957600080fd5b506013546104fd906001600160a01b031681565b348015610c3957600080fd5b5061046260145481565b348015610c4f57600080fd5b50610462600081565b348015610c6457600080fd5b50610535610c73366004614f12565b612613565b348015610c8457600080fd5b50610535610c93366004614d33565b61261e565b348015610ca457600080fd5b50610462610cb336600461510f565b61269c565b348015610cc457600080fd5b50610535610cd3366004614fdd565b612740565b348015610ce457600080fd5b50610462601e5481565b348015610cfa57600080fd5b50610535610d09366004614f89565b612b27565b348015610d1a57600080fd5b50610535610d29366004614e4f565b612bb9565b348015610d3a57600080fd5b50610462610d4936600461510f565b612bf1565b348015610d5a57600080fd5b50600f546104fd906001600160a01b031681565b348015610d7a57600080fd5b506104d0610d8936600461510f565b612c01565b348015610d9a57600080fd5b50610462610da9366004614f48565b612c0c565b348015610dba57600080fd5b506104d0612c26565b348015610dcf57600080fd5b506104626000805160206156ef83398151915281565b348015610df157600080fd5b50610535610e00366004615127565b612c33565b348015610e1157600080fd5b506104626000805160206156cf83398151915281565b348015610e3357600080fd5b50610495610e42366004614d4d565b6001600160a01b03918216600090815260056020908152604080832093909416825291909152205460ff1690565b348015610e7c57600080fd5b50610535610e8b366004614d33565b612c58565b348015610e9c57600080fd5b50610462600d5481565b348015610eb257600080fd5b50610535610ec1366004614fdd565b612cf6565b60006001600160e01b031982166380ac58cd60e01b1480610eeb5750610eeb82613078565b92915050565b606060008054610f00906155fe565b80601f0160208091040260200160405190810160405280929190818152602001828054610f2c906155fe565b8015610f795780601f10610f4e57610100808354040283529160200191610f79565b820191906000526020600020905b815481529060010190602001808311610f5c57829003601f168201915b5050505050905090565b6000610f8e8261309d565b610ff45760405162461bcd60e51b815260206004820152602c60248201527f4552433732313a20617070726f76656420717565727920666f72206e6f6e657860448201526b34b9ba32b73a103a37b5b2b760a11b60648201526084015b60405180910390fd5b506000908152600460205260409020546001600160a01b031690565b600061101b82611ef8565b9050806001600160a01b0316836001600160a01b031614156110895760405162461bcd60e51b815260206004820152602160248201527f4552433732313a20617070726f76616c20746f2063757272656e74206f776e656044820152603960f91b6064820152608401610feb565b336001600160a01b03821614806110a557506110a58133610e42565b6111175760405162461bcd60e51b815260206004820152603860248201527f4552433732313a20617070726f76652063616c6c6572206973206e6f74206f7760448201527f6e6572206e6f7220617070726f76656420666f7220616c6c00000000000000006064820152608401610feb565b61112183836130ba565b505050565b6000805160206156ef83398151915261113e81613128565b6000600e805461114d906155fe565b9050116111945760405162461bcd60e51b815260206004820152601560248201527411db1bd8985b08155492481a5cc81b9bdd081cd95d605a1b6044820152606401610feb565b6001600160a01b0382166111df5760405162461bcd60e51b8152602060048201526012602482015271496e76616c696420746f206164647265737360701b6044820152606401610feb565b61112182600e80546111f0906155fe565b80601f016020809104026020016040519081016040528092919081815260200182805461121c906155fe565b80156112695780601f1061123e57610100808354040283529160200191611269565b820191906000526020600020905b81548152906001019060200180831161124c57829003601f168201915b5050505050612c0c565b6000805160206156ef83398151915261128b81613128565b60225460ff16156112de5760405162461bcd60e51b815260206004820152601860248201527f4974656d7320616c7265616479207265676973746572656400000000000000006044820152606401610feb565b81518351146113275760405162461bcd60e51b8152602060048201526015602482015274082e4e4c2f240d8cadccee8d040dad2e6dac2e8c6d605b1b6044820152606401610feb565b815161133a906021906020850190614a91565b50825161134d9060209081860190614adc565b5060005b83518110156113ab5761139683828151811061137d57634e487b7160e01b600052603260045260246000fd5b602002602001015160175461313290919063ffffffff16565b601755806113a381615639565b915050611351565b50506022805460ff191660011790555050565b6113c9335b8261313e565b6113e55760405162461bcd60e51b8152600401610feb906154b5565b611121838383613228565b600b546001600160a01b036101009091041633146114205760405162461bcd60e51b8152600401610feb90615408565b600d829055805161143890600e906020840190614b35565b507f57bbf0b7295e3c8587fe0fa3c76592771f6a96123bf723292fd0e3933436b71f600d5460405161146c91815260200190565b60405180910390a15050565b6060600060218054806020026020016040519081016040528092919081815260200182805480156114c857602002820191906000526020600020905b8154815260200190600101908083116114b4575b50939695505050505050565b6000828152600c60205260409020600101546114ef81613128565b61112183836133cf565b600061150483611fd4565b82106115665760405162461bcd60e51b815260206004820152602b60248201527f455243373231456e756d657261626c653a206f776e657220696e646578206f7560448201526a74206f6620626f756e647360a81b6064820152608401610feb565b506001600160a01b03919091166000908152600660209081526040808320938352929052205490565b6001600160a01b03811633146115ff5760405162461bcd60e51b815260206004820152602f60248201527f416363657373436f6e74726f6c3a2063616e206f6e6c792072656e6f756e636560448201526e103937b632b9903337b91039b2b63360891b6064820152608401610feb565b6116098282613455565b5050565b6013546001600160a01b03166116595760405162461bcd60e51b81526020600482015260116024820152702bb937b7339038bab7ba32903a37b5b2b760791b6044820152606401610feb565b60185442116116aa5760405162461bcd60e51b815260206004820152601b60248201527f4e6f7420796574206c61756e63682074696d65207265616368656400000000006044820152606401610feb565b600082116116ca5760405162461bcd60e51b8152600401610feb90615474565b6014546116d89082906134bc565b82146116f65760405162461bcd60e51b8152600401610feb9061543d565b6014546117049082906134bc565b82146117225760405162461bcd60e51b8152600401610feb9061543d565b6013546040516370a0823160e01b81523360048201526000916001600160a01b0316906370a082319060240160206040518083038186803b15801561176657600080fd5b505afa15801561177a573d6000803e3d6000fd5b505050506040513d601f19601f8201168201806040525081019061179e9190615181565b90508281116117ef5760405162461bcd60e51b815260206004820152601b60248201527f6c61636b206f662071756f746520746f6b656e2062616c616e636500000000006044820152606401610feb565b601354611807906001600160a01b03163330866134c8565b60005b828110156118825760125460405163086eba7960e21b81523360048201526001600160a01b03909116906321bae9e490602401600060405180830381600087803b15801561185757600080fd5b505af115801561186b573d6000803e3d6000fd5b50505050808061187a90615639565b91505061180a565b5061112182613606565b600b546001600160a01b036101009091041633146118bc5760405162461bcd60e51b8152600401610feb90615408565b6001600160a01b03831661191e5760405162461bcd60e51b815260206004820152602360248201527f57726f6e6720537562736372697074696f6e20636f6e7472616374206164647260448201526265737360e81b6064820152608401610feb565b60245460256000856001600160a01b03166001600160a01b03168152602001908152602001600020819055506040518060c00160405280846001600160a01b03168152602001838152602001828152602001602654815260200161199860016119928560265461313290919063ffffffff16565b906137cc565b815260006020918201819052602480548252602383526040808320855181546001600160a01b0319166001600160a01b039091161781559385015160018501558401516002840155606084015160038401556080840151600484015560a09093015160059092019190915581549190611a1083615639565b9091555050602654611a229082613132565b602655611a2e8361256d565b6040516001600160a01b03841681527f17c74683f7319a4225517b5017988f05364289712fe6386d78e265035a787225906020015b60405180910390a1505050565b6000805160206156cf833981519152611a8881613128565b611a906137d8565b50565b61112183838360405180602001604052806000815250612bb9565b611ab7336113c3565b611b1c5760405162461bcd60e51b815260206004820152603060248201527f4552433732314275726e61626c653a2063616c6c6572206973206e6f74206f7760448201526f1b995c881b9bdc88185c1c1c9bdd995960821b6064820152608401610feb565b611a908161386b565b6000611b3060085490565b8210611b935760405162461bcd60e51b815260206004820152602c60248201527f455243373231456e756d657261626c653a20676c6f62616c20696e646578206f60448201526b7574206f6620626f756e647360a01b6064820152608401610feb565b60088281548110611bb457634e487b7160e01b600052603260045260246000fd5b90600052602060002001549050919050565b6013546001600160a01b031615611c135760405162461bcd60e51b81526020600482015260116024820152702bb937b7339038bab7ba32903a37b5b2b760791b6044820152606401610feb565b6018544211611c645760405162461bcd60e51b815260206004820152601b60248201527f4e6f7420796574206c61756e63682074696d65207265616368656400000000006044820152606401610feb565b60003411611c845760405162461bcd60e51b8152600401610feb90615474565b601454611c929082906134bc565b3414611cb05760405162461bcd60e51b8152600401610feb9061543d565b6012546001600160a01b031615801590611cca5750602454155b611d105760405162461bcd60e51b81526020600482015260176024820152761ad95e4818dbdb9d1c9858dd081a5cc81b9bdd081cd95d604a1b6044820152606401610feb565b60005b81811015611d8b5760125460405163086eba7960e21b81523360048201526001600160a01b03909116906321bae9e490602401600060405180830381600087803b158015611d6057600080fd5b505af1158015611d74573d6000803e3d6000fd5b505050508080611d8390615639565b915050611d13565b50611a9081613606565b6000805160206156ef833981519152611dad81613128565b60405162461bcd60e51b8152602060048201526008602482015267111a5cd8589b195960c21b6044820152606401610feb565b600b546001600160a01b03610100909104163314611e105760405162461bcd60e51b8152600401610feb90615408565b60188190556040518181527f7c8826e4db3679f20c86da0c68d37f9dbcd1d638c56717e014f93c56d14c02d1906020015b60405180910390a150565b60208181548110611e5c57600080fd5b906000526020600020016000915090508054611e77906155fe565b80601f0160208091040260200160405190810160405280929190818152602001828054611ea3906155fe565b8015611ef05780601f10611ec557610100808354040283529160200191611ef0565b820191906000526020600020905b815481529060010190602001808311611ed357829003601f168201915b505050505081565b6000818152600260205260408120546001600160a01b031680610eeb5760405162461bcd60e51b815260206004820152602960248201527f4552433732313a206f776e657220717565727920666f72206e6f6e657869737460448201526832b73a103a37b5b2b760b91b6064820152608401610feb565b600b546001600160a01b03610100909104163314611f9f5760405162461bcd60e51b8152600401610feb90615408565b60198190556040518181527fa7ade4ab976b6643a971383d9822fb7c2fce66aa2e497d88c3b4f1475ea2b2e090602001611e41565b60006001600160a01b03821661203f5760405162461bcd60e51b815260206004820152602a60248201527f4552433732313a2062616c616e636520717565727920666f7220746865207a65604482015269726f206164647265737360b01b6064820152608401610feb565b506001600160a01b031660009081526003602052604090205490565b600b546001600160a01b0361010090910416331461208b5760405162461bcd60e51b8152600401610feb90615408565b6120956000613874565b565b600b546001600160a01b036101009091041633146120c75760405162461bcd60e51b8152600401610feb90615408565b600f80546001600160a01b0319166001600160a01b0383161790556120fa6000805160206156ef833981519152826133cf565b600f546040516001600160a01b0390911681527f329b1203fc60a62c4a0fd3ff1554a07f92a2f117cc590422dd105811bb484ded90602001611e41565b600b546001600160a01b036101009091041633146121675760405162461bcd60e51b8152600401610feb90615408565b6001600160a01b0382166121c75760405162461bcd60e51b815260206004820152602160248201527f57726f6e67204d797374657279426f7820636f6e7472616374206164647265736044820152607360f81b6064820152608401610feb565b601280546001600160a01b0319166001600160a01b038416908117909155601482905560408051918252602082018390527fd46fcdc06972a446de426e47c59c6a0c4581b5c0116ac49a2efc3e7d23bdfe72910161146c565b600b546001600160a01b036101009091041633146122505760405162461bcd60e51b8152600401610feb90615408565b6122686000805160206156cf833981519152826133cf565b604080516001600160a01b038316815260208101829052600b918101919091526a5041555345525f524f4c4560a81b60608201527f0578acc86b18d67c13a5e6eed8c670fb7052f530b48a2acb167d6ca77509a38490608001611e41565b6000805160206156cf8339815191526122de81613128565b611a906138ce565b43601e8190555060007f00000000000000000000000000000000000000000000000000000000000000006001600160a01b031663699b328a346040518263ffffffff1660e01b81526004016020604051808303818588803b15801561234a57600080fd5b505af115801561235e573d6000803e3d6000fd5b50505050506040513d601f19601f820116820180604052508101906123839190615181565b905034811015611a9057336108fc61239b83346155a4565b6040518115909202916000818181858888f19350505050158015611609573d6000803e3d6000fd5b602181815481106123d357600080fd5b600091825260209091200154905081565b600b546001600160a01b036101009091041633146124145760405162461bcd60e51b8152600401610feb90615408565b6001600160a01b03831661246a5760405162461bcd60e51b815260206004820152601760248201527f696e76616c6964207061796d656e7420616464726573730000000000000000006044820152606401610feb565b6001600160a01b0382166124c05760405162461bcd60e51b815260206004820152601860248201527f696e76616c6964207472656173757279206164647265737300000000000000006044820152606401610feb565b601a80546001600160a01b038581166001600160a01b03199283168117909355601b8054918616919092168117909155601c83905560408051928352602083019190915281018290527fe2be3027f197494650b7a98fd1cae67dacf615bd1d8bb05102999676f116386690606001611a63565b6000918252600c602090815260408084206001600160a01b0393909316845291905290205460ff1690565b606060018054610f00906155fe565b600b546001600160a01b0361010090910416331461259d5760405162461bcd60e51b8152600401610feb90615408565b6125b56000805160206156ef833981519152826133cf565b604080516001600160a01b038316815260208101829052600b918101919091526a4d494e5445525f524f4c4560a81b60608201527f0578acc86b18d67c13a5e6eed8c670fb7052f530b48a2acb167d6ca77509a38490608001611e41565b611609338383613926565b600b546001600160a01b0361010090910416331461264e5760405162461bcd60e51b8152600401610feb90615408565b601380546001600160a01b0319166001600160a01b0383169081179091556040519081527fca92c759228172fe3894a344908fd20dfd37ba561b5af191f1f5b02ee03881fc90602001611e41565b6040516314c1dc4d60e31b81526004810182905260009081906001600160a01b037f0000000000000000000000000000000000000000000000000000000000000000169063a60ee2689060240160206040518083038186803b15801561270157600080fd5b505afa158015612715573d6000803e3d6000fd5b505050506040513d601f19601f820116820180604052508101906127399190615181565b9392505050565b600b5460ff16156127635760405162461bcd60e51b8152600401610feb906153de565b600260115414156127b65760405162461bcd60e51b815260206004820152601f60248201527f5265656e7472616e637947756172643a207265656e7472616e742063616c6c006044820152606401610feb565b60026011556012546001600160a01b031661280a5760405162461bcd60e51b81526020600482015260146024820152731ad95e4818dbdb9d1c9858dd081b9bdd081cd95d60621b6044820152606401610feb565b6001600160a01b0382166128565760405162461bcd60e51b815260206004820152601360248201527257726f6e6720636c61696d206164647265737360681b6044820152606401610feb565b60195442116128a75760405162461bcd60e51b815260206004820152601b60248201527f4e6f74207965742072657665616c2074696d65207265616368656400000000006044820152606401610feb565b6012546040516370a0823160e01b81523360048201526000916001600160a01b0316906370a082319060240160206040518083038186803b1580156128eb57600080fd5b505afa1580156128ff573d6000803e3d6000fd5b505050506040513d601f19601f820116820180604052508101906129239190615181565b9050600081116129915760405162461bcd60e51b815260206004820152603360248201527f4f6e6c79206f776e657273206f66204d797374657279426f782063616e20636c60448201527261696d20756e626f786564206974656d28732960681b6064820152608401610feb565b8082111580156129a15750600082115b6129e45760405162461bcd60e51b81526020600482015260146024820152731a5b9d985b1a590818db185a5b48185b5bdd5b9d60621b6044820152606401610feb565b60005b82811015612b1c57601254604051632f745c5960e01b8152336004820152600060248201819052916001600160a01b031690632f745c599060440160206040518083038186803b158015612a3a57600080fd5b505afa158015612a4e573d6000803e3d6000fd5b505050506040513d601f19601f82011682018060405250810190612a729190615181565b601254604051632142170760e11b815233600482015261dead6024820152604481018390529192506001600160a01b0316906342842e0e90606401600060405180830381600087803b158015612ac757600080fd5b505af1158015612adb573d6000803e3d6000fd5b50505050612aea6017546139f5565b601d54612b07908690612b029063ffffffff16613af7565b613c77565b50508080612b1490615639565b9150506129e7565b505060016011555050565b6000805160206156ef833981519152612b3f81613128565b6001600160a01b038416612b8a5760405162461bcd60e51b8152602060048201526012602482015271496e76616c696420746f206164647265737360701b6044820152606401610feb565b60005b82811015612bb257612b9f8585612c0c565b5080612baa81615639565b915050612b8d565b5050505050565b612bc3338361313e565b612bdf5760405162461bcd60e51b8152600401610feb906154b5565b612beb84848484613c84565b50505050565b601681815481106123d357600080fd5b6060610eeb82613cb7565b60006000805160206156ef833981519152611dad81613128565b600e8054611e77906155fe565b6000828152600c6020526040902060010154612c4e81613128565b6111218383613455565b600b546001600160a01b03610100909104163314612c885760405162461bcd60e51b8152600401610feb90615408565b6001600160a01b038116612ced5760405162461bcd60e51b815260206004820152602660248201527f4f776e61626c653a206e6577206f776e657220697320746865207a65726f206160448201526564647265737360d01b6064820152608401610feb565b611a9081613874565b600b5460ff1615612d195760405162461bcd60e51b8152600401610feb906153de565b600060245411612d6b5760405162461bcd60e51b815260206004820152601d60248201527f4e6f20737562736372697074696f6e20636f6e747261637473207365740000006044820152606401610feb565b33600081815260256020908152604080832054835260239091529020546001600160a01b031614612df45760405162461bcd60e51b815260206004820152602d60248201527f4f6e6c7920737562736372697074696f6e20636f6e74726163742063616e206360448201526c616c6c20636c61696d4b65797360981b6064820152608401610feb565b60026011541415612e475760405162461bcd60e51b815260206004820152601f60248201527f5265656e7472616e637947756172643a207265656e7472616e742063616c6c006044820152606401610feb565b60026011556012546001600160a01b0316612e9b5760405162461bcd60e51b81526020600482015260146024820152731ad95e4818dbdb9d1c9858dd081b9bdd081cd95d60621b6044820152606401610feb565b6001600160a01b038216612ee75760405162461bcd60e51b815260206004820152601360248201527257726f6e6720636c61696d206164647265737360681b6044820152606401610feb565b60008111612f375760405162461bcd60e51b815260206004820152601a60248201527f696e76616c696420746f6b656e49647320666f7220636c61696d0000000000006044820152606401610feb565b3360009081526025602052604081205490805b8381101561306c5760008381526023602052604090206005810154600390910154612f7491613132565b600084815260236020526040902060040154909250821115612fd85760405162461bcd60e51b815260206004820152601760248201527f636c61696d20746f6b656e204964206f766572666c6f770000000000000000006044820152606401610feb565b6000838152602360205260408120600501805491612ff583615639565b909155505060125460405163086eba7960e21b81526001600160a01b038781166004830152909116906321bae9e490602401600060405180830381600087803b15801561304157600080fd5b505af1158015613055573d6000803e3d6000fd5b50505050808061306490615639565b915050612f4a565b50506001601155505050565b60006001600160e01b03198216637965db0b60e01b1480610eeb5750610eeb82613e26565b6000908152600260205260409020546001600160a01b0316151590565b600081815260046020526040902080546001600160a01b0319166001600160a01b03841690811790915581906130ef82611ef8565b6001600160a01b03167f8c5be1e5ebec7d5bd14f71427d1e84f3dd0314c0f7b2291e5b200ac8c7c3b92560405160405180910390a45050565b611a908133613e4b565b60006127398284615559565b60006131498261309d565b6131aa5760405162461bcd60e51b815260206004820152602c60248201527f4552433732313a206f70657261746f7220717565727920666f72206e6f6e657860448201526b34b9ba32b73a103a37b5b2b760a11b6064820152608401610feb565b60006131b583611ef8565b9050806001600160a01b0316846001600160a01b031614806131fc57506001600160a01b0380821660009081526005602090815260408083209388168352929052205460ff165b806132205750836001600160a01b031661321584610f83565b6001600160a01b0316145b949350505050565b826001600160a01b031661323b82611ef8565b6001600160a01b03161461329f5760405162461bcd60e51b815260206004820152602560248201527f4552433732313a207472616e736665722066726f6d20696e636f72726563742060448201526437bbb732b960d91b6064820152608401610feb565b6001600160a01b0382166133015760405162461bcd60e51b8152602060048201526024808201527f4552433732313a207472616e7366657220746f20746865207a65726f206164646044820152637265737360e01b6064820152608401610feb565b61330c838383613eaf565b6133176000826130ba565b6001600160a01b03831660009081526003602052604081208054600192906133409084906155a4565b90915550506001600160a01b038216600090815260036020526040812080546001929061336e908490615559565b909155505060008181526002602052604080822080546001600160a01b0319166001600160a01b0386811691821790925591518493918716917fddf252ad1be2c89b69c2b068fc378daa952ba7f163c4a11628f55a4df523b3ef91a4505050565b6133d98282612533565b611609576000828152600c602090815260408083206001600160a01b03851684529091529020805460ff191660011790556134113390565b6001600160a01b0316816001600160a01b0316837f2f8788117e7eff1d82e926ec794901d17c78024a50270940304540a733656f0d60405160405180910390a45050565b61345f8282612533565b15611609576000828152600c602090815260408083206001600160a01b0385168085529252808320805460ff1916905551339285917ff6391f5c32d9c69d2a47ea670b442974b53935d1edc7fd64eb21e047a839171b9190a45050565b60006127398284615585565b604080516001600160a01b0385811660248301528481166044830152606480830185905283518084039091018152608490920183526020820180516001600160e01b03166323b872dd60e01b179052915160009283929088169161352c9190615238565b6000604051808303816000865af19150503d8060008114613569576040519150601f19603f3d011682016040523d82523d6000602084013e61356e565b606091505b509150915081801561359857508051158061359857508080602001905181019061359891906150f3565b6135fe5760405162461bcd60e51b815260206004820152603160248201527f5472616e7366657248656c7065723a3a7472616e7366657246726f6d3a207472604482015270185b9cd9995c919c9bdb4819985a5b1959607a1b6064820152608401610feb565b505050505050565b6012546001600160a01b03166136585760405162461bcd60e51b81526020600482015260176024820152761ad95e4818dbdb9d1c9858dd081a5cc81b9bdd081cd95d604a1b6044820152606401610feb565b602454156136a85760405162461bcd60e51b815260206004820152601e60248201527f6d797374657279626f7820696e76616c6964206d6574686f642063616c6c00006044820152606401610feb565b601a546001600160a01b03166137005760405162461bcd60e51b815260206004820152601a60248201527f7061796d656e742061646472657373206973206e6f74207365740000000000006044820152606401610feb565b6000613717601454836134bc90919063ffffffff16565b9050600061373c6103e8613736601c54856134bc90919063ffffffff16565b90613edd565b6013549091506001600160a01b03161561379757601354601b5461376f916001600160a01b0390811691309116846134c8565b601354601a54611121916001600160a01b039081169130911661379286866137cc565b6134c8565b601b546137ad906001600160a01b031682613ee9565b601a54611121906001600160a01b03166137c784846137cc565b613ee9565b600061273982846155a4565b600b5460ff166138215760405162461bcd60e51b815260206004820152601460248201527314185d5cd8589b194e881b9bdd081c185d5cd95960621b6044820152606401610feb565b600b805460ff191690557f5db9ee0a495bf2e6ff9c91a7834c1ba4fdd244a5e8aa4e537bd38aeae4b073aa335b6040516001600160a01b03909116815260200160405180910390a1565b611a9081613fc3565b600b80546001600160a01b03838116610100818102610100600160a81b031985161790945560405193909204169182907f8be0079c531659141344cd1fd0a4f28419497f9722a3daafe3b4186f6b6457e090600090a35050565b600b5460ff16156138f15760405162461bcd60e51b8152600401610feb906153de565b600b805460ff191660011790557f62e78cea01bee320cd4e420270b5ea74000d11b0c9f74754ebdbfc544b05a25861384e3390565b816001600160a01b0316836001600160a01b031614156139885760405162461bcd60e51b815260206004820152601960248201527f4552433732313a20617070726f766520746f2063616c6c6572000000000000006044820152606401610feb565b6001600160a01b03838116600081815260056020908152604080832094871680845294825291829020805460ff191686151590811790915591519182527f17307eab39ab6107e8899845ad3d59bd9653f200f220920489ca2b5937696c31910160405180910390a3505050565b6000601e5411613a1557634e487b7160e01b600052600160045260246000fd5b601f54601e546040516324cbbfc160e01b815263ffffffff84166004820152602481019290925260448201527f00000000000000000000000000000000000000000000000000000000000000006001600160a01b0316906324cbbfc19060640160206040518083038186803b158015613a8d57600080fd5b505afa158015613aa1573d6000803e3d6000fd5b505050506040513d601f19601f82011682018060405250810190613ac591906151e8565b601d805463ffffffff191663ffffffff92909216919091179055601f8054906000613aef83615639565b919050555050565b6060600080805b602054811015613b6a57613b4660218281548110613b2c57634e487b7160e01b600052603260045260246000fd5b90600052602060002001548361313290919063ffffffff16565b915081851015613b5857809250613b6a565b80613b6281615639565b915050613afe565b50601754613b799060016137cc565b50613bb9600160218481548110613ba057634e487b7160e01b600052603260045260246000fd5b90600052602060002001546137cc90919063ffffffff16565b5060208281548110613bdb57634e487b7160e01b600052603260045260246000fd5b906000526020600020018054613bf0906155fe565b80601f0160208091040260200160405190810160405280929190818152602001828054613c1c906155fe565b8015613c695780601f10613c3e57610100808354040283529160200191613c69565b820191906000526020600020905b815481529060010190602001808311613c4c57829003601f168201915b505050505092505050919050565b6000806132208484614003565b613c8f848484613228565b613c9b84848484614033565b612beb5760405162461bcd60e51b8152600401610feb9061538c565b6060613cc28261309d565b613d285760405162461bcd60e51b815260206004820152603160248201527f45524337323155524953746f726167653a2055524920717565727920666f72206044820152703737b732bc34b9ba32b73a103a37b5b2b760791b6064820152608401610feb565b6000828152600a602052604081208054613d41906155fe565b80601f0160208091040260200160405190810160405280929190818152602001828054613d6d906155fe565b8015613dba5780601f10613d8f57610100808354040283529160200191613dba565b820191906000526020600020905b815481529060010190602001808311613d9d57829003601f168201915b505050505090506000613dd860408051602081019091526000815290565b9050805160001415613deb575092915050565b815115613e1d578082604051602001613e05929190615254565b60405160208183030381529060405292505050919050565b61322084614140565b60006001600160e01b0319821663780e9d6360e01b1480610eeb5750610eeb82614217565b613e558282612533565b61160957613e6d816001600160a01b03166014614267565b613e78836020614267565b604051602001613e89929190615283565b60408051601f198184030181529082905262461bcd60e51b8252610feb91600401615379565b600b5460ff1615613ed25760405162461bcd60e51b8152600401610feb906153de565b611121838383614448565b60006127398284615571565b604080516000808252602082019092526001600160a01b038416908390604051613f139190615238565b60006040518083038185875af1925050503d8060008114613f50576040519150601f19603f3d011682016040523d82523d6000602084013e613f55565b606091505b50509050806111215760405162461bcd60e51b815260206004820152603460248201527f5472616e7366657248656c7065723a3a736166655472616e736665724554483a60448201527308115512081d1c985b9cd9995c8819985a5b195960621b6064820152608401610feb565b613fcc81614500565b6000818152600a602052604090208054613fe5906155fe565b159050611a90576000818152600a60205260408120611a9091614ba8565b60008061400f60105490565b905061401f601080546001019055565b61402984826145a7565b61273981846145c1565b60006001600160a01b0384163b1561413557604051630a85bd0160e11b81526001600160a01b0385169063150b7a02906140779033908990889088906004016152f8565b602060405180830381600087803b15801561409157600080fd5b505af19250505080156140c1575060408051601f3d908101601f191682019092526140be91810190615165565b60015b61411b573d8080156140ef576040519150601f19603f3d011682016040523d82523d6000602084013e6140f4565b606091505b5080516141135760405162461bcd60e51b8152600401610feb9061538c565b805181602001fd5b6001600160e01b031916630a85bd0160e11b149050613220565b506001949350505050565b606061414b8261309d565b6141af5760405162461bcd60e51b815260206004820152602f60248201527f4552433732314d657461646174613a2055524920717565727920666f72206e6f60448201526e3732bc34b9ba32b73a103a37b5b2b760891b6064820152608401610feb565b60006141c660408051602081019091526000815290565b905060008151116141e65760405180602001604052806000815250612739565b806141f08461464c565b604051602001614201929190615254565b6040516020818303038152906040529392505050565b60006001600160e01b031982166380ac58cd60e01b148061424857506001600160e01b03198216635b5e139f60e01b145b80610eeb57506301ffc9a760e01b6001600160e01b0319831614610eeb565b60606000614276836002615585565b614281906002615559565b6001600160401b038111156142a657634e487b7160e01b600052604160045260246000fd5b6040519080825280601f01601f1916602001820160405280156142d0576020820181803683370190505b509050600360fc1b816000815181106142f957634e487b7160e01b600052603260045260246000fd5b60200101906001600160f81b031916908160001a905350600f60fb1b8160018151811061433657634e487b7160e01b600052603260045260246000fd5b60200101906001600160f81b031916908160001a905350600061435a846002615585565b614365906001615559565b90505b60018111156143f9576f181899199a1a9b1b9c1cb0b131b232b360811b85600f16601081106143a757634e487b7160e01b600052603260045260246000fd5b1a60f81b8282815181106143cb57634e487b7160e01b600052603260045260246000fd5b60200101906001600160f81b031916908160001a90535060049490941c936143f2816155e7565b9050614368565b5083156127395760405162461bcd60e51b815260206004820181905260248201527f537472696e67733a20686578206c656e67746820696e73756666696369656e746044820152606401610feb565b6001600160a01b0383166144a35761449e81600880546000838152600960205260408120829055600182018355919091527ff3f7a9fe364faab93b216da50a3214154f22a0a2b415b23a84c8169e8b636ee30155565b6144c6565b816001600160a01b0316836001600160a01b0316146144c6576144c68382614765565b6001600160a01b0382166144dd5761112181614802565b826001600160a01b0316826001600160a01b0316146111215761112182826148db565b600061450b82611ef8565b905061451981600084613eaf565b6145246000836130ba565b6001600160a01b038116600090815260036020526040812080546001929061454d9084906155a4565b909155505060008281526002602052604080822080546001600160a01b0319169055518391906001600160a01b038416907fddf252ad1be2c89b69c2b068fc378daa952ba7f163c4a11628f55a4df523b3ef908390a45050565b61160982826040518060200160405280600081525061491f565b6145ca8261309d565b61462d5760405162461bcd60e51b815260206004820152602e60248201527f45524337323155524953746f726167653a2055524920736574206f66206e6f6e60448201526d32bc34b9ba32b73a103a37b5b2b760911b6064820152608401610feb565b6000828152600a60209081526040909120825161112192840190614b35565b6060816146705750506040805180820190915260018152600360fc1b602082015290565b8160005b811561469a578061468481615639565b91506146939050600a83615571565b9150614674565b6000816001600160401b038111156146c257634e487b7160e01b600052604160045260246000fd5b6040519080825280601f01601f1916602001820160405280156146ec576020820181803683370190505b5090505b8415613220576147016001836155a4565b915061470e600a86615654565b614719906030615559565b60f81b81838151811061473c57634e487b7160e01b600052603260045260246000fd5b60200101906001600160f81b031916908160001a90535061475e600a86615571565b94506146f0565b6000600161477284611fd4565b61477c91906155a4565b6000838152600760205260409020549091508082146147cf576001600160a01b03841660009081526006602090815260408083208584528252808320548484528184208190558352600790915290208190555b5060009182526007602090815260408084208490556001600160a01b039094168352600681528383209183525290812055565b600854600090614814906001906155a4565b6000838152600960205260408120546008805493945090928490811061484a57634e487b7160e01b600052603260045260246000fd5b90600052602060002001549050806008838154811061487957634e487b7160e01b600052603260045260246000fd5b60009182526020808320909101929092558281526009909152604080822084905585825281205560088054806148bf57634e487b7160e01b600052603160045260246000fd5b6001900381819060005260206000200160009055905550505050565b60006148e683611fd4565b6001600160a01b039093166000908152600660209081526040808320868452825280832085905593825260079052919091209190915550565b6149298383614952565b6149366000848484614033565b6111215760405162461bcd60e51b8152600401610feb9061538c565b6001600160a01b0382166149a85760405162461bcd60e51b815260206004820181905260248201527f4552433732313a206d696e7420746f20746865207a65726f20616464726573736044820152606401610feb565b6149b18161309d565b156149fe5760405162461bcd60e51b815260206004820152601c60248201527f4552433732313a20746f6b656e20616c7265616479206d696e746564000000006044820152606401610feb565b614a0a60008383613eaf565b6001600160a01b0382166000908152600360205260408120805460019290614a33908490615559565b909155505060008181526002602052604080822080546001600160a01b0319166001600160a01b03861690811790915590518392907fddf252ad1be2c89b69c2b068fc378daa952ba7f163c4a11628f55a4df523b3ef908290a45050565b828054828255906000526020600020908101928215614acc579160200282015b82811115614acc578251825591602001919060010190614ab1565b50614ad8929150614bde565b5090565b828054828255906000526020600020908101928215614b29579160200282015b82811115614b295782518051614b19918491602090910190614b35565b5091602001919060010190614afc565b50614ad8929150614bf3565b828054614b41906155fe565b90600052602060002090601f016020900481019282614b635760008555614acc565b82601f10614b7c57805160ff1916838001178555614acc565b82800160010185558215614acc5791820182811115614acc578251825591602001919060010190614ab1565b508054614bb4906155fe565b6000825580601f10614bc4575050565b601f016020900490600052602060002090810190611a9091905b5b80821115614ad85760008155600101614bdf565b80821115614ad8576000614c078282614ba8565b50600101614bf3565b60006001600160401b03831115614c2957614c29615694565b614c3c601f8401601f1916602001615506565b9050828152838383011115614c5057600080fd5b828260208301376000602084830101529392505050565b80356001600160a01b0381168114614c7e57600080fd5b919050565b600082601f830112614c93578081fd5b81356020614ca8614ca383615536565b615506565b80838252828201915082860187848660051b8901011115614cc7578586fd5b855b85811015614d075781356001600160401b03811115614ce6578788fd5b614cf48a87838c0101614d14565b8552509284019290840190600101614cc9565b5090979650505050505050565b600082601f830112614d24578081fd5b61273983833560208501614c10565b600060208284031215614d44578081fd5b61273982614c67565b60008060408385031215614d5f578081fd5b614d6883614c67565b9150614d7660208401614c67565b90509250929050565b600080600060608486031215614d93578081fd5b614d9c84614c67565b9250614daa60208501614c67565b9150604084013590509250925092565b600080600080600060808688031215614dd1578081fd5b614dda86614c67565b9450614de860208701614c67565b93506040860135925060608601356001600160401b0380821115614e0a578283fd5b818801915088601f830112614e1d578283fd5b813581811115614e2b578384fd5b896020828501011115614e3c578384fd5b9699959850939650602001949392505050565b60008060008060808587031215614e64578384fd5b614e6d85614c67565b9350614e7b60208601614c67565b92506040850135915060608501356001600160401b03811115614e9c578182fd5b8501601f81018713614eac578182fd5b614ebb87823560208401614c10565b91505092959194509250565b60008060408385031215614ed9578182fd5b614ee283614c67565b915060208301356001600160401b03811115614efc578182fd5b614f0885828601614c83565b9150509250929050565b60008060408385031215614f24578182fd5b614f2d83614c67565b91506020830135614f3d816156aa565b809150509250929050565b60008060408385031215614f5a578182fd5b614f6383614c67565b915060208301356001600160401b03811115614f7d578182fd5b614f0885828601614d14565b600080600060608486031215614f9d578081fd5b614fa684614c67565b925060208401356001600160401b03811115614fc0578182fd5b614fcc86828701614d14565b925050604084013590509250925092565b60008060408385031215614fef578182fd5b614ff883614c67565b946020939093013593505050565b60008060006060848603121561501a578081fd5b61502384614c67565b95602085013595506040909401359392505050565b6000806040838503121561504a578182fd5b82356001600160401b0380821115615060578384fd5b61506c86838701614c83565b9350602091508185013581811115615082578384fd5b85019050601f81018613615094578283fd5b80356150a2614ca382615536565b80828252848201915084840189868560051b87010111156150c1578687fd5b8694505b838510156150e35780358352600194909401939185019185016150c5565b5080955050505050509250929050565b600060208284031215615104578081fd5b8151612739816156aa565b600060208284031215615120578081fd5b5035919050565b60008060408385031215615139578182fd5b82359150614d7660208401614c67565b60006020828403121561515a578081fd5b8135612739816156b8565b600060208284031215615176578081fd5b8151612739816156b8565b600060208284031215615192578081fd5b5051919050565b600080604083850312156151ab578182fd5b8235915060208301356001600160401b03811115614f7d578182fd5b600080604083850312156151d9578182fd5b50508035926020909101359150565b6000602082840312156151f9578081fd5b815163ffffffff81168114612739578182fd5b600081518084526152248160208601602086016155bb565b601f01601f19169290920160200192915050565b6000825161524a8184602087016155bb565b9190910192915050565b600083516152668184602088016155bb565b83519083019061527a8183602088016155bb565b01949350505050565b7f416363657373436f6e74726f6c3a206163636f756e74200000000000000000008152600083516152bb8160178501602088016155bb565b7001034b99036b4b9b9b4b733903937b6329607d1b60179184019182015283516152ec8160288401602088016155bb565b01602801949350505050565b6001600160a01b038581168252841660208201526040810183905260806060820181905260009061532b9083018461520c565b9695505050505050565b6020808252825182820181905260009190848201906040850190845b8181101561536d57835183529284019291840191600101615351565b50909695505050505050565b602081526000612739602083018461520c565b60208082526032908201527f4552433732313a207472616e7366657220746f206e6f6e20455243373231526560408201527131b2b4bb32b91034b6b83632b6b2b73a32b960711b606082015260800190565b60208082526010908201526f14185d5cd8589b194e881c185d5cd95960821b604082015260600190565b6020808252818101527f4f776e61626c653a2063616c6c6572206973206e6f7420746865206f776e6572604082015260600190565b6020808252601d908201527f76616c756520616e6420616d6f756e74206973206e6f74206d61746368000000604082015260600190565b60208082526021908201527f76616c75652073686f756c642062652067726561746572207468616e207a65726040820152606f60f81b606082015260800190565b60208082526031908201527f4552433732313a207472616e736665722063616c6c6572206973206e6f74206f6040820152701ddb995c881b9bdc88185c1c1c9bdd9959607a1b606082015260800190565b604051601f8201601f191681016001600160401b038111828210171561552e5761552e615694565b604052919050565b60006001600160401b0382111561554f5761554f615694565b5060051b60200190565b6000821982111561556c5761556c615668565b500190565b6000826155805761558061567e565b500490565b600081600019048311821515161561559f5761559f615668565b500290565b6000828210156155b6576155b6615668565b500390565b60005b838110156155d65781810151838201526020016155be565b83811115612beb5750506000910152565b6000816155f6576155f6615668565b506000190190565b600181811c9082168061561257607f821691505b6020821081141561563357634e487b7160e01b600052602260045260246000fd5b50919050565b600060001982141561564d5761564d615668565b5060010190565b6000826156635761566361567e565b500690565b634e487b7160e01b600052601160045260246000fd5b634e487b7160e01b600052601260045260246000fd5b634e487b7160e01b600052604160045260246000fd5b8015158114611a9057600080fd5b6001600160e01b031981168114611a9057600080fdfe65d7a28e3265b37a6474929f336521b332c1681b933f6cb9f3376673440d862a9f2df0fed2c77648de5860a4cc508cd0818c85b8b8a1ab4ceeef8d981c8956a6a264697066735822122012554b94bfd5b789540214bc64ea62017a1ed3b63161c201386b4be8d8ce4dce64736f6c634300080400334f776e61626c653a2063616c6c6572206973206e6f7420746865206f776e657265d7a28e3265b37a6474929f336521b332c1681b933f6cb9f3376673440d862a9f2df0fed2c77648de5860a4cc508cd0818c85b8b8a1ab4ceeef8d981c8956a6",
  "linkReferences": {},
  "deployedLinkReferences": {}
}