{
  "_format": "hh-sol-artifact-1",
  "contractName": "MysteryBox",
  "sourceName": "contracts/MysteryBox.sol",
  "abi": [
    {
      "inputs": [
        {
          "internalType": "string",
          "name": "name",
          "type": "string"
        },
        {
          "internalType": "string",
          "name": "symbol",
          "type": "string"
        },
        {
          "internalType": "address",
          "name": "_key",
          "type": "address"
        },
        {
          "internalType": "address",
          "name": "_quote",
          "type": "address"
        },
        {
          "internalType": "address",
          "name": "_payment",
          "type": "address"
        },
        {
          "internalType": "address",
          "name": "_treasury",
          "type": "address"
        },
        {
          "internalType": "uint256[]",
          "name": "configValues",
          "type": "uint256[]"
        },
        {
          "internalType": "contract IWitnetRandomness",
          "name": "_witnetRandomness",
          "type": "address"
        }
      ],
      "stateMutability": "nonpayable",
      "type": "constructor"
    },
    {
      "anonymous": false,
      "inputs": [
        {
          "indexed": true,
          "internalType": "address",
          "name": "owner",
          "type": "address"
        },
        {
          "indexed": true,
          "internalType": "address",
          "name": "approved",
          "type": "address"
        },
        {
          "indexed": true,
          "internalType": "uint256",
          "name": "tokenId",
          "type": "uint256"
        }
      ],
      "name": "Approval",
      "type": "event"
    },
    {
      "anonymous": false,
      "inputs": [
        {
          "indexed": true,
          "internalType": "address",
          "name": "owner",
          "type": "address"
        },
        {
          "indexed": true,
          "internalType": "address",
          "name": "operator",
          "type": "address"
        },
        {
          "indexed": false,
          "internalType": "bool",
          "name": "approved",
          "type": "bool"
        }
      ],
      "name": "ApprovalForAll",
      "type": "event"
    },
    {
      "anonymous": false,
      "inputs": [
        {
          "indexed": false,
          "internalType": "address",
          "name": "",
          "type": "address"
        },
        {
          "indexed": false,
          "internalType": "string",
          "name": "",
          "type": "string"
        }
      ],
      "name": "Grant",
      "type": "event"
    },
    {
      "anonymous": false,
      "inputs": [
        {
          "indexed": true,
          "internalType": "address",
          "name": "previousOwner",
          "type": "address"
        },
        {
          "indexed": true,
          "internalType": "address",
          "name": "newOwner",
          "type": "address"
        }
      ],
      "name": "OwnershipTransferred",
      "type": "event"
    },
    {
      "anonymous": false,
      "inputs": [
        {
          "indexed": false,
          "internalType": "address",
          "name": "account",
          "type": "address"
        }
      ],
      "name": "Paused",
      "type": "event"
    },
    {
      "anonymous": false,
      "inputs": [
        {
          "indexed": true,
          "internalType": "bytes32",
          "name": "role",
          "type": "bytes32"
        },
        {
          "indexed": true,
          "internalType": "bytes32",
          "name": "previousAdminRole",
          "type": "bytes32"
        },
        {
          "indexed": true,
          "internalType": "bytes32",
          "name": "newAdminRole",
          "type": "bytes32"
        }
      ],
      "name": "RoleAdminChanged",
      "type": "event"
    },
    {
      "anonymous": false,
      "inputs": [
        {
          "indexed": true,
          "internalType": "bytes32",
          "name": "role",
          "type": "bytes32"
        },
        {
          "indexed": true,
          "internalType": "address",
          "name": "account",
          "type": "address"
        },
        {
          "indexed": true,
          "internalType": "address",
          "name": "sender",
          "type": "address"
        }
      ],
      "name": "RoleGranted",
      "type": "event"
    },
    {
      "anonymous": false,
      "inputs": [
        {
          "indexed": true,
          "internalType": "bytes32",
          "name": "role",
          "type": "bytes32"
        },
        {
          "indexed": true,
          "internalType": "address",
          "name": "account",
          "type": "address"
        },
        {
          "indexed": true,
          "internalType": "address",
          "name": "sender",
          "type": "address"
        }
      ],
      "name": "RoleRevoked",
      "type": "event"
    },
    {
      "anonymous": false,
      "inputs": [
        {
          "indexed": false,
          "internalType": "address",
          "name": "",
          "type": "address"
        },
        {
          "indexed": false,
          "internalType": "address",
          "name": "",
          "type": "address"
        },
        {
          "indexed": false,
          "internalType": "uint256",
          "name": "",
          "type": "uint256"
        }
      ],
      "name": "SetConfig",
      "type": "event"
    },
    {
      "anonymous": false,
      "inputs": [
        {
          "indexed": false,
          "internalType": "uint256",
          "name": "",
          "type": "uint256"
        }
      ],
      "name": "SetHardCap",
      "type": "event"
    },
    {
      "anonymous": false,
      "inputs": [
        {
          "indexed": false,
          "internalType": "uint256",
          "name": "",
          "type": "uint256"
        }
      ],
      "name": "SetLaunch",
      "type": "event"
    },
    {
      "anonymous": false,
      "inputs": [
        {
          "indexed": false,
          "internalType": "uint256",
          "name": "",
          "type": "uint256"
        }
      ],
      "name": "SetLockup",
      "type": "event"
    },
    {
      "anonymous": false,
      "inputs": [
        {
          "indexed": false,
          "internalType": "address",
          "name": "",
          "type": "address"
        },
        {
          "indexed": false,
          "internalType": "uint256",
          "name": "",
          "type": "uint256"
        }
      ],
      "name": "SetMboxKey",
      "type": "event"
    },
    {
      "anonymous": false,
      "inputs": [
        {
          "indexed": false,
          "internalType": "address",
          "name": "",
          "type": "address"
        }
      ],
      "name": "SetMysteryBox",
      "type": "event"
    },
    {
      "anonymous": false,
      "inputs": [
        {
          "indexed": false,
          "internalType": "address",
          "name": "",
          "type": "address"
        }
      ],
      "name": "SetQuote",
      "type": "event"
    },
    {
      "anonymous": false,
      "inputs": [
        {
          "indexed": false,
          "internalType": "address",
          "name": "",
          "type": "address"
        }
      ],
      "name": "SetSubscription",
      "type": "event"
    },
    {
      "anonymous": false,
      "inputs": [
        {
          "indexed": true,
          "internalType": "address",
          "name": "from",
          "type": "address"
        },
        {
          "indexed": true,
          "internalType": "address",
          "name": "to",
          "type": "address"
        },
        {
          "indexed": true,
          "internalType": "uint256",
          "name": "tokenId",
          "type": "uint256"
        }
      ],
      "name": "Transfer",
      "type": "event"
    },
    {
      "anonymous": false,
      "inputs": [
        {
          "indexed": false,
          "internalType": "address",
          "name": "account",
          "type": "address"
        }
      ],
      "name": "Unpaused",
      "type": "event"
    },
    {
      "inputs": [],
      "name": "DEFAULT_ADMIN_ROLE",
      "outputs": [
        {
          "internalType": "bytes32",
          "name": "",
          "type": "bytes32"
        }
      ],
      "stateMutability": "view",
      "type": "function"
    },
    {
      "inputs": [],
      "name": "MINTER_ROLE",
      "outputs": [
        {
          "internalType": "bytes32",
          "name": "",
          "type": "bytes32"
        }
      ],
      "stateMutability": "view",
      "type": "function"
    },
    {
      "inputs": [],
      "name": "PAUSER_ROLE",
      "outputs": [
        {
          "internalType": "bytes32",
          "name": "",
          "type": "bytes32"
        }
      ],
      "stateMutability": "view",
      "type": "function"
    },
    {
      "inputs": [
        {
          "internalType": "address",
          "name": "minter",
          "type": "address"
        }
      ],
      "name": "addMinter",
      "outputs": [],
      "stateMutability": "nonpayable",
      "type": "function"
    },
    {
      "inputs": [
        {
          "internalType": "address",
          "name": "pauser",
          "type": "address"
        }
      ],
      "name": "addPauser",
      "outputs": [],
      "stateMutability": "nonpayable",
      "type": "function"
    },
    {
      "inputs": [
        {
          "internalType": "address",
          "name": "to",
          "type": "address"
        },
        {
          "internalType": "uint256",
          "name": "tokenId",
          "type": "uint256"
        }
      ],
      "name": "approve",
      "outputs": [],
      "stateMutability": "nonpayable",
      "type": "function"
    },
    {
      "inputs": [
        {
          "internalType": "address",
          "name": "owner",
          "type": "address"
        }
      ],
      "name": "balanceOf",
      "outputs": [
        {
          "internalType": "uint256",
          "name": "",
          "type": "uint256"
        }
      ],
      "stateMutability": "view",
      "type": "function"
    },
    {
      "inputs": [
        {
          "internalType": "uint256",
          "name": "tokenId",
          "type": "uint256"
        }
      ],
      "name": "burn",
      "outputs": [],
      "stateMutability": "nonpayable",
      "type": "function"
    },
    {
      "inputs": [
        {
          "internalType": "uint256",
          "name": "_amount",
          "type": "uint256"
        }
      ],
      "name": "buyKeyEth",
      "outputs": [],
      "stateMutability": "payable",
      "type": "function"
    },
    {
      "inputs": [
        {
          "internalType": "uint256",
          "name": "_payment",
          "type": "uint256"
        },
        {
          "internalType": "uint256",
          "name": "_amount",
          "type": "uint256"
        }
      ],
      "name": "buyKeyQuote",
      "outputs": [],
      "stateMutability": "payable",
      "type": "function"
    },
    {
      "inputs": [
        {
          "internalType": "address",
          "name": "to",
          "type": "address"
        },
        {
          "internalType": "uint256",
          "name": "amount",
          "type": "uint256"
        }
      ],
      "name": "claim",
      "outputs": [],
      "stateMutability": "nonpayable",
      "type": "function"
    },
    {
      "inputs": [
        {
          "internalType": "address",
          "name": "to",
          "type": "address"
        },
        {
          "internalType": "uint256",
          "name": "_amount",
          "type": "uint256"
        }
      ],
      "name": "claimKeys",
      "outputs": [],
      "stateMutability": "nonpayable",
      "type": "function"
    },
    {
      "inputs": [
        {
          "internalType": "uint256",
          "name": "gasPrice",
          "type": "uint256"
        }
      ],
      "name": "estimateRandomizeFee",
      "outputs": [
        {
          "internalType": "uint256",
          "name": "",
          "type": "uint256"
        }
      ],
      "stateMutability": "view",
      "type": "function"
    },
    {
      "inputs": [],
      "name": "feeRate",
      "outputs": [
        {
          "internalType": "uint256",
          "name": "",
          "type": "uint256"
        }
      ],
      "stateMutability": "view",
      "type": "function"
    },
    {
      "inputs": [
        {
          "internalType": "uint256",
          "name": "tokenId",
          "type": "uint256"
        }
      ],
      "name": "getApproved",
      "outputs": [
        {
          "internalType": "address",
          "name": "",
          "type": "address"
        }
      ],
      "stateMutability": "view",
      "type": "function"
    },
    {
      "inputs": [
        {
          "internalType": "bytes32",
          "name": "role",
          "type": "bytes32"
        }
      ],
      "name": "getRoleAdmin",
      "outputs": [
        {
          "internalType": "bytes32",
          "name": "",
          "type": "bytes32"
        }
      ],
      "stateMutability": "view",
      "type": "function"
    },
    {
      "inputs": [
        {
          "internalType": "address",
          "name": "_subAddr",
          "type": "address"
        }
      ],
      "name": "getSubInfos",
      "outputs": [
        {
          "internalType": "address",
          "name": "",
          "type": "address"
        },
        {
          "internalType": "uint256",
          "name": "",
          "type": "uint256"
        },
        {
          "internalType": "uint256",
          "name": "",
          "type": "uint256"
        }
      ],
      "stateMutability": "view",
      "type": "function"
    },
    {
      "inputs": [],
      "name": "globalURI",
      "outputs": [
        {
          "internalType": "string",
          "name": "",
          "type": "string"
        }
      ],
      "stateMutability": "view",
      "type": "function"
    },
    {
      "inputs": [
        {
          "internalType": "bytes32",
          "name": "role",
          "type": "bytes32"
        },
        {
          "internalType": "address",
          "name": "account",
          "type": "address"
        }
      ],
      "name": "grantRole",
      "outputs": [],
      "stateMutability": "nonpayable",
      "type": "function"
    },
    {
      "inputs": [],
      "name": "hardCap",
      "outputs": [
        {
          "internalType": "uint256",
          "name": "",
          "type": "uint256"
        }
      ],
      "stateMutability": "view",
      "type": "function"
    },
    {
      "inputs": [
        {
          "internalType": "bytes32",
          "name": "role",
          "type": "bytes32"
        },
        {
          "internalType": "address",
          "name": "account",
          "type": "address"
        }
      ],
      "name": "hasRole",
      "outputs": [
        {
          "internalType": "bool",
          "name": "",
          "type": "bool"
        }
      ],
      "stateMutability": "view",
      "type": "function"
    },
    {
      "inputs": [
        {
          "internalType": "address",
          "name": "owner",
          "type": "address"
        },
        {
          "internalType": "address",
          "name": "operator",
          "type": "address"
        }
      ],
      "name": "isApprovedForAll",
      "outputs": [
        {
          "internalType": "bool",
          "name": "",
          "type": "bool"
        }
      ],
      "stateMutability": "view",
      "type": "function"
    },
    {
      "inputs": [
        {
          "internalType": "uint256",
          "name": "",
          "type": "uint256"
        }
      ],
      "name": "itemAmounts",
      "outputs": [
        {
          "internalType": "uint256",
          "name": "",
          "type": "uint256"
        }
      ],
      "stateMutability": "view",
      "type": "function"
    },
    {
      "inputs": [
        {
          "internalType": "uint256",
          "name": "",
          "type": "uint256"
        }
      ],
      "name": "itemURIs",
      "outputs": [
        {
          "internalType": "string",
          "name": "",
          "type": "string"
        }
      ],
      "stateMutability": "view",
      "type": "function"
    },
    {
      "inputs": [
        {
          "internalType": "uint256",
          "name": "",
          "type": "uint256"
        }
      ],
      "name": "items",
      "outputs": [
        {
          "internalType": "uint256",
          "name": "",
          "type": "uint256"
        }
      ],
      "stateMutability": "view",
      "type": "function"
    },
    {
      "inputs": [],
      "name": "key",
      "outputs": [
        {
          "internalType": "address",
          "name": "",
          "type": "address"
        }
      ],
      "stateMutability": "view",
      "type": "function"
    },
    {
      "inputs": [],
      "name": "latestRandomizingBlock",
      "outputs": [
        {
          "internalType": "uint256",
          "name": "",
          "type": "uint256"
        }
      ],
      "stateMutability": "view",
      "type": "function"
    },
    {
      "inputs": [],
      "name": "launch",
      "outputs": [
        {
          "internalType": "uint256",
          "name": "",
          "type": "uint256"
        }
      ],
      "stateMutability": "view",
      "type": "function"
    },
    {
      "inputs": [],
      "name": "lockup",
      "outputs": [
        {
          "internalType": "uint256",
          "name": "",
          "type": "uint256"
        }
      ],
      "stateMutability": "view",
      "type": "function"
    },
    {
      "inputs": [],
      "name": "mysteryBox",
      "outputs": [
        {
          "internalType": "address",
          "name": "",
          "type": "address"
        }
      ],
      "stateMutability": "view",
      "type": "function"
    },
    {
      "inputs": [],
      "name": "name",
      "outputs": [
        {
          "internalType": "string",
          "name": "",
          "type": "string"
        }
      ],
      "stateMutability": "view",
      "type": "function"
    },
    {
      "inputs": [
        {
          "internalType": "address",
          "name": "operator",
          "type": "address"
        },
        {
          "internalType": "address",
          "name": "from",
          "type": "address"
        },
        {
          "internalType": "uint256",
          "name": "tokenId",
          "type": "uint256"
        },
        {
          "internalType": "bytes",
          "name": "data",
          "type": "bytes"
        }
      ],
      "name": "onERC721Received",
      "outputs": [
        {
          "internalType": "bytes4",
          "name": "",
          "type": "bytes4"
        }
      ],
      "stateMutability": "pure",
      "type": "function"
    },
    {
      "inputs": [],
      "name": "owner",
      "outputs": [
        {
          "internalType": "address",
          "name": "",
          "type": "address"
        }
      ],
      "stateMutability": "view",
      "type": "function"
    },
    {
      "inputs": [
        {
          "internalType": "uint256",
          "name": "tokenId",
          "type": "uint256"
        }
      ],
      "name": "ownerOf",
      "outputs": [
        {
          "internalType": "address",
          "name": "",
          "type": "address"
        }
      ],
      "stateMutability": "view",
      "type": "function"
    },
    {
      "inputs": [],
      "name": "pause",
      "outputs": [],
      "stateMutability": "nonpayable",
      "type": "function"
    },
    {
      "inputs": [],
      "name": "paused",
      "outputs": [
        {
          "internalType": "bool",
          "name": "",
          "type": "bool"
        }
      ],
      "stateMutability": "view",
      "type": "function"
    },
    {
      "inputs": [],
      "name": "payment",
      "outputs": [
        {
          "internalType": "address",
          "name": "",
          "type": "address"
        }
      ],
      "stateMutability": "view",
      "type": "function"
    },
    {
      "inputs": [],
      "name": "price",
      "outputs": [
        {
          "internalType": "uint256",
          "name": "",
          "type": "uint256"
        }
      ],
      "stateMutability": "view",
      "type": "function"
    },
    {
      "inputs": [],
      "name": "quote",
      "outputs": [
        {
          "internalType": "address",
          "name": "",
          "type": "address"
        }
      ],
      "stateMutability": "view",
      "type": "function"
    },
    {
      "inputs": [],
      "name": "randomness",
      "outputs": [
        {
          "internalType": "uint32",
          "name": "",
          "type": "uint32"
        }
      ],
      "stateMutability": "view",
      "type": "function"
    },
    {
      "inputs": [
        {
          "internalType": "string[]",
          "name": "uris",
          "type": "string[]"
        },
        {
          "internalType": "uint256[]",
          "name": "amounts",
          "type": "uint256[]"
        }
      ],
      "name": "registerItems",
      "outputs": [],
      "stateMutability": "nonpayable",
      "type": "function"
    },
    {
      "inputs": [],
      "name": "renounceOwnership",
      "outputs": [],
      "stateMutability": "nonpayable",
      "type": "function"
    },
    {
      "inputs": [
        {
          "internalType": "bytes32",
          "name": "role",
          "type": "bytes32"
        },
        {
          "internalType": "address",
          "name": "account",
          "type": "address"
        }
      ],
      "name": "renounceRole",
      "outputs": [],
      "stateMutability": "nonpayable",
      "type": "function"
    },
    {
      "inputs": [],
      "name": "requestRandomNumber",
      "outputs": [],
      "stateMutability": "payable",
      "type": "function"
    },
    {
      "inputs": [
        {
          "internalType": "bytes32",
          "name": "role",
          "type": "bytes32"
        },
        {
          "internalType": "address",
          "name": "account",
          "type": "address"
        }
      ],
      "name": "revokeRole",
      "outputs": [],
      "stateMutability": "nonpayable",
      "type": "function"
    },
    {
      "inputs": [
        {
          "internalType": "address",
          "name": "to",
          "type": "address"
        },
        {
          "internalType": "string[]",
          "name": "uris",
          "type": "string[]"
        }
      ],
      "name": "safeBatchMint",
      "outputs": [],
      "stateMutability": "view",
      "type": "function"
    },
    {
      "inputs": [
        {
          "internalType": "address",
          "name": "to",
          "type": "address"
        },
        {
          "internalType": "string",
          "name": "uri",
          "type": "string"
        },
        {
          "internalType": "uint256",
          "name": "amount",
          "type": "uint256"
        }
      ],
      "name": "safeBatchMintLight",
      "outputs": [],
      "stateMutability": "nonpayable",
      "type": "function"
    },
    {
      "inputs": [
        {
          "internalType": "address",
          "name": "to",
          "type": "address"
        },
        {
          "internalType": "string",
          "name": "uri",
          "type": "string"
        }
      ],
      "name": "safeMint",
      "outputs": [
        {
          "internalType": "uint256",
          "name": "",
          "type": "uint256"
        }
      ],
      "stateMutability": "view",
      "type": "function"
    },
    {
      "inputs": [
        {
          "internalType": "address",
          "name": "to",
          "type": "address"
        }
      ],
      "name": "safeMintTo",
      "outputs": [],
      "stateMutability": "nonpayable",
      "type": "function"
    },
    {
      "inputs": [
        {
          "internalType": "address",
          "name": "from",
          "type": "address"
        },
        {
          "internalType": "address",
          "name": "to",
          "type": "address"
        },
        {
          "internalType": "uint256",
          "name": "tokenId",
          "type": "uint256"
        }
      ],
      "name": "safeTransferFrom",
      "outputs": [],
      "stateMutability": "nonpayable",
      "type": "function"
    },
    {
      "inputs": [
        {
          "internalType": "address",
          "name": "from",
          "type": "address"
        },
        {
          "internalType": "address",
          "name": "to",
          "type": "address"
        },
        {
          "internalType": "uint256",
          "name": "tokenId",
          "type": "uint256"
        },
        {
          "internalType": "bytes",
          "name": "_data",
          "type": "bytes"
        }
      ],
      "name": "safeTransferFrom",
      "outputs": [],
      "stateMutability": "nonpayable",
      "type": "function"
    },
    {
      "inputs": [
        {
          "internalType": "address",
          "name": "operator",
          "type": "address"
        },
        {
          "internalType": "bool",
          "name": "approved",
          "type": "bool"
        }
      ],
      "name": "setApprovalForAll",
      "outputs": [],
      "stateMutability": "nonpayable",
      "type": "function"
    },
    {
      "inputs": [
        {
          "internalType": "address",
          "name": "_payment",
          "type": "address"
        },
        {
          "internalType": "address",
          "name": "_treasury",
          "type": "address"
        },
        {
          "internalType": "uint256",
          "name": "_feeRate",
          "type": "uint256"
        }
      ],
      "name": "setConfig",
      "outputs": [],
      "stateMutability": "nonpayable",
      "type": "function"
    },
    {
      "inputs": [
        {
          "internalType": "uint256",
          "name": "_hardCap",
          "type": "uint256"
        },
        {
          "internalType": "string",
          "name": "_uri",
          "type": "string"
        }
      ],
      "name": "setHardCap",
      "outputs": [],
      "stateMutability": "nonpayable",
      "type": "function"
    },
    {
      "inputs": [
        {
          "internalType": "uint256",
          "name": "_launch",
          "type": "uint256"
        }
      ],
      "name": "setLaunch",
      "outputs": [],
      "stateMutability": "nonpayable",
      "type": "function"
    },
    {
      "inputs": [
        {
          "internalType": "uint256",
          "name": "_lockup",
          "type": "uint256"
        }
      ],
      "name": "setLockup",
      "outputs": [],
      "stateMutability": "nonpayable",
      "type": "function"
    },
    {
      "inputs": [
        {
          "internalType": "address",
          "name": "_key",
          "type": "address"
        },
        {
          "internalType": "uint256",
          "name": "_price",
          "type": "uint256"
        }
      ],
      "name": "setMboxKey",
      "outputs": [],
      "stateMutability": "nonpayable",
      "type": "function"
    },
    {
      "inputs": [
        {
          "internalType": "address",
          "name": "_mbox",
          "type": "address"
        }
      ],
      "name": "setMysteryBox",
      "outputs": [],
      "stateMutability": "nonpayable",
      "type": "function"
    },
    {
      "inputs": [
        {
          "internalType": "address",
          "name": "_quote",
          "type": "address"
        }
      ],
      "name": "setQuote",
      "outputs": [],
      "stateMutability": "nonpayable",
      "type": "function"
    },
    {
      "inputs": [
        {
          "internalType": "address",
          "name": "_subscription",
          "type": "address"
        },
        {
          "internalType": "uint256",
          "name": "_type",
          "type": "uint256"
        },
        {
          "internalType": "uint256",
          "name": "_amount",
          "type": "uint256"
        }
      ],
      "name": "setSubscription",
      "outputs": [],
      "stateMutability": "nonpayable",
      "type": "function"
    },
    {
      "inputs": [
        {
          "internalType": "address",
          "name": "",
          "type": "address"
        }
      ],
      "name": "subAddrs",
      "outputs": [
        {
          "internalType": "uint256",
          "name": "",
          "type": "uint256"
        }
      ],
      "stateMutability": "view",
      "type": "function"
    },
    {
      "inputs": [
        {
          "internalType": "uint256",
          "name": "",
          "type": "uint256"
        }
      ],
      "name": "subInfos",
      "outputs": [
        {
          "internalType": "address",
          "name": "contractAddr",
          "type": "address"
        },
        {
          "internalType": "uint256",
          "name": "contractType",
          "type": "uint256"
        },
        {
          "internalType": "uint256",
          "name": "amount",
          "type": "uint256"
        },
        {
          "internalType": "uint256",
          "name": "start",
          "type": "uint256"
        },
        {
          "internalType": "uint256",
          "name": "end",
          "type": "uint256"
        },
        {
          "internalType": "uint256",
          "name": "count",
          "type": "uint256"
        }
      ],
      "stateMutability": "view",
      "type": "function"
    },
    {
      "inputs": [
        {
          "internalType": "bytes4",
          "name": "interfaceId",
          "type": "bytes4"
        }
      ],
      "name": "supportsInterface",
      "outputs": [
        {
          "internalType": "bool",
          "name": "",
          "type": "bool"
        }
      ],
      "stateMutability": "view",
      "type": "function"
    },
    {
      "inputs": [],
      "name": "symbol",
      "outputs": [
        {
          "internalType": "string",
          "name": "",
          "type": "string"
        }
      ],
      "stateMutability": "view",
      "type": "function"
    },
    {
      "inputs": [
        {
          "internalType": "uint256",
          "name": "index",
          "type": "uint256"
        }
      ],
      "name": "tokenByIndex",
      "outputs": [
        {
          "internalType": "uint256",
          "name": "",
          "type": "uint256"
        }
      ],
      "stateMutability": "view",
      "type": "function"
    },
    {
      "inputs": [
        {
          "internalType": "address",
          "name": "owner",
          "type": "address"
        },
        {
          "internalType": "uint256",
          "name": "index",
          "type": "uint256"
        }
      ],
      "name": "tokenOfOwnerByIndex",
      "outputs": [
        {
          "internalType": "uint256",
          "name": "",
          "type": "uint256"
        }
      ],
      "stateMutability": "view",
      "type": "function"
    },
    {
      "inputs": [
        {
          "internalType": "uint256",
          "name": "tokenId",
          "type": "uint256"
        }
      ],
      "name": "tokenURI",
      "outputs": [
        {
          "internalType": "string",
          "name": "",
          "type": "string"
        }
      ],
      "stateMutability": "view",
      "type": "function"
    },
    {
      "inputs": [],
      "name": "totalItems",
      "outputs": [
        {
          "internalType": "uint256",
          "name": "",
          "type": "uint256"
        }
      ],
      "stateMutability": "view",
      "type": "function"
    },
    {
      "inputs": [],
      "name": "totalSupply",
      "outputs": [
        {
          "internalType": "uint256",
          "name": "",
          "type": "uint256"
        }
      ],
      "stateMutability": "view",
      "type": "function"
    },
    {
      "inputs": [
        {
          "internalType": "address",
          "name": "from",
          "type": "address"
        },
        {
          "internalType": "address",
          "name": "to",
          "type": "address"
        },
        {
          "internalType": "uint256",
          "name": "tokenId",
          "type": "uint256"
        }
      ],
      "name": "transferFrom",
      "outputs": [],
      "stateMutability": "nonpayable",
      "type": "function"
    },
    {
      "inputs": [
        {
          "internalType": "address",
          "name": "newOwner",
          "type": "address"
        }
      ],
      "name": "transferOwnership",
      "outputs": [],
      "stateMutability": "nonpayable",
      "type": "function"
    },
    {
      "inputs": [],
      "name": "treasury",
      "outputs": [
        {
          "internalType": "address",
          "name": "",
          "type": "address"
        }
      ],
      "stateMutability": "view",
      "type": "function"
    },
    {
      "inputs": [],
      "name": "unpause",
      "outputs": [],
      "stateMutability": "nonpayable",
      "type": "function"
    },
    {
      "inputs": [],
      "name": "witnet",
      "outputs": [
        {
          "internalType": "contract IWitnetRandomness",
          "name": "",
          "type": "address"
        }
      ],
      "stateMutability": "view",
      "type": "function"
    },
    {
      "stateMutability": "payable",
      "type": "receive"
    }
  ],
  "bytecode": "0x60a06040526000600d819055601380546001600160a01b031916905560188190556032601d5560208190556023805460ff1916905560258190556027553480156200004957600080fd5b50604051620063f0380380620063f08339810160408190526200006c91620009f4565b8787818181600090805190602001906200008892919062000815565b5080516200009e90600190602084019062000815565b5050600b805460ff1916905550620000b633620002d3565b620000c36000336200032d565b620000de600080516020620063b0833981519152336200032d565b620000f9600080516020620063d0833981519152336200032d565b505060016011558151600414620001575760405162461bcd60e51b815260206004820152601a60248201527f696e76616c696420636f6e6669672064617461206c656e67746800000000000060448201526064015b60405180910390fd5b620001646000336200032d565b6200017f600080516020620063b0833981519152336200032d565b6200019a600080516020620063d0833981519152336200032d565b620001d482600081518110620001c057634e487b7160e01b600052603260045260246000fd5b6020026020010151620003d260201b60201c565b6200020e82600181518110620001fa57634e487b7160e01b600052603260045260246000fd5b60200260200101516200045f60201b60201c565b6200024986836002815181106200023557634e487b7160e01b600052603260045260246000fd5b6020026020010151620004e660201b60201c565b620002858484846003815181106200027157634e487b7160e01b600052603260045260246000fd5b6020026020010151620005f960201b60201c565b620002908562000775565b6001600160a01b038116620002b557634e487b7160e01b600052600160045260246000fd5b60601b6001600160601b0319166080525062000b6595505050505050565b600b80546001600160a01b03838116610100818102610100600160a81b031985161790945560405193909204169182907f8be0079c531659141344cd1fd0a4f28419497f9722a3daafe3b4186f6b6457e090600090a35050565b6000828152600c602090815260408083206001600160a01b038516845290915290205460ff16620003ce576000828152600c602090815260408083206001600160a01b03851684529091529020805460ff191660011790556200038d3390565b6001600160a01b0316816001600160a01b0316837f2f8788117e7eff1d82e926ec794901d17c78024a50270940304540a733656f0d60405160405180910390a45b5050565b600b546001600160a01b03610100909104163314620004235760405162461bcd60e51b815260206004820181905260248201526000805160206200639083398151915260448201526064016200014e565b60198190556040518181527f7c8826e4db3679f20c86da0c68d37f9dbcd1d638c56717e014f93c56d14c02d1906020015b60405180910390a150565b600b546001600160a01b03610100909104163314620004b05760405162461bcd60e51b815260206004820181905260248201526000805160206200639083398151915260448201526064016200014e565b601a8190556040518181527fa7ade4ab976b6643a971383d9822fb7c2fce66aa2e497d88c3b4f1475ea2b2e09060200162000454565b600b546001600160a01b03610100909104163314620005375760405162461bcd60e51b815260206004820181905260248201526000805160206200639083398151915260448201526064016200014e565b6001600160a01b038216620005995760405162461bcd60e51b815260206004820152602160248201527f57726f6e67204d797374657279426f7820636f6e7472616374206164647265736044820152607360f81b60648201526084016200014e565b601280546001600160a01b0319166001600160a01b038416908117909155601482905560408051918252602082018390527fd46fcdc06972a446de426e47c59c6a0c4581b5c0116ac49a2efc3e7d23bdfe72910160405180910390a15050565b600b546001600160a01b036101009091041633146200064a5760405162461bcd60e51b815260206004820181905260248201526000805160206200639083398151915260448201526064016200014e565b6001600160a01b038316620006a25760405162461bcd60e51b815260206004820152601760248201527f696e76616c6964207061796d656e74206164647265737300000000000000000060448201526064016200014e565b6001600160a01b038216620006fa5760405162461bcd60e51b815260206004820152601860248201527f696e76616c69642074726561737572792061646472657373000000000000000060448201526064016200014e565b601b80546001600160a01b038581166001600160a01b03199283168117909355601c8054918616919092168117909155601d83905560408051928352602083019190915281018290527fe2be3027f197494650b7a98fd1cae67dacf615bd1d8bb05102999676f11638669060600160405180910390a1505050565b600b546001600160a01b03610100909104163314620007c65760405162461bcd60e51b815260206004820181905260248201526000805160206200639083398151915260448201526064016200014e565b601380546001600160a01b0319166001600160a01b0383169081179091556040519081527fca92c759228172fe3894a344908fd20dfd37ba561b5af191f1f5b02ee03881fc9060200162000454565b828054620008239062000b12565b90600052602060002090601f01602090048101928262000847576000855562000892565b82601f106200086257805160ff191683800117855562000892565b8280016001018555821562000892579182015b828111156200089257825182559160200191906001019062000875565b50620008a0929150620008a4565b5090565b5b80821115620008a05760008155600101620008a5565b80516001600160a01b0381168114620008d357600080fd5b919050565b600082601f830112620008e9578081fd5b815160206001600160401b0382111562000907576200090762000b4f565b8160051b6200091882820162000adf565b83815282810190868401838801850189101562000933578687fd5b8693505b858410156200095757805183526001939093019291840191840162000937565b50979650505050505050565b600082601f83011262000974578081fd5b81516001600160401b0381111562000990576200099062000b4f565b6020620009a6601f8301601f1916820162000adf565b8281528582848701011115620009ba578384fd5b835b83811015620009d9578581018301518282018401528201620009bc565b83811115620009ea57848385840101525b5095945050505050565b600080600080600080600080610100898b03121562000a11578384fd5b88516001600160401b038082111562000a28578586fd5b62000a368c838d0162000963565b995060208b015191508082111562000a4c578586fd5b62000a5a8c838d0162000963565b985062000a6a60408c01620008bb565b975062000a7a60608c01620008bb565b965062000a8a60808c01620008bb565b955062000a9a60a08c01620008bb565b945060c08b015191508082111562000ab0578384fd5b5062000abf8b828c01620008d8565b92505062000ad060e08a01620008bb565b90509295985092959890939650565b604051601f8201601f191681016001600160401b038111828210171562000b0a5762000b0a62000b4f565b604052919050565b600181811c9082168062000b2757607f821691505b6020821081141562000b4957634e487b7160e01b600052602260045260246000fd5b50919050565b634e487b7160e01b600052604160045260246000fd5b60805160601c6157f762000b99600039600081816108490152818161229d0152818161266b0152613b3a01526157f76000f3fe6080604052600436106104355760003560e01c806370a0823111610229578063a22cb4651161012e578063c87b56dd116100b6578063e63ab1e91161007a578063e63ab1e914610dd8578063e985e9c514610dfa578063f2fde38b14610e43578063fb86a40414610e63578063fcd1ee1014610e7957600080fd5b8063c87b56dd14610d41578063d204c45e14610d61578063d3d3224a14610d81578063d539139314610d96578063d547741f14610db857600080fd5b8063b1fa4176116100fd578063b1fa417614610cab578063b5a87cc114610cc1578063b88d4fde14610ce1578063bfb231d214610d01578063c38b761c14610d2157600080fd5b8063a22cb46514610c2b578063a2aa61eb14610c4b578063a60ee26814610c6b578063aad3ec9614610c8b57600080fd5b80638da5cb5b116101b1578063978bbdb911610180578063978bbdb914610baa578063983b2d5614610bc0578063999b93af14610be0578063a035b1fe14610c00578063a217fddf14610c1657600080fd5b80638da5cb5b14610b32578063902835f614610b5557806391d1485414610b7557806395d89b4114610b9557600080fd5b80637e9598ae116101f85780637e9598ae14610ab557806382dc1ec414610ad55780638456cb5914610af55780638678a7b214610b0a5780638a55b86614610b1257600080fd5b806370a08231146109a3578063715018a6146109c3578063786e435c146109d85780637b43b82714610a9557600080fd5b806338e2d9241161033a5780634f6ccce7116102c25780635d1d37c3116102865780635d1d37c3146109035780635d814dea1461092357806361d027b3146109435780636352211e146109635780636ae6b4591461098357600080fd5b80634f6ccce71461086b578063557dee1f1461088b57806355d699621461089e57806358dd6d95146108cb5780635c975abb146108eb57600080fd5b80633f4ba83a116103095780633f4ba83a146107c257806342842e0e146107d757806342966c68146107f757806342f6487a1461081757806346d1d21a1461083757600080fd5b806338e2d924146106de5780633943380c146106f157806339eff2be146107115780633a1395de146107a257600080fd5b8063230a67ee116103bd5780632799276d1161038c5780632799276d146106365780632f2ff15d1461064c5780632f745c591461066c578063360131891461068c57806336568abe146106be57600080fd5b8063230a67ee146105a657806323b872dd146105c657806324490659146105e6578063248a9ca31461060657600080fd5b8063081812fc11610404578063081812fc146104d2578063095ea7b31461050a578063150b7a021461052c57806318160ddd1461057157806321bae9e41461058657600080fd5b806301339c211461044157806301ffc9a71461046a57806306490f471461049a57806306fdde03146104b057600080fd5b3661043c57005b600080fd5b34801561044d57600080fd5b5061045760195481565b6040519081526020015b60405180910390f35b34801561047657600080fd5b5061048a610485366004615240565b610e99565b6040519015158152602001610461565b3480156104a657600080fd5b50610457601a5481565b3480156104bc57600080fd5b506104c5610ec4565b604051610461919061542c565b3480156104de57600080fd5b506104f26104ed366004615206565b610f56565b6040516001600160a01b039091168152602001610461565b34801561051657600080fd5b5061052a6105253660046150d4565b610fe3565b005b34801561053857600080fd5b50610558610547366004614eb1565b630a85bd0160e11b95945050505050565b6040516001600160e01b03199091168152602001610461565b34801561057d57600080fd5b50600854610457565b34801561059257600080fd5b5061052a6105a1366004614e2a565b6110f9565b3480156105b257600080fd5b5061052a6105c136600461512f565b611246565b3480156105d257600080fd5b5061052a6105e1366004614e76565b611392565b3480156105f257600080fd5b5061052a610601366004615290565b6113c4565b34801561061257600080fd5b50610457610621366004615206565b6000908152600c602052604090206001015490565b34801561064257600080fd5b5061045760185481565b34801561065857600080fd5b5061052a61066736600461521e565b61144c565b34801561067857600080fd5b506104576106873660046150d4565b611471565b34801561069857600080fd5b50601e546106a99063ffffffff1681565b60405163ffffffff9091168152602001610461565b3480156106ca57600080fd5b5061052a6106d936600461521e565b611507565b61052a6106ec3660046152be565b611585565b3480156106fd57600080fd5b506012546104f2906001600160a01b031681565b34801561071d57600080fd5b5061076b61072c366004615206565b6024602052600090815260409020805460018201546002830154600384015460048501546005909501546001600160a01b039094169492939192909186565b604080516001600160a01b0390971687526020870195909552938501929092526060840152608083015260a082015260c001610461565b3480156107ae57600080fd5b5061052a6107bd3660046150fd565b61181e565b3480156107ce57600080fd5b5061052a611a02565b3480156107e357600080fd5b5061052a6107f2366004614e76565b611a25565b34801561080357600080fd5b5061052a610812366004615206565b611a40565b34801561082357600080fd5b50601b546104f2906001600160a01b031681565b34801561084357600080fd5b506104f27f000000000000000000000000000000000000000000000000000000000000000081565b34801561087757600080fd5b50610457610886366004615206565b611ab7565b61052a610899366004615206565b611b58565b3480156108aa57600080fd5b506104576108b9366004614e2a565b60266020526000908152604090205481565b3480156108d757600080fd5b5061052a6108e6366004614fbe565b611d41565b3480156108f757600080fd5b50600b5460ff1661048a565b34801561090f57600080fd5b5061052a61091e366004615206565b611d8c565b34801561092f57600080fd5b506104c561093e366004615206565b611df8565b34801561094f57600080fd5b50601c546104f2906001600160a01b031681565b34801561096f57600080fd5b506104f261097e366004615206565b611ea4565b34801561098f57600080fd5b5061052a61099e366004615206565b611f1b565b3480156109af57600080fd5b506104576109be366004614e2a565b611f80565b3480156109cf57600080fd5b5061052a612007565b3480156109e457600080fd5b50610a706109f3366004614e2a565b6001600160a01b0390811660009081526026602090815260408083205483526024825291829020825160c08101845281548516815260018201549281019290925260028101549282019290925260038201546060820181905260048301546080830181905260059093015460a09092019190915260125490921692565b604080516001600160a01b039094168452602084019290925290820152606001610461565b348015610aa157600080fd5b5061052a610ab0366004614e2a565b612043565b348015610ac157600080fd5b5061052a610ad03660046150d4565b6120e3565b348015610ae157600080fd5b5061052a610af0366004614e2a565b6121cc565b348015610b0157600080fd5b5061052a612272565b61052a612292565b348015610b1e57600080fd5b50610457610b2d366004615206565b61236f565b348015610b3e57600080fd5b50600b5461010090046001600160a01b03166104f2565b348015610b6157600080fd5b5061052a610b70366004614e76565b612390565b348015610b8157600080fd5b5061048a610b9036600461521e565b6124df565b348015610ba157600080fd5b506104c561250a565b348015610bb657600080fd5b50610457601d5481565b348015610bcc57600080fd5b5061052a610bdb366004614e2a565b612519565b348015610bec57600080fd5b506013546104f2906001600160a01b031681565b348015610c0c57600080fd5b5061045760145481565b348015610c2257600080fd5b50610457600081565b348015610c3757600080fd5b5061052a610c46366004615009565b6125bf565b348015610c5757600080fd5b5061052a610c66366004614e2a565b6125ca565b348015610c7757600080fd5b50610457610c86366004615206565b612648565b348015610c9757600080fd5b5061052a610ca63660046150d4565b6126ec565b348015610cb757600080fd5b50610457601f5481565b348015610ccd57600080fd5b5061052a610cdc366004615080565b612c2a565b348015610ced57600080fd5b5061052a610cfc366004614f46565b612cbc565b348015610d0d57600080fd5b50610457610d1c366004615206565b612cf4565b348015610d2d57600080fd5b50600f546104f2906001600160a01b031681565b348015610d4d57600080fd5b506104c5610d5c366004615206565b612d04565b348015610d6d57600080fd5b50610457610d7c36600461503f565b612d0f565b348015610d8d57600080fd5b506104c5612d29565b348015610da257600080fd5b506104576000805160206157a283398151915281565b348015610dc457600080fd5b5061052a610dd336600461521e565b612d36565b348015610de457600080fd5b5061045760008051602061578283398151915281565b348015610e0657600080fd5b5061048a610e15366004614e44565b6001600160a01b03918216600090815260056020908152604080832093909416825291909152205460ff1690565b348015610e4f57600080fd5b5061052a610e5e366004614e2a565b612d5b565b348015610e6f57600080fd5b50610457600d5481565b348015610e8557600080fd5b5061052a610e943660046150d4565b612df9565b60006001600160e01b031982166380ac58cd60e01b1480610ebe5750610ebe8261316f565b92915050565b606060008054610ed3906156b1565b80601f0160208091040260200160405190810160405280929190818152602001828054610eff906156b1565b8015610f4c5780601f10610f2157610100808354040283529160200191610f4c565b820191906000526020600020905b815481529060010190602001808311610f2f57829003601f168201915b5050505050905090565b6000610f6182613194565b610fc75760405162461bcd60e51b815260206004820152602c60248201527f4552433732313a20617070726f76656420717565727920666f72206e6f6e657860448201526b34b9ba32b73a103a37b5b2b760a11b60648201526084015b60405180910390fd5b506000908152600460205260409020546001600160a01b031690565b6000610fee82611ea4565b9050806001600160a01b0316836001600160a01b0316141561105c5760405162461bcd60e51b815260206004820152602160248201527f4552433732313a20617070726f76616c20746f2063757272656e74206f776e656044820152603960f91b6064820152608401610fbe565b336001600160a01b038216148061107857506110788133610e15565b6110ea5760405162461bcd60e51b815260206004820152603860248201527f4552433732313a20617070726f76652063616c6c6572206973206e6f74206f7760448201527f6e6572206e6f7220617070726f76656420666f7220616c6c00000000000000006064820152608401610fbe565b6110f483836131b1565b505050565b6000805160206157a28339815191526111118161321f565b6000600e8054611120906156b1565b9050116111675760405162461bcd60e51b815260206004820152601560248201527411db1bd8985b08155492481a5cc81b9bdd081cd95d605a1b6044820152606401610fbe565b6001600160a01b0382166111b25760405162461bcd60e51b8152602060048201526012602482015271496e76616c696420746f206164647265737360701b6044820152606401610fbe565b6110f482600e80546111c3906156b1565b80601f01602080910402602001604051908101604052809291908181526020018280546111ef906156b1565b801561123c5780601f106112115761010080835404028352916020019161123c565b820191906000526020600020905b81548152906001019060200180831161121f57829003601f168201915b5050505050612d0f565b6000805160206157a283398151915261125e8161321f565b60235460ff16156112b15760405162461bcd60e51b815260206004820152601860248201527f4974656d7320616c7265616479207265676973746572656400000000000000006044820152606401610fbe565b81518351146112fa5760405162461bcd60e51b8152602060048201526015602482015274082e4e4c2f240d8cadccee8d040dad2e6dac2e8c6d605b1b6044820152606401610fbe565b815161130d906022906020850190614b88565b508251611321906021906020860190614bd3565b5060005b835181101561137f5761136a83828151811061135157634e487b7160e01b600052603260045260246000fd5b602002602001015160185461322990919063ffffffff16565b60185580611377816156ec565b915050611325565b50506023805460ff191660011790555050565b61139d335b82613235565b6113b95760405162461bcd60e51b8152600401610fbe90615568565b6110f483838361331f565b600b546001600160a01b036101009091041633146113f45760405162461bcd60e51b8152600401610fbe906154bb565b600d829055805161140c90600e906020840190614c2c565b507f57bbf0b7295e3c8587fe0fa3c76592771f6a96123bf723292fd0e3933436b71f600d5460405161144091815260200190565b60405180910390a15050565b6000828152600c60205260409020600101546114678161321f565b6110f483836134c6565b600061147c83611f80565b82106114de5760405162461bcd60e51b815260206004820152602b60248201527f455243373231456e756d657261626c653a206f776e657220696e646578206f7560448201526a74206f6620626f756e647360a81b6064820152608401610fbe565b506001600160a01b03919091166000908152600660209081526040808320938352929052205490565b6001600160a01b03811633146115775760405162461bcd60e51b815260206004820152602f60248201527f416363657373436f6e74726f6c3a2063616e206f6e6c792072656e6f756e636560448201526e103937b632b9903337b91039b2b63360891b6064820152608401610fbe565b611581828261354c565b5050565b6013546001600160a01b03166115d15760405162461bcd60e51b81526020600482015260116024820152702bb937b7339038bab7ba32903a37b5b2b760791b6044820152606401610fbe565b60195442116116225760405162461bcd60e51b815260206004820152601b60248201527f4e6f7420796574206c61756e63682074696d65207265616368656400000000006044820152606401610fbe565b600082116116425760405162461bcd60e51b8152600401610fbe90615527565b6014546116509082906135b3565b821461166e5760405162461bcd60e51b8152600401610fbe906154f0565b60145461167c9082906135b3565b821461169a5760405162461bcd60e51b8152600401610fbe906154f0565b6013546040516370a0823160e01b81523360048201526000916001600160a01b0316906370a082319060240160206040518083038186803b1580156116de57600080fd5b505afa1580156116f2573d6000803e3d6000fd5b505050506040513d601f19601f820116820180604052508101906117169190615278565b90508281116117675760405162461bcd60e51b815260206004820152601b60248201527f6c61636b206f662071756f746520746f6b656e2062616c616e636500000000006044820152606401610fbe565b60135461177f906001600160a01b03163330866135bf565b60005b8281101561181457600061179560155490565b60125460405163086eba7960e21b81523360048201529192506001600160a01b0316906321bae9e490602401600060405180830381600087803b1580156117db57600080fd5b505af11580156117ef573d6000803e3d6000fd5b50505050611801601580546001019055565b508061180c816156ec565b915050611782565b506110f4826136fd565b600b546001600160a01b0361010090910416331461184e5760405162461bcd60e51b8152600401610fbe906154bb565b6001600160a01b0383166118b05760405162461bcd60e51b815260206004820152602360248201527f57726f6e6720537562736372697074696f6e20636f6e7472616374206164647260448201526265737360e81b6064820152608401610fbe565b60255460266000856001600160a01b03166001600160a01b03168152602001908152602001600020819055506040518060c00160405280846001600160a01b03168152602001838152602001828152602001602754815260200161192a60016119248560275461322990919063ffffffff16565b906138c3565b815260006020918201819052602580548252602483526040808320855181546001600160a01b0319166001600160a01b039091161781559385015160018501558401516002840155606084015160038401556080840151600484015560a090930151600590920191909155815491906119a2836156ec565b90915550506027546119b49082613229565b6027556119c083612519565b6040516001600160a01b03841681527f17c74683f7319a4225517b5017988f05364289712fe6386d78e265035a787225906020015b60405180910390a1505050565b600080516020615782833981519152611a1a8161321f565b611a226138cf565b50565b6110f483838360405180602001604052806000815250612cbc565b611a4933611397565b611aae5760405162461bcd60e51b815260206004820152603060248201527f4552433732314275726e61626c653a2063616c6c6572206973206e6f74206f7760448201526f1b995c881b9bdc88185c1c1c9bdd995960821b6064820152608401610fbe565b611a2281613962565b6000611ac260085490565b8210611b255760405162461bcd60e51b815260206004820152602c60248201527f455243373231456e756d657261626c653a20676c6f62616c20696e646578206f60448201526b7574206f6620626f756e647360a01b6064820152608401610fbe565b60088281548110611b4657634e487b7160e01b600052603260045260246000fd5b90600052602060002001549050919050565b6013546001600160a01b031615611ba55760405162461bcd60e51b81526020600482015260116024820152702bb937b7339038bab7ba32903a37b5b2b760791b6044820152606401610fbe565b6019544211611bf65760405162461bcd60e51b815260206004820152601b60248201527f4e6f7420796574206c61756e63682074696d65207265616368656400000000006044820152606401610fbe565b60003411611c165760405162461bcd60e51b8152600401610fbe90615527565b601454611c249082906135b3565b3414611c425760405162461bcd60e51b8152600401610fbe906154f0565b6012546001600160a01b031615801590611c5c5750602554155b611ca25760405162461bcd60e51b81526020600482015260176024820152761ad95e4818dbdb9d1c9858dd081a5cc81b9bdd081cd95d604a1b6044820152606401610fbe565b60005b81811015611d37576000611cb860155490565b60125460405163086eba7960e21b81523360048201529192506001600160a01b0316906321bae9e490602401600060405180830381600087803b158015611cfe57600080fd5b505af1158015611d12573d6000803e3d6000fd5b50505050611d24601580546001019055565b5080611d2f816156ec565b915050611ca5565b50611a22816136fd565b6000805160206157a2833981519152611d598161321f565b60405162461bcd60e51b8152602060048201526008602482015267111a5cd8589b195960c21b6044820152606401610fbe565b600b546001600160a01b03610100909104163314611dbc5760405162461bcd60e51b8152600401610fbe906154bb565b60198190556040518181527f7c8826e4db3679f20c86da0c68d37f9dbcd1d638c56717e014f93c56d14c02d1906020015b60405180910390a150565b60218181548110611e0857600080fd5b906000526020600020016000915090508054611e23906156b1565b80601f0160208091040260200160405190810160405280929190818152602001828054611e4f906156b1565b8015611e9c5780601f10611e7157610100808354040283529160200191611e9c565b820191906000526020600020905b815481529060010190602001808311611e7f57829003601f168201915b505050505081565b6000818152600260205260408120546001600160a01b031680610ebe5760405162461bcd60e51b815260206004820152602960248201527f4552433732313a206f776e657220717565727920666f72206e6f6e657869737460448201526832b73a103a37b5b2b760b91b6064820152608401610fbe565b600b546001600160a01b03610100909104163314611f4b5760405162461bcd60e51b8152600401610fbe906154bb565b601a8190556040518181527fa7ade4ab976b6643a971383d9822fb7c2fce66aa2e497d88c3b4f1475ea2b2e090602001611ded565b60006001600160a01b038216611feb5760405162461bcd60e51b815260206004820152602a60248201527f4552433732313a2062616c616e636520717565727920666f7220746865207a65604482015269726f206164647265737360b01b6064820152608401610fbe565b506001600160a01b031660009081526003602052604090205490565b600b546001600160a01b036101009091041633146120375760405162461bcd60e51b8152600401610fbe906154bb565b612041600061396b565b565b600b546001600160a01b036101009091041633146120735760405162461bcd60e51b8152600401610fbe906154bb565b600f80546001600160a01b0319166001600160a01b0383161790556120a66000805160206157a2833981519152826134c6565b600f546040516001600160a01b0390911681527f329b1203fc60a62c4a0fd3ff1554a07f92a2f117cc590422dd105811bb484ded90602001611ded565b600b546001600160a01b036101009091041633146121135760405162461bcd60e51b8152600401610fbe906154bb565b6001600160a01b0382166121735760405162461bcd60e51b815260206004820152602160248201527f57726f6e67204d797374657279426f7820636f6e7472616374206164647265736044820152607360f81b6064820152608401610fbe565b601280546001600160a01b0319166001600160a01b038416908117909155601482905560408051918252602082018390527fd46fcdc06972a446de426e47c59c6a0c4581b5c0116ac49a2efc3e7d23bdfe729101611440565b600b546001600160a01b036101009091041633146121fc5760405162461bcd60e51b8152600401610fbe906154bb565b612214600080516020615782833981519152826134c6565b604080516001600160a01b038316815260208101829052600b918101919091526a5041555345525f524f4c4560a81b60608201527f0578acc86b18d67c13a5e6eed8c670fb7052f530b48a2acb167d6ca77509a38490608001611ded565b60008051602061578283398151915261228a8161321f565b611a226139c5565b43601f8190555060007f00000000000000000000000000000000000000000000000000000000000000006001600160a01b031663699b328a346040518263ffffffff1660e01b81526004016020604051808303818588803b1580156122f657600080fd5b505af115801561230a573d6000803e3d6000fd5b50505050506040513d601f19601f8201168201806040525081019061232f9190615278565b905034811015611a2257336108fc6123478334615657565b6040518115909202916000818181858888f19350505050158015611581573d6000803e3d6000fd5b6022818154811061237f57600080fd5b600091825260209091200154905081565b600b546001600160a01b036101009091041633146123c05760405162461bcd60e51b8152600401610fbe906154bb565b6001600160a01b0383166124165760405162461bcd60e51b815260206004820152601760248201527f696e76616c6964207061796d656e7420616464726573730000000000000000006044820152606401610fbe565b6001600160a01b03821661246c5760405162461bcd60e51b815260206004820152601860248201527f696e76616c6964207472656173757279206164647265737300000000000000006044820152606401610fbe565b601b80546001600160a01b038581166001600160a01b03199283168117909355601c8054918616919092168117909155601d83905560408051928352602083019190915281018290527fe2be3027f197494650b7a98fd1cae67dacf615bd1d8bb05102999676f1163866906060016119f5565b6000918252600c602090815260408084206001600160a01b0393909316845291905290205460ff1690565b606060018054610ed3906156b1565b600b546001600160a01b036101009091041633146125495760405162461bcd60e51b8152600401610fbe906154bb565b6125616000805160206157a2833981519152826134c6565b604080516001600160a01b038316815260208101829052600b918101919091526a4d494e5445525f524f4c4560a81b60608201527f0578acc86b18d67c13a5e6eed8c670fb7052f530b48a2acb167d6ca77509a38490608001611ded565b611581338383613a1d565b600b546001600160a01b036101009091041633146125fa5760405162461bcd60e51b8152600401610fbe906154bb565b601380546001600160a01b0319166001600160a01b0383169081179091556040519081527fca92c759228172fe3894a344908fd20dfd37ba561b5af191f1f5b02ee03881fc90602001611ded565b6040516314c1dc4d60e31b81526004810182905260009081906001600160a01b037f0000000000000000000000000000000000000000000000000000000000000000169063a60ee2689060240160206040518083038186803b1580156126ad57600080fd5b505afa1580156126c1573d6000803e3d6000fd5b505050506040513d601f19601f820116820180604052508101906126e59190615278565b9392505050565b600b5460ff161561270f5760405162461bcd60e51b8152600401610fbe90615491565b600260115414156127625760405162461bcd60e51b815260206004820152601f60248201527f5265656e7472616e637947756172643a207265656e7472616e742063616c6c006044820152606401610fbe565b60026011556012546001600160a01b03166127b65760405162461bcd60e51b81526020600482015260146024820152731ad95e4818dbdb9d1c9858dd081b9bdd081cd95d60621b6044820152606401610fbe565b6001600160a01b0382166128025760405162461bcd60e51b815260206004820152601360248201527257726f6e6720636c61696d206164647265737360681b6044820152606401610fbe565b601a5442116128535760405162461bcd60e51b815260206004820152601b60248201527f4e6f74207965742072657665616c2074696d65207265616368656400000000006044820152606401610fbe565b6012546040516370a0823160e01b81523360048201526000916001600160a01b0316906370a082319060240160206040518083038186803b15801561289757600080fd5b505afa1580156128ab573d6000803e3d6000fd5b505050506040513d601f19601f820116820180604052508101906128cf9190615278565b116129385760405162461bcd60e51b815260206004820152603360248201527f4f6e6c79206f776e657273206f66204d797374657279426f782063616e20636c60448201527261696d20756e626f786564206974656d28732960681b6064820152608401610fbe565b6012546040516370a0823160e01b81523360048201526000916001600160a01b0316906370a082319060240160206040518083038186803b15801561297c57600080fd5b505afa158015612990573d6000803e3d6000fd5b505050506040513d601f19601f820116820180604052508101906129b49190615278565b90508082111580156129c65750600082115b612a095760405162461bcd60e51b81526020600482015260146024820152731a5b9d985b1a590818db185a5b48185b5bdd5b9d60621b6044820152606401610fbe565b6000816001600160401b03811115612a3157634e487b7160e01b600052604160045260246000fd5b604051908082528060200260200182016040528015612a5a578160200160208202803683370190505b50905060005b83811015612b2757601254604051632f745c5960e01b8152336004820152602481018390526001600160a01b0390911690632f745c599060440160206040518083038186803b158015612ab257600080fd5b505afa158015612ac6573d6000803e3d6000fd5b505050506040513d601f19601f82011682018060405250810190612aea9190615278565b828281518110612b0a57634e487b7160e01b600052603260045260246000fd5b602090810291909101015280612b1f816156ec565b915050612a60565b5060005b8151811015612c1e5760125482516001600160a01b03909116906342842e0e90339061dead90869086908110612b7157634e487b7160e01b600052603260045260246000fd5b60209081029190910101516040516001600160e01b031960e086901b1681526001600160a01b0393841660048201529290911660248301526044820152606401600060405180830381600087803b158015612bcb57600080fd5b505af1158015612bdf573d6000803e3d6000fd5b50505050612bee601854613aec565b601e54612c0b908690612c069063ffffffff16613bee565b613d6e565b5080612c16816156ec565b915050612b2b565b50506001601155505050565b6000805160206157a2833981519152612c428161321f565b6001600160a01b038416612c8d5760405162461bcd60e51b8152602060048201526012602482015271496e76616c696420746f206164647265737360701b6044820152606401610fbe565b60005b82811015612cb557612ca28585612d0f565b5080612cad816156ec565b915050612c90565b5050505050565b612cc63383613235565b612ce25760405162461bcd60e51b8152600401610fbe90615568565b612cee84848484613d7b565b50505050565b6017818154811061237f57600080fd5b6060610ebe82613dae565b60006000805160206157a2833981519152611d598161321f565b600e8054611e23906156b1565b6000828152600c6020526040902060010154612d518161321f565b6110f4838361354c565b600b546001600160a01b03610100909104163314612d8b5760405162461bcd60e51b8152600401610fbe906154bb565b6001600160a01b038116612df05760405162461bcd60e51b815260206004820152602660248201527f4f776e61626c653a206e6577206f776e657220697320746865207a65726f206160448201526564647265737360d01b6064820152608401610fbe565b611a228161396b565b600b5460ff1615612e1c5760405162461bcd60e51b8152600401610fbe90615491565b600060255411612e6e5760405162461bcd60e51b815260206004820152601d60248201527f4e6f20737562736372697074696f6e20636f6e747261637473207365740000006044820152606401610fbe565b33600081815260266020908152604080832054835260249091529020546001600160a01b031614612ef75760405162461bcd60e51b815260206004820152602d60248201527f4f6e6c7920737562736372697074696f6e20636f6e74726163742063616e206360448201526c616c6c20636c61696d4b65797360981b6064820152608401610fbe565b60026011541415612f4a5760405162461bcd60e51b815260206004820152601f60248201527f5265656e7472616e637947756172643a207265656e7472616e742063616c6c006044820152606401610fbe565b60026011556012546001600160a01b0316612f9e5760405162461bcd60e51b81526020600482015260146024820152731ad95e4818dbdb9d1c9858dd081b9bdd081cd95d60621b6044820152606401610fbe565b6001600160a01b038216612fea5760405162461bcd60e51b815260206004820152601360248201527257726f6e6720636c61696d206164647265737360681b6044820152606401610fbe565b6000811161303a5760405162461bcd60e51b815260206004820152601a60248201527f696e76616c696420746f6b656e49647320666f7220636c61696d0000000000006044820152606401610fbe565b3360009081526026602052604081205490805b83811015612c1e576000838152602460205260409020600581015460039091015461307791613229565b6000848152602460205260409020600401549092508211156130db5760405162461bcd60e51b815260206004820152601760248201527f636c61696d20746f6b656e204964206f766572666c6f770000000000000000006044820152606401610fbe565b60008381526024602052604081206005018054916130f8836156ec565b909155505060125460405163086eba7960e21b81526001600160a01b038781166004830152909116906321bae9e490602401600060405180830381600087803b15801561314457600080fd5b505af1158015613158573d6000803e3d6000fd5b505050508080613167906156ec565b91505061304d565b60006001600160e01b03198216637965db0b60e01b1480610ebe5750610ebe82613f1d565b6000908152600260205260409020546001600160a01b0316151590565b600081815260046020526040902080546001600160a01b0319166001600160a01b03841690811790915581906131e682611ea4565b6001600160a01b03167f8c5be1e5ebec7d5bd14f71427d1e84f3dd0314c0f7b2291e5b200ac8c7c3b92560405160405180910390a45050565b611a228133613f42565b60006126e5828461560c565b600061324082613194565b6132a15760405162461bcd60e51b815260206004820152602c60248201527f4552433732313a206f70657261746f7220717565727920666f72206e6f6e657860448201526b34b9ba32b73a103a37b5b2b760a11b6064820152608401610fbe565b60006132ac83611ea4565b9050806001600160a01b0316846001600160a01b031614806132f357506001600160a01b0380821660009081526005602090815260408083209388168352929052205460ff165b806133175750836001600160a01b031661330c84610f56565b6001600160a01b0316145b949350505050565b826001600160a01b031661333282611ea4565b6001600160a01b0316146133965760405162461bcd60e51b815260206004820152602560248201527f4552433732313a207472616e736665722066726f6d20696e636f72726563742060448201526437bbb732b960d91b6064820152608401610fbe565b6001600160a01b0382166133f85760405162461bcd60e51b8152602060048201526024808201527f4552433732313a207472616e7366657220746f20746865207a65726f206164646044820152637265737360e01b6064820152608401610fbe565b613403838383613fa6565b61340e6000826131b1565b6001600160a01b0383166000908152600360205260408120805460019290613437908490615657565b90915550506001600160a01b038216600090815260036020526040812080546001929061346590849061560c565b909155505060008181526002602052604080822080546001600160a01b0319166001600160a01b0386811691821790925591518493918716917fddf252ad1be2c89b69c2b068fc378daa952ba7f163c4a11628f55a4df523b3ef91a4505050565b6134d082826124df565b611581576000828152600c602090815260408083206001600160a01b03851684529091529020805460ff191660011790556135083390565b6001600160a01b0316816001600160a01b0316837f2f8788117e7eff1d82e926ec794901d17c78024a50270940304540a733656f0d60405160405180910390a45050565b61355682826124df565b15611581576000828152600c602090815260408083206001600160a01b0385168085529252808320805460ff1916905551339285917ff6391f5c32d9c69d2a47ea670b442974b53935d1edc7fd64eb21e047a839171b9190a45050565b60006126e58284615638565b604080516001600160a01b0385811660248301528481166044830152606480830185905283518084039091018152608490920183526020820180516001600160e01b03166323b872dd60e01b1790529151600092839290881691613623919061532f565b6000604051808303816000865af19150503d8060008114613660576040519150601f19603f3d011682016040523d82523d6000602084013e613665565b606091505b509150915081801561368f57508051158061368f57508080602001905181019061368f91906151ea565b6136f55760405162461bcd60e51b815260206004820152603160248201527f5472616e7366657248656c7065723a3a7472616e7366657246726f6d3a207472604482015270185b9cd9995c919c9bdb4819985a5b1959607a1b6064820152608401610fbe565b505050505050565b6012546001600160a01b031661374f5760405162461bcd60e51b81526020600482015260176024820152761ad95e4818dbdb9d1c9858dd081a5cc81b9bdd081cd95d604a1b6044820152606401610fbe565b6025541561379f5760405162461bcd60e51b815260206004820152601e60248201527f6d797374657279626f7820696e76616c6964206d6574686f642063616c6c00006044820152606401610fbe565b601b546001600160a01b03166137f75760405162461bcd60e51b815260206004820152601a60248201527f7061796d656e742061646472657373206973206e6f74207365740000000000006044820152606401610fbe565b600061380e601454836135b390919063ffffffff16565b905060006138336103e861382d601d54856135b390919063ffffffff16565b90613fd4565b6013549091506001600160a01b03161561388e57601354601c54613866916001600160a01b0390811691309116846135bf565b601354601b546110f4916001600160a01b039081169130911661388986866138c3565b6135bf565b601c546138a4906001600160a01b031682613fe0565b601b546110f4906001600160a01b03166138be84846138c3565b613fe0565b60006126e58284615657565b600b5460ff166139185760405162461bcd60e51b815260206004820152601460248201527314185d5cd8589b194e881b9bdd081c185d5cd95960621b6044820152606401610fbe565b600b805460ff191690557f5db9ee0a495bf2e6ff9c91a7834c1ba4fdd244a5e8aa4e537bd38aeae4b073aa335b6040516001600160a01b03909116815260200160405180910390a1565b611a22816140ba565b600b80546001600160a01b03838116610100818102610100600160a81b031985161790945560405193909204169182907f8be0079c531659141344cd1fd0a4f28419497f9722a3daafe3b4186f6b6457e090600090a35050565b600b5460ff16156139e85760405162461bcd60e51b8152600401610fbe90615491565b600b805460ff191660011790557f62e78cea01bee320cd4e420270b5ea74000d11b0c9f74754ebdbfc544b05a2586139453390565b816001600160a01b0316836001600160a01b03161415613a7f5760405162461bcd60e51b815260206004820152601960248201527f4552433732313a20617070726f766520746f2063616c6c6572000000000000006044820152606401610fbe565b6001600160a01b03838116600081815260056020908152604080832094871680845294825291829020805460ff191686151590811790915591519182527f17307eab39ab6107e8899845ad3d59bd9653f200f220920489ca2b5937696c31910160405180910390a3505050565b6000601f5411613b0c57634e487b7160e01b600052600160045260246000fd5b602054601f546040516324cbbfc160e01b815263ffffffff84166004820152602481019290925260448201527f00000000000000000000000000000000000000000000000000000000000000006001600160a01b0316906324cbbfc19060640160206040518083038186803b158015613b8457600080fd5b505afa158015613b98573d6000803e3d6000fd5b505050506040513d601f19601f82011682018060405250810190613bbc91906152df565b601e805463ffffffff191663ffffffff9290921691909117905560208054906000613be6836156ec565b919050555050565b6060600080805b602154811015613c6157613c3d60228281548110613c2357634e487b7160e01b600052603260045260246000fd5b90600052602060002001548361322990919063ffffffff16565b915081851015613c4f57809250613c61565b80613c59816156ec565b915050613bf5565b50601854613c709060016138c3565b50613cb0600160228481548110613c9757634e487b7160e01b600052603260045260246000fd5b90600052602060002001546138c390919063ffffffff16565b5060218281548110613cd257634e487b7160e01b600052603260045260246000fd5b906000526020600020018054613ce7906156b1565b80601f0160208091040260200160405190810160405280929190818152602001828054613d13906156b1565b8015613d605780601f10613d3557610100808354040283529160200191613d60565b820191906000526020600020905b815481529060010190602001808311613d4357829003601f168201915b505050505092505050919050565b60008061331784846140fa565b613d8684848461331f565b613d928484848461412a565b612cee5760405162461bcd60e51b8152600401610fbe9061543f565b6060613db982613194565b613e1f5760405162461bcd60e51b815260206004820152603160248201527f45524337323155524953746f726167653a2055524920717565727920666f72206044820152703737b732bc34b9ba32b73a103a37b5b2b760791b6064820152608401610fbe565b6000828152600a602052604081208054613e38906156b1565b80601f0160208091040260200160405190810160405280929190818152602001828054613e64906156b1565b8015613eb15780601f10613e8657610100808354040283529160200191613eb1565b820191906000526020600020905b815481529060010190602001808311613e9457829003601f168201915b505050505090506000613ecf60408051602081019091526000815290565b9050805160001415613ee2575092915050565b815115613f14578082604051602001613efc92919061534b565b60405160208183030381529060405292505050919050565b61331784614237565b60006001600160e01b0319821663780e9d6360e01b1480610ebe5750610ebe8261430e565b613f4c82826124df565b61158157613f64816001600160a01b0316601461435e565b613f6f83602061435e565b604051602001613f8092919061537a565b60408051601f198184030181529082905262461bcd60e51b8252610fbe9160040161542c565b600b5460ff1615613fc95760405162461bcd60e51b8152600401610fbe90615491565b6110f483838361453f565b60006126e58284615624565b604080516000808252602082019092526001600160a01b03841690839060405161400a919061532f565b60006040518083038185875af1925050503d8060008114614047576040519150601f19603f3d011682016040523d82523d6000602084013e61404c565b606091505b50509050806110f45760405162461bcd60e51b815260206004820152603460248201527f5472616e7366657248656c7065723a3a736166655472616e736665724554483a60448201527308115512081d1c985b9cd9995c8819985a5b195960621b6064820152608401610fbe565b6140c3816145f7565b6000818152600a6020526040902080546140dc906156b1565b159050611a22576000818152600a60205260408120611a2291614c9f565b60008061410660105490565b9050614116601080546001019055565b614120848261469e565b6126e581846146b8565b60006001600160a01b0384163b1561422c57604051630a85bd0160e11b81526001600160a01b0385169063150b7a029061416e9033908990889088906004016153ef565b602060405180830381600087803b15801561418857600080fd5b505af19250505080156141b8575060408051601f3d908101601f191682019092526141b59181019061525c565b60015b614212573d8080156141e6576040519150601f19603f3d011682016040523d82523d6000602084013e6141eb565b606091505b50805161420a5760405162461bcd60e51b8152600401610fbe9061543f565b805181602001fd5b6001600160e01b031916630a85bd0160e11b149050613317565b506001949350505050565b606061424282613194565b6142a65760405162461bcd60e51b815260206004820152602f60248201527f4552433732314d657461646174613a2055524920717565727920666f72206e6f60448201526e3732bc34b9ba32b73a103a37b5b2b760891b6064820152608401610fbe565b60006142bd60408051602081019091526000815290565b905060008151116142dd57604051806020016040528060008152506126e5565b806142e784614743565b6040516020016142f892919061534b565b6040516020818303038152906040529392505050565b60006001600160e01b031982166380ac58cd60e01b148061433f57506001600160e01b03198216635b5e139f60e01b145b80610ebe57506301ffc9a760e01b6001600160e01b0319831614610ebe565b6060600061436d836002615638565b61437890600261560c565b6001600160401b0381111561439d57634e487b7160e01b600052604160045260246000fd5b6040519080825280601f01601f1916602001820160405280156143c7576020820181803683370190505b509050600360fc1b816000815181106143f057634e487b7160e01b600052603260045260246000fd5b60200101906001600160f81b031916908160001a905350600f60fb1b8160018151811061442d57634e487b7160e01b600052603260045260246000fd5b60200101906001600160f81b031916908160001a9053506000614451846002615638565b61445c90600161560c565b90505b60018111156144f0576f181899199a1a9b1b9c1cb0b131b232b360811b85600f166010811061449e57634e487b7160e01b600052603260045260246000fd5b1a60f81b8282815181106144c257634e487b7160e01b600052603260045260246000fd5b60200101906001600160f81b031916908160001a90535060049490941c936144e98161569a565b905061445f565b5083156126e55760405162461bcd60e51b815260206004820181905260248201527f537472696e67733a20686578206c656e67746820696e73756666696369656e746044820152606401610fbe565b6001600160a01b03831661459a5761459581600880546000838152600960205260408120829055600182018355919091527ff3f7a9fe364faab93b216da50a3214154f22a0a2b415b23a84c8169e8b636ee30155565b6145bd565b816001600160a01b0316836001600160a01b0316146145bd576145bd838261485c565b6001600160a01b0382166145d4576110f4816148f9565b826001600160a01b0316826001600160a01b0316146110f4576110f482826149d2565b600061460282611ea4565b905061461081600084613fa6565b61461b6000836131b1565b6001600160a01b0381166000908152600360205260408120805460019290614644908490615657565b909155505060008281526002602052604080822080546001600160a01b0319169055518391906001600160a01b038416907fddf252ad1be2c89b69c2b068fc378daa952ba7f163c4a11628f55a4df523b3ef908390a45050565b611581828260405180602001604052806000815250614a16565b6146c182613194565b6147245760405162461bcd60e51b815260206004820152602e60248201527f45524337323155524953746f726167653a2055524920736574206f66206e6f6e60448201526d32bc34b9ba32b73a103a37b5b2b760911b6064820152608401610fbe565b6000828152600a6020908152604090912082516110f492840190614c2c565b6060816147675750506040805180820190915260018152600360fc1b602082015290565b8160005b8115614791578061477b816156ec565b915061478a9050600a83615624565b915061476b565b6000816001600160401b038111156147b957634e487b7160e01b600052604160045260246000fd5b6040519080825280601f01601f1916602001820160405280156147e3576020820181803683370190505b5090505b8415613317576147f8600183615657565b9150614805600a86615707565b61481090603061560c565b60f81b81838151811061483357634e487b7160e01b600052603260045260246000fd5b60200101906001600160f81b031916908160001a905350614855600a86615624565b94506147e7565b6000600161486984611f80565b6148739190615657565b6000838152600760205260409020549091508082146148c6576001600160a01b03841660009081526006602090815260408083208584528252808320548484528184208190558352600790915290208190555b5060009182526007602090815260408084208490556001600160a01b039094168352600681528383209183525290812055565b60085460009061490b90600190615657565b6000838152600960205260408120546008805493945090928490811061494157634e487b7160e01b600052603260045260246000fd5b90600052602060002001549050806008838154811061497057634e487b7160e01b600052603260045260246000fd5b60009182526020808320909101929092558281526009909152604080822084905585825281205560088054806149b657634e487b7160e01b600052603160045260246000fd5b6001900381819060005260206000200160009055905550505050565b60006149dd83611f80565b6001600160a01b039093166000908152600660209081526040808320868452825280832085905593825260079052919091209190915550565b614a208383614a49565b614a2d600084848461412a565b6110f45760405162461bcd60e51b8152600401610fbe9061543f565b6001600160a01b038216614a9f5760405162461bcd60e51b815260206004820181905260248201527f4552433732313a206d696e7420746f20746865207a65726f20616464726573736044820152606401610fbe565b614aa881613194565b15614af55760405162461bcd60e51b815260206004820152601c60248201527f4552433732313a20746f6b656e20616c7265616479206d696e746564000000006044820152606401610fbe565b614b0160008383613fa6565b6001600160a01b0382166000908152600360205260408120805460019290614b2a90849061560c565b909155505060008181526002602052604080822080546001600160a01b0319166001600160a01b03861690811790915590518392907fddf252ad1be2c89b69c2b068fc378daa952ba7f163c4a11628f55a4df523b3ef908290a45050565b828054828255906000526020600020908101928215614bc3579160200282015b82811115614bc3578251825591602001919060010190614ba8565b50614bcf929150614cd5565b5090565b828054828255906000526020600020908101928215614c20579160200282015b82811115614c205782518051614c10918491602090910190614c2c565b5091602001919060010190614bf3565b50614bcf929150614cea565b828054614c38906156b1565b90600052602060002090601f016020900481019282614c5a5760008555614bc3565b82601f10614c7357805160ff1916838001178555614bc3565b82800160010185558215614bc35791820182811115614bc3578251825591602001919060010190614ba8565b508054614cab906156b1565b6000825580601f10614cbb575050565b601f016020900490600052602060002090810190611a2291905b5b80821115614bcf5760008155600101614cd6565b80821115614bcf576000614cfe8282614c9f565b50600101614cea565b60006001600160401b03831115614d2057614d20615747565b614d33601f8401601f19166020016155b9565b9050828152838383011115614d4757600080fd5b828260208301376000602084830101529392505050565b80356001600160a01b0381168114614d7557600080fd5b919050565b600082601f830112614d8a578081fd5b81356020614d9f614d9a836155e9565b6155b9565b80838252828201915082860187848660051b8901011115614dbe578586fd5b855b85811015614dfe5781356001600160401b03811115614ddd578788fd5b614deb8a87838c0101614e0b565b8552509284019290840190600101614dc0565b5090979650505050505050565b600082601f830112614e1b578081fd5b6126e583833560208501614d07565b600060208284031215614e3b578081fd5b6126e582614d5e565b60008060408385031215614e56578081fd5b614e5f83614d5e565b9150614e6d60208401614d5e565b90509250929050565b600080600060608486031215614e8a578081fd5b614e9384614d5e565b9250614ea160208501614d5e565b9150604084013590509250925092565b600080600080600060808688031215614ec8578081fd5b614ed186614d5e565b9450614edf60208701614d5e565b93506040860135925060608601356001600160401b0380821115614f01578283fd5b818801915088601f830112614f14578283fd5b813581811115614f22578384fd5b896020828501011115614f33578384fd5b9699959850939650602001949392505050565b60008060008060808587031215614f5b578384fd5b614f6485614d5e565b9350614f7260208601614d5e565b92506040850135915060608501356001600160401b03811115614f93578182fd5b8501601f81018713614fa3578182fd5b614fb287823560208401614d07565b91505092959194509250565b60008060408385031215614fd0578182fd5b614fd983614d5e565b915060208301356001600160401b03811115614ff3578182fd5b614fff85828601614d7a565b9150509250929050565b6000806040838503121561501b578182fd5b61502483614d5e565b915060208301356150348161575d565b809150509250929050565b60008060408385031215615051578182fd5b61505a83614d5e565b915060208301356001600160401b03811115615074578182fd5b614fff85828601614e0b565b600080600060608486031215615094578081fd5b61509d84614d5e565b925060208401356001600160401b038111156150b7578182fd5b6150c386828701614e0b565b925050604084013590509250925092565b600080604083850312156150e6578182fd5b6150ef83614d5e565b946020939093013593505050565b600080600060608486031215615111578081fd5b61511a84614d5e565b95602085013595506040909401359392505050565b60008060408385031215615141578182fd5b82356001600160401b0380821115615157578384fd5b61516386838701614d7a565b9350602091508185013581811115615179578384fd5b85019050601f8101861361518b578283fd5b8035615199614d9a826155e9565b80828252848201915084840189868560051b87010111156151b8578687fd5b8694505b838510156151da5780358352600194909401939185019185016151bc565b5080955050505050509250929050565b6000602082840312156151fb578081fd5b81516126e58161575d565b600060208284031215615217578081fd5b5035919050565b60008060408385031215615230578182fd5b82359150614e6d60208401614d5e565b600060208284031215615251578081fd5b81356126e58161576b565b60006020828403121561526d578081fd5b81516126e58161576b565b600060208284031215615289578081fd5b5051919050565b600080604083850312156152a2578182fd5b8235915060208301356001600160401b03811115615074578182fd5b600080604083850312156152d0578182fd5b50508035926020909101359150565b6000602082840312156152f0578081fd5b815163ffffffff811681146126e5578182fd5b6000815180845261531b81602086016020860161566e565b601f01601f19169290920160200192915050565b6000825161534181846020870161566e565b9190910192915050565b6000835161535d81846020880161566e565b83519083019061537181836020880161566e565b01949350505050565b7f416363657373436f6e74726f6c3a206163636f756e74200000000000000000008152600083516153b281601785016020880161566e565b7001034b99036b4b9b9b4b733903937b6329607d1b60179184019182015283516153e381602884016020880161566e565b01602801949350505050565b6001600160a01b038581168252841660208201526040810183905260806060820181905260009061542290830184615303565b9695505050505050565b6020815260006126e56020830184615303565b60208082526032908201527f4552433732313a207472616e7366657220746f206e6f6e20455243373231526560408201527131b2b4bb32b91034b6b83632b6b2b73a32b960711b606082015260800190565b60208082526010908201526f14185d5cd8589b194e881c185d5cd95960821b604082015260600190565b6020808252818101527f4f776e61626c653a2063616c6c6572206973206e6f7420746865206f776e6572604082015260600190565b6020808252601d908201527f76616c756520616e6420616d6f756e74206973206e6f74206d61746368000000604082015260600190565b60208082526021908201527f76616c75652073686f756c642062652067726561746572207468616e207a65726040820152606f60f81b606082015260800190565b60208082526031908201527f4552433732313a207472616e736665722063616c6c6572206973206e6f74206f6040820152701ddb995c881b9bdc88185c1c1c9bdd9959607a1b606082015260800190565b604051601f8201601f191681016001600160401b03811182821017156155e1576155e1615747565b604052919050565b60006001600160401b0382111561560257615602615747565b5060051b60200190565b6000821982111561561f5761561f61571b565b500190565b60008261563357615633615731565b500490565b60008160001904831182151516156156525761565261571b565b500290565b6000828210156156695761566961571b565b500390565b60005b83811015615689578181015183820152602001615671565b83811115612cee5750506000910152565b6000816156a9576156a961571b565b506000190190565b600181811c908216806156c557607f821691505b602082108114156156e657634e487b7160e01b600052602260045260246000fd5b50919050565b60006000198214156157005761570061571b565b5060010190565b60008261571657615716615731565b500690565b634e487b7160e01b600052601160045260246000fd5b634e487b7160e01b600052601260045260246000fd5b634e487b7160e01b600052604160045260246000fd5b8015158114611a2257600080fd5b6001600160e01b031981168114611a2257600080fdfe65d7a28e3265b37a6474929f336521b332c1681b933f6cb9f3376673440d862a9f2df0fed2c77648de5860a4cc508cd0818c85b8b8a1ab4ceeef8d981c8956a6a264697066735822122049b01d42fd522e5969c41708dd583d3233b4e456c054bc0b1857a39fb66cb64b64736f6c634300080400334f776e61626c653a2063616c6c6572206973206e6f7420746865206f776e657265d7a28e3265b37a6474929f336521b332c1681b933f6cb9f3376673440d862a9f2df0fed2c77648de5860a4cc508cd0818c85b8b8a1ab4ceeef8d981c8956a6",
  "linkReferences": {},
  "deployedLinkReferences": {}
}