{
  "_format": "hh-sol-artifact-1",
  "contractName": "MysteryBox",
  "sourceName": "contracts/MysteryBox.sol",
  "abi": [
    {
      "inputs": [
        {
          "internalType": "string",
          "name": "name",
          "type": "string"
        },
        {
          "internalType": "string",
          "name": "symbol",
          "type": "string"
        },
        {
          "internalType": "address",
          "name": "_key",
          "type": "address"
        },
        {
          "internalType": "address",
          "name": "_quote",
          "type": "address"
        },
        {
          "internalType": "address",
          "name": "_payment",
          "type": "address"
        },
        {
          "internalType": "address",
          "name": "_treasury",
          "type": "address"
        },
        {
          "internalType": "uint256[]",
          "name": "configValues",
          "type": "uint256[]"
        },
        {
          "internalType": "contract IWitnetRandomness",
          "name": "_witnetRandomness",
          "type": "address"
        }
      ],
      "stateMutability": "nonpayable",
      "type": "constructor"
    },
    {
      "anonymous": false,
      "inputs": [
        {
          "indexed": true,
          "internalType": "address",
          "name": "owner",
          "type": "address"
        },
        {
          "indexed": true,
          "internalType": "address",
          "name": "approved",
          "type": "address"
        },
        {
          "indexed": true,
          "internalType": "uint256",
          "name": "tokenId",
          "type": "uint256"
        }
      ],
      "name": "Approval",
      "type": "event"
    },
    {
      "anonymous": false,
      "inputs": [
        {
          "indexed": true,
          "internalType": "address",
          "name": "owner",
          "type": "address"
        },
        {
          "indexed": true,
          "internalType": "address",
          "name": "operator",
          "type": "address"
        },
        {
          "indexed": false,
          "internalType": "bool",
          "name": "approved",
          "type": "bool"
        }
      ],
      "name": "ApprovalForAll",
      "type": "event"
    },
    {
      "anonymous": false,
      "inputs": [
        {
          "indexed": false,
          "internalType": "address",
          "name": "",
          "type": "address"
        },
        {
          "indexed": false,
          "internalType": "string",
          "name": "",
          "type": "string"
        }
      ],
      "name": "Grant",
      "type": "event"
    },
    {
      "anonymous": false,
      "inputs": [
        {
          "indexed": true,
          "internalType": "address",
          "name": "previousOwner",
          "type": "address"
        },
        {
          "indexed": true,
          "internalType": "address",
          "name": "newOwner",
          "type": "address"
        }
      ],
      "name": "OwnershipTransferred",
      "type": "event"
    },
    {
      "anonymous": false,
      "inputs": [
        {
          "indexed": false,
          "internalType": "address",
          "name": "account",
          "type": "address"
        }
      ],
      "name": "Paused",
      "type": "event"
    },
    {
      "anonymous": false,
      "inputs": [
        {
          "indexed": true,
          "internalType": "bytes32",
          "name": "role",
          "type": "bytes32"
        },
        {
          "indexed": true,
          "internalType": "bytes32",
          "name": "previousAdminRole",
          "type": "bytes32"
        },
        {
          "indexed": true,
          "internalType": "bytes32",
          "name": "newAdminRole",
          "type": "bytes32"
        }
      ],
      "name": "RoleAdminChanged",
      "type": "event"
    },
    {
      "anonymous": false,
      "inputs": [
        {
          "indexed": true,
          "internalType": "bytes32",
          "name": "role",
          "type": "bytes32"
        },
        {
          "indexed": true,
          "internalType": "address",
          "name": "account",
          "type": "address"
        },
        {
          "indexed": true,
          "internalType": "address",
          "name": "sender",
          "type": "address"
        }
      ],
      "name": "RoleGranted",
      "type": "event"
    },
    {
      "anonymous": false,
      "inputs": [
        {
          "indexed": true,
          "internalType": "bytes32",
          "name": "role",
          "type": "bytes32"
        },
        {
          "indexed": true,
          "internalType": "address",
          "name": "account",
          "type": "address"
        },
        {
          "indexed": true,
          "internalType": "address",
          "name": "sender",
          "type": "address"
        }
      ],
      "name": "RoleRevoked",
      "type": "event"
    },
    {
      "anonymous": false,
      "inputs": [
        {
          "indexed": false,
          "internalType": "address",
          "name": "",
          "type": "address"
        },
        {
          "indexed": false,
          "internalType": "address",
          "name": "",
          "type": "address"
        },
        {
          "indexed": false,
          "internalType": "uint256",
          "name": "",
          "type": "uint256"
        }
      ],
      "name": "SetConfig",
      "type": "event"
    },
    {
      "anonymous": false,
      "inputs": [
        {
          "indexed": false,
          "internalType": "uint256",
          "name": "",
          "type": "uint256"
        }
      ],
      "name": "SetHardCap",
      "type": "event"
    },
    {
      "anonymous": false,
      "inputs": [
        {
          "indexed": false,
          "internalType": "uint256",
          "name": "",
          "type": "uint256"
        }
      ],
      "name": "SetLaunch",
      "type": "event"
    },
    {
      "anonymous": false,
      "inputs": [
        {
          "indexed": false,
          "internalType": "uint256",
          "name": "",
          "type": "uint256"
        }
      ],
      "name": "SetLockup",
      "type": "event"
    },
    {
      "anonymous": false,
      "inputs": [
        {
          "indexed": false,
          "internalType": "address",
          "name": "",
          "type": "address"
        },
        {
          "indexed": false,
          "internalType": "uint256",
          "name": "",
          "type": "uint256"
        }
      ],
      "name": "SetMboxKey",
      "type": "event"
    },
    {
      "anonymous": false,
      "inputs": [
        {
          "indexed": false,
          "internalType": "address",
          "name": "",
          "type": "address"
        }
      ],
      "name": "SetMysteryBox",
      "type": "event"
    },
    {
      "anonymous": false,
      "inputs": [
        {
          "indexed": false,
          "internalType": "address",
          "name": "",
          "type": "address"
        }
      ],
      "name": "SetQuote",
      "type": "event"
    },
    {
      "anonymous": false,
      "inputs": [
        {
          "indexed": false,
          "internalType": "address",
          "name": "",
          "type": "address"
        }
      ],
      "name": "SetSubscription",
      "type": "event"
    },
    {
      "anonymous": false,
      "inputs": [
        {
          "indexed": true,
          "internalType": "address",
          "name": "from",
          "type": "address"
        },
        {
          "indexed": true,
          "internalType": "address",
          "name": "to",
          "type": "address"
        },
        {
          "indexed": true,
          "internalType": "uint256",
          "name": "tokenId",
          "type": "uint256"
        }
      ],
      "name": "Transfer",
      "type": "event"
    },
    {
      "anonymous": false,
      "inputs": [
        {
          "indexed": false,
          "internalType": "address",
          "name": "account",
          "type": "address"
        }
      ],
      "name": "Unpaused",
      "type": "event"
    },
    {
      "inputs": [],
      "name": "DEFAULT_ADMIN_ROLE",
      "outputs": [
        {
          "internalType": "bytes32",
          "name": "",
          "type": "bytes32"
        }
      ],
      "stateMutability": "view",
      "type": "function"
    },
    {
      "inputs": [],
      "name": "MINTER_ROLE",
      "outputs": [
        {
          "internalType": "bytes32",
          "name": "",
          "type": "bytes32"
        }
      ],
      "stateMutability": "view",
      "type": "function"
    },
    {
      "inputs": [],
      "name": "PAUSER_ROLE",
      "outputs": [
        {
          "internalType": "bytes32",
          "name": "",
          "type": "bytes32"
        }
      ],
      "stateMutability": "view",
      "type": "function"
    },
    {
      "inputs": [
        {
          "internalType": "address",
          "name": "minter",
          "type": "address"
        }
      ],
      "name": "addMinter",
      "outputs": [],
      "stateMutability": "nonpayable",
      "type": "function"
    },
    {
      "inputs": [
        {
          "internalType": "address",
          "name": "pauser",
          "type": "address"
        }
      ],
      "name": "addPauser",
      "outputs": [],
      "stateMutability": "nonpayable",
      "type": "function"
    },
    {
      "inputs": [
        {
          "internalType": "address",
          "name": "to",
          "type": "address"
        },
        {
          "internalType": "uint256",
          "name": "tokenId",
          "type": "uint256"
        }
      ],
      "name": "approve",
      "outputs": [],
      "stateMutability": "nonpayable",
      "type": "function"
    },
    {
      "inputs": [
        {
          "internalType": "address",
          "name": "owner",
          "type": "address"
        }
      ],
      "name": "balanceOf",
      "outputs": [
        {
          "internalType": "uint256",
          "name": "",
          "type": "uint256"
        }
      ],
      "stateMutability": "view",
      "type": "function"
    },
    {
      "inputs": [
        {
          "internalType": "uint256",
          "name": "tokenId",
          "type": "uint256"
        }
      ],
      "name": "burn",
      "outputs": [],
      "stateMutability": "nonpayable",
      "type": "function"
    },
    {
      "inputs": [
        {
          "internalType": "uint256",
          "name": "_amount",
          "type": "uint256"
        },
        {
          "internalType": "address",
          "name": "to",
          "type": "address"
        }
      ],
      "name": "buyKeyCredit",
      "outputs": [],
      "stateMutability": "nonpayable",
      "type": "function"
    },
    {
      "inputs": [
        {
          "internalType": "uint256",
          "name": "_amount",
          "type": "uint256"
        }
      ],
      "name": "buyKeyEth",
      "outputs": [],
      "stateMutability": "payable",
      "type": "function"
    },
    {
      "inputs": [
        {
          "internalType": "uint256",
          "name": "_payment",
          "type": "uint256"
        },
        {
          "internalType": "uint256",
          "name": "_amount",
          "type": "uint256"
        }
      ],
      "name": "buyKeyQuote",
      "outputs": [],
      "stateMutability": "nonpayable",
      "type": "function"
    },
    {
      "inputs": [
        {
          "internalType": "address",
          "name": "to",
          "type": "address"
        },
        {
          "internalType": "uint256",
          "name": "amount",
          "type": "uint256"
        }
      ],
      "name": "claim",
      "outputs": [],
      "stateMutability": "nonpayable",
      "type": "function"
    },
    {
      "inputs": [
        {
          "internalType": "address",
          "name": "to",
          "type": "address"
        },
        {
          "internalType": "uint256",
          "name": "_amount",
          "type": "uint256"
        }
      ],
      "name": "claimKeys",
      "outputs": [],
      "stateMutability": "nonpayable",
      "type": "function"
    },
    {
      "inputs": [
        {
          "internalType": "uint256",
          "name": "gasPrice",
          "type": "uint256"
        }
      ],
      "name": "estimateRandomizeFee",
      "outputs": [
        {
          "internalType": "uint256",
          "name": "",
          "type": "uint256"
        }
      ],
      "stateMutability": "view",
      "type": "function"
    },
    {
      "inputs": [],
      "name": "feeRate",
      "outputs": [
        {
          "internalType": "uint256",
          "name": "",
          "type": "uint256"
        }
      ],
      "stateMutability": "view",
      "type": "function"
    },
    {
      "inputs": [
        {
          "internalType": "uint256",
          "name": "tokenId",
          "type": "uint256"
        }
      ],
      "name": "getApproved",
      "outputs": [
        {
          "internalType": "address",
          "name": "",
          "type": "address"
        }
      ],
      "stateMutability": "view",
      "type": "function"
    },
    {
      "inputs": [],
      "name": "getItemRemains",
      "outputs": [
        {
          "internalType": "uint256",
          "name": "",
          "type": "uint256"
        }
      ],
      "stateMutability": "view",
      "type": "function"
    },
    {
      "inputs": [
        {
          "internalType": "bytes32",
          "name": "role",
          "type": "bytes32"
        }
      ],
      "name": "getRoleAdmin",
      "outputs": [
        {
          "internalType": "bytes32",
          "name": "",
          "type": "bytes32"
        }
      ],
      "stateMutability": "view",
      "type": "function"
    },
    {
      "inputs": [
        {
          "internalType": "address",
          "name": "_subAddr",
          "type": "address"
        }
      ],
      "name": "getSubInfos",
      "outputs": [
        {
          "internalType": "address",
          "name": "",
          "type": "address"
        },
        {
          "internalType": "uint256",
          "name": "",
          "type": "uint256"
        },
        {
          "internalType": "uint256",
          "name": "",
          "type": "uint256"
        }
      ],
      "stateMutability": "view",
      "type": "function"
    },
    {
      "inputs": [],
      "name": "globalURI",
      "outputs": [
        {
          "internalType": "string",
          "name": "",
          "type": "string"
        }
      ],
      "stateMutability": "view",
      "type": "function"
    },
    {
      "inputs": [
        {
          "internalType": "bytes32",
          "name": "role",
          "type": "bytes32"
        },
        {
          "internalType": "address",
          "name": "account",
          "type": "address"
        }
      ],
      "name": "grantRole",
      "outputs": [],
      "stateMutability": "nonpayable",
      "type": "function"
    },
    {
      "inputs": [],
      "name": "hardCap",
      "outputs": [
        {
          "internalType": "uint256",
          "name": "",
          "type": "uint256"
        }
      ],
      "stateMutability": "view",
      "type": "function"
    },
    {
      "inputs": [
        {
          "internalType": "bytes32",
          "name": "role",
          "type": "bytes32"
        },
        {
          "internalType": "address",
          "name": "account",
          "type": "address"
        }
      ],
      "name": "hasRole",
      "outputs": [
        {
          "internalType": "bool",
          "name": "",
          "type": "bool"
        }
      ],
      "stateMutability": "view",
      "type": "function"
    },
    {
      "inputs": [
        {
          "internalType": "address",
          "name": "owner",
          "type": "address"
        },
        {
          "internalType": "address",
          "name": "operator",
          "type": "address"
        }
      ],
      "name": "isApprovedForAll",
      "outputs": [
        {
          "internalType": "bool",
          "name": "",
          "type": "bool"
        }
      ],
      "stateMutability": "view",
      "type": "function"
    },
    {
      "inputs": [
        {
          "internalType": "uint256",
          "name": "",
          "type": "uint256"
        }
      ],
      "name": "itemAmounts",
      "outputs": [
        {
          "internalType": "uint256",
          "name": "",
          "type": "uint256"
        }
      ],
      "stateMutability": "view",
      "type": "function"
    },
    {
      "inputs": [
        {
          "internalType": "uint256",
          "name": "",
          "type": "uint256"
        }
      ],
      "name": "itemURIs",
      "outputs": [
        {
          "internalType": "string",
          "name": "",
          "type": "string"
        }
      ],
      "stateMutability": "view",
      "type": "function"
    },
    {
      "inputs": [
        {
          "internalType": "uint256",
          "name": "",
          "type": "uint256"
        }
      ],
      "name": "items",
      "outputs": [
        {
          "internalType": "uint256",
          "name": "",
          "type": "uint256"
        }
      ],
      "stateMutability": "view",
      "type": "function"
    },
    {
      "inputs": [],
      "name": "key",
      "outputs": [
        {
          "internalType": "address",
          "name": "",
          "type": "address"
        }
      ],
      "stateMutability": "view",
      "type": "function"
    },
    {
      "inputs": [],
      "name": "latestRandomizingBlock",
      "outputs": [
        {
          "internalType": "uint256",
          "name": "",
          "type": "uint256"
        }
      ],
      "stateMutability": "view",
      "type": "function"
    },
    {
      "inputs": [],
      "name": "launch",
      "outputs": [
        {
          "internalType": "uint256",
          "name": "",
          "type": "uint256"
        }
      ],
      "stateMutability": "view",
      "type": "function"
    },
    {
      "inputs": [],
      "name": "lockup",
      "outputs": [
        {
          "internalType": "uint256",
          "name": "",
          "type": "uint256"
        }
      ],
      "stateMutability": "view",
      "type": "function"
    },
    {
      "inputs": [],
      "name": "mysteryBox",
      "outputs": [
        {
          "internalType": "address",
          "name": "",
          "type": "address"
        }
      ],
      "stateMutability": "view",
      "type": "function"
    },
    {
      "inputs": [],
      "name": "name",
      "outputs": [
        {
          "internalType": "string",
          "name": "",
          "type": "string"
        }
      ],
      "stateMutability": "view",
      "type": "function"
    },
    {
      "inputs": [
        {
          "internalType": "address",
          "name": "operator",
          "type": "address"
        },
        {
          "internalType": "address",
          "name": "from",
          "type": "address"
        },
        {
          "internalType": "uint256",
          "name": "tokenId",
          "type": "uint256"
        },
        {
          "internalType": "bytes",
          "name": "data",
          "type": "bytes"
        }
      ],
      "name": "onERC721Received",
      "outputs": [
        {
          "internalType": "bytes4",
          "name": "",
          "type": "bytes4"
        }
      ],
      "stateMutability": "pure",
      "type": "function"
    },
    {
      "inputs": [],
      "name": "owner",
      "outputs": [
        {
          "internalType": "address",
          "name": "",
          "type": "address"
        }
      ],
      "stateMutability": "view",
      "type": "function"
    },
    {
      "inputs": [
        {
          "internalType": "uint256",
          "name": "tokenId",
          "type": "uint256"
        }
      ],
      "name": "ownerOf",
      "outputs": [
        {
          "internalType": "address",
          "name": "",
          "type": "address"
        }
      ],
      "stateMutability": "view",
      "type": "function"
    },
    {
      "inputs": [],
      "name": "pause",
      "outputs": [],
      "stateMutability": "nonpayable",
      "type": "function"
    },
    {
      "inputs": [],
      "name": "paused",
      "outputs": [
        {
          "internalType": "bool",
          "name": "",
          "type": "bool"
        }
      ],
      "stateMutability": "view",
      "type": "function"
    },
    {
      "inputs": [],
      "name": "payment",
      "outputs": [
        {
          "internalType": "address",
          "name": "",
          "type": "address"
        }
      ],
      "stateMutability": "view",
      "type": "function"
    },
    {
      "inputs": [],
      "name": "price",
      "outputs": [
        {
          "internalType": "uint256",
          "name": "",
          "type": "uint256"
        }
      ],
      "stateMutability": "view",
      "type": "function"
    },
    {
      "inputs": [],
      "name": "quote",
      "outputs": [
        {
          "internalType": "address",
          "name": "",
          "type": "address"
        }
      ],
      "stateMutability": "view",
      "type": "function"
    },
    {
      "inputs": [],
      "name": "randomness",
      "outputs": [
        {
          "internalType": "uint32",
          "name": "",
          "type": "uint32"
        }
      ],
      "stateMutability": "view",
      "type": "function"
    },
    {
      "inputs": [
        {
          "internalType": "string[]",
          "name": "uris",
          "type": "string[]"
        },
        {
          "internalType": "uint256[]",
          "name": "amounts",
          "type": "uint256[]"
        }
      ],
      "name": "registerItems",
      "outputs": [],
      "stateMutability": "nonpayable",
      "type": "function"
    },
    {
      "inputs": [],
      "name": "renounceOwnership",
      "outputs": [],
      "stateMutability": "nonpayable",
      "type": "function"
    },
    {
      "inputs": [
        {
          "internalType": "bytes32",
          "name": "role",
          "type": "bytes32"
        },
        {
          "internalType": "address",
          "name": "account",
          "type": "address"
        }
      ],
      "name": "renounceRole",
      "outputs": [],
      "stateMutability": "nonpayable",
      "type": "function"
    },
    {
      "inputs": [],
      "name": "requestRandomNumber",
      "outputs": [],
      "stateMutability": "payable",
      "type": "function"
    },
    {
      "inputs": [
        {
          "internalType": "bytes32",
          "name": "role",
          "type": "bytes32"
        },
        {
          "internalType": "address",
          "name": "account",
          "type": "address"
        }
      ],
      "name": "revokeRole",
      "outputs": [],
      "stateMutability": "nonpayable",
      "type": "function"
    },
    {
      "inputs": [
        {
          "internalType": "address",
          "name": "to",
          "type": "address"
        },
        {
          "internalType": "string[]",
          "name": "uris",
          "type": "string[]"
        }
      ],
      "name": "safeBatchMint",
      "outputs": [],
      "stateMutability": "view",
      "type": "function"
    },
    {
      "inputs": [
        {
          "internalType": "address",
          "name": "to",
          "type": "address"
        },
        {
          "internalType": "string",
          "name": "uri",
          "type": "string"
        },
        {
          "internalType": "uint256",
          "name": "amount",
          "type": "uint256"
        }
      ],
      "name": "safeBatchMintLight",
      "outputs": [],
      "stateMutability": "nonpayable",
      "type": "function"
    },
    {
      "inputs": [
        {
          "internalType": "address",
          "name": "to",
          "type": "address"
        },
        {
          "internalType": "string",
          "name": "uri",
          "type": "string"
        }
      ],
      "name": "safeMint",
      "outputs": [
        {
          "internalType": "uint256",
          "name": "",
          "type": "uint256"
        }
      ],
      "stateMutability": "view",
      "type": "function"
    },
    {
      "inputs": [
        {
          "internalType": "address",
          "name": "to",
          "type": "address"
        }
      ],
      "name": "safeMintTo",
      "outputs": [],
      "stateMutability": "nonpayable",
      "type": "function"
    },
    {
      "inputs": [
        {
          "internalType": "address",
          "name": "from",
          "type": "address"
        },
        {
          "internalType": "address",
          "name": "to",
          "type": "address"
        },
        {
          "internalType": "uint256",
          "name": "tokenId",
          "type": "uint256"
        }
      ],
      "name": "safeTransferFrom",
      "outputs": [],
      "stateMutability": "nonpayable",
      "type": "function"
    },
    {
      "inputs": [
        {
          "internalType": "address",
          "name": "from",
          "type": "address"
        },
        {
          "internalType": "address",
          "name": "to",
          "type": "address"
        },
        {
          "internalType": "uint256",
          "name": "tokenId",
          "type": "uint256"
        },
        {
          "internalType": "bytes",
          "name": "_data",
          "type": "bytes"
        }
      ],
      "name": "safeTransferFrom",
      "outputs": [],
      "stateMutability": "nonpayable",
      "type": "function"
    },
    {
      "inputs": [
        {
          "internalType": "address",
          "name": "operator",
          "type": "address"
        },
        {
          "internalType": "bool",
          "name": "approved",
          "type": "bool"
        }
      ],
      "name": "setApprovalForAll",
      "outputs": [],
      "stateMutability": "nonpayable",
      "type": "function"
    },
    {
      "inputs": [
        {
          "internalType": "address",
          "name": "_payment",
          "type": "address"
        },
        {
          "internalType": "address",
          "name": "_treasury",
          "type": "address"
        },
        {
          "internalType": "uint256",
          "name": "_feeRate",
          "type": "uint256"
        }
      ],
      "name": "setConfig",
      "outputs": [],
      "stateMutability": "nonpayable",
      "type": "function"
    },
    {
      "inputs": [
        {
          "internalType": "uint256",
          "name": "_hardCap",
          "type": "uint256"
        },
        {
          "internalType": "string",
          "name": "_uri",
          "type": "string"
        }
      ],
      "name": "setHardCap",
      "outputs": [],
      "stateMutability": "nonpayable",
      "type": "function"
    },
    {
      "inputs": [
        {
          "internalType": "uint256",
          "name": "_launch",
          "type": "uint256"
        }
      ],
      "name": "setLaunch",
      "outputs": [],
      "stateMutability": "nonpayable",
      "type": "function"
    },
    {
      "inputs": [
        {
          "internalType": "uint256",
          "name": "_lockup",
          "type": "uint256"
        }
      ],
      "name": "setLockup",
      "outputs": [],
      "stateMutability": "nonpayable",
      "type": "function"
    },
    {
      "inputs": [
        {
          "internalType": "address",
          "name": "_key",
          "type": "address"
        },
        {
          "internalType": "uint256",
          "name": "_price",
          "type": "uint256"
        }
      ],
      "name": "setMboxKey",
      "outputs": [],
      "stateMutability": "nonpayable",
      "type": "function"
    },
    {
      "inputs": [
        {
          "internalType": "address",
          "name": "_mbox",
          "type": "address"
        }
      ],
      "name": "setMysteryBox",
      "outputs": [],
      "stateMutability": "nonpayable",
      "type": "function"
    },
    {
      "inputs": [
        {
          "internalType": "address",
          "name": "_quote",
          "type": "address"
        }
      ],
      "name": "setQuote",
      "outputs": [],
      "stateMutability": "nonpayable",
      "type": "function"
    },
    {
      "inputs": [
        {
          "internalType": "address",
          "name": "_subscription",
          "type": "address"
        },
        {
          "internalType": "uint256",
          "name": "_type",
          "type": "uint256"
        },
        {
          "internalType": "uint256",
          "name": "_amount",
          "type": "uint256"
        }
      ],
      "name": "setSubscription",
      "outputs": [],
      "stateMutability": "nonpayable",
      "type": "function"
    },
    {
      "inputs": [
        {
          "internalType": "address",
          "name": "",
          "type": "address"
        }
      ],
      "name": "subAddrs",
      "outputs": [
        {
          "internalType": "uint256",
          "name": "",
          "type": "uint256"
        }
      ],
      "stateMutability": "view",
      "type": "function"
    },
    {
      "inputs": [
        {
          "internalType": "uint256",
          "name": "",
          "type": "uint256"
        }
      ],
      "name": "subInfos",
      "outputs": [
        {
          "internalType": "address",
          "name": "contractAddr",
          "type": "address"
        },
        {
          "internalType": "uint256",
          "name": "contractType",
          "type": "uint256"
        },
        {
          "internalType": "uint256",
          "name": "amount",
          "type": "uint256"
        },
        {
          "internalType": "uint256",
          "name": "start",
          "type": "uint256"
        },
        {
          "internalType": "uint256",
          "name": "end",
          "type": "uint256"
        },
        {
          "internalType": "uint256",
          "name": "count",
          "type": "uint256"
        }
      ],
      "stateMutability": "view",
      "type": "function"
    },
    {
      "inputs": [
        {
          "internalType": "bytes4",
          "name": "interfaceId",
          "type": "bytes4"
        }
      ],
      "name": "supportsInterface",
      "outputs": [
        {
          "internalType": "bool",
          "name": "",
          "type": "bool"
        }
      ],
      "stateMutability": "view",
      "type": "function"
    },
    {
      "inputs": [],
      "name": "symbol",
      "outputs": [
        {
          "internalType": "string",
          "name": "",
          "type": "string"
        }
      ],
      "stateMutability": "view",
      "type": "function"
    },
    {
      "inputs": [
        {
          "internalType": "uint256",
          "name": "index",
          "type": "uint256"
        }
      ],
      "name": "tokenByIndex",
      "outputs": [
        {
          "internalType": "uint256",
          "name": "",
          "type": "uint256"
        }
      ],
      "stateMutability": "view",
      "type": "function"
    },
    {
      "inputs": [
        {
          "internalType": "address",
          "name": "owner",
          "type": "address"
        },
        {
          "internalType": "uint256",
          "name": "index",
          "type": "uint256"
        }
      ],
      "name": "tokenOfOwnerByIndex",
      "outputs": [
        {
          "internalType": "uint256",
          "name": "",
          "type": "uint256"
        }
      ],
      "stateMutability": "view",
      "type": "function"
    },
    {
      "inputs": [
        {
          "internalType": "uint256",
          "name": "tokenId",
          "type": "uint256"
        }
      ],
      "name": "tokenURI",
      "outputs": [
        {
          "internalType": "string",
          "name": "",
          "type": "string"
        }
      ],
      "stateMutability": "view",
      "type": "function"
    },
    {
      "inputs": [],
      "name": "totalItems",
      "outputs": [
        {
          "internalType": "uint256",
          "name": "",
          "type": "uint256"
        }
      ],
      "stateMutability": "view",
      "type": "function"
    },
    {
      "inputs": [],
      "name": "totalSupply",
      "outputs": [
        {
          "internalType": "uint256",
          "name": "",
          "type": "uint256"
        }
      ],
      "stateMutability": "view",
      "type": "function"
    },
    {
      "inputs": [
        {
          "internalType": "address",
          "name": "from",
          "type": "address"
        },
        {
          "internalType": "address",
          "name": "to",
          "type": "address"
        },
        {
          "internalType": "uint256",
          "name": "tokenId",
          "type": "uint256"
        }
      ],
      "name": "transferFrom",
      "outputs": [],
      "stateMutability": "nonpayable",
      "type": "function"
    },
    {
      "inputs": [
        {
          "internalType": "address",
          "name": "newOwner",
          "type": "address"
        }
      ],
      "name": "transferOwnership",
      "outputs": [],
      "stateMutability": "nonpayable",
      "type": "function"
    },
    {
      "inputs": [],
      "name": "treasury",
      "outputs": [
        {
          "internalType": "address",
          "name": "",
          "type": "address"
        }
      ],
      "stateMutability": "view",
      "type": "function"
    },
    {
      "inputs": [],
      "name": "unpause",
      "outputs": [],
      "stateMutability": "nonpayable",
      "type": "function"
    },
    {
      "inputs": [],
      "name": "witnet",
      "outputs": [
        {
          "internalType": "contract IWitnetRandomness",
          "name": "",
          "type": "address"
        }
      ],
      "stateMutability": "view",
      "type": "function"
    },
    {
      "stateMutability": "payable",
      "type": "receive"
    }
  ],
  "bytecode": "0x60a06040526000600d819055601380546001600160a01b031916905560178190556032601c55601f8190556022805460ff1916905560248190556026553480156200004957600080fd5b50604051620063b2380380620063b28339810160408190526200006c91620009f4565b8787818181600090805190602001906200008892919062000815565b5080516200009e90600190602084019062000815565b5050600b805460ff1916905550620000b633620002d3565b620000c36000336200032d565b620000de60008051602062006372833981519152336200032d565b620000f960008051602062006392833981519152336200032d565b505060016011558151600414620001575760405162461bcd60e51b815260206004820152601a60248201527f696e76616c696420636f6e6669672064617461206c656e67746800000000000060448201526064015b60405180910390fd5b620001646000336200032d565b6200017f60008051602062006372833981519152336200032d565b6200019a60008051602062006392833981519152336200032d565b620001d482600081518110620001c057634e487b7160e01b600052603260045260246000fd5b6020026020010151620003d260201b60201c565b6200020e82600181518110620001fa57634e487b7160e01b600052603260045260246000fd5b60200260200101516200045f60201b60201c565b6200024986836002815181106200023557634e487b7160e01b600052603260045260246000fd5b6020026020010151620004e660201b60201c565b620002858484846003815181106200027157634e487b7160e01b600052603260045260246000fd5b6020026020010151620005f960201b60201c565b620002908562000775565b6001600160a01b038116620002b557634e487b7160e01b600052600160045260246000fd5b60601b6001600160601b0319166080525062000b6595505050505050565b600b80546001600160a01b03838116610100818102610100600160a81b031985161790945560405193909204169182907f8be0079c531659141344cd1fd0a4f28419497f9722a3daafe3b4186f6b6457e090600090a35050565b6000828152600c602090815260408083206001600160a01b038516845290915290205460ff16620003ce576000828152600c602090815260408083206001600160a01b03851684529091529020805460ff191660011790556200038d3390565b6001600160a01b0316816001600160a01b0316837f2f8788117e7eff1d82e926ec794901d17c78024a50270940304540a733656f0d60405160405180910390a45b5050565b600b546001600160a01b03610100909104163314620004235760405162461bcd60e51b815260206004820181905260248201526000805160206200635283398151915260448201526064016200014e565b60188190556040518181527f7c8826e4db3679f20c86da0c68d37f9dbcd1d638c56717e014f93c56d14c02d1906020015b60405180910390a150565b600b546001600160a01b03610100909104163314620004b05760405162461bcd60e51b815260206004820181905260248201526000805160206200635283398151915260448201526064016200014e565b60198190556040518181527fa7ade4ab976b6643a971383d9822fb7c2fce66aa2e497d88c3b4f1475ea2b2e09060200162000454565b600b546001600160a01b03610100909104163314620005375760405162461bcd60e51b815260206004820181905260248201526000805160206200635283398151915260448201526064016200014e565b6001600160a01b038216620005995760405162461bcd60e51b815260206004820152602160248201527f57726f6e67204d797374657279426f7820636f6e7472616374206164647265736044820152607360f81b60648201526084016200014e565b601280546001600160a01b0319166001600160a01b038416908117909155601482905560408051918252602082018390527fd46fcdc06972a446de426e47c59c6a0c4581b5c0116ac49a2efc3e7d23bdfe72910160405180910390a15050565b600b546001600160a01b036101009091041633146200064a5760405162461bcd60e51b815260206004820181905260248201526000805160206200635283398151915260448201526064016200014e565b6001600160a01b038316620006a25760405162461bcd60e51b815260206004820152601760248201527f696e76616c6964207061796d656e74206164647265737300000000000000000060448201526064016200014e565b6001600160a01b038216620006fa5760405162461bcd60e51b815260206004820152601860248201527f696e76616c69642074726561737572792061646472657373000000000000000060448201526064016200014e565b601a80546001600160a01b038581166001600160a01b03199283168117909355601b8054918616919092168117909155601c83905560408051928352602083019190915281018290527fe2be3027f197494650b7a98fd1cae67dacf615bd1d8bb05102999676f11638669060600160405180910390a1505050565b600b546001600160a01b03610100909104163314620007c65760405162461bcd60e51b815260206004820181905260248201526000805160206200635283398151915260448201526064016200014e565b601380546001600160a01b0319166001600160a01b0383169081179091556040519081527fca92c759228172fe3894a344908fd20dfd37ba561b5af191f1f5b02ee03881fc9060200162000454565b828054620008239062000b12565b90600052602060002090601f01602090048101928262000847576000855562000892565b82601f106200086257805160ff191683800117855562000892565b8280016001018555821562000892579182015b828111156200089257825182559160200191906001019062000875565b50620008a0929150620008a4565b5090565b5b80821115620008a05760008155600101620008a5565b80516001600160a01b0381168114620008d357600080fd5b919050565b600082601f830112620008e9578081fd5b815160206001600160401b0382111562000907576200090762000b4f565b8160051b6200091882820162000adf565b83815282810190868401838801850189101562000933578687fd5b8693505b858410156200095757805183526001939093019291840191840162000937565b50979650505050505050565b600082601f83011262000974578081fd5b81516001600160401b0381111562000990576200099062000b4f565b6020620009a6601f8301601f1916820162000adf565b8281528582848701011115620009ba578384fd5b835b83811015620009d9578581018301518282018401528201620009bc565b83811115620009ea57848385840101525b5095945050505050565b600080600080600080600080610100898b03121562000a11578384fd5b88516001600160401b038082111562000a28578586fd5b62000a368c838d0162000963565b995060208b015191508082111562000a4c578586fd5b62000a5a8c838d0162000963565b985062000a6a60408c01620008bb565b975062000a7a60608c01620008bb565b965062000a8a60808c01620008bb565b955062000a9a60a08c01620008bb565b945060c08b015191508082111562000ab0578384fd5b5062000abf8b828c01620008d8565b92505062000ad060e08a01620008bb565b90509295985092959890939650565b604051601f8201601f191681016001600160401b038111828210171562000b0a5762000b0a62000b4f565b604052919050565b600181811c9082168062000b2757607f821691505b6020821081141562000b4957634e487b7160e01b600052602260045260246000fd5b50919050565b634e487b7160e01b600052604160045260246000fd5b60805160601c6157b962000b996000396000818161088c015281816123940152818161276a0152613ae901526157b96000f3fe60806040526004361061044b5760003560e01c80636ae6b45911610234578063a22cb4651161012e578063c87b56dd116100b6578063e63ab1e91161007a578063e63ab1e914610e30578063e985e9c514610e52578063f2fde38b14610e9b578063fb86a40414610ebb578063fcd1ee1014610ed157600080fd5b8063c87b56dd14610d99578063d204c45e14610db9578063d3d3224a14610dd9578063d539139314610dee578063d547741f14610e1057600080fd5b8063b1fa4176116100fd578063b1fa417614610d03578063b5a87cc114610d19578063b88d4fde14610d39578063bfb231d214610d59578063c38b761c14610d7957600080fd5b8063a22cb46514610c83578063a2aa61eb14610ca3578063a60ee26814610cc3578063aad3ec9614610ce357600080fd5b80638a55b866116101bc578063978bbdb911610180578063978bbdb914610c02578063983b2d5614610c18578063999b93af14610c38578063a035b1fe14610c58578063a217fddf14610c6e57600080fd5b80638a55b86614610b6a5780638da5cb5b14610b8a578063902835f614610bad57806391d1485414610bcd57806395d89b4114610bed57600080fd5b80637b43b827116102035780637b43b82714610aed5780637e9598ae14610b0d57806382dc1ec414610b2d5780638456cb5914610b4d5780638678a7b214610b6257600080fd5b80636ae6b459146109db57806370a08231146109fb578063715018a614610a1b578063786e435c14610a3057600080fd5b806338e2d924116103455780634f6ccce7116102cd5780635d1d37c3116102915780635d1d37c3146109465780635d814dea146109665780635dce73831461098657806361d027b31461099b5780636352211e146109bb57600080fd5b80634f6ccce7146108ae578063557dee1f146108ce57806355d69962146108e157806358dd6d951461090e5780635c975abb1461092e57600080fd5b80633f4ba83a116103145780633f4ba83a1461080557806342842e0e1461081a57806342966c681461083a57806342f6487a1461085a57806346d1d21a1461087a57600080fd5b806338e2d924146107145780633943380c1461073457806339eff2be146107545780633a1395de146107e557600080fd5b8063230a67ee116103d35780632f2ff15d116103975780632f2ff15d146106625780632f745c5914610682578063347eb9e1146106a257806336013189146106c257806336568abe146106f457600080fd5b8063230a67ee146105bc57806323b872dd146105dc57806324490659146105fc578063248a9ca31461061c5780632799276d1461064c57600080fd5b8063081812fc1161041a578063081812fc146104e8578063095ea7b314610520578063150b7a021461054257806318160ddd1461058757806321bae9e41461059c57600080fd5b806301339c211461045757806301ffc9a71461048057806306490f47146104b057806306fdde03146104c657600080fd5b3661045257005b600080fd5b34801561046357600080fd5b5061046d60185481565b6040519081526020015b60405180910390f35b34801561048c57600080fd5b506104a061049b366004615208565b610ef1565b6040519015158152602001610477565b3480156104bc57600080fd5b5061046d60195481565b3480156104d257600080fd5b506104db610f1c565b60405161047791906153f4565b3480156104f457600080fd5b506105086105033660046151ce565b610fae565b6040516001600160a01b039091168152602001610477565b34801561052c57600080fd5b5061054061053b36600461509c565b61103b565b005b34801561054e57600080fd5b5061056e61055d366004614e79565b630a85bd0160e11b95945050505050565b6040516001600160e01b03199091168152602001610477565b34801561059357600080fd5b5060085461046d565b3480156105a857600080fd5b506105406105b7366004614df2565b611151565b3480156105c857600080fd5b506105406105d73660046150f7565b61129e565b3480156105e857600080fd5b506105406105f7366004614e3e565b6113e9565b34801561060857600080fd5b50610540610617366004615258565b61141b565b34801561062857600080fd5b5061046d6106373660046151ce565b6000908152600c602052604090206001015490565b34801561065857600080fd5b5061046d60175481565b34801561066e57600080fd5b5061054061067d3660046151e6565b6114a3565b34801561068e57600080fd5b5061046d61069d36600461509c565b6114c8565b3480156106ae57600080fd5b506105406106bd3660046151e6565b61155e565b3480156106ce57600080fd5b50601d546106df9063ffffffff1681565b60405163ffffffff9091168152602001610477565b34801561070057600080fd5b5061054061070f3660046151e6565b61161a565b34801561072057600080fd5b5061054061072f366004615286565b611698565b34801561074057600080fd5b50601254610508906001600160a01b031681565b34801561076057600080fd5b506107ae61076f3660046151ce565b6023602052600090815260409020805460018201546002830154600384015460048501546005909501546001600160a01b039094169492939192909186565b604080516001600160a01b0390971687526020870195909552938501929092526060840152608083015260a082015260c001610477565b3480156107f157600080fd5b506105406108003660046150c5565b6118eb565b34801561081157600080fd5b50610540611aac565b34801561082657600080fd5b50610540610835366004614e3e565b611acf565b34801561084657600080fd5b506105406108553660046151ce565b611aea565b34801561086657600080fd5b50601a54610508906001600160a01b031681565b34801561088657600080fd5b506105087f000000000000000000000000000000000000000000000000000000000000000081565b3480156108ba57600080fd5b5061046d6108c93660046151ce565b611b61565b6105406108dc3660046151ce565b611c02565b3480156108ed57600080fd5b5061046d6108fc366004614df2565b60256020526000908152604090205481565b34801561091a57600080fd5b50610540610929366004614f86565b611dd1565b34801561093a57600080fd5b50600b5460ff166104a0565b34801561095257600080fd5b506105406109613660046151ce565b611e1c565b34801561097257600080fd5b506104db6109813660046151ce565b611e88565b34801561099257600080fd5b5061046d611f34565b3480156109a757600080fd5b50601b54610508906001600160a01b031681565b3480156109c757600080fd5b506105086109d63660046151ce565b611f9b565b3480156109e757600080fd5b506105406109f63660046151ce565b612012565b348015610a0757600080fd5b5061046d610a16366004614df2565b612077565b348015610a2757600080fd5b506105406120fe565b348015610a3c57600080fd5b50610ac8610a4b366004614df2565b6001600160a01b0390811660009081526025602090815260408083205483526023825291829020825160c08101845281548516815260018201549281019290925260028101549282019290925260038201546060820181905260048301546080830181905260059093015460a09092019190915260125490921692565b604080516001600160a01b039094168452602084019290925290820152606001610477565b348015610af957600080fd5b50610540610b08366004614df2565b61213a565b348015610b1957600080fd5b50610540610b2836600461509c565b6121da565b348015610b3957600080fd5b50610540610b48366004614df2565b6122c3565b348015610b5957600080fd5b50610540612369565b610540612389565b348015610b7657600080fd5b5061046d610b853660046151ce565b612466565b348015610b9657600080fd5b50600b5461010090046001600160a01b0316610508565b348015610bb957600080fd5b50610540610bc8366004614e3e565b612487565b348015610bd957600080fd5b506104a0610be83660046151e6565b6125de565b348015610bf957600080fd5b506104db612609565b348015610c0e57600080fd5b5061046d601c5481565b348015610c2457600080fd5b50610540610c33366004614df2565b612618565b348015610c4457600080fd5b50601354610508906001600160a01b031681565b348015610c6457600080fd5b5061046d60145481565b348015610c7a57600080fd5b5061046d600081565b348015610c8f57600080fd5b50610540610c9e366004614fd1565b6126be565b348015610caf57600080fd5b50610540610cbe366004614df2565b6126c9565b348015610ccf57600080fd5b5061046d610cde3660046151ce565b612747565b348015610cef57600080fd5b50610540610cfe36600461509c565b6127eb565b348015610d0f57600080fd5b5061046d601e5481565b348015610d2557600080fd5b50610540610d34366004615048565b612bd2565b348015610d4557600080fd5b50610540610d54366004614f0e565b612c64565b348015610d6557600080fd5b5061046d610d743660046151ce565b612c96565b348015610d8557600080fd5b50600f54610508906001600160a01b031681565b348015610da557600080fd5b506104db610db43660046151ce565b612ca6565b348015610dc557600080fd5b5061046d610dd4366004615007565b612cb1565b348015610de557600080fd5b506104db612ccb565b348015610dfa57600080fd5b5061046d60008051602061576483398151915281565b348015610e1c57600080fd5b50610540610e2b3660046151e6565b612cd8565b348015610e3c57600080fd5b5061046d60008051602061574483398151915281565b348015610e5e57600080fd5b506104a0610e6d366004614e0c565b6001600160a01b03918216600090815260056020908152604080832093909416825291909152205460ff1690565b348015610ea757600080fd5b50610540610eb6366004614df2565b612cfd565b348015610ec757600080fd5b5061046d600d5481565b348015610edd57600080fd5b50610540610eec36600461509c565b612d9b565b60006001600160e01b031982166380ac58cd60e01b1480610f165750610f168261311d565b92915050565b606060008054610f2b90615679565b80601f0160208091040260200160405190810160405280929190818152602001828054610f5790615679565b8015610fa45780601f10610f7957610100808354040283529160200191610fa4565b820191906000526020600020905b815481529060010190602001808311610f8757829003601f168201915b5050505050905090565b6000610fb982613142565b61101f5760405162461bcd60e51b815260206004820152602c60248201527f4552433732313a20617070726f76656420717565727920666f72206e6f6e657860448201526b34b9ba32b73a103a37b5b2b760a11b60648201526084015b60405180910390fd5b506000908152600460205260409020546001600160a01b031690565b600061104682611f9b565b9050806001600160a01b0316836001600160a01b031614156110b45760405162461bcd60e51b815260206004820152602160248201527f4552433732313a20617070726f76616c20746f2063757272656e74206f776e656044820152603960f91b6064820152608401611016565b336001600160a01b03821614806110d057506110d08133610e6d565b6111425760405162461bcd60e51b815260206004820152603860248201527f4552433732313a20617070726f76652063616c6c6572206973206e6f74206f7760448201527f6e6572206e6f7220617070726f76656420666f7220616c6c00000000000000006064820152608401611016565b61114c838361315f565b505050565b600080516020615764833981519152611169816131cd565b6000600e805461117890615679565b9050116111bf5760405162461bcd60e51b815260206004820152601560248201527411db1bd8985b08155492481a5cc81b9bdd081cd95d605a1b6044820152606401611016565b6001600160a01b03821661120a5760405162461bcd60e51b8152602060048201526012602482015271496e76616c696420746f206164647265737360701b6044820152606401611016565b61114c82600e805461121b90615679565b80601f016020809104026020016040519081016040528092919081815260200182805461124790615679565b80156112945780601f1061126957610100808354040283529160200191611294565b820191906000526020600020905b81548152906001019060200180831161127757829003601f168201915b5050505050612cb1565b6000805160206157648339815191526112b6816131cd565b60225460ff16156113095760405162461bcd60e51b815260206004820152601860248201527f4974656d7320616c7265616479207265676973746572656400000000000000006044820152606401611016565b81518351146113525760405162461bcd60e51b8152602060048201526015602482015274082e4e4c2f240d8cadccee8d040dad2e6dac2e8c6d605b1b6044820152606401611016565b8151611365906021906020850190614b50565b5082516113789060209081860190614b9b565b5060005b83518110156113d6576113c18382815181106113a857634e487b7160e01b600052603260045260246000fd5b60200260200101516017546131d790919063ffffffff16565b601755806113ce816156ae565b91505061137c565b50506022805460ff191660011790555050565b6113f4335b826131e3565b6114105760405162461bcd60e51b815260040161101690615530565b61114c8383836132cd565b600b546001600160a01b0361010090910416331461144b5760405162461bcd60e51b815260040161101690615483565b600d829055805161146390600e906020840190614bf4565b507f57bbf0b7295e3c8587fe0fa3c76592771f6a96123bf723292fd0e3933436b71f600d5460405161149791815260200190565b60405180910390a15050565b6000828152600c60205260409020600101546114be816131cd565b61114c8383613474565b60006114d383612077565b82106115355760405162461bcd60e51b815260206004820152602b60248201527f455243373231456e756d657261626c653a206f776e657220696e646578206f7560448201526a74206f6620626f756e647360a81b6064820152608401611016565b506001600160a01b03919091166000908152600660209081526040808320938352929052205490565b600080516020615764833981519152611576816131cd565b60185442116115975760405162461bcd60e51b8152600401611016906154f9565b60005b838110156116145760125460405163086eba7960e21b81526001600160a01b038581166004830152909116906321bae9e490602401600060405180830381600087803b1580156115e957600080fd5b505af11580156115fd573d6000803e3d6000fd5b50505050808061160c906156ae565b91505061159a565b50505050565b6001600160a01b038116331461168a5760405162461bcd60e51b815260206004820152602f60248201527f416363657373436f6e74726f6c3a2063616e206f6e6c792072656e6f756e636560448201526e103937b632b9903337b91039b2b63360891b6064820152608401611016565b61169482826134fa565b5050565b6013546001600160a01b03166116e45760405162461bcd60e51b81526020600482015260116024820152702bb937b7339038bab7ba32903a37b5b2b760791b6044820152606401611016565b60185442116117055760405162461bcd60e51b8152600401611016906154f9565b600082116117255760405162461bcd60e51b8152600401611016906154b8565b601454611733908290613561565b82146117815760405162461bcd60e51b815260206004820152601d60248201527f76616c756520616e6420616d6f756e74206973206e6f74206d617463680000006044820152606401611016565b6013546040516370a0823160e01b81523360048201526000916001600160a01b0316906370a082319060240160206040518083038186803b1580156117c557600080fd5b505afa1580156117d9573d6000803e3d6000fd5b505050506040513d601f19601f820116820180604052508101906117fd9190615240565b905082811161184e5760405162461bcd60e51b815260206004820152601b60248201527f6c61636b206f662071756f746520746f6b656e2062616c616e636500000000006044820152606401611016565b601354611866906001600160a01b031633308661356d565b60005b828110156118e15760125460405163086eba7960e21b81523360048201526001600160a01b03909116906321bae9e490602401600060405180830381600087803b1580156118b657600080fd5b505af11580156118ca573d6000803e3d6000fd5b5050505080806118d9906156ae565b915050611869565b5061114c826136ab565b600b546001600160a01b0361010090910416331461191b5760405162461bcd60e51b815260040161101690615483565b6001600160a01b03831661197d5760405162461bcd60e51b815260206004820152602360248201527f57726f6e6720537562736372697074696f6e20636f6e7472616374206164647260448201526265737360e81b6064820152608401611016565b6024546001600160a01b0384166000908152602560205260408120919091556026546119b6906001906119b090856131d7565b90613872565b6040805160c0810182526001600160a01b03878116825260208083018881528385018881526026546060860190815260808601888152600060a088018181526024805483526023909752988120975188546001600160a01b0319169716969096178755925160018701559051600286015551600385015551600484015592516005909201919091558154929350611a4c836156ae565b9091555050602654611a5e90836131d7565b602655611a6a84612618565b6040516001600160a01b03851681527f17c74683f7319a4225517b5017988f05364289712fe6386d78e265035a7872259060200160405180910390a150505050565b600080516020615744833981519152611ac4816131cd565b611acc61387e565b50565b61114c83838360405180602001604052806000815250612c64565b611af3336113ee565b611b585760405162461bcd60e51b815260206004820152603060248201527f4552433732314275726e61626c653a2063616c6c6572206973206e6f74206f7760448201526f1b995c881b9bdc88185c1c1c9bdd995960821b6064820152608401611016565b611acc81613911565b6000611b6c60085490565b8210611bcf5760405162461bcd60e51b815260206004820152602c60248201527f455243373231456e756d657261626c653a20676c6f62616c20696e646578206f60448201526b7574206f6620626f756e647360a01b6064820152608401611016565b60088281548110611bf057634e487b7160e01b600052603260045260246000fd5b90600052602060002001549050919050565b6013546001600160a01b031615611c4f5760405162461bcd60e51b81526020600482015260116024820152702bb937b7339038bab7ba32903a37b5b2b760791b6044820152606401611016565b6018544211611c705760405162461bcd60e51b8152600401611016906154f9565b60003411611c905760405162461bcd60e51b8152600401611016906154b8565b601454611c9e908290613561565b3414611cec5760405162461bcd60e51b815260206004820152601d60248201527f76616c756520616e6420616d6f756e74206973206e6f74206d617463680000006044820152606401611016565b6012546001600160a01b031615801590611d065750602454155b611d4c5760405162461bcd60e51b81526020600482015260176024820152761ad95e4818dbdb9d1c9858dd081a5cc81b9bdd081cd95d604a1b6044820152606401611016565b60005b81811015611dc75760125460405163086eba7960e21b81523360048201526001600160a01b03909116906321bae9e490602401600060405180830381600087803b158015611d9c57600080fd5b505af1158015611db0573d6000803e3d6000fd5b505050508080611dbf906156ae565b915050611d4f565b50611acc816136ab565b600080516020615764833981519152611de9816131cd565b60405162461bcd60e51b8152602060048201526008602482015267111a5cd8589b195960c21b6044820152606401611016565b600b546001600160a01b03610100909104163314611e4c5760405162461bcd60e51b815260040161101690615483565b60188190556040518181527f7c8826e4db3679f20c86da0c68d37f9dbcd1d638c56717e014f93c56d14c02d1906020015b60405180910390a150565b60208181548110611e9857600080fd5b906000526020600020016000915090508054611eb390615679565b80601f0160208091040260200160405190810160405280929190818152602001828054611edf90615679565b8015611f2c5780601f10611f0157610100808354040283529160200191611f2c565b820191906000526020600020905b815481529060010190602001808311611f0f57829003601f168201915b505050505081565b600080805b602154811015611f9557611f8160218281548110611f6757634e487b7160e01b600052603260045260246000fd5b9060005260206000200154836131d790919063ffffffff16565b915080611f8d816156ae565b915050611f39565b50919050565b6000818152600260205260408120546001600160a01b031680610f165760405162461bcd60e51b815260206004820152602960248201527f4552433732313a206f776e657220717565727920666f72206e6f6e657869737460448201526832b73a103a37b5b2b760b91b6064820152608401611016565b600b546001600160a01b036101009091041633146120425760405162461bcd60e51b815260040161101690615483565b60198190556040518181527fa7ade4ab976b6643a971383d9822fb7c2fce66aa2e497d88c3b4f1475ea2b2e090602001611e7d565b60006001600160a01b0382166120e25760405162461bcd60e51b815260206004820152602a60248201527f4552433732313a2062616c616e636520717565727920666f7220746865207a65604482015269726f206164647265737360b01b6064820152608401611016565b506001600160a01b031660009081526003602052604090205490565b600b546001600160a01b0361010090910416331461212e5760405162461bcd60e51b815260040161101690615483565b612138600061391a565b565b600b546001600160a01b0361010090910416331461216a5760405162461bcd60e51b815260040161101690615483565b600f80546001600160a01b0319166001600160a01b03831617905561219d60008051602061576483398151915282613474565b600f546040516001600160a01b0390911681527f329b1203fc60a62c4a0fd3ff1554a07f92a2f117cc590422dd105811bb484ded90602001611e7d565b600b546001600160a01b0361010090910416331461220a5760405162461bcd60e51b815260040161101690615483565b6001600160a01b03821661226a5760405162461bcd60e51b815260206004820152602160248201527f57726f6e67204d797374657279426f7820636f6e7472616374206164647265736044820152607360f81b6064820152608401611016565b601280546001600160a01b0319166001600160a01b038416908117909155601482905560408051918252602082018390527fd46fcdc06972a446de426e47c59c6a0c4581b5c0116ac49a2efc3e7d23bdfe729101611497565b600b546001600160a01b036101009091041633146122f35760405162461bcd60e51b815260040161101690615483565b61230b60008051602061574483398151915282613474565b604080516001600160a01b038316815260208101829052600b918101919091526a5041555345525f524f4c4560a81b60608201527f0578acc86b18d67c13a5e6eed8c670fb7052f530b48a2acb167d6ca77509a38490608001611e7d565b600080516020615744833981519152612381816131cd565b611acc613974565b43601e8190555060007f00000000000000000000000000000000000000000000000000000000000000006001600160a01b031663699b328a346040518263ffffffff1660e01b81526004016020604051808303818588803b1580156123ed57600080fd5b505af1158015612401573d6000803e3d6000fd5b50505050506040513d601f19601f820116820180604052508101906124269190615240565b905034811015611acc57336108fc61243e833461561f565b6040518115909202916000818181858888f19350505050158015611694573d6000803e3d6000fd5b6021818154811061247657600080fd5b600091825260209091200154905081565b600b546001600160a01b036101009091041633146124b75760405162461bcd60e51b815260040161101690615483565b6001600160a01b03831661250d5760405162461bcd60e51b815260206004820152601760248201527f696e76616c6964207061796d656e7420616464726573730000000000000000006044820152606401611016565b6001600160a01b0382166125635760405162461bcd60e51b815260206004820152601860248201527f696e76616c6964207472656173757279206164647265737300000000000000006044820152606401611016565b601a80546001600160a01b038581166001600160a01b03199283168117909355601b8054918616919092168117909155601c83905560408051928352602083019190915281018290527fe2be3027f197494650b7a98fd1cae67dacf615bd1d8bb05102999676f11638669060600160405180910390a1505050565b6000918252600c602090815260408084206001600160a01b0393909316845291905290205460ff1690565b606060018054610f2b90615679565b600b546001600160a01b036101009091041633146126485760405162461bcd60e51b815260040161101690615483565b61266060008051602061576483398151915282613474565b604080516001600160a01b038316815260208101829052600b918101919091526a4d494e5445525f524f4c4560a81b60608201527f0578acc86b18d67c13a5e6eed8c670fb7052f530b48a2acb167d6ca77509a38490608001611e7d565b6116943383836139cc565b600b546001600160a01b036101009091041633146126f95760405162461bcd60e51b815260040161101690615483565b601380546001600160a01b0319166001600160a01b0383169081179091556040519081527fca92c759228172fe3894a344908fd20dfd37ba561b5af191f1f5b02ee03881fc90602001611e7d565b6040516314c1dc4d60e31b81526004810182905260009081906001600160a01b037f0000000000000000000000000000000000000000000000000000000000000000169063a60ee2689060240160206040518083038186803b1580156127ac57600080fd5b505afa1580156127c0573d6000803e3d6000fd5b505050506040513d601f19601f820116820180604052508101906127e49190615240565b9392505050565b600b5460ff161561280e5760405162461bcd60e51b815260040161101690615459565b600260115414156128615760405162461bcd60e51b815260206004820152601f60248201527f5265656e7472616e637947756172643a207265656e7472616e742063616c6c006044820152606401611016565b60026011556012546001600160a01b03166128b55760405162461bcd60e51b81526020600482015260146024820152731ad95e4818dbdb9d1c9858dd081b9bdd081cd95d60621b6044820152606401611016565b6001600160a01b0382166129015760405162461bcd60e51b815260206004820152601360248201527257726f6e6720636c61696d206164647265737360681b6044820152606401611016565b60195442116129525760405162461bcd60e51b815260206004820152601b60248201527f4e6f74207965742072657665616c2074696d65207265616368656400000000006044820152606401611016565b6012546040516370a0823160e01b81523360048201526000916001600160a01b0316906370a082319060240160206040518083038186803b15801561299657600080fd5b505afa1580156129aa573d6000803e3d6000fd5b505050506040513d601f19601f820116820180604052508101906129ce9190615240565b905060008111612a3c5760405162461bcd60e51b815260206004820152603360248201527f4f6e6c79206f776e657273206f66204d797374657279426f782063616e20636c60448201527261696d20756e626f786564206974656d28732960681b6064820152608401611016565b808211158015612a4c5750600082115b612a8f5760405162461bcd60e51b81526020600482015260146024820152731a5b9d985b1a590818db185a5b48185b5bdd5b9d60621b6044820152606401611016565b60005b82811015612bc757601254604051632f745c5960e01b8152336004820152600060248201819052916001600160a01b031690632f745c599060440160206040518083038186803b158015612ae557600080fd5b505afa158015612af9573d6000803e3d6000fd5b505050506040513d601f19601f82011682018060405250810190612b1d9190615240565b601254604051632142170760e11b815233600482015261dead6024820152604481018390529192506001600160a01b0316906342842e0e90606401600060405180830381600087803b158015612b7257600080fd5b505af1158015612b86573d6000803e3d6000fd5b50505050612b95601754613a9b565b601d54612bb2908690612bad9063ffffffff16613b9d565b613d36565b50508080612bbf906156ae565b915050612a92565b505060016011555050565b600080516020615764833981519152612bea816131cd565b6001600160a01b038416612c355760405162461bcd60e51b8152602060048201526012602482015271496e76616c696420746f206164647265737360701b6044820152606401611016565b60005b82811015612c5d57612c4a8585612cb1565b5080612c55816156ae565b915050612c38565b5050505050565b612c6e33836131e3565b612c8a5760405162461bcd60e51b815260040161101690615530565b61161484848484613d43565b6016818154811061247657600080fd5b6060610f1682613d76565b6000600080516020615764833981519152611de9816131cd565b600e8054611eb390615679565b6000828152600c6020526040902060010154612cf3816131cd565b61114c83836134fa565b600b546001600160a01b03610100909104163314612d2d5760405162461bcd60e51b815260040161101690615483565b6001600160a01b038116612d925760405162461bcd60e51b815260206004820152602660248201527f4f776e61626c653a206e6577206f776e657220697320746865207a65726f206160448201526564647265737360d01b6064820152608401611016565b611acc8161391a565b600b5460ff1615612dbe5760405162461bcd60e51b815260040161101690615459565b600060245411612e105760405162461bcd60e51b815260206004820152601d60248201527f4e6f20737562736372697074696f6e20636f6e747261637473207365740000006044820152606401611016565b33600081815260256020908152604080832054835260239091529020546001600160a01b031614612e995760405162461bcd60e51b815260206004820152602d60248201527f4f6e6c7920737562736372697074696f6e20636f6e74726163742063616e206360448201526c616c6c20636c61696d4b65797360981b6064820152608401611016565b60026011541415612eec5760405162461bcd60e51b815260206004820152601f60248201527f5265656e7472616e637947756172643a207265656e7472616e742063616c6c006044820152606401611016565b60026011556012546001600160a01b0316612f405760405162461bcd60e51b81526020600482015260146024820152731ad95e4818dbdb9d1c9858dd081b9bdd081cd95d60621b6044820152606401611016565b6001600160a01b038216612f8c5760405162461bcd60e51b815260206004820152601360248201527257726f6e6720636c61696d206164647265737360681b6044820152606401611016565b60008111612fdc5760405162461bcd60e51b815260206004820152601a60248201527f696e76616c696420746f6b656e49647320666f7220636c61696d0000000000006044820152606401611016565b3360009081526025602052604081205490805b838110156131115760008381526023602052604090206005810154600390910154613019916131d7565b60008481526023602052604090206004015490925082111561307d5760405162461bcd60e51b815260206004820152601760248201527f636c61696d20746f6b656e204964206f766572666c6f770000000000000000006044820152606401611016565b600083815260236020526040812060050180549161309a836156ae565b909155505060125460405163086eba7960e21b81526001600160a01b038781166004830152909116906321bae9e490602401600060405180830381600087803b1580156130e657600080fd5b505af11580156130fa573d6000803e3d6000fd5b505050508080613109906156ae565b915050612fef565b50506001601155505050565b60006001600160e01b03198216637965db0b60e01b1480610f165750610f1682613ee5565b6000908152600260205260409020546001600160a01b0316151590565b600081815260046020526040902080546001600160a01b0319166001600160a01b038416908117909155819061319482611f9b565b6001600160a01b03167f8c5be1e5ebec7d5bd14f71427d1e84f3dd0314c0f7b2291e5b200ac8c7c3b92560405160405180910390a45050565b611acc8133613f0a565b60006127e482846155d4565b60006131ee82613142565b61324f5760405162461bcd60e51b815260206004820152602c60248201527f4552433732313a206f70657261746f7220717565727920666f72206e6f6e657860448201526b34b9ba32b73a103a37b5b2b760a11b6064820152608401611016565b600061325a83611f9b565b9050806001600160a01b0316846001600160a01b031614806132a157506001600160a01b0380821660009081526005602090815260408083209388168352929052205460ff165b806132c55750836001600160a01b03166132ba84610fae565b6001600160a01b0316145b949350505050565b826001600160a01b03166132e082611f9b565b6001600160a01b0316146133445760405162461bcd60e51b815260206004820152602560248201527f4552433732313a207472616e736665722066726f6d20696e636f72726563742060448201526437bbb732b960d91b6064820152608401611016565b6001600160a01b0382166133a65760405162461bcd60e51b8152602060048201526024808201527f4552433732313a207472616e7366657220746f20746865207a65726f206164646044820152637265737360e01b6064820152608401611016565b6133b1838383613f6e565b6133bc60008261315f565b6001600160a01b03831660009081526003602052604081208054600192906133e590849061561f565b90915550506001600160a01b03821660009081526003602052604081208054600192906134139084906155d4565b909155505060008181526002602052604080822080546001600160a01b0319166001600160a01b0386811691821790925591518493918716917fddf252ad1be2c89b69c2b068fc378daa952ba7f163c4a11628f55a4df523b3ef91a4505050565b61347e82826125de565b611694576000828152600c602090815260408083206001600160a01b03851684529091529020805460ff191660011790556134b63390565b6001600160a01b0316816001600160a01b0316837f2f8788117e7eff1d82e926ec794901d17c78024a50270940304540a733656f0d60405160405180910390a45050565b61350482826125de565b15611694576000828152600c602090815260408083206001600160a01b0385168085529252808320805460ff1916905551339285917ff6391f5c32d9c69d2a47ea670b442974b53935d1edc7fd64eb21e047a839171b9190a45050565b60006127e48284615600565b604080516001600160a01b0385811660248301528481166044830152606480830185905283518084039091018152608490920183526020820180516001600160e01b03166323b872dd60e01b17905291516000928392908816916135d191906152f7565b6000604051808303816000865af19150503d806000811461360e576040519150601f19603f3d011682016040523d82523d6000602084013e613613565b606091505b509150915081801561363d57508051158061363d57508080602001905181019061363d91906151b2565b6136a35760405162461bcd60e51b815260206004820152603160248201527f5472616e7366657248656c7065723a3a7472616e7366657246726f6d3a207472604482015270185b9cd9995c919c9bdb4819985a5b1959607a1b6064820152608401611016565b505050505050565b6012546001600160a01b03166136fd5760405162461bcd60e51b81526020600482015260176024820152761ad95e4818dbdb9d1c9858dd081a5cc81b9bdd081cd95d604a1b6044820152606401611016565b6024541561374d5760405162461bcd60e51b815260206004820152601e60248201527f6d797374657279626f7820696e76616c6964206d6574686f642063616c6c00006044820152606401611016565b601a546001600160a01b03166137a55760405162461bcd60e51b815260206004820152601a60248201527f7061796d656e742061646472657373206973206e6f74207365740000000000006044820152606401611016565b60006137bc6014548361356190919063ffffffff16565b905060006137e16103e86137db601c548561356190919063ffffffff16565b90613f9c565b905060006137ef8383613872565b6013549091506001600160a01b03161561384657601354601b54613822916001600160a01b03908116913091168561356d565b601354601a54613841916001600160a01b03908116913091168461356d565b611614565b601b5461385c906001600160a01b031683613fa8565b601a54611614906001600160a01b031682613fa8565b60006127e4828461561f565b600b5460ff166138c75760405162461bcd60e51b815260206004820152601460248201527314185d5cd8589b194e881b9bdd081c185d5cd95960621b6044820152606401611016565b600b805460ff191690557f5db9ee0a495bf2e6ff9c91a7834c1ba4fdd244a5e8aa4e537bd38aeae4b073aa335b6040516001600160a01b03909116815260200160405180910390a1565b611acc81614082565b600b80546001600160a01b03838116610100818102610100600160a81b031985161790945560405193909204169182907f8be0079c531659141344cd1fd0a4f28419497f9722a3daafe3b4186f6b6457e090600090a35050565b600b5460ff16156139975760405162461bcd60e51b815260040161101690615459565b600b805460ff191660011790557f62e78cea01bee320cd4e420270b5ea74000d11b0c9f74754ebdbfc544b05a2586138f43390565b816001600160a01b0316836001600160a01b03161415613a2e5760405162461bcd60e51b815260206004820152601960248201527f4552433732313a20617070726f766520746f2063616c6c6572000000000000006044820152606401611016565b6001600160a01b03838116600081815260056020908152604080832094871680845294825291829020805460ff191686151590811790915591519182527f17307eab39ab6107e8899845ad3d59bd9653f200f220920489ca2b5937696c31910160405180910390a3505050565b6000601e5411613abb57634e487b7160e01b600052600160045260246000fd5b601f54601e546040516324cbbfc160e01b815263ffffffff84166004820152602481019290925260448201527f00000000000000000000000000000000000000000000000000000000000000006001600160a01b0316906324cbbfc19060640160206040518083038186803b158015613b3357600080fd5b505afa158015613b47573d6000803e3d6000fd5b505050506040513d601f19601f82011682018060405250810190613b6b91906152a7565b601d805463ffffffff191663ffffffff92909216919091179055601f8054906000613b95836156ae565b919050555050565b6060600080805b602054811015613bf657613bd260218281548110611f6757634e487b7160e01b600052603260045260246000fd5b915081851015613be457809250613bf6565b80613bee816156ae565b915050613ba4565b50601754613c05906001613872565b601781905550613c4a600160218481548110613c3157634e487b7160e01b600052603260045260246000fd5b906000526020600020015461387290919063ffffffff16565b60218381548110613c6b57634e487b7160e01b600052603260045260246000fd5b906000526020600020018190555060208281548110613c9a57634e487b7160e01b600052603260045260246000fd5b906000526020600020018054613caf90615679565b80601f0160208091040260200160405190810160405280929190818152602001828054613cdb90615679565b8015613d285780601f10613cfd57610100808354040283529160200191613d28565b820191906000526020600020905b815481529060010190602001808311613d0b57829003601f168201915b505050505092505050919050565b6000806132c584846140c2565b613d4e8484846132cd565b613d5a848484846140f2565b6116145760405162461bcd60e51b815260040161101690615407565b6060613d8182613142565b613de75760405162461bcd60e51b815260206004820152603160248201527f45524337323155524953746f726167653a2055524920717565727920666f72206044820152703737b732bc34b9ba32b73a103a37b5b2b760791b6064820152608401611016565b6000828152600a602052604081208054613e0090615679565b80601f0160208091040260200160405190810160405280929190818152602001828054613e2c90615679565b8015613e795780601f10613e4e57610100808354040283529160200191613e79565b820191906000526020600020905b815481529060010190602001808311613e5c57829003601f168201915b505050505090506000613e9760408051602081019091526000815290565b9050805160001415613eaa575092915050565b815115613edc578082604051602001613ec4929190615313565b60405160208183030381529060405292505050919050565b6132c5846141ff565b60006001600160e01b0319821663780e9d6360e01b1480610f165750610f16826142d6565b613f1482826125de565b61169457613f2c816001600160a01b03166014614326565b613f37836020614326565b604051602001613f48929190615342565b60408051601f198184030181529082905262461bcd60e51b8252611016916004016153f4565b600b5460ff1615613f915760405162461bcd60e51b815260040161101690615459565b61114c838383614507565b60006127e482846155ec565b604080516000808252602082019092526001600160a01b038416908390604051613fd291906152f7565b60006040518083038185875af1925050503d806000811461400f576040519150601f19603f3d011682016040523d82523d6000602084013e614014565b606091505b505090508061114c5760405162461bcd60e51b815260206004820152603460248201527f5472616e7366657248656c7065723a3a736166655472616e736665724554483a60448201527308115512081d1c985b9cd9995c8819985a5b195960621b6064820152608401611016565b61408b816145bf565b6000818152600a6020526040902080546140a490615679565b159050611acc576000818152600a60205260408120611acc91614c67565b6000806140ce60105490565b90506140de601080546001019055565b6140e88482614666565b6127e48184614680565b60006001600160a01b0384163b156141f457604051630a85bd0160e11b81526001600160a01b0385169063150b7a02906141369033908990889088906004016153b7565b602060405180830381600087803b15801561415057600080fd5b505af1925050508015614180575060408051601f3d908101601f1916820190925261417d91810190615224565b60015b6141da573d8080156141ae576040519150601f19603f3d011682016040523d82523d6000602084013e6141b3565b606091505b5080516141d25760405162461bcd60e51b815260040161101690615407565b805181602001fd5b6001600160e01b031916630a85bd0160e11b1490506132c5565b506001949350505050565b606061420a82613142565b61426e5760405162461bcd60e51b815260206004820152602f60248201527f4552433732314d657461646174613a2055524920717565727920666f72206e6f60448201526e3732bc34b9ba32b73a103a37b5b2b760891b6064820152608401611016565b600061428560408051602081019091526000815290565b905060008151116142a557604051806020016040528060008152506127e4565b806142af8461470b565b6040516020016142c0929190615313565b6040516020818303038152906040529392505050565b60006001600160e01b031982166380ac58cd60e01b148061430757506001600160e01b03198216635b5e139f60e01b145b80610f1657506301ffc9a760e01b6001600160e01b0319831614610f16565b60606000614335836002615600565b6143409060026155d4565b6001600160401b0381111561436557634e487b7160e01b600052604160045260246000fd5b6040519080825280601f01601f19166020018201604052801561438f576020820181803683370190505b509050600360fc1b816000815181106143b857634e487b7160e01b600052603260045260246000fd5b60200101906001600160f81b031916908160001a905350600f60fb1b816001815181106143f557634e487b7160e01b600052603260045260246000fd5b60200101906001600160f81b031916908160001a9053506000614419846002615600565b6144249060016155d4565b90505b60018111156144b8576f181899199a1a9b1b9c1cb0b131b232b360811b85600f166010811061446657634e487b7160e01b600052603260045260246000fd5b1a60f81b82828151811061448a57634e487b7160e01b600052603260045260246000fd5b60200101906001600160f81b031916908160001a90535060049490941c936144b181615662565b9050614427565b5083156127e45760405162461bcd60e51b815260206004820181905260248201527f537472696e67733a20686578206c656e67746820696e73756666696369656e746044820152606401611016565b6001600160a01b0383166145625761455d81600880546000838152600960205260408120829055600182018355919091527ff3f7a9fe364faab93b216da50a3214154f22a0a2b415b23a84c8169e8b636ee30155565b614585565b816001600160a01b0316836001600160a01b031614614585576145858382614824565b6001600160a01b03821661459c5761114c816148c1565b826001600160a01b0316826001600160a01b03161461114c5761114c828261499a565b60006145ca82611f9b565b90506145d881600084613f6e565b6145e360008361315f565b6001600160a01b038116600090815260036020526040812080546001929061460c90849061561f565b909155505060008281526002602052604080822080546001600160a01b0319169055518391906001600160a01b038416907fddf252ad1be2c89b69c2b068fc378daa952ba7f163c4a11628f55a4df523b3ef908390a45050565b6116948282604051806020016040528060008152506149de565b61468982613142565b6146ec5760405162461bcd60e51b815260206004820152602e60248201527f45524337323155524953746f726167653a2055524920736574206f66206e6f6e60448201526d32bc34b9ba32b73a103a37b5b2b760911b6064820152608401611016565b6000828152600a60209081526040909120825161114c92840190614bf4565b60608161472f5750506040805180820190915260018152600360fc1b602082015290565b8160005b81156147595780614743816156ae565b91506147529050600a836155ec565b9150614733565b6000816001600160401b0381111561478157634e487b7160e01b600052604160045260246000fd5b6040519080825280601f01601f1916602001820160405280156147ab576020820181803683370190505b5090505b84156132c5576147c060018361561f565b91506147cd600a866156c9565b6147d89060306155d4565b60f81b8183815181106147fb57634e487b7160e01b600052603260045260246000fd5b60200101906001600160f81b031916908160001a90535061481d600a866155ec565b94506147af565b6000600161483184612077565b61483b919061561f565b60008381526007602052604090205490915080821461488e576001600160a01b03841660009081526006602090815260408083208584528252808320548484528184208190558352600790915290208190555b5060009182526007602090815260408084208490556001600160a01b039094168352600681528383209183525290812055565b6008546000906148d39060019061561f565b6000838152600960205260408120546008805493945090928490811061490957634e487b7160e01b600052603260045260246000fd5b90600052602060002001549050806008838154811061493857634e487b7160e01b600052603260045260246000fd5b600091825260208083209091019290925582815260099091526040808220849055858252812055600880548061497e57634e487b7160e01b600052603160045260246000fd5b6001900381819060005260206000200160009055905550505050565b60006149a583612077565b6001600160a01b039093166000908152600660209081526040808320868452825280832085905593825260079052919091209190915550565b6149e88383614a11565b6149f560008484846140f2565b61114c5760405162461bcd60e51b815260040161101690615407565b6001600160a01b038216614a675760405162461bcd60e51b815260206004820181905260248201527f4552433732313a206d696e7420746f20746865207a65726f20616464726573736044820152606401611016565b614a7081613142565b15614abd5760405162461bcd60e51b815260206004820152601c60248201527f4552433732313a20746f6b656e20616c7265616479206d696e746564000000006044820152606401611016565b614ac960008383613f6e565b6001600160a01b0382166000908152600360205260408120805460019290614af29084906155d4565b909155505060008181526002602052604080822080546001600160a01b0319166001600160a01b03861690811790915590518392907fddf252ad1be2c89b69c2b068fc378daa952ba7f163c4a11628f55a4df523b3ef908290a45050565b828054828255906000526020600020908101928215614b8b579160200282015b82811115614b8b578251825591602001919060010190614b70565b50614b97929150614c9d565b5090565b828054828255906000526020600020908101928215614be8579160200282015b82811115614be85782518051614bd8918491602090910190614bf4565b5091602001919060010190614bbb565b50614b97929150614cb2565b828054614c0090615679565b90600052602060002090601f016020900481019282614c225760008555614b8b565b82601f10614c3b57805160ff1916838001178555614b8b565b82800160010185558215614b8b5791820182811115614b8b578251825591602001919060010190614b70565b508054614c7390615679565b6000825580601f10614c83575050565b601f016020900490600052602060002090810190611acc91905b5b80821115614b975760008155600101614c9e565b80821115614b97576000614cc68282614c67565b50600101614cb2565b60006001600160401b03831115614ce857614ce8615709565b614cfb601f8401601f1916602001615581565b9050828152838383011115614d0f57600080fd5b828260208301376000602084830101529392505050565b80356001600160a01b0381168114614d3d57600080fd5b919050565b600082601f830112614d52578081fd5b81356020614d67614d62836155b1565b615581565b80838252828201915082860187848660051b8901011115614d86578586fd5b855b85811015614dc65781356001600160401b03811115614da5578788fd5b614db38a87838c0101614dd3565b8552509284019290840190600101614d88565b5090979650505050505050565b600082601f830112614de3578081fd5b6127e483833560208501614ccf565b600060208284031215614e03578081fd5b6127e482614d26565b60008060408385031215614e1e578081fd5b614e2783614d26565b9150614e3560208401614d26565b90509250929050565b600080600060608486031215614e52578081fd5b614e5b84614d26565b9250614e6960208501614d26565b9150604084013590509250925092565b600080600080600060808688031215614e90578081fd5b614e9986614d26565b9450614ea760208701614d26565b93506040860135925060608601356001600160401b0380821115614ec9578283fd5b818801915088601f830112614edc578283fd5b813581811115614eea578384fd5b896020828501011115614efb578384fd5b9699959850939650602001949392505050565b60008060008060808587031215614f23578384fd5b614f2c85614d26565b9350614f3a60208601614d26565b92506040850135915060608501356001600160401b03811115614f5b578182fd5b8501601f81018713614f6b578182fd5b614f7a87823560208401614ccf565b91505092959194509250565b60008060408385031215614f98578182fd5b614fa183614d26565b915060208301356001600160401b03811115614fbb578182fd5b614fc785828601614d42565b9150509250929050565b60008060408385031215614fe3578182fd5b614fec83614d26565b91506020830135614ffc8161571f565b809150509250929050565b60008060408385031215615019578182fd5b61502283614d26565b915060208301356001600160401b0381111561503c578182fd5b614fc785828601614dd3565b60008060006060848603121561505c578081fd5b61506584614d26565b925060208401356001600160401b0381111561507f578182fd5b61508b86828701614dd3565b925050604084013590509250925092565b600080604083850312156150ae578182fd5b6150b783614d26565b946020939093013593505050565b6000806000606084860312156150d9578081fd5b6150e284614d26565b95602085013595506040909401359392505050565b60008060408385031215615109578182fd5b82356001600160401b038082111561511f578384fd5b61512b86838701614d42565b9350602091508185013581811115615141578384fd5b85019050601f81018613615153578283fd5b8035615161614d62826155b1565b80828252848201915084840189868560051b8701011115615180578687fd5b8694505b838510156151a2578035835260019490940193918501918501615184565b5080955050505050509250929050565b6000602082840312156151c3578081fd5b81516127e48161571f565b6000602082840312156151df578081fd5b5035919050565b600080604083850312156151f8578182fd5b82359150614e3560208401614d26565b600060208284031215615219578081fd5b81356127e48161572d565b600060208284031215615235578081fd5b81516127e48161572d565b600060208284031215615251578081fd5b5051919050565b6000806040838503121561526a578182fd5b8235915060208301356001600160401b0381111561503c578182fd5b60008060408385031215615298578182fd5b50508035926020909101359150565b6000602082840312156152b8578081fd5b815163ffffffff811681146127e4578182fd5b600081518084526152e3816020860160208601615636565b601f01601f19169290920160200192915050565b60008251615309818460208701615636565b9190910192915050565b60008351615325818460208801615636565b835190830190615339818360208801615636565b01949350505050565b7f416363657373436f6e74726f6c3a206163636f756e742000000000000000000081526000835161537a816017850160208801615636565b7001034b99036b4b9b9b4b733903937b6329607d1b60179184019182015283516153ab816028840160208801615636565b01602801949350505050565b6001600160a01b03858116825284166020820152604081018390526080606082018190526000906153ea908301846152cb565b9695505050505050565b6020815260006127e460208301846152cb565b60208082526032908201527f4552433732313a207472616e7366657220746f206e6f6e20455243373231526560408201527131b2b4bb32b91034b6b83632b6b2b73a32b960711b606082015260800190565b60208082526010908201526f14185d5cd8589b194e881c185d5cd95960821b604082015260600190565b6020808252818101527f4f776e61626c653a2063616c6c6572206973206e6f7420746865206f776e6572604082015260600190565b60208082526021908201527f76616c75652073686f756c642062652067726561746572207468616e207a65726040820152606f60f81b606082015260800190565b6020808252601b908201527f4e6f7420796574206c61756e63682074696d6520726561636865640000000000604082015260600190565b60208082526031908201527f4552433732313a207472616e736665722063616c6c6572206973206e6f74206f6040820152701ddb995c881b9bdc88185c1c1c9bdd9959607a1b606082015260800190565b604051601f8201601f191681016001600160401b03811182821017156155a9576155a9615709565b604052919050565b60006001600160401b038211156155ca576155ca615709565b5060051b60200190565b600082198211156155e7576155e76156dd565b500190565b6000826155fb576155fb6156f3565b500490565b600081600019048311821515161561561a5761561a6156dd565b500290565b600082821015615631576156316156dd565b500390565b60005b83811015615651578181015183820152602001615639565b838111156116145750506000910152565b600081615671576156716156dd565b506000190190565b600181811c9082168061568d57607f821691505b60208210811415611f9557634e487b7160e01b600052602260045260246000fd5b60006000198214156156c2576156c26156dd565b5060010190565b6000826156d8576156d86156f3565b500690565b634e487b7160e01b600052601160045260246000fd5b634e487b7160e01b600052601260045260246000fd5b634e487b7160e01b600052604160045260246000fd5b8015158114611acc57600080fd5b6001600160e01b031981168114611acc57600080fdfe65d7a28e3265b37a6474929f336521b332c1681b933f6cb9f3376673440d862a9f2df0fed2c77648de5860a4cc508cd0818c85b8b8a1ab4ceeef8d981c8956a6a2646970667358221220a8da9295deddf656defe78b120411ee05e63aae1f2d5fe5a9302cf256be7b00264736f6c634300080400334f776e61626c653a2063616c6c6572206973206e6f7420746865206f776e657265d7a28e3265b37a6474929f336521b332c1681b933f6cb9f3376673440d862a9f2df0fed2c77648de5860a4cc508cd0818c85b8b8a1ab4ceeef8d981c8956a6",
  "linkReferences": {},
  "deployedLinkReferences": {}
}