{
  "_format": "hh-sol-artifact-1",
  "contractName": "MysteryBox",
  "sourceName": "contracts/MysteryBox.sol",
  "abi": [
    {
      "inputs": [
        {
          "internalType": "string",
          "name": "name",
          "type": "string"
        },
        {
          "internalType": "string",
          "name": "symbol",
          "type": "string"
        },
        {
          "internalType": "address",
          "name": "_key",
          "type": "address"
        },
        {
          "internalType": "address",
          "name": "_quote",
          "type": "address"
        },
        {
          "internalType": "address",
          "name": "_payment",
          "type": "address"
        },
        {
          "internalType": "address",
          "name": "_treasury",
          "type": "address"
        },
        {
          "internalType": "uint256[]",
          "name": "configValues",
          "type": "uint256[]"
        },
        {
          "internalType": "contract IWitnetRandomness",
          "name": "_witnetRandomness",
          "type": "address"
        }
      ],
      "stateMutability": "nonpayable",
      "type": "constructor"
    },
    {
      "anonymous": false,
      "inputs": [
        {
          "indexed": true,
          "internalType": "address",
          "name": "owner",
          "type": "address"
        },
        {
          "indexed": true,
          "internalType": "address",
          "name": "approved",
          "type": "address"
        },
        {
          "indexed": true,
          "internalType": "uint256",
          "name": "tokenId",
          "type": "uint256"
        }
      ],
      "name": "Approval",
      "type": "event"
    },
    {
      "anonymous": false,
      "inputs": [
        {
          "indexed": true,
          "internalType": "address",
          "name": "owner",
          "type": "address"
        },
        {
          "indexed": true,
          "internalType": "address",
          "name": "operator",
          "type": "address"
        },
        {
          "indexed": false,
          "internalType": "bool",
          "name": "approved",
          "type": "bool"
        }
      ],
      "name": "ApprovalForAll",
      "type": "event"
    },
    {
      "anonymous": false,
      "inputs": [
        {
          "indexed": false,
          "internalType": "address",
          "name": "",
          "type": "address"
        },
        {
          "indexed": false,
          "internalType": "string",
          "name": "",
          "type": "string"
        }
      ],
      "name": "Grant",
      "type": "event"
    },
    {
      "anonymous": false,
      "inputs": [
        {
          "indexed": true,
          "internalType": "address",
          "name": "previousOwner",
          "type": "address"
        },
        {
          "indexed": true,
          "internalType": "address",
          "name": "newOwner",
          "type": "address"
        }
      ],
      "name": "OwnershipTransferred",
      "type": "event"
    },
    {
      "anonymous": false,
      "inputs": [
        {
          "indexed": false,
          "internalType": "address",
          "name": "account",
          "type": "address"
        }
      ],
      "name": "Paused",
      "type": "event"
    },
    {
      "anonymous": false,
      "inputs": [
        {
          "indexed": true,
          "internalType": "bytes32",
          "name": "role",
          "type": "bytes32"
        },
        {
          "indexed": true,
          "internalType": "bytes32",
          "name": "previousAdminRole",
          "type": "bytes32"
        },
        {
          "indexed": true,
          "internalType": "bytes32",
          "name": "newAdminRole",
          "type": "bytes32"
        }
      ],
      "name": "RoleAdminChanged",
      "type": "event"
    },
    {
      "anonymous": false,
      "inputs": [
        {
          "indexed": true,
          "internalType": "bytes32",
          "name": "role",
          "type": "bytes32"
        },
        {
          "indexed": true,
          "internalType": "address",
          "name": "account",
          "type": "address"
        },
        {
          "indexed": true,
          "internalType": "address",
          "name": "sender",
          "type": "address"
        }
      ],
      "name": "RoleGranted",
      "type": "event"
    },
    {
      "anonymous": false,
      "inputs": [
        {
          "indexed": true,
          "internalType": "bytes32",
          "name": "role",
          "type": "bytes32"
        },
        {
          "indexed": true,
          "internalType": "address",
          "name": "account",
          "type": "address"
        },
        {
          "indexed": true,
          "internalType": "address",
          "name": "sender",
          "type": "address"
        }
      ],
      "name": "RoleRevoked",
      "type": "event"
    },
    {
      "anonymous": false,
      "inputs": [
        {
          "indexed": false,
          "internalType": "address",
          "name": "",
          "type": "address"
        },
        {
          "indexed": false,
          "internalType": "address",
          "name": "",
          "type": "address"
        },
        {
          "indexed": false,
          "internalType": "uint256",
          "name": "",
          "type": "uint256"
        }
      ],
      "name": "SetConfig",
      "type": "event"
    },
    {
      "anonymous": false,
      "inputs": [
        {
          "indexed": false,
          "internalType": "uint256",
          "name": "",
          "type": "uint256"
        }
      ],
      "name": "SetHardCap",
      "type": "event"
    },
    {
      "anonymous": false,
      "inputs": [
        {
          "indexed": false,
          "internalType": "uint256",
          "name": "",
          "type": "uint256"
        }
      ],
      "name": "SetLaunch",
      "type": "event"
    },
    {
      "anonymous": false,
      "inputs": [
        {
          "indexed": false,
          "internalType": "uint256",
          "name": "",
          "type": "uint256"
        }
      ],
      "name": "SetLockup",
      "type": "event"
    },
    {
      "anonymous": false,
      "inputs": [
        {
          "indexed": false,
          "internalType": "address",
          "name": "",
          "type": "address"
        },
        {
          "indexed": false,
          "internalType": "uint256",
          "name": "",
          "type": "uint256"
        }
      ],
      "name": "SetMboxKey",
      "type": "event"
    },
    {
      "anonymous": false,
      "inputs": [
        {
          "indexed": false,
          "internalType": "address",
          "name": "",
          "type": "address"
        }
      ],
      "name": "SetMysteryBox",
      "type": "event"
    },
    {
      "anonymous": false,
      "inputs": [
        {
          "indexed": false,
          "internalType": "address",
          "name": "",
          "type": "address"
        }
      ],
      "name": "SetQuote",
      "type": "event"
    },
    {
      "anonymous": false,
      "inputs": [
        {
          "indexed": false,
          "internalType": "address",
          "name": "",
          "type": "address"
        }
      ],
      "name": "SetSubscription",
      "type": "event"
    },
    {
      "anonymous": false,
      "inputs": [
        {
          "indexed": true,
          "internalType": "address",
          "name": "from",
          "type": "address"
        },
        {
          "indexed": true,
          "internalType": "address",
          "name": "to",
          "type": "address"
        },
        {
          "indexed": true,
          "internalType": "uint256",
          "name": "tokenId",
          "type": "uint256"
        }
      ],
      "name": "Transfer",
      "type": "event"
    },
    {
      "anonymous": false,
      "inputs": [
        {
          "indexed": false,
          "internalType": "address",
          "name": "account",
          "type": "address"
        }
      ],
      "name": "Unpaused",
      "type": "event"
    },
    {
      "inputs": [],
      "name": "DEFAULT_ADMIN_ROLE",
      "outputs": [
        {
          "internalType": "bytes32",
          "name": "",
          "type": "bytes32"
        }
      ],
      "stateMutability": "view",
      "type": "function"
    },
    {
      "inputs": [],
      "name": "MINTER_ROLE",
      "outputs": [
        {
          "internalType": "bytes32",
          "name": "",
          "type": "bytes32"
        }
      ],
      "stateMutability": "view",
      "type": "function"
    },
    {
      "inputs": [],
      "name": "PAUSER_ROLE",
      "outputs": [
        {
          "internalType": "bytes32",
          "name": "",
          "type": "bytes32"
        }
      ],
      "stateMutability": "view",
      "type": "function"
    },
    {
      "inputs": [
        {
          "internalType": "address",
          "name": "minter",
          "type": "address"
        }
      ],
      "name": "addMinter",
      "outputs": [],
      "stateMutability": "nonpayable",
      "type": "function"
    },
    {
      "inputs": [
        {
          "internalType": "address",
          "name": "pauser",
          "type": "address"
        }
      ],
      "name": "addPauser",
      "outputs": [],
      "stateMutability": "nonpayable",
      "type": "function"
    },
    {
      "inputs": [],
      "name": "andOr",
      "outputs": [
        {
          "internalType": "bool",
          "name": "",
          "type": "bool"
        }
      ],
      "stateMutability": "view",
      "type": "function"
    },
    {
      "inputs": [
        {
          "internalType": "address",
          "name": "to",
          "type": "address"
        },
        {
          "internalType": "uint256",
          "name": "tokenId",
          "type": "uint256"
        }
      ],
      "name": "approve",
      "outputs": [],
      "stateMutability": "nonpayable",
      "type": "function"
    },
    {
      "inputs": [
        {
          "internalType": "address",
          "name": "owner",
          "type": "address"
        }
      ],
      "name": "balanceOf",
      "outputs": [
        {
          "internalType": "uint256",
          "name": "",
          "type": "uint256"
        }
      ],
      "stateMutability": "view",
      "type": "function"
    },
    {
      "inputs": [
        {
          "internalType": "uint256",
          "name": "tokenId",
          "type": "uint256"
        }
      ],
      "name": "burn",
      "outputs": [],
      "stateMutability": "nonpayable",
      "type": "function"
    },
    {
      "inputs": [
        {
          "internalType": "uint256",
          "name": "index",
          "type": "uint256"
        },
        {
          "internalType": "uint256",
          "name": "amount",
          "type": "uint256"
        },
        {
          "internalType": "address",
          "name": "to",
          "type": "address"
        }
      ],
      "name": "buyItemCredit",
      "outputs": [],
      "stateMutability": "nonpayable",
      "type": "function"
    },
    {
      "inputs": [
        {
          "internalType": "uint256",
          "name": "_amount",
          "type": "uint256"
        },
        {
          "internalType": "address",
          "name": "to",
          "type": "address"
        }
      ],
      "name": "buyKeyCredit",
      "outputs": [],
      "stateMutability": "nonpayable",
      "type": "function"
    },
    {
      "inputs": [
        {
          "internalType": "uint256",
          "name": "_amount",
          "type": "uint256"
        }
      ],
      "name": "buyKeyEth",
      "outputs": [],
      "stateMutability": "payable",
      "type": "function"
    },
    {
      "inputs": [
        {
          "internalType": "uint256",
          "name": "_payment",
          "type": "uint256"
        },
        {
          "internalType": "uint256",
          "name": "_amount",
          "type": "uint256"
        }
      ],
      "name": "buyKeyQuote",
      "outputs": [],
      "stateMutability": "nonpayable",
      "type": "function"
    },
    {
      "inputs": [
        {
          "internalType": "address",
          "name": "to",
          "type": "address"
        },
        {
          "internalType": "uint256",
          "name": "amount",
          "type": "uint256"
        }
      ],
      "name": "claim",
      "outputs": [],
      "stateMutability": "nonpayable",
      "type": "function"
    },
    {
      "inputs": [
        {
          "internalType": "uint256",
          "name": "gasPrice",
          "type": "uint256"
        }
      ],
      "name": "estimateRandomizeFee",
      "outputs": [
        {
          "internalType": "uint256",
          "name": "",
          "type": "uint256"
        }
      ],
      "stateMutability": "view",
      "type": "function"
    },
    {
      "inputs": [],
      "name": "feeRate",
      "outputs": [
        {
          "internalType": "uint256",
          "name": "",
          "type": "uint256"
        }
      ],
      "stateMutability": "view",
      "type": "function"
    },
    {
      "inputs": [],
      "name": "flagMandatory",
      "outputs": [
        {
          "internalType": "bool",
          "name": "",
          "type": "bool"
        }
      ],
      "stateMutability": "view",
      "type": "function"
    },
    {
      "inputs": [
        {
          "internalType": "uint256",
          "name": "tokenId",
          "type": "uint256"
        }
      ],
      "name": "getApproved",
      "outputs": [
        {
          "internalType": "address",
          "name": "",
          "type": "address"
        }
      ],
      "stateMutability": "view",
      "type": "function"
    },
    {
      "inputs": [],
      "name": "getItemRemains",
      "outputs": [
        {
          "internalType": "uint256",
          "name": "",
          "type": "uint256"
        }
      ],
      "stateMutability": "view",
      "type": "function"
    },
    {
      "inputs": [
        {
          "internalType": "bytes32",
          "name": "role",
          "type": "bytes32"
        }
      ],
      "name": "getRoleAdmin",
      "outputs": [
        {
          "internalType": "bytes32",
          "name": "",
          "type": "bytes32"
        }
      ],
      "stateMutability": "view",
      "type": "function"
    },
    {
      "inputs": [
        {
          "internalType": "address",
          "name": "_subAddr",
          "type": "address"
        }
      ],
      "name": "getSubInfos",
      "outputs": [
        {
          "internalType": "address",
          "name": "",
          "type": "address"
        },
        {
          "internalType": "uint256",
          "name": "",
          "type": "uint256"
        },
        {
          "internalType": "uint256",
          "name": "",
          "type": "uint256"
        }
      ],
      "stateMutability": "view",
      "type": "function"
    },
    {
      "inputs": [],
      "name": "globalURI",
      "outputs": [
        {
          "internalType": "string",
          "name": "",
          "type": "string"
        }
      ],
      "stateMutability": "view",
      "type": "function"
    },
    {
      "inputs": [
        {
          "internalType": "bytes32",
          "name": "role",
          "type": "bytes32"
        },
        {
          "internalType": "address",
          "name": "account",
          "type": "address"
        }
      ],
      "name": "grantRole",
      "outputs": [],
      "stateMutability": "nonpayable",
      "type": "function"
    },
    {
      "inputs": [],
      "name": "hardCap",
      "outputs": [
        {
          "internalType": "uint256",
          "name": "",
          "type": "uint256"
        }
      ],
      "stateMutability": "view",
      "type": "function"
    },
    {
      "inputs": [
        {
          "internalType": "bytes32",
          "name": "role",
          "type": "bytes32"
        },
        {
          "internalType": "address",
          "name": "account",
          "type": "address"
        }
      ],
      "name": "hasRole",
      "outputs": [
        {
          "internalType": "bool",
          "name": "",
          "type": "bool"
        }
      ],
      "stateMutability": "view",
      "type": "function"
    },
    {
      "inputs": [
        {
          "internalType": "address",
          "name": "owner",
          "type": "address"
        },
        {
          "internalType": "address",
          "name": "operator",
          "type": "address"
        }
      ],
      "name": "isApprovedForAll",
      "outputs": [
        {
          "internalType": "bool",
          "name": "",
          "type": "bool"
        }
      ],
      "stateMutability": "view",
      "type": "function"
    },
    {
      "inputs": [
        {
          "internalType": "uint256",
          "name": "",
          "type": "uint256"
        }
      ],
      "name": "itemAmounts",
      "outputs": [
        {
          "internalType": "uint256",
          "name": "",
          "type": "uint256"
        }
      ],
      "stateMutability": "view",
      "type": "function"
    },
    {
      "inputs": [
        {
          "internalType": "uint256",
          "name": "",
          "type": "uint256"
        }
      ],
      "name": "itemURIs",
      "outputs": [
        {
          "internalType": "string",
          "name": "",
          "type": "string"
        }
      ],
      "stateMutability": "view",
      "type": "function"
    },
    {
      "inputs": [
        {
          "internalType": "uint256",
          "name": "",
          "type": "uint256"
        }
      ],
      "name": "items",
      "outputs": [
        {
          "internalType": "uint256",
          "name": "",
          "type": "uint256"
        }
      ],
      "stateMutability": "view",
      "type": "function"
    },
    {
      "inputs": [],
      "name": "key",
      "outputs": [
        {
          "internalType": "address",
          "name": "",
          "type": "address"
        }
      ],
      "stateMutability": "view",
      "type": "function"
    },
    {
      "inputs": [],
      "name": "latestRandomizingBlock",
      "outputs": [
        {
          "internalType": "uint256",
          "name": "",
          "type": "uint256"
        }
      ],
      "stateMutability": "view",
      "type": "function"
    },
    {
      "inputs": [],
      "name": "launch",
      "outputs": [
        {
          "internalType": "uint256",
          "name": "",
          "type": "uint256"
        }
      ],
      "stateMutability": "view",
      "type": "function"
    },
    {
      "inputs": [],
      "name": "lockup",
      "outputs": [
        {
          "internalType": "uint256",
          "name": "",
          "type": "uint256"
        }
      ],
      "stateMutability": "view",
      "type": "function"
    },
    {
      "inputs": [
        {
          "internalType": "uint256",
          "name": "",
          "type": "uint256"
        }
      ],
      "name": "mandatory",
      "outputs": [
        {
          "internalType": "address",
          "name": "",
          "type": "address"
        }
      ],
      "stateMutability": "view",
      "type": "function"
    },
    {
      "inputs": [],
      "name": "mysteryBox",
      "outputs": [
        {
          "internalType": "address",
          "name": "",
          "type": "address"
        }
      ],
      "stateMutability": "view",
      "type": "function"
    },
    {
      "inputs": [],
      "name": "name",
      "outputs": [
        {
          "internalType": "string",
          "name": "",
          "type": "string"
        }
      ],
      "stateMutability": "view",
      "type": "function"
    },
    {
      "inputs": [
        {
          "internalType": "address",
          "name": "operator",
          "type": "address"
        },
        {
          "internalType": "address",
          "name": "from",
          "type": "address"
        },
        {
          "internalType": "uint256",
          "name": "tokenId",
          "type": "uint256"
        },
        {
          "internalType": "bytes",
          "name": "data",
          "type": "bytes"
        }
      ],
      "name": "onERC721Received",
      "outputs": [
        {
          "internalType": "bytes4",
          "name": "",
          "type": "bytes4"
        }
      ],
      "stateMutability": "pure",
      "type": "function"
    },
    {
      "inputs": [],
      "name": "owner",
      "outputs": [
        {
          "internalType": "address",
          "name": "",
          "type": "address"
        }
      ],
      "stateMutability": "view",
      "type": "function"
    },
    {
      "inputs": [
        {
          "internalType": "uint256",
          "name": "tokenId",
          "type": "uint256"
        }
      ],
      "name": "ownerOf",
      "outputs": [
        {
          "internalType": "address",
          "name": "",
          "type": "address"
        }
      ],
      "stateMutability": "view",
      "type": "function"
    },
    {
      "inputs": [],
      "name": "pause",
      "outputs": [],
      "stateMutability": "nonpayable",
      "type": "function"
    },
    {
      "inputs": [],
      "name": "paused",
      "outputs": [
        {
          "internalType": "bool",
          "name": "",
          "type": "bool"
        }
      ],
      "stateMutability": "view",
      "type": "function"
    },
    {
      "inputs": [],
      "name": "payment",
      "outputs": [
        {
          "internalType": "address",
          "name": "",
          "type": "address"
        }
      ],
      "stateMutability": "view",
      "type": "function"
    },
    {
      "inputs": [],
      "name": "price",
      "outputs": [
        {
          "internalType": "uint256",
          "name": "",
          "type": "uint256"
        }
      ],
      "stateMutability": "view",
      "type": "function"
    },
    {
      "inputs": [],
      "name": "quote",
      "outputs": [
        {
          "internalType": "address",
          "name": "",
          "type": "address"
        }
      ],
      "stateMutability": "view",
      "type": "function"
    },
    {
      "inputs": [],
      "name": "randomness",
      "outputs": [
        {
          "internalType": "uint32",
          "name": "",
          "type": "uint32"
        }
      ],
      "stateMutability": "view",
      "type": "function"
    },
    {
      "inputs": [
        {
          "internalType": "string[]",
          "name": "uris",
          "type": "string[]"
        },
        {
          "internalType": "uint256[]",
          "name": "amounts",
          "type": "uint256[]"
        }
      ],
      "name": "registerItems",
      "outputs": [],
      "stateMutability": "nonpayable",
      "type": "function"
    },
    {
      "inputs": [],
      "name": "renounceOwnership",
      "outputs": [],
      "stateMutability": "nonpayable",
      "type": "function"
    },
    {
      "inputs": [
        {
          "internalType": "bytes32",
          "name": "role",
          "type": "bytes32"
        },
        {
          "internalType": "address",
          "name": "account",
          "type": "address"
        }
      ],
      "name": "renounceRole",
      "outputs": [],
      "stateMutability": "nonpayable",
      "type": "function"
    },
    {
      "inputs": [],
      "name": "requestRandomNumber",
      "outputs": [],
      "stateMutability": "payable",
      "type": "function"
    },
    {
      "inputs": [
        {
          "internalType": "bytes32",
          "name": "role",
          "type": "bytes32"
        },
        {
          "internalType": "address",
          "name": "account",
          "type": "address"
        }
      ],
      "name": "revokeRole",
      "outputs": [],
      "stateMutability": "nonpayable",
      "type": "function"
    },
    {
      "inputs": [
        {
          "internalType": "address",
          "name": "to",
          "type": "address"
        },
        {
          "internalType": "string[]",
          "name": "uris",
          "type": "string[]"
        }
      ],
      "name": "safeBatchMint",
      "outputs": [],
      "stateMutability": "view",
      "type": "function"
    },
    {
      "inputs": [
        {
          "internalType": "address",
          "name": "to",
          "type": "address"
        },
        {
          "internalType": "string",
          "name": "uri",
          "type": "string"
        },
        {
          "internalType": "uint256",
          "name": "amount",
          "type": "uint256"
        }
      ],
      "name": "safeBatchMintLight",
      "outputs": [],
      "stateMutability": "nonpayable",
      "type": "function"
    },
    {
      "inputs": [
        {
          "internalType": "address",
          "name": "to",
          "type": "address"
        },
        {
          "internalType": "string",
          "name": "uri",
          "type": "string"
        }
      ],
      "name": "safeMint",
      "outputs": [
        {
          "internalType": "uint256",
          "name": "",
          "type": "uint256"
        }
      ],
      "stateMutability": "view",
      "type": "function"
    },
    {
      "inputs": [
        {
          "internalType": "address",
          "name": "to",
          "type": "address"
        }
      ],
      "name": "safeMintTo",
      "outputs": [],
      "stateMutability": "nonpayable",
      "type": "function"
    },
    {
      "inputs": [
        {
          "internalType": "address",
          "name": "from",
          "type": "address"
        },
        {
          "internalType": "address",
          "name": "to",
          "type": "address"
        },
        {
          "internalType": "uint256",
          "name": "tokenId",
          "type": "uint256"
        }
      ],
      "name": "safeTransferFrom",
      "outputs": [],
      "stateMutability": "nonpayable",
      "type": "function"
    },
    {
      "inputs": [
        {
          "internalType": "address",
          "name": "from",
          "type": "address"
        },
        {
          "internalType": "address",
          "name": "to",
          "type": "address"
        },
        {
          "internalType": "uint256",
          "name": "tokenId",
          "type": "uint256"
        },
        {
          "internalType": "bytes",
          "name": "_data",
          "type": "bytes"
        }
      ],
      "name": "safeTransferFrom",
      "outputs": [],
      "stateMutability": "nonpayable",
      "type": "function"
    },
    {
      "inputs": [
        {
          "internalType": "address",
          "name": "operator",
          "type": "address"
        },
        {
          "internalType": "bool",
          "name": "approved",
          "type": "bool"
        }
      ],
      "name": "setApprovalForAll",
      "outputs": [],
      "stateMutability": "nonpayable",
      "type": "function"
    },
    {
      "inputs": [
        {
          "internalType": "address",
          "name": "_payment",
          "type": "address"
        },
        {
          "internalType": "address",
          "name": "_treasury",
          "type": "address"
        },
        {
          "internalType": "uint256",
          "name": "_feeRate",
          "type": "uint256"
        }
      ],
      "name": "setConfig",
      "outputs": [],
      "stateMutability": "nonpayable",
      "type": "function"
    },
    {
      "inputs": [
        {
          "internalType": "uint256",
          "name": "_hardCap",
          "type": "uint256"
        },
        {
          "internalType": "string",
          "name": "_uri",
          "type": "string"
        }
      ],
      "name": "setHardCap",
      "outputs": [],
      "stateMutability": "nonpayable",
      "type": "function"
    },
    {
      "inputs": [
        {
          "internalType": "uint256",
          "name": "_launch",
          "type": "uint256"
        }
      ],
      "name": "setLaunch",
      "outputs": [],
      "stateMutability": "nonpayable",
      "type": "function"
    },
    {
      "inputs": [
        {
          "internalType": "uint256",
          "name": "_lockup",
          "type": "uint256"
        }
      ],
      "name": "setLockup",
      "outputs": [],
      "stateMutability": "nonpayable",
      "type": "function"
    },
    {
      "inputs": [
        {
          "internalType": "address[]",
          "name": "_nfts",
          "type": "address[]"
        },
        {
          "internalType": "bool",
          "name": "_andOr",
          "type": "bool"
        }
      ],
      "name": "setMandatory",
      "outputs": [],
      "stateMutability": "nonpayable",
      "type": "function"
    },
    {
      "inputs": [
        {
          "internalType": "address",
          "name": "_key",
          "type": "address"
        },
        {
          "internalType": "uint256",
          "name": "_price",
          "type": "uint256"
        }
      ],
      "name": "setMboxKey",
      "outputs": [],
      "stateMutability": "nonpayable",
      "type": "function"
    },
    {
      "inputs": [
        {
          "internalType": "address",
          "name": "_mbox",
          "type": "address"
        }
      ],
      "name": "setMysteryBox",
      "outputs": [],
      "stateMutability": "nonpayable",
      "type": "function"
    },
    {
      "inputs": [
        {
          "internalType": "address",
          "name": "_quote",
          "type": "address"
        }
      ],
      "name": "setQuote",
      "outputs": [],
      "stateMutability": "nonpayable",
      "type": "function"
    },
    {
      "inputs": [
        {
          "internalType": "address",
          "name": "_subscription",
          "type": "address"
        },
        {
          "internalType": "uint256",
          "name": "_type",
          "type": "uint256"
        },
        {
          "internalType": "uint256",
          "name": "_amount",
          "type": "uint256"
        }
      ],
      "name": "setSubscription",
      "outputs": [],
      "stateMutability": "nonpayable",
      "type": "function"
    },
    {
      "inputs": [
        {
          "internalType": "address",
          "name": "",
          "type": "address"
        }
      ],
      "name": "subAddrs",
      "outputs": [
        {
          "internalType": "uint256",
          "name": "",
          "type": "uint256"
        }
      ],
      "stateMutability": "view",
      "type": "function"
    },
    {
      "inputs": [
        {
          "internalType": "uint256",
          "name": "",
          "type": "uint256"
        }
      ],
      "name": "subInfos",
      "outputs": [
        {
          "internalType": "address",
          "name": "contractAddr",
          "type": "address"
        },
        {
          "internalType": "uint256",
          "name": "contractType",
          "type": "uint256"
        },
        {
          "internalType": "uint256",
          "name": "amount",
          "type": "uint256"
        },
        {
          "internalType": "uint256",
          "name": "start",
          "type": "uint256"
        },
        {
          "internalType": "uint256",
          "name": "end",
          "type": "uint256"
        },
        {
          "internalType": "uint256",
          "name": "count",
          "type": "uint256"
        }
      ],
      "stateMutability": "view",
      "type": "function"
    },
    {
      "inputs": [
        {
          "internalType": "bytes4",
          "name": "interfaceId",
          "type": "bytes4"
        }
      ],
      "name": "supportsInterface",
      "outputs": [
        {
          "internalType": "bool",
          "name": "",
          "type": "bool"
        }
      ],
      "stateMutability": "view",
      "type": "function"
    },
    {
      "inputs": [],
      "name": "symbol",
      "outputs": [
        {
          "internalType": "string",
          "name": "",
          "type": "string"
        }
      ],
      "stateMutability": "view",
      "type": "function"
    },
    {
      "inputs": [
        {
          "internalType": "uint256",
          "name": "index",
          "type": "uint256"
        }
      ],
      "name": "tokenByIndex",
      "outputs": [
        {
          "internalType": "uint256",
          "name": "",
          "type": "uint256"
        }
      ],
      "stateMutability": "view",
      "type": "function"
    },
    {
      "inputs": [
        {
          "internalType": "address",
          "name": "owner",
          "type": "address"
        },
        {
          "internalType": "uint256",
          "name": "index",
          "type": "uint256"
        }
      ],
      "name": "tokenOfOwnerByIndex",
      "outputs": [
        {
          "internalType": "uint256",
          "name": "",
          "type": "uint256"
        }
      ],
      "stateMutability": "view",
      "type": "function"
    },
    {
      "inputs": [
        {
          "internalType": "uint256",
          "name": "tokenId",
          "type": "uint256"
        }
      ],
      "name": "tokenURI",
      "outputs": [
        {
          "internalType": "string",
          "name": "",
          "type": "string"
        }
      ],
      "stateMutability": "view",
      "type": "function"
    },
    {
      "inputs": [],
      "name": "totalItems",
      "outputs": [
        {
          "internalType": "uint256",
          "name": "",
          "type": "uint256"
        }
      ],
      "stateMutability": "view",
      "type": "function"
    },
    {
      "inputs": [],
      "name": "totalSupply",
      "outputs": [
        {
          "internalType": "uint256",
          "name": "",
          "type": "uint256"
        }
      ],
      "stateMutability": "view",
      "type": "function"
    },
    {
      "inputs": [
        {
          "internalType": "address",
          "name": "from",
          "type": "address"
        },
        {
          "internalType": "address",
          "name": "to",
          "type": "address"
        },
        {
          "internalType": "uint256",
          "name": "tokenId",
          "type": "uint256"
        }
      ],
      "name": "transferFrom",
      "outputs": [],
      "stateMutability": "nonpayable",
      "type": "function"
    },
    {
      "inputs": [
        {
          "internalType": "address",
          "name": "newOwner",
          "type": "address"
        }
      ],
      "name": "transferOwnership",
      "outputs": [],
      "stateMutability": "nonpayable",
      "type": "function"
    },
    {
      "inputs": [],
      "name": "treasury",
      "outputs": [
        {
          "internalType": "address",
          "name": "",
          "type": "address"
        }
      ],
      "stateMutability": "view",
      "type": "function"
    },
    {
      "inputs": [],
      "name": "unpause",
      "outputs": [],
      "stateMutability": "nonpayable",
      "type": "function"
    },
    {
      "inputs": [],
      "name": "witnet",
      "outputs": [
        {
          "internalType": "contract IWitnetRandomness",
          "name": "",
          "type": "address"
        }
      ],
      "stateMutability": "view",
      "type": "function"
    },
    {
      "stateMutability": "payable",
      "type": "receive"
    }
  ],
  "bytecode": "0x60a06040526000600d819055601380546001600160a01b031916905560178190556032601c55601f8190556022805460ff1990811690915560248054909116905560268190556028553480156200005557600080fd5b5060405162006ac438038062006ac4833981016040819052620000789162000a20565b8787818181600090805190602001906200009492919062000841565b508051620000aa90600190602084019062000841565b5050600b805460ff1916905550620000c233620002f6565b620000cf60003362000350565b620000ea60008051602062006a848339815191523362000350565b6200010560008051602062006aa48339815191523362000350565b6200011c6010620003f560201b620036f81760201c565b5050600160115581516004146200017a5760405162461bcd60e51b815260206004820152601a60248201527f696e76616c696420636f6e6669672064617461206c656e67746800000000000060448201526064015b60405180910390fd5b6200018760003362000350565b620001a260008051602062006a848339815191523362000350565b620001bd60008051602062006aa48339815191523362000350565b620001f782600081518110620001e357634e487b7160e01b600052603260045260246000fd5b6020026020010151620003fe60201b60201c565b62000231826001815181106200021d57634e487b7160e01b600052603260045260246000fd5b60200260200101516200048b60201b60201c565b6200026c86836002815181106200025857634e487b7160e01b600052603260045260246000fd5b60200260200101516200051260201b60201c565b620002a88484846003815181106200029457634e487b7160e01b600052603260045260246000fd5b60200260200101516200062560201b60201c565b620002b385620007a1565b6001600160a01b038116620002d857634e487b7160e01b600052600160045260246000fd5b60601b6001600160601b0319166080525062000b9195505050505050565b600b80546001600160a01b03838116610100818102610100600160a81b031985161790945560405193909204169182907f8be0079c531659141344cd1fd0a4f28419497f9722a3daafe3b4186f6b6457e090600090a35050565b6000828152600c602090815260408083206001600160a01b038516845290915290205460ff16620003f1576000828152600c602090815260408083206001600160a01b03851684529091529020805460ff19166001179055620003b03390565b6001600160a01b0316816001600160a01b0316837f2f8788117e7eff1d82e926ec794901d17c78024a50270940304540a733656f0d60405160405180910390a45b5050565b80546001019055565b600b546001600160a01b036101009091041633146200044f5760405162461bcd60e51b8152602060048201819052602482015260008051602062006a64833981519152604482015260640162000171565b60188190556040518181527f7c8826e4db3679f20c86da0c68d37f9dbcd1d638c56717e014f93c56d14c02d1906020015b60405180910390a150565b600b546001600160a01b03610100909104163314620004dc5760405162461bcd60e51b8152602060048201819052602482015260008051602062006a64833981519152604482015260640162000171565b60198190556040518181527fa7ade4ab976b6643a971383d9822fb7c2fce66aa2e497d88c3b4f1475ea2b2e09060200162000480565b600b546001600160a01b03610100909104163314620005635760405162461bcd60e51b8152602060048201819052602482015260008051602062006a64833981519152604482015260640162000171565b6001600160a01b038216620005c55760405162461bcd60e51b815260206004820152602160248201527f57726f6e67204d797374657279426f7820636f6e7472616374206164647265736044820152607360f81b606482015260840162000171565b601280546001600160a01b0319166001600160a01b038416908117909155601482905560408051918252602082018390527fd46fcdc06972a446de426e47c59c6a0c4581b5c0116ac49a2efc3e7d23bdfe72910160405180910390a15050565b600b546001600160a01b03610100909104163314620006765760405162461bcd60e51b8152602060048201819052602482015260008051602062006a64833981519152604482015260640162000171565b6001600160a01b038316620006ce5760405162461bcd60e51b815260206004820152601760248201527f696e76616c6964207061796d656e742061646472657373000000000000000000604482015260640162000171565b6001600160a01b038216620007265760405162461bcd60e51b815260206004820152601860248201527f696e76616c696420747265617375727920616464726573730000000000000000604482015260640162000171565b601a80546001600160a01b038581166001600160a01b03199283168117909355601b8054918616919092168117909155601c83905560408051928352602083019190915281018290527fe2be3027f197494650b7a98fd1cae67dacf615bd1d8bb05102999676f11638669060600160405180910390a1505050565b600b546001600160a01b03610100909104163314620007f25760405162461bcd60e51b8152602060048201819052602482015260008051602062006a64833981519152604482015260640162000171565b601380546001600160a01b0319166001600160a01b0383169081179091556040519081527fca92c759228172fe3894a344908fd20dfd37ba561b5af191f1f5b02ee03881fc9060200162000480565b8280546200084f9062000b3e565b90600052602060002090601f016020900481019282620008735760008555620008be565b82601f106200088e57805160ff1916838001178555620008be565b82800160010185558215620008be579182015b82811115620008be578251825591602001919060010190620008a1565b50620008cc929150620008d0565b5090565b5b80821115620008cc5760008155600101620008d1565b80516001600160a01b0381168114620008ff57600080fd5b919050565b600082601f83011262000915578081fd5b815160206001600160401b0382111562000933576200093362000b7b565b8160051b6200094482820162000b0b565b8381528281019086840183880185018910156200095f578687fd5b8693505b858410156200098357805183526001939093019291840191840162000963565b50979650505050505050565b600082601f830112620009a0578081fd5b81516001600160401b03811115620009bc57620009bc62000b7b565b6020620009d2601f8301601f1916820162000b0b565b8281528582848701011115620009e6578384fd5b835b8381101562000a05578581018301518282018401528201620009e8565b8381111562000a1657848385840101525b5095945050505050565b600080600080600080600080610100898b03121562000a3d578384fd5b88516001600160401b038082111562000a54578586fd5b62000a628c838d016200098f565b995060208b015191508082111562000a78578586fd5b62000a868c838d016200098f565b985062000a9660408c01620008e7565b975062000aa660608c01620008e7565b965062000ab660808c01620008e7565b955062000ac660a08c01620008e7565b945060c08b015191508082111562000adc578384fd5b5062000aeb8b828c0162000904565b92505062000afc60e08a01620008e7565b90509295985092959890939650565b604051601f8201601f191681016001600160401b038111828210171562000b365762000b3662000b7b565b604052919050565b600181811c9082168062000b5357607f821691505b6020821081141562000b7557634e487b7160e01b600052602260045260246000fd5b50919050565b634e487b7160e01b600052604160045260246000fd5b60805160601c615e9f62000bc5600039600081816108f801528181612c66015281816130350152613b2c0152615e9f6000f3fe6080604052600436106104775760003560e01c80636ae6b4591161024a578063a22cb46511610139578063c87b56dd116100b6578063e63ab1e91161007a578063e63ab1e914610ed5578063e985e9c514610ef7578063ec32719614610f40578063f2fde38b14610f60578063fb86a40414610f8057600080fd5b8063c87b56dd14610e3e578063d204c45e14610e5e578063d3d3224a14610e7e578063d539139314610e93578063d547741f14610eb557600080fd5b8063b5a87cc1116100fd578063b5a87cc114610d9f578063b88d4fde14610dbf578063bebc2b5214610ddf578063bfb231d214610dfe578063c38b761c14610e1e57600080fd5b8063a22cb46514610d09578063a2aa61eb14610d29578063a60ee26814610d49578063aad3ec9614610d69578063b1fa417614610d8957600080fd5b80638a55b866116101c7578063978bbdb91161018b578063978bbdb914610c88578063983b2d5614610c9e578063999b93af14610cbe578063a035b1fe14610cde578063a217fddf14610cf457600080fd5b80638a55b86614610bf05780638da5cb5b14610c10578063902835f614610c3357806391d1485414610c5357806395d89b4114610c7357600080fd5b80637e9598ae1161020e5780637e9598ae14610b79578063809a249e14610b9957806382dc1ec414610bb35780638456cb5914610bd35780638678a7b214610be857600080fd5b80636ae6b45914610a4757806370a0823114610a67578063715018a614610a87578063786e435c14610a9c5780637b43b82714610b5957600080fd5b806336568abe116103665780634f6ccce7116102e35780635d1d37c3116102a75780635d1d37c3146109b25780635d814dea146109d25780635dce7383146109f257806361d027b314610a075780636352211e14610a2757600080fd5b80634f6ccce71461091a578063557dee1f1461093a57806355d699621461094d57806358dd6d951461097a5780635c975abb1461099a57600080fd5b80633f4ba83a1161032a5780633f4ba83a1461087157806342842e0e1461088657806342966c68146108a657806342f6487a146108c657806346d1d21a146108e657600080fd5b806336568abe1461076057806338e2d924146107805780633943380c146107a057806339eff2be146107c05780633a1395de1461085157600080fd5b806323b872dd116103f45780632f745c59116103b85780632f745c59146106ae5780632f785908146106ce57806330c045a8146106ee578063347eb9e11461070e578063360131891461072e57600080fd5b806323b872dd146106085780632449065914610628578063248a9ca3146106485780632799276d146106785780632f2ff15d1461068e57600080fd5b8063095ea7b31161043b578063095ea7b31461054c578063150b7a021461056e57806318160ddd146105b357806321bae9e4146105c8578063230a67ee146105e857600080fd5b806301339c211461048357806301ffc9a7146104ac57806306490f47146104dc57806306fdde03146104f2578063081812fc1461051457600080fd5b3661047e57005b600080fd5b34801561048f57600080fd5b5061049960185481565b6040519081526020015b60405180910390f35b3480156104b857600080fd5b506104cc6104c7366004615802565b610f96565b60405190151581526020016104a3565b3480156104e857600080fd5b5061049960195481565b3480156104fe57600080fd5b50610507610fc1565b6040516104a39190615a46565b34801561052057600080fd5b5061053461052f3660046157c8565b611053565b6040516001600160a01b0390911681526020016104a3565b34801561055857600080fd5b5061056c610567366004615616565b6110e0565b005b34801561057a57600080fd5b5061059a6105893660046153f3565b630a85bd0160e11b95945050505050565b6040516001600160e01b031990911681526020016104a3565b3480156105bf57600080fd5b50600854610499565b3480156105d457600080fd5b5061056c6105e336600461536c565b6111f6565b3480156105f457600080fd5b5061056c6106033660046156f1565b611343565b34801561061457600080fd5b5061056c6106233660046153b8565b61148e565b34801561063457600080fd5b5061056c610643366004615852565b6114c0565b34801561065457600080fd5b506104996106633660046157c8565b6000908152600c602052604090206001015490565b34801561068457600080fd5b5061049960175481565b34801561069a57600080fd5b5061056c6106a93660046157e0565b611548565b3480156106ba57600080fd5b506104996106c9366004615616565b61156d565b3480156106da57600080fd5b506105346106e93660046157c8565b611603565b3480156106fa57600080fd5b5061056c6107093660046158a1565b61162d565b34801561071a57600080fd5b5061056c6107293660046157e0565b6119c5565b34801561073a57600080fd5b50601d5461074b9063ffffffff1681565b60405163ffffffff90911681526020016104a3565b34801561076c57600080fd5b5061056c61077b3660046157e0565b611bd5565b34801561078c57600080fd5b5061056c61079b366004615880565b611c53565b3480156107ac57600080fd5b50601254610534906001600160a01b031681565b3480156107cc57600080fd5b5061081a6107db3660046157c8565b6025602052600090815260409020805460018201546002830154600384015460048501546005909501546001600160a01b039094169492939192909186565b604080516001600160a01b0390971687526020870195909552938501929092526060840152608083015260a082015260c0016104a3565b34801561085d57600080fd5b5061056c61086c36600461563f565b612069565b34801561087d57600080fd5b5061056c61222a565b34801561089257600080fd5b5061056c6108a13660046153b8565b61224d565b3480156108b257600080fd5b5061056c6108c13660046157c8565b612268565b3480156108d257600080fd5b50601a54610534906001600160a01b031681565b3480156108f257600080fd5b506105347f000000000000000000000000000000000000000000000000000000000000000081565b34801561092657600080fd5b506104996109353660046157c8565b6122df565b61056c6109483660046157c8565b612380565b34801561095957600080fd5b5061049961096836600461536c565b60276020526000908152604090205481565b34801561098657600080fd5b5061056c610995366004615500565b6126a3565b3480156109a657600080fd5b50600b5460ff166104cc565b3480156109be57600080fd5b5061056c6109cd3660046157c8565b6126ee565b3480156109de57600080fd5b506105076109ed3660046157c8565b61275a565b3480156109fe57600080fd5b50610499612806565b348015610a1357600080fd5b50601b54610534906001600160a01b031681565b348015610a3357600080fd5b50610534610a423660046157c8565b61286d565b348015610a5357600080fd5b5061056c610a623660046157c8565b6128e4565b348015610a7357600080fd5b50610499610a8236600461536c565b612949565b348015610a9357600080fd5b5061056c6129d0565b348015610aa857600080fd5b50610b34610ab736600461536c565b6001600160a01b0390811660009081526027602090815260408083205483526025825291829020825160c08101845281548516815260018201549281019290925260028101549282019290925260038201546060820181905260048301546080830181905260059093015460a09092019190915260125490921692565b604080516001600160a01b0390941684526020840192909252908201526060016104a3565b348015610b6557600080fd5b5061056c610b7436600461536c565b612a0c565b348015610b8557600080fd5b5061056c610b94366004615616565b612aac565b348015610ba557600080fd5b506024546104cc9060ff1681565b348015610bbf57600080fd5b5061056c610bce36600461536c565b612b95565b348015610bdf57600080fd5b5061056c612c3b565b61056c612c5b565b348015610bfc57600080fd5b50610499610c0b3660046157c8565b612d38565b348015610c1c57600080fd5b50600b5461010090046001600160a01b0316610534565b348015610c3f57600080fd5b5061056c610c4e3660046153b8565b612d59565b348015610c5f57600080fd5b506104cc610c6e3660046157e0565b612ea9565b348015610c7f57600080fd5b50610507612ed4565b348015610c9457600080fd5b50610499601c5481565b348015610caa57600080fd5b5061056c610cb936600461536c565b612ee3565b348015610cca57600080fd5b50601354610534906001600160a01b031681565b348015610cea57600080fd5b5061049960145481565b348015610d0057600080fd5b50610499600081565b348015610d1557600080fd5b5061056c610d2436600461554b565b612f89565b348015610d3557600080fd5b5061056c610d4436600461536c565b612f94565b348015610d5557600080fd5b50610499610d643660046157c8565b613012565b348015610d7557600080fd5b5061056c610d84366004615616565b6130b6565b348015610d9557600080fd5b50610499601e5481565b348015610dab57600080fd5b5061056c610dba3660046155c2565b613448565b348015610dcb57600080fd5b5061056c610dda366004615488565b6134da565b348015610deb57600080fd5b506024546104cc90610100900460ff1681565b348015610e0a57600080fd5b50610499610e193660046157c8565b61350c565b348015610e2a57600080fd5b50600f54610534906001600160a01b031681565b348015610e4a57600080fd5b50610507610e593660046157c8565b61351c565b348015610e6a57600080fd5b50610499610e79366004615581565b613527565b348015610e8a57600080fd5b50610507613541565b348015610e9f57600080fd5b50610499600080516020615e4a83398151915281565b348015610ec157600080fd5b5061056c610ed03660046157e0565b61354e565b348015610ee157600080fd5b50610499600080516020615e2a83398151915281565b348015610f0357600080fd5b506104cc610f12366004615386565b6001600160a01b03918216600090815260056020908152604080832093909416825291909152205460ff1690565b348015610f4c57600080fd5b5061056c610f5b366004615671565b613573565b348015610f6c57600080fd5b5061056c610f7b36600461536c565b61365a565b348015610f8c57600080fd5b50610499600d5481565b60006001600160e01b031982166380ac58cd60e01b1480610fbb5750610fbb82613701565b92915050565b606060008054610fd090615d5f565b80601f0160208091040260200160405190810160405280929190818152602001828054610ffc90615d5f565b80156110495780601f1061101e57610100808354040283529160200191611049565b820191906000526020600020905b81548152906001019060200180831161102c57829003601f168201915b5050505050905090565b600061105e82613726565b6110c45760405162461bcd60e51b815260206004820152602c60248201527f4552433732313a20617070726f76656420717565727920666f72206e6f6e657860448201526b34b9ba32b73a103a37b5b2b760a11b60648201526084015b60405180910390fd5b506000908152600460205260409020546001600160a01b031690565b60006110eb8261286d565b9050806001600160a01b0316836001600160a01b031614156111595760405162461bcd60e51b815260206004820152602160248201527f4552433732313a20617070726f76616c20746f2063757272656e74206f776e656044820152603960f91b60648201526084016110bb565b336001600160a01b038216148061117557506111758133610f12565b6111e75760405162461bcd60e51b815260206004820152603860248201527f4552433732313a20617070726f76652063616c6c6572206973206e6f74206f7760448201527f6e6572206e6f7220617070726f76656420666f7220616c6c000000000000000060648201526084016110bb565b6111f18383613743565b505050565b600080516020615e4a83398151915261120e816137b1565b6000600e805461121d90615d5f565b9050116112645760405162461bcd60e51b815260206004820152601560248201527411db1bd8985b08155492481a5cc81b9bdd081cd95d605a1b60448201526064016110bb565b6001600160a01b0382166112af5760405162461bcd60e51b8152602060048201526012602482015271496e76616c696420746f206164647265737360701b60448201526064016110bb565b6111f182600e80546112c090615d5f565b80601f01602080910402602001604051908101604052809291908181526020018280546112ec90615d5f565b80156113395780601f1061130e57610100808354040283529160200191611339565b820191906000526020600020905b81548152906001019060200180831161131c57829003601f168201915b5050505050613527565b600080516020615e4a83398151915261135b816137b1565b60225460ff16156113ae5760405162461bcd60e51b815260206004820152601860248201527f4974656d7320616c72656164792072656769737465726564000000000000000060448201526064016110bb565b81518351146113f75760405162461bcd60e51b8152602060048201526015602482015274082e4e4c2f240d8cadccee8d040dad2e6dac2e8c6d605b1b60448201526064016110bb565b815161140a9060219060208501906150ca565b50825161141d9060209081860190615115565b5060005b835181101561147b5761146683828151811061144d57634e487b7160e01b600052603260045260246000fd5b60200260200101516017546137bb90919063ffffffff16565b6017558061147381615d94565b915050611421565b50506022805460ff191660011790555050565b611499335b826137c7565b6114b55760405162461bcd60e51b81526004016110bb90615bc3565b6111f18383836138b1565b600b546001600160a01b036101009091041633146114f05760405162461bcd60e51b81526004016110bb90615ad5565b600d829055805161150890600e90602084019061516e565b507f57bbf0b7295e3c8587fe0fa3c76592771f6a96123bf723292fd0e3933436b71f600d5460405161153c91815260200190565b60405180910390a15050565b6000828152600c6020526040902060010154611563816137b1565b6111f18383613a58565b600061157883612949565b82106115da5760405162461bcd60e51b815260206004820152602b60248201527f455243373231456e756d657261626c653a206f776e657220696e646578206f7560448201526a74206f6620626f756e647360a81b60648201526084016110bb565b506001600160a01b03919091166000908152600660209081526040808320938352929052205490565b6023818154811061161357600080fd5b6000918252602090912001546001600160a01b0316905081565b600b5460ff16156116505760405162461bcd60e51b81526004016110bb90615aab565b600260115414156116a35760405162461bcd60e51b815260206004820152601f60248201527f5265656e7472616e637947756172643a207265656e7472616e742063616c6c0060448201526064016110bb565b60026011556012546001600160a01b03166116f75760405162461bcd60e51b81526020600482015260146024820152731ad95e4818dbdb9d1c9858dd081b9bdd081cd95d60621b60448201526064016110bb565b6001600160a01b0381166117435760405162461bcd60e51b815260206004820152601360248201527257726f6e6720636c61696d206164647265737360681b60448201526064016110bb565b60195442116117945760405162461bcd60e51b815260206004820152601b60248201527f4e6f74207965742072657665616c2074696d652072656163686564000000000060448201526064016110bb565b6012546040516370a0823160e01b81523360048201526000916001600160a01b0316906370a082319060240160206040518083038186803b1580156117d857600080fd5b505afa1580156117ec573d6000803e3d6000fd5b505050506040513d601f19601f82011682018060405250810190611810919061583a565b9050600081116118325760405162461bcd60e51b81526004016110bb90615c14565b8083111580156118425750600083115b6118855760405162461bcd60e51b81526020600482015260146024820152731a5b9d985b1a590818db185a5b48185b5bdd5b9d60621b60448201526064016110bb565b60005b838110156119b957601254604051632f745c5960e01b8152336004820152600060248201819052916001600160a01b031690632f745c599060440160206040518083038186803b1580156118db57600080fd5b505afa1580156118ef573d6000803e3d6000fd5b505050506040513d601f19601f82011682018060405250810190611913919061583a565b601254604051632142170760e11b81529192506001600160a01b0316906342842e0e9061194a90339061dead9086906004016159e5565b600060405180830381600087803b15801561196457600080fd5b505af1158015611978573d6000803e3d6000fd5b50505050611987601754613ade565b601d546119a490859061199f9063ffffffff16613be0565b613d79565b505080806119b190615d94565b915050611888565b50506001601155505050565b600080516020615e4a8339815191526119dd816137b1565b60185442116119fe5760405162461bcd60e51b81526004016110bb90615b8c565b60245460ff1615611b52576000805b602354811015611b2f57600060238281548110611a3a57634e487b7160e01b600052603260045260246000fd5b6000918252602090912001546040516370a0823160e01b81523360048201526001600160a01b03909116906370a082319060240160206040518083038186803b158015611a8657600080fd5b505afa158015611a9a573d6000803e3d6000fd5b505050506040513d601f19601f82011682018060405250810190611abe919061583a565b602454909150610100900460ff1615611b035760008111611af15760405162461bcd60e51b81526004016110bb90615b0a565b611afc8360016137bb565b9250611b1c565b8015611b1c57611b148360016137bb565b925050611b2f565b5080611b2781615d94565b915050611a0d565b5060008111611b505760405162461bcd60e51b81526004016110bb90615b0a565b505b60005b83811015611bcf5760125460405163086eba7960e21b81526001600160a01b038581166004830152909116906321bae9e490602401600060405180830381600087803b158015611ba457600080fd5b505af1158015611bb8573d6000803e3d6000fd5b505050508080611bc790615d94565b915050611b55565b50505050565b6001600160a01b0381163314611c455760405162461bcd60e51b815260206004820152602f60248201527f416363657373436f6e74726f6c3a2063616e206f6e6c792072656e6f756e636560448201526e103937b632b9903337b91039b2b63360891b60648201526084016110bb565b611c4f8282613d86565b5050565b6013546001600160a01b0316611c9f5760405162461bcd60e51b81526020600482015260116024820152702bb937b7339038bab7ba32903a37b5b2b760791b60448201526064016110bb565b6018544211611cc05760405162461bcd60e51b81526004016110bb90615b8c565b60008211611ce05760405162461bcd60e51b81526004016110bb90615b4b565b601454611cee908290613ded565b8214611d3c5760405162461bcd60e51b815260206004820152601d60248201527f76616c756520616e6420616d6f756e74206973206e6f74206d6174636800000060448201526064016110bb565b6013546040516370a0823160e01b81523360048201526000916001600160a01b0316906370a082319060240160206040518083038186803b158015611d8057600080fd5b505afa158015611d94573d6000803e3d6000fd5b505050506040513d601f19601f82011682018060405250810190611db8919061583a565b9050828111611e095760405162461bcd60e51b815260206004820152601b60248201527f6c61636b206f662071756f746520746f6b656e2062616c616e6365000000000060448201526064016110bb565b60245460ff1615611f5d576000805b602354811015611f3a57600060238281548110611e4557634e487b7160e01b600052603260045260246000fd5b6000918252602090912001546040516370a0823160e01b81523360048201526001600160a01b03909116906370a082319060240160206040518083038186803b158015611e9157600080fd5b505afa158015611ea5573d6000803e3d6000fd5b505050506040513d601f19601f82011682018060405250810190611ec9919061583a565b602454909150610100900460ff1615611f0e5760008111611efc5760405162461bcd60e51b81526004016110bb90615b0a565b611f078360016137bb565b9250611f27565b8015611f2757611f1f8360016137bb565b925050611f3a565b5080611f3281615d94565b915050611e18565b5060008111611f5b5760405162461bcd60e51b81526004016110bb90615b0a565b505b6013546040516323b872dd60e01b81526001600160a01b03909116906323b872dd90611f91903390309088906004016159e5565b602060405180830381600087803b158015611fab57600080fd5b505af1158015611fbf573d6000803e3d6000fd5b505050506040513d601f19601f82011682018060405250810190611fe391906157ac565b5060005b8281101561205f5760125460405163086eba7960e21b81523360048201526001600160a01b03909116906321bae9e490602401600060405180830381600087803b15801561203457600080fd5b505af1158015612048573d6000803e3d6000fd5b50505050808061205790615d94565b915050611fe7565b506111f182613df9565b600b546001600160a01b036101009091041633146120995760405162461bcd60e51b81526004016110bb90615ad5565b6001600160a01b0383166120fb5760405162461bcd60e51b815260206004820152602360248201527f57726f6e6720537562736372697074696f6e20636f6e7472616374206164647260448201526265737360e81b60648201526084016110bb565b6026546001600160a01b0384166000908152602760205260408120919091556028546121349060019061212e90856137bb565b90614094565b6040805160c0810182526001600160a01b03878116825260208083018881528385018881526028546060860190815260808601888152600060a088018181526026805483526025909752988120975188546001600160a01b03191697169690961787559251600187015590516002860155516003850155516004840155925160059092019190915581549293506121ca83615d94565b90915550506028546121dc90836137bb565b6028556121e884612ee3565b6040516001600160a01b03851681527f17c74683f7319a4225517b5017988f05364289712fe6386d78e265035a7872259060200160405180910390a150505050565b600080516020615e2a833981519152612242816137b1565b61224a6140a0565b50565b6111f1838383604051806020016040528060008152506134da565b61227133611493565b6122d65760405162461bcd60e51b815260206004820152603060248201527f4552433732314275726e61626c653a2063616c6c6572206973206e6f74206f7760448201526f1b995c881b9bdc88185c1c1c9bdd995960821b60648201526084016110bb565b61224a81614133565b60006122ea60085490565b821061234d5760405162461bcd60e51b815260206004820152602c60248201527f455243373231456e756d657261626c653a20676c6f62616c20696e646578206f60448201526b7574206f6620626f756e647360a01b60648201526084016110bb565b6008828154811061236e57634e487b7160e01b600052603260045260246000fd5b90600052602060002001549050919050565b6013546001600160a01b0316156123cd5760405162461bcd60e51b81526020600482015260116024820152702bb937b7339038bab7ba32903a37b5b2b760791b60448201526064016110bb565b60185442116123ee5760405162461bcd60e51b81526004016110bb90615b8c565b6000341161240e5760405162461bcd60e51b81526004016110bb90615b4b565b60145461241c908290613ded565b341461246a5760405162461bcd60e51b815260206004820152601d60248201527f76616c756520616e6420616d6f756e74206973206e6f74206d6174636800000060448201526064016110bb565b6012546001600160a01b0316158015906124845750602654155b6124ca5760405162461bcd60e51b81526020600482015260176024820152761ad95e4818dbdb9d1c9858dd081a5cc81b9bdd081cd95d604a1b60448201526064016110bb565b60245460ff161561261e576000805b6023548110156125fb5760006023828154811061250657634e487b7160e01b600052603260045260246000fd5b6000918252602090912001546040516370a0823160e01b81523360048201526001600160a01b03909116906370a082319060240160206040518083038186803b15801561255257600080fd5b505afa158015612566573d6000803e3d6000fd5b505050506040513d601f19601f8201168201806040525081019061258a919061583a565b602454909150610100900460ff16156125cf57600081116125bd5760405162461bcd60e51b81526004016110bb90615b0a565b6125c88360016137bb565b92506125e8565b80156125e8576125e08360016137bb565b9250506125fb565b50806125f381615d94565b9150506124d9565b506000811161261c5760405162461bcd60e51b81526004016110bb90615b0a565b505b60005b818110156126995760125460405163086eba7960e21b81523360048201526001600160a01b03909116906321bae9e490602401600060405180830381600087803b15801561266e57600080fd5b505af1158015612682573d6000803e3d6000fd5b50505050808061269190615d94565b915050612621565b5061224a81613df9565b600080516020615e4a8339815191526126bb816137b1565b60405162461bcd60e51b8152602060048201526008602482015267111a5cd8589b195960c21b60448201526064016110bb565b600b546001600160a01b0361010090910416331461271e5760405162461bcd60e51b81526004016110bb90615ad5565b60188190556040518181527f7c8826e4db3679f20c86da0c68d37f9dbcd1d638c56717e014f93c56d14c02d1906020015b60405180910390a150565b6020818154811061276a57600080fd5b90600052602060002001600091509050805461278590615d5f565b80601f01602080910402602001604051908101604052809291908181526020018280546127b190615d5f565b80156127fe5780601f106127d3576101008083540402835291602001916127fe565b820191906000526020600020905b8154815290600101906020018083116127e157829003601f168201915b505050505081565b600080805b602154811015612867576128536021828154811061283957634e487b7160e01b600052603260045260246000fd5b9060005260206000200154836137bb90919063ffffffff16565b91508061285f81615d94565b91505061280b565b50919050565b6000818152600260205260408120546001600160a01b031680610fbb5760405162461bcd60e51b815260206004820152602960248201527f4552433732313a206f776e657220717565727920666f72206e6f6e657869737460448201526832b73a103a37b5b2b760b91b60648201526084016110bb565b600b546001600160a01b036101009091041633146129145760405162461bcd60e51b81526004016110bb90615ad5565b60198190556040518181527fa7ade4ab976b6643a971383d9822fb7c2fce66aa2e497d88c3b4f1475ea2b2e09060200161274f565b60006001600160a01b0382166129b45760405162461bcd60e51b815260206004820152602a60248201527f4552433732313a2062616c616e636520717565727920666f7220746865207a65604482015269726f206164647265737360b01b60648201526084016110bb565b506001600160a01b031660009081526003602052604090205490565b600b546001600160a01b03610100909104163314612a005760405162461bcd60e51b81526004016110bb90615ad5565b612a0a600061413c565b565b600b546001600160a01b03610100909104163314612a3c5760405162461bcd60e51b81526004016110bb90615ad5565b600f80546001600160a01b0319166001600160a01b038316179055612a6f600080516020615e4a83398151915282613a58565b600f546040516001600160a01b0390911681527f329b1203fc60a62c4a0fd3ff1554a07f92a2f117cc590422dd105811bb484ded9060200161274f565b600b546001600160a01b03610100909104163314612adc5760405162461bcd60e51b81526004016110bb90615ad5565b6001600160a01b038216612b3c5760405162461bcd60e51b815260206004820152602160248201527f57726f6e67204d797374657279426f7820636f6e7472616374206164647265736044820152607360f81b60648201526084016110bb565b601280546001600160a01b0319166001600160a01b038416908117909155601482905560408051918252602082018390527fd46fcdc06972a446de426e47c59c6a0c4581b5c0116ac49a2efc3e7d23bdfe72910161153c565b600b546001600160a01b03610100909104163314612bc55760405162461bcd60e51b81526004016110bb90615ad5565b612bdd600080516020615e2a83398151915282613a58565b604080516001600160a01b038316815260208101829052600b918101919091526a5041555345525f524f4c4560a81b60608201527f0578acc86b18d67c13a5e6eed8c670fb7052f530b48a2acb167d6ca77509a3849060800161274f565b600080516020615e2a833981519152612c53816137b1565b61224a614196565b43601e8190555060007f00000000000000000000000000000000000000000000000000000000000000006001600160a01b031663699b328a346040518263ffffffff1660e01b81526004016020604051808303818588803b158015612cbf57600080fd5b505af1158015612cd3573d6000803e3d6000fd5b50505050506040513d601f19601f82011682018060405250810190612cf8919061583a565b90503481101561224a57336108fc612d108334615d05565b6040518115909202916000818181858888f19350505050158015611c4f573d6000803e3d6000fd5b60218181548110612d4857600080fd5b600091825260209091200154905081565b600b546001600160a01b03610100909104163314612d895760405162461bcd60e51b81526004016110bb90615ad5565b6001600160a01b038316612ddf5760405162461bcd60e51b815260206004820152601760248201527f696e76616c6964207061796d656e74206164647265737300000000000000000060448201526064016110bb565b6001600160a01b038216612e355760405162461bcd60e51b815260206004820152601860248201527f696e76616c69642074726561737572792061646472657373000000000000000060448201526064016110bb565b601a80546001600160a01b038086166001600160a01b03199283168117909355601b8054918616919092168117909155601c8390556040517fe2be3027f197494650b7a98fd1cae67dacf615bd1d8bb05102999676f116386692612e9c92909185906159e5565b60405180910390a1505050565b6000918252600c602090815260408084206001600160a01b0393909316845291905290205460ff1690565b606060018054610fd090615d5f565b600b546001600160a01b03610100909104163314612f135760405162461bcd60e51b81526004016110bb90615ad5565b612f2b600080516020615e4a83398151915282613a58565b604080516001600160a01b038316815260208101829052600b918101919091526a4d494e5445525f524f4c4560a81b60608201527f0578acc86b18d67c13a5e6eed8c670fb7052f530b48a2acb167d6ca77509a3849060800161274f565b611c4f3383836141ee565b600b546001600160a01b03610100909104163314612fc45760405162461bcd60e51b81526004016110bb90615ad5565b601380546001600160a01b0319166001600160a01b0383169081179091556040519081527fca92c759228172fe3894a344908fd20dfd37ba561b5af191f1f5b02ee03881fc9060200161274f565b6040516314c1dc4d60e31b81526004810182905260009081906001600160a01b037f0000000000000000000000000000000000000000000000000000000000000000169063a60ee2689060240160206040518083038186803b15801561307757600080fd5b505afa15801561308b573d6000803e3d6000fd5b505050506040513d601f19601f820116820180604052508101906130af919061583a565b9392505050565b600b5460ff16156130d95760405162461bcd60e51b81526004016110bb90615aab565b6002601154141561312c5760405162461bcd60e51b815260206004820152601f60248201527f5265656e7472616e637947756172643a207265656e7472616e742063616c6c0060448201526064016110bb565b60026011556012546001600160a01b03166131805760405162461bcd60e51b81526020600482015260146024820152731ad95e4818dbdb9d1c9858dd081b9bdd081cd95d60621b60448201526064016110bb565b6001600160a01b0382166131cc5760405162461bcd60e51b815260206004820152601360248201527257726f6e6720636c61696d206164647265737360681b60448201526064016110bb565b601954421161321d5760405162461bcd60e51b815260206004820152601b60248201527f4e6f74207965742072657665616c2074696d652072656163686564000000000060448201526064016110bb565b6012546040516370a0823160e01b81523360048201526000916001600160a01b0316906370a082319060240160206040518083038186803b15801561326157600080fd5b505afa158015613275573d6000803e3d6000fd5b505050506040513d601f19601f82011682018060405250810190613299919061583a565b9050600081116132bb5760405162461bcd60e51b81526004016110bb90615c14565b8082111580156132cb5750600082115b61330e5760405162461bcd60e51b81526020600482015260146024820152731a5b9d985b1a590818db185a5b48185b5bdd5b9d60621b60448201526064016110bb565b60005b8281101561343d57601254604051632f745c5960e01b8152336004820152600060248201819052916001600160a01b031690632f745c599060440160206040518083038186803b15801561336457600080fd5b505afa158015613378573d6000803e3d6000fd5b505050506040513d601f19601f8201168201806040525081019061339c919061583a565b601254604051632142170760e11b81529192506001600160a01b0316906342842e0e906133d390339061dead9086906004016159e5565b600060405180830381600087803b1580156133ed57600080fd5b505af1158015613401573d6000803e3d6000fd5b50505050613410601754613ade565b601d5461342890869061199f9063ffffffff16613be0565b5050808061343590615d94565b915050613311565b505060016011555050565b600080516020615e4a833981519152613460816137b1565b6001600160a01b0384166134ab5760405162461bcd60e51b8152602060048201526012602482015271496e76616c696420746f206164647265737360701b60448201526064016110bb565b60005b828110156134d3576134c08585613527565b50806134cb81615d94565b9150506134ae565b5050505050565b6134e433836137c7565b6135005760405162461bcd60e51b81526004016110bb90615bc3565b611bcf848484846142bd565b60168181548110612d4857600080fd5b6060610fbb826142f0565b6000600080516020615e4a8339815191526126bb816137b1565b600e805461278590615d5f565b6000828152600c6020526040902060010154613569816137b1565b6111f18383613d86565b600b546001600160a01b036101009091041633146135a35760405162461bcd60e51b81526004016110bb90615ad5565b811561363e5760005b8281101561362f5760238484838181106135d657634e487b7160e01b600052603260045260246000fd5b90506020020160208101906135eb919061536c565b81546001810183556000928352602090922090910180546001600160a01b0319166001600160a01b039092169190911790558061362781615d94565b9150506135ac565b506024805460ff191660011790555b602480549115156101000261ff00199092169190911790555050565b600b546001600160a01b0361010090910416331461368a5760405162461bcd60e51b81526004016110bb90615ad5565b6001600160a01b0381166136ef5760405162461bcd60e51b815260206004820152602660248201527f4f776e61626c653a206e6577206f776e657220697320746865207a65726f206160448201526564647265737360d01b60648201526084016110bb565b61224a8161413c565b80546001019055565b60006001600160e01b03198216637965db0b60e01b1480610fbb5750610fbb8261445f565b6000908152600260205260409020546001600160a01b0316151590565b600081815260046020526040902080546001600160a01b0319166001600160a01b03841690811790915581906137788261286d565b6001600160a01b03167f8c5be1e5ebec7d5bd14f71427d1e84f3dd0314c0f7b2291e5b200ac8c7c3b92560405160405180910390a45050565b61224a8133614484565b60006130af8284615cba565b60006137d282613726565b6138335760405162461bcd60e51b815260206004820152602c60248201527f4552433732313a206f70657261746f7220717565727920666f72206e6f6e657860448201526b34b9ba32b73a103a37b5b2b760a11b60648201526084016110bb565b600061383e8361286d565b9050806001600160a01b0316846001600160a01b0316148061388557506001600160a01b0380821660009081526005602090815260408083209388168352929052205460ff165b806138a95750836001600160a01b031661389e84611053565b6001600160a01b0316145b949350505050565b826001600160a01b03166138c48261286d565b6001600160a01b0316146139285760405162461bcd60e51b815260206004820152602560248201527f4552433732313a207472616e736665722066726f6d20696e636f72726563742060448201526437bbb732b960d91b60648201526084016110bb565b6001600160a01b03821661398a5760405162461bcd60e51b8152602060048201526024808201527f4552433732313a207472616e7366657220746f20746865207a65726f206164646044820152637265737360e01b60648201526084016110bb565b6139958383836144e8565b6139a0600082613743565b6001600160a01b03831660009081526003602052604081208054600192906139c9908490615d05565b90915550506001600160a01b03821660009081526003602052604081208054600192906139f7908490615cba565b909155505060008181526002602052604080822080546001600160a01b0319166001600160a01b0386811691821790925591518493918716917fddf252ad1be2c89b69c2b068fc378daa952ba7f163c4a11628f55a4df523b3ef91a4505050565b613a628282612ea9565b611c4f576000828152600c602090815260408083206001600160a01b03851684529091529020805460ff19166001179055613a9a3390565b6001600160a01b0316816001600160a01b0316837f2f8788117e7eff1d82e926ec794901d17c78024a50270940304540a733656f0d60405160405180910390a45050565b6000601e5411613afe57634e487b7160e01b600052600160045260246000fd5b601f54601e546040516324cbbfc160e01b815263ffffffff84166004820152602481019290925260448201527f00000000000000000000000000000000000000000000000000000000000000006001600160a01b0316906324cbbfc19060640160206040518083038186803b158015613b7657600080fd5b505afa158015613b8a573d6000803e3d6000fd5b505050506040513d601f19601f82011682018060405250810190613bae91906158d5565b601d805463ffffffff191663ffffffff92909216919091179055601f8054906000613bd883615d94565b919050555050565b6060600080805b602054811015613c3957613c156021828154811061283957634e487b7160e01b600052603260045260246000fd5b915081851015613c2757809250613c39565b80613c3181615d94565b915050613be7565b50601754613c48906001614094565b601781905550613c8d600160218481548110613c7457634e487b7160e01b600052603260045260246000fd5b906000526020600020015461409490919063ffffffff16565b60218381548110613cae57634e487b7160e01b600052603260045260246000fd5b906000526020600020018190555060208281548110613cdd57634e487b7160e01b600052603260045260246000fd5b906000526020600020018054613cf290615d5f565b80601f0160208091040260200160405190810160405280929190818152602001828054613d1e90615d5f565b8015613d6b5780601f10613d4057610100808354040283529160200191613d6b565b820191906000526020600020905b815481529060010190602001808311613d4e57829003601f168201915b505050505092505050919050565b6000806138a98484614516565b613d908282612ea9565b15611c4f576000828152600c602090815260408083206001600160a01b0385168085529252808320805460ff1916905551339285917ff6391f5c32d9c69d2a47ea670b442974b53935d1edc7fd64eb21e047a839171b9190a45050565b60006130af8284615ce6565b6012546001600160a01b0316613e4b5760405162461bcd60e51b81526020600482015260176024820152761ad95e4818dbdb9d1c9858dd081a5cc81b9bdd081cd95d604a1b60448201526064016110bb565b60265415613e9b5760405162461bcd60e51b815260206004820152601e60248201527f6d797374657279626f7820696e76616c6964206d6574686f642063616c6c000060448201526064016110bb565b601a546001600160a01b0316613ef35760405162461bcd60e51b815260206004820152601a60248201527f7061796d656e742061646472657373206973206e6f742073657400000000000060448201526064016110bb565b6000613f0a60145483613ded90919063ffffffff16565b90506000613f2f6103e8613f29601c5485613ded90919063ffffffff16565b90614546565b90506000613f3d8383614094565b6013549091506001600160a01b03161561406857601354601b5460405163a9059cbb60e01b81526001600160a01b0391821660048201526024810185905291169063a9059cbb90604401602060405180830381600087803b158015613fa157600080fd5b505af1158015613fb5573d6000803e3d6000fd5b505050506040513d601f19601f82011682018060405250810190613fd991906157ac565b50601354601a5460405163a9059cbb60e01b81526001600160a01b0391821660048201526024810184905291169063a9059cbb90604401602060405180830381600087803b15801561402a57600080fd5b505af115801561403e573d6000803e3d6000fd5b505050506040513d601f19601f8201168201806040525081019061406291906157ac565b50611bcf565b601b5461407e906001600160a01b031683614552565b601a54611bcf906001600160a01b031682614552565b60006130af8284615d05565b600b5460ff166140e95760405162461bcd60e51b815260206004820152601460248201527314185d5cd8589b194e881b9bdd081c185d5cd95960621b60448201526064016110bb565b600b805460ff191690557f5db9ee0a495bf2e6ff9c91a7834c1ba4fdd244a5e8aa4e537bd38aeae4b073aa335b6040516001600160a01b03909116815260200160405180910390a1565b61224a8161462c565b600b80546001600160a01b03838116610100818102610100600160a81b031985161790945560405193909204169182907f8be0079c531659141344cd1fd0a4f28419497f9722a3daafe3b4186f6b6457e090600090a35050565b600b5460ff16156141b95760405162461bcd60e51b81526004016110bb90615aab565b600b805460ff191660011790557f62e78cea01bee320cd4e420270b5ea74000d11b0c9f74754ebdbfc544b05a2586141163390565b816001600160a01b0316836001600160a01b031614156142505760405162461bcd60e51b815260206004820152601960248201527f4552433732313a20617070726f766520746f2063616c6c65720000000000000060448201526064016110bb565b6001600160a01b03838116600081815260056020908152604080832094871680845294825291829020805460ff191686151590811790915591519182527f17307eab39ab6107e8899845ad3d59bd9653f200f220920489ca2b5937696c31910160405180910390a3505050565b6142c88484846138b1565b6142d48484848461466c565b611bcf5760405162461bcd60e51b81526004016110bb90615a59565b60606142fb82613726565b6143615760405162461bcd60e51b815260206004820152603160248201527f45524337323155524953746f726167653a2055524920717565727920666f72206044820152703737b732bc34b9ba32b73a103a37b5b2b760791b60648201526084016110bb565b6000828152600a60205260408120805461437a90615d5f565b80601f01602080910402602001604051908101604052809291908181526020018280546143a690615d5f565b80156143f35780601f106143c8576101008083540402835291602001916143f3565b820191906000526020600020905b8154815290600101906020018083116143d657829003601f168201915b50505050509050600061441160408051602081019091526000815290565b9050805160001415614424575092915050565b81511561445657808260405160200161443e929190615941565b60405160208183030381529060405292505050919050565b6138a984614779565b60006001600160e01b0319821663780e9d6360e01b1480610fbb5750610fbb82614850565b61448e8282612ea9565b611c4f576144a6816001600160a01b031660146148a0565b6144b18360206148a0565b6040516020016144c2929190615970565b60408051601f198184030181529082905262461bcd60e51b82526110bb91600401615a46565b600b5460ff161561450b5760405162461bcd60e51b81526004016110bb90615aab565b6111f1838383614a81565b60008061452260105490565b9050614532601080546001019055565b61453c8482614b39565b6130af8184614b53565b60006130af8284615cd2565b604080516000808252602082019092526001600160a01b03841690839060405161457c9190615925565b60006040518083038185875af1925050503d80600081146145b9576040519150601f19603f3d011682016040523d82523d6000602084013e6145be565b606091505b50509050806111f15760405162461bcd60e51b815260206004820152603460248201527f5472616e7366657248656c7065723a3a736166655472616e736665724554483a60448201527308115512081d1c985b9cd9995c8819985a5b195960621b60648201526084016110bb565b61463581614bde565b6000818152600a60205260409020805461464e90615d5f565b15905061224a576000818152600a6020526040812061224a916151e1565b60006001600160a01b0384163b1561476e57604051630a85bd0160e11b81526001600160a01b0385169063150b7a02906146b0903390899088908890600401615a09565b602060405180830381600087803b1580156146ca57600080fd5b505af19250505080156146fa575060408051601f3d908101601f191682019092526146f79181019061581e565b60015b614754573d808015614728576040519150601f19603f3d011682016040523d82523d6000602084013e61472d565b606091505b50805161474c5760405162461bcd60e51b81526004016110bb90615a59565b805181602001fd5b6001600160e01b031916630a85bd0160e11b1490506138a9565b506001949350505050565b606061478482613726565b6147e85760405162461bcd60e51b815260206004820152602f60248201527f4552433732314d657461646174613a2055524920717565727920666f72206e6f60448201526e3732bc34b9ba32b73a103a37b5b2b760891b60648201526084016110bb565b60006147ff60408051602081019091526000815290565b9050600081511161481f57604051806020016040528060008152506130af565b8061482984614c85565b60405160200161483a929190615941565b6040516020818303038152906040529392505050565b60006001600160e01b031982166380ac58cd60e01b148061488157506001600160e01b03198216635b5e139f60e01b145b80610fbb57506301ffc9a760e01b6001600160e01b0319831614610fbb565b606060006148af836002615ce6565b6148ba906002615cba565b6001600160401b038111156148df57634e487b7160e01b600052604160045260246000fd5b6040519080825280601f01601f191660200182016040528015614909576020820181803683370190505b509050600360fc1b8160008151811061493257634e487b7160e01b600052603260045260246000fd5b60200101906001600160f81b031916908160001a905350600f60fb1b8160018151811061496f57634e487b7160e01b600052603260045260246000fd5b60200101906001600160f81b031916908160001a9053506000614993846002615ce6565b61499e906001615cba565b90505b6001811115614a32576f181899199a1a9b1b9c1cb0b131b232b360811b85600f16601081106149e057634e487b7160e01b600052603260045260246000fd5b1a60f81b828281518110614a0457634e487b7160e01b600052603260045260246000fd5b60200101906001600160f81b031916908160001a90535060049490941c93614a2b81615d48565b90506149a1565b5083156130af5760405162461bcd60e51b815260206004820181905260248201527f537472696e67733a20686578206c656e67746820696e73756666696369656e7460448201526064016110bb565b6001600160a01b038316614adc57614ad781600880546000838152600960205260408120829055600182018355919091527ff3f7a9fe364faab93b216da50a3214154f22a0a2b415b23a84c8169e8b636ee30155565b614aff565b816001600160a01b0316836001600160a01b031614614aff57614aff8382614d9e565b6001600160a01b038216614b16576111f181614e3b565b826001600160a01b0316826001600160a01b0316146111f1576111f18282614f14565b611c4f828260405180602001604052806000815250614f58565b614b5c82613726565b614bbf5760405162461bcd60e51b815260206004820152602e60248201527f45524337323155524953746f726167653a2055524920736574206f66206e6f6e60448201526d32bc34b9ba32b73a103a37b5b2b760911b60648201526084016110bb565b6000828152600a6020908152604090912082516111f19284019061516e565b6000614be98261286d565b9050614bf7816000846144e8565b614c02600083613743565b6001600160a01b0381166000908152600360205260408120805460019290614c2b908490615d05565b909155505060008281526002602052604080822080546001600160a01b0319169055518391906001600160a01b038416907fddf252ad1be2c89b69c2b068fc378daa952ba7f163c4a11628f55a4df523b3ef908390a45050565b606081614ca95750506040805180820190915260018152600360fc1b602082015290565b8160005b8115614cd35780614cbd81615d94565b9150614ccc9050600a83615cd2565b9150614cad565b6000816001600160401b03811115614cfb57634e487b7160e01b600052604160045260246000fd5b6040519080825280601f01601f191660200182016040528015614d25576020820181803683370190505b5090505b84156138a957614d3a600183615d05565b9150614d47600a86615daf565b614d52906030615cba565b60f81b818381518110614d7557634e487b7160e01b600052603260045260246000fd5b60200101906001600160f81b031916908160001a905350614d97600a86615cd2565b9450614d29565b60006001614dab84612949565b614db59190615d05565b600083815260076020526040902054909150808214614e08576001600160a01b03841660009081526006602090815260408083208584528252808320548484528184208190558352600790915290208190555b5060009182526007602090815260408084208490556001600160a01b039094168352600681528383209183525290812055565b600854600090614e4d90600190615d05565b60008381526009602052604081205460088054939450909284908110614e8357634e487b7160e01b600052603260045260246000fd5b906000526020600020015490508060088381548110614eb257634e487b7160e01b600052603260045260246000fd5b6000918252602080832090910192909255828152600990915260408082208490558582528120556008805480614ef857634e487b7160e01b600052603160045260246000fd5b6001900381819060005260206000200160009055905550505050565b6000614f1f83612949565b6001600160a01b039093166000908152600660209081526040808320868452825280832085905593825260079052919091209190915550565b614f628383614f8b565b614f6f600084848461466c565b6111f15760405162461bcd60e51b81526004016110bb90615a59565b6001600160a01b038216614fe15760405162461bcd60e51b815260206004820181905260248201527f4552433732313a206d696e7420746f20746865207a65726f206164647265737360448201526064016110bb565b614fea81613726565b156150375760405162461bcd60e51b815260206004820152601c60248201527f4552433732313a20746f6b656e20616c7265616479206d696e7465640000000060448201526064016110bb565b615043600083836144e8565b6001600160a01b038216600090815260036020526040812080546001929061506c908490615cba565b909155505060008181526002602052604080822080546001600160a01b0319166001600160a01b03861690811790915590518392907fddf252ad1be2c89b69c2b068fc378daa952ba7f163c4a11628f55a4df523b3ef908290a45050565b828054828255906000526020600020908101928215615105579160200282015b828111156151055782518255916020019190600101906150ea565b50615111929150615217565b5090565b828054828255906000526020600020908101928215615162579160200282015b82811115615162578251805161515291849160209091019061516e565b5091602001919060010190615135565b5061511192915061522c565b82805461517a90615d5f565b90600052602060002090601f01602090048101928261519c5760008555615105565b82601f106151b557805160ff1916838001178555615105565b8280016001018555821561510557918201828111156151055782518255916020019190600101906150ea565b5080546151ed90615d5f565b6000825580601f106151fd575050565b601f01602090049060005260206000209081019061224a91905b5b808211156151115760008155600101615218565b8082111561511157600061524082826151e1565b5060010161522c565b60006001600160401b0383111561526257615262615def565b615275601f8401601f1916602001615c67565b905082815283838301111561528957600080fd5b828260208301376000602084830101529392505050565b80356001600160a01b03811681146152b757600080fd5b919050565b600082601f8301126152cc578081fd5b813560206152e16152dc83615c97565b615c67565b80838252828201915082860187848660051b8901011115615300578586fd5b855b858110156153405781356001600160401b0381111561531f578788fd5b61532d8a87838c010161534d565b8552509284019290840190600101615302565b5090979650505050505050565b600082601f83011261535d578081fd5b6130af83833560208501615249565b60006020828403121561537d578081fd5b6130af826152a0565b60008060408385031215615398578081fd5b6153a1836152a0565b91506153af602084016152a0565b90509250929050565b6000806000606084860312156153cc578081fd5b6153d5846152a0565b92506153e3602085016152a0565b9150604084013590509250925092565b60008060008060006080868803121561540a578081fd5b615413866152a0565b9450615421602087016152a0565b93506040860135925060608601356001600160401b0380821115615443578283fd5b818801915088601f830112615456578283fd5b813581811115615464578384fd5b896020828501011115615475578384fd5b9699959850939650602001949392505050565b6000806000806080858703121561549d578384fd5b6154a6856152a0565b93506154b4602086016152a0565b92506040850135915060608501356001600160401b038111156154d5578182fd5b8501601f810187136154e5578182fd5b6154f487823560208401615249565b91505092959194509250565b60008060408385031215615512578182fd5b61551b836152a0565b915060208301356001600160401b03811115615535578182fd5b615541858286016152bc565b9150509250929050565b6000806040838503121561555d578182fd5b615566836152a0565b9150602083013561557681615e05565b809150509250929050565b60008060408385031215615593578182fd5b61559c836152a0565b915060208301356001600160401b038111156155b6578182fd5b6155418582860161534d565b6000806000606084860312156155d6578081fd5b6155df846152a0565b925060208401356001600160401b038111156155f9578182fd5b6156058682870161534d565b925050604084013590509250925092565b60008060408385031215615628578182fd5b615631836152a0565b946020939093013593505050565b600080600060608486031215615653578081fd5b61565c846152a0565b95602085013595506040909401359392505050565b600080600060408486031215615685578081fd5b83356001600160401b038082111561569b578283fd5b818601915086601f8301126156ae578283fd5b8135818111156156bc578384fd5b8760208260051b85010111156156d0578384fd5b602092830195509350508401356156e681615e05565b809150509250925092565b60008060408385031215615703578182fd5b82356001600160401b0380821115615719578384fd5b615725868387016152bc565b935060209150818501358181111561573b578384fd5b85019050601f8101861361574d578283fd5b803561575b6152dc82615c97565b80828252848201915084840189868560051b870101111561577a578687fd5b8694505b8385101561579c57803583526001949094019391850191850161577e565b5080955050505050509250929050565b6000602082840312156157bd578081fd5b81516130af81615e05565b6000602082840312156157d9578081fd5b5035919050565b600080604083850312156157f2578182fd5b823591506153af602084016152a0565b600060208284031215615813578081fd5b81356130af81615e13565b60006020828403121561582f578081fd5b81516130af81615e13565b60006020828403121561584b578081fd5b5051919050565b60008060408385031215615864578182fd5b8235915060208301356001600160401b038111156155b6578182fd5b60008060408385031215615892578182fd5b50508035926020909101359150565b6000806000606084860312156158b5578081fd5b83359250602084013591506158cc604085016152a0565b90509250925092565b6000602082840312156158e6578081fd5b815163ffffffff811681146130af578182fd5b60008151808452615911816020860160208601615d1c565b601f01601f19169290920160200192915050565b60008251615937818460208701615d1c565b9190910192915050565b60008351615953818460208801615d1c565b835190830190615967818360208801615d1c565b01949350505050565b7f416363657373436f6e74726f6c3a206163636f756e74200000000000000000008152600083516159a8816017850160208801615d1c565b7001034b99036b4b9b9b4b733903937b6329607d1b60179184019182015283516159d9816028840160208801615d1c565b01602801949350505050565b6001600160a01b039384168152919092166020820152604081019190915260600190565b6001600160a01b0385811682528416602082015260408101839052608060608201819052600090615a3c908301846158f9565b9695505050505050565b6020815260006130af60208301846158f9565b60208082526032908201527f4552433732313a207472616e7366657220746f206e6f6e20455243373231526560408201527131b2b4bb32b91034b6b83632b6b2b73a32b960711b606082015260800190565b60208082526010908201526f14185d5cd8589b194e881c185d5cd95960821b604082015260600190565b6020808252818101527f4f776e61626c653a2063616c6c6572206973206e6f7420746865206f776e6572604082015260600190565b60208082526021908201527f73686f756c642062757920616c6c20636f6c6c656374696f6e73206265666f726040820152606560f81b606082015260800190565b60208082526021908201527f76616c75652073686f756c642062652067726561746572207468616e207a65726040820152606f60f81b606082015260800190565b6020808252601b908201527f4e6f7420796574206c61756e63682074696d6520726561636865640000000000604082015260600190565b60208082526031908201527f4552433732313a207472616e736665722063616c6c6572206973206e6f74206f6040820152701ddb995c881b9bdc88185c1c1c9bdd9959607a1b606082015260800190565b60208082526033908201527f4f6e6c79206f776e657273206f66204d797374657279426f782063616e20636c60408201527261696d20756e626f786564206974656d28732960681b606082015260800190565b604051601f8201601f191681016001600160401b0381118282101715615c8f57615c8f615def565b604052919050565b60006001600160401b03821115615cb057615cb0615def565b5060051b60200190565b60008219821115615ccd57615ccd615dc3565b500190565b600082615ce157615ce1615dd9565b500490565b6000816000190483118215151615615d0057615d00615dc3565b500290565b600082821015615d1757615d17615dc3565b500390565b60005b83811015615d37578181015183820152602001615d1f565b83811115611bcf5750506000910152565b600081615d5757615d57615dc3565b506000190190565b600181811c90821680615d7357607f821691505b6020821081141561286757634e487b7160e01b600052602260045260246000fd5b6000600019821415615da857615da8615dc3565b5060010190565b600082615dbe57615dbe615dd9565b500690565b634e487b7160e01b600052601160045260246000fd5b634e487b7160e01b600052601260045260246000fd5b634e487b7160e01b600052604160045260246000fd5b801515811461224a57600080fd5b6001600160e01b03198116811461224a57600080fdfe65d7a28e3265b37a6474929f336521b332c1681b933f6cb9f3376673440d862a9f2df0fed2c77648de5860a4cc508cd0818c85b8b8a1ab4ceeef8d981c8956a6a26469706673582212205f2c8c9fd0882b21f1b5244212c4fcca6c6a33f000a28fd332c2dd8814d387a064736f6c634300080400334f776e61626c653a2063616c6c6572206973206e6f7420746865206f776e657265d7a28e3265b37a6474929f336521b332c1681b933f6cb9f3376673440d862a9f2df0fed2c77648de5860a4cc508cd0818c85b8b8a1ab4ceeef8d981c8956a6",
  "linkReferences": {},
  "deployedLinkReferences": {}
}