{
  "_format": "hh-sol-artifact-1",
  "contractName": "MysteryBox",
  "sourceName": "contracts/MysteryBox.sol",
  "abi": [
    {
      "inputs": [
        {
          "internalType": "string",
          "name": "name",
          "type": "string"
        },
        {
          "internalType": "string",
          "name": "symbol",
          "type": "string"
        },
        {
          "internalType": "address",
          "name": "_key",
          "type": "address"
        },
        {
          "internalType": "address",
          "name": "_quote",
          "type": "address"
        },
        {
          "internalType": "address",
          "name": "_payment",
          "type": "address"
        },
        {
          "internalType": "address",
          "name": "_treasury",
          "type": "address"
        },
        {
          "internalType": "uint256[]",
          "name": "configValues",
          "type": "uint256[]"
        },
        {
          "internalType": "contract IWitnetRandomness",
          "name": "_witnetRandomness",
          "type": "address"
        }
      ],
      "stateMutability": "nonpayable",
      "type": "constructor"
    },
    {
      "anonymous": false,
      "inputs": [
        {
          "indexed": true,
          "internalType": "address",
          "name": "owner",
          "type": "address"
        },
        {
          "indexed": true,
          "internalType": "address",
          "name": "approved",
          "type": "address"
        },
        {
          "indexed": true,
          "internalType": "uint256",
          "name": "tokenId",
          "type": "uint256"
        }
      ],
      "name": "Approval",
      "type": "event"
    },
    {
      "anonymous": false,
      "inputs": [
        {
          "indexed": true,
          "internalType": "address",
          "name": "owner",
          "type": "address"
        },
        {
          "indexed": true,
          "internalType": "address",
          "name": "operator",
          "type": "address"
        },
        {
          "indexed": false,
          "internalType": "bool",
          "name": "approved",
          "type": "bool"
        }
      ],
      "name": "ApprovalForAll",
      "type": "event"
    },
    {
      "anonymous": false,
      "inputs": [
        {
          "indexed": false,
          "internalType": "address",
          "name": "",
          "type": "address"
        },
        {
          "indexed": false,
          "internalType": "string",
          "name": "",
          "type": "string"
        }
      ],
      "name": "Grant",
      "type": "event"
    },
    {
      "anonymous": false,
      "inputs": [
        {
          "indexed": true,
          "internalType": "address",
          "name": "previousOwner",
          "type": "address"
        },
        {
          "indexed": true,
          "internalType": "address",
          "name": "newOwner",
          "type": "address"
        }
      ],
      "name": "OwnershipTransferred",
      "type": "event"
    },
    {
      "anonymous": false,
      "inputs": [
        {
          "indexed": false,
          "internalType": "address",
          "name": "account",
          "type": "address"
        }
      ],
      "name": "Paused",
      "type": "event"
    },
    {
      "anonymous": false,
      "inputs": [
        {
          "indexed": true,
          "internalType": "bytes32",
          "name": "role",
          "type": "bytes32"
        },
        {
          "indexed": true,
          "internalType": "bytes32",
          "name": "previousAdminRole",
          "type": "bytes32"
        },
        {
          "indexed": true,
          "internalType": "bytes32",
          "name": "newAdminRole",
          "type": "bytes32"
        }
      ],
      "name": "RoleAdminChanged",
      "type": "event"
    },
    {
      "anonymous": false,
      "inputs": [
        {
          "indexed": true,
          "internalType": "bytes32",
          "name": "role",
          "type": "bytes32"
        },
        {
          "indexed": true,
          "internalType": "address",
          "name": "account",
          "type": "address"
        },
        {
          "indexed": true,
          "internalType": "address",
          "name": "sender",
          "type": "address"
        }
      ],
      "name": "RoleGranted",
      "type": "event"
    },
    {
      "anonymous": false,
      "inputs": [
        {
          "indexed": true,
          "internalType": "bytes32",
          "name": "role",
          "type": "bytes32"
        },
        {
          "indexed": true,
          "internalType": "address",
          "name": "account",
          "type": "address"
        },
        {
          "indexed": true,
          "internalType": "address",
          "name": "sender",
          "type": "address"
        }
      ],
      "name": "RoleRevoked",
      "type": "event"
    },
    {
      "anonymous": false,
      "inputs": [
        {
          "indexed": false,
          "internalType": "address",
          "name": "",
          "type": "address"
        },
        {
          "indexed": false,
          "internalType": "address",
          "name": "",
          "type": "address"
        },
        {
          "indexed": false,
          "internalType": "uint256",
          "name": "",
          "type": "uint256"
        }
      ],
      "name": "SetConfig",
      "type": "event"
    },
    {
      "anonymous": false,
      "inputs": [
        {
          "indexed": false,
          "internalType": "uint256",
          "name": "",
          "type": "uint256"
        }
      ],
      "name": "SetHardCap",
      "type": "event"
    },
    {
      "anonymous": false,
      "inputs": [
        {
          "indexed": false,
          "internalType": "uint256",
          "name": "",
          "type": "uint256"
        }
      ],
      "name": "SetLaunch",
      "type": "event"
    },
    {
      "anonymous": false,
      "inputs": [
        {
          "indexed": false,
          "internalType": "uint256",
          "name": "",
          "type": "uint256"
        }
      ],
      "name": "SetLockup",
      "type": "event"
    },
    {
      "anonymous": false,
      "inputs": [
        {
          "indexed": false,
          "internalType": "address",
          "name": "",
          "type": "address"
        },
        {
          "indexed": false,
          "internalType": "uint256",
          "name": "",
          "type": "uint256"
        }
      ],
      "name": "SetMboxKey",
      "type": "event"
    },
    {
      "anonymous": false,
      "inputs": [
        {
          "indexed": false,
          "internalType": "address",
          "name": "",
          "type": "address"
        }
      ],
      "name": "SetMysteryBox",
      "type": "event"
    },
    {
      "anonymous": false,
      "inputs": [
        {
          "indexed": false,
          "internalType": "address",
          "name": "",
          "type": "address"
        }
      ],
      "name": "SetQuote",
      "type": "event"
    },
    {
      "anonymous": false,
      "inputs": [
        {
          "indexed": false,
          "internalType": "address",
          "name": "",
          "type": "address"
        }
      ],
      "name": "SetSubscription",
      "type": "event"
    },
    {
      "anonymous": false,
      "inputs": [
        {
          "indexed": true,
          "internalType": "address",
          "name": "from",
          "type": "address"
        },
        {
          "indexed": true,
          "internalType": "address",
          "name": "to",
          "type": "address"
        },
        {
          "indexed": true,
          "internalType": "uint256",
          "name": "tokenId",
          "type": "uint256"
        }
      ],
      "name": "Transfer",
      "type": "event"
    },
    {
      "anonymous": false,
      "inputs": [
        {
          "indexed": false,
          "internalType": "address",
          "name": "account",
          "type": "address"
        }
      ],
      "name": "Unpaused",
      "type": "event"
    },
    {
      "inputs": [],
      "name": "DEFAULT_ADMIN_ROLE",
      "outputs": [
        {
          "internalType": "bytes32",
          "name": "",
          "type": "bytes32"
        }
      ],
      "stateMutability": "view",
      "type": "function"
    },
    {
      "inputs": [],
      "name": "MINTER_ROLE",
      "outputs": [
        {
          "internalType": "bytes32",
          "name": "",
          "type": "bytes32"
        }
      ],
      "stateMutability": "view",
      "type": "function"
    },
    {
      "inputs": [],
      "name": "PAUSER_ROLE",
      "outputs": [
        {
          "internalType": "bytes32",
          "name": "",
          "type": "bytes32"
        }
      ],
      "stateMutability": "view",
      "type": "function"
    },
    {
      "inputs": [
        {
          "internalType": "address",
          "name": "minter",
          "type": "address"
        }
      ],
      "name": "addMinter",
      "outputs": [],
      "stateMutability": "nonpayable",
      "type": "function"
    },
    {
      "inputs": [
        {
          "internalType": "address",
          "name": "pauser",
          "type": "address"
        }
      ],
      "name": "addPauser",
      "outputs": [],
      "stateMutability": "nonpayable",
      "type": "function"
    },
    {
      "inputs": [],
      "name": "andOr",
      "outputs": [
        {
          "internalType": "bool",
          "name": "",
          "type": "bool"
        }
      ],
      "stateMutability": "view",
      "type": "function"
    },
    {
      "inputs": [
        {
          "internalType": "address",
          "name": "to",
          "type": "address"
        },
        {
          "internalType": "uint256",
          "name": "tokenId",
          "type": "uint256"
        }
      ],
      "name": "approve",
      "outputs": [],
      "stateMutability": "nonpayable",
      "type": "function"
    },
    {
      "inputs": [
        {
          "internalType": "address",
          "name": "owner",
          "type": "address"
        }
      ],
      "name": "balanceOf",
      "outputs": [
        {
          "internalType": "uint256",
          "name": "",
          "type": "uint256"
        }
      ],
      "stateMutability": "view",
      "type": "function"
    },
    {
      "inputs": [
        {
          "internalType": "uint256",
          "name": "tokenId",
          "type": "uint256"
        }
      ],
      "name": "burn",
      "outputs": [],
      "stateMutability": "nonpayable",
      "type": "function"
    },
    {
      "inputs": [
        {
          "internalType": "uint256",
          "name": "index",
          "type": "uint256"
        },
        {
          "internalType": "uint256",
          "name": "amount",
          "type": "uint256"
        },
        {
          "internalType": "address",
          "name": "to",
          "type": "address"
        }
      ],
      "name": "buyItemCredit",
      "outputs": [],
      "stateMutability": "nonpayable",
      "type": "function"
    },
    {
      "inputs": [
        {
          "internalType": "uint256",
          "name": "_amount",
          "type": "uint256"
        },
        {
          "internalType": "address",
          "name": "to",
          "type": "address"
        }
      ],
      "name": "buyKeyCredit",
      "outputs": [],
      "stateMutability": "nonpayable",
      "type": "function"
    },
    {
      "inputs": [
        {
          "internalType": "uint256",
          "name": "_amount",
          "type": "uint256"
        }
      ],
      "name": "buyKeyEth",
      "outputs": [],
      "stateMutability": "payable",
      "type": "function"
    },
    {
      "inputs": [
        {
          "internalType": "uint256",
          "name": "_payment",
          "type": "uint256"
        },
        {
          "internalType": "uint256",
          "name": "_amount",
          "type": "uint256"
        }
      ],
      "name": "buyKeyQuote",
      "outputs": [],
      "stateMutability": "nonpayable",
      "type": "function"
    },
    {
      "inputs": [
        {
          "internalType": "address",
          "name": "to",
          "type": "address"
        },
        {
          "internalType": "uint256",
          "name": "amount",
          "type": "uint256"
        }
      ],
      "name": "claim",
      "outputs": [],
      "stateMutability": "nonpayable",
      "type": "function"
    },
    {
      "inputs": [
        {
          "internalType": "address",
          "name": "to",
          "type": "address"
        },
        {
          "internalType": "uint256",
          "name": "_amount",
          "type": "uint256"
        }
      ],
      "name": "claimKeys",
      "outputs": [],
      "stateMutability": "nonpayable",
      "type": "function"
    },
    {
      "inputs": [
        {
          "internalType": "uint256",
          "name": "gasPrice",
          "type": "uint256"
        }
      ],
      "name": "estimateRandomizeFee",
      "outputs": [
        {
          "internalType": "uint256",
          "name": "",
          "type": "uint256"
        }
      ],
      "stateMutability": "view",
      "type": "function"
    },
    {
      "inputs": [],
      "name": "feeRate",
      "outputs": [
        {
          "internalType": "uint256",
          "name": "",
          "type": "uint256"
        }
      ],
      "stateMutability": "view",
      "type": "function"
    },
    {
      "inputs": [],
      "name": "flagMandatory",
      "outputs": [
        {
          "internalType": "bool",
          "name": "",
          "type": "bool"
        }
      ],
      "stateMutability": "view",
      "type": "function"
    },
    {
      "inputs": [
        {
          "internalType": "uint256",
          "name": "tokenId",
          "type": "uint256"
        }
      ],
      "name": "getApproved",
      "outputs": [
        {
          "internalType": "address",
          "name": "",
          "type": "address"
        }
      ],
      "stateMutability": "view",
      "type": "function"
    },
    {
      "inputs": [],
      "name": "getItemRemains",
      "outputs": [
        {
          "internalType": "uint256",
          "name": "",
          "type": "uint256"
        }
      ],
      "stateMutability": "view",
      "type": "function"
    },
    {
      "inputs": [
        {
          "internalType": "bytes32",
          "name": "role",
          "type": "bytes32"
        }
      ],
      "name": "getRoleAdmin",
      "outputs": [
        {
          "internalType": "bytes32",
          "name": "",
          "type": "bytes32"
        }
      ],
      "stateMutability": "view",
      "type": "function"
    },
    {
      "inputs": [
        {
          "internalType": "address",
          "name": "_subAddr",
          "type": "address"
        }
      ],
      "name": "getSubInfos",
      "outputs": [
        {
          "internalType": "address",
          "name": "",
          "type": "address"
        },
        {
          "internalType": "uint256",
          "name": "",
          "type": "uint256"
        },
        {
          "internalType": "uint256",
          "name": "",
          "type": "uint256"
        }
      ],
      "stateMutability": "view",
      "type": "function"
    },
    {
      "inputs": [],
      "name": "globalURI",
      "outputs": [
        {
          "internalType": "string",
          "name": "",
          "type": "string"
        }
      ],
      "stateMutability": "view",
      "type": "function"
    },
    {
      "inputs": [
        {
          "internalType": "bytes32",
          "name": "role",
          "type": "bytes32"
        },
        {
          "internalType": "address",
          "name": "account",
          "type": "address"
        }
      ],
      "name": "grantRole",
      "outputs": [],
      "stateMutability": "nonpayable",
      "type": "function"
    },
    {
      "inputs": [],
      "name": "hardCap",
      "outputs": [
        {
          "internalType": "uint256",
          "name": "",
          "type": "uint256"
        }
      ],
      "stateMutability": "view",
      "type": "function"
    },
    {
      "inputs": [
        {
          "internalType": "bytes32",
          "name": "role",
          "type": "bytes32"
        },
        {
          "internalType": "address",
          "name": "account",
          "type": "address"
        }
      ],
      "name": "hasRole",
      "outputs": [
        {
          "internalType": "bool",
          "name": "",
          "type": "bool"
        }
      ],
      "stateMutability": "view",
      "type": "function"
    },
    {
      "inputs": [
        {
          "internalType": "address",
          "name": "owner",
          "type": "address"
        },
        {
          "internalType": "address",
          "name": "operator",
          "type": "address"
        }
      ],
      "name": "isApprovedForAll",
      "outputs": [
        {
          "internalType": "bool",
          "name": "",
          "type": "bool"
        }
      ],
      "stateMutability": "view",
      "type": "function"
    },
    {
      "inputs": [
        {
          "internalType": "uint256",
          "name": "",
          "type": "uint256"
        }
      ],
      "name": "itemAmounts",
      "outputs": [
        {
          "internalType": "uint256",
          "name": "",
          "type": "uint256"
        }
      ],
      "stateMutability": "view",
      "type": "function"
    },
    {
      "inputs": [
        {
          "internalType": "uint256",
          "name": "",
          "type": "uint256"
        }
      ],
      "name": "itemURIs",
      "outputs": [
        {
          "internalType": "string",
          "name": "",
          "type": "string"
        }
      ],
      "stateMutability": "view",
      "type": "function"
    },
    {
      "inputs": [
        {
          "internalType": "uint256",
          "name": "",
          "type": "uint256"
        }
      ],
      "name": "items",
      "outputs": [
        {
          "internalType": "uint256",
          "name": "",
          "type": "uint256"
        }
      ],
      "stateMutability": "view",
      "type": "function"
    },
    {
      "inputs": [],
      "name": "key",
      "outputs": [
        {
          "internalType": "address",
          "name": "",
          "type": "address"
        }
      ],
      "stateMutability": "view",
      "type": "function"
    },
    {
      "inputs": [],
      "name": "latestRandomizingBlock",
      "outputs": [
        {
          "internalType": "uint256",
          "name": "",
          "type": "uint256"
        }
      ],
      "stateMutability": "view",
      "type": "function"
    },
    {
      "inputs": [],
      "name": "launch",
      "outputs": [
        {
          "internalType": "uint256",
          "name": "",
          "type": "uint256"
        }
      ],
      "stateMutability": "view",
      "type": "function"
    },
    {
      "inputs": [],
      "name": "lockup",
      "outputs": [
        {
          "internalType": "uint256",
          "name": "",
          "type": "uint256"
        }
      ],
      "stateMutability": "view",
      "type": "function"
    },
    {
      "inputs": [
        {
          "internalType": "uint256",
          "name": "",
          "type": "uint256"
        }
      ],
      "name": "mandatory",
      "outputs": [
        {
          "internalType": "address",
          "name": "",
          "type": "address"
        }
      ],
      "stateMutability": "view",
      "type": "function"
    },
    {
      "inputs": [],
      "name": "mysteryBox",
      "outputs": [
        {
          "internalType": "address",
          "name": "",
          "type": "address"
        }
      ],
      "stateMutability": "view",
      "type": "function"
    },
    {
      "inputs": [],
      "name": "name",
      "outputs": [
        {
          "internalType": "string",
          "name": "",
          "type": "string"
        }
      ],
      "stateMutability": "view",
      "type": "function"
    },
    {
      "inputs": [
        {
          "internalType": "address",
          "name": "operator",
          "type": "address"
        },
        {
          "internalType": "address",
          "name": "from",
          "type": "address"
        },
        {
          "internalType": "uint256",
          "name": "tokenId",
          "type": "uint256"
        },
        {
          "internalType": "bytes",
          "name": "data",
          "type": "bytes"
        }
      ],
      "name": "onERC721Received",
      "outputs": [
        {
          "internalType": "bytes4",
          "name": "",
          "type": "bytes4"
        }
      ],
      "stateMutability": "pure",
      "type": "function"
    },
    {
      "inputs": [],
      "name": "owner",
      "outputs": [
        {
          "internalType": "address",
          "name": "",
          "type": "address"
        }
      ],
      "stateMutability": "view",
      "type": "function"
    },
    {
      "inputs": [
        {
          "internalType": "uint256",
          "name": "tokenId",
          "type": "uint256"
        }
      ],
      "name": "ownerOf",
      "outputs": [
        {
          "internalType": "address",
          "name": "",
          "type": "address"
        }
      ],
      "stateMutability": "view",
      "type": "function"
    },
    {
      "inputs": [],
      "name": "pause",
      "outputs": [],
      "stateMutability": "nonpayable",
      "type": "function"
    },
    {
      "inputs": [],
      "name": "paused",
      "outputs": [
        {
          "internalType": "bool",
          "name": "",
          "type": "bool"
        }
      ],
      "stateMutability": "view",
      "type": "function"
    },
    {
      "inputs": [],
      "name": "payment",
      "outputs": [
        {
          "internalType": "address",
          "name": "",
          "type": "address"
        }
      ],
      "stateMutability": "view",
      "type": "function"
    },
    {
      "inputs": [],
      "name": "price",
      "outputs": [
        {
          "internalType": "uint256",
          "name": "",
          "type": "uint256"
        }
      ],
      "stateMutability": "view",
      "type": "function"
    },
    {
      "inputs": [],
      "name": "quote",
      "outputs": [
        {
          "internalType": "address",
          "name": "",
          "type": "address"
        }
      ],
      "stateMutability": "view",
      "type": "function"
    },
    {
      "inputs": [],
      "name": "randomness",
      "outputs": [
        {
          "internalType": "uint32",
          "name": "",
          "type": "uint32"
        }
      ],
      "stateMutability": "view",
      "type": "function"
    },
    {
      "inputs": [
        {
          "internalType": "string[]",
          "name": "uris",
          "type": "string[]"
        },
        {
          "internalType": "uint256[]",
          "name": "amounts",
          "type": "uint256[]"
        }
      ],
      "name": "registerItems",
      "outputs": [],
      "stateMutability": "nonpayable",
      "type": "function"
    },
    {
      "inputs": [],
      "name": "renounceOwnership",
      "outputs": [],
      "stateMutability": "nonpayable",
      "type": "function"
    },
    {
      "inputs": [
        {
          "internalType": "bytes32",
          "name": "role",
          "type": "bytes32"
        },
        {
          "internalType": "address",
          "name": "account",
          "type": "address"
        }
      ],
      "name": "renounceRole",
      "outputs": [],
      "stateMutability": "nonpayable",
      "type": "function"
    },
    {
      "inputs": [],
      "name": "requestRandomNumber",
      "outputs": [],
      "stateMutability": "payable",
      "type": "function"
    },
    {
      "inputs": [
        {
          "internalType": "bytes32",
          "name": "role",
          "type": "bytes32"
        },
        {
          "internalType": "address",
          "name": "account",
          "type": "address"
        }
      ],
      "name": "revokeRole",
      "outputs": [],
      "stateMutability": "nonpayable",
      "type": "function"
    },
    {
      "inputs": [
        {
          "internalType": "address",
          "name": "to",
          "type": "address"
        },
        {
          "internalType": "string[]",
          "name": "uris",
          "type": "string[]"
        }
      ],
      "name": "safeBatchMint",
      "outputs": [],
      "stateMutability": "view",
      "type": "function"
    },
    {
      "inputs": [
        {
          "internalType": "address",
          "name": "to",
          "type": "address"
        },
        {
          "internalType": "string",
          "name": "uri",
          "type": "string"
        },
        {
          "internalType": "uint256",
          "name": "amount",
          "type": "uint256"
        }
      ],
      "name": "safeBatchMintLight",
      "outputs": [],
      "stateMutability": "nonpayable",
      "type": "function"
    },
    {
      "inputs": [
        {
          "internalType": "address",
          "name": "to",
          "type": "address"
        },
        {
          "internalType": "string",
          "name": "uri",
          "type": "string"
        }
      ],
      "name": "safeMint",
      "outputs": [
        {
          "internalType": "uint256",
          "name": "",
          "type": "uint256"
        }
      ],
      "stateMutability": "view",
      "type": "function"
    },
    {
      "inputs": [
        {
          "internalType": "address",
          "name": "to",
          "type": "address"
        }
      ],
      "name": "safeMintTo",
      "outputs": [],
      "stateMutability": "nonpayable",
      "type": "function"
    },
    {
      "inputs": [
        {
          "internalType": "address",
          "name": "from",
          "type": "address"
        },
        {
          "internalType": "address",
          "name": "to",
          "type": "address"
        },
        {
          "internalType": "uint256",
          "name": "tokenId",
          "type": "uint256"
        }
      ],
      "name": "safeTransferFrom",
      "outputs": [],
      "stateMutability": "nonpayable",
      "type": "function"
    },
    {
      "inputs": [
        {
          "internalType": "address",
          "name": "from",
          "type": "address"
        },
        {
          "internalType": "address",
          "name": "to",
          "type": "address"
        },
        {
          "internalType": "uint256",
          "name": "tokenId",
          "type": "uint256"
        },
        {
          "internalType": "bytes",
          "name": "_data",
          "type": "bytes"
        }
      ],
      "name": "safeTransferFrom",
      "outputs": [],
      "stateMutability": "nonpayable",
      "type": "function"
    },
    {
      "inputs": [
        {
          "internalType": "address",
          "name": "operator",
          "type": "address"
        },
        {
          "internalType": "bool",
          "name": "approved",
          "type": "bool"
        }
      ],
      "name": "setApprovalForAll",
      "outputs": [],
      "stateMutability": "nonpayable",
      "type": "function"
    },
    {
      "inputs": [
        {
          "internalType": "address",
          "name": "_payment",
          "type": "address"
        },
        {
          "internalType": "address",
          "name": "_treasury",
          "type": "address"
        },
        {
          "internalType": "uint256",
          "name": "_feeRate",
          "type": "uint256"
        }
      ],
      "name": "setConfig",
      "outputs": [],
      "stateMutability": "nonpayable",
      "type": "function"
    },
    {
      "inputs": [
        {
          "internalType": "uint256",
          "name": "_hardCap",
          "type": "uint256"
        },
        {
          "internalType": "string",
          "name": "_uri",
          "type": "string"
        }
      ],
      "name": "setHardCap",
      "outputs": [],
      "stateMutability": "nonpayable",
      "type": "function"
    },
    {
      "inputs": [
        {
          "internalType": "uint256",
          "name": "_launch",
          "type": "uint256"
        }
      ],
      "name": "setLaunch",
      "outputs": [],
      "stateMutability": "nonpayable",
      "type": "function"
    },
    {
      "inputs": [
        {
          "internalType": "uint256",
          "name": "_lockup",
          "type": "uint256"
        }
      ],
      "name": "setLockup",
      "outputs": [],
      "stateMutability": "nonpayable",
      "type": "function"
    },
    {
      "inputs": [
        {
          "internalType": "address[]",
          "name": "_nfts",
          "type": "address[]"
        },
        {
          "internalType": "bool",
          "name": "_andOr",
          "type": "bool"
        }
      ],
      "name": "setMandatory",
      "outputs": [],
      "stateMutability": "nonpayable",
      "type": "function"
    },
    {
      "inputs": [
        {
          "internalType": "address",
          "name": "_key",
          "type": "address"
        },
        {
          "internalType": "uint256",
          "name": "_price",
          "type": "uint256"
        }
      ],
      "name": "setMboxKey",
      "outputs": [],
      "stateMutability": "nonpayable",
      "type": "function"
    },
    {
      "inputs": [
        {
          "internalType": "address",
          "name": "_mbox",
          "type": "address"
        }
      ],
      "name": "setMysteryBox",
      "outputs": [],
      "stateMutability": "nonpayable",
      "type": "function"
    },
    {
      "inputs": [
        {
          "internalType": "address",
          "name": "_quote",
          "type": "address"
        }
      ],
      "name": "setQuote",
      "outputs": [],
      "stateMutability": "nonpayable",
      "type": "function"
    },
    {
      "inputs": [
        {
          "internalType": "address",
          "name": "_subscription",
          "type": "address"
        },
        {
          "internalType": "uint256",
          "name": "_type",
          "type": "uint256"
        },
        {
          "internalType": "uint256",
          "name": "_amount",
          "type": "uint256"
        }
      ],
      "name": "setSubscription",
      "outputs": [],
      "stateMutability": "nonpayable",
      "type": "function"
    },
    {
      "inputs": [
        {
          "internalType": "address",
          "name": "",
          "type": "address"
        }
      ],
      "name": "subAddrs",
      "outputs": [
        {
          "internalType": "uint256",
          "name": "",
          "type": "uint256"
        }
      ],
      "stateMutability": "view",
      "type": "function"
    },
    {
      "inputs": [
        {
          "internalType": "uint256",
          "name": "",
          "type": "uint256"
        }
      ],
      "name": "subInfos",
      "outputs": [
        {
          "internalType": "address",
          "name": "contractAddr",
          "type": "address"
        },
        {
          "internalType": "uint256",
          "name": "contractType",
          "type": "uint256"
        },
        {
          "internalType": "uint256",
          "name": "amount",
          "type": "uint256"
        },
        {
          "internalType": "uint256",
          "name": "start",
          "type": "uint256"
        },
        {
          "internalType": "uint256",
          "name": "end",
          "type": "uint256"
        },
        {
          "internalType": "uint256",
          "name": "count",
          "type": "uint256"
        }
      ],
      "stateMutability": "view",
      "type": "function"
    },
    {
      "inputs": [
        {
          "internalType": "bytes4",
          "name": "interfaceId",
          "type": "bytes4"
        }
      ],
      "name": "supportsInterface",
      "outputs": [
        {
          "internalType": "bool",
          "name": "",
          "type": "bool"
        }
      ],
      "stateMutability": "view",
      "type": "function"
    },
    {
      "inputs": [],
      "name": "symbol",
      "outputs": [
        {
          "internalType": "string",
          "name": "",
          "type": "string"
        }
      ],
      "stateMutability": "view",
      "type": "function"
    },
    {
      "inputs": [
        {
          "internalType": "uint256",
          "name": "index",
          "type": "uint256"
        }
      ],
      "name": "tokenByIndex",
      "outputs": [
        {
          "internalType": "uint256",
          "name": "",
          "type": "uint256"
        }
      ],
      "stateMutability": "view",
      "type": "function"
    },
    {
      "inputs": [
        {
          "internalType": "address",
          "name": "owner",
          "type": "address"
        },
        {
          "internalType": "uint256",
          "name": "index",
          "type": "uint256"
        }
      ],
      "name": "tokenOfOwnerByIndex",
      "outputs": [
        {
          "internalType": "uint256",
          "name": "",
          "type": "uint256"
        }
      ],
      "stateMutability": "view",
      "type": "function"
    },
    {
      "inputs": [
        {
          "internalType": "uint256",
          "name": "tokenId",
          "type": "uint256"
        }
      ],
      "name": "tokenURI",
      "outputs": [
        {
          "internalType": "string",
          "name": "",
          "type": "string"
        }
      ],
      "stateMutability": "view",
      "type": "function"
    },
    {
      "inputs": [],
      "name": "totalItems",
      "outputs": [
        {
          "internalType": "uint256",
          "name": "",
          "type": "uint256"
        }
      ],
      "stateMutability": "view",
      "type": "function"
    },
    {
      "inputs": [],
      "name": "totalSupply",
      "outputs": [
        {
          "internalType": "uint256",
          "name": "",
          "type": "uint256"
        }
      ],
      "stateMutability": "view",
      "type": "function"
    },
    {
      "inputs": [
        {
          "internalType": "address",
          "name": "from",
          "type": "address"
        },
        {
          "internalType": "address",
          "name": "to",
          "type": "address"
        },
        {
          "internalType": "uint256",
          "name": "tokenId",
          "type": "uint256"
        }
      ],
      "name": "transferFrom",
      "outputs": [],
      "stateMutability": "nonpayable",
      "type": "function"
    },
    {
      "inputs": [
        {
          "internalType": "address",
          "name": "newOwner",
          "type": "address"
        }
      ],
      "name": "transferOwnership",
      "outputs": [],
      "stateMutability": "nonpayable",
      "type": "function"
    },
    {
      "inputs": [],
      "name": "treasury",
      "outputs": [
        {
          "internalType": "address",
          "name": "",
          "type": "address"
        }
      ],
      "stateMutability": "view",
      "type": "function"
    },
    {
      "inputs": [],
      "name": "unpause",
      "outputs": [],
      "stateMutability": "nonpayable",
      "type": "function"
    },
    {
      "inputs": [],
      "name": "witnet",
      "outputs": [
        {
          "internalType": "contract IWitnetRandomness",
          "name": "",
          "type": "address"
        }
      ],
      "stateMutability": "view",
      "type": "function"
    },
    {
      "stateMutability": "payable",
      "type": "receive"
    }
  ],
  "bytecode": "0x60a06040526000600d819055601380546001600160a01b031916905560178190556032601c55601f8190556022805460ff1990811690915560248054909116905560268190556028553480156200005557600080fd5b5060405162006d8038038062006d80833981016040819052620000789162000a20565b8787818181600090805190602001906200009492919062000841565b508051620000aa90600190602084019062000841565b5050600b805460ff1916905550620000c233620002f6565b620000cf60003362000350565b620000ea60008051602062006d408339815191523362000350565b6200010560008051602062006d608339815191523362000350565b6200011c6010620003f560201b620039221760201c565b5050600160115581516004146200017a5760405162461bcd60e51b815260206004820152601a60248201527f696e76616c696420636f6e6669672064617461206c656e67746800000000000060448201526064015b60405180910390fd5b6200018760003362000350565b620001a260008051602062006d408339815191523362000350565b620001bd60008051602062006d608339815191523362000350565b620001f782600081518110620001e357634e487b7160e01b600052603260045260246000fd5b6020026020010151620003fe60201b60201c565b62000231826001815181106200021d57634e487b7160e01b600052603260045260246000fd5b60200260200101516200048b60201b60201c565b6200026c86836002815181106200025857634e487b7160e01b600052603260045260246000fd5b60200260200101516200051260201b60201c565b620002a88484846003815181106200029457634e487b7160e01b600052603260045260246000fd5b60200260200101516200062560201b60201c565b620002b385620007a1565b6001600160a01b038116620002d857634e487b7160e01b600052600160045260246000fd5b60601b6001600160601b0319166080525062000b9195505050505050565b600b80546001600160a01b03838116610100818102610100600160a81b031985161790945560405193909204169182907f8be0079c531659141344cd1fd0a4f28419497f9722a3daafe3b4186f6b6457e090600090a35050565b6000828152600c602090815260408083206001600160a01b038516845290915290205460ff16620003f1576000828152600c602090815260408083206001600160a01b03851684529091529020805460ff19166001179055620003b03390565b6001600160a01b0316816001600160a01b0316837f2f8788117e7eff1d82e926ec794901d17c78024a50270940304540a733656f0d60405160405180910390a45b5050565b80546001019055565b600b546001600160a01b036101009091041633146200044f5760405162461bcd60e51b8152602060048201819052602482015260008051602062006d20833981519152604482015260640162000171565b60188190556040518181527f7c8826e4db3679f20c86da0c68d37f9dbcd1d638c56717e014f93c56d14c02d1906020015b60405180910390a150565b600b546001600160a01b03610100909104163314620004dc5760405162461bcd60e51b8152602060048201819052602482015260008051602062006d20833981519152604482015260640162000171565b60198190556040518181527fa7ade4ab976b6643a971383d9822fb7c2fce66aa2e497d88c3b4f1475ea2b2e09060200162000480565b600b546001600160a01b03610100909104163314620005635760405162461bcd60e51b8152602060048201819052602482015260008051602062006d20833981519152604482015260640162000171565b6001600160a01b038216620005c55760405162461bcd60e51b815260206004820152602160248201527f57726f6e67204d797374657279426f7820636f6e7472616374206164647265736044820152607360f81b606482015260840162000171565b601280546001600160a01b0319166001600160a01b038416908117909155601482905560408051918252602082018390527fd46fcdc06972a446de426e47c59c6a0c4581b5c0116ac49a2efc3e7d23bdfe72910160405180910390a15050565b600b546001600160a01b03610100909104163314620006765760405162461bcd60e51b8152602060048201819052602482015260008051602062006d20833981519152604482015260640162000171565b6001600160a01b038316620006ce5760405162461bcd60e51b815260206004820152601760248201527f696e76616c6964207061796d656e742061646472657373000000000000000000604482015260640162000171565b6001600160a01b038216620007265760405162461bcd60e51b815260206004820152601860248201527f696e76616c696420747265617375727920616464726573730000000000000000604482015260640162000171565b601a80546001600160a01b038581166001600160a01b03199283168117909355601b8054918616919092168117909155601c83905560408051928352602083019190915281018290527fe2be3027f197494650b7a98fd1cae67dacf615bd1d8bb05102999676f11638669060600160405180910390a1505050565b600b546001600160a01b03610100909104163314620007f25760405162461bcd60e51b8152602060048201819052602482015260008051602062006d20833981519152604482015260640162000171565b601380546001600160a01b0319166001600160a01b0383169081179091556040519081527fca92c759228172fe3894a344908fd20dfd37ba561b5af191f1f5b02ee03881fc9060200162000480565b8280546200084f9062000b3e565b90600052602060002090601f016020900481019282620008735760008555620008be565b82601f106200088e57805160ff1916838001178555620008be565b82800160010185558215620008be579182015b82811115620008be578251825591602001919060010190620008a1565b50620008cc929150620008d0565b5090565b5b80821115620008cc5760008155600101620008d1565b80516001600160a01b0381168114620008ff57600080fd5b919050565b600082601f83011262000915578081fd5b815160206001600160401b0382111562000933576200093362000b7b565b8160051b6200094482820162000b0b565b8381528281019086840183880185018910156200095f578687fd5b8693505b858410156200098357805183526001939093019291840191840162000963565b50979650505050505050565b600082601f830112620009a0578081fd5b81516001600160401b03811115620009bc57620009bc62000b7b565b6020620009d2601f8301601f1916820162000b0b565b8281528582848701011115620009e6578384fd5b835b8381101562000a05578581018301518282018401528201620009e8565b8381111562000a1657848385840101525b5095945050505050565b600080600080600080600080610100898b03121562000a3d578384fd5b88516001600160401b038082111562000a54578586fd5b62000a628c838d016200098f565b995060208b015191508082111562000a78578586fd5b62000a868c838d016200098f565b985062000a9660408c01620008e7565b975062000aa660608c01620008e7565b965062000ab660808c01620008e7565b955062000ac660a08c01620008e7565b945060c08b015191508082111562000adc578384fd5b5062000aeb8b828c0162000904565b92505062000afc60e08a01620008e7565b90509295985092959890939650565b604051601f8201601f191681016001600160401b038111828210171562000b365762000b3662000b7b565b604052919050565b600181811c9082168062000b5357607f821691505b6020821081141562000b7557634e487b7160e01b600052602260045260246000fd5b50919050565b634e487b7160e01b600052604160045260246000fd5b60805160601c61615b62000bc56000396000818161090301528181612c1401528181612fe30152613d56015261615b6000f3fe6080604052600436106104825760003560e01c80636ae6b45911610255578063a22cb46511610144578063c87b56dd116100c1578063e63ab1e911610085578063e63ab1e914610ee0578063e985e9c514610f02578063ec32719614610f4b578063f2fde38b14610f6b578063fb86a40414610f8b578063fcd1ee1014610fa157600080fd5b8063c87b56dd14610e49578063d204c45e14610e69578063d3d3224a14610e89578063d539139314610e9e578063d547741f14610ec057600080fd5b8063b5a87cc111610108578063b5a87cc114610daa578063b88d4fde14610dca578063bebc2b5214610dea578063bfb231d214610e09578063c38b761c14610e2957600080fd5b8063a22cb46514610d14578063a2aa61eb14610d34578063a60ee26814610d54578063aad3ec9614610d74578063b1fa417614610d9457600080fd5b80638a55b866116101d2578063978bbdb911610196578063978bbdb914610c93578063983b2d5614610ca9578063999b93af14610cc9578063a035b1fe14610ce9578063a217fddf14610cff57600080fd5b80638a55b86614610bfb5780638da5cb5b14610c1b578063902835f614610c3e57806391d1485414610c5e57806395d89b4114610c7e57600080fd5b80637e9598ae116102195780637e9598ae14610b84578063809a249e14610ba457806382dc1ec414610bbe5780638456cb5914610bde5780638678a7b214610bf357600080fd5b80636ae6b45914610a5257806370a0823114610a72578063715018a614610a92578063786e435c14610aa75780637b43b82714610b6457600080fd5b806336568abe116103715780634f6ccce7116102ee5780635d1d37c3116102b25780635d1d37c3146109bd5780635d814dea146109dd5780635dce7383146109fd57806361d027b314610a125780636352211e14610a3257600080fd5b80634f6ccce714610925578063557dee1f1461094557806355d699621461095857806358dd6d95146109855780635c975abb146109a557600080fd5b80633f4ba83a116103355780633f4ba83a1461087c57806342842e0e1461089157806342966c68146108b157806342f6487a146108d157806346d1d21a146108f157600080fd5b806336568abe1461076b57806338e2d9241461078b5780633943380c146107ab57806339eff2be146107cb5780633a1395de1461085c57600080fd5b806323b872dd116103ff5780632f745c59116103c35780632f745c59146106b95780632f785908146106d957806330c045a8146106f9578063347eb9e114610719578063360131891461073957600080fd5b806323b872dd146106135780632449065914610633578063248a9ca3146106535780632799276d146106835780632f2ff15d1461069957600080fd5b8063095ea7b311610446578063095ea7b314610557578063150b7a021461057957806318160ddd146105be57806321bae9e4146105d3578063230a67ee146105f357600080fd5b806301339c211461048e57806301ffc9a7146104b757806306490f47146104e757806306fdde03146104fd578063081812fc1461051f57600080fd5b3661048957005b600080fd5b34801561049a57600080fd5b506104a460185481565b6040519081526020015b60405180910390f35b3480156104c357600080fd5b506104d76104d2366004615a2c565b610fc1565b60405190151581526020016104ae565b3480156104f357600080fd5b506104a460195481565b34801561050957600080fd5b50610512610fec565b6040516104ae9190615c70565b34801561052b57600080fd5b5061053f61053a3660046159f2565b61107e565b6040516001600160a01b0390911681526020016104ae565b34801561056357600080fd5b50610577610572366004615840565b61110b565b005b34801561058557600080fd5b506105a561059436600461561d565b630a85bd0160e11b95945050505050565b6040516001600160e01b031990911681526020016104ae565b3480156105ca57600080fd5b506008546104a4565b3480156105df57600080fd5b506105776105ee366004615596565b611221565b3480156105ff57600080fd5b5061057761060e36600461591b565b61136e565b34801561061f57600080fd5b5061057761062e3660046155e2565b6114b9565b34801561063f57600080fd5b5061057761064e366004615a7c565b6114eb565b34801561065f57600080fd5b506104a461066e3660046159f2565b6000908152600c602052604090206001015490565b34801561068f57600080fd5b506104a460175481565b3480156106a557600080fd5b506105776106b4366004615a0a565b611573565b3480156106c557600080fd5b506104a46106d4366004615840565b611598565b3480156106e557600080fd5b5061053f6106f43660046159f2565b61162e565b34801561070557600080fd5b50610577610714366004615acb565b611658565b34801561072557600080fd5b50610577610734366004615a0a565b611973565b34801561074557600080fd5b50601d546107569063ffffffff1681565b60405163ffffffff90911681526020016104ae565b34801561077757600080fd5b50610577610786366004615a0a565b611b83565b34801561079757600080fd5b506105776107a6366004615aaa565b611c01565b3480156107b757600080fd5b5060125461053f906001600160a01b031681565b3480156107d757600080fd5b506108256107e63660046159f2565b6025602052600090815260409020805460018201546002830154600384015460048501546005909501546001600160a01b039094169492939192909186565b604080516001600160a01b0390971687526020870195909552938501929092526060840152608083015260a082015260c0016104ae565b34801561086857600080fd5b50610577610877366004615869565b612017565b34801561088857600080fd5b506105776121d8565b34801561089d57600080fd5b506105776108ac3660046155e2565b6121fb565b3480156108bd57600080fd5b506105776108cc3660046159f2565b612216565b3480156108dd57600080fd5b50601a5461053f906001600160a01b031681565b3480156108fd57600080fd5b5061053f7f000000000000000000000000000000000000000000000000000000000000000081565b34801561093157600080fd5b506104a46109403660046159f2565b61228d565b6105776109533660046159f2565b61232e565b34801561096457600080fd5b506104a4610973366004615596565b60276020526000908152604090205481565b34801561099157600080fd5b506105776109a036600461572a565b612651565b3480156109b157600080fd5b50600b5460ff166104d7565b3480156109c957600080fd5b506105776109d83660046159f2565b61269c565b3480156109e957600080fd5b506105126109f83660046159f2565b612708565b348015610a0957600080fd5b506104a46127b4565b348015610a1e57600080fd5b50601b5461053f906001600160a01b031681565b348015610a3e57600080fd5b5061053f610a4d3660046159f2565b61281b565b348015610a5e57600080fd5b50610577610a6d3660046159f2565b612892565b348015610a7e57600080fd5b506104a4610a8d366004615596565b6128f7565b348015610a9e57600080fd5b5061057761297e565b348015610ab357600080fd5b50610b3f610ac2366004615596565b6001600160a01b0390811660009081526027602090815260408083205483526025825291829020825160c08101845281548516815260018201549281019290925260028101549282019290925260038201546060820181905260048301546080830181905260059093015460a09092019190915260125490921692565b604080516001600160a01b0390941684526020840192909252908201526060016104ae565b348015610b7057600080fd5b50610577610b7f366004615596565b6129ba565b348015610b9057600080fd5b50610577610b9f366004615840565b612a5a565b348015610bb057600080fd5b506024546104d79060ff1681565b348015610bca57600080fd5b50610577610bd9366004615596565b612b43565b348015610bea57600080fd5b50610577612be9565b610577612c09565b348015610c0757600080fd5b506104a4610c163660046159f2565b612ce6565b348015610c2757600080fd5b50600b5461010090046001600160a01b031661053f565b348015610c4a57600080fd5b50610577610c593660046155e2565b612d07565b348015610c6a57600080fd5b506104d7610c79366004615a0a565b612e57565b348015610c8a57600080fd5b50610512612e82565b348015610c9f57600080fd5b506104a4601c5481565b348015610cb557600080fd5b50610577610cc4366004615596565b612e91565b348015610cd557600080fd5b5060135461053f906001600160a01b031681565b348015610cf557600080fd5b506104a460145481565b348015610d0b57600080fd5b506104a4600081565b348015610d2057600080fd5b50610577610d2f366004615775565b612f37565b348015610d4057600080fd5b50610577610d4f366004615596565b612f42565b348015610d6057600080fd5b506104a4610d6f3660046159f2565b612fc0565b348015610d8057600080fd5b50610577610d8f366004615840565b613064565b348015610da057600080fd5b506104a4601e5481565b348015610db657600080fd5b50610577610dc53660046157ec565b613379565b348015610dd657600080fd5b50610577610de53660046156b2565b61340b565b348015610df657600080fd5b506024546104d790610100900460ff1681565b348015610e1557600080fd5b506104a4610e243660046159f2565b61343d565b348015610e3557600080fd5b50600f5461053f906001600160a01b031681565b348015610e5557600080fd5b50610512610e643660046159f2565b61344d565b348015610e7557600080fd5b506104a4610e843660046157ab565b613458565b348015610e9557600080fd5b50610512613472565b348015610eaa57600080fd5b506104a460008051602061610683398151915281565b348015610ecc57600080fd5b50610577610edb366004615a0a565b61347f565b348015610eec57600080fd5b506104a46000805160206160e683398151915281565b348015610f0e57600080fd5b506104d7610f1d3660046155b0565b6001600160a01b03918216600090815260056020908152604080832093909416825291909152205460ff1690565b348015610f5757600080fd5b50610577610f6636600461589b565b6134a4565b348015610f7757600080fd5b50610577610f86366004615596565b61358b565b348015610f9757600080fd5b506104a4600d5481565b348015610fad57600080fd5b50610577610fbc366004615840565b613629565b60006001600160e01b031982166380ac58cd60e01b1480610fe65750610fe68261392b565b92915050565b606060008054610ffb9061601b565b80601f01602080910402602001604051908101604052809291908181526020018280546110279061601b565b80156110745780601f1061104957610100808354040283529160200191611074565b820191906000526020600020905b81548152906001019060200180831161105757829003601f168201915b5050505050905090565b600061108982613950565b6110ef5760405162461bcd60e51b815260206004820152602c60248201527f4552433732313a20617070726f76656420717565727920666f72206e6f6e657860448201526b34b9ba32b73a103a37b5b2b760a11b60648201526084015b60405180910390fd5b506000908152600460205260409020546001600160a01b031690565b60006111168261281b565b9050806001600160a01b0316836001600160a01b031614156111845760405162461bcd60e51b815260206004820152602160248201527f4552433732313a20617070726f76616c20746f2063757272656e74206f776e656044820152603960f91b60648201526084016110e6565b336001600160a01b03821614806111a057506111a08133610f1d565b6112125760405162461bcd60e51b815260206004820152603860248201527f4552433732313a20617070726f76652063616c6c6572206973206e6f74206f7760448201527f6e6572206e6f7220617070726f76656420666f7220616c6c000000000000000060648201526084016110e6565b61121c838361396d565b505050565b600080516020616106833981519152611239816139db565b6000600e80546112489061601b565b90501161128f5760405162461bcd60e51b815260206004820152601560248201527411db1bd8985b08155492481a5cc81b9bdd081cd95d605a1b60448201526064016110e6565b6001600160a01b0382166112da5760405162461bcd60e51b8152602060048201526012602482015271496e76616c696420746f206164647265737360701b60448201526064016110e6565b61121c82600e80546112eb9061601b565b80601f01602080910402602001604051908101604052809291908181526020018280546113179061601b565b80156113645780601f1061133957610100808354040283529160200191611364565b820191906000526020600020905b81548152906001019060200180831161134757829003601f168201915b5050505050613458565b600080516020616106833981519152611386816139db565b60225460ff16156113d95760405162461bcd60e51b815260206004820152601860248201527f4974656d7320616c72656164792072656769737465726564000000000000000060448201526064016110e6565b81518351146114225760405162461bcd60e51b8152602060048201526015602482015274082e4e4c2f240d8cadccee8d040dad2e6dac2e8c6d605b1b60448201526064016110e6565b81516114359060219060208501906152f4565b508251611448906020908186019061533f565b5060005b83518110156114a65761149183828151811061147857634e487b7160e01b600052603260045260246000fd5b60200260200101516017546139e590919063ffffffff16565b6017558061149e81616050565b91505061144c565b50506022805460ff191660011790555050565b6114c4335b826139f1565b6114e05760405162461bcd60e51b81526004016110e690615e48565b61121c838383613adb565b600b546001600160a01b0361010090910416331461151b5760405162461bcd60e51b81526004016110e690615d5a565b600d829055805161153390600e906020840190615398565b507f57bbf0b7295e3c8587fe0fa3c76592771f6a96123bf723292fd0e3933436b71f600d5460405161156791815260200190565b60405180910390a15050565b6000828152600c602052604090206001015461158e816139db565b61121c8383613c82565b60006115a3836128f7565b82106116055760405162461bcd60e51b815260206004820152602b60248201527f455243373231456e756d657261626c653a206f776e657220696e646578206f7560448201526a74206f6620626f756e647360a81b60648201526084016110e6565b506001600160a01b03919091166000908152600660209081526040808320938352929052205490565b6023818154811061163e57600080fd5b6000918252602090912001546001600160a01b0316905081565b600b5460ff161561167b5760405162461bcd60e51b81526004016110e690615d30565b6002601154141561169e5760405162461bcd60e51b81526004016110e690615e99565b60026011556012546001600160a01b03166116cb5760405162461bcd60e51b81526004016110e690615c83565b6001600160a01b0381166116f15760405162461bcd60e51b81526004016110e690615d03565b60195442116117425760405162461bcd60e51b815260206004820152601b60248201527f4e6f74207965742072657665616c2074696d652072656163686564000000000060448201526064016110e6565b6012546040516370a0823160e01b81523360048201526000916001600160a01b0316906370a082319060240160206040518083038186803b15801561178657600080fd5b505afa15801561179a573d6000803e3d6000fd5b505050506040513d601f19601f820116820180604052508101906117be9190615a64565b9050600081116117e05760405162461bcd60e51b81526004016110e690615ed0565b8083111580156117f05750600083115b6118335760405162461bcd60e51b81526020600482015260146024820152731a5b9d985b1a590818db185a5b48185b5bdd5b9d60621b60448201526064016110e6565b60005b8381101561196757601254604051632f745c5960e01b8152336004820152600060248201819052916001600160a01b031690632f745c599060440160206040518083038186803b15801561188957600080fd5b505afa15801561189d573d6000803e3d6000fd5b505050506040513d601f19601f820116820180604052508101906118c19190615a64565b601254604051632142170760e11b81529192506001600160a01b0316906342842e0e906118f890339061dead908690600401615c0f565b600060405180830381600087803b15801561191257600080fd5b505af1158015611926573d6000803e3d6000fd5b50505050611935601754613d08565b601d5461195290859061194d9063ffffffff16613e0a565b613fa3565b5050808061195f90616050565b915050611836565b50506001601155505050565b60008051602061610683398151915261198b816139db565b60185442116119ac5760405162461bcd60e51b81526004016110e690615e11565b60245460ff1615611b00576000805b602354811015611add576000602382815481106119e857634e487b7160e01b600052603260045260246000fd5b6000918252602090912001546040516370a0823160e01b81523360048201526001600160a01b03909116906370a082319060240160206040518083038186803b158015611a3457600080fd5b505afa158015611a48573d6000803e3d6000fd5b505050506040513d601f19601f82011682018060405250810190611a6c9190615a64565b602454909150610100900460ff1615611ab15760008111611a9f5760405162461bcd60e51b81526004016110e690615d8f565b611aaa8360016139e5565b9250611aca565b8015611aca57611ac28360016139e5565b925050611add565b5080611ad581616050565b9150506119bb565b5060008111611afe5760405162461bcd60e51b81526004016110e690615d8f565b505b60005b83811015611b7d5760125460405163086eba7960e21b81526001600160a01b038581166004830152909116906321bae9e490602401600060405180830381600087803b158015611b5257600080fd5b505af1158015611b66573d6000803e3d6000fd5b505050508080611b7590616050565b915050611b03565b50505050565b6001600160a01b0381163314611bf35760405162461bcd60e51b815260206004820152602f60248201527f416363657373436f6e74726f6c3a2063616e206f6e6c792072656e6f756e636560448201526e103937b632b9903337b91039b2b63360891b60648201526084016110e6565b611bfd8282613fb0565b5050565b6013546001600160a01b0316611c4d5760405162461bcd60e51b81526020600482015260116024820152702bb937b7339038bab7ba32903a37b5b2b760791b60448201526064016110e6565b6018544211611c6e5760405162461bcd60e51b81526004016110e690615e11565b60008211611c8e5760405162461bcd60e51b81526004016110e690615dd0565b601454611c9c908290614017565b8214611cea5760405162461bcd60e51b815260206004820152601d60248201527f76616c756520616e6420616d6f756e74206973206e6f74206d6174636800000060448201526064016110e6565b6013546040516370a0823160e01b81523360048201526000916001600160a01b0316906370a082319060240160206040518083038186803b158015611d2e57600080fd5b505afa158015611d42573d6000803e3d6000fd5b505050506040513d601f19601f82011682018060405250810190611d669190615a64565b9050828111611db75760405162461bcd60e51b815260206004820152601b60248201527f6c61636b206f662071756f746520746f6b656e2062616c616e6365000000000060448201526064016110e6565b60245460ff1615611f0b576000805b602354811015611ee857600060238281548110611df357634e487b7160e01b600052603260045260246000fd5b6000918252602090912001546040516370a0823160e01b81523360048201526001600160a01b03909116906370a082319060240160206040518083038186803b158015611e3f57600080fd5b505afa158015611e53573d6000803e3d6000fd5b505050506040513d601f19601f82011682018060405250810190611e779190615a64565b602454909150610100900460ff1615611ebc5760008111611eaa5760405162461bcd60e51b81526004016110e690615d8f565b611eb58360016139e5565b9250611ed5565b8015611ed557611ecd8360016139e5565b925050611ee8565b5080611ee081616050565b915050611dc6565b5060008111611f095760405162461bcd60e51b81526004016110e690615d8f565b505b6013546040516323b872dd60e01b81526001600160a01b03909116906323b872dd90611f3f90339030908890600401615c0f565b602060405180830381600087803b158015611f5957600080fd5b505af1158015611f6d573d6000803e3d6000fd5b505050506040513d601f19601f82011682018060405250810190611f9191906159d6565b5060005b8281101561200d5760125460405163086eba7960e21b81523360048201526001600160a01b03909116906321bae9e490602401600060405180830381600087803b158015611fe257600080fd5b505af1158015611ff6573d6000803e3d6000fd5b50505050808061200590616050565b915050611f95565b5061121c82614023565b600b546001600160a01b036101009091041633146120475760405162461bcd60e51b81526004016110e690615d5a565b6001600160a01b0383166120a95760405162461bcd60e51b815260206004820152602360248201527f57726f6e6720537562736372697074696f6e20636f6e7472616374206164647260448201526265737360e81b60648201526084016110e6565b6026546001600160a01b0384166000908152602760205260408120919091556028546120e2906001906120dc90856139e5565b906142be565b6040805160c0810182526001600160a01b03878116825260208083018881528385018881526028546060860190815260808601888152600060a088018181526026805483526025909752988120975188546001600160a01b031916971696909617875592516001870155905160028601555160038501555160048401559251600590920191909155815492935061217883616050565b909155505060285461218a90836139e5565b60285561219684612e91565b6040516001600160a01b03851681527f17c74683f7319a4225517b5017988f05364289712fe6386d78e265035a7872259060200160405180910390a150505050565b6000805160206160e68339815191526121f0816139db565b6121f86142ca565b50565b61121c8383836040518060200160405280600081525061340b565b61221f336114be565b6122845760405162461bcd60e51b815260206004820152603060248201527f4552433732314275726e61626c653a2063616c6c6572206973206e6f74206f7760448201526f1b995c881b9bdc88185c1c1c9bdd995960821b60648201526084016110e6565b6121f88161435d565b600061229860085490565b82106122fb5760405162461bcd60e51b815260206004820152602c60248201527f455243373231456e756d657261626c653a20676c6f62616c20696e646578206f60448201526b7574206f6620626f756e647360a01b60648201526084016110e6565b6008828154811061231c57634e487b7160e01b600052603260045260246000fd5b90600052602060002001549050919050565b6013546001600160a01b03161561237b5760405162461bcd60e51b81526020600482015260116024820152702bb937b7339038bab7ba32903a37b5b2b760791b60448201526064016110e6565b601854421161239c5760405162461bcd60e51b81526004016110e690615e11565b600034116123bc5760405162461bcd60e51b81526004016110e690615dd0565b6014546123ca908290614017565b34146124185760405162461bcd60e51b815260206004820152601d60248201527f76616c756520616e6420616d6f756e74206973206e6f74206d6174636800000060448201526064016110e6565b6012546001600160a01b0316158015906124325750602654155b6124785760405162461bcd60e51b81526020600482015260176024820152761ad95e4818dbdb9d1c9858dd081a5cc81b9bdd081cd95d604a1b60448201526064016110e6565b60245460ff16156125cc576000805b6023548110156125a9576000602382815481106124b457634e487b7160e01b600052603260045260246000fd5b6000918252602090912001546040516370a0823160e01b81523360048201526001600160a01b03909116906370a082319060240160206040518083038186803b15801561250057600080fd5b505afa158015612514573d6000803e3d6000fd5b505050506040513d601f19601f820116820180604052508101906125389190615a64565b602454909150610100900460ff161561257d576000811161256b5760405162461bcd60e51b81526004016110e690615d8f565b6125768360016139e5565b9250612596565b80156125965761258e8360016139e5565b9250506125a9565b50806125a181616050565b915050612487565b50600081116125ca5760405162461bcd60e51b81526004016110e690615d8f565b505b60005b818110156126475760125460405163086eba7960e21b81523360048201526001600160a01b03909116906321bae9e490602401600060405180830381600087803b15801561261c57600080fd5b505af1158015612630573d6000803e3d6000fd5b50505050808061263f90616050565b9150506125cf565b506121f881614023565b600080516020616106833981519152612669816139db565b60405162461bcd60e51b8152602060048201526008602482015267111a5cd8589b195960c21b60448201526064016110e6565b600b546001600160a01b036101009091041633146126cc5760405162461bcd60e51b81526004016110e690615d5a565b60188190556040518181527f7c8826e4db3679f20c86da0c68d37f9dbcd1d638c56717e014f93c56d14c02d1906020015b60405180910390a150565b6020818154811061271857600080fd5b9060005260206000200160009150905080546127339061601b565b80601f016020809104026020016040519081016040528092919081815260200182805461275f9061601b565b80156127ac5780601f10612781576101008083540402835291602001916127ac565b820191906000526020600020905b81548152906001019060200180831161278f57829003601f168201915b505050505081565b600080805b60215481101561281557612801602182815481106127e757634e487b7160e01b600052603260045260246000fd5b9060005260206000200154836139e590919063ffffffff16565b91508061280d81616050565b9150506127b9565b50919050565b6000818152600260205260408120546001600160a01b031680610fe65760405162461bcd60e51b815260206004820152602960248201527f4552433732313a206f776e657220717565727920666f72206e6f6e657869737460448201526832b73a103a37b5b2b760b91b60648201526084016110e6565b600b546001600160a01b036101009091041633146128c25760405162461bcd60e51b81526004016110e690615d5a565b60198190556040518181527fa7ade4ab976b6643a971383d9822fb7c2fce66aa2e497d88c3b4f1475ea2b2e0906020016126fd565b60006001600160a01b0382166129625760405162461bcd60e51b815260206004820152602a60248201527f4552433732313a2062616c616e636520717565727920666f7220746865207a65604482015269726f206164647265737360b01b60648201526084016110e6565b506001600160a01b031660009081526003602052604090205490565b600b546001600160a01b036101009091041633146129ae5760405162461bcd60e51b81526004016110e690615d5a565b6129b86000614366565b565b600b546001600160a01b036101009091041633146129ea5760405162461bcd60e51b81526004016110e690615d5a565b600f80546001600160a01b0319166001600160a01b038316179055612a1d60008051602061610683398151915282613c82565b600f546040516001600160a01b0390911681527f329b1203fc60a62c4a0fd3ff1554a07f92a2f117cc590422dd105811bb484ded906020016126fd565b600b546001600160a01b03610100909104163314612a8a5760405162461bcd60e51b81526004016110e690615d5a565b6001600160a01b038216612aea5760405162461bcd60e51b815260206004820152602160248201527f57726f6e67204d797374657279426f7820636f6e7472616374206164647265736044820152607360f81b60648201526084016110e6565b601280546001600160a01b0319166001600160a01b038416908117909155601482905560408051918252602082018390527fd46fcdc06972a446de426e47c59c6a0c4581b5c0116ac49a2efc3e7d23bdfe729101611567565b600b546001600160a01b03610100909104163314612b735760405162461bcd60e51b81526004016110e690615d5a565b612b8b6000805160206160e683398151915282613c82565b604080516001600160a01b038316815260208101829052600b918101919091526a5041555345525f524f4c4560a81b60608201527f0578acc86b18d67c13a5e6eed8c670fb7052f530b48a2acb167d6ca77509a384906080016126fd565b6000805160206160e6833981519152612c01816139db565b6121f86143c0565b43601e8190555060007f00000000000000000000000000000000000000000000000000000000000000006001600160a01b031663699b328a346040518263ffffffff1660e01b81526004016020604051808303818588803b158015612c6d57600080fd5b505af1158015612c81573d6000803e3d6000fd5b50505050506040513d601f19601f82011682018060405250810190612ca69190615a64565b9050348110156121f857336108fc612cbe8334615fc1565b6040518115909202916000818181858888f19350505050158015611bfd573d6000803e3d6000fd5b60218181548110612cf657600080fd5b600091825260209091200154905081565b600b546001600160a01b03610100909104163314612d375760405162461bcd60e51b81526004016110e690615d5a565b6001600160a01b038316612d8d5760405162461bcd60e51b815260206004820152601760248201527f696e76616c6964207061796d656e74206164647265737300000000000000000060448201526064016110e6565b6001600160a01b038216612de35760405162461bcd60e51b815260206004820152601860248201527f696e76616c69642074726561737572792061646472657373000000000000000060448201526064016110e6565b601a80546001600160a01b038086166001600160a01b03199283168117909355601b8054918616919092168117909155601c8390556040517fe2be3027f197494650b7a98fd1cae67dacf615bd1d8bb05102999676f116386692612e4a9290918590615c0f565b60405180910390a1505050565b6000918252600c602090815260408084206001600160a01b0393909316845291905290205460ff1690565b606060018054610ffb9061601b565b600b546001600160a01b03610100909104163314612ec15760405162461bcd60e51b81526004016110e690615d5a565b612ed960008051602061610683398151915282613c82565b604080516001600160a01b038316815260208101829052600b918101919091526a4d494e5445525f524f4c4560a81b60608201527f0578acc86b18d67c13a5e6eed8c670fb7052f530b48a2acb167d6ca77509a384906080016126fd565b611bfd338383614418565b600b546001600160a01b03610100909104163314612f725760405162461bcd60e51b81526004016110e690615d5a565b601380546001600160a01b0319166001600160a01b0383169081179091556040519081527fca92c759228172fe3894a344908fd20dfd37ba561b5af191f1f5b02ee03881fc906020016126fd565b6040516314c1dc4d60e31b81526004810182905260009081906001600160a01b037f0000000000000000000000000000000000000000000000000000000000000000169063a60ee2689060240160206040518083038186803b15801561302557600080fd5b505afa158015613039573d6000803e3d6000fd5b505050506040513d601f19601f8201168201806040525081019061305d9190615a64565b9392505050565b600b5460ff16156130875760405162461bcd60e51b81526004016110e690615d30565b600260115414156130aa5760405162461bcd60e51b81526004016110e690615e99565b60026011556012546001600160a01b03166130d75760405162461bcd60e51b81526004016110e690615c83565b6001600160a01b0382166130fd5760405162461bcd60e51b81526004016110e690615d03565b601954421161314e5760405162461bcd60e51b815260206004820152601b60248201527f4e6f74207965742072657665616c2074696d652072656163686564000000000060448201526064016110e6565b6012546040516370a0823160e01b81523360048201526000916001600160a01b0316906370a082319060240160206040518083038186803b15801561319257600080fd5b505afa1580156131a6573d6000803e3d6000fd5b505050506040513d601f19601f820116820180604052508101906131ca9190615a64565b9050600081116131ec5760405162461bcd60e51b81526004016110e690615ed0565b8082111580156131fc5750600082115b61323f5760405162461bcd60e51b81526020600482015260146024820152731a5b9d985b1a590818db185a5b48185b5bdd5b9d60621b60448201526064016110e6565b60005b8281101561336e57601254604051632f745c5960e01b8152336004820152600060248201819052916001600160a01b031690632f745c599060440160206040518083038186803b15801561329557600080fd5b505afa1580156132a9573d6000803e3d6000fd5b505050506040513d601f19601f820116820180604052508101906132cd9190615a64565b601254604051632142170760e11b81529192506001600160a01b0316906342842e0e9061330490339061dead908690600401615c0f565b600060405180830381600087803b15801561331e57600080fd5b505af1158015613332573d6000803e3d6000fd5b50505050613341601754613d08565b601d5461335990869061194d9063ffffffff16613e0a565b5050808061336690616050565b915050613242565b505060016011555050565b600080516020616106833981519152613391816139db565b6001600160a01b0384166133dc5760405162461bcd60e51b8152602060048201526012602482015271496e76616c696420746f206164647265737360701b60448201526064016110e6565b60005b82811015613404576133f18585613458565b50806133fc81616050565b9150506133df565b5050505050565b61341533836139f1565b6134315760405162461bcd60e51b81526004016110e690615e48565b611b7d848484846144e7565b60168181548110612cf657600080fd5b6060610fe68261451a565b6000600080516020616106833981519152612669816139db565b600e80546127339061601b565b6000828152600c602052604090206001015461349a816139db565b61121c8383613fb0565b600b546001600160a01b036101009091041633146134d45760405162461bcd60e51b81526004016110e690615d5a565b811561356f5760005b8281101561356057602384848381811061350757634e487b7160e01b600052603260045260246000fd5b905060200201602081019061351c9190615596565b81546001810183556000928352602090922090910180546001600160a01b0319166001600160a01b039092169190911790558061355881616050565b9150506134dd565b506024805460ff191660011790555b602480549115156101000261ff00199092169190911790555050565b600b546001600160a01b036101009091041633146135bb5760405162461bcd60e51b81526004016110e690615d5a565b6001600160a01b0381166136205760405162461bcd60e51b815260206004820152602660248201527f4f776e61626c653a206e6577206f776e657220697320746865207a65726f206160448201526564647265737360d01b60648201526084016110e6565b6121f881614366565b600b5460ff161561364c5760405162461bcd60e51b81526004016110e690615d30565b60006026541161369e5760405162461bcd60e51b815260206004820152601d60248201527f4e6f20737562736372697074696f6e20636f6e7472616374732073657400000060448201526064016110e6565b33600081815260276020908152604080832054835260259091529020546001600160a01b0316146137275760405162461bcd60e51b815260206004820152602d60248201527f4f6e6c7920737562736372697074696f6e20636f6e74726163742063616e206360448201526c616c6c20636c61696d4b65797360981b60648201526084016110e6565b6002601154141561374a5760405162461bcd60e51b81526004016110e690615e99565b60026011556012546001600160a01b03166137775760405162461bcd60e51b81526004016110e690615c83565b6001600160a01b03821661379d5760405162461bcd60e51b81526004016110e690615d03565b600081116137ed5760405162461bcd60e51b815260206004820152601a60248201527f696e76616c696420746f6b656e49647320666f7220636c61696d00000000000060448201526064016110e6565b3360009081526027602052604081205490805b83811015611967576000838152602560205260409020600581015460039091015461382a916139e5565b60008481526025602052604090206004015490925082111561388e5760405162461bcd60e51b815260206004820152601760248201527f636c61696d20746f6b656e204964206f766572666c6f7700000000000000000060448201526064016110e6565b60008381526025602052604081206005018054916138ab83616050565b909155505060125460405163086eba7960e21b81526001600160a01b038781166004830152909116906321bae9e490602401600060405180830381600087803b1580156138f757600080fd5b505af115801561390b573d6000803e3d6000fd5b50505050808061391a90616050565b915050613800565b80546001019055565b60006001600160e01b03198216637965db0b60e01b1480610fe65750610fe682614689565b6000908152600260205260409020546001600160a01b0316151590565b600081815260046020526040902080546001600160a01b0319166001600160a01b03841690811790915581906139a28261281b565b6001600160a01b03167f8c5be1e5ebec7d5bd14f71427d1e84f3dd0314c0f7b2291e5b200ac8c7c3b92560405160405180910390a45050565b6121f881336146ae565b600061305d8284615f76565b60006139fc82613950565b613a5d5760405162461bcd60e51b815260206004820152602c60248201527f4552433732313a206f70657261746f7220717565727920666f72206e6f6e657860448201526b34b9ba32b73a103a37b5b2b760a11b60648201526084016110e6565b6000613a688361281b565b9050806001600160a01b0316846001600160a01b03161480613aaf57506001600160a01b0380821660009081526005602090815260408083209388168352929052205460ff165b80613ad35750836001600160a01b0316613ac88461107e565b6001600160a01b0316145b949350505050565b826001600160a01b0316613aee8261281b565b6001600160a01b031614613b525760405162461bcd60e51b815260206004820152602560248201527f4552433732313a207472616e736665722066726f6d20696e636f72726563742060448201526437bbb732b960d91b60648201526084016110e6565b6001600160a01b038216613bb45760405162461bcd60e51b8152602060048201526024808201527f4552433732313a207472616e7366657220746f20746865207a65726f206164646044820152637265737360e01b60648201526084016110e6565b613bbf838383614712565b613bca60008261396d565b6001600160a01b0383166000908152600360205260408120805460019290613bf3908490615fc1565b90915550506001600160a01b0382166000908152600360205260408120805460019290613c21908490615f76565b909155505060008181526002602052604080822080546001600160a01b0319166001600160a01b0386811691821790925591518493918716917fddf252ad1be2c89b69c2b068fc378daa952ba7f163c4a11628f55a4df523b3ef91a4505050565b613c8c8282612e57565b611bfd576000828152600c602090815260408083206001600160a01b03851684529091529020805460ff19166001179055613cc43390565b6001600160a01b0316816001600160a01b0316837f2f8788117e7eff1d82e926ec794901d17c78024a50270940304540a733656f0d60405160405180910390a45050565b6000601e5411613d2857634e487b7160e01b600052600160045260246000fd5b601f54601e546040516324cbbfc160e01b815263ffffffff84166004820152602481019290925260448201527f00000000000000000000000000000000000000000000000000000000000000006001600160a01b0316906324cbbfc19060640160206040518083038186803b158015613da057600080fd5b505afa158015613db4573d6000803e3d6000fd5b505050506040513d601f19601f82011682018060405250810190613dd89190615aff565b601d805463ffffffff191663ffffffff92909216919091179055601f8054906000613e0283616050565b919050555050565b6060600080805b602054811015613e6357613e3f602182815481106127e757634e487b7160e01b600052603260045260246000fd5b915081851015613e5157809250613e63565b80613e5b81616050565b915050613e11565b50601754613e729060016142be565b601781905550613eb7600160218481548110613e9e57634e487b7160e01b600052603260045260246000fd5b90600052602060002001546142be90919063ffffffff16565b60218381548110613ed857634e487b7160e01b600052603260045260246000fd5b906000526020600020018190555060208281548110613f0757634e487b7160e01b600052603260045260246000fd5b906000526020600020018054613f1c9061601b565b80601f0160208091040260200160405190810160405280929190818152602001828054613f489061601b565b8015613f955780601f10613f6a57610100808354040283529160200191613f95565b820191906000526020600020905b815481529060010190602001808311613f7857829003601f168201915b505050505092505050919050565b600080613ad38484614740565b613fba8282612e57565b15611bfd576000828152600c602090815260408083206001600160a01b0385168085529252808320805460ff1916905551339285917ff6391f5c32d9c69d2a47ea670b442974b53935d1edc7fd64eb21e047a839171b9190a45050565b600061305d8284615fa2565b6012546001600160a01b03166140755760405162461bcd60e51b81526020600482015260176024820152761ad95e4818dbdb9d1c9858dd081a5cc81b9bdd081cd95d604a1b60448201526064016110e6565b602654156140c55760405162461bcd60e51b815260206004820152601e60248201527f6d797374657279626f7820696e76616c6964206d6574686f642063616c6c000060448201526064016110e6565b601a546001600160a01b031661411d5760405162461bcd60e51b815260206004820152601a60248201527f7061796d656e742061646472657373206973206e6f742073657400000000000060448201526064016110e6565b60006141346014548361401790919063ffffffff16565b905060006141596103e8614153601c548561401790919063ffffffff16565b90614770565b9050600061416783836142be565b6013549091506001600160a01b03161561429257601354601b5460405163a9059cbb60e01b81526001600160a01b0391821660048201526024810185905291169063a9059cbb90604401602060405180830381600087803b1580156141cb57600080fd5b505af11580156141df573d6000803e3d6000fd5b505050506040513d601f19601f8201168201806040525081019061420391906159d6565b50601354601a5460405163a9059cbb60e01b81526001600160a01b0391821660048201526024810184905291169063a9059cbb90604401602060405180830381600087803b15801561425457600080fd5b505af1158015614268573d6000803e3d6000fd5b505050506040513d601f19601f8201168201806040525081019061428c91906159d6565b50611b7d565b601b546142a8906001600160a01b03168361477c565b601a54611b7d906001600160a01b03168261477c565b600061305d8284615fc1565b600b5460ff166143135760405162461bcd60e51b815260206004820152601460248201527314185d5cd8589b194e881b9bdd081c185d5cd95960621b60448201526064016110e6565b600b805460ff191690557f5db9ee0a495bf2e6ff9c91a7834c1ba4fdd244a5e8aa4e537bd38aeae4b073aa335b6040516001600160a01b03909116815260200160405180910390a1565b6121f881614856565b600b80546001600160a01b03838116610100818102610100600160a81b031985161790945560405193909204169182907f8be0079c531659141344cd1fd0a4f28419497f9722a3daafe3b4186f6b6457e090600090a35050565b600b5460ff16156143e35760405162461bcd60e51b81526004016110e690615d30565b600b805460ff191660011790557f62e78cea01bee320cd4e420270b5ea74000d11b0c9f74754ebdbfc544b05a2586143403390565b816001600160a01b0316836001600160a01b0316141561447a5760405162461bcd60e51b815260206004820152601960248201527f4552433732313a20617070726f766520746f2063616c6c65720000000000000060448201526064016110e6565b6001600160a01b03838116600081815260056020908152604080832094871680845294825291829020805460ff191686151590811790915591519182527f17307eab39ab6107e8899845ad3d59bd9653f200f220920489ca2b5937696c31910160405180910390a3505050565b6144f2848484613adb565b6144fe84848484614896565b611b7d5760405162461bcd60e51b81526004016110e690615cb1565b606061452582613950565b61458b5760405162461bcd60e51b815260206004820152603160248201527f45524337323155524953746f726167653a2055524920717565727920666f72206044820152703737b732bc34b9ba32b73a103a37b5b2b760791b60648201526084016110e6565b6000828152600a6020526040812080546145a49061601b565b80601f01602080910402602001604051908101604052809291908181526020018280546145d09061601b565b801561461d5780601f106145f25761010080835404028352916020019161461d565b820191906000526020600020905b81548152906001019060200180831161460057829003601f168201915b50505050509050600061463b60408051602081019091526000815290565b905080516000141561464e575092915050565b815115614680578082604051602001614668929190615b6b565b60405160208183030381529060405292505050919050565b613ad3846149a3565b60006001600160e01b0319821663780e9d6360e01b1480610fe65750610fe682614a7a565b6146b88282612e57565b611bfd576146d0816001600160a01b03166014614aca565b6146db836020614aca565b6040516020016146ec929190615b9a565b60408051601f198184030181529082905262461bcd60e51b82526110e691600401615c70565b600b5460ff16156147355760405162461bcd60e51b81526004016110e690615d30565b61121c838383614cab565b60008061474c60105490565b905061475c601080546001019055565b6147668482614d63565b61305d8184614d7d565b600061305d8284615f8e565b604080516000808252602082019092526001600160a01b0384169083906040516147a69190615b4f565b60006040518083038185875af1925050503d80600081146147e3576040519150601f19603f3d011682016040523d82523d6000602084013e6147e8565b606091505b505090508061121c5760405162461bcd60e51b815260206004820152603460248201527f5472616e7366657248656c7065723a3a736166655472616e736665724554483a60448201527308115512081d1c985b9cd9995c8819985a5b195960621b60648201526084016110e6565b61485f81614e08565b6000818152600a6020526040902080546148789061601b565b1590506121f8576000818152600a602052604081206121f89161540b565b60006001600160a01b0384163b1561499857604051630a85bd0160e11b81526001600160a01b0385169063150b7a02906148da903390899088908890600401615c33565b602060405180830381600087803b1580156148f457600080fd5b505af1925050508015614924575060408051601f3d908101601f1916820190925261492191810190615a48565b60015b61497e573d808015614952576040519150601f19603f3d011682016040523d82523d6000602084013e614957565b606091505b5080516149765760405162461bcd60e51b81526004016110e690615cb1565b805181602001fd5b6001600160e01b031916630a85bd0160e11b149050613ad3565b506001949350505050565b60606149ae82613950565b614a125760405162461bcd60e51b815260206004820152602f60248201527f4552433732314d657461646174613a2055524920717565727920666f72206e6f60448201526e3732bc34b9ba32b73a103a37b5b2b760891b60648201526084016110e6565b6000614a2960408051602081019091526000815290565b90506000815111614a49576040518060200160405280600081525061305d565b80614a5384614eaf565b604051602001614a64929190615b6b565b6040516020818303038152906040529392505050565b60006001600160e01b031982166380ac58cd60e01b1480614aab57506001600160e01b03198216635b5e139f60e01b145b80610fe657506301ffc9a760e01b6001600160e01b0319831614610fe6565b60606000614ad9836002615fa2565b614ae4906002615f76565b6001600160401b03811115614b0957634e487b7160e01b600052604160045260246000fd5b6040519080825280601f01601f191660200182016040528015614b33576020820181803683370190505b509050600360fc1b81600081518110614b5c57634e487b7160e01b600052603260045260246000fd5b60200101906001600160f81b031916908160001a905350600f60fb1b81600181518110614b9957634e487b7160e01b600052603260045260246000fd5b60200101906001600160f81b031916908160001a9053506000614bbd846002615fa2565b614bc8906001615f76565b90505b6001811115614c5c576f181899199a1a9b1b9c1cb0b131b232b360811b85600f1660108110614c0a57634e487b7160e01b600052603260045260246000fd5b1a60f81b828281518110614c2e57634e487b7160e01b600052603260045260246000fd5b60200101906001600160f81b031916908160001a90535060049490941c93614c5581616004565b9050614bcb565b50831561305d5760405162461bcd60e51b815260206004820181905260248201527f537472696e67733a20686578206c656e67746820696e73756666696369656e7460448201526064016110e6565b6001600160a01b038316614d0657614d0181600880546000838152600960205260408120829055600182018355919091527ff3f7a9fe364faab93b216da50a3214154f22a0a2b415b23a84c8169e8b636ee30155565b614d29565b816001600160a01b0316836001600160a01b031614614d2957614d298382614fc8565b6001600160a01b038216614d405761121c81615065565b826001600160a01b0316826001600160a01b03161461121c5761121c828261513e565b611bfd828260405180602001604052806000815250615182565b614d8682613950565b614de95760405162461bcd60e51b815260206004820152602e60248201527f45524337323155524953746f726167653a2055524920736574206f66206e6f6e60448201526d32bc34b9ba32b73a103a37b5b2b760911b60648201526084016110e6565b6000828152600a60209081526040909120825161121c92840190615398565b6000614e138261281b565b9050614e2181600084614712565b614e2c60008361396d565b6001600160a01b0381166000908152600360205260408120805460019290614e55908490615fc1565b909155505060008281526002602052604080822080546001600160a01b0319169055518391906001600160a01b038416907fddf252ad1be2c89b69c2b068fc378daa952ba7f163c4a11628f55a4df523b3ef908390a45050565b606081614ed35750506040805180820190915260018152600360fc1b602082015290565b8160005b8115614efd5780614ee781616050565b9150614ef69050600a83615f8e565b9150614ed7565b6000816001600160401b03811115614f2557634e487b7160e01b600052604160045260246000fd5b6040519080825280601f01601f191660200182016040528015614f4f576020820181803683370190505b5090505b8415613ad357614f64600183615fc1565b9150614f71600a8661606b565b614f7c906030615f76565b60f81b818381518110614f9f57634e487b7160e01b600052603260045260246000fd5b60200101906001600160f81b031916908160001a905350614fc1600a86615f8e565b9450614f53565b60006001614fd5846128f7565b614fdf9190615fc1565b600083815260076020526040902054909150808214615032576001600160a01b03841660009081526006602090815260408083208584528252808320548484528184208190558352600790915290208190555b5060009182526007602090815260408084208490556001600160a01b039094168352600681528383209183525290812055565b60085460009061507790600190615fc1565b600083815260096020526040812054600880549394509092849081106150ad57634e487b7160e01b600052603260045260246000fd5b9060005260206000200154905080600883815481106150dc57634e487b7160e01b600052603260045260246000fd5b600091825260208083209091019290925582815260099091526040808220849055858252812055600880548061512257634e487b7160e01b600052603160045260246000fd5b6001900381819060005260206000200160009055905550505050565b6000615149836128f7565b6001600160a01b039093166000908152600660209081526040808320868452825280832085905593825260079052919091209190915550565b61518c83836151b5565b6151996000848484614896565b61121c5760405162461bcd60e51b81526004016110e690615cb1565b6001600160a01b03821661520b5760405162461bcd60e51b815260206004820181905260248201527f4552433732313a206d696e7420746f20746865207a65726f206164647265737360448201526064016110e6565b61521481613950565b156152615760405162461bcd60e51b815260206004820152601c60248201527f4552433732313a20746f6b656e20616c7265616479206d696e7465640000000060448201526064016110e6565b61526d60008383614712565b6001600160a01b0382166000908152600360205260408120805460019290615296908490615f76565b909155505060008181526002602052604080822080546001600160a01b0319166001600160a01b03861690811790915590518392907fddf252ad1be2c89b69c2b068fc378daa952ba7f163c4a11628f55a4df523b3ef908290a45050565b82805482825590600052602060002090810192821561532f579160200282015b8281111561532f578251825591602001919060010190615314565b5061533b929150615441565b5090565b82805482825590600052602060002090810192821561538c579160200282015b8281111561538c578251805161537c918491602090910190615398565b509160200191906001019061535f565b5061533b929150615456565b8280546153a49061601b565b90600052602060002090601f0160209004810192826153c6576000855561532f565b82601f106153df57805160ff191683800117855561532f565b8280016001018555821561532f579182018281111561532f578251825591602001919060010190615314565b5080546154179061601b565b6000825580601f10615427575050565b601f0160209004906000526020600020908101906121f891905b5b8082111561533b5760008155600101615442565b8082111561533b57600061546a828261540b565b50600101615456565b60006001600160401b0383111561548c5761548c6160ab565b61549f601f8401601f1916602001615f23565b90508281528383830111156154b357600080fd5b828260208301376000602084830101529392505050565b80356001600160a01b03811681146154e157600080fd5b919050565b600082601f8301126154f6578081fd5b8135602061550b61550683615f53565b615f23565b80838252828201915082860187848660051b890101111561552a578586fd5b855b8581101561556a5781356001600160401b03811115615549578788fd5b6155578a87838c0101615577565b855250928401929084019060010161552c565b5090979650505050505050565b600082601f830112615587578081fd5b61305d83833560208501615473565b6000602082840312156155a7578081fd5b61305d826154ca565b600080604083850312156155c2578081fd5b6155cb836154ca565b91506155d9602084016154ca565b90509250929050565b6000806000606084860312156155f6578081fd5b6155ff846154ca565b925061560d602085016154ca565b9150604084013590509250925092565b600080600080600060808688031215615634578081fd5b61563d866154ca565b945061564b602087016154ca565b93506040860135925060608601356001600160401b038082111561566d578283fd5b818801915088601f830112615680578283fd5b81358181111561568e578384fd5b89602082850101111561569f578384fd5b9699959850939650602001949392505050565b600080600080608085870312156156c7578384fd5b6156d0856154ca565b93506156de602086016154ca565b92506040850135915060608501356001600160401b038111156156ff578182fd5b8501601f8101871361570f578182fd5b61571e87823560208401615473565b91505092959194509250565b6000806040838503121561573c578182fd5b615745836154ca565b915060208301356001600160401b0381111561575f578182fd5b61576b858286016154e6565b9150509250929050565b60008060408385031215615787578182fd5b615790836154ca565b915060208301356157a0816160c1565b809150509250929050565b600080604083850312156157bd578182fd5b6157c6836154ca565b915060208301356001600160401b038111156157e0578182fd5b61576b85828601615577565b600080600060608486031215615800578081fd5b615809846154ca565b925060208401356001600160401b03811115615823578182fd5b61582f86828701615577565b925050604084013590509250925092565b60008060408385031215615852578182fd5b61585b836154ca565b946020939093013593505050565b60008060006060848603121561587d578081fd5b615886846154ca565b95602085013595506040909401359392505050565b6000806000604084860312156158af578081fd5b83356001600160401b03808211156158c5578283fd5b818601915086601f8301126158d8578283fd5b8135818111156158e6578384fd5b8760208260051b85010111156158fa578384fd5b60209283019550935050840135615910816160c1565b809150509250925092565b6000806040838503121561592d578182fd5b82356001600160401b0380821115615943578384fd5b61594f868387016154e6565b9350602091508185013581811115615965578384fd5b85019050601f81018613615977578283fd5b803561598561550682615f53565b80828252848201915084840189868560051b87010111156159a4578687fd5b8694505b838510156159c65780358352600194909401939185019185016159a8565b5080955050505050509250929050565b6000602082840312156159e7578081fd5b815161305d816160c1565b600060208284031215615a03578081fd5b5035919050565b60008060408385031215615a1c578182fd5b823591506155d9602084016154ca565b600060208284031215615a3d578081fd5b813561305d816160cf565b600060208284031215615a59578081fd5b815161305d816160cf565b600060208284031215615a75578081fd5b5051919050565b60008060408385031215615a8e578182fd5b8235915060208301356001600160401b038111156157e0578182fd5b60008060408385031215615abc578182fd5b50508035926020909101359150565b600080600060608486031215615adf578081fd5b8335925060208401359150615af6604085016154ca565b90509250925092565b600060208284031215615b10578081fd5b815163ffffffff8116811461305d578182fd5b60008151808452615b3b816020860160208601615fd8565b601f01601f19169290920160200192915050565b60008251615b61818460208701615fd8565b9190910192915050565b60008351615b7d818460208801615fd8565b835190830190615b91818360208801615fd8565b01949350505050565b7f416363657373436f6e74726f6c3a206163636f756e7420000000000000000000815260008351615bd2816017850160208801615fd8565b7001034b99036b4b9b9b4b733903937b6329607d1b6017918401918201528351615c03816028840160208801615fd8565b01602801949350505050565b6001600160a01b039384168152919092166020820152604081019190915260600190565b6001600160a01b0385811682528416602082015260408101839052608060608201819052600090615c6690830184615b23565b9695505050505050565b60208152600061305d6020830184615b23565b6020808252601490820152731ad95e4818dbdb9d1c9858dd081b9bdd081cd95d60621b604082015260600190565b60208082526032908201527f4552433732313a207472616e7366657220746f206e6f6e20455243373231526560408201527131b2b4bb32b91034b6b83632b6b2b73a32b960711b606082015260800190565b60208082526013908201527257726f6e6720636c61696d206164647265737360681b604082015260600190565b60208082526010908201526f14185d5cd8589b194e881c185d5cd95960821b604082015260600190565b6020808252818101527f4f776e61626c653a2063616c6c6572206973206e6f7420746865206f776e6572604082015260600190565b60208082526021908201527f73686f756c642062757920616c6c20636f6c6c656374696f6e73206265666f726040820152606560f81b606082015260800190565b60208082526021908201527f76616c75652073686f756c642062652067726561746572207468616e207a65726040820152606f60f81b606082015260800190565b6020808252601b908201527f4e6f7420796574206c61756e63682074696d6520726561636865640000000000604082015260600190565b60208082526031908201527f4552433732313a207472616e736665722063616c6c6572206973206e6f74206f6040820152701ddb995c881b9bdc88185c1c1c9bdd9959607a1b606082015260800190565b6020808252601f908201527f5265656e7472616e637947756172643a207265656e7472616e742063616c6c00604082015260600190565b60208082526033908201527f4f6e6c79206f776e657273206f66204d797374657279426f782063616e20636c60408201527261696d20756e626f786564206974656d28732960681b606082015260800190565b604051601f8201601f191681016001600160401b0381118282101715615f4b57615f4b6160ab565b604052919050565b60006001600160401b03821115615f6c57615f6c6160ab565b5060051b60200190565b60008219821115615f8957615f8961607f565b500190565b600082615f9d57615f9d616095565b500490565b6000816000190483118215151615615fbc57615fbc61607f565b500290565b600082821015615fd357615fd361607f565b500390565b60005b83811015615ff3578181015183820152602001615fdb565b83811115611b7d5750506000910152565b6000816160135761601361607f565b506000190190565b600181811c9082168061602f57607f821691505b6020821081141561281557634e487b7160e01b600052602260045260246000fd5b60006000198214156160645761606461607f565b5060010190565b60008261607a5761607a616095565b500690565b634e487b7160e01b600052601160045260246000fd5b634e487b7160e01b600052601260045260246000fd5b634e487b7160e01b600052604160045260246000fd5b80151581146121f857600080fd5b6001600160e01b0319811681146121f857600080fdfe65d7a28e3265b37a6474929f336521b332c1681b933f6cb9f3376673440d862a9f2df0fed2c77648de5860a4cc508cd0818c85b8b8a1ab4ceeef8d981c8956a6a2646970667358221220c1e1ef6caf979742b330ed3280c9dc78a1177a01e7330f90c6c159b09a97bade64736f6c634300080400334f776e61626c653a2063616c6c6572206973206e6f7420746865206f776e657265d7a28e3265b37a6474929f336521b332c1681b933f6cb9f3376673440d862a9f2df0fed2c77648de5860a4cc508cd0818c85b8b8a1ab4ceeef8d981c8956a6",
  "linkReferences": {},
  "deployedLinkReferences": {}
}