{
  "_format": "hh-sol-artifact-1",
  "contractName": "MysteryBox",
  "sourceName": "contracts/MysteryBox.sol",
  "abi": [
    {
      "inputs": [
        {
          "internalType": "string",
          "name": "name",
          "type": "string"
        },
        {
          "internalType": "string",
          "name": "symbol",
          "type": "string"
        },
        {
          "internalType": "address",
          "name": "_key",
          "type": "address"
        },
        {
          "internalType": "address",
          "name": "_quote",
          "type": "address"
        },
        {
          "internalType": "address",
          "name": "_payment",
          "type": "address"
        },
        {
          "internalType": "address",
          "name": "_treasury",
          "type": "address"
        },
        {
          "internalType": "uint256[]",
          "name": "configValues",
          "type": "uint256[]"
        },
        {
          "internalType": "contract IWitnetRandomness",
          "name": "_witnetRandomness",
          "type": "address"
        }
      ],
      "stateMutability": "nonpayable",
      "type": "constructor"
    },
    {
      "anonymous": false,
      "inputs": [
        {
          "indexed": true,
          "internalType": "address",
          "name": "owner",
          "type": "address"
        },
        {
          "indexed": true,
          "internalType": "address",
          "name": "approved",
          "type": "address"
        },
        {
          "indexed": true,
          "internalType": "uint256",
          "name": "tokenId",
          "type": "uint256"
        }
      ],
      "name": "Approval",
      "type": "event"
    },
    {
      "anonymous": false,
      "inputs": [
        {
          "indexed": true,
          "internalType": "address",
          "name": "owner",
          "type": "address"
        },
        {
          "indexed": true,
          "internalType": "address",
          "name": "operator",
          "type": "address"
        },
        {
          "indexed": false,
          "internalType": "bool",
          "name": "approved",
          "type": "bool"
        }
      ],
      "name": "ApprovalForAll",
      "type": "event"
    },
    {
      "anonymous": false,
      "inputs": [
        {
          "indexed": false,
          "internalType": "address",
          "name": "",
          "type": "address"
        },
        {
          "indexed": false,
          "internalType": "string",
          "name": "",
          "type": "string"
        }
      ],
      "name": "Grant",
      "type": "event"
    },
    {
      "anonymous": false,
      "inputs": [
        {
          "indexed": true,
          "internalType": "address",
          "name": "previousOwner",
          "type": "address"
        },
        {
          "indexed": true,
          "internalType": "address",
          "name": "newOwner",
          "type": "address"
        }
      ],
      "name": "OwnershipTransferred",
      "type": "event"
    },
    {
      "anonymous": false,
      "inputs": [
        {
          "indexed": false,
          "internalType": "address",
          "name": "account",
          "type": "address"
        }
      ],
      "name": "Paused",
      "type": "event"
    },
    {
      "anonymous": false,
      "inputs": [
        {
          "indexed": true,
          "internalType": "bytes32",
          "name": "role",
          "type": "bytes32"
        },
        {
          "indexed": true,
          "internalType": "bytes32",
          "name": "previousAdminRole",
          "type": "bytes32"
        },
        {
          "indexed": true,
          "internalType": "bytes32",
          "name": "newAdminRole",
          "type": "bytes32"
        }
      ],
      "name": "RoleAdminChanged",
      "type": "event"
    },
    {
      "anonymous": false,
      "inputs": [
        {
          "indexed": true,
          "internalType": "bytes32",
          "name": "role",
          "type": "bytes32"
        },
        {
          "indexed": true,
          "internalType": "address",
          "name": "account",
          "type": "address"
        },
        {
          "indexed": true,
          "internalType": "address",
          "name": "sender",
          "type": "address"
        }
      ],
      "name": "RoleGranted",
      "type": "event"
    },
    {
      "anonymous": false,
      "inputs": [
        {
          "indexed": true,
          "internalType": "bytes32",
          "name": "role",
          "type": "bytes32"
        },
        {
          "indexed": true,
          "internalType": "address",
          "name": "account",
          "type": "address"
        },
        {
          "indexed": true,
          "internalType": "address",
          "name": "sender",
          "type": "address"
        }
      ],
      "name": "RoleRevoked",
      "type": "event"
    },
    {
      "anonymous": false,
      "inputs": [
        {
          "indexed": false,
          "internalType": "address",
          "name": "",
          "type": "address"
        },
        {
          "indexed": false,
          "internalType": "address",
          "name": "",
          "type": "address"
        },
        {
          "indexed": false,
          "internalType": "uint256",
          "name": "",
          "type": "uint256"
        }
      ],
      "name": "SetConfig",
      "type": "event"
    },
    {
      "anonymous": false,
      "inputs": [
        {
          "indexed": false,
          "internalType": "uint256",
          "name": "",
          "type": "uint256"
        }
      ],
      "name": "SetHardCap",
      "type": "event"
    },
    {
      "anonymous": false,
      "inputs": [
        {
          "indexed": false,
          "internalType": "uint256",
          "name": "",
          "type": "uint256"
        }
      ],
      "name": "SetLaunch",
      "type": "event"
    },
    {
      "anonymous": false,
      "inputs": [
        {
          "indexed": false,
          "internalType": "uint256",
          "name": "",
          "type": "uint256"
        }
      ],
      "name": "SetLockup",
      "type": "event"
    },
    {
      "anonymous": false,
      "inputs": [
        {
          "indexed": false,
          "internalType": "address",
          "name": "",
          "type": "address"
        },
        {
          "indexed": false,
          "internalType": "uint256",
          "name": "",
          "type": "uint256"
        }
      ],
      "name": "SetMboxKey",
      "type": "event"
    },
    {
      "anonymous": false,
      "inputs": [
        {
          "indexed": false,
          "internalType": "address",
          "name": "",
          "type": "address"
        }
      ],
      "name": "SetMysteryBox",
      "type": "event"
    },
    {
      "anonymous": false,
      "inputs": [
        {
          "indexed": false,
          "internalType": "address",
          "name": "",
          "type": "address"
        }
      ],
      "name": "SetQuote",
      "type": "event"
    },
    {
      "anonymous": false,
      "inputs": [
        {
          "indexed": false,
          "internalType": "address",
          "name": "",
          "type": "address"
        }
      ],
      "name": "SetSubscription",
      "type": "event"
    },
    {
      "anonymous": false,
      "inputs": [
        {
          "indexed": true,
          "internalType": "address",
          "name": "from",
          "type": "address"
        },
        {
          "indexed": true,
          "internalType": "address",
          "name": "to",
          "type": "address"
        },
        {
          "indexed": true,
          "internalType": "uint256",
          "name": "tokenId",
          "type": "uint256"
        }
      ],
      "name": "Transfer",
      "type": "event"
    },
    {
      "anonymous": false,
      "inputs": [
        {
          "indexed": false,
          "internalType": "address",
          "name": "account",
          "type": "address"
        }
      ],
      "name": "Unpaused",
      "type": "event"
    },
    {
      "inputs": [],
      "name": "DEFAULT_ADMIN_ROLE",
      "outputs": [
        {
          "internalType": "bytes32",
          "name": "",
          "type": "bytes32"
        }
      ],
      "stateMutability": "view",
      "type": "function"
    },
    {
      "inputs": [],
      "name": "MINTER_ROLE",
      "outputs": [
        {
          "internalType": "bytes32",
          "name": "",
          "type": "bytes32"
        }
      ],
      "stateMutability": "view",
      "type": "function"
    },
    {
      "inputs": [],
      "name": "PAUSER_ROLE",
      "outputs": [
        {
          "internalType": "bytes32",
          "name": "",
          "type": "bytes32"
        }
      ],
      "stateMutability": "view",
      "type": "function"
    },
    {
      "inputs": [
        {
          "internalType": "address",
          "name": "minter",
          "type": "address"
        }
      ],
      "name": "addMinter",
      "outputs": [],
      "stateMutability": "nonpayable",
      "type": "function"
    },
    {
      "inputs": [
        {
          "internalType": "address",
          "name": "pauser",
          "type": "address"
        }
      ],
      "name": "addPauser",
      "outputs": [],
      "stateMutability": "nonpayable",
      "type": "function"
    },
    {
      "inputs": [
        {
          "internalType": "address",
          "name": "to",
          "type": "address"
        },
        {
          "internalType": "uint256",
          "name": "tokenId",
          "type": "uint256"
        }
      ],
      "name": "approve",
      "outputs": [],
      "stateMutability": "nonpayable",
      "type": "function"
    },
    {
      "inputs": [
        {
          "internalType": "address",
          "name": "owner",
          "type": "address"
        }
      ],
      "name": "balanceOf",
      "outputs": [
        {
          "internalType": "uint256",
          "name": "",
          "type": "uint256"
        }
      ],
      "stateMutability": "view",
      "type": "function"
    },
    {
      "inputs": [
        {
          "internalType": "uint256",
          "name": "tokenId",
          "type": "uint256"
        }
      ],
      "name": "burn",
      "outputs": [],
      "stateMutability": "nonpayable",
      "type": "function"
    },
    {
      "inputs": [
        {
          "internalType": "uint256",
          "name": "_amount",
          "type": "uint256"
        }
      ],
      "name": "buyKeyEth",
      "outputs": [],
      "stateMutability": "payable",
      "type": "function"
    },
    {
      "inputs": [
        {
          "internalType": "uint256",
          "name": "_payment",
          "type": "uint256"
        },
        {
          "internalType": "uint256",
          "name": "_amount",
          "type": "uint256"
        }
      ],
      "name": "buyKeyQuote",
      "outputs": [],
      "stateMutability": "payable",
      "type": "function"
    },
    {
      "inputs": [
        {
          "internalType": "address",
          "name": "to",
          "type": "address"
        },
        {
          "internalType": "uint256",
          "name": "amount",
          "type": "uint256"
        }
      ],
      "name": "claim",
      "outputs": [],
      "stateMutability": "nonpayable",
      "type": "function"
    },
    {
      "inputs": [
        {
          "internalType": "address",
          "name": "to",
          "type": "address"
        },
        {
          "internalType": "uint256",
          "name": "_amount",
          "type": "uint256"
        }
      ],
      "name": "claimKeys",
      "outputs": [],
      "stateMutability": "nonpayable",
      "type": "function"
    },
    {
      "inputs": [
        {
          "internalType": "uint256",
          "name": "gasPrice",
          "type": "uint256"
        }
      ],
      "name": "estimateRandomizeFee",
      "outputs": [
        {
          "internalType": "uint256",
          "name": "",
          "type": "uint256"
        }
      ],
      "stateMutability": "view",
      "type": "function"
    },
    {
      "inputs": [],
      "name": "feeRate",
      "outputs": [
        {
          "internalType": "uint256",
          "name": "",
          "type": "uint256"
        }
      ],
      "stateMutability": "view",
      "type": "function"
    },
    {
      "inputs": [
        {
          "internalType": "uint256",
          "name": "tokenId",
          "type": "uint256"
        }
      ],
      "name": "getApproved",
      "outputs": [
        {
          "internalType": "address",
          "name": "",
          "type": "address"
        }
      ],
      "stateMutability": "view",
      "type": "function"
    },
    {
      "inputs": [
        {
          "internalType": "uint256",
          "name": "index",
          "type": "uint256"
        }
      ],
      "name": "getItemAmount",
      "outputs": [
        {
          "internalType": "uint256",
          "name": "",
          "type": "uint256"
        }
      ],
      "stateMutability": "view",
      "type": "function"
    },
    {
      "inputs": [
        {
          "internalType": "bytes32",
          "name": "role",
          "type": "bytes32"
        }
      ],
      "name": "getRoleAdmin",
      "outputs": [
        {
          "internalType": "bytes32",
          "name": "",
          "type": "bytes32"
        }
      ],
      "stateMutability": "view",
      "type": "function"
    },
    {
      "inputs": [
        {
          "internalType": "address",
          "name": "_subAddr",
          "type": "address"
        }
      ],
      "name": "getSubInfos",
      "outputs": [
        {
          "internalType": "address",
          "name": "",
          "type": "address"
        },
        {
          "internalType": "uint256",
          "name": "",
          "type": "uint256"
        },
        {
          "internalType": "uint256",
          "name": "",
          "type": "uint256"
        }
      ],
      "stateMutability": "view",
      "type": "function"
    },
    {
      "inputs": [],
      "name": "globalURI",
      "outputs": [
        {
          "internalType": "string",
          "name": "",
          "type": "string"
        }
      ],
      "stateMutability": "view",
      "type": "function"
    },
    {
      "inputs": [
        {
          "internalType": "bytes32",
          "name": "role",
          "type": "bytes32"
        },
        {
          "internalType": "address",
          "name": "account",
          "type": "address"
        }
      ],
      "name": "grantRole",
      "outputs": [],
      "stateMutability": "nonpayable",
      "type": "function"
    },
    {
      "inputs": [],
      "name": "hardCap",
      "outputs": [
        {
          "internalType": "uint256",
          "name": "",
          "type": "uint256"
        }
      ],
      "stateMutability": "view",
      "type": "function"
    },
    {
      "inputs": [
        {
          "internalType": "bytes32",
          "name": "role",
          "type": "bytes32"
        },
        {
          "internalType": "address",
          "name": "account",
          "type": "address"
        }
      ],
      "name": "hasRole",
      "outputs": [
        {
          "internalType": "bool",
          "name": "",
          "type": "bool"
        }
      ],
      "stateMutability": "view",
      "type": "function"
    },
    {
      "inputs": [
        {
          "internalType": "address",
          "name": "owner",
          "type": "address"
        },
        {
          "internalType": "address",
          "name": "operator",
          "type": "address"
        }
      ],
      "name": "isApprovedForAll",
      "outputs": [
        {
          "internalType": "bool",
          "name": "",
          "type": "bool"
        }
      ],
      "stateMutability": "view",
      "type": "function"
    },
    {
      "inputs": [
        {
          "internalType": "uint256",
          "name": "",
          "type": "uint256"
        }
      ],
      "name": "itemAmounts",
      "outputs": [
        {
          "internalType": "uint256",
          "name": "",
          "type": "uint256"
        }
      ],
      "stateMutability": "view",
      "type": "function"
    },
    {
      "inputs": [
        {
          "internalType": "uint256",
          "name": "",
          "type": "uint256"
        }
      ],
      "name": "itemURIs",
      "outputs": [
        {
          "internalType": "string",
          "name": "",
          "type": "string"
        }
      ],
      "stateMutability": "view",
      "type": "function"
    },
    {
      "inputs": [
        {
          "internalType": "uint256",
          "name": "",
          "type": "uint256"
        }
      ],
      "name": "items",
      "outputs": [
        {
          "internalType": "uint256",
          "name": "",
          "type": "uint256"
        }
      ],
      "stateMutability": "view",
      "type": "function"
    },
    {
      "inputs": [],
      "name": "key",
      "outputs": [
        {
          "internalType": "address",
          "name": "",
          "type": "address"
        }
      ],
      "stateMutability": "view",
      "type": "function"
    },
    {
      "inputs": [],
      "name": "latestRandomizingBlock",
      "outputs": [
        {
          "internalType": "uint256",
          "name": "",
          "type": "uint256"
        }
      ],
      "stateMutability": "view",
      "type": "function"
    },
    {
      "inputs": [],
      "name": "launch",
      "outputs": [
        {
          "internalType": "uint256",
          "name": "",
          "type": "uint256"
        }
      ],
      "stateMutability": "view",
      "type": "function"
    },
    {
      "inputs": [],
      "name": "lockup",
      "outputs": [
        {
          "internalType": "uint256",
          "name": "",
          "type": "uint256"
        }
      ],
      "stateMutability": "view",
      "type": "function"
    },
    {
      "inputs": [],
      "name": "mysteryBox",
      "outputs": [
        {
          "internalType": "address",
          "name": "",
          "type": "address"
        }
      ],
      "stateMutability": "view",
      "type": "function"
    },
    {
      "inputs": [],
      "name": "name",
      "outputs": [
        {
          "internalType": "string",
          "name": "",
          "type": "string"
        }
      ],
      "stateMutability": "view",
      "type": "function"
    },
    {
      "inputs": [
        {
          "internalType": "address",
          "name": "operator",
          "type": "address"
        },
        {
          "internalType": "address",
          "name": "from",
          "type": "address"
        },
        {
          "internalType": "uint256",
          "name": "tokenId",
          "type": "uint256"
        },
        {
          "internalType": "bytes",
          "name": "data",
          "type": "bytes"
        }
      ],
      "name": "onERC721Received",
      "outputs": [
        {
          "internalType": "bytes4",
          "name": "",
          "type": "bytes4"
        }
      ],
      "stateMutability": "pure",
      "type": "function"
    },
    {
      "inputs": [],
      "name": "owner",
      "outputs": [
        {
          "internalType": "address",
          "name": "",
          "type": "address"
        }
      ],
      "stateMutability": "view",
      "type": "function"
    },
    {
      "inputs": [
        {
          "internalType": "uint256",
          "name": "tokenId",
          "type": "uint256"
        }
      ],
      "name": "ownerOf",
      "outputs": [
        {
          "internalType": "address",
          "name": "",
          "type": "address"
        }
      ],
      "stateMutability": "view",
      "type": "function"
    },
    {
      "inputs": [],
      "name": "pause",
      "outputs": [],
      "stateMutability": "nonpayable",
      "type": "function"
    },
    {
      "inputs": [],
      "name": "paused",
      "outputs": [
        {
          "internalType": "bool",
          "name": "",
          "type": "bool"
        }
      ],
      "stateMutability": "view",
      "type": "function"
    },
    {
      "inputs": [],
      "name": "payment",
      "outputs": [
        {
          "internalType": "address",
          "name": "",
          "type": "address"
        }
      ],
      "stateMutability": "view",
      "type": "function"
    },
    {
      "inputs": [],
      "name": "price",
      "outputs": [
        {
          "internalType": "uint256",
          "name": "",
          "type": "uint256"
        }
      ],
      "stateMutability": "view",
      "type": "function"
    },
    {
      "inputs": [],
      "name": "quote",
      "outputs": [
        {
          "internalType": "address",
          "name": "",
          "type": "address"
        }
      ],
      "stateMutability": "view",
      "type": "function"
    },
    {
      "inputs": [],
      "name": "randomness",
      "outputs": [
        {
          "internalType": "uint32",
          "name": "",
          "type": "uint32"
        }
      ],
      "stateMutability": "view",
      "type": "function"
    },
    {
      "inputs": [
        {
          "internalType": "string[]",
          "name": "uris",
          "type": "string[]"
        },
        {
          "internalType": "uint256[]",
          "name": "amounts",
          "type": "uint256[]"
        }
      ],
      "name": "registerItems",
      "outputs": [],
      "stateMutability": "nonpayable",
      "type": "function"
    },
    {
      "inputs": [],
      "name": "renounceOwnership",
      "outputs": [],
      "stateMutability": "nonpayable",
      "type": "function"
    },
    {
      "inputs": [
        {
          "internalType": "bytes32",
          "name": "role",
          "type": "bytes32"
        },
        {
          "internalType": "address",
          "name": "account",
          "type": "address"
        }
      ],
      "name": "renounceRole",
      "outputs": [],
      "stateMutability": "nonpayable",
      "type": "function"
    },
    {
      "inputs": [],
      "name": "requestRandomNumber",
      "outputs": [],
      "stateMutability": "payable",
      "type": "function"
    },
    {
      "inputs": [
        {
          "internalType": "bytes32",
          "name": "role",
          "type": "bytes32"
        },
        {
          "internalType": "address",
          "name": "account",
          "type": "address"
        }
      ],
      "name": "revokeRole",
      "outputs": [],
      "stateMutability": "nonpayable",
      "type": "function"
    },
    {
      "inputs": [
        {
          "internalType": "address",
          "name": "to",
          "type": "address"
        },
        {
          "internalType": "string[]",
          "name": "uris",
          "type": "string[]"
        }
      ],
      "name": "safeBatchMint",
      "outputs": [],
      "stateMutability": "view",
      "type": "function"
    },
    {
      "inputs": [
        {
          "internalType": "address",
          "name": "to",
          "type": "address"
        },
        {
          "internalType": "string",
          "name": "uri",
          "type": "string"
        },
        {
          "internalType": "uint256",
          "name": "amount",
          "type": "uint256"
        }
      ],
      "name": "safeBatchMintLight",
      "outputs": [],
      "stateMutability": "nonpayable",
      "type": "function"
    },
    {
      "inputs": [
        {
          "internalType": "address",
          "name": "to",
          "type": "address"
        },
        {
          "internalType": "string",
          "name": "uri",
          "type": "string"
        }
      ],
      "name": "safeMint",
      "outputs": [
        {
          "internalType": "uint256",
          "name": "",
          "type": "uint256"
        }
      ],
      "stateMutability": "view",
      "type": "function"
    },
    {
      "inputs": [
        {
          "internalType": "address",
          "name": "to",
          "type": "address"
        }
      ],
      "name": "safeMintTo",
      "outputs": [],
      "stateMutability": "nonpayable",
      "type": "function"
    },
    {
      "inputs": [
        {
          "internalType": "address",
          "name": "from",
          "type": "address"
        },
        {
          "internalType": "address",
          "name": "to",
          "type": "address"
        },
        {
          "internalType": "uint256",
          "name": "tokenId",
          "type": "uint256"
        }
      ],
      "name": "safeTransferFrom",
      "outputs": [],
      "stateMutability": "nonpayable",
      "type": "function"
    },
    {
      "inputs": [
        {
          "internalType": "address",
          "name": "from",
          "type": "address"
        },
        {
          "internalType": "address",
          "name": "to",
          "type": "address"
        },
        {
          "internalType": "uint256",
          "name": "tokenId",
          "type": "uint256"
        },
        {
          "internalType": "bytes",
          "name": "_data",
          "type": "bytes"
        }
      ],
      "name": "safeTransferFrom",
      "outputs": [],
      "stateMutability": "nonpayable",
      "type": "function"
    },
    {
      "inputs": [
        {
          "internalType": "address",
          "name": "operator",
          "type": "address"
        },
        {
          "internalType": "bool",
          "name": "approved",
          "type": "bool"
        }
      ],
      "name": "setApprovalForAll",
      "outputs": [],
      "stateMutability": "nonpayable",
      "type": "function"
    },
    {
      "inputs": [
        {
          "internalType": "address",
          "name": "_payment",
          "type": "address"
        },
        {
          "internalType": "address",
          "name": "_treasury",
          "type": "address"
        },
        {
          "internalType": "uint256",
          "name": "_feeRate",
          "type": "uint256"
        }
      ],
      "name": "setConfig",
      "outputs": [],
      "stateMutability": "nonpayable",
      "type": "function"
    },
    {
      "inputs": [
        {
          "internalType": "uint256",
          "name": "_hardCap",
          "type": "uint256"
        },
        {
          "internalType": "string",
          "name": "_uri",
          "type": "string"
        }
      ],
      "name": "setHardCap",
      "outputs": [],
      "stateMutability": "nonpayable",
      "type": "function"
    },
    {
      "inputs": [
        {
          "internalType": "uint256",
          "name": "_launch",
          "type": "uint256"
        }
      ],
      "name": "setLaunch",
      "outputs": [],
      "stateMutability": "nonpayable",
      "type": "function"
    },
    {
      "inputs": [
        {
          "internalType": "uint256",
          "name": "_lockup",
          "type": "uint256"
        }
      ],
      "name": "setLockup",
      "outputs": [],
      "stateMutability": "nonpayable",
      "type": "function"
    },
    {
      "inputs": [
        {
          "internalType": "address",
          "name": "_key",
          "type": "address"
        },
        {
          "internalType": "uint256",
          "name": "_price",
          "type": "uint256"
        }
      ],
      "name": "setMboxKey",
      "outputs": [],
      "stateMutability": "nonpayable",
      "type": "function"
    },
    {
      "inputs": [
        {
          "internalType": "address",
          "name": "_mbox",
          "type": "address"
        }
      ],
      "name": "setMysteryBox",
      "outputs": [],
      "stateMutability": "nonpayable",
      "type": "function"
    },
    {
      "inputs": [
        {
          "internalType": "address",
          "name": "_quote",
          "type": "address"
        }
      ],
      "name": "setQuote",
      "outputs": [],
      "stateMutability": "nonpayable",
      "type": "function"
    },
    {
      "inputs": [
        {
          "internalType": "address",
          "name": "_subscription",
          "type": "address"
        },
        {
          "internalType": "uint256",
          "name": "_type",
          "type": "uint256"
        },
        {
          "internalType": "uint256",
          "name": "_amount",
          "type": "uint256"
        }
      ],
      "name": "setSubscription",
      "outputs": [],
      "stateMutability": "nonpayable",
      "type": "function"
    },
    {
      "inputs": [
        {
          "internalType": "address",
          "name": "",
          "type": "address"
        }
      ],
      "name": "subAddrs",
      "outputs": [
        {
          "internalType": "uint256",
          "name": "",
          "type": "uint256"
        }
      ],
      "stateMutability": "view",
      "type": "function"
    },
    {
      "inputs": [
        {
          "internalType": "uint256",
          "name": "",
          "type": "uint256"
        }
      ],
      "name": "subInfos",
      "outputs": [
        {
          "internalType": "address",
          "name": "contractAddr",
          "type": "address"
        },
        {
          "internalType": "uint256",
          "name": "contractType",
          "type": "uint256"
        },
        {
          "internalType": "uint256",
          "name": "amount",
          "type": "uint256"
        },
        {
          "internalType": "uint256",
          "name": "start",
          "type": "uint256"
        },
        {
          "internalType": "uint256",
          "name": "end",
          "type": "uint256"
        },
        {
          "internalType": "uint256",
          "name": "count",
          "type": "uint256"
        }
      ],
      "stateMutability": "view",
      "type": "function"
    },
    {
      "inputs": [
        {
          "internalType": "bytes4",
          "name": "interfaceId",
          "type": "bytes4"
        }
      ],
      "name": "supportsInterface",
      "outputs": [
        {
          "internalType": "bool",
          "name": "",
          "type": "bool"
        }
      ],
      "stateMutability": "view",
      "type": "function"
    },
    {
      "inputs": [],
      "name": "symbol",
      "outputs": [
        {
          "internalType": "string",
          "name": "",
          "type": "string"
        }
      ],
      "stateMutability": "view",
      "type": "function"
    },
    {
      "inputs": [
        {
          "internalType": "uint256",
          "name": "index",
          "type": "uint256"
        }
      ],
      "name": "tokenByIndex",
      "outputs": [
        {
          "internalType": "uint256",
          "name": "",
          "type": "uint256"
        }
      ],
      "stateMutability": "view",
      "type": "function"
    },
    {
      "inputs": [
        {
          "internalType": "address",
          "name": "owner",
          "type": "address"
        },
        {
          "internalType": "uint256",
          "name": "index",
          "type": "uint256"
        }
      ],
      "name": "tokenOfOwnerByIndex",
      "outputs": [
        {
          "internalType": "uint256",
          "name": "",
          "type": "uint256"
        }
      ],
      "stateMutability": "view",
      "type": "function"
    },
    {
      "inputs": [
        {
          "internalType": "uint256",
          "name": "tokenId",
          "type": "uint256"
        }
      ],
      "name": "tokenURI",
      "outputs": [
        {
          "internalType": "string",
          "name": "",
          "type": "string"
        }
      ],
      "stateMutability": "view",
      "type": "function"
    },
    {
      "inputs": [],
      "name": "totalItems",
      "outputs": [
        {
          "internalType": "uint256",
          "name": "",
          "type": "uint256"
        }
      ],
      "stateMutability": "view",
      "type": "function"
    },
    {
      "inputs": [],
      "name": "totalSupply",
      "outputs": [
        {
          "internalType": "uint256",
          "name": "",
          "type": "uint256"
        }
      ],
      "stateMutability": "view",
      "type": "function"
    },
    {
      "inputs": [
        {
          "internalType": "address",
          "name": "from",
          "type": "address"
        },
        {
          "internalType": "address",
          "name": "to",
          "type": "address"
        },
        {
          "internalType": "uint256",
          "name": "tokenId",
          "type": "uint256"
        }
      ],
      "name": "transferFrom",
      "outputs": [],
      "stateMutability": "nonpayable",
      "type": "function"
    },
    {
      "inputs": [
        {
          "internalType": "address",
          "name": "newOwner",
          "type": "address"
        }
      ],
      "name": "transferOwnership",
      "outputs": [],
      "stateMutability": "nonpayable",
      "type": "function"
    },
    {
      "inputs": [],
      "name": "treasury",
      "outputs": [
        {
          "internalType": "address",
          "name": "",
          "type": "address"
        }
      ],
      "stateMutability": "view",
      "type": "function"
    },
    {
      "inputs": [],
      "name": "unpause",
      "outputs": [],
      "stateMutability": "nonpayable",
      "type": "function"
    },
    {
      "inputs": [],
      "name": "witnet",
      "outputs": [
        {
          "internalType": "contract IWitnetRandomness",
          "name": "",
          "type": "address"
        }
      ],
      "stateMutability": "view",
      "type": "function"
    },
    {
      "stateMutability": "payable",
      "type": "receive"
    }
  ],
  "bytecode": "0x60a06040526000600d819055601380546001600160a01b031916905560178190556032601c55601f8190556022805460ff1916905560248190556026553480156200004957600080fd5b50604051620062be380380620062be8339810160408190526200006c91620009f4565b8787818181600090805190602001906200008892919062000815565b5080516200009e90600190602084019062000815565b5050600b805460ff1916905550620000b633620002d3565b620000c36000336200032d565b620000de6000805160206200627e833981519152336200032d565b620000f96000805160206200629e833981519152336200032d565b505060016011558151600414620001575760405162461bcd60e51b815260206004820152601a60248201527f696e76616c696420636f6e6669672064617461206c656e67746800000000000060448201526064015b60405180910390fd5b620001646000336200032d565b6200017f6000805160206200627e833981519152336200032d565b6200019a6000805160206200629e833981519152336200032d565b620001d482600081518110620001c057634e487b7160e01b600052603260045260246000fd5b6020026020010151620003d260201b60201c565b6200020e82600181518110620001fa57634e487b7160e01b600052603260045260246000fd5b60200260200101516200045f60201b60201c565b6200024986836002815181106200023557634e487b7160e01b600052603260045260246000fd5b6020026020010151620004e660201b60201c565b620002858484846003815181106200027157634e487b7160e01b600052603260045260246000fd5b6020026020010151620005f960201b60201c565b620002908562000775565b6001600160a01b038116620002b557634e487b7160e01b600052600160045260246000fd5b60601b6001600160601b0319166080525062000b6595505050505050565b600b80546001600160a01b03838116610100818102610100600160a81b031985161790945560405193909204169182907f8be0079c531659141344cd1fd0a4f28419497f9722a3daafe3b4186f6b6457e090600090a35050565b6000828152600c602090815260408083206001600160a01b038516845290915290205460ff16620003ce576000828152600c602090815260408083206001600160a01b03851684529091529020805460ff191660011790556200038d3390565b6001600160a01b0316816001600160a01b0316837f2f8788117e7eff1d82e926ec794901d17c78024a50270940304540a733656f0d60405160405180910390a45b5050565b600b546001600160a01b03610100909104163314620004235760405162461bcd60e51b815260206004820181905260248201526000805160206200625e83398151915260448201526064016200014e565b60188190556040518181527f7c8826e4db3679f20c86da0c68d37f9dbcd1d638c56717e014f93c56d14c02d1906020015b60405180910390a150565b600b546001600160a01b03610100909104163314620004b05760405162461bcd60e51b815260206004820181905260248201526000805160206200625e83398151915260448201526064016200014e565b60198190556040518181527fa7ade4ab976b6643a971383d9822fb7c2fce66aa2e497d88c3b4f1475ea2b2e09060200162000454565b600b546001600160a01b03610100909104163314620005375760405162461bcd60e51b815260206004820181905260248201526000805160206200625e83398151915260448201526064016200014e565b6001600160a01b038216620005995760405162461bcd60e51b815260206004820152602160248201527f57726f6e67204d797374657279426f7820636f6e7472616374206164647265736044820152607360f81b60648201526084016200014e565b601280546001600160a01b0319166001600160a01b038416908117909155601482905560408051918252602082018390527fd46fcdc06972a446de426e47c59c6a0c4581b5c0116ac49a2efc3e7d23bdfe72910160405180910390a15050565b600b546001600160a01b036101009091041633146200064a5760405162461bcd60e51b815260206004820181905260248201526000805160206200625e83398151915260448201526064016200014e565b6001600160a01b038316620006a25760405162461bcd60e51b815260206004820152601760248201527f696e76616c6964207061796d656e74206164647265737300000000000000000060448201526064016200014e565b6001600160a01b038216620006fa5760405162461bcd60e51b815260206004820152601860248201527f696e76616c69642074726561737572792061646472657373000000000000000060448201526064016200014e565b601a80546001600160a01b038581166001600160a01b03199283168117909355601b8054918616919092168117909155601c83905560408051928352602083019190915281018290527fe2be3027f197494650b7a98fd1cae67dacf615bd1d8bb05102999676f11638669060600160405180910390a1505050565b600b546001600160a01b03610100909104163314620007c65760405162461bcd60e51b815260206004820181905260248201526000805160206200625e83398151915260448201526064016200014e565b601380546001600160a01b0319166001600160a01b0383169081179091556040519081527fca92c759228172fe3894a344908fd20dfd37ba561b5af191f1f5b02ee03881fc9060200162000454565b828054620008239062000b12565b90600052602060002090601f01602090048101928262000847576000855562000892565b82601f106200086257805160ff191683800117855562000892565b8280016001018555821562000892579182015b828111156200089257825182559160200191906001019062000875565b50620008a0929150620008a4565b5090565b5b80821115620008a05760008155600101620008a5565b80516001600160a01b0381168114620008d357600080fd5b919050565b600082601f830112620008e9578081fd5b815160206001600160401b0382111562000907576200090762000b4f565b8160051b6200091882820162000adf565b83815282810190868401838801850189101562000933578687fd5b8693505b858410156200095757805183526001939093019291840191840162000937565b50979650505050505050565b600082601f83011262000974578081fd5b81516001600160401b0381111562000990576200099062000b4f565b6020620009a6601f8301601f1916820162000adf565b8281528582848701011115620009ba578384fd5b835b83811015620009d9578581018301518282018401528201620009bc565b83811115620009ea57848385840101525b5095945050505050565b600080600080600080600080610100898b03121562000a11578384fd5b88516001600160401b038082111562000a28578586fd5b62000a368c838d0162000963565b995060208b015191508082111562000a4c578586fd5b62000a5a8c838d0162000963565b985062000a6a60408c01620008bb565b975062000a7a60608c01620008bb565b965062000a8a60808c01620008bb565b955062000a9a60a08c01620008bb565b945060c08b015191508082111562000ab0578384fd5b5062000abf8b828c01620008d8565b92505062000ad060e08a01620008bb565b90509295985092959890939650565b604051601f8201601f191681016001600160401b038111828210171562000b0a5762000b0a62000b4f565b604052919050565b600181811c9082168062000b2757607f821691505b6020821081141562000b4957634e487b7160e01b600052602260045260246000fd5b50919050565b634e487b7160e01b600052604160045260246000fd5b60805160601c6156c562000b9960003960008181610854015281816122b6015281816126840152613a0801526156c56000f3fe6080604052600436106104405760003560e01c80636ae6b45911610234578063a22cb4651161012e578063c87b56dd116100b6578063e63ab1e91161007a578063e63ab1e914610e03578063e985e9c514610e25578063f2fde38b14610e6e578063fb86a40414610e8e578063fcd1ee1014610ea457600080fd5b8063c87b56dd14610d6c578063d204c45e14610d8c578063d3d3224a14610dac578063d539139314610dc1578063d547741f14610de357600080fd5b8063b1fa4176116100fd578063b1fa417614610cd6578063b5a87cc114610cec578063b88d4fde14610d0c578063bfb231d214610d2c578063c38b761c14610d4c57600080fd5b8063a22cb46514610c56578063a2aa61eb14610c76578063a60ee26814610c96578063aad3ec9614610cb657600080fd5b80638a55b866116101bc578063978bbdb911610180578063978bbdb914610bd5578063983b2d5614610beb578063999b93af14610c0b578063a035b1fe14610c2b578063a217fddf14610c4157600080fd5b80638a55b86614610b3d5780638da5cb5b14610b5d578063902835f614610b8057806391d1485414610ba057806395d89b4114610bc057600080fd5b80637b43b827116102035780637b43b82714610ac05780637e9598ae14610ae057806382dc1ec414610b005780638456cb5914610b205780638678a7b214610b3557600080fd5b80636ae6b459146109ae57806370a08231146109ce578063715018a6146109ee578063786e435c14610a0357600080fd5b806338e2d924116103455780634f6ccce7116102cd5780635d1d37c3116102915780635d1d37c31461090e5780635d814dea1461092e57806361d027b31461094e5780636352211e1461096e578063682ba9981461098e57600080fd5b80634f6ccce714610876578063557dee1f1461089657806355d69962146108a957806358dd6d95146108d65780635c975abb146108f657600080fd5b80633f4ba83a116103145780633f4ba83a146107cd57806342842e0e146107e257806342966c681461080257806342f6487a1461082257806346d1d21a1461084257600080fd5b806338e2d924146106e95780633943380c146106fc57806339eff2be1461071c5780633a1395de146107ad57600080fd5b8063230a67ee116103c85780632799276d116103975780632799276d146106415780632f2ff15d146106575780632f745c5914610677578063360131891461069757806336568abe146106c957600080fd5b8063230a67ee146105b157806323b872dd146105d157806324490659146105f1578063248a9ca31461061157600080fd5b8063081812fc1161040f578063081812fc146104dd578063095ea7b314610515578063150b7a021461053757806318160ddd1461057c57806321bae9e41461059157600080fd5b806301339c211461044c57806301ffc9a71461047557806306490f47146104a557806306fdde03146104bb57600080fd5b3661044757005b600080fd5b34801561045857600080fd5b5061046260185481565b6040519081526020015b60405180910390f35b34801561048157600080fd5b5061049561049036600461510e565b610ec4565b604051901515815260200161046c565b3480156104b157600080fd5b5061046260195481565b3480156104c757600080fd5b506104d0610eef565b60405161046c91906152fa565b3480156104e957600080fd5b506104fd6104f83660046150d4565b610f81565b6040516001600160a01b03909116815260200161046c565b34801561052157600080fd5b50610535610530366004614fa2565b61100e565b005b34801561054357600080fd5b50610563610552366004614d7f565b630a85bd0160e11b95945050505050565b6040516001600160e01b0319909116815260200161046c565b34801561058857600080fd5b50600854610462565b34801561059d57600080fd5b506105356105ac366004614cf8565b611124565b3480156105bd57600080fd5b506105356105cc366004614ffd565b611271565b3480156105dd57600080fd5b506105356105ec366004614d44565b6113bc565b3480156105fd57600080fd5b5061053561060c36600461515e565b6113ee565b34801561061d57600080fd5b5061046261062c3660046150d4565b6000908152600c602052604090206001015490565b34801561064d57600080fd5b5061046260175481565b34801561066357600080fd5b506105356106723660046150ec565b611476565b34801561068357600080fd5b50610462610692366004614fa2565b61149b565b3480156106a357600080fd5b50601d546106b49063ffffffff1681565b60405163ffffffff909116815260200161046c565b3480156106d557600080fd5b506105356106e43660046150ec565b611531565b6105356106f736600461518c565b6115af565b34801561070857600080fd5b506012546104fd906001600160a01b031681565b34801561072857600080fd5b506107766107373660046150d4565b6023602052600090815260409020805460018201546002830154600384015460048501546005909501546001600160a01b039094169492939192909186565b604080516001600160a01b0390971687526020870195909552938501929092526060840152608083015260a082015260c00161046c565b3480156107b957600080fd5b506105356107c8366004614fcb565b61182e565b3480156107d957600080fd5b50610535611a12565b3480156107ee57600080fd5b506105356107fd366004614d44565b611a35565b34801561080e57600080fd5b5061053561081d3660046150d4565b611a50565b34801561082e57600080fd5b50601a546104fd906001600160a01b031681565b34801561084e57600080fd5b506104fd7f000000000000000000000000000000000000000000000000000000000000000081565b34801561088257600080fd5b506104626108913660046150d4565b611ac7565b6105356108a43660046150d4565b611b68565b3480156108b557600080fd5b506104626108c4366004614cf8565b60256020526000908152604090205481565b3480156108e257600080fd5b506105356108f1366004614e8c565b611d37565b34801561090257600080fd5b50600b5460ff16610495565b34801561091a57600080fd5b506105356109293660046150d4565b611d82565b34801561093a57600080fd5b506104d06109493660046150d4565b611dee565b34801561095a57600080fd5b50601b546104fd906001600160a01b031681565b34801561097a57600080fd5b506104fd6109893660046150d4565b611e9a565b34801561099a57600080fd5b506104626109a93660046150d4565b611f11565b3480156109ba57600080fd5b506105356109c93660046150d4565b611f34565b3480156109da57600080fd5b506104626109e9366004614cf8565b611f99565b3480156109fa57600080fd5b50610535612020565b348015610a0f57600080fd5b50610a9b610a1e366004614cf8565b6001600160a01b0390811660009081526025602090815260408083205483526023825291829020825160c08101845281548516815260018201549281019290925260028101549282019290925260038201546060820181905260048301546080830181905260059093015460a09092019190915260125490921692565b604080516001600160a01b03909416845260208401929092529082015260600161046c565b348015610acc57600080fd5b50610535610adb366004614cf8565b61205c565b348015610aec57600080fd5b50610535610afb366004614fa2565b6120fc565b348015610b0c57600080fd5b50610535610b1b366004614cf8565b6121e5565b348015610b2c57600080fd5b5061053561228b565b6105356122ab565b348015610b4957600080fd5b50610462610b583660046150d4565b612388565b348015610b6957600080fd5b50600b5461010090046001600160a01b03166104fd565b348015610b8c57600080fd5b50610535610b9b366004614d44565b6123a9565b348015610bac57600080fd5b50610495610bbb3660046150ec565b6124f8565b348015610bcc57600080fd5b506104d0612523565b348015610be157600080fd5b50610462601c5481565b348015610bf757600080fd5b50610535610c06366004614cf8565b612532565b348015610c1757600080fd5b506013546104fd906001600160a01b031681565b348015610c3757600080fd5b5061046260145481565b348015610c4d57600080fd5b50610462600081565b348015610c6257600080fd5b50610535610c71366004614ed7565b6125d8565b348015610c8257600080fd5b50610535610c91366004614cf8565b6125e3565b348015610ca257600080fd5b50610462610cb13660046150d4565b612661565b348015610cc257600080fd5b50610535610cd1366004614fa2565b612705565b348015610ce257600080fd5b50610462601e5481565b348015610cf857600080fd5b50610535610d07366004614f4e565b612aec565b348015610d1857600080fd5b50610535610d27366004614e14565b612b7e565b348015610d3857600080fd5b50610462610d473660046150d4565b612bb6565b348015610d5857600080fd5b50600f546104fd906001600160a01b031681565b348015610d7857600080fd5b506104d0610d873660046150d4565b612bc6565b348015610d9857600080fd5b50610462610da7366004614f0d565b612bd1565b348015610db857600080fd5b506104d0612beb565b348015610dcd57600080fd5b5061046260008051602061567083398151915281565b348015610def57600080fd5b50610535610dfe3660046150ec565b612bf8565b348015610e0f57600080fd5b5061046260008051602061565083398151915281565b348015610e3157600080fd5b50610495610e40366004614d12565b6001600160a01b03918216600090815260056020908152604080832093909416825291909152205460ff1690565b348015610e7a57600080fd5b50610535610e89366004614cf8565b612c1d565b348015610e9a57600080fd5b50610462600d5481565b348015610eb057600080fd5b50610535610ebf366004614fa2565b612cbb565b60006001600160e01b031982166380ac58cd60e01b1480610ee95750610ee98261303d565b92915050565b606060008054610efe9061557f565b80601f0160208091040260200160405190810160405280929190818152602001828054610f2a9061557f565b8015610f775780601f10610f4c57610100808354040283529160200191610f77565b820191906000526020600020905b815481529060010190602001808311610f5a57829003601f168201915b5050505050905090565b6000610f8c82613062565b610ff25760405162461bcd60e51b815260206004820152602c60248201527f4552433732313a20617070726f76656420717565727920666f72206e6f6e657860448201526b34b9ba32b73a103a37b5b2b760a11b60648201526084015b60405180910390fd5b506000908152600460205260409020546001600160a01b031690565b600061101982611e9a565b9050806001600160a01b0316836001600160a01b031614156110875760405162461bcd60e51b815260206004820152602160248201527f4552433732313a20617070726f76616c20746f2063757272656e74206f776e656044820152603960f91b6064820152608401610fe9565b336001600160a01b03821614806110a357506110a38133610e40565b6111155760405162461bcd60e51b815260206004820152603860248201527f4552433732313a20617070726f76652063616c6c6572206973206e6f74206f7760448201527f6e6572206e6f7220617070726f76656420666f7220616c6c00000000000000006064820152608401610fe9565b61111f838361307f565b505050565b60008051602061567083398151915261113c816130ed565b6000600e805461114b9061557f565b9050116111925760405162461bcd60e51b815260206004820152601560248201527411db1bd8985b08155492481a5cc81b9bdd081cd95d605a1b6044820152606401610fe9565b6001600160a01b0382166111dd5760405162461bcd60e51b8152602060048201526012602482015271496e76616c696420746f206164647265737360701b6044820152606401610fe9565b61111f82600e80546111ee9061557f565b80601f016020809104026020016040519081016040528092919081815260200182805461121a9061557f565b80156112675780601f1061123c57610100808354040283529160200191611267565b820191906000526020600020905b81548152906001019060200180831161124a57829003601f168201915b5050505050612bd1565b600080516020615670833981519152611289816130ed565b60225460ff16156112dc5760405162461bcd60e51b815260206004820152601860248201527f4974656d7320616c7265616479207265676973746572656400000000000000006044820152606401610fe9565b81518351146113255760405162461bcd60e51b8152602060048201526015602482015274082e4e4c2f240d8cadccee8d040dad2e6dac2e8c6d605b1b6044820152606401610fe9565b8151611338906021906020850190614a56565b50825161134b9060209081860190614aa1565b5060005b83518110156113a95761139483828151811061137b57634e487b7160e01b600052603260045260246000fd5b60200260200101516017546130f790919063ffffffff16565b601755806113a1816155ba565b91505061134f565b50506022805460ff191660011790555050565b6113c7335b82613103565b6113e35760405162461bcd60e51b8152600401610fe990615436565b61111f8383836131ed565b600b546001600160a01b0361010090910416331461141e5760405162461bcd60e51b8152600401610fe990615389565b600d829055805161143690600e906020840190614afa565b507f57bbf0b7295e3c8587fe0fa3c76592771f6a96123bf723292fd0e3933436b71f600d5460405161146a91815260200190565b60405180910390a15050565b6000828152600c6020526040902060010154611491816130ed565b61111f8383613394565b60006114a683611f99565b82106115085760405162461bcd60e51b815260206004820152602b60248201527f455243373231456e756d657261626c653a206f776e657220696e646578206f7560448201526a74206f6620626f756e647360a81b6064820152608401610fe9565b506001600160a01b03919091166000908152600660209081526040808320938352929052205490565b6001600160a01b03811633146115a15760405162461bcd60e51b815260206004820152602f60248201527f416363657373436f6e74726f6c3a2063616e206f6e6c792072656e6f756e636560448201526e103937b632b9903337b91039b2b63360891b6064820152608401610fe9565b6115ab828261341a565b5050565b6013546001600160a01b03166115fb5760405162461bcd60e51b81526020600482015260116024820152702bb937b7339038bab7ba32903a37b5b2b760791b6044820152606401610fe9565b601854421161164c5760405162461bcd60e51b815260206004820152601b60248201527f4e6f7420796574206c61756e63682074696d65207265616368656400000000006044820152606401610fe9565b6000821161166c5760405162461bcd60e51b8152600401610fe9906153f5565b60145461167a908290613481565b82146116985760405162461bcd60e51b8152600401610fe9906153be565b6014546116a6908290613481565b82146116c45760405162461bcd60e51b8152600401610fe9906153be565b6013546040516370a0823160e01b81523360048201526000916001600160a01b0316906370a082319060240160206040518083038186803b15801561170857600080fd5b505afa15801561171c573d6000803e3d6000fd5b505050506040513d601f19601f820116820180604052508101906117409190615146565b90508281116117915760405162461bcd60e51b815260206004820152601b60248201527f6c61636b206f662071756f746520746f6b656e2062616c616e636500000000006044820152606401610fe9565b6013546117a9906001600160a01b031633308661348d565b60005b828110156118245760125460405163086eba7960e21b81523360048201526001600160a01b03909116906321bae9e490602401600060405180830381600087803b1580156117f957600080fd5b505af115801561180d573d6000803e3d6000fd5b50505050808061181c906155ba565b9150506117ac565b5061111f826135cb565b600b546001600160a01b0361010090910416331461185e5760405162461bcd60e51b8152600401610fe990615389565b6001600160a01b0383166118c05760405162461bcd60e51b815260206004820152602360248201527f57726f6e6720537562736372697074696f6e20636f6e7472616374206164647260448201526265737360e81b6064820152608401610fe9565b60245460256000856001600160a01b03166001600160a01b03168152602001908152602001600020819055506040518060c00160405280846001600160a01b03168152602001838152602001828152602001602654815260200161193a6001611934856026546130f790919063ffffffff16565b90613791565b815260006020918201819052602480548252602383526040808320855181546001600160a01b0319166001600160a01b039091161781559385015160018501558401516002840155606084015160038401556080840151600484015560a090930151600590920191909155815491906119b2836155ba565b90915550506026546119c490826130f7565b6026556119d083612532565b6040516001600160a01b03841681527f17c74683f7319a4225517b5017988f05364289712fe6386d78e265035a787225906020015b60405180910390a1505050565b600080516020615650833981519152611a2a816130ed565b611a3261379d565b50565b61111f83838360405180602001604052806000815250612b7e565b611a59336113c1565b611abe5760405162461bcd60e51b815260206004820152603060248201527f4552433732314275726e61626c653a2063616c6c6572206973206e6f74206f7760448201526f1b995c881b9bdc88185c1c1c9bdd995960821b6064820152608401610fe9565b611a3281613830565b6000611ad260085490565b8210611b355760405162461bcd60e51b815260206004820152602c60248201527f455243373231456e756d657261626c653a20676c6f62616c20696e646578206f60448201526b7574206f6620626f756e647360a01b6064820152608401610fe9565b60088281548110611b5657634e487b7160e01b600052603260045260246000fd5b90600052602060002001549050919050565b6013546001600160a01b031615611bb55760405162461bcd60e51b81526020600482015260116024820152702bb937b7339038bab7ba32903a37b5b2b760791b6044820152606401610fe9565b6018544211611c065760405162461bcd60e51b815260206004820152601b60248201527f4e6f7420796574206c61756e63682074696d65207265616368656400000000006044820152606401610fe9565b60003411611c265760405162461bcd60e51b8152600401610fe9906153f5565b601454611c34908290613481565b3414611c525760405162461bcd60e51b8152600401610fe9906153be565b6012546001600160a01b031615801590611c6c5750602454155b611cb25760405162461bcd60e51b81526020600482015260176024820152761ad95e4818dbdb9d1c9858dd081a5cc81b9bdd081cd95d604a1b6044820152606401610fe9565b60005b81811015611d2d5760125460405163086eba7960e21b81523360048201526001600160a01b03909116906321bae9e490602401600060405180830381600087803b158015611d0257600080fd5b505af1158015611d16573d6000803e3d6000fd5b505050508080611d25906155ba565b915050611cb5565b50611a32816135cb565b600080516020615670833981519152611d4f816130ed565b60405162461bcd60e51b8152602060048201526008602482015267111a5cd8589b195960c21b6044820152606401610fe9565b600b546001600160a01b03610100909104163314611db25760405162461bcd60e51b8152600401610fe990615389565b60188190556040518181527f7c8826e4db3679f20c86da0c68d37f9dbcd1d638c56717e014f93c56d14c02d1906020015b60405180910390a150565b60208181548110611dfe57600080fd5b906000526020600020016000915090508054611e199061557f565b80601f0160208091040260200160405190810160405280929190818152602001828054611e459061557f565b8015611e925780601f10611e6757610100808354040283529160200191611e92565b820191906000526020600020905b815481529060010190602001808311611e7557829003601f168201915b505050505081565b6000818152600260205260408120546001600160a01b031680610ee95760405162461bcd60e51b815260206004820152602960248201527f4552433732313a206f776e657220717565727920666f72206e6f6e657869737460448201526832b73a103a37b5b2b760b91b6064820152608401610fe9565b600060218281548110611b5657634e487b7160e01b600052603260045260246000fd5b600b546001600160a01b03610100909104163314611f645760405162461bcd60e51b8152600401610fe990615389565b60198190556040518181527fa7ade4ab976b6643a971383d9822fb7c2fce66aa2e497d88c3b4f1475ea2b2e090602001611de3565b60006001600160a01b0382166120045760405162461bcd60e51b815260206004820152602a60248201527f4552433732313a2062616c616e636520717565727920666f7220746865207a65604482015269726f206164647265737360b01b6064820152608401610fe9565b506001600160a01b031660009081526003602052604090205490565b600b546001600160a01b036101009091041633146120505760405162461bcd60e51b8152600401610fe990615389565b61205a6000613839565b565b600b546001600160a01b0361010090910416331461208c5760405162461bcd60e51b8152600401610fe990615389565b600f80546001600160a01b0319166001600160a01b0383161790556120bf60008051602061567083398151915282613394565b600f546040516001600160a01b0390911681527f329b1203fc60a62c4a0fd3ff1554a07f92a2f117cc590422dd105811bb484ded90602001611de3565b600b546001600160a01b0361010090910416331461212c5760405162461bcd60e51b8152600401610fe990615389565b6001600160a01b03821661218c5760405162461bcd60e51b815260206004820152602160248201527f57726f6e67204d797374657279426f7820636f6e7472616374206164647265736044820152607360f81b6064820152608401610fe9565b601280546001600160a01b0319166001600160a01b038416908117909155601482905560408051918252602082018390527fd46fcdc06972a446de426e47c59c6a0c4581b5c0116ac49a2efc3e7d23bdfe72910161146a565b600b546001600160a01b036101009091041633146122155760405162461bcd60e51b8152600401610fe990615389565b61222d60008051602061565083398151915282613394565b604080516001600160a01b038316815260208101829052600b918101919091526a5041555345525f524f4c4560a81b60608201527f0578acc86b18d67c13a5e6eed8c670fb7052f530b48a2acb167d6ca77509a38490608001611de3565b6000805160206156508339815191526122a3816130ed565b611a32613893565b43601e8190555060007f00000000000000000000000000000000000000000000000000000000000000006001600160a01b031663699b328a346040518263ffffffff1660e01b81526004016020604051808303818588803b15801561230f57600080fd5b505af1158015612323573d6000803e3d6000fd5b50505050506040513d601f19601f820116820180604052508101906123489190615146565b905034811015611a3257336108fc6123608334615525565b6040518115909202916000818181858888f193505050501580156115ab573d6000803e3d6000fd5b6021818154811061239857600080fd5b600091825260209091200154905081565b600b546001600160a01b036101009091041633146123d95760405162461bcd60e51b8152600401610fe990615389565b6001600160a01b03831661242f5760405162461bcd60e51b815260206004820152601760248201527f696e76616c6964207061796d656e7420616464726573730000000000000000006044820152606401610fe9565b6001600160a01b0382166124855760405162461bcd60e51b815260206004820152601860248201527f696e76616c6964207472656173757279206164647265737300000000000000006044820152606401610fe9565b601a80546001600160a01b038581166001600160a01b03199283168117909355601b8054918616919092168117909155601c83905560408051928352602083019190915281018290527fe2be3027f197494650b7a98fd1cae67dacf615bd1d8bb05102999676f116386690606001611a05565b6000918252600c602090815260408084206001600160a01b0393909316845291905290205460ff1690565b606060018054610efe9061557f565b600b546001600160a01b036101009091041633146125625760405162461bcd60e51b8152600401610fe990615389565b61257a60008051602061567083398151915282613394565b604080516001600160a01b038316815260208101829052600b918101919091526a4d494e5445525f524f4c4560a81b60608201527f0578acc86b18d67c13a5e6eed8c670fb7052f530b48a2acb167d6ca77509a38490608001611de3565b6115ab3383836138eb565b600b546001600160a01b036101009091041633146126135760405162461bcd60e51b8152600401610fe990615389565b601380546001600160a01b0319166001600160a01b0383169081179091556040519081527fca92c759228172fe3894a344908fd20dfd37ba561b5af191f1f5b02ee03881fc90602001611de3565b6040516314c1dc4d60e31b81526004810182905260009081906001600160a01b037f0000000000000000000000000000000000000000000000000000000000000000169063a60ee2689060240160206040518083038186803b1580156126c657600080fd5b505afa1580156126da573d6000803e3d6000fd5b505050506040513d601f19601f820116820180604052508101906126fe9190615146565b9392505050565b600b5460ff16156127285760405162461bcd60e51b8152600401610fe99061535f565b6002601154141561277b5760405162461bcd60e51b815260206004820152601f60248201527f5265656e7472616e637947756172643a207265656e7472616e742063616c6c006044820152606401610fe9565b60026011556012546001600160a01b03166127cf5760405162461bcd60e51b81526020600482015260146024820152731ad95e4818dbdb9d1c9858dd081b9bdd081cd95d60621b6044820152606401610fe9565b6001600160a01b03821661281b5760405162461bcd60e51b815260206004820152601360248201527257726f6e6720636c61696d206164647265737360681b6044820152606401610fe9565b601954421161286c5760405162461bcd60e51b815260206004820152601b60248201527f4e6f74207965742072657665616c2074696d65207265616368656400000000006044820152606401610fe9565b6012546040516370a0823160e01b81523360048201526000916001600160a01b0316906370a082319060240160206040518083038186803b1580156128b057600080fd5b505afa1580156128c4573d6000803e3d6000fd5b505050506040513d601f19601f820116820180604052508101906128e89190615146565b9050600081116129565760405162461bcd60e51b815260206004820152603360248201527f4f6e6c79206f776e657273206f66204d797374657279426f782063616e20636c60448201527261696d20756e626f786564206974656d28732960681b6064820152608401610fe9565b8082111580156129665750600082115b6129a95760405162461bcd60e51b81526020600482015260146024820152731a5b9d985b1a590818db185a5b48185b5bdd5b9d60621b6044820152606401610fe9565b60005b82811015612ae157601254604051632f745c5960e01b8152336004820152600060248201819052916001600160a01b031690632f745c599060440160206040518083038186803b1580156129ff57600080fd5b505afa158015612a13573d6000803e3d6000fd5b505050506040513d601f19601f82011682018060405250810190612a379190615146565b601254604051632142170760e11b815233600482015261dead6024820152604481018390529192506001600160a01b0316906342842e0e90606401600060405180830381600087803b158015612a8c57600080fd5b505af1158015612aa0573d6000803e3d6000fd5b50505050612aaf6017546139ba565b601d54612acc908690612ac79063ffffffff16613abc565b613c3c565b50508080612ad9906155ba565b9150506129ac565b505060016011555050565b600080516020615670833981519152612b04816130ed565b6001600160a01b038416612b4f5760405162461bcd60e51b8152602060048201526012602482015271496e76616c696420746f206164647265737360701b6044820152606401610fe9565b60005b82811015612b7757612b648585612bd1565b5080612b6f816155ba565b915050612b52565b5050505050565b612b883383613103565b612ba45760405162461bcd60e51b8152600401610fe990615436565b612bb084848484613c49565b50505050565b6016818154811061239857600080fd5b6060610ee982613c7c565b6000600080516020615670833981519152611d4f816130ed565b600e8054611e199061557f565b6000828152600c6020526040902060010154612c13816130ed565b61111f838361341a565b600b546001600160a01b03610100909104163314612c4d5760405162461bcd60e51b8152600401610fe990615389565b6001600160a01b038116612cb25760405162461bcd60e51b815260206004820152602660248201527f4f776e61626c653a206e6577206f776e657220697320746865207a65726f206160448201526564647265737360d01b6064820152608401610fe9565b611a3281613839565b600b5460ff1615612cde5760405162461bcd60e51b8152600401610fe99061535f565b600060245411612d305760405162461bcd60e51b815260206004820152601d60248201527f4e6f20737562736372697074696f6e20636f6e747261637473207365740000006044820152606401610fe9565b33600081815260256020908152604080832054835260239091529020546001600160a01b031614612db95760405162461bcd60e51b815260206004820152602d60248201527f4f6e6c7920737562736372697074696f6e20636f6e74726163742063616e206360448201526c616c6c20636c61696d4b65797360981b6064820152608401610fe9565b60026011541415612e0c5760405162461bcd60e51b815260206004820152601f60248201527f5265656e7472616e637947756172643a207265656e7472616e742063616c6c006044820152606401610fe9565b60026011556012546001600160a01b0316612e605760405162461bcd60e51b81526020600482015260146024820152731ad95e4818dbdb9d1c9858dd081b9bdd081cd95d60621b6044820152606401610fe9565b6001600160a01b038216612eac5760405162461bcd60e51b815260206004820152601360248201527257726f6e6720636c61696d206164647265737360681b6044820152606401610fe9565b60008111612efc5760405162461bcd60e51b815260206004820152601a60248201527f696e76616c696420746f6b656e49647320666f7220636c61696d0000000000006044820152606401610fe9565b3360009081526025602052604081205490805b838110156130315760008381526023602052604090206005810154600390910154612f39916130f7565b600084815260236020526040902060040154909250821115612f9d5760405162461bcd60e51b815260206004820152601760248201527f636c61696d20746f6b656e204964206f766572666c6f770000000000000000006044820152606401610fe9565b6000838152602360205260408120600501805491612fba836155ba565b909155505060125460405163086eba7960e21b81526001600160a01b038781166004830152909116906321bae9e490602401600060405180830381600087803b15801561300657600080fd5b505af115801561301a573d6000803e3d6000fd5b505050508080613029906155ba565b915050612f0f565b50506001601155505050565b60006001600160e01b03198216637965db0b60e01b1480610ee95750610ee982613deb565b6000908152600260205260409020546001600160a01b0316151590565b600081815260046020526040902080546001600160a01b0319166001600160a01b03841690811790915581906130b482611e9a565b6001600160a01b03167f8c5be1e5ebec7d5bd14f71427d1e84f3dd0314c0f7b2291e5b200ac8c7c3b92560405160405180910390a45050565b611a328133613e10565b60006126fe82846154da565b600061310e82613062565b61316f5760405162461bcd60e51b815260206004820152602c60248201527f4552433732313a206f70657261746f7220717565727920666f72206e6f6e657860448201526b34b9ba32b73a103a37b5b2b760a11b6064820152608401610fe9565b600061317a83611e9a565b9050806001600160a01b0316846001600160a01b031614806131c157506001600160a01b0380821660009081526005602090815260408083209388168352929052205460ff165b806131e55750836001600160a01b03166131da84610f81565b6001600160a01b0316145b949350505050565b826001600160a01b031661320082611e9a565b6001600160a01b0316146132645760405162461bcd60e51b815260206004820152602560248201527f4552433732313a207472616e736665722066726f6d20696e636f72726563742060448201526437bbb732b960d91b6064820152608401610fe9565b6001600160a01b0382166132c65760405162461bcd60e51b8152602060048201526024808201527f4552433732313a207472616e7366657220746f20746865207a65726f206164646044820152637265737360e01b6064820152608401610fe9565b6132d1838383613e74565b6132dc60008261307f565b6001600160a01b0383166000908152600360205260408120805460019290613305908490615525565b90915550506001600160a01b03821660009081526003602052604081208054600192906133339084906154da565b909155505060008181526002602052604080822080546001600160a01b0319166001600160a01b0386811691821790925591518493918716917fddf252ad1be2c89b69c2b068fc378daa952ba7f163c4a11628f55a4df523b3ef91a4505050565b61339e82826124f8565b6115ab576000828152600c602090815260408083206001600160a01b03851684529091529020805460ff191660011790556133d63390565b6001600160a01b0316816001600160a01b0316837f2f8788117e7eff1d82e926ec794901d17c78024a50270940304540a733656f0d60405160405180910390a45050565b61342482826124f8565b156115ab576000828152600c602090815260408083206001600160a01b0385168085529252808320805460ff1916905551339285917ff6391f5c32d9c69d2a47ea670b442974b53935d1edc7fd64eb21e047a839171b9190a45050565b60006126fe8284615506565b604080516001600160a01b0385811660248301528481166044830152606480830185905283518084039091018152608490920183526020820180516001600160e01b03166323b872dd60e01b17905291516000928392908816916134f191906151fd565b6000604051808303816000865af19150503d806000811461352e576040519150601f19603f3d011682016040523d82523d6000602084013e613533565b606091505b509150915081801561355d57508051158061355d57508080602001905181019061355d91906150b8565b6135c35760405162461bcd60e51b815260206004820152603160248201527f5472616e7366657248656c7065723a3a7472616e7366657246726f6d3a207472604482015270185b9cd9995c919c9bdb4819985a5b1959607a1b6064820152608401610fe9565b505050505050565b6012546001600160a01b031661361d5760405162461bcd60e51b81526020600482015260176024820152761ad95e4818dbdb9d1c9858dd081a5cc81b9bdd081cd95d604a1b6044820152606401610fe9565b6024541561366d5760405162461bcd60e51b815260206004820152601e60248201527f6d797374657279626f7820696e76616c6964206d6574686f642063616c6c00006044820152606401610fe9565b601a546001600160a01b03166136c55760405162461bcd60e51b815260206004820152601a60248201527f7061796d656e742061646472657373206973206e6f74207365740000000000006044820152606401610fe9565b60006136dc6014548361348190919063ffffffff16565b905060006137016103e86136fb601c548561348190919063ffffffff16565b90613ea2565b6013549091506001600160a01b03161561375c57601354601b54613734916001600160a01b03908116913091168461348d565b601354601a5461111f916001600160a01b03908116913091166137578686613791565b61348d565b601b54613772906001600160a01b031682613eae565b601a5461111f906001600160a01b031661378c8484613791565b613eae565b60006126fe8284615525565b600b5460ff166137e65760405162461bcd60e51b815260206004820152601460248201527314185d5cd8589b194e881b9bdd081c185d5cd95960621b6044820152606401610fe9565b600b805460ff191690557f5db9ee0a495bf2e6ff9c91a7834c1ba4fdd244a5e8aa4e537bd38aeae4b073aa335b6040516001600160a01b03909116815260200160405180910390a1565b611a3281613f88565b600b80546001600160a01b03838116610100818102610100600160a81b031985161790945560405193909204169182907f8be0079c531659141344cd1fd0a4f28419497f9722a3daafe3b4186f6b6457e090600090a35050565b600b5460ff16156138b65760405162461bcd60e51b8152600401610fe99061535f565b600b805460ff191660011790557f62e78cea01bee320cd4e420270b5ea74000d11b0c9f74754ebdbfc544b05a2586138133390565b816001600160a01b0316836001600160a01b0316141561394d5760405162461bcd60e51b815260206004820152601960248201527f4552433732313a20617070726f766520746f2063616c6c6572000000000000006044820152606401610fe9565b6001600160a01b03838116600081815260056020908152604080832094871680845294825291829020805460ff191686151590811790915591519182527f17307eab39ab6107e8899845ad3d59bd9653f200f220920489ca2b5937696c31910160405180910390a3505050565b6000601e54116139da57634e487b7160e01b600052600160045260246000fd5b601f54601e546040516324cbbfc160e01b815263ffffffff84166004820152602481019290925260448201527f00000000000000000000000000000000000000000000000000000000000000006001600160a01b0316906324cbbfc19060640160206040518083038186803b158015613a5257600080fd5b505afa158015613a66573d6000803e3d6000fd5b505050506040513d601f19601f82011682018060405250810190613a8a91906151ad565b601d805463ffffffff191663ffffffff92909216919091179055601f8054906000613ab4836155ba565b919050555050565b6060600080805b602054811015613b2f57613b0b60218281548110613af157634e487b7160e01b600052603260045260246000fd5b9060005260206000200154836130f790919063ffffffff16565b915081851015613b1d57809250613b2f565b80613b27816155ba565b915050613ac3565b50601754613b3e906001613791565b50613b7e600160218481548110613b6557634e487b7160e01b600052603260045260246000fd5b906000526020600020015461379190919063ffffffff16565b5060208281548110613ba057634e487b7160e01b600052603260045260246000fd5b906000526020600020018054613bb59061557f565b80601f0160208091040260200160405190810160405280929190818152602001828054613be19061557f565b8015613c2e5780601f10613c0357610100808354040283529160200191613c2e565b820191906000526020600020905b815481529060010190602001808311613c1157829003601f168201915b505050505092505050919050565b6000806131e58484613fc8565b613c548484846131ed565b613c6084848484613ff8565b612bb05760405162461bcd60e51b8152600401610fe99061530d565b6060613c8782613062565b613ced5760405162461bcd60e51b815260206004820152603160248201527f45524337323155524953746f726167653a2055524920717565727920666f72206044820152703737b732bc34b9ba32b73a103a37b5b2b760791b6064820152608401610fe9565b6000828152600a602052604081208054613d069061557f565b80601f0160208091040260200160405190810160405280929190818152602001828054613d329061557f565b8015613d7f5780601f10613d5457610100808354040283529160200191613d7f565b820191906000526020600020905b815481529060010190602001808311613d6257829003601f168201915b505050505090506000613d9d60408051602081019091526000815290565b9050805160001415613db0575092915050565b815115613de2578082604051602001613dca929190615219565b60405160208183030381529060405292505050919050565b6131e584614105565b60006001600160e01b0319821663780e9d6360e01b1480610ee95750610ee9826141dc565b613e1a82826124f8565b6115ab57613e32816001600160a01b0316601461422c565b613e3d83602061422c565b604051602001613e4e929190615248565b60408051601f198184030181529082905262461bcd60e51b8252610fe9916004016152fa565b600b5460ff1615613e975760405162461bcd60e51b8152600401610fe99061535f565b61111f83838361440d565b60006126fe82846154f2565b604080516000808252602082019092526001600160a01b038416908390604051613ed891906151fd565b60006040518083038185875af1925050503d8060008114613f15576040519150601f19603f3d011682016040523d82523d6000602084013e613f1a565b606091505b505090508061111f5760405162461bcd60e51b815260206004820152603460248201527f5472616e7366657248656c7065723a3a736166655472616e736665724554483a60448201527308115512081d1c985b9cd9995c8819985a5b195960621b6064820152608401610fe9565b613f91816144c5565b6000818152600a602052604090208054613faa9061557f565b159050611a32576000818152600a60205260408120611a3291614b6d565b600080613fd460105490565b9050613fe4601080546001019055565b613fee848261456c565b6126fe8184614586565b60006001600160a01b0384163b156140fa57604051630a85bd0160e11b81526001600160a01b0385169063150b7a029061403c9033908990889088906004016152bd565b602060405180830381600087803b15801561405657600080fd5b505af1925050508015614086575060408051601f3d908101601f191682019092526140839181019061512a565b60015b6140e0573d8080156140b4576040519150601f19603f3d011682016040523d82523d6000602084013e6140b9565b606091505b5080516140d85760405162461bcd60e51b8152600401610fe99061530d565b805181602001fd5b6001600160e01b031916630a85bd0160e11b1490506131e5565b506001949350505050565b606061411082613062565b6141745760405162461bcd60e51b815260206004820152602f60248201527f4552433732314d657461646174613a2055524920717565727920666f72206e6f60448201526e3732bc34b9ba32b73a103a37b5b2b760891b6064820152608401610fe9565b600061418b60408051602081019091526000815290565b905060008151116141ab57604051806020016040528060008152506126fe565b806141b584614611565b6040516020016141c6929190615219565b6040516020818303038152906040529392505050565b60006001600160e01b031982166380ac58cd60e01b148061420d57506001600160e01b03198216635b5e139f60e01b145b80610ee957506301ffc9a760e01b6001600160e01b0319831614610ee9565b6060600061423b836002615506565b6142469060026154da565b6001600160401b0381111561426b57634e487b7160e01b600052604160045260246000fd5b6040519080825280601f01601f191660200182016040528015614295576020820181803683370190505b509050600360fc1b816000815181106142be57634e487b7160e01b600052603260045260246000fd5b60200101906001600160f81b031916908160001a905350600f60fb1b816001815181106142fb57634e487b7160e01b600052603260045260246000fd5b60200101906001600160f81b031916908160001a905350600061431f846002615506565b61432a9060016154da565b90505b60018111156143be576f181899199a1a9b1b9c1cb0b131b232b360811b85600f166010811061436c57634e487b7160e01b600052603260045260246000fd5b1a60f81b82828151811061439057634e487b7160e01b600052603260045260246000fd5b60200101906001600160f81b031916908160001a90535060049490941c936143b781615568565b905061432d565b5083156126fe5760405162461bcd60e51b815260206004820181905260248201527f537472696e67733a20686578206c656e67746820696e73756666696369656e746044820152606401610fe9565b6001600160a01b0383166144685761446381600880546000838152600960205260408120829055600182018355919091527ff3f7a9fe364faab93b216da50a3214154f22a0a2b415b23a84c8169e8b636ee30155565b61448b565b816001600160a01b0316836001600160a01b03161461448b5761448b838261472a565b6001600160a01b0382166144a25761111f816147c7565b826001600160a01b0316826001600160a01b03161461111f5761111f82826148a0565b60006144d082611e9a565b90506144de81600084613e74565b6144e960008361307f565b6001600160a01b0381166000908152600360205260408120805460019290614512908490615525565b909155505060008281526002602052604080822080546001600160a01b0319169055518391906001600160a01b038416907fddf252ad1be2c89b69c2b068fc378daa952ba7f163c4a11628f55a4df523b3ef908390a45050565b6115ab8282604051806020016040528060008152506148e4565b61458f82613062565b6145f25760405162461bcd60e51b815260206004820152602e60248201527f45524337323155524953746f726167653a2055524920736574206f66206e6f6e60448201526d32bc34b9ba32b73a103a37b5b2b760911b6064820152608401610fe9565b6000828152600a60209081526040909120825161111f92840190614afa565b6060816146355750506040805180820190915260018152600360fc1b602082015290565b8160005b811561465f5780614649816155ba565b91506146589050600a836154f2565b9150614639565b6000816001600160401b0381111561468757634e487b7160e01b600052604160045260246000fd5b6040519080825280601f01601f1916602001820160405280156146b1576020820181803683370190505b5090505b84156131e5576146c6600183615525565b91506146d3600a866155d5565b6146de9060306154da565b60f81b81838151811061470157634e487b7160e01b600052603260045260246000fd5b60200101906001600160f81b031916908160001a905350614723600a866154f2565b94506146b5565b6000600161473784611f99565b6147419190615525565b600083815260076020526040902054909150808214614794576001600160a01b03841660009081526006602090815260408083208584528252808320548484528184208190558352600790915290208190555b5060009182526007602090815260408084208490556001600160a01b039094168352600681528383209183525290812055565b6008546000906147d990600190615525565b6000838152600960205260408120546008805493945090928490811061480f57634e487b7160e01b600052603260045260246000fd5b90600052602060002001549050806008838154811061483e57634e487b7160e01b600052603260045260246000fd5b600091825260208083209091019290925582815260099091526040808220849055858252812055600880548061488457634e487b7160e01b600052603160045260246000fd5b6001900381819060005260206000200160009055905550505050565b60006148ab83611f99565b6001600160a01b039093166000908152600660209081526040808320868452825280832085905593825260079052919091209190915550565b6148ee8383614917565b6148fb6000848484613ff8565b61111f5760405162461bcd60e51b8152600401610fe99061530d565b6001600160a01b03821661496d5760405162461bcd60e51b815260206004820181905260248201527f4552433732313a206d696e7420746f20746865207a65726f20616464726573736044820152606401610fe9565b61497681613062565b156149c35760405162461bcd60e51b815260206004820152601c60248201527f4552433732313a20746f6b656e20616c7265616479206d696e746564000000006044820152606401610fe9565b6149cf60008383613e74565b6001600160a01b03821660009081526003602052604081208054600192906149f89084906154da565b909155505060008181526002602052604080822080546001600160a01b0319166001600160a01b03861690811790915590518392907fddf252ad1be2c89b69c2b068fc378daa952ba7f163c4a11628f55a4df523b3ef908290a45050565b828054828255906000526020600020908101928215614a91579160200282015b82811115614a91578251825591602001919060010190614a76565b50614a9d929150614ba3565b5090565b828054828255906000526020600020908101928215614aee579160200282015b82811115614aee5782518051614ade918491602090910190614afa565b5091602001919060010190614ac1565b50614a9d929150614bb8565b828054614b069061557f565b90600052602060002090601f016020900481019282614b285760008555614a91565b82601f10614b4157805160ff1916838001178555614a91565b82800160010185558215614a915791820182811115614a91578251825591602001919060010190614a76565b508054614b799061557f565b6000825580601f10614b89575050565b601f016020900490600052602060002090810190611a3291905b5b80821115614a9d5760008155600101614ba4565b80821115614a9d576000614bcc8282614b6d565b50600101614bb8565b60006001600160401b03831115614bee57614bee615615565b614c01601f8401601f1916602001615487565b9050828152838383011115614c1557600080fd5b828260208301376000602084830101529392505050565b80356001600160a01b0381168114614c4357600080fd5b919050565b600082601f830112614c58578081fd5b81356020614c6d614c68836154b7565b615487565b80838252828201915082860187848660051b8901011115614c8c578586fd5b855b85811015614ccc5781356001600160401b03811115614cab578788fd5b614cb98a87838c0101614cd9565b8552509284019290840190600101614c8e565b5090979650505050505050565b600082601f830112614ce9578081fd5b6126fe83833560208501614bd5565b600060208284031215614d09578081fd5b6126fe82614c2c565b60008060408385031215614d24578081fd5b614d2d83614c2c565b9150614d3b60208401614c2c565b90509250929050565b600080600060608486031215614d58578081fd5b614d6184614c2c565b9250614d6f60208501614c2c565b9150604084013590509250925092565b600080600080600060808688031215614d96578081fd5b614d9f86614c2c565b9450614dad60208701614c2c565b93506040860135925060608601356001600160401b0380821115614dcf578283fd5b818801915088601f830112614de2578283fd5b813581811115614df0578384fd5b896020828501011115614e01578384fd5b9699959850939650602001949392505050565b60008060008060808587031215614e29578384fd5b614e3285614c2c565b9350614e4060208601614c2c565b92506040850135915060608501356001600160401b03811115614e61578182fd5b8501601f81018713614e71578182fd5b614e8087823560208401614bd5565b91505092959194509250565b60008060408385031215614e9e578182fd5b614ea783614c2c565b915060208301356001600160401b03811115614ec1578182fd5b614ecd85828601614c48565b9150509250929050565b60008060408385031215614ee9578182fd5b614ef283614c2c565b91506020830135614f028161562b565b809150509250929050565b60008060408385031215614f1f578182fd5b614f2883614c2c565b915060208301356001600160401b03811115614f42578182fd5b614ecd85828601614cd9565b600080600060608486031215614f62578081fd5b614f6b84614c2c565b925060208401356001600160401b03811115614f85578182fd5b614f9186828701614cd9565b925050604084013590509250925092565b60008060408385031215614fb4578182fd5b614fbd83614c2c565b946020939093013593505050565b600080600060608486031215614fdf578081fd5b614fe884614c2c565b95602085013595506040909401359392505050565b6000806040838503121561500f578182fd5b82356001600160401b0380821115615025578384fd5b61503186838701614c48565b9350602091508185013581811115615047578384fd5b85019050601f81018613615059578283fd5b8035615067614c68826154b7565b80828252848201915084840189868560051b8701011115615086578687fd5b8694505b838510156150a857803583526001949094019391850191850161508a565b5080955050505050509250929050565b6000602082840312156150c9578081fd5b81516126fe8161562b565b6000602082840312156150e5578081fd5b5035919050565b600080604083850312156150fe578182fd5b82359150614d3b60208401614c2c565b60006020828403121561511f578081fd5b81356126fe81615639565b60006020828403121561513b578081fd5b81516126fe81615639565b600060208284031215615157578081fd5b5051919050565b60008060408385031215615170578182fd5b8235915060208301356001600160401b03811115614f42578182fd5b6000806040838503121561519e578182fd5b50508035926020909101359150565b6000602082840312156151be578081fd5b815163ffffffff811681146126fe578182fd5b600081518084526151e981602086016020860161553c565b601f01601f19169290920160200192915050565b6000825161520f81846020870161553c565b9190910192915050565b6000835161522b81846020880161553c565b83519083019061523f81836020880161553c565b01949350505050565b7f416363657373436f6e74726f6c3a206163636f756e742000000000000000000081526000835161528081601785016020880161553c565b7001034b99036b4b9b9b4b733903937b6329607d1b60179184019182015283516152b181602884016020880161553c565b01602801949350505050565b6001600160a01b03858116825284166020820152604081018390526080606082018190526000906152f0908301846151d1565b9695505050505050565b6020815260006126fe60208301846151d1565b60208082526032908201527f4552433732313a207472616e7366657220746f206e6f6e20455243373231526560408201527131b2b4bb32b91034b6b83632b6b2b73a32b960711b606082015260800190565b60208082526010908201526f14185d5cd8589b194e881c185d5cd95960821b604082015260600190565b6020808252818101527f4f776e61626c653a2063616c6c6572206973206e6f7420746865206f776e6572604082015260600190565b6020808252601d908201527f76616c756520616e6420616d6f756e74206973206e6f74206d61746368000000604082015260600190565b60208082526021908201527f76616c75652073686f756c642062652067726561746572207468616e207a65726040820152606f60f81b606082015260800190565b60208082526031908201527f4552433732313a207472616e736665722063616c6c6572206973206e6f74206f6040820152701ddb995c881b9bdc88185c1c1c9bdd9959607a1b606082015260800190565b604051601f8201601f191681016001600160401b03811182821017156154af576154af615615565b604052919050565b60006001600160401b038211156154d0576154d0615615565b5060051b60200190565b600082198211156154ed576154ed6155e9565b500190565b600082615501576155016155ff565b500490565b6000816000190483118215151615615520576155206155e9565b500290565b600082821015615537576155376155e9565b500390565b60005b8381101561555757818101518382015260200161553f565b83811115612bb05750506000910152565b600081615577576155776155e9565b506000190190565b600181811c9082168061559357607f821691505b602082108114156155b457634e487b7160e01b600052602260045260246000fd5b50919050565b60006000198214156155ce576155ce6155e9565b5060010190565b6000826155e4576155e46155ff565b500690565b634e487b7160e01b600052601160045260246000fd5b634e487b7160e01b600052601260045260246000fd5b634e487b7160e01b600052604160045260246000fd5b8015158114611a3257600080fd5b6001600160e01b031981168114611a3257600080fdfe65d7a28e3265b37a6474929f336521b332c1681b933f6cb9f3376673440d862a9f2df0fed2c77648de5860a4cc508cd0818c85b8b8a1ab4ceeef8d981c8956a6a264697066735822122022f890c7fe8a54d05f563ea71e18e46d85d8a0a9a32d5a813431507085aa096264736f6c634300080400334f776e61626c653a2063616c6c6572206973206e6f7420746865206f776e657265d7a28e3265b37a6474929f336521b332c1681b933f6cb9f3376673440d862a9f2df0fed2c77648de5860a4cc508cd0818c85b8b8a1ab4ceeef8d981c8956a6",
  "linkReferences": {},
  "deployedLinkReferences": {}
}