{
  "_format": "hh-sol-artifact-1",
  "contractName": "MysteryBox",
  "sourceName": "contracts/MysteryBox.sol",
  "abi": [
    {
      "inputs": [
        {
          "internalType": "string",
          "name": "name",
          "type": "string"
        },
        {
          "internalType": "string",
          "name": "symbol",
          "type": "string"
        },
        {
          "internalType": "address",
          "name": "_key",
          "type": "address"
        },
        {
          "internalType": "address",
          "name": "_quote",
          "type": "address"
        },
        {
          "internalType": "address",
          "name": "_payment",
          "type": "address"
        },
        {
          "internalType": "address",
          "name": "_treasury",
          "type": "address"
        },
        {
          "internalType": "uint256[]",
          "name": "configValues",
          "type": "uint256[]"
        },
        {
          "internalType": "contract IWitnetRandomness",
          "name": "_witnetRandomness",
          "type": "address"
        }
      ],
      "stateMutability": "nonpayable",
      "type": "constructor"
    },
    {
      "anonymous": false,
      "inputs": [
        {
          "indexed": true,
          "internalType": "address",
          "name": "owner",
          "type": "address"
        },
        {
          "indexed": true,
          "internalType": "address",
          "name": "approved",
          "type": "address"
        },
        {
          "indexed": true,
          "internalType": "uint256",
          "name": "tokenId",
          "type": "uint256"
        }
      ],
      "name": "Approval",
      "type": "event"
    },
    {
      "anonymous": false,
      "inputs": [
        {
          "indexed": true,
          "internalType": "address",
          "name": "owner",
          "type": "address"
        },
        {
          "indexed": true,
          "internalType": "address",
          "name": "operator",
          "type": "address"
        },
        {
          "indexed": false,
          "internalType": "bool",
          "name": "approved",
          "type": "bool"
        }
      ],
      "name": "ApprovalForAll",
      "type": "event"
    },
    {
      "anonymous": false,
      "inputs": [
        {
          "indexed": false,
          "internalType": "address",
          "name": "",
          "type": "address"
        },
        {
          "indexed": false,
          "internalType": "string",
          "name": "",
          "type": "string"
        }
      ],
      "name": "Grant",
      "type": "event"
    },
    {
      "anonymous": false,
      "inputs": [
        {
          "indexed": true,
          "internalType": "address",
          "name": "previousOwner",
          "type": "address"
        },
        {
          "indexed": true,
          "internalType": "address",
          "name": "newOwner",
          "type": "address"
        }
      ],
      "name": "OwnershipTransferred",
      "type": "event"
    },
    {
      "anonymous": false,
      "inputs": [
        {
          "indexed": false,
          "internalType": "address",
          "name": "account",
          "type": "address"
        }
      ],
      "name": "Paused",
      "type": "event"
    },
    {
      "anonymous": false,
      "inputs": [
        {
          "indexed": true,
          "internalType": "bytes32",
          "name": "role",
          "type": "bytes32"
        },
        {
          "indexed": true,
          "internalType": "bytes32",
          "name": "previousAdminRole",
          "type": "bytes32"
        },
        {
          "indexed": true,
          "internalType": "bytes32",
          "name": "newAdminRole",
          "type": "bytes32"
        }
      ],
      "name": "RoleAdminChanged",
      "type": "event"
    },
    {
      "anonymous": false,
      "inputs": [
        {
          "indexed": true,
          "internalType": "bytes32",
          "name": "role",
          "type": "bytes32"
        },
        {
          "indexed": true,
          "internalType": "address",
          "name": "account",
          "type": "address"
        },
        {
          "indexed": true,
          "internalType": "address",
          "name": "sender",
          "type": "address"
        }
      ],
      "name": "RoleGranted",
      "type": "event"
    },
    {
      "anonymous": false,
      "inputs": [
        {
          "indexed": true,
          "internalType": "bytes32",
          "name": "role",
          "type": "bytes32"
        },
        {
          "indexed": true,
          "internalType": "address",
          "name": "account",
          "type": "address"
        },
        {
          "indexed": true,
          "internalType": "address",
          "name": "sender",
          "type": "address"
        }
      ],
      "name": "RoleRevoked",
      "type": "event"
    },
    {
      "anonymous": false,
      "inputs": [
        {
          "indexed": false,
          "internalType": "address",
          "name": "",
          "type": "address"
        },
        {
          "indexed": false,
          "internalType": "address",
          "name": "",
          "type": "address"
        },
        {
          "indexed": false,
          "internalType": "uint256",
          "name": "",
          "type": "uint256"
        }
      ],
      "name": "SetConfig",
      "type": "event"
    },
    {
      "anonymous": false,
      "inputs": [
        {
          "indexed": false,
          "internalType": "uint256",
          "name": "",
          "type": "uint256"
        }
      ],
      "name": "SetHardCap",
      "type": "event"
    },
    {
      "anonymous": false,
      "inputs": [
        {
          "indexed": false,
          "internalType": "uint256",
          "name": "",
          "type": "uint256"
        }
      ],
      "name": "SetLaunch",
      "type": "event"
    },
    {
      "anonymous": false,
      "inputs": [
        {
          "indexed": false,
          "internalType": "uint256",
          "name": "",
          "type": "uint256"
        }
      ],
      "name": "SetLockup",
      "type": "event"
    },
    {
      "anonymous": false,
      "inputs": [
        {
          "indexed": false,
          "internalType": "address",
          "name": "",
          "type": "address"
        },
        {
          "indexed": false,
          "internalType": "uint256",
          "name": "",
          "type": "uint256"
        }
      ],
      "name": "SetMboxKey",
      "type": "event"
    },
    {
      "anonymous": false,
      "inputs": [
        {
          "indexed": false,
          "internalType": "address",
          "name": "",
          "type": "address"
        }
      ],
      "name": "SetMysteryBox",
      "type": "event"
    },
    {
      "anonymous": false,
      "inputs": [
        {
          "indexed": false,
          "internalType": "address",
          "name": "",
          "type": "address"
        }
      ],
      "name": "SetQuote",
      "type": "event"
    },
    {
      "anonymous": false,
      "inputs": [
        {
          "indexed": false,
          "internalType": "address",
          "name": "",
          "type": "address"
        }
      ],
      "name": "SetSubscription",
      "type": "event"
    },
    {
      "anonymous": false,
      "inputs": [
        {
          "indexed": true,
          "internalType": "address",
          "name": "from",
          "type": "address"
        },
        {
          "indexed": true,
          "internalType": "address",
          "name": "to",
          "type": "address"
        },
        {
          "indexed": true,
          "internalType": "uint256",
          "name": "tokenId",
          "type": "uint256"
        }
      ],
      "name": "Transfer",
      "type": "event"
    },
    {
      "anonymous": false,
      "inputs": [
        {
          "indexed": false,
          "internalType": "address",
          "name": "account",
          "type": "address"
        }
      ],
      "name": "Unpaused",
      "type": "event"
    },
    {
      "inputs": [],
      "name": "DEFAULT_ADMIN_ROLE",
      "outputs": [
        {
          "internalType": "bytes32",
          "name": "",
          "type": "bytes32"
        }
      ],
      "stateMutability": "view",
      "type": "function"
    },
    {
      "inputs": [],
      "name": "MINTER_ROLE",
      "outputs": [
        {
          "internalType": "bytes32",
          "name": "",
          "type": "bytes32"
        }
      ],
      "stateMutability": "view",
      "type": "function"
    },
    {
      "inputs": [],
      "name": "PAUSER_ROLE",
      "outputs": [
        {
          "internalType": "bytes32",
          "name": "",
          "type": "bytes32"
        }
      ],
      "stateMutability": "view",
      "type": "function"
    },
    {
      "inputs": [
        {
          "internalType": "address",
          "name": "minter",
          "type": "address"
        }
      ],
      "name": "addMinter",
      "outputs": [],
      "stateMutability": "nonpayable",
      "type": "function"
    },
    {
      "inputs": [
        {
          "internalType": "address",
          "name": "pauser",
          "type": "address"
        }
      ],
      "name": "addPauser",
      "outputs": [],
      "stateMutability": "nonpayable",
      "type": "function"
    },
    {
      "inputs": [],
      "name": "andOr",
      "outputs": [
        {
          "internalType": "bool",
          "name": "",
          "type": "bool"
        }
      ],
      "stateMutability": "view",
      "type": "function"
    },
    {
      "inputs": [
        {
          "internalType": "address",
          "name": "to",
          "type": "address"
        },
        {
          "internalType": "uint256",
          "name": "tokenId",
          "type": "uint256"
        }
      ],
      "name": "approve",
      "outputs": [],
      "stateMutability": "nonpayable",
      "type": "function"
    },
    {
      "inputs": [
        {
          "internalType": "address",
          "name": "owner",
          "type": "address"
        }
      ],
      "name": "balanceOf",
      "outputs": [
        {
          "internalType": "uint256",
          "name": "",
          "type": "uint256"
        }
      ],
      "stateMutability": "view",
      "type": "function"
    },
    {
      "inputs": [
        {
          "internalType": "uint256",
          "name": "tokenId",
          "type": "uint256"
        }
      ],
      "name": "burn",
      "outputs": [],
      "stateMutability": "nonpayable",
      "type": "function"
    },
    {
      "inputs": [
        {
          "internalType": "uint256",
          "name": "_amount",
          "type": "uint256"
        },
        {
          "internalType": "address",
          "name": "to",
          "type": "address"
        }
      ],
      "name": "buyKeyCredit",
      "outputs": [],
      "stateMutability": "nonpayable",
      "type": "function"
    },
    {
      "inputs": [
        {
          "internalType": "uint256",
          "name": "_amount",
          "type": "uint256"
        }
      ],
      "name": "buyKeyEth",
      "outputs": [],
      "stateMutability": "payable",
      "type": "function"
    },
    {
      "inputs": [
        {
          "internalType": "uint256",
          "name": "_payment",
          "type": "uint256"
        },
        {
          "internalType": "uint256",
          "name": "_amount",
          "type": "uint256"
        }
      ],
      "name": "buyKeyQuote",
      "outputs": [],
      "stateMutability": "nonpayable",
      "type": "function"
    },
    {
      "inputs": [
        {
          "internalType": "address",
          "name": "to",
          "type": "address"
        },
        {
          "internalType": "uint256",
          "name": "amount",
          "type": "uint256"
        }
      ],
      "name": "claim",
      "outputs": [],
      "stateMutability": "nonpayable",
      "type": "function"
    },
    {
      "inputs": [
        {
          "internalType": "address",
          "name": "to",
          "type": "address"
        },
        {
          "internalType": "uint256",
          "name": "_amount",
          "type": "uint256"
        }
      ],
      "name": "claimKeys",
      "outputs": [],
      "stateMutability": "nonpayable",
      "type": "function"
    },
    {
      "inputs": [
        {
          "internalType": "uint256",
          "name": "gasPrice",
          "type": "uint256"
        }
      ],
      "name": "estimateRandomizeFee",
      "outputs": [
        {
          "internalType": "uint256",
          "name": "",
          "type": "uint256"
        }
      ],
      "stateMutability": "view",
      "type": "function"
    },
    {
      "inputs": [],
      "name": "feeRate",
      "outputs": [
        {
          "internalType": "uint256",
          "name": "",
          "type": "uint256"
        }
      ],
      "stateMutability": "view",
      "type": "function"
    },
    {
      "inputs": [],
      "name": "flagMandatory",
      "outputs": [
        {
          "internalType": "bool",
          "name": "",
          "type": "bool"
        }
      ],
      "stateMutability": "view",
      "type": "function"
    },
    {
      "inputs": [
        {
          "internalType": "uint256",
          "name": "tokenId",
          "type": "uint256"
        }
      ],
      "name": "getApproved",
      "outputs": [
        {
          "internalType": "address",
          "name": "",
          "type": "address"
        }
      ],
      "stateMutability": "view",
      "type": "function"
    },
    {
      "inputs": [],
      "name": "getItemRemains",
      "outputs": [
        {
          "internalType": "uint256",
          "name": "",
          "type": "uint256"
        }
      ],
      "stateMutability": "view",
      "type": "function"
    },
    {
      "inputs": [
        {
          "internalType": "bytes32",
          "name": "role",
          "type": "bytes32"
        }
      ],
      "name": "getRoleAdmin",
      "outputs": [
        {
          "internalType": "bytes32",
          "name": "",
          "type": "bytes32"
        }
      ],
      "stateMutability": "view",
      "type": "function"
    },
    {
      "inputs": [
        {
          "internalType": "address",
          "name": "_subAddr",
          "type": "address"
        }
      ],
      "name": "getSubInfos",
      "outputs": [
        {
          "internalType": "address",
          "name": "",
          "type": "address"
        },
        {
          "internalType": "uint256",
          "name": "",
          "type": "uint256"
        },
        {
          "internalType": "uint256",
          "name": "",
          "type": "uint256"
        }
      ],
      "stateMutability": "view",
      "type": "function"
    },
    {
      "inputs": [],
      "name": "globalURI",
      "outputs": [
        {
          "internalType": "string",
          "name": "",
          "type": "string"
        }
      ],
      "stateMutability": "view",
      "type": "function"
    },
    {
      "inputs": [
        {
          "internalType": "bytes32",
          "name": "role",
          "type": "bytes32"
        },
        {
          "internalType": "address",
          "name": "account",
          "type": "address"
        }
      ],
      "name": "grantRole",
      "outputs": [],
      "stateMutability": "nonpayable",
      "type": "function"
    },
    {
      "inputs": [],
      "name": "hardCap",
      "outputs": [
        {
          "internalType": "uint256",
          "name": "",
          "type": "uint256"
        }
      ],
      "stateMutability": "view",
      "type": "function"
    },
    {
      "inputs": [
        {
          "internalType": "bytes32",
          "name": "role",
          "type": "bytes32"
        },
        {
          "internalType": "address",
          "name": "account",
          "type": "address"
        }
      ],
      "name": "hasRole",
      "outputs": [
        {
          "internalType": "bool",
          "name": "",
          "type": "bool"
        }
      ],
      "stateMutability": "view",
      "type": "function"
    },
    {
      "inputs": [
        {
          "internalType": "address",
          "name": "owner",
          "type": "address"
        },
        {
          "internalType": "address",
          "name": "operator",
          "type": "address"
        }
      ],
      "name": "isApprovedForAll",
      "outputs": [
        {
          "internalType": "bool",
          "name": "",
          "type": "bool"
        }
      ],
      "stateMutability": "view",
      "type": "function"
    },
    {
      "inputs": [
        {
          "internalType": "uint256",
          "name": "",
          "type": "uint256"
        }
      ],
      "name": "itemAmounts",
      "outputs": [
        {
          "internalType": "uint256",
          "name": "",
          "type": "uint256"
        }
      ],
      "stateMutability": "view",
      "type": "function"
    },
    {
      "inputs": [
        {
          "internalType": "uint256",
          "name": "",
          "type": "uint256"
        }
      ],
      "name": "itemURIs",
      "outputs": [
        {
          "internalType": "string",
          "name": "",
          "type": "string"
        }
      ],
      "stateMutability": "view",
      "type": "function"
    },
    {
      "inputs": [
        {
          "internalType": "uint256",
          "name": "",
          "type": "uint256"
        }
      ],
      "name": "items",
      "outputs": [
        {
          "internalType": "uint256",
          "name": "",
          "type": "uint256"
        }
      ],
      "stateMutability": "view",
      "type": "function"
    },
    {
      "inputs": [],
      "name": "key",
      "outputs": [
        {
          "internalType": "address",
          "name": "",
          "type": "address"
        }
      ],
      "stateMutability": "view",
      "type": "function"
    },
    {
      "inputs": [],
      "name": "latestRandomizingBlock",
      "outputs": [
        {
          "internalType": "uint256",
          "name": "",
          "type": "uint256"
        }
      ],
      "stateMutability": "view",
      "type": "function"
    },
    {
      "inputs": [],
      "name": "launch",
      "outputs": [
        {
          "internalType": "uint256",
          "name": "",
          "type": "uint256"
        }
      ],
      "stateMutability": "view",
      "type": "function"
    },
    {
      "inputs": [],
      "name": "lockup",
      "outputs": [
        {
          "internalType": "uint256",
          "name": "",
          "type": "uint256"
        }
      ],
      "stateMutability": "view",
      "type": "function"
    },
    {
      "inputs": [
        {
          "internalType": "uint256",
          "name": "",
          "type": "uint256"
        }
      ],
      "name": "mandatory",
      "outputs": [
        {
          "internalType": "address",
          "name": "",
          "type": "address"
        }
      ],
      "stateMutability": "view",
      "type": "function"
    },
    {
      "inputs": [],
      "name": "mysteryBox",
      "outputs": [
        {
          "internalType": "address",
          "name": "",
          "type": "address"
        }
      ],
      "stateMutability": "view",
      "type": "function"
    },
    {
      "inputs": [],
      "name": "name",
      "outputs": [
        {
          "internalType": "string",
          "name": "",
          "type": "string"
        }
      ],
      "stateMutability": "view",
      "type": "function"
    },
    {
      "inputs": [
        {
          "internalType": "address",
          "name": "operator",
          "type": "address"
        },
        {
          "internalType": "address",
          "name": "from",
          "type": "address"
        },
        {
          "internalType": "uint256",
          "name": "tokenId",
          "type": "uint256"
        },
        {
          "internalType": "bytes",
          "name": "data",
          "type": "bytes"
        }
      ],
      "name": "onERC721Received",
      "outputs": [
        {
          "internalType": "bytes4",
          "name": "",
          "type": "bytes4"
        }
      ],
      "stateMutability": "pure",
      "type": "function"
    },
    {
      "inputs": [],
      "name": "owner",
      "outputs": [
        {
          "internalType": "address",
          "name": "",
          "type": "address"
        }
      ],
      "stateMutability": "view",
      "type": "function"
    },
    {
      "inputs": [
        {
          "internalType": "uint256",
          "name": "tokenId",
          "type": "uint256"
        }
      ],
      "name": "ownerOf",
      "outputs": [
        {
          "internalType": "address",
          "name": "",
          "type": "address"
        }
      ],
      "stateMutability": "view",
      "type": "function"
    },
    {
      "inputs": [],
      "name": "pause",
      "outputs": [],
      "stateMutability": "nonpayable",
      "type": "function"
    },
    {
      "inputs": [],
      "name": "paused",
      "outputs": [
        {
          "internalType": "bool",
          "name": "",
          "type": "bool"
        }
      ],
      "stateMutability": "view",
      "type": "function"
    },
    {
      "inputs": [],
      "name": "payment",
      "outputs": [
        {
          "internalType": "address",
          "name": "",
          "type": "address"
        }
      ],
      "stateMutability": "view",
      "type": "function"
    },
    {
      "inputs": [],
      "name": "price",
      "outputs": [
        {
          "internalType": "uint256",
          "name": "",
          "type": "uint256"
        }
      ],
      "stateMutability": "view",
      "type": "function"
    },
    {
      "inputs": [],
      "name": "quote",
      "outputs": [
        {
          "internalType": "address",
          "name": "",
          "type": "address"
        }
      ],
      "stateMutability": "view",
      "type": "function"
    },
    {
      "inputs": [],
      "name": "randomness",
      "outputs": [
        {
          "internalType": "uint32",
          "name": "",
          "type": "uint32"
        }
      ],
      "stateMutability": "view",
      "type": "function"
    },
    {
      "inputs": [
        {
          "internalType": "string[]",
          "name": "uris",
          "type": "string[]"
        },
        {
          "internalType": "uint256[]",
          "name": "amounts",
          "type": "uint256[]"
        }
      ],
      "name": "registerItems",
      "outputs": [],
      "stateMutability": "nonpayable",
      "type": "function"
    },
    {
      "inputs": [],
      "name": "renounceOwnership",
      "outputs": [],
      "stateMutability": "nonpayable",
      "type": "function"
    },
    {
      "inputs": [
        {
          "internalType": "bytes32",
          "name": "role",
          "type": "bytes32"
        },
        {
          "internalType": "address",
          "name": "account",
          "type": "address"
        }
      ],
      "name": "renounceRole",
      "outputs": [],
      "stateMutability": "nonpayable",
      "type": "function"
    },
    {
      "inputs": [],
      "name": "requestRandomNumber",
      "outputs": [],
      "stateMutability": "payable",
      "type": "function"
    },
    {
      "inputs": [
        {
          "internalType": "bytes32",
          "name": "role",
          "type": "bytes32"
        },
        {
          "internalType": "address",
          "name": "account",
          "type": "address"
        }
      ],
      "name": "revokeRole",
      "outputs": [],
      "stateMutability": "nonpayable",
      "type": "function"
    },
    {
      "inputs": [
        {
          "internalType": "address",
          "name": "to",
          "type": "address"
        },
        {
          "internalType": "string[]",
          "name": "uris",
          "type": "string[]"
        }
      ],
      "name": "safeBatchMint",
      "outputs": [],
      "stateMutability": "view",
      "type": "function"
    },
    {
      "inputs": [
        {
          "internalType": "address",
          "name": "to",
          "type": "address"
        },
        {
          "internalType": "string",
          "name": "uri",
          "type": "string"
        },
        {
          "internalType": "uint256",
          "name": "amount",
          "type": "uint256"
        }
      ],
      "name": "safeBatchMintLight",
      "outputs": [],
      "stateMutability": "nonpayable",
      "type": "function"
    },
    {
      "inputs": [
        {
          "internalType": "address",
          "name": "to",
          "type": "address"
        },
        {
          "internalType": "string",
          "name": "uri",
          "type": "string"
        }
      ],
      "name": "safeMint",
      "outputs": [
        {
          "internalType": "uint256",
          "name": "",
          "type": "uint256"
        }
      ],
      "stateMutability": "view",
      "type": "function"
    },
    {
      "inputs": [
        {
          "internalType": "address",
          "name": "to",
          "type": "address"
        }
      ],
      "name": "safeMintTo",
      "outputs": [],
      "stateMutability": "nonpayable",
      "type": "function"
    },
    {
      "inputs": [
        {
          "internalType": "address",
          "name": "from",
          "type": "address"
        },
        {
          "internalType": "address",
          "name": "to",
          "type": "address"
        },
        {
          "internalType": "uint256",
          "name": "tokenId",
          "type": "uint256"
        }
      ],
      "name": "safeTransferFrom",
      "outputs": [],
      "stateMutability": "nonpayable",
      "type": "function"
    },
    {
      "inputs": [
        {
          "internalType": "address",
          "name": "from",
          "type": "address"
        },
        {
          "internalType": "address",
          "name": "to",
          "type": "address"
        },
        {
          "internalType": "uint256",
          "name": "tokenId",
          "type": "uint256"
        },
        {
          "internalType": "bytes",
          "name": "_data",
          "type": "bytes"
        }
      ],
      "name": "safeTransferFrom",
      "outputs": [],
      "stateMutability": "nonpayable",
      "type": "function"
    },
    {
      "inputs": [
        {
          "internalType": "address",
          "name": "operator",
          "type": "address"
        },
        {
          "internalType": "bool",
          "name": "approved",
          "type": "bool"
        }
      ],
      "name": "setApprovalForAll",
      "outputs": [],
      "stateMutability": "nonpayable",
      "type": "function"
    },
    {
      "inputs": [
        {
          "internalType": "address",
          "name": "_payment",
          "type": "address"
        },
        {
          "internalType": "address",
          "name": "_treasury",
          "type": "address"
        },
        {
          "internalType": "uint256",
          "name": "_feeRate",
          "type": "uint256"
        }
      ],
      "name": "setConfig",
      "outputs": [],
      "stateMutability": "nonpayable",
      "type": "function"
    },
    {
      "inputs": [
        {
          "internalType": "uint256",
          "name": "_hardCap",
          "type": "uint256"
        },
        {
          "internalType": "string",
          "name": "_uri",
          "type": "string"
        }
      ],
      "name": "setHardCap",
      "outputs": [],
      "stateMutability": "nonpayable",
      "type": "function"
    },
    {
      "inputs": [
        {
          "internalType": "uint256",
          "name": "_launch",
          "type": "uint256"
        }
      ],
      "name": "setLaunch",
      "outputs": [],
      "stateMutability": "nonpayable",
      "type": "function"
    },
    {
      "inputs": [
        {
          "internalType": "uint256",
          "name": "_lockup",
          "type": "uint256"
        }
      ],
      "name": "setLockup",
      "outputs": [],
      "stateMutability": "nonpayable",
      "type": "function"
    },
    {
      "inputs": [
        {
          "internalType": "address[]",
          "name": "_nfts",
          "type": "address[]"
        },
        {
          "internalType": "bool",
          "name": "_andOr",
          "type": "bool"
        }
      ],
      "name": "setMandatory",
      "outputs": [],
      "stateMutability": "nonpayable",
      "type": "function"
    },
    {
      "inputs": [
        {
          "internalType": "address",
          "name": "_key",
          "type": "address"
        },
        {
          "internalType": "uint256",
          "name": "_price",
          "type": "uint256"
        }
      ],
      "name": "setMboxKey",
      "outputs": [],
      "stateMutability": "nonpayable",
      "type": "function"
    },
    {
      "inputs": [
        {
          "internalType": "address",
          "name": "_mbox",
          "type": "address"
        }
      ],
      "name": "setMysteryBox",
      "outputs": [],
      "stateMutability": "nonpayable",
      "type": "function"
    },
    {
      "inputs": [
        {
          "internalType": "address",
          "name": "_quote",
          "type": "address"
        }
      ],
      "name": "setQuote",
      "outputs": [],
      "stateMutability": "nonpayable",
      "type": "function"
    },
    {
      "inputs": [
        {
          "internalType": "address",
          "name": "_subscription",
          "type": "address"
        },
        {
          "internalType": "uint256",
          "name": "_type",
          "type": "uint256"
        },
        {
          "internalType": "uint256",
          "name": "_amount",
          "type": "uint256"
        }
      ],
      "name": "setSubscription",
      "outputs": [],
      "stateMutability": "nonpayable",
      "type": "function"
    },
    {
      "inputs": [
        {
          "internalType": "address",
          "name": "",
          "type": "address"
        }
      ],
      "name": "subAddrs",
      "outputs": [
        {
          "internalType": "uint256",
          "name": "",
          "type": "uint256"
        }
      ],
      "stateMutability": "view",
      "type": "function"
    },
    {
      "inputs": [
        {
          "internalType": "uint256",
          "name": "",
          "type": "uint256"
        }
      ],
      "name": "subInfos",
      "outputs": [
        {
          "internalType": "address",
          "name": "contractAddr",
          "type": "address"
        },
        {
          "internalType": "uint256",
          "name": "contractType",
          "type": "uint256"
        },
        {
          "internalType": "uint256",
          "name": "amount",
          "type": "uint256"
        },
        {
          "internalType": "uint256",
          "name": "start",
          "type": "uint256"
        },
        {
          "internalType": "uint256",
          "name": "end",
          "type": "uint256"
        },
        {
          "internalType": "uint256",
          "name": "count",
          "type": "uint256"
        }
      ],
      "stateMutability": "view",
      "type": "function"
    },
    {
      "inputs": [
        {
          "internalType": "bytes4",
          "name": "interfaceId",
          "type": "bytes4"
        }
      ],
      "name": "supportsInterface",
      "outputs": [
        {
          "internalType": "bool",
          "name": "",
          "type": "bool"
        }
      ],
      "stateMutability": "view",
      "type": "function"
    },
    {
      "inputs": [],
      "name": "symbol",
      "outputs": [
        {
          "internalType": "string",
          "name": "",
          "type": "string"
        }
      ],
      "stateMutability": "view",
      "type": "function"
    },
    {
      "inputs": [
        {
          "internalType": "uint256",
          "name": "index",
          "type": "uint256"
        }
      ],
      "name": "tokenByIndex",
      "outputs": [
        {
          "internalType": "uint256",
          "name": "",
          "type": "uint256"
        }
      ],
      "stateMutability": "view",
      "type": "function"
    },
    {
      "inputs": [
        {
          "internalType": "address",
          "name": "owner",
          "type": "address"
        },
        {
          "internalType": "uint256",
          "name": "index",
          "type": "uint256"
        }
      ],
      "name": "tokenOfOwnerByIndex",
      "outputs": [
        {
          "internalType": "uint256",
          "name": "",
          "type": "uint256"
        }
      ],
      "stateMutability": "view",
      "type": "function"
    },
    {
      "inputs": [
        {
          "internalType": "uint256",
          "name": "tokenId",
          "type": "uint256"
        }
      ],
      "name": "tokenURI",
      "outputs": [
        {
          "internalType": "string",
          "name": "",
          "type": "string"
        }
      ],
      "stateMutability": "view",
      "type": "function"
    },
    {
      "inputs": [],
      "name": "totalItems",
      "outputs": [
        {
          "internalType": "uint256",
          "name": "",
          "type": "uint256"
        }
      ],
      "stateMutability": "view",
      "type": "function"
    },
    {
      "inputs": [],
      "name": "totalSupply",
      "outputs": [
        {
          "internalType": "uint256",
          "name": "",
          "type": "uint256"
        }
      ],
      "stateMutability": "view",
      "type": "function"
    },
    {
      "inputs": [
        {
          "internalType": "address",
          "name": "from",
          "type": "address"
        },
        {
          "internalType": "address",
          "name": "to",
          "type": "address"
        },
        {
          "internalType": "uint256",
          "name": "tokenId",
          "type": "uint256"
        }
      ],
      "name": "transferFrom",
      "outputs": [],
      "stateMutability": "nonpayable",
      "type": "function"
    },
    {
      "inputs": [
        {
          "internalType": "address",
          "name": "newOwner",
          "type": "address"
        }
      ],
      "name": "transferOwnership",
      "outputs": [],
      "stateMutability": "nonpayable",
      "type": "function"
    },
    {
      "inputs": [],
      "name": "treasury",
      "outputs": [
        {
          "internalType": "address",
          "name": "",
          "type": "address"
        }
      ],
      "stateMutability": "view",
      "type": "function"
    },
    {
      "inputs": [],
      "name": "unpause",
      "outputs": [],
      "stateMutability": "nonpayable",
      "type": "function"
    },
    {
      "inputs": [],
      "name": "witnet",
      "outputs": [
        {
          "internalType": "contract IWitnetRandomness",
          "name": "",
          "type": "address"
        }
      ],
      "stateMutability": "view",
      "type": "function"
    },
    {
      "stateMutability": "payable",
      "type": "receive"
    }
  ],
  "bytecode": "0x60a06040526000600d819055601380546001600160a01b031916905560178190556032601c55601f8190556022805460ff1990811690915560248054909116905560268190556028553480156200005557600080fd5b5060405162006a3138038062006a31833981016040819052620000789162000a00565b8787818181600090805190602001906200009492919062000821565b508051620000aa90600190602084019062000821565b5050600b805460ff1916905550620000c233620002df565b620000cf60003362000339565b620000ea600080516020620069f18339815191523362000339565b6200010560008051602062006a118339815191523362000339565b505060016011558151600414620001635760405162461bcd60e51b815260206004820152601a60248201527f696e76616c696420636f6e6669672064617461206c656e67746800000000000060448201526064015b60405180910390fd5b6200017060003362000339565b6200018b600080516020620069f18339815191523362000339565b620001a660008051602062006a118339815191523362000339565b620001e082600081518110620001cc57634e487b7160e01b600052603260045260246000fd5b6020026020010151620003de60201b60201c565b6200021a826001815181106200020657634e487b7160e01b600052603260045260246000fd5b60200260200101516200046b60201b60201c565b6200025586836002815181106200024157634e487b7160e01b600052603260045260246000fd5b6020026020010151620004f260201b60201c565b620002918484846003815181106200027d57634e487b7160e01b600052603260045260246000fd5b60200260200101516200060560201b60201c565b6200029c8562000781565b6001600160a01b038116620002c157634e487b7160e01b600052600160045260246000fd5b60601b6001600160601b0319166080525062000b7195505050505050565b600b80546001600160a01b03838116610100818102610100600160a81b031985161790945560405193909204169182907f8be0079c531659141344cd1fd0a4f28419497f9722a3daafe3b4186f6b6457e090600090a35050565b6000828152600c602090815260408083206001600160a01b038516845290915290205460ff16620003da576000828152600c602090815260408083206001600160a01b03851684529091529020805460ff19166001179055620003993390565b6001600160a01b0316816001600160a01b0316837f2f8788117e7eff1d82e926ec794901d17c78024a50270940304540a733656f0d60405160405180910390a45b5050565b600b546001600160a01b036101009091041633146200042f5760405162461bcd60e51b81526020600482018190526024820152600080516020620069d183398151915260448201526064016200015a565b60188190556040518181527f7c8826e4db3679f20c86da0c68d37f9dbcd1d638c56717e014f93c56d14c02d1906020015b60405180910390a150565b600b546001600160a01b03610100909104163314620004bc5760405162461bcd60e51b81526020600482018190526024820152600080516020620069d183398151915260448201526064016200015a565b60198190556040518181527fa7ade4ab976b6643a971383d9822fb7c2fce66aa2e497d88c3b4f1475ea2b2e09060200162000460565b600b546001600160a01b03610100909104163314620005435760405162461bcd60e51b81526020600482018190526024820152600080516020620069d183398151915260448201526064016200015a565b6001600160a01b038216620005a55760405162461bcd60e51b815260206004820152602160248201527f57726f6e67204d797374657279426f7820636f6e7472616374206164647265736044820152607360f81b60648201526084016200015a565b601280546001600160a01b0319166001600160a01b038416908117909155601482905560408051918252602082018390527fd46fcdc06972a446de426e47c59c6a0c4581b5c0116ac49a2efc3e7d23bdfe72910160405180910390a15050565b600b546001600160a01b03610100909104163314620006565760405162461bcd60e51b81526020600482018190526024820152600080516020620069d183398151915260448201526064016200015a565b6001600160a01b038316620006ae5760405162461bcd60e51b815260206004820152601760248201527f696e76616c6964207061796d656e74206164647265737300000000000000000060448201526064016200015a565b6001600160a01b038216620007065760405162461bcd60e51b815260206004820152601860248201527f696e76616c69642074726561737572792061646472657373000000000000000060448201526064016200015a565b601a80546001600160a01b038581166001600160a01b03199283168117909355601b8054918616919092168117909155601c83905560408051928352602083019190915281018290527fe2be3027f197494650b7a98fd1cae67dacf615bd1d8bb05102999676f11638669060600160405180910390a1505050565b600b546001600160a01b03610100909104163314620007d25760405162461bcd60e51b81526020600482018190526024820152600080516020620069d183398151915260448201526064016200015a565b601380546001600160a01b0319166001600160a01b0383169081179091556040519081527fca92c759228172fe3894a344908fd20dfd37ba561b5af191f1f5b02ee03881fc9060200162000460565b8280546200082f9062000b1e565b90600052602060002090601f0160209004810192826200085357600085556200089e565b82601f106200086e57805160ff19168380011785556200089e565b828001600101855582156200089e579182015b828111156200089e57825182559160200191906001019062000881565b50620008ac929150620008b0565b5090565b5b80821115620008ac5760008155600101620008b1565b80516001600160a01b0381168114620008df57600080fd5b919050565b600082601f830112620008f5578081fd5b815160206001600160401b0382111562000913576200091362000b5b565b8160051b6200092482820162000aeb565b8381528281019086840183880185018910156200093f578687fd5b8693505b858410156200096357805183526001939093019291840191840162000943565b50979650505050505050565b600082601f83011262000980578081fd5b81516001600160401b038111156200099c576200099c62000b5b565b6020620009b2601f8301601f1916820162000aeb565b8281528582848701011115620009c6578384fd5b835b83811015620009e5578581018301518282018401528201620009c8565b83811115620009f657848385840101525b5095945050505050565b600080600080600080600080610100898b03121562000a1d578384fd5b88516001600160401b038082111562000a34578586fd5b62000a428c838d016200096f565b995060208b015191508082111562000a58578586fd5b62000a668c838d016200096f565b985062000a7660408c01620008c7565b975062000a8660608c01620008c7565b965062000a9660808c01620008c7565b955062000aa660a08c01620008c7565b945060c08b015191508082111562000abc578384fd5b5062000acb8b828c01620008e4565b92505062000adc60e08a01620008c7565b90509295985092959890939650565b604051601f8201601f191681016001600160401b038111828210171562000b165762000b1662000b5b565b604052919050565b600181811c9082168062000b3357607f821691505b6020821081141562000b5557634e487b7160e01b600052602260045260246000fd5b50919050565b634e487b7160e01b600052604160045260246000fd5b60805160601c615e2c62000ba5600039600081816108d80152818161285f01528181612c35015261409b0152615e2c6000f3fe6080604052600436106104775760003560e01c806370a082311161024a578063a2aa61eb11610139578063d204c45e116100b6578063e985e9c51161007a578063e985e9c514610ed7578063ec32719614610f20578063f2fde38b14610f40578063fb86a40414610f60578063fcd1ee1014610f7657600080fd5b8063d204c45e14610e3e578063d3d3224a14610e5e578063d539139314610e73578063d547741f14610e95578063e63ab1e914610eb557600080fd5b8063b88d4fde116100fd578063b88d4fde14610d9f578063bebc2b5214610dbf578063bfb231d214610dde578063c38b761c14610dfe578063c87b56dd14610e1e57600080fd5b8063a2aa61eb14610d09578063a60ee26814610d29578063aad3ec9614610d49578063b1fa417614610d69578063b5a87cc114610d7f57600080fd5b80638da5cb5b116101c7578063983b2d561161018b578063983b2d5614610c7e578063999b93af14610c9e578063a035b1fe14610cbe578063a217fddf14610cd4578063a22cb46514610ce957600080fd5b80638da5cb5b14610bf0578063902835f614610c1357806391d1485414610c3357806395d89b4114610c53578063978bbdb914610c6857600080fd5b8063809a249e1161020e578063809a249e14610b7957806382dc1ec414610b935780638456cb5914610bb35780638678a7b214610bc85780638a55b86614610bd057600080fd5b806370a0823114610a47578063715018a614610a67578063786e435c14610a7c5780637b43b82714610b395780637e9598ae14610b5957600080fd5b806338e2d92411610366578063557dee1f116102e35780635d814dea116102a75780635d814dea146109b25780635dce7383146109d257806361d027b3146109e75780636352211e14610a075780636ae6b45914610a2757600080fd5b8063557dee1f1461091a57806355d699621461092d57806358dd6d951461095a5780635c975abb1461097a5780635d1d37c31461099257600080fd5b806342842e0e1161032a57806342842e0e1461086657806342966c681461088657806342f6487a146108a657806346d1d21a146108c65780634f6ccce7146108fa57600080fd5b806338e2d924146107605780633943380c1461078057806339eff2be146107a05780633a1395de146108315780633f4ba83a1461085157600080fd5b806323b872dd116103f45780632f745c59116103b85780632f745c59146106ae5780632f785908146106ce578063347eb9e1146106ee578063360131891461070e57806336568abe1461074057600080fd5b806323b872dd146106085780632449065914610628578063248a9ca3146106485780632799276d146106785780632f2ff15d1461068e57600080fd5b8063095ea7b31161043b578063095ea7b31461054c578063150b7a021461056e57806318160ddd146105b357806321bae9e4146105c8578063230a67ee146105e857600080fd5b806301339c211461048357806301ffc9a7146104ac57806306490f47146104dc57806306fdde03146104f2578063081812fc1461051457600080fd5b3661047e57005b600080fd5b34801561048f57600080fd5b5061049960185481565b6040519081526020015b60405180910390f35b3480156104b857600080fd5b506104cc6104c736600461583a565b610f96565b60405190151581526020016104a3565b3480156104e857600080fd5b5061049960195481565b3480156104fe57600080fd5b50610507610fc1565b6040516104a39190615a26565b34801561052057600080fd5b5061053461052f366004615800565b611053565b6040516001600160a01b0390911681526020016104a3565b34801561055857600080fd5b5061056c61056736600461564e565b6110e0565b005b34801561057a57600080fd5b5061059a61058936600461542b565b630a85bd0160e11b95945050505050565b6040516001600160e01b031990911681526020016104a3565b3480156105bf57600080fd5b50600854610499565b3480156105d457600080fd5b5061056c6105e33660046153a4565b6111f6565b3480156105f457600080fd5b5061056c610603366004615729565b611343565b34801561061457600080fd5b5061056c6106233660046153f0565b61148e565b34801561063457600080fd5b5061056c61064336600461588a565b6114c0565b34801561065457600080fd5b50610499610663366004615800565b6000908152600c602052604090206001015490565b34801561068457600080fd5b5061049960175481565b34801561069a57600080fd5b5061056c6106a9366004615818565b611548565b3480156106ba57600080fd5b506104996106c936600461564e565b61156d565b3480156106da57600080fd5b506105346106e9366004615800565b611603565b3480156106fa57600080fd5b5061056c610709366004615818565b61162d565b34801561071a57600080fd5b50601d5461072b9063ffffffff1681565b60405163ffffffff90911681526020016104a3565b34801561074c57600080fd5b5061056c61075b366004615818565b61183d565b34801561076c57600080fd5b5061056c61077b3660046158b8565b6118bb565b34801561078c57600080fd5b50601254610534906001600160a01b031681565b3480156107ac57600080fd5b506107fa6107bb366004615800565b6025602052600090815260409020805460018201546002830154600384015460048501546005909501546001600160a01b039094169492939192909186565b604080516001600160a01b0390971687526020870195909552938501929092526060840152608083015260a082015260c0016104a3565b34801561083d57600080fd5b5061056c61084c366004615677565b611c62565b34801561085d57600080fd5b5061056c611e23565b34801561087257600080fd5b5061056c6108813660046153f0565b611e46565b34801561089257600080fd5b5061056c6108a1366004615800565b611e61565b3480156108b257600080fd5b50601a54610534906001600160a01b031681565b3480156108d257600080fd5b506105347f000000000000000000000000000000000000000000000000000000000000000081565b34801561090657600080fd5b50610499610915366004615800565b611ed8565b61056c610928366004615800565b611f79565b34801561093957600080fd5b506104996109483660046153a4565b60276020526000908152604090205481565b34801561096657600080fd5b5061056c610975366004615538565b61229c565b34801561098657600080fd5b50600b5460ff166104cc565b34801561099e57600080fd5b5061056c6109ad366004615800565b6122e7565b3480156109be57600080fd5b506105076109cd366004615800565b612353565b3480156109de57600080fd5b506104996123ff565b3480156109f357600080fd5b50601b54610534906001600160a01b031681565b348015610a1357600080fd5b50610534610a22366004615800565b612466565b348015610a3357600080fd5b5061056c610a42366004615800565b6124dd565b348015610a5357600080fd5b50610499610a623660046153a4565b612542565b348015610a7357600080fd5b5061056c6125c9565b348015610a8857600080fd5b50610b14610a973660046153a4565b6001600160a01b0390811660009081526027602090815260408083205483526025825291829020825160c08101845281548516815260018201549281019290925260028101549282019290925260038201546060820181905260048301546080830181905260059093015460a09092019190915260125490921692565b604080516001600160a01b0390941684526020840192909252908201526060016104a3565b348015610b4557600080fd5b5061056c610b543660046153a4565b612605565b348015610b6557600080fd5b5061056c610b7436600461564e565b6126a5565b348015610b8557600080fd5b506024546104cc9060ff1681565b348015610b9f57600080fd5b5061056c610bae3660046153a4565b61278e565b348015610bbf57600080fd5b5061056c612834565b61056c612854565b348015610bdc57600080fd5b50610499610beb366004615800565b612931565b348015610bfc57600080fd5b50600b5461010090046001600160a01b0316610534565b348015610c1f57600080fd5b5061056c610c2e3660046153f0565b612952565b348015610c3f57600080fd5b506104cc610c4e366004615818565b612aa9565b348015610c5f57600080fd5b50610507612ad4565b348015610c7457600080fd5b50610499601c5481565b348015610c8a57600080fd5b5061056c610c993660046153a4565b612ae3565b348015610caa57600080fd5b50601354610534906001600160a01b031681565b348015610cca57600080fd5b5061049960145481565b348015610ce057600080fd5b50610499600081565b348015610cf557600080fd5b5061056c610d04366004615583565b612b89565b348015610d1557600080fd5b5061056c610d243660046153a4565b612b94565b348015610d3557600080fd5b50610499610d44366004615800565b612c12565b348015610d5557600080fd5b5061056c610d6436600461564e565b612cb6565b348015610d7557600080fd5b50610499601e5481565b348015610d8b57600080fd5b5061056c610d9a3660046155fa565b61309d565b348015610dab57600080fd5b5061056c610dba3660046154c0565b61312f565b348015610dcb57600080fd5b506024546104cc90610100900460ff1681565b348015610dea57600080fd5b50610499610df9366004615800565b613161565b348015610e0a57600080fd5b50600f54610534906001600160a01b031681565b348015610e2a57600080fd5b50610507610e39366004615800565b613171565b348015610e4a57600080fd5b50610499610e593660046155b9565b61317c565b348015610e6a57600080fd5b50610507613196565b348015610e7f57600080fd5b50610499600080516020615dd783398151915281565b348015610ea157600080fd5b5061056c610eb0366004615818565b6131a3565b348015610ec157600080fd5b50610499600080516020615db783398151915281565b348015610ee357600080fd5b506104cc610ef23660046153be565b6001600160a01b03918216600090815260056020908152604080832093909416825291909152205460ff1690565b348015610f2c57600080fd5b5061056c610f3b3660046156a9565b6131c8565b348015610f4c57600080fd5b5061056c610f5b3660046153a4565b6132af565b348015610f6c57600080fd5b50610499600d5481565b348015610f8257600080fd5b5061056c610f9136600461564e565b61334d565b60006001600160e01b031982166380ac58cd60e01b1480610fbb5750610fbb826136cf565b92915050565b606060008054610fd090615cec565b80601f0160208091040260200160405190810160405280929190818152602001828054610ffc90615cec565b80156110495780601f1061101e57610100808354040283529160200191611049565b820191906000526020600020905b81548152906001019060200180831161102c57829003601f168201915b5050505050905090565b600061105e826136f4565b6110c45760405162461bcd60e51b815260206004820152602c60248201527f4552433732313a20617070726f76656420717565727920666f72206e6f6e657860448201526b34b9ba32b73a103a37b5b2b760a11b60648201526084015b60405180910390fd5b506000908152600460205260409020546001600160a01b031690565b60006110eb82612466565b9050806001600160a01b0316836001600160a01b031614156111595760405162461bcd60e51b815260206004820152602160248201527f4552433732313a20617070726f76616c20746f2063757272656e74206f776e656044820152603960f91b60648201526084016110bb565b336001600160a01b038216148061117557506111758133610ef2565b6111e75760405162461bcd60e51b815260206004820152603860248201527f4552433732313a20617070726f76652063616c6c6572206973206e6f74206f7760448201527f6e6572206e6f7220617070726f76656420666f7220616c6c000000000000000060648201526084016110bb565b6111f18383613711565b505050565b600080516020615dd783398151915261120e8161377f565b6000600e805461121d90615cec565b9050116112645760405162461bcd60e51b815260206004820152601560248201527411db1bd8985b08155492481a5cc81b9bdd081cd95d605a1b60448201526064016110bb565b6001600160a01b0382166112af5760405162461bcd60e51b8152602060048201526012602482015271496e76616c696420746f206164647265737360701b60448201526064016110bb565b6111f182600e80546112c090615cec565b80601f01602080910402602001604051908101604052809291908181526020018280546112ec90615cec565b80156113395780601f1061130e57610100808354040283529160200191611339565b820191906000526020600020905b81548152906001019060200180831161131c57829003601f168201915b505050505061317c565b600080516020615dd783398151915261135b8161377f565b60225460ff16156113ae5760405162461bcd60e51b815260206004820152601860248201527f4974656d7320616c72656164792072656769737465726564000000000000000060448201526064016110bb565b81518351146113f75760405162461bcd60e51b8152602060048201526015602482015274082e4e4c2f240d8cadccee8d040dad2e6dac2e8c6d605b1b60448201526064016110bb565b815161140a906021906020850190615102565b50825161141d906020908186019061514d565b5060005b835181101561147b5761146683828151811061144d57634e487b7160e01b600052603260045260246000fd5b602002602001015160175461378990919063ffffffff16565b6017558061147381615d21565b915050611421565b50506022805460ff191660011790555050565b611499335b82613795565b6114b55760405162461bcd60e51b81526004016110bb90615ba3565b6111f183838361387f565b600b546001600160a01b036101009091041633146114f05760405162461bcd60e51b81526004016110bb90615ab5565b600d829055805161150890600e9060208401906151a6565b507f57bbf0b7295e3c8587fe0fa3c76592771f6a96123bf723292fd0e3933436b71f600d5460405161153c91815260200190565b60405180910390a15050565b6000828152600c60205260409020600101546115638161377f565b6111f18383613a26565b600061157883612542565b82106115da5760405162461bcd60e51b815260206004820152602b60248201527f455243373231456e756d657261626c653a206f776e657220696e646578206f7560448201526a74206f6620626f756e647360a81b60648201526084016110bb565b506001600160a01b03919091166000908152600660209081526040808320938352929052205490565b6023818154811061161357600080fd5b6000918252602090912001546001600160a01b0316905081565b600080516020615dd78339815191526116458161377f565b60185442116116665760405162461bcd60e51b81526004016110bb90615b6c565b60245460ff16156117ba576000805b602354811015611797576000602382815481106116a257634e487b7160e01b600052603260045260246000fd5b6000918252602090912001546040516370a0823160e01b81523360048201526001600160a01b03909116906370a082319060240160206040518083038186803b1580156116ee57600080fd5b505afa158015611702573d6000803e3d6000fd5b505050506040513d601f19601f820116820180604052508101906117269190615872565b602454909150610100900460ff161561176b57600081116117595760405162461bcd60e51b81526004016110bb90615aea565b611764836001613789565b9250611784565b80156117845761177c836001613789565b925050611797565b508061178f81615d21565b915050611675565b50600081116117b85760405162461bcd60e51b81526004016110bb90615aea565b505b60005b838110156118375760125460405163086eba7960e21b81526001600160a01b038581166004830152909116906321bae9e490602401600060405180830381600087803b15801561180c57600080fd5b505af1158015611820573d6000803e3d6000fd5b50505050808061182f90615d21565b9150506117bd565b50505050565b6001600160a01b03811633146118ad5760405162461bcd60e51b815260206004820152602f60248201527f416363657373436f6e74726f6c3a2063616e206f6e6c792072656e6f756e636560448201526e103937b632b9903337b91039b2b63360891b60648201526084016110bb565b6118b78282613aac565b5050565b6013546001600160a01b03166119075760405162461bcd60e51b81526020600482015260116024820152702bb937b7339038bab7ba32903a37b5b2b760791b60448201526064016110bb565b60185442116119285760405162461bcd60e51b81526004016110bb90615b6c565b600082116119485760405162461bcd60e51b81526004016110bb90615b2b565b601454611956908290613b13565b82146119a45760405162461bcd60e51b815260206004820152601d60248201527f76616c756520616e6420616d6f756e74206973206e6f74206d6174636800000060448201526064016110bb565b6013546040516370a0823160e01b81523360048201526000916001600160a01b0316906370a082319060240160206040518083038186803b1580156119e857600080fd5b505afa1580156119fc573d6000803e3d6000fd5b505050506040513d601f19601f82011682018060405250810190611a209190615872565b9050828111611a715760405162461bcd60e51b815260206004820152601b60248201527f6c61636b206f662071756f746520746f6b656e2062616c616e6365000000000060448201526064016110bb565b60245460ff1615611bc5576000805b602354811015611ba257600060238281548110611aad57634e487b7160e01b600052603260045260246000fd5b6000918252602090912001546040516370a0823160e01b81523360048201526001600160a01b03909116906370a082319060240160206040518083038186803b158015611af957600080fd5b505afa158015611b0d573d6000803e3d6000fd5b505050506040513d601f19601f82011682018060405250810190611b319190615872565b602454909150610100900460ff1615611b765760008111611b645760405162461bcd60e51b81526004016110bb90615aea565b611b6f836001613789565b9250611b8f565b8015611b8f57611b87836001613789565b925050611ba2565b5080611b9a81615d21565b915050611a80565b5060008111611bc35760405162461bcd60e51b81526004016110bb90615aea565b505b601354611bdd906001600160a01b0316333086613b1f565b60005b82811015611c585760125460405163086eba7960e21b81523360048201526001600160a01b03909116906321bae9e490602401600060405180830381600087803b158015611c2d57600080fd5b505af1158015611c41573d6000803e3d6000fd5b505050508080611c5090615d21565b915050611be0565b506111f182613c5d565b600b546001600160a01b03610100909104163314611c925760405162461bcd60e51b81526004016110bb90615ab5565b6001600160a01b038316611cf45760405162461bcd60e51b815260206004820152602360248201527f57726f6e6720537562736372697074696f6e20636f6e7472616374206164647260448201526265737360e81b60648201526084016110bb565b6026546001600160a01b038416600090815260276020526040812091909155602854611d2d90600190611d279085613789565b90613e24565b6040805160c0810182526001600160a01b03878116825260208083018881528385018881526028546060860190815260808601888152600060a088018181526026805483526025909752988120975188546001600160a01b0319169716969096178755925160018701559051600286015551600385015551600484015592516005909201919091558154929350611dc383615d21565b9091555050602854611dd59083613789565b602855611de184612ae3565b6040516001600160a01b03851681527f17c74683f7319a4225517b5017988f05364289712fe6386d78e265035a7872259060200160405180910390a150505050565b600080516020615db7833981519152611e3b8161377f565b611e43613e30565b50565b6111f18383836040518060200160405280600081525061312f565b611e6a33611493565b611ecf5760405162461bcd60e51b815260206004820152603060248201527f4552433732314275726e61626c653a2063616c6c6572206973206e6f74206f7760448201526f1b995c881b9bdc88185c1c1c9bdd995960821b60648201526084016110bb565b611e4381613ec3565b6000611ee360085490565b8210611f465760405162461bcd60e51b815260206004820152602c60248201527f455243373231456e756d657261626c653a20676c6f62616c20696e646578206f60448201526b7574206f6620626f756e647360a01b60648201526084016110bb565b60088281548110611f6757634e487b7160e01b600052603260045260246000fd5b90600052602060002001549050919050565b6013546001600160a01b031615611fc65760405162461bcd60e51b81526020600482015260116024820152702bb937b7339038bab7ba32903a37b5b2b760791b60448201526064016110bb565b6018544211611fe75760405162461bcd60e51b81526004016110bb90615b6c565b600034116120075760405162461bcd60e51b81526004016110bb90615b2b565b601454612015908290613b13565b34146120635760405162461bcd60e51b815260206004820152601d60248201527f76616c756520616e6420616d6f756e74206973206e6f74206d6174636800000060448201526064016110bb565b6012546001600160a01b03161580159061207d5750602654155b6120c35760405162461bcd60e51b81526020600482015260176024820152761ad95e4818dbdb9d1c9858dd081a5cc81b9bdd081cd95d604a1b60448201526064016110bb565b60245460ff1615612217576000805b6023548110156121f4576000602382815481106120ff57634e487b7160e01b600052603260045260246000fd5b6000918252602090912001546040516370a0823160e01b81523360048201526001600160a01b03909116906370a082319060240160206040518083038186803b15801561214b57600080fd5b505afa15801561215f573d6000803e3d6000fd5b505050506040513d601f19601f820116820180604052508101906121839190615872565b602454909150610100900460ff16156121c857600081116121b65760405162461bcd60e51b81526004016110bb90615aea565b6121c1836001613789565b92506121e1565b80156121e1576121d9836001613789565b9250506121f4565b50806121ec81615d21565b9150506120d2565b50600081116122155760405162461bcd60e51b81526004016110bb90615aea565b505b60005b818110156122925760125460405163086eba7960e21b81523360048201526001600160a01b03909116906321bae9e490602401600060405180830381600087803b15801561226757600080fd5b505af115801561227b573d6000803e3d6000fd5b50505050808061228a90615d21565b91505061221a565b50611e4381613c5d565b600080516020615dd78339815191526122b48161377f565b60405162461bcd60e51b8152602060048201526008602482015267111a5cd8589b195960c21b60448201526064016110bb565b600b546001600160a01b036101009091041633146123175760405162461bcd60e51b81526004016110bb90615ab5565b60188190556040518181527f7c8826e4db3679f20c86da0c68d37f9dbcd1d638c56717e014f93c56d14c02d1906020015b60405180910390a150565b6020818154811061236357600080fd5b90600052602060002001600091509050805461237e90615cec565b80601f01602080910402602001604051908101604052809291908181526020018280546123aa90615cec565b80156123f75780601f106123cc576101008083540402835291602001916123f7565b820191906000526020600020905b8154815290600101906020018083116123da57829003601f168201915b505050505081565b600080805b6021548110156124605761244c6021828154811061243257634e487b7160e01b600052603260045260246000fd5b90600052602060002001548361378990919063ffffffff16565b91508061245881615d21565b915050612404565b50919050565b6000818152600260205260408120546001600160a01b031680610fbb5760405162461bcd60e51b815260206004820152602960248201527f4552433732313a206f776e657220717565727920666f72206e6f6e657869737460448201526832b73a103a37b5b2b760b91b60648201526084016110bb565b600b546001600160a01b0361010090910416331461250d5760405162461bcd60e51b81526004016110bb90615ab5565b60198190556040518181527fa7ade4ab976b6643a971383d9822fb7c2fce66aa2e497d88c3b4f1475ea2b2e090602001612348565b60006001600160a01b0382166125ad5760405162461bcd60e51b815260206004820152602a60248201527f4552433732313a2062616c616e636520717565727920666f7220746865207a65604482015269726f206164647265737360b01b60648201526084016110bb565b506001600160a01b031660009081526003602052604090205490565b600b546001600160a01b036101009091041633146125f95760405162461bcd60e51b81526004016110bb90615ab5565b6126036000613ecc565b565b600b546001600160a01b036101009091041633146126355760405162461bcd60e51b81526004016110bb90615ab5565b600f80546001600160a01b0319166001600160a01b038316179055612668600080516020615dd783398151915282613a26565b600f546040516001600160a01b0390911681527f329b1203fc60a62c4a0fd3ff1554a07f92a2f117cc590422dd105811bb484ded90602001612348565b600b546001600160a01b036101009091041633146126d55760405162461bcd60e51b81526004016110bb90615ab5565b6001600160a01b0382166127355760405162461bcd60e51b815260206004820152602160248201527f57726f6e67204d797374657279426f7820636f6e7472616374206164647265736044820152607360f81b60648201526084016110bb565b601280546001600160a01b0319166001600160a01b038416908117909155601482905560408051918252602082018390527fd46fcdc06972a446de426e47c59c6a0c4581b5c0116ac49a2efc3e7d23bdfe72910161153c565b600b546001600160a01b036101009091041633146127be5760405162461bcd60e51b81526004016110bb90615ab5565b6127d6600080516020615db783398151915282613a26565b604080516001600160a01b038316815260208101829052600b918101919091526a5041555345525f524f4c4560a81b60608201527f0578acc86b18d67c13a5e6eed8c670fb7052f530b48a2acb167d6ca77509a38490608001612348565b600080516020615db783398151915261284c8161377f565b611e43613f26565b43601e8190555060007f00000000000000000000000000000000000000000000000000000000000000006001600160a01b031663699b328a346040518263ffffffff1660e01b81526004016020604051808303818588803b1580156128b857600080fd5b505af11580156128cc573d6000803e3d6000fd5b50505050506040513d601f19601f820116820180604052508101906128f19190615872565b905034811015611e4357336108fc6129098334615c92565b6040518115909202916000818181858888f193505050501580156118b7573d6000803e3d6000fd5b6021818154811061294157600080fd5b600091825260209091200154905081565b600b546001600160a01b036101009091041633146129825760405162461bcd60e51b81526004016110bb90615ab5565b6001600160a01b0383166129d85760405162461bcd60e51b815260206004820152601760248201527f696e76616c6964207061796d656e74206164647265737300000000000000000060448201526064016110bb565b6001600160a01b038216612a2e5760405162461bcd60e51b815260206004820152601860248201527f696e76616c69642074726561737572792061646472657373000000000000000060448201526064016110bb565b601a80546001600160a01b038581166001600160a01b03199283168117909355601b8054918616919092168117909155601c83905560408051928352602083019190915281018290527fe2be3027f197494650b7a98fd1cae67dacf615bd1d8bb05102999676f11638669060600160405180910390a1505050565b6000918252600c602090815260408084206001600160a01b0393909316845291905290205460ff1690565b606060018054610fd090615cec565b600b546001600160a01b03610100909104163314612b135760405162461bcd60e51b81526004016110bb90615ab5565b612b2b600080516020615dd783398151915282613a26565b604080516001600160a01b038316815260208101829052600b918101919091526a4d494e5445525f524f4c4560a81b60608201527f0578acc86b18d67c13a5e6eed8c670fb7052f530b48a2acb167d6ca77509a38490608001612348565b6118b7338383613f7e565b600b546001600160a01b03610100909104163314612bc45760405162461bcd60e51b81526004016110bb90615ab5565b601380546001600160a01b0319166001600160a01b0383169081179091556040519081527fca92c759228172fe3894a344908fd20dfd37ba561b5af191f1f5b02ee03881fc90602001612348565b6040516314c1dc4d60e31b81526004810182905260009081906001600160a01b037f0000000000000000000000000000000000000000000000000000000000000000169063a60ee2689060240160206040518083038186803b158015612c7757600080fd5b505afa158015612c8b573d6000803e3d6000fd5b505050506040513d601f19601f82011682018060405250810190612caf9190615872565b9392505050565b600b5460ff1615612cd95760405162461bcd60e51b81526004016110bb90615a8b565b60026011541415612d2c5760405162461bcd60e51b815260206004820152601f60248201527f5265656e7472616e637947756172643a207265656e7472616e742063616c6c0060448201526064016110bb565b60026011556012546001600160a01b0316612d805760405162461bcd60e51b81526020600482015260146024820152731ad95e4818dbdb9d1c9858dd081b9bdd081cd95d60621b60448201526064016110bb565b6001600160a01b038216612dcc5760405162461bcd60e51b815260206004820152601360248201527257726f6e6720636c61696d206164647265737360681b60448201526064016110bb565b6019544211612e1d5760405162461bcd60e51b815260206004820152601b60248201527f4e6f74207965742072657665616c2074696d652072656163686564000000000060448201526064016110bb565b6012546040516370a0823160e01b81523360048201526000916001600160a01b0316906370a082319060240160206040518083038186803b158015612e6157600080fd5b505afa158015612e75573d6000803e3d6000fd5b505050506040513d601f19601f82011682018060405250810190612e999190615872565b905060008111612f075760405162461bcd60e51b815260206004820152603360248201527f4f6e6c79206f776e657273206f66204d797374657279426f782063616e20636c60448201527261696d20756e626f786564206974656d28732960681b60648201526084016110bb565b808211158015612f175750600082115b612f5a5760405162461bcd60e51b81526020600482015260146024820152731a5b9d985b1a590818db185a5b48185b5bdd5b9d60621b60448201526064016110bb565b60005b8281101561309257601254604051632f745c5960e01b8152336004820152600060248201819052916001600160a01b031690632f745c599060440160206040518083038186803b158015612fb057600080fd5b505afa158015612fc4573d6000803e3d6000fd5b505050506040513d601f19601f82011682018060405250810190612fe89190615872565b601254604051632142170760e11b815233600482015261dead6024820152604481018390529192506001600160a01b0316906342842e0e90606401600060405180830381600087803b15801561303d57600080fd5b505af1158015613051573d6000803e3d6000fd5b5050505061306060175461404d565b601d5461307d9086906130789063ffffffff1661414f565b6142e8565b5050808061308a90615d21565b915050612f5d565b505060016011555050565b600080516020615dd78339815191526130b58161377f565b6001600160a01b0384166131005760405162461bcd60e51b8152602060048201526012602482015271496e76616c696420746f206164647265737360701b60448201526064016110bb565b60005b8281101561312857613115858561317c565b508061312081615d21565b915050613103565b5050505050565b6131393383613795565b6131555760405162461bcd60e51b81526004016110bb90615ba3565b611837848484846142f5565b6016818154811061294157600080fd5b6060610fbb82614328565b6000600080516020615dd78339815191526122b48161377f565b600e805461237e90615cec565b6000828152600c60205260409020600101546131be8161377f565b6111f18383613aac565b600b546001600160a01b036101009091041633146131f85760405162461bcd60e51b81526004016110bb90615ab5565b81156132935760005b8281101561328457602384848381811061322b57634e487b7160e01b600052603260045260246000fd5b905060200201602081019061324091906153a4565b81546001810183556000928352602090922090910180546001600160a01b0319166001600160a01b039092169190911790558061327c81615d21565b915050613201565b506024805460ff191660011790555b602480549115156101000261ff00199092169190911790555050565b600b546001600160a01b036101009091041633146132df5760405162461bcd60e51b81526004016110bb90615ab5565b6001600160a01b0381166133445760405162461bcd60e51b815260206004820152602660248201527f4f776e61626c653a206e6577206f776e657220697320746865207a65726f206160448201526564647265737360d01b60648201526084016110bb565b611e4381613ecc565b600b5460ff16156133705760405162461bcd60e51b81526004016110bb90615a8b565b6000602654116133c25760405162461bcd60e51b815260206004820152601d60248201527f4e6f20737562736372697074696f6e20636f6e7472616374732073657400000060448201526064016110bb565b33600081815260276020908152604080832054835260259091529020546001600160a01b03161461344b5760405162461bcd60e51b815260206004820152602d60248201527f4f6e6c7920737562736372697074696f6e20636f6e74726163742063616e206360448201526c616c6c20636c61696d4b65797360981b60648201526084016110bb565b6002601154141561349e5760405162461bcd60e51b815260206004820152601f60248201527f5265656e7472616e637947756172643a207265656e7472616e742063616c6c0060448201526064016110bb565b60026011556012546001600160a01b03166134f25760405162461bcd60e51b81526020600482015260146024820152731ad95e4818dbdb9d1c9858dd081b9bdd081cd95d60621b60448201526064016110bb565b6001600160a01b03821661353e5760405162461bcd60e51b815260206004820152601360248201527257726f6e6720636c61696d206164647265737360681b60448201526064016110bb565b6000811161358e5760405162461bcd60e51b815260206004820152601a60248201527f696e76616c696420746f6b656e49647320666f7220636c61696d00000000000060448201526064016110bb565b3360009081526027602052604081205490805b838110156136c357600083815260256020526040902060058101546003909101546135cb91613789565b60008481526025602052604090206004015490925082111561362f5760405162461bcd60e51b815260206004820152601760248201527f636c61696d20746f6b656e204964206f766572666c6f7700000000000000000060448201526064016110bb565b600083815260256020526040812060050180549161364c83615d21565b909155505060125460405163086eba7960e21b81526001600160a01b038781166004830152909116906321bae9e490602401600060405180830381600087803b15801561369857600080fd5b505af11580156136ac573d6000803e3d6000fd5b5050505080806136bb90615d21565b9150506135a1565b50506001601155505050565b60006001600160e01b03198216637965db0b60e01b1480610fbb5750610fbb82614497565b6000908152600260205260409020546001600160a01b0316151590565b600081815260046020526040902080546001600160a01b0319166001600160a01b038416908117909155819061374682612466565b6001600160a01b03167f8c5be1e5ebec7d5bd14f71427d1e84f3dd0314c0f7b2291e5b200ac8c7c3b92560405160405180910390a45050565b611e4381336144bc565b6000612caf8284615c47565b60006137a0826136f4565b6138015760405162461bcd60e51b815260206004820152602c60248201527f4552433732313a206f70657261746f7220717565727920666f72206e6f6e657860448201526b34b9ba32b73a103a37b5b2b760a11b60648201526084016110bb565b600061380c83612466565b9050806001600160a01b0316846001600160a01b0316148061385357506001600160a01b0380821660009081526005602090815260408083209388168352929052205460ff165b806138775750836001600160a01b031661386c84611053565b6001600160a01b0316145b949350505050565b826001600160a01b031661389282612466565b6001600160a01b0316146138f65760405162461bcd60e51b815260206004820152602560248201527f4552433732313a207472616e736665722066726f6d20696e636f72726563742060448201526437bbb732b960d91b60648201526084016110bb565b6001600160a01b0382166139585760405162461bcd60e51b8152602060048201526024808201527f4552433732313a207472616e7366657220746f20746865207a65726f206164646044820152637265737360e01b60648201526084016110bb565b613963838383614520565b61396e600082613711565b6001600160a01b0383166000908152600360205260408120805460019290613997908490615c92565b90915550506001600160a01b03821660009081526003602052604081208054600192906139c5908490615c47565b909155505060008181526002602052604080822080546001600160a01b0319166001600160a01b0386811691821790925591518493918716917fddf252ad1be2c89b69c2b068fc378daa952ba7f163c4a11628f55a4df523b3ef91a4505050565b613a308282612aa9565b6118b7576000828152600c602090815260408083206001600160a01b03851684529091529020805460ff19166001179055613a683390565b6001600160a01b0316816001600160a01b0316837f2f8788117e7eff1d82e926ec794901d17c78024a50270940304540a733656f0d60405160405180910390a45050565b613ab68282612aa9565b156118b7576000828152600c602090815260408083206001600160a01b0385168085529252808320805460ff1916905551339285917ff6391f5c32d9c69d2a47ea670b442974b53935d1edc7fd64eb21e047a839171b9190a45050565b6000612caf8284615c73565b604080516001600160a01b0385811660248301528481166044830152606480830185905283518084039091018152608490920183526020820180516001600160e01b03166323b872dd60e01b1790529151600092839290881691613b839190615929565b6000604051808303816000865af19150503d8060008114613bc0576040519150601f19603f3d011682016040523d82523d6000602084013e613bc5565b606091505b5091509150818015613bef575080511580613bef575080806020019051810190613bef91906157e4565b613c555760405162461bcd60e51b815260206004820152603160248201527f5472616e7366657248656c7065723a3a7472616e7366657246726f6d3a207472604482015270185b9cd9995c919c9bdb4819985a5b1959607a1b60648201526084016110bb565b505050505050565b6012546001600160a01b0316613caf5760405162461bcd60e51b81526020600482015260176024820152761ad95e4818dbdb9d1c9858dd081a5cc81b9bdd081cd95d604a1b60448201526064016110bb565b60265415613cff5760405162461bcd60e51b815260206004820152601e60248201527f6d797374657279626f7820696e76616c6964206d6574686f642063616c6c000060448201526064016110bb565b601a546001600160a01b0316613d575760405162461bcd60e51b815260206004820152601a60248201527f7061796d656e742061646472657373206973206e6f742073657400000000000060448201526064016110bb565b6000613d6e60145483613b1390919063ffffffff16565b90506000613d936103e8613d8d601c5485613b1390919063ffffffff16565b9061454e565b90506000613da18383613e24565b6013549091506001600160a01b031615613df857601354601b54613dd4916001600160a01b039081169130911685613b1f565b601354601a54613df3916001600160a01b039081169130911684613b1f565b611837565b601b54613e0e906001600160a01b03168361455a565b601a54611837906001600160a01b03168261455a565b6000612caf8284615c92565b600b5460ff16613e795760405162461bcd60e51b815260206004820152601460248201527314185d5cd8589b194e881b9bdd081c185d5cd95960621b60448201526064016110bb565b600b805460ff191690557f5db9ee0a495bf2e6ff9c91a7834c1ba4fdd244a5e8aa4e537bd38aeae4b073aa335b6040516001600160a01b03909116815260200160405180910390a1565b611e4381614634565b600b80546001600160a01b03838116610100818102610100600160a81b031985161790945560405193909204169182907f8be0079c531659141344cd1fd0a4f28419497f9722a3daafe3b4186f6b6457e090600090a35050565b600b5460ff1615613f495760405162461bcd60e51b81526004016110bb90615a8b565b600b805460ff191660011790557f62e78cea01bee320cd4e420270b5ea74000d11b0c9f74754ebdbfc544b05a258613ea63390565b816001600160a01b0316836001600160a01b03161415613fe05760405162461bcd60e51b815260206004820152601960248201527f4552433732313a20617070726f766520746f2063616c6c65720000000000000060448201526064016110bb565b6001600160a01b03838116600081815260056020908152604080832094871680845294825291829020805460ff191686151590811790915591519182527f17307eab39ab6107e8899845ad3d59bd9653f200f220920489ca2b5937696c31910160405180910390a3505050565b6000601e541161406d57634e487b7160e01b600052600160045260246000fd5b601f54601e546040516324cbbfc160e01b815263ffffffff84166004820152602481019290925260448201527f00000000000000000000000000000000000000000000000000000000000000006001600160a01b0316906324cbbfc19060640160206040518083038186803b1580156140e557600080fd5b505afa1580156140f9573d6000803e3d6000fd5b505050506040513d601f19601f8201168201806040525081019061411d91906158d9565b601d805463ffffffff191663ffffffff92909216919091179055601f805490600061414783615d21565b919050555050565b6060600080805b6020548110156141a8576141846021828154811061243257634e487b7160e01b600052603260045260246000fd5b915081851015614196578092506141a8565b806141a081615d21565b915050614156565b506017546141b7906001613e24565b6017819055506141fc6001602184815481106141e357634e487b7160e01b600052603260045260246000fd5b9060005260206000200154613e2490919063ffffffff16565b6021838154811061421d57634e487b7160e01b600052603260045260246000fd5b90600052602060002001819055506020828154811061424c57634e487b7160e01b600052603260045260246000fd5b90600052602060002001805461426190615cec565b80601f016020809104026020016040519081016040528092919081815260200182805461428d90615cec565b80156142da5780601f106142af576101008083540402835291602001916142da565b820191906000526020600020905b8154815290600101906020018083116142bd57829003601f168201915b505050505092505050919050565b6000806138778484614674565b61430084848461387f565b61430c848484846146a4565b6118375760405162461bcd60e51b81526004016110bb90615a39565b6060614333826136f4565b6143995760405162461bcd60e51b815260206004820152603160248201527f45524337323155524953746f726167653a2055524920717565727920666f72206044820152703737b732bc34b9ba32b73a103a37b5b2b760791b60648201526084016110bb565b6000828152600a6020526040812080546143b290615cec565b80601f01602080910402602001604051908101604052809291908181526020018280546143de90615cec565b801561442b5780601f106144005761010080835404028352916020019161442b565b820191906000526020600020905b81548152906001019060200180831161440e57829003601f168201915b50505050509050600061444960408051602081019091526000815290565b905080516000141561445c575092915050565b81511561448e578082604051602001614476929190615945565b60405160208183030381529060405292505050919050565b613877846147b1565b60006001600160e01b0319821663780e9d6360e01b1480610fbb5750610fbb82614888565b6144c68282612aa9565b6118b7576144de816001600160a01b031660146148d8565b6144e98360206148d8565b6040516020016144fa929190615974565b60408051601f198184030181529082905262461bcd60e51b82526110bb91600401615a26565b600b5460ff16156145435760405162461bcd60e51b81526004016110bb90615a8b565b6111f1838383614ab9565b6000612caf8284615c5f565b604080516000808252602082019092526001600160a01b0384169083906040516145849190615929565b60006040518083038185875af1925050503d80600081146145c1576040519150601f19603f3d011682016040523d82523d6000602084013e6145c6565b606091505b50509050806111f15760405162461bcd60e51b815260206004820152603460248201527f5472616e7366657248656c7065723a3a736166655472616e736665724554483a60448201527308115512081d1c985b9cd9995c8819985a5b195960621b60648201526084016110bb565b61463d81614b71565b6000818152600a60205260409020805461465690615cec565b159050611e43576000818152600a60205260408120611e4391615219565b60008061468060105490565b9050614690601080546001019055565b61469a8482614c18565b612caf8184614c32565b60006001600160a01b0384163b156147a657604051630a85bd0160e11b81526001600160a01b0385169063150b7a02906146e89033908990889088906004016159e9565b602060405180830381600087803b15801561470257600080fd5b505af1925050508015614732575060408051601f3d908101601f1916820190925261472f91810190615856565b60015b61478c573d808015614760576040519150601f19603f3d011682016040523d82523d6000602084013e614765565b606091505b5080516147845760405162461bcd60e51b81526004016110bb90615a39565b805181602001fd5b6001600160e01b031916630a85bd0160e11b149050613877565b506001949350505050565b60606147bc826136f4565b6148205760405162461bcd60e51b815260206004820152602f60248201527f4552433732314d657461646174613a2055524920717565727920666f72206e6f60448201526e3732bc34b9ba32b73a103a37b5b2b760891b60648201526084016110bb565b600061483760408051602081019091526000815290565b905060008151116148575760405180602001604052806000815250612caf565b8061486184614cbd565b604051602001614872929190615945565b6040516020818303038152906040529392505050565b60006001600160e01b031982166380ac58cd60e01b14806148b957506001600160e01b03198216635b5e139f60e01b145b80610fbb57506301ffc9a760e01b6001600160e01b0319831614610fbb565b606060006148e7836002615c73565b6148f2906002615c47565b6001600160401b0381111561491757634e487b7160e01b600052604160045260246000fd5b6040519080825280601f01601f191660200182016040528015614941576020820181803683370190505b509050600360fc1b8160008151811061496a57634e487b7160e01b600052603260045260246000fd5b60200101906001600160f81b031916908160001a905350600f60fb1b816001815181106149a757634e487b7160e01b600052603260045260246000fd5b60200101906001600160f81b031916908160001a90535060006149cb846002615c73565b6149d6906001615c47565b90505b6001811115614a6a576f181899199a1a9b1b9c1cb0b131b232b360811b85600f1660108110614a1857634e487b7160e01b600052603260045260246000fd5b1a60f81b828281518110614a3c57634e487b7160e01b600052603260045260246000fd5b60200101906001600160f81b031916908160001a90535060049490941c93614a6381615cd5565b90506149d9565b508315612caf5760405162461bcd60e51b815260206004820181905260248201527f537472696e67733a20686578206c656e67746820696e73756666696369656e7460448201526064016110bb565b6001600160a01b038316614b1457614b0f81600880546000838152600960205260408120829055600182018355919091527ff3f7a9fe364faab93b216da50a3214154f22a0a2b415b23a84c8169e8b636ee30155565b614b37565b816001600160a01b0316836001600160a01b031614614b3757614b378382614dd6565b6001600160a01b038216614b4e576111f181614e73565b826001600160a01b0316826001600160a01b0316146111f1576111f18282614f4c565b6000614b7c82612466565b9050614b8a81600084614520565b614b95600083613711565b6001600160a01b0381166000908152600360205260408120805460019290614bbe908490615c92565b909155505060008281526002602052604080822080546001600160a01b0319169055518391906001600160a01b038416907fddf252ad1be2c89b69c2b068fc378daa952ba7f163c4a11628f55a4df523b3ef908390a45050565b6118b7828260405180602001604052806000815250614f90565b614c3b826136f4565b614c9e5760405162461bcd60e51b815260206004820152602e60248201527f45524337323155524953746f726167653a2055524920736574206f66206e6f6e60448201526d32bc34b9ba32b73a103a37b5b2b760911b60648201526084016110bb565b6000828152600a6020908152604090912082516111f1928401906151a6565b606081614ce15750506040805180820190915260018152600360fc1b602082015290565b8160005b8115614d0b5780614cf581615d21565b9150614d049050600a83615c5f565b9150614ce5565b6000816001600160401b03811115614d3357634e487b7160e01b600052604160045260246000fd5b6040519080825280601f01601f191660200182016040528015614d5d576020820181803683370190505b5090505b841561387757614d72600183615c92565b9150614d7f600a86615d3c565b614d8a906030615c47565b60f81b818381518110614dad57634e487b7160e01b600052603260045260246000fd5b60200101906001600160f81b031916908160001a905350614dcf600a86615c5f565b9450614d61565b60006001614de384612542565b614ded9190615c92565b600083815260076020526040902054909150808214614e40576001600160a01b03841660009081526006602090815260408083208584528252808320548484528184208190558352600790915290208190555b5060009182526007602090815260408084208490556001600160a01b039094168352600681528383209183525290812055565b600854600090614e8590600190615c92565b60008381526009602052604081205460088054939450909284908110614ebb57634e487b7160e01b600052603260045260246000fd5b906000526020600020015490508060088381548110614eea57634e487b7160e01b600052603260045260246000fd5b6000918252602080832090910192909255828152600990915260408082208490558582528120556008805480614f3057634e487b7160e01b600052603160045260246000fd5b6001900381819060005260206000200160009055905550505050565b6000614f5783612542565b6001600160a01b039093166000908152600660209081526040808320868452825280832085905593825260079052919091209190915550565b614f9a8383614fc3565b614fa760008484846146a4565b6111f15760405162461bcd60e51b81526004016110bb90615a39565b6001600160a01b0382166150195760405162461bcd60e51b815260206004820181905260248201527f4552433732313a206d696e7420746f20746865207a65726f206164647265737360448201526064016110bb565b615022816136f4565b1561506f5760405162461bcd60e51b815260206004820152601c60248201527f4552433732313a20746f6b656e20616c7265616479206d696e7465640000000060448201526064016110bb565b61507b60008383614520565b6001600160a01b03821660009081526003602052604081208054600192906150a4908490615c47565b909155505060008181526002602052604080822080546001600160a01b0319166001600160a01b03861690811790915590518392907fddf252ad1be2c89b69c2b068fc378daa952ba7f163c4a11628f55a4df523b3ef908290a45050565b82805482825590600052602060002090810192821561513d579160200282015b8281111561513d578251825591602001919060010190615122565b5061514992915061524f565b5090565b82805482825590600052602060002090810192821561519a579160200282015b8281111561519a578251805161518a9184916020909101906151a6565b509160200191906001019061516d565b50615149929150615264565b8280546151b290615cec565b90600052602060002090601f0160209004810192826151d4576000855561513d565b82601f106151ed57805160ff191683800117855561513d565b8280016001018555821561513d579182018281111561513d578251825591602001919060010190615122565b50805461522590615cec565b6000825580601f10615235575050565b601f016020900490600052602060002090810190611e4391905b5b808211156151495760008155600101615250565b808211156151495760006152788282615219565b50600101615264565b60006001600160401b0383111561529a5761529a615d7c565b6152ad601f8401601f1916602001615bf4565b90508281528383830111156152c157600080fd5b828260208301376000602084830101529392505050565b80356001600160a01b03811681146152ef57600080fd5b919050565b600082601f830112615304578081fd5b8135602061531961531483615c24565b615bf4565b80838252828201915082860187848660051b8901011115615338578586fd5b855b858110156153785781356001600160401b03811115615357578788fd5b6153658a87838c0101615385565b855250928401929084019060010161533a565b5090979650505050505050565b600082601f830112615395578081fd5b612caf83833560208501615281565b6000602082840312156153b5578081fd5b612caf826152d8565b600080604083850312156153d0578081fd5b6153d9836152d8565b91506153e7602084016152d8565b90509250929050565b600080600060608486031215615404578081fd5b61540d846152d8565b925061541b602085016152d8565b9150604084013590509250925092565b600080600080600060808688031215615442578081fd5b61544b866152d8565b9450615459602087016152d8565b93506040860135925060608601356001600160401b038082111561547b578283fd5b818801915088601f83011261548e578283fd5b81358181111561549c578384fd5b8960208285010111156154ad578384fd5b9699959850939650602001949392505050565b600080600080608085870312156154d5578384fd5b6154de856152d8565b93506154ec602086016152d8565b92506040850135915060608501356001600160401b0381111561550d578182fd5b8501601f8101871361551d578182fd5b61552c87823560208401615281565b91505092959194509250565b6000806040838503121561554a578182fd5b615553836152d8565b915060208301356001600160401b0381111561556d578182fd5b615579858286016152f4565b9150509250929050565b60008060408385031215615595578182fd5b61559e836152d8565b915060208301356155ae81615d92565b809150509250929050565b600080604083850312156155cb578182fd5b6155d4836152d8565b915060208301356001600160401b038111156155ee578182fd5b61557985828601615385565b60008060006060848603121561560e578081fd5b615617846152d8565b925060208401356001600160401b03811115615631578182fd5b61563d86828701615385565b925050604084013590509250925092565b60008060408385031215615660578182fd5b615669836152d8565b946020939093013593505050565b60008060006060848603121561568b578081fd5b615694846152d8565b95602085013595506040909401359392505050565b6000806000604084860312156156bd578081fd5b83356001600160401b03808211156156d3578283fd5b818601915086601f8301126156e6578283fd5b8135818111156156f4578384fd5b8760208260051b8501011115615708578384fd5b6020928301955093505084013561571e81615d92565b809150509250925092565b6000806040838503121561573b578182fd5b82356001600160401b0380821115615751578384fd5b61575d868387016152f4565b9350602091508185013581811115615773578384fd5b85019050601f81018613615785578283fd5b803561579361531482615c24565b80828252848201915084840189868560051b87010111156157b2578687fd5b8694505b838510156157d45780358352600194909401939185019185016157b6565b5080955050505050509250929050565b6000602082840312156157f5578081fd5b8151612caf81615d92565b600060208284031215615811578081fd5b5035919050565b6000806040838503121561582a578182fd5b823591506153e7602084016152d8565b60006020828403121561584b578081fd5b8135612caf81615da0565b600060208284031215615867578081fd5b8151612caf81615da0565b600060208284031215615883578081fd5b5051919050565b6000806040838503121561589c578182fd5b8235915060208301356001600160401b038111156155ee578182fd5b600080604083850312156158ca578182fd5b50508035926020909101359150565b6000602082840312156158ea578081fd5b815163ffffffff81168114612caf578182fd5b60008151808452615915816020860160208601615ca9565b601f01601f19169290920160200192915050565b6000825161593b818460208701615ca9565b9190910192915050565b60008351615957818460208801615ca9565b83519083019061596b818360208801615ca9565b01949350505050565b7f416363657373436f6e74726f6c3a206163636f756e74200000000000000000008152600083516159ac816017850160208801615ca9565b7001034b99036b4b9b9b4b733903937b6329607d1b60179184019182015283516159dd816028840160208801615ca9565b01602801949350505050565b6001600160a01b0385811682528416602082015260408101839052608060608201819052600090615a1c908301846158fd565b9695505050505050565b602081526000612caf60208301846158fd565b60208082526032908201527f4552433732313a207472616e7366657220746f206e6f6e20455243373231526560408201527131b2b4bb32b91034b6b83632b6b2b73a32b960711b606082015260800190565b60208082526010908201526f14185d5cd8589b194e881c185d5cd95960821b604082015260600190565b6020808252818101527f4f776e61626c653a2063616c6c6572206973206e6f7420746865206f776e6572604082015260600190565b60208082526021908201527f73686f756c642062757920616c6c20636f6c6c656374696f6e73206265666f726040820152606560f81b606082015260800190565b60208082526021908201527f76616c75652073686f756c642062652067726561746572207468616e207a65726040820152606f60f81b606082015260800190565b6020808252601b908201527f4e6f7420796574206c61756e63682074696d6520726561636865640000000000604082015260600190565b60208082526031908201527f4552433732313a207472616e736665722063616c6c6572206973206e6f74206f6040820152701ddb995c881b9bdc88185c1c1c9bdd9959607a1b606082015260800190565b604051601f8201601f191681016001600160401b0381118282101715615c1c57615c1c615d7c565b604052919050565b60006001600160401b03821115615c3d57615c3d615d7c565b5060051b60200190565b60008219821115615c5a57615c5a615d50565b500190565b600082615c6e57615c6e615d66565b500490565b6000816000190483118215151615615c8d57615c8d615d50565b500290565b600082821015615ca457615ca4615d50565b500390565b60005b83811015615cc4578181015183820152602001615cac565b838111156118375750506000910152565b600081615ce457615ce4615d50565b506000190190565b600181811c90821680615d0057607f821691505b6020821081141561246057634e487b7160e01b600052602260045260246000fd5b6000600019821415615d3557615d35615d50565b5060010190565b600082615d4b57615d4b615d66565b500690565b634e487b7160e01b600052601160045260246000fd5b634e487b7160e01b600052601260045260246000fd5b634e487b7160e01b600052604160045260246000fd5b8015158114611e4357600080fd5b6001600160e01b031981168114611e4357600080fdfe65d7a28e3265b37a6474929f336521b332c1681b933f6cb9f3376673440d862a9f2df0fed2c77648de5860a4cc508cd0818c85b8b8a1ab4ceeef8d981c8956a6a264697066735822122082b831dae8dd0e0270ad58b15e343f17b03bec4f13b8d77b90c60b0b9ee93dd664736f6c634300080400334f776e61626c653a2063616c6c6572206973206e6f7420746865206f776e657265d7a28e3265b37a6474929f336521b332c1681b933f6cb9f3376673440d862a9f2df0fed2c77648de5860a4cc508cd0818c85b8b8a1ab4ceeef8d981c8956a6",
  "linkReferences": {},
  "deployedLinkReferences": {}
}