{
  "_format": "hh-sol-artifact-1",
  "contractName": "Subscription",
  "sourceName": "contracts/Subscription.sol",
  "abi": [
    {
      "inputs": [
        {
          "internalType": "uint256[]",
          "name": "configValues",
          "type": "uint256[]"
        },
        {
          "internalType": "address",
          "name": "_quote",
          "type": "address"
        },
        {
          "internalType": "address",
          "name": "_payment",
          "type": "address"
        },
        {
          "internalType": "address",
          "name": "_treasury",
          "type": "address"
        },
        {
          "internalType": "address",
          "name": "_mysterybox",
          "type": "address"
        },
        {
          "internalType": "address[]",
          "name": "_whitelist",
          "type": "address[]"
        },
        {
          "internalType": "bool[]",
          "name": "_types",
          "type": "bool[]"
        },
        {
          "internalType": "bool",
          "name": "_andor",
          "type": "bool"
        },
        {
          "internalType": "contract IWitnetRandomness",
          "name": "_witnetRandomness",
          "type": "address"
        }
      ],
      "stateMutability": "nonpayable",
      "type": "constructor"
    },
    {
      "anonymous": false,
      "inputs": [
        {
          "indexed": false,
          "internalType": "address",
          "name": "",
          "type": "address"
        },
        {
          "indexed": false,
          "internalType": "uint256",
          "name": "",
          "type": "uint256"
        },
        {
          "indexed": false,
          "internalType": "uint256",
          "name": "",
          "type": "uint256"
        },
        {
          "indexed": false,
          "internalType": "uint256",
          "name": "",
          "type": "uint256"
        }
      ],
      "name": "Claim",
      "type": "event"
    },
    {
      "anonymous": false,
      "inputs": [
        {
          "indexed": true,
          "internalType": "address",
          "name": "previousOwner",
          "type": "address"
        },
        {
          "indexed": true,
          "internalType": "address",
          "name": "newOwner",
          "type": "address"
        }
      ],
      "name": "OwnershipTransferred",
      "type": "event"
    },
    {
      "anonymous": false,
      "inputs": [
        {
          "indexed": false,
          "internalType": "address",
          "name": "account",
          "type": "address"
        }
      ],
      "name": "Paused",
      "type": "event"
    },
    {
      "anonymous": false,
      "inputs": [
        {
          "indexed": false,
          "internalType": "address",
          "name": "",
          "type": "address"
        },
        {
          "indexed": false,
          "internalType": "uint256",
          "name": "",
          "type": "uint256"
        },
        {
          "indexed": false,
          "internalType": "uint256",
          "name": "",
          "type": "uint256"
        }
      ],
      "name": "Refund",
      "type": "event"
    },
    {
      "anonymous": false,
      "inputs": [
        {
          "indexed": false,
          "internalType": "address",
          "name": "",
          "type": "address"
        },
        {
          "indexed": false,
          "internalType": "uint256",
          "name": "",
          "type": "uint256"
        }
      ],
      "name": "RefundNFT",
      "type": "event"
    },
    {
      "anonymous": false,
      "inputs": [
        {
          "components": [
            {
              "internalType": "address",
              "name": "quote",
              "type": "address"
            },
            {
              "internalType": "uint256",
              "name": "rate",
              "type": "uint256"
            },
            {
              "internalType": "uint256",
              "name": "total",
              "type": "uint256"
            },
            {
              "internalType": "uint256",
              "name": "ratePrice",
              "type": "uint256"
            },
            {
              "internalType": "uint256",
              "name": "evenPrice",
              "type": "uint256"
            },
            {
              "internalType": "uint256",
              "name": "launch",
              "type": "uint256"
            },
            {
              "internalType": "uint256",
              "name": "startClaim",
              "type": "uint256"
            },
            {
              "internalType": "address",
              "name": "payment",
              "type": "address"
            },
            {
              "internalType": "address",
              "name": "treasury",
              "type": "address"
            },
            {
              "internalType": "uint256",
              "name": "shareRate",
              "type": "uint256"
            },
            {
              "internalType": "uint256",
              "name": "mboxRate",
              "type": "uint256"
            },
            {
              "internalType": "address",
              "name": "mysterybox",
              "type": "address"
            }
          ],
          "indexed": false,
          "internalType": "struct Subscription.Config",
          "name": "",
          "type": "tuple"
        }
      ],
      "name": "SetConfig",
      "type": "event"
    },
    {
      "anonymous": false,
      "inputs": [
        {
          "indexed": false,
          "internalType": "address[]",
          "name": "",
          "type": "address[]"
        },
        {
          "indexed": false,
          "internalType": "bool[]",
          "name": "",
          "type": "bool[]"
        },
        {
          "indexed": false,
          "internalType": "bool",
          "name": "",
          "type": "bool"
        }
      ],
      "name": "SetWhiteList",
      "type": "event"
    },
    {
      "anonymous": false,
      "inputs": [
        {
          "indexed": false,
          "internalType": "address",
          "name": "",
          "type": "address"
        },
        {
          "indexed": false,
          "internalType": "address",
          "name": "",
          "type": "address"
        },
        {
          "indexed": false,
          "internalType": "uint256",
          "name": "",
          "type": "uint256"
        }
      ],
      "name": "Staking",
      "type": "event"
    },
    {
      "anonymous": false,
      "inputs": [
        {
          "indexed": false,
          "internalType": "address",
          "name": "",
          "type": "address"
        },
        {
          "indexed": false,
          "internalType": "uint256",
          "name": "",
          "type": "uint256"
        }
      ],
      "name": "UnStaking",
      "type": "event"
    },
    {
      "anonymous": false,
      "inputs": [
        {
          "indexed": false,
          "internalType": "address",
          "name": "account",
          "type": "address"
        }
      ],
      "name": "Unpaused",
      "type": "event"
    },
    {
      "inputs": [],
      "name": "allocStatus",
      "outputs": [
        {
          "internalType": "bool",
          "name": "",
          "type": "bool"
        }
      ],
      "stateMutability": "view",
      "type": "function"
    },
    {
      "inputs": [],
      "name": "andor",
      "outputs": [
        {
          "internalType": "bool",
          "name": "",
          "type": "bool"
        }
      ],
      "stateMutability": "view",
      "type": "function"
    },
    {
      "inputs": [
        {
          "internalType": "uint256",
          "name": "",
          "type": "uint256"
        }
      ],
      "name": "booking",
      "outputs": [
        {
          "internalType": "address",
          "name": "user",
          "type": "address"
        },
        {
          "internalType": "uint256",
          "name": "staking",
          "type": "uint256"
        },
        {
          "internalType": "uint256",
          "name": "balance",
          "type": "uint256"
        },
        {
          "internalType": "uint256",
          "name": "rateMaxAlloc",
          "type": "uint256"
        },
        {
          "internalType": "uint256",
          "name": "evenMaxAlloc",
          "type": "uint256"
        },
        {
          "internalType": "uint256",
          "name": "rateAlloc",
          "type": "uint256"
        },
        {
          "internalType": "uint256",
          "name": "evenAlloc",
          "type": "uint256"
        },
        {
          "internalType": "uint256",
          "name": "totalAlloc",
          "type": "uint256"
        },
        {
          "internalType": "bool",
          "name": "status",
          "type": "bool"
        },
        {
          "internalType": "bool",
          "name": "claimed",
          "type": "bool"
        }
      ],
      "stateMutability": "view",
      "type": "function"
    },
    {
      "inputs": [],
      "name": "claim",
      "outputs": [],
      "stateMutability": "nonpayable",
      "type": "function"
    },
    {
      "inputs": [],
      "name": "config",
      "outputs": [
        {
          "internalType": "address",
          "name": "quote",
          "type": "address"
        },
        {
          "internalType": "uint256",
          "name": "rate",
          "type": "uint256"
        },
        {
          "internalType": "uint256",
          "name": "total",
          "type": "uint256"
        },
        {
          "internalType": "uint256",
          "name": "ratePrice",
          "type": "uint256"
        },
        {
          "internalType": "uint256",
          "name": "evenPrice",
          "type": "uint256"
        },
        {
          "internalType": "uint256",
          "name": "launch",
          "type": "uint256"
        },
        {
          "internalType": "uint256",
          "name": "startClaim",
          "type": "uint256"
        },
        {
          "internalType": "address",
          "name": "payment",
          "type": "address"
        },
        {
          "internalType": "address",
          "name": "treasury",
          "type": "address"
        },
        {
          "internalType": "uint256",
          "name": "shareRate",
          "type": "uint256"
        },
        {
          "internalType": "uint256",
          "name": "mboxRate",
          "type": "uint256"
        },
        {
          "internalType": "address",
          "name": "mysterybox",
          "type": "address"
        }
      ],
      "stateMutability": "view",
      "type": "function"
    },
    {
      "inputs": [
        {
          "internalType": "address",
          "name": "",
          "type": "address"
        }
      ],
      "name": "depositIndex",
      "outputs": [
        {
          "internalType": "uint256",
          "name": "",
          "type": "uint256"
        }
      ],
      "stateMutability": "view",
      "type": "function"
    },
    {
      "inputs": [
        {
          "internalType": "address",
          "name": "",
          "type": "address"
        }
      ],
      "name": "depositList",
      "outputs": [
        {
          "internalType": "uint256",
          "name": "",
          "type": "uint256"
        }
      ],
      "stateMutability": "view",
      "type": "function"
    },
    {
      "inputs": [
        {
          "internalType": "uint256",
          "name": "gasPrice",
          "type": "uint256"
        }
      ],
      "name": "estimateRandomizeFee",
      "outputs": [
        {
          "internalType": "uint256",
          "name": "",
          "type": "uint256"
        }
      ],
      "stateMutability": "view",
      "type": "function"
    },
    {
      "inputs": [],
      "name": "evenAmount",
      "outputs": [
        {
          "internalType": "uint256",
          "name": "",
          "type": "uint256"
        }
      ],
      "stateMutability": "view",
      "type": "function"
    },
    {
      "inputs": [],
      "name": "getAllocated",
      "outputs": [
        {
          "internalType": "bool",
          "name": "",
          "type": "bool"
        }
      ],
      "stateMutability": "view",
      "type": "function"
    },
    {
      "inputs": [],
      "name": "getBooking",
      "outputs": [
        {
          "components": [
            {
              "internalType": "address",
              "name": "user",
              "type": "address"
            },
            {
              "internalType": "uint256",
              "name": "staking",
              "type": "uint256"
            },
            {
              "internalType": "uint256",
              "name": "balance",
              "type": "uint256"
            },
            {
              "internalType": "uint256",
              "name": "rateMaxAlloc",
              "type": "uint256"
            },
            {
              "internalType": "uint256",
              "name": "evenMaxAlloc",
              "type": "uint256"
            },
            {
              "internalType": "uint256",
              "name": "rateAlloc",
              "type": "uint256"
            },
            {
              "internalType": "uint256",
              "name": "evenAlloc",
              "type": "uint256"
            },
            {
              "internalType": "uint256",
              "name": "totalAlloc",
              "type": "uint256"
            },
            {
              "internalType": "bool",
              "name": "status",
              "type": "bool"
            },
            {
              "internalType": "bool",
              "name": "claimed",
              "type": "bool"
            }
          ],
          "internalType": "struct Subscription.Book[]",
          "name": "",
          "type": "tuple[]"
        }
      ],
      "stateMutability": "view",
      "type": "function"
    },
    {
      "inputs": [],
      "name": "getClaimed",
      "outputs": [
        {
          "internalType": "bool",
          "name": "",
          "type": "bool"
        }
      ],
      "stateMutability": "view",
      "type": "function"
    },
    {
      "inputs": [],
      "name": "getLeastFund",
      "outputs": [
        {
          "internalType": "uint256",
          "name": "",
          "type": "uint256"
        }
      ],
      "stateMutability": "view",
      "type": "function"
    },
    {
      "inputs": [],
      "name": "getMyFund",
      "outputs": [
        {
          "internalType": "uint256",
          "name": "",
          "type": "uint256"
        }
      ],
      "stateMutability": "view",
      "type": "function"
    },
    {
      "inputs": [],
      "name": "getMyWin",
      "outputs": [
        {
          "internalType": "uint256",
          "name": "",
          "type": "uint256"
        }
      ],
      "stateMutability": "view",
      "type": "function"
    },
    {
      "inputs": [],
      "name": "getParticipants",
      "outputs": [
        {
          "internalType": "uint256",
          "name": "",
          "type": "uint256"
        }
      ],
      "stateMutability": "view",
      "type": "function"
    },
    {
      "inputs": [],
      "name": "latestRandomizingBlock",
      "outputs": [
        {
          "internalType": "uint256",
          "name": "",
          "type": "uint256"
        }
      ],
      "stateMutability": "view",
      "type": "function"
    },
    {
      "inputs": [
        {
          "internalType": "address",
          "name": "operator",
          "type": "address"
        },
        {
          "internalType": "address",
          "name": "from",
          "type": "address"
        },
        {
          "internalType": "uint256",
          "name": "tokenId",
          "type": "uint256"
        },
        {
          "internalType": "bytes",
          "name": "data",
          "type": "bytes"
        }
      ],
      "name": "onERC721Received",
      "outputs": [
        {
          "internalType": "bytes4",
          "name": "",
          "type": "bytes4"
        }
      ],
      "stateMutability": "pure",
      "type": "function"
    },
    {
      "inputs": [],
      "name": "owner",
      "outputs": [
        {
          "internalType": "address",
          "name": "",
          "type": "address"
        }
      ],
      "stateMutability": "view",
      "type": "function"
    },
    {
      "inputs": [],
      "name": "paused",
      "outputs": [
        {
          "internalType": "bool",
          "name": "",
          "type": "bool"
        }
      ],
      "stateMutability": "view",
      "type": "function"
    },
    {
      "inputs": [],
      "name": "randomness",
      "outputs": [
        {
          "internalType": "uint32",
          "name": "",
          "type": "uint32"
        }
      ],
      "stateMutability": "view",
      "type": "function"
    },
    {
      "inputs": [],
      "name": "rateAmount",
      "outputs": [
        {
          "internalType": "uint256",
          "name": "",
          "type": "uint256"
        }
      ],
      "stateMutability": "view",
      "type": "function"
    },
    {
      "inputs": [],
      "name": "renounceOwnership",
      "outputs": [],
      "stateMutability": "nonpayable",
      "type": "function"
    },
    {
      "inputs": [],
      "name": "requestRandomNumber",
      "outputs": [],
      "stateMutability": "payable",
      "type": "function"
    },
    {
      "inputs": [
        {
          "internalType": "address[]",
          "name": "_whitelist",
          "type": "address[]"
        },
        {
          "internalType": "bool[]",
          "name": "_types",
          "type": "bool[]"
        },
        {
          "internalType": "bool",
          "name": "_andor",
          "type": "bool"
        }
      ],
      "name": "setWhiteList",
      "outputs": [],
      "stateMutability": "nonpayable",
      "type": "function"
    },
    {
      "inputs": [],
      "name": "stakingEth",
      "outputs": [],
      "stateMutability": "payable",
      "type": "function"
    },
    {
      "inputs": [
        {
          "internalType": "uint256",
          "name": "_payment",
          "type": "uint256"
        }
      ],
      "name": "stakingQuote",
      "outputs": [],
      "stateMutability": "nonpayable",
      "type": "function"
    },
    {
      "inputs": [],
      "name": "totStakers",
      "outputs": [
        {
          "internalType": "uint256",
          "name": "",
          "type": "uint256"
        }
      ],
      "stateMutability": "view",
      "type": "function"
    },
    {
      "inputs": [],
      "name": "totalFund",
      "outputs": [
        {
          "internalType": "uint256",
          "name": "",
          "type": "uint256"
        }
      ],
      "stateMutability": "view",
      "type": "function"
    },
    {
      "inputs": [
        {
          "internalType": "address",
          "name": "newOwner",
          "type": "address"
        }
      ],
      "name": "transferOwnership",
      "outputs": [],
      "stateMutability": "nonpayable",
      "type": "function"
    },
    {
      "inputs": [
        {
          "internalType": "uint256",
          "name": "_amount",
          "type": "uint256"
        }
      ],
      "name": "unStaking",
      "outputs": [],
      "stateMutability": "nonpayable",
      "type": "function"
    },
    {
      "inputs": [
        {
          "internalType": "uint256",
          "name": "",
          "type": "uint256"
        }
      ],
      "name": "whitelist",
      "outputs": [
        {
          "internalType": "address",
          "name": "",
          "type": "address"
        }
      ],
      "stateMutability": "view",
      "type": "function"
    },
    {
      "inputs": [],
      "name": "witnet",
      "outputs": [
        {
          "internalType": "contract IWitnetRandomness",
          "name": "",
          "type": "address"
        }
      ],
      "stateMutability": "view",
      "type": "function"
    },
    {
      "stateMutability": "payable",
      "type": "receive"
    }
  ],
  "bytecode": "0x60a06040526014805460ff199081169091556000601681905560178054909216909155601b819055601d819055601f553480156200003c57600080fd5b5060405162004855380380620048558339810160408190526200005f9162000a58565b6200006a3362000344565b6000805460ff60a01b19169055600180556200008a898989898962000394565b62000097848484620006ae565b6001600160a01b038116620000bc57634e487b7160e01b600052600160045260246000fd5b606081901b6001600160601b0319166080526003546004546200010791606491620000f391620008a8602090811b6200294017901c565b620008bd60201b6200294c1790919060201c565b600f8190556004546200012691620008cb602090811b6200295817901c565b601055604080516101408101825230815260006020808301828152938301828152606084018381526080850184815260a0860185815260c0870186815260e088018781526001610100808b018281526101208c018b8152601c80549485018155909b529a517f0e4562a10381dec21b205ed72637e6b1b523bdd0e4d4d50af5cd23dd4500a211600990930292830180546001600160a01b0319166001600160a01b039092169190911790559a517f0e4562a10381dec21b205ed72637e6b1b523bdd0e4d4d50af5cd23dd4500a21282015595517f0e4562a10381dec21b205ed72637e6b1b523bdd0e4d4d50af5cd23dd4500a21387015593517f0e4562a10381dec21b205ed72637e6b1b523bdd0e4d4d50af5cd23dd4500a21486015591517f0e4562a10381dec21b205ed72637e6b1b523bdd0e4d4d50af5cd23dd4500a215850155517f0e4562a10381dec21b205ed72637e6b1b523bdd0e4d4d50af5cd23dd4500a216840155517f0e4562a10381dec21b205ed72637e6b1b523bdd0e4d4d50af5cd23dd4500a217830155517f0e4562a10381dec21b205ed72637e6b1b523bdd0e4d4d50af5cd23dd4500a21882015592517f0e4562a10381dec21b205ed72637e6b1b523bdd0e4d4d50af5cd23dd4500a2199093018054925161ffff1990931693151561ff001916939093179115159093021790556200033590601990620008d9811b6200296417901c565b50505050505050505062000d0d565b600080546001600160a01b038381166001600160a01b0319831681178455604051919092169283917f8be0079c531659141344cd1fd0a4f28419497f9722a3daafe3b4186f6b6457e09190a35050565b6000546001600160a01b03163314620003e35760405162461bcd60e51b815260206004820181905260248201526000805160206200483583398151915260448201526064015b60405180910390fd5b8451600814620004365760405162461bcd60e51b815260206004820152601560248201527f6d697373696e6720636f6e6669672076616c75657300000000000000000000006044820152606401620003da565b846000815181106200045857634e487b7160e01b600052603260045260246000fd5b6020026020010151600260030181905550846001815181106200048b57634e487b7160e01b600052603260045260246000fd5b602002602001015160026004018190555084600281518110620004be57634e487b7160e01b600052603260045260246000fd5b6020026020010151600280018190555084600381518110620004f057634e487b7160e01b600052603260045260246000fd5b6020026020010151600260010181905550846004815181106200052357634e487b7160e01b600052603260045260246000fd5b6020026020010151600260090181905550846005815181106200055657634e487b7160e01b600052603260045260246000fd5b60200260200101516002600a0181905550846006815181106200058957634e487b7160e01b600052603260045260246000fd5b602002602001015160026005018190555084600781518110620005bc57634e487b7160e01b600052603260045260246000fd5b6020908102919091018101516008819055600280546001600160a01b03199081166001600160a01b03898116918217909355600980548316898516908117909155600a80548416898616908117909155600d80549094169488169485179093556040805192835260035496830196909652600454828701526005546060830152600654608083015260075460a083015260c082019490945260e0810193909352610100830152600b54610120830152600c5461014083015261016082015290517f705fb2842298af8c02a234d407a46ce27d8383ea7d0b6e31ad55d3ff50862968918190036101800190a15050505050565b6000546001600160a01b03163314620006f95760405162461bcd60e51b81526020600482018190526024820152600080516020620048358339815191526044820152606401620003da565b81518351146200074c5760405162461bcd60e51b815260206004820152601460248201527f496e76616c6964206172726179206c656e6774680000000000000000000000006044820152606401620003da565b60005b82518110156200084e5760118482815181106200077c57634e487b7160e01b600052603260045260246000fd5b60209081029190910181015182546001810184556000938452919092200180546001600160a01b0319166001600160a01b039092169190911790558251839082908110620007da57634e487b7160e01b600052603260045260246000fd5b6020026020010151601260008684815181106200080757634e487b7160e01b600052603260045260246000fd5b6020908102919091018101516001600160a01b03168252810191909152604001600020805460ff191691151591909117905580620008458162000caa565b9150506200074f565b506014805460ff19168215159081179091556040517f26b45c07c464ec1336ab82304250ed426a4b8690ff7d1ec212e8bcad5cf563d1916200089b91601191869160ff9091169062000b56565b60405180910390a1505050565b6000620008b6828462000c6e565b9392505050565b6000620008b6828462000c4d565b6000620008b6828462000c90565b80546001019055565b8051620008ef8162000cf4565b919050565b600082601f83011262000905578081fd5b815160206200091e620009188362000c27565b62000bf4565b80838252828201915082860187848660051b89010111156200093e578586fd5b855b8581101562000969578151620009568162000cf4565b8452928401929084019060010162000940565b5090979650505050505050565b600082601f83011262000987578081fd5b815160206200099a620009188362000c27565b80838252828201915082860187848660051b8901011115620009ba578586fd5b855b858110156200096957620009d08262000a47565b84529284019290840190600101620009bc565b600082601f830112620009f4578081fd5b8151602062000a07620009188362000c27565b80838252828201915082860187848660051b890101111562000a27578586fd5b855b85811015620009695781518452928401929084019060010162000a29565b80518015158114620008ef57600080fd5b60008060008060008060008060006101208a8c03121562000a77578485fd5b89516001600160401b038082111562000a8e578687fd5b62000a9c8d838e01620009e3565b9a5062000aac60208d01620008e2565b995062000abc60408d01620008e2565b985062000acc60608d01620008e2565b975062000adc60808d01620008e2565b965060a08c015191508082111562000af2578586fd5b62000b008d838e01620008f4565b955060c08c015191508082111562000b16578485fd5b5062000b258c828d0162000976565b93505062000b3660e08b0162000a47565b915062000b476101008b01620008e2565b90509295985092959850929598565b6000606082016060835280865480835260808501915087845260209250828420845b8281101562000b9f5781546001600160a01b03168452928401926001918201910162000b78565b50505083810382850152855180825286830191830190845b8181101562000bd757835115158352928401929184019160010162000bb7565b50508515156040860152925062000bec915050565b949350505050565b604051601f8201601f191681016001600160401b038111828210171562000c1f5762000c1f62000cde565b604052919050565b60006001600160401b0382111562000c435762000c4362000cde565b5060051b60200190565b60008262000c6957634e487b7160e01b81526012600452602481fd5b500490565b600081600019048311821515161562000c8b5762000c8b62000cc8565b500290565b60008282101562000ca55762000ca562000cc8565b500390565b600060001982141562000cc15762000cc162000cc8565b5060010190565b634e487b7160e01b600052601160045260246000fd5b634e487b7160e01b600052604160045260246000fd5b6001600160a01b038116811462000d0a57600080fd5b50565b60805160601c613afb62000d3a6000396000818161039201528181611b39015261220b0152613afb6000f3fe6080604052600436106101f25760003560e01c806379502c551161010d5780639f24a41e116100a0578063b1fa41761161006f578063b1fa417614610693578063c1595812146106a9578063f2fde38b146106bf578063f508323f146106df578063f7828605146106f957600080fd5b80639f24a41e1461062e578063a393635514610644578063a60ee2681461065e578063ae3bb4601461067e57600080fd5b806386f43a41116100dc57806386f43a41146105ab5780638da5cb5b146105cb5780639ac7c222146105e95780639df177e31461061657600080fd5b806379502c55146104af5780637b86b03b1461056e5780637ebd1b30146105835780638678a7b2146105a357600080fd5b80634e71d92d116101855780635c975abb116101545780635c975abb146104385780635e9c72fc14610463578063613723e714610485578063715018a61461049a57600080fd5b80634e71d92d146103cc5780634e75f40b146103e357806357d71e8e146104035780635aa68ac01461042357600080fd5b8063358dc19c116101c1578063358dc19c146102a4578063360131891461031c5780634546ff921461035357806346d1d21a1461038057600080fd5b806304b01ba8146101fe578063100aca4714610227578063150b7a021461023d57806334dc725c1461028257600080fd5b366101f957005b600080fd5b34801561020a57600080fd5b5061021460105481565b6040519081526020015b60405180910390f35b34801561023357600080fd5b50610214600e5481565b34801561024957600080fd5b5061026961025836600461359c565b630a85bd0160e11b95945050505050565b6040516001600160e01b0319909116815260200161021e565b34801561028e57600080fd5b50610297610701565b60405161021e9190613845565b3480156102b057600080fd5b506102c46102bf36600461371f565b6107d6565b604080516001600160a01b03909b168b5260208b0199909952978901969096526060880194909452608087019290925260a086015260c085015260e0840152151561010083015215156101208201526101400161021e565b34801561032857600080fd5b5060145461033e90610100900463ffffffff1681565b60405163ffffffff909116815260200161021e565b34801561035f57600080fd5b5061021461036e366004613582565b60186020526000908152604090205481565b34801561038c57600080fd5b506103b47f000000000000000000000000000000000000000000000000000000000000000081565b6040516001600160a01b03909116815260200161021e565b3480156103d857600080fd5b506103e1610847565b005b3480156103ef57600080fd5b506103e16103fe366004613632565b61121c565b34801561040f57600080fd5b506103e161041e36600461371f565b6113e1565b34801561042f57600080fd5b50601b54610214565b34801561044457600080fd5b50600054600160a01b900460ff165b604051901515815260200161021e565b34801561046f57600080fd5b5033600090815260186020526040902054610214565b34801561049157600080fd5b50610214611a24565b3480156104a657600080fd5b506103e1611a72565b3480156104bb57600080fd5b50600254600354600454600554600654600754600854600954600a54600b54600c54600d546105029b6001600160a01b039081169b9a99989796958116948116939291168c565b604080516001600160a01b039d8e168152602081019c909c528b019990995260608a0197909752608089019590955260a088019390935260c0870191909152861660e086015285166101008501526101208401526101408301529091166101608201526101800161021e565b34801561057a57600080fd5b50610214611aa8565b34801561058f57600080fd5b506103b461059e36600461371f565b611b04565b6103e1611b2e565b3480156105b757600080fd5b506103e16105c636600461371f565b611c10565b3480156105d757600080fd5b506000546001600160a01b03166103b4565b3480156105f557600080fd5b50610214610604366004613582565b601a6020526000908152604090205481565b34801561062257600080fd5b5060175460ff16610453565b34801561063a57600080fd5b50610214600f5481565b34801561065057600080fd5b506014546104539060ff1681565b34801561066a57600080fd5b5061021461067936600461371f565b6121e8565b34801561068a57600080fd5b50610453612285565b34801561069f57600080fd5b5061021460155481565b3480156106b557600080fd5b50610214601b5481565b3480156106cb57600080fd5b506103e16106da366004613582565b6122dc565b3480156106eb57600080fd5b506017546104539060ff1681565b6103e1612374565b6060601c805480602002602001604051908101604052809291908181526020016000905b828210156107cd57600084815260209081902060408051610140810182526009860290920180546001600160a01b03168352600180820154848601526002820154928401929092526003810154606084015260048101546080840152600581015460a0840152600681015460c0840152600781015460e08401526008015460ff8082161515610100808601919091529091041615156101208301529083529092019101610725565b50505050905090565b601c81815481106107e657600080fd5b60009182526020909120600990910201805460018201546002830154600384015460048501546005860154600687015460078801546008909801546001600160a01b0390971698509496939592949193909260ff808216916101009004168a565b600260015414156108735760405162461bcd60e51b815260040161086a9061395f565b60405180910390fd5b6002600155336000908152601860205260409020546108d45760405162461bcd60e51b815260206004820152601b60248201527f4f6e6c79207374616b65642075736572732063616e20636c61696d0000000000604482015260640161086a565b6008544210156109265760405162461bcd60e51b815260206004820152601d60248201527f436c61696d2074696d65206973206e6f74207965742072656163686564000000604482015260640161086a565b336000908152601a6020526040902054601c80548290811061095857634e487b7160e01b600052603260045260246000fd5b6000918252602090912060099091020160080154610100900460ff16156109b35760405162461bcd60e51b815260206004820152600f60248201526e185b1c9958591e4818db185a5b5959608a1b604482015260640161086a565b600080610a09600e54610a03601c86815481106109e057634e487b7160e01b600052603260045260246000fd5b906000526020600020906009020160010154600f5461294090919063ffffffff16565b9061294c565b9050601c8381548110610a2c57634e487b7160e01b600052603260045260246000fd5b9060005260206000209060090201600301548110610ab257601c8381548110610a6557634e487b7160e01b600052603260045260246000fd5b906000526020600020906009020160030154601c8481548110610a9857634e487b7160e01b600052603260045260246000fd5b906000526020600020906009020160050181905550610b30565b600081118015610af35750601c8381548110610ade57634e487b7160e01b600052603260045260246000fd5b90600052602060002090600902016003015481105b15610b305780601c8481548110610b1a57634e487b7160e01b600052603260045260246000fd5b9060005260206000209060090201600501819055505b610ba7601c8481548110610b5457634e487b7160e01b600052603260045260246000fd5b906000526020600020906009020160050154601c8581548110610b8757634e487b7160e01b600052603260045260246000fd5b90600052602060002090600902016007015461296d90919063ffffffff16565b601c8481548110610bc857634e487b7160e01b600052603260045260246000fd5b906000526020600020906009020160070181905550610c27600260030154601c8581548110610c0757634e487b7160e01b600052603260045260246000fd5b90600052602060002090600902016005015461294090919063ffffffff16565b9150610c6e82601c8581548110610c4e57634e487b7160e01b600052603260045260246000fd5b90600052602060002090600902016002015461295890919063ffffffff16565b601c8481548110610c8f57634e487b7160e01b600052603260045260246000fd5b9060005260206000209060090201600201819055506001601c8481548110610cc757634e487b7160e01b600052603260045260246000fd5b906000526020600020906009020160080160006101000a81548160ff0219169083151502179055506000610d68601c8581548110610d1557634e487b7160e01b600052603260045260246000fd5b906000526020600020906009020160020154601c8681548110610d4857634e487b7160e01b600052603260045260246000fd5b90600052602060002090600902016001015461295890919063ffffffff16565b600c54600b54919250600091610d7d9161296d565b90506000610d916103e8610a038585612940565b90506000610d9f8483612958565b60115490915015610db557610db5336001612979565b6000601c8881548110610dd857634e487b7160e01b600052603260045260246000fd5b9060005260206000209060090201600201541115610e7157610e6c601c8881548110610e1457634e487b7160e01b600052603260045260246000fd5b6000918252602090912060099091020154601c80546001600160a01b03909216918a908110610e5357634e487b7160e01b600052603260045260246000fd5b9060005260206000209060090201600201546000612c67565b610ef1565b7f73f04af9dcc582a923ec15d3eea990fe34adabfff2879e28d44572e01a54abb6601c8881548110610eb357634e487b7160e01b600052603260045260246000fd5b6000918252602080832060099290920290910154604080516001600160a01b0390921682529181018390529081019190915260600160405180910390a15b6000821180610f005750600081115b15611059576002546001600160a01b03161561102d57600254600a5460405163a9059cbb60e01b81526001600160a01b0391821660048201526024810185905291169063a9059cbb90604401602060405180830381600087803b158015610f6657600080fd5b505af1158015610f7a573d6000803e3d6000fd5b505050506040513d601f19601f82011682018060405250810190610f9e9190613703565b5060025460095460405163a9059cbb60e01b81526001600160a01b0391821660048201526024810184905291169063a9059cbb90604401602060405180830381600087803b158015610fef57600080fd5b505af1158015611003573d6000803e3d6000fd5b505050506040513d601f19601f820116820180604052508101906110279190613703565b50611059565b600a54611043906001600160a01b031683612e8e565b600954611059906001600160a01b031682612e8e565b6000601c888154811061107c57634e487b7160e01b600052603260045260246000fd5b906000526020600020906009020160070154111561114057600d54601c80546001600160a01b039092169163fcd1ee109133918b9081106110cd57634e487b7160e01b600052603260045260246000fd5b60009182526020909120600760099092020101546040516001600160e01b031960e085901b1681526001600160a01b0390921660048301526024820152604401600060405180830381600087803b15801561112757600080fd5b505af115801561113b573d6000803e3d6000fd5b505050505b6001601c888154811061116357634e487b7160e01b600052603260045260246000fd5b906000526020600020906009020160080160016101000a81548160ff0219169083151502179055507f45c072aa05b9853b5a993de7a28bc332ee01404a628cec1a23ce0f659f842ef133601c89815481106111ce57634e487b7160e01b600052603260045260246000fd5b600091825260209182902060076009909202010154604080516001600160a01b0390941684529183015281018490526060810183905260800160405180910390a15050600180555050505050565b6000546001600160a01b031633146112465760405162461bcd60e51b815260040161086a9061392a565b815183511461128e5760405162461bcd60e51b8152602060048201526014602482015273092dcecc2d8d2c840c2e4e4c2f240d8cadccee8d60631b604482015260640161086a565b60005b82518110156113895760118482815181106112bc57634e487b7160e01b600052603260045260246000fd5b60209081029190910181015182546001810184556000938452919092200180546001600160a01b0319166001600160a01b03909216919091179055825183908290811061131957634e487b7160e01b600052603260045260246000fd5b60200260200101516012600086848151811061134557634e487b7160e01b600052603260045260246000fd5b6020908102919091018101516001600160a01b03168252810191909152604001600020805460ff19169115159190911790558061138181613a70565b915050611291565b506014805460ff19168215159081179091556040517f26b45c07c464ec1336ab82304250ed426a4b8690ff7d1ec212e8bcad5cf563d1916113d491601191869160ff909116906137ac565b60405180910390a1505050565b600a546001600160a01b03161580159061140557506009546001600160a01b031615155b6114515760405162461bcd60e51b815260206004820152601f60248201527f4e6f7420796574206d79737465727920626f7820696e697469616c697a656400604482015260640161086a565b60175460ff16156114745760405162461bcd60e51b815260040161086a906138f5565b600260015414156114975760405162461bcd60e51b815260040161086a9061395f565b60026001819055546001600160a01b03166114e85760405162461bcd60e51b81526020600482015260116024820152702bb937b7339038bab7ba32903a37b5b2b760791b604482015260640161086a565b6007544210156115345760405162461bcd60e51b815260206004820152601760248201527614dd185c9ada5b99c81a5cc81b9bdd081cdd185c9d1959604a1b604482015260640161086a565b336000908152601860205260409020546115a7576005546006546115589190612f6d565b8110156115a75760405162461bcd60e51b815260206004820152601a60248201527f556e646572206c65617374207374616b696e6720616d6f756e74000000000000604482015260640161086a565b336000908152601860205260409020546115c1908261296d565b33600090815260186020908152604080832093909355601a90522054801561175e5761162882601c838154811061160857634e487b7160e01b600052603260045260246000fd5b90600052602060002090600902016001015461296d90919063ffffffff16565b601c828154811061164957634e487b7160e01b600052603260045260246000fd5b9060005260206000209060090201600101819055506116a382601c838154811061168357634e487b7160e01b600052603260045260246000fd5b90600052602060002090600902016002015461296d90919063ffffffff16565b601c82815481106116c457634e487b7160e01b600052603260045260246000fd5b906000526020600020906009020160020181905550611723600260030154601c838154811061170357634e487b7160e01b600052603260045260246000fd5b90600052602060002090600902016001015461294c90919063ffffffff16565b601c828154811061174457634e487b7160e01b600052603260045260246000fd5b906000526020600020906009020160030181905550611998565b601954336000908152601a602052604081209190915560055461178290849061294c565b6040805161014081018252338152602081018681529181018681526060820184815260006080840181815260a0850182815260c0860183815260e087018481526101008089018681526101208a01878152601c805460018082018355919099529a517f0e4562a10381dec21b205ed72637e6b1b523bdd0e4d4d50af5cd23dd4500a211600990990298890180546001600160a01b0319166001600160a01b039092169190911790559a517f0e4562a10381dec21b205ed72637e6b1b523bdd0e4d4d50af5cd23dd4500a21288015597517f0e4562a10381dec21b205ed72637e6b1b523bdd0e4d4d50af5cd23dd4500a21387015595517f0e4562a10381dec21b205ed72637e6b1b523bdd0e4d4d50af5cd23dd4500a21486015592517f0e4562a10381dec21b205ed72637e6b1b523bdd0e4d4d50af5cd23dd4500a21585015590517f0e4562a10381dec21b205ed72637e6b1b523bdd0e4d4d50af5cd23dd4500a216840155517f0e4562a10381dec21b205ed72637e6b1b523bdd0e4d4d50af5cd23dd4500a217830155517f0e4562a10381dec21b205ed72637e6b1b523bdd0e4d4d50af5cd23dd4500a21882015591517f0e4562a10381dec21b205ed72637e6b1b523bdd0e4d4d50af5cd23dd4500a2199092018054945161ffff1990951692151561ff0019169290921793151502929092179091556019805490910190559050601154156119965761199633612f84565b505b6002546119b0906001600160a01b0316333085613359565b600e546119bd908361296d565b600e55601b80549060006119d083613a70565b90915550506002546040517f795c91e2fef542f2e8bccd08552a8961ecb158d0f47be08f5c44b349993b07a991611a149133916001600160a01b0316908690613788565b60405180910390a1505060018055565b336000908152601a6020526040812054601c80548392908110611a5757634e487b7160e01b600052603260045260246000fd5b90600052602060002090600902016007015490508091505090565b6000546001600160a01b03163314611a9c5760405162461bcd60e51b815260040161086a9061392a565b611aa66000613493565b565b60055460065460009182918291611abe91612f6d565b90506001600f541115611ae957600f54611ae690611add906001612958565b600e549061294c565b91505b600081831115611afa575081611afd565b50805b9392505050565b60118181548110611b1457600080fd5b6000918252602090912001546001600160a01b0316905081565b4360158190555060007f00000000000000000000000000000000000000000000000000000000000000006001600160a01b031663699b328a346040518263ffffffff1660e01b81526004016020604051808303818588803b158015611b9257600080fd5b505af1158015611ba6573d6000803e3d6000fd5b50505050506040513d601f19601f82011682018060405250810190611bcb9190613737565b905034811015611c0d57336108fc611be38334613a42565b6040518115909202916000818181858888f19350505050158015611c0b573d6000803e3d6000fd5b505b50565b60175460ff1615611c335760405162461bcd60e51b815260040161086a906138f5565b60026001541415611c565760405162461bcd60e51b815260040161086a9061395f565b600260015580611ca05760405162461bcd60e51b8152602060048201526015602482015274556e7374616b65206d6f726520746865207a65726f60581b604482015260640161086a565b60175460ff1615611d0f5760405162461bcd60e51b815260206004820152603360248201527f43616e2063616e63656c20737562736372697074696f6e207768656e204e46546044820152721cc8185c99481b9bdd08185b1b1bd8d85d1959606a1b606482015260840161086a565b336000908152601a6020526040812054601c805491929183908110611d4457634e487b7160e01b600052603260045260246000fd5b906000526020600020906009020160010154831015611eb357611d8283601c8481548110610d4857634e487b7160e01b600052603260045260246000fd5b601c8381548110611da357634e487b7160e01b600052603260045260246000fd5b906000526020600020906009020160010181905550611ddd83601c8481548110610c4e57634e487b7160e01b600052603260045260246000fd5b601c8381548110611dfe57634e487b7160e01b600052603260045260246000fd5b906000526020600020906009020160020181905550611e3d600260030154601c848154811061170357634e487b7160e01b600052603260045260246000fd5b601c8381548110611e5e57634e487b7160e01b600052603260045260246000fd5b6000918252602090912060036009909202010155600e54611e7f9084612958565b600e5533600090815260186020526040902054611e9c9084612958565b33600090815260186020526040902055508161219a565b611efa601c8381548110611ed757634e487b7160e01b600052603260045260246000fd5b906000526020600020906009020160010154600e5461295890919063ffffffff16565b600e55601c805483908110611f1f57634e487b7160e01b600052603260045260246000fd5b6000918252602080832060026009909302019190910154338352601882526040808420849055601a909252908220919091559050815b601c54611f6490600190613a42565b8110156120ee57601c611f788260016139eb565b81548110611f9657634e487b7160e01b600052603260045260246000fd5b9060005260206000209060090201601c8281548110611fc557634e487b7160e01b600052603260045260246000fd5b600091825260208220835460099092020180546001600160a01b0319166001600160a01b03909216919091178155600180840154818301556002808501549083015560038085015490830155600480850154908301556005808501549083015560068085015490830155600780850154908301556008938401805494909201805460ff958616151560ff19821681178355935461010090819004909616151590950261ff001990931661ffff1990951694909417919091179092558291601a9190601c906120949085906139eb565b815481106120b257634e487b7160e01b600052603260045260246000fd5b600091825260208083206009909202909101546001600160a01b03168352820192909252604001902055806120e681613a70565b915050611f55565b50601c80548061210e57634e487b7160e01b600052603160045260246000fd5b60008281526020812060096000199093019283020180546001600160a01b03191681556001810182905560028101829055600381018290556004810182905560058101829055600681018290556007810191909155600801805461ffff1916905590556011541561218457612184336000612979565b601b805490600061219483613a59565b91905055505b6121a633826001612c67565b60408051338152602081018390527f2263ff91d70388b2d8f75fa56d5d2c680d3489905b344b9977fe2bfb137aadb0910160405180910390a150506001805550565b6040516314c1dc4d60e31b81526004810182905260009081906001600160a01b037f0000000000000000000000000000000000000000000000000000000000000000169063a60ee2689060240160206040518083038186803b15801561224d57600080fd5b505afa158015612261573d6000803e3d6000fd5b505050506040513d601f19601f82011682018060405250810190611afd9190613737565b336000908152601a6020526040812054601c805490919081106122b857634e487b7160e01b600052603260045260246000fd5b906000526020600020906009020160080160019054906101000a900460ff16905090565b6000546001600160a01b031633146123065760405162461bcd60e51b815260040161086a9061392a565b6001600160a01b03811661236b5760405162461bcd60e51b815260206004820152602660248201527f4f776e61626c653a206e6577206f776e657220697320746865207a65726f206160448201526564647265737360d01b606482015260840161086a565b611c0d81613493565b600a546001600160a01b03161580159061239857506009546001600160a01b031615155b6123e45760405162461bcd60e51b815260206004820152601f60248201527f4e6f7420796574206d79737465727920626f7820696e697469616c697a656400604482015260640161086a565b60175460ff16156124075760405162461bcd60e51b815260040161086a906138f5565b6002600154141561242a5760405162461bcd60e51b815260040161086a9061395f565b60026001819055546001600160a01b03161561247c5760405162461bcd60e51b81526020600482015260116024820152702bb937b7339038bab7ba32903a37b5b2b760791b604482015260640161086a565b6007544210156124c85760405162461bcd60e51b815260206004820152601760248201527614dd185c9ada5b99c81a5cc81b9bdd081cdd185c9d1959604a1b604482015260640161086a565b3360009081526018602052604090205461253b576005546006546124ec9190612f6d565b34101561253b5760405162461bcd60e51b815260206004820152601a60248201527f556e646572206c65617374207374616b696e6720616d6f756e74000000000000604482015260640161086a565b33600090815260186020526040902054612555903461296d565b33600090815260186020908152604080832093909355601a9052205480156126925761259c34601c838154811061160857634e487b7160e01b600052603260045260246000fd5b601c82815481106125bd57634e487b7160e01b600052603260045260246000fd5b9060005260206000209060090201600101819055506125f734601c838154811061168357634e487b7160e01b600052603260045260246000fd5b601c828154811061261857634e487b7160e01b600052603260045260246000fd5b906000526020600020906009020160020181905550612657600260030154601c838154811061170357634e487b7160e01b600052603260045260246000fd5b601c828154811061267857634e487b7160e01b600052603260045260246000fd5b9060005260206000209060090201600301819055506128cd565b601954336000908152601a60205260408120919091556005546126b690349061294c565b604080516101408101825233815234602082018181529282019081526060820184815260006080840181815260a0850182815260c0860183815260e087018481526101008089018681526101208a01878152601c805460018082018355919099529a517f0e4562a10381dec21b205ed72637e6b1b523bdd0e4d4d50af5cd23dd4500a211600990990298890180546001600160a01b0319166001600160a01b039092169190911790559a517f0e4562a10381dec21b205ed72637e6b1b523bdd0e4d4d50af5cd23dd4500a21288015597517f0e4562a10381dec21b205ed72637e6b1b523bdd0e4d4d50af5cd23dd4500a21387015595517f0e4562a10381dec21b205ed72637e6b1b523bdd0e4d4d50af5cd23dd4500a21486015592517f0e4562a10381dec21b205ed72637e6b1b523bdd0e4d4d50af5cd23dd4500a21585015590517f0e4562a10381dec21b205ed72637e6b1b523bdd0e4d4d50af5cd23dd4500a216840155517f0e4562a10381dec21b205ed72637e6b1b523bdd0e4d4d50af5cd23dd4500a217830155517f0e4562a10381dec21b205ed72637e6b1b523bdd0e4d4d50af5cd23dd4500a21882015591517f0e4562a10381dec21b205ed72637e6b1b523bdd0e4d4d50af5cd23dd4500a2199092018054945161ffff1990951692151561ff0019169290921793151502929092179091556019805490910190559050601154156128cb576128cb33612f84565b505b600e546128da903461296d565b600e55601b80549060006128ed83613a70565b90915550506002546040517f795c91e2fef542f2e8bccd08552a8961ecb158d0f47be08f5c44b349993b07a9916129319133916001600160a01b0316903490613788565b60405180910390a15060018055565b6000611afd8284613a23565b6000611afd8284613a03565b6000611afd8284613a42565b80546001019055565b6000611afd82846139eb565b6000805b6001600160a01b038416600090815260136020526040902054811015612c27576001600160a01b038416600090815260136020526040812080546012929190849081106129da57634e487b7160e01b600052603260045260246000fd5b600091825260208083206002909202909101546001600160a01b0316835282019290925260400190205460ff1615156001148015612a1a57506001831515145b15612b13576001600160a01b0384166000908152601360205260409020805482908110612a5757634e487b7160e01b600052603260045260246000fd5b600091825260208083206002909202909101546001600160a01b03878116845260139092526040909220805491909216916342966c689184908110612aac57634e487b7160e01b600052603260045260246000fd5b9060005260206000209060020201600101546040518263ffffffff1660e01b8152600401612adc91815260200190565b600060405180830381600087803b158015612af657600080fd5b505af1158015612b0a573d6000803e3d6000fd5b50505050612c15565b6001600160a01b0384166000908152601360205260409020805482908110612b4b57634e487b7160e01b600052603260045260246000fd5b600091825260208083206002909202909101546001600160a01b03878116845260139092526040909220805491909216916342842e0e913091889186908110612ba457634e487b7160e01b600052603260045260246000fd5b9060005260206000209060020201600101546040518463ffffffff1660e01b8152600401612bd493929190613788565b600060405180830381600087803b158015612bee57600080fd5b505af1158015612c02573d6000803e3d6000fd5b505050508180612c1190613a70565b9250505b80612c1f81613a70565b91505061297d565b50604080516001600160a01b0385168152602081018390527f2e4861fd3cb133f4df6d8c5dc2f9649e250a3517acfcb09d642ff621f9f360d591016113d4565b60008211612cae5760405162461bcd60e51b8152602060048201526014602482015273139bc818985b185b98d9481d1bc81c99599d5b9960621b604482015260640161086a565b600060018215151415612ccf57612ccc6103e8610a0385600a612940565b90505b6002546001600160a01b0316612d1357612cf284612ced8584612958565b612e8e565b8015612d0e57600a54612d0e906001600160a01b031682612e8e565b612e3e565b6002546001600160a01b031663a9059cbb85612d2f8685612958565b6040516001600160e01b031960e085901b1681526001600160a01b0390921660048301526024820152604401602060405180830381600087803b158015612d7557600080fd5b505af1158015612d89573d6000803e3d6000fd5b505050506040513d601f19601f82011682018060405250810190612dad9190613703565b508015612e3e57600254600a5460405163a9059cbb60e01b81526001600160a01b0391821660048201526024810184905291169063a9059cbb90604401602060405180830381600087803b158015612e0457600080fd5b505af1158015612e18573d6000803e3d6000fd5b505050506040513d601f19601f82011682018060405250810190612e3c9190613703565b505b604080516001600160a01b0386168152602081018590529081018290527f73f04af9dcc582a923ec15d3eea990fe34adabfff2879e28d44572e01a54abb69060600160405180910390a150505050565b604080516000808252602082019092526001600160a01b038416908390604051612eb8919061374f565b60006040518083038185875af1925050503d8060008114612ef5576040519150601f19603f3d011682016040523d82523d6000602084013e612efa565b606091505b5050905080612f685760405162461bcd60e51b815260206004820152603460248201527f5472616e7366657248656c7065723a3a736166655472616e736665724554483a60448201527308115512081d1c985b9cd9995c8819985a5b195960621b606482015260840161086a565b505050565b600081831015612f7d5781611afd565b5090919050565b600080805b6011548110156131cd5760118181548110612fb457634e487b7160e01b600052603260045260246000fd5b6000918252602090912001546040516370a0823160e01b81526001600160a01b038681166004830152909116906370a082319060240160206040518083038186803b15801561300257600080fd5b505afa158015613016573d6000803e3d6000fd5b505050506040513d601f19601f8201168201806040525081019061303a9190613737565b925082156131bb578161304c81613a70565b92505060006011828154811061307257634e487b7160e01b600052603260045260246000fd5b6000918252602082200154604051632f745c5960e01b81526001600160a01b0388811660048301526024820193909352911690632f745c599060440160206040518083038186803b1580156130c657600080fd5b505afa1580156130da573d6000803e3d6000fd5b505050506040513d601f19601f820116820180604052508101906130fe9190613737565b905060136000866001600160a01b03166001600160a01b0316815260200190815260200160002060405180604001604052806011858154811061315157634e487b7160e01b600052603260045260246000fd5b6000918252602080832091909101546001600160a01b03908116845292810186905284546001808201875595835291819020845160029093020180546001600160a01b03191692909316919091178255919091015191015560145460ff166131b957506131cd565b505b806131c581613a70565b915050612f89565b5060145460ff161561322a57601154811461322a5760405162461bcd60e51b815260206004820152601c60248201527f4c61636b206f66206f776e65642077686974656c697374204e46547300000000604482015260640161086a565b60005b6001600160a01b038416600090815260136020526040902054811015613353576001600160a01b038416600090815260136020526040902080548290811061328557634e487b7160e01b600052603260045260246000fd5b600091825260208083206002909202909101546001600160a01b03878116845260139092526040909220805491909216916342842e0e9187913091869081106132de57634e487b7160e01b600052603260045260246000fd5b9060005260206000209060020201600101546040518463ffffffff1660e01b815260040161330e93929190613788565b600060405180830381600087803b15801561332857600080fd5b505af115801561333c573d6000803e3d6000fd5b50505050808061334b90613a70565b91505061322d565b50505050565b600080856001600160a01b03166323b872dd86868660405160240161338093929190613788565b6040516020818303038152906040529060e01b6020820180516001600160e01b0383818316178352505050506040516133b9919061374f565b6000604051808303816000865af19150503d80600081146133f6576040519150601f19603f3d011682016040523d82523d6000602084013e6133fb565b606091505b50915091508180156134255750805115806134255750808060200190518101906134259190613703565b61348b5760405162461bcd60e51b815260206004820152603160248201527f5472616e7366657248656c7065723a3a7472616e7366657246726f6d3a207472604482015270185b9cd9995c919c9bdb4819985a5b1959607a1b606482015260840161086a565b505050505050565b600080546001600160a01b038381166001600160a01b0319831681178455604051919092169283917f8be0079c531659141344cd1fd0a4f28419497f9722a3daafe3b4186f6b6457e09190a35050565b80356001600160a01b03811681146134fa57600080fd5b919050565b600082601f83011261350f578081fd5b8135602061352461351f836139c7565b613996565b80838252828201915082860187848660051b8901011115613543578586fd5b855b8581101561356a57813561355881613ab7565b84529284019290840190600101613545565b5090979650505050505050565b80356134fa81613ab7565b600060208284031215613593578081fd5b611afd826134e3565b6000806000806000608086880312156135b3578081fd5b6135bc866134e3565b94506135ca602087016134e3565b935060408601359250606086013567ffffffffffffffff808211156135ed578283fd5b818801915088601f830112613600578283fd5b81358181111561360e578384fd5b89602082850101111561361f578384fd5b9699959850939650602001949392505050565b600080600060608486031215613646578283fd5b833567ffffffffffffffff8082111561365d578485fd5b818601915086601f830112613670578485fd5b8135602061368061351f836139c7565b8083825282820191508286018b848660051b890101111561369f57898afd5b8996505b848710156136c8576136b4816134e3565b8352600196909601959183019183016136a3565b50975050870135925050808211156136de578384fd5b506136eb868287016134ff565b9250506136fa60408501613577565b90509250925092565b600060208284031215613714578081fd5b8151611afd81613ab7565b600060208284031215613730578081fd5b5035919050565b600060208284031215613748578081fd5b5051919050565b60008251815b8181101561376f5760208186018101518583015201613755565b8181111561377d5782828501525b509190910192915050565b6001600160a01b039384168152919092166020820152604081019190915260600190565b6000606082016060835280865480835260808501915087845260209250828420845b828110156137f35781546001600160a01b0316845292840192600191820191016137ce565b50505083810382850152855180825286830191830190845b8181101561382957835115158352928401929184019160010161380b565b50508515156040860152925061383d915050565b949350505050565b602080825282518282018190526000919060409081850190868401855b828110156138e857815180516001600160a01b0316855286810151878601528581015186860152606080820151908601526080808201519086015260a0808201519086015260c0808201519086015260e0808201519086015261010080820151151590860152610120908101511515908501526101409093019290850190600101613862565b5091979650505050505050565b6020808252818101527f4d79737465727920626f7820697320616c726561647920616c6c6f6361746564604082015260600190565b6020808252818101527f4f776e61626c653a2063616c6c6572206973206e6f7420746865206f776e6572604082015260600190565b6020808252601f908201527f5265656e7472616e637947756172643a207265656e7472616e742063616c6c00604082015260600190565b604051601f8201601f1916810167ffffffffffffffff811182821017156139bf576139bf613aa1565b604052919050565b600067ffffffffffffffff8211156139e1576139e1613aa1565b5060051b60200190565b600082198211156139fe576139fe613a8b565b500190565b600082613a1e57634e487b7160e01b81526012600452602481fd5b500490565b6000816000190483118215151615613a3d57613a3d613a8b565b500290565b600082821015613a5457613a54613a8b565b500390565b600081613a6857613a68613a8b565b506000190190565b6000600019821415613a8457613a84613a8b565b5060010190565b634e487b7160e01b600052601160045260246000fd5b634e487b7160e01b600052604160045260246000fd5b8015158114611c0d57600080fdfea26469706673582212208c88af13c49bedeab656a331aa6741d5bd7832f545835ebeeb330fe405f7841764736f6c634300080400334f776e61626c653a2063616c6c6572206973206e6f7420746865206f776e6572",
  "linkReferences": {},
  "deployedLinkReferences": {}
}