{
  "_format": "hh-sol-artifact-1",
  "contractName": "WhiteListNFT",
  "sourceName": "contracts/WhiteListNFT.sol",
  "abi": [
    {
      "inputs": [
        {
          "internalType": "string",
          "name": "name",
          "type": "string"
        },
        {
          "internalType": "string",
          "name": "symbol",
          "type": "string"
        },
        {
          "internalType": "bool",
          "name": "_soulbound",
          "type": "bool"
        },
        {
          "internalType": "bool",
          "name": "_onetime",
          "type": "bool"
        }
      ],
      "stateMutability": "nonpayable",
      "type": "constructor"
    },
    {
      "anonymous": false,
      "inputs": [
        {
          "indexed": false,
          "internalType": "uint32",
          "name": "",
          "type": "uint32"
        },
        {
          "indexed": false,
          "internalType": "uint32",
          "name": "",
          "type": "uint32"
        }
      ],
      "name": "AddWhitelist",
      "type": "event"
    },
    {
      "anonymous": false,
      "inputs": [
        {
          "indexed": true,
          "internalType": "address",
          "name": "owner",
          "type": "address"
        },
        {
          "indexed": true,
          "internalType": "address",
          "name": "approved",
          "type": "address"
        },
        {
          "indexed": true,
          "internalType": "uint256",
          "name": "tokenId",
          "type": "uint256"
        }
      ],
      "name": "Approval",
      "type": "event"
    },
    {
      "anonymous": false,
      "inputs": [
        {
          "indexed": true,
          "internalType": "address",
          "name": "owner",
          "type": "address"
        },
        {
          "indexed": true,
          "internalType": "address",
          "name": "operator",
          "type": "address"
        },
        {
          "indexed": false,
          "internalType": "bool",
          "name": "approved",
          "type": "bool"
        }
      ],
      "name": "ApprovalForAll",
      "type": "event"
    },
    {
      "anonymous": false,
      "inputs": [
        {
          "indexed": false,
          "internalType": "address",
          "name": "",
          "type": "address"
        },
        {
          "indexed": false,
          "internalType": "string",
          "name": "",
          "type": "string"
        }
      ],
      "name": "Grant",
      "type": "event"
    },
    {
      "anonymous": false,
      "inputs": [
        {
          "indexed": true,
          "internalType": "address",
          "name": "previousOwner",
          "type": "address"
        },
        {
          "indexed": true,
          "internalType": "address",
          "name": "newOwner",
          "type": "address"
        }
      ],
      "name": "OwnershipTransferred",
      "type": "event"
    },
    {
      "anonymous": false,
      "inputs": [
        {
          "indexed": false,
          "internalType": "address",
          "name": "account",
          "type": "address"
        }
      ],
      "name": "Paused",
      "type": "event"
    },
    {
      "anonymous": false,
      "inputs": [
        {
          "indexed": true,
          "internalType": "bytes32",
          "name": "role",
          "type": "bytes32"
        },
        {
          "indexed": true,
          "internalType": "bytes32",
          "name": "previousAdminRole",
          "type": "bytes32"
        },
        {
          "indexed": true,
          "internalType": "bytes32",
          "name": "newAdminRole",
          "type": "bytes32"
        }
      ],
      "name": "RoleAdminChanged",
      "type": "event"
    },
    {
      "anonymous": false,
      "inputs": [
        {
          "indexed": true,
          "internalType": "bytes32",
          "name": "role",
          "type": "bytes32"
        },
        {
          "indexed": true,
          "internalType": "address",
          "name": "account",
          "type": "address"
        },
        {
          "indexed": true,
          "internalType": "address",
          "name": "sender",
          "type": "address"
        }
      ],
      "name": "RoleGranted",
      "type": "event"
    },
    {
      "anonymous": false,
      "inputs": [
        {
          "indexed": true,
          "internalType": "bytes32",
          "name": "role",
          "type": "bytes32"
        },
        {
          "indexed": true,
          "internalType": "address",
          "name": "account",
          "type": "address"
        },
        {
          "indexed": true,
          "internalType": "address",
          "name": "sender",
          "type": "address"
        }
      ],
      "name": "RoleRevoked",
      "type": "event"
    },
    {
      "anonymous": false,
      "inputs": [
        {
          "indexed": false,
          "internalType": "address",
          "name": "",
          "type": "address"
        }
      ],
      "name": "SetStaking",
      "type": "event"
    },
    {
      "anonymous": false,
      "inputs": [
        {
          "indexed": true,
          "internalType": "address",
          "name": "from",
          "type": "address"
        },
        {
          "indexed": true,
          "internalType": "address",
          "name": "to",
          "type": "address"
        },
        {
          "indexed": true,
          "internalType": "uint256",
          "name": "tokenId",
          "type": "uint256"
        }
      ],
      "name": "Transfer",
      "type": "event"
    },
    {
      "anonymous": false,
      "inputs": [
        {
          "indexed": false,
          "internalType": "address",
          "name": "account",
          "type": "address"
        }
      ],
      "name": "Unpaused",
      "type": "event"
    },
    {
      "inputs": [],
      "name": "DEFAULT_ADMIN_ROLE",
      "outputs": [
        {
          "internalType": "bytes32",
          "name": "",
          "type": "bytes32"
        }
      ],
      "stateMutability": "view",
      "type": "function"
    },
    {
      "inputs": [],
      "name": "MINTER_ROLE",
      "outputs": [
        {
          "internalType": "bytes32",
          "name": "",
          "type": "bytes32"
        }
      ],
      "stateMutability": "view",
      "type": "function"
    },
    {
      "inputs": [],
      "name": "PAUSER_ROLE",
      "outputs": [
        {
          "internalType": "bytes32",
          "name": "",
          "type": "bytes32"
        }
      ],
      "stateMutability": "view",
      "type": "function"
    },
    {
      "inputs": [
        {
          "internalType": "address",
          "name": "minter",
          "type": "address"
        }
      ],
      "name": "addMinter",
      "outputs": [],
      "stateMutability": "nonpayable",
      "type": "function"
    },
    {
      "inputs": [
        {
          "internalType": "address",
          "name": "pauser",
          "type": "address"
        }
      ],
      "name": "addPauser",
      "outputs": [],
      "stateMutability": "nonpayable",
      "type": "function"
    },
    {
      "inputs": [
        {
          "internalType": "address[]",
          "name": "_whitelist",
          "type": "address[]"
        },
        {
          "internalType": "uint256",
          "name": "round",
          "type": "uint256"
        }
      ],
      "name": "addWhitelist",
      "outputs": [],
      "stateMutability": "nonpayable",
      "type": "function"
    },
    {
      "inputs": [
        {
          "internalType": "address",
          "name": "to",
          "type": "address"
        },
        {
          "internalType": "uint256",
          "name": "tokenId",
          "type": "uint256"
        }
      ],
      "name": "approve",
      "outputs": [],
      "stateMutability": "nonpayable",
      "type": "function"
    },
    {
      "inputs": [
        {
          "internalType": "address",
          "name": "owner",
          "type": "address"
        }
      ],
      "name": "balanceOf",
      "outputs": [
        {
          "internalType": "uint256",
          "name": "",
          "type": "uint256"
        }
      ],
      "stateMutability": "view",
      "type": "function"
    },
    {
      "inputs": [
        {
          "internalType": "uint256",
          "name": "tokenId",
          "type": "uint256"
        }
      ],
      "name": "burn",
      "outputs": [],
      "stateMutability": "nonpayable",
      "type": "function"
    },
    {
      "inputs": [
        {
          "internalType": "uint256",
          "name": "tokenId",
          "type": "uint256"
        }
      ],
      "name": "getApproved",
      "outputs": [
        {
          "internalType": "address",
          "name": "",
          "type": "address"
        }
      ],
      "stateMutability": "view",
      "type": "function"
    },
    {
      "inputs": [
        {
          "internalType": "bytes32",
          "name": "role",
          "type": "bytes32"
        }
      ],
      "name": "getRoleAdmin",
      "outputs": [
        {
          "internalType": "bytes32",
          "name": "",
          "type": "bytes32"
        }
      ],
      "stateMutability": "view",
      "type": "function"
    },
    {
      "inputs": [
        {
          "internalType": "uint256",
          "name": "_index",
          "type": "uint256"
        }
      ],
      "name": "getWhitelist",
      "outputs": [
        {
          "internalType": "address[]",
          "name": "",
          "type": "address[]"
        }
      ],
      "stateMutability": "view",
      "type": "function"
    },
    {
      "inputs": [
        {
          "internalType": "bytes32",
          "name": "role",
          "type": "bytes32"
        },
        {
          "internalType": "address",
          "name": "account",
          "type": "address"
        }
      ],
      "name": "grantRole",
      "outputs": [],
      "stateMutability": "nonpayable",
      "type": "function"
    },
    {
      "inputs": [
        {
          "internalType": "bytes32",
          "name": "role",
          "type": "bytes32"
        },
        {
          "internalType": "address",
          "name": "account",
          "type": "address"
        }
      ],
      "name": "hasRole",
      "outputs": [
        {
          "internalType": "bool",
          "name": "",
          "type": "bool"
        }
      ],
      "stateMutability": "view",
      "type": "function"
    },
    {
      "inputs": [
        {
          "internalType": "address",
          "name": "owner",
          "type": "address"
        },
        {
          "internalType": "address",
          "name": "operator",
          "type": "address"
        }
      ],
      "name": "isApprovedForAll",
      "outputs": [
        {
          "internalType": "bool",
          "name": "",
          "type": "bool"
        }
      ],
      "stateMutability": "view",
      "type": "function"
    },
    {
      "inputs": [],
      "name": "name",
      "outputs": [
        {
          "internalType": "string",
          "name": "",
          "type": "string"
        }
      ],
      "stateMutability": "view",
      "type": "function"
    },
    {
      "inputs": [],
      "name": "onetime",
      "outputs": [
        {
          "internalType": "bool",
          "name": "",
          "type": "bool"
        }
      ],
      "stateMutability": "view",
      "type": "function"
    },
    {
      "inputs": [],
      "name": "owner",
      "outputs": [
        {
          "internalType": "address",
          "name": "",
          "type": "address"
        }
      ],
      "stateMutability": "view",
      "type": "function"
    },
    {
      "inputs": [
        {
          "internalType": "uint256",
          "name": "tokenId",
          "type": "uint256"
        }
      ],
      "name": "ownerOf",
      "outputs": [
        {
          "internalType": "address",
          "name": "",
          "type": "address"
        }
      ],
      "stateMutability": "view",
      "type": "function"
    },
    {
      "inputs": [],
      "name": "pause",
      "outputs": [],
      "stateMutability": "nonpayable",
      "type": "function"
    },
    {
      "inputs": [],
      "name": "paused",
      "outputs": [
        {
          "internalType": "bool",
          "name": "",
          "type": "bool"
        }
      ],
      "stateMutability": "view",
      "type": "function"
    },
    {
      "inputs": [],
      "name": "renounceOwnership",
      "outputs": [],
      "stateMutability": "nonpayable",
      "type": "function"
    },
    {
      "inputs": [
        {
          "internalType": "bytes32",
          "name": "role",
          "type": "bytes32"
        },
        {
          "internalType": "address",
          "name": "account",
          "type": "address"
        }
      ],
      "name": "renounceRole",
      "outputs": [],
      "stateMutability": "nonpayable",
      "type": "function"
    },
    {
      "inputs": [
        {
          "internalType": "bytes32",
          "name": "role",
          "type": "bytes32"
        },
        {
          "internalType": "address",
          "name": "account",
          "type": "address"
        }
      ],
      "name": "revokeRole",
      "outputs": [],
      "stateMutability": "nonpayable",
      "type": "function"
    },
    {
      "inputs": [
        {
          "internalType": "address",
          "name": "to",
          "type": "address"
        },
        {
          "internalType": "string[]",
          "name": "uris",
          "type": "string[]"
        }
      ],
      "name": "safeBatchMint",
      "outputs": [],
      "stateMutability": "nonpayable",
      "type": "function"
    },
    {
      "inputs": [
        {
          "internalType": "address",
          "name": "to",
          "type": "address"
        },
        {
          "internalType": "string",
          "name": "uri",
          "type": "string"
        },
        {
          "internalType": "uint256",
          "name": "amount",
          "type": "uint256"
        }
      ],
      "name": "safeBatchMintLight",
      "outputs": [],
      "stateMutability": "nonpayable",
      "type": "function"
    },
    {
      "inputs": [
        {
          "internalType": "string",
          "name": "uri",
          "type": "string"
        },
        {
          "internalType": "uint256",
          "name": "_index",
          "type": "uint256"
        }
      ],
      "name": "safeBatchMintToWhitelist",
      "outputs": [],
      "stateMutability": "nonpayable",
      "type": "function"
    },
    {
      "inputs": [
        {
          "internalType": "address",
          "name": "to",
          "type": "address"
        },
        {
          "internalType": "string",
          "name": "uri",
          "type": "string"
        }
      ],
      "name": "safeMint",
      "outputs": [
        {
          "internalType": "uint256",
          "name": "",
          "type": "uint256"
        }
      ],
      "stateMutability": "nonpayable",
      "type": "function"
    },
    {
      "inputs": [
        {
          "internalType": "address",
          "name": "from",
          "type": "address"
        },
        {
          "internalType": "address",
          "name": "to",
          "type": "address"
        },
        {
          "internalType": "uint256",
          "name": "tokenId",
          "type": "uint256"
        }
      ],
      "name": "safeTransferFrom",
      "outputs": [],
      "stateMutability": "nonpayable",
      "type": "function"
    },
    {
      "inputs": [
        {
          "internalType": "address",
          "name": "from",
          "type": "address"
        },
        {
          "internalType": "address",
          "name": "to",
          "type": "address"
        },
        {
          "internalType": "uint256",
          "name": "tokenId",
          "type": "uint256"
        },
        {
          "internalType": "bytes",
          "name": "_data",
          "type": "bytes"
        }
      ],
      "name": "safeTransferFrom",
      "outputs": [],
      "stateMutability": "nonpayable",
      "type": "function"
    },
    {
      "inputs": [
        {
          "internalType": "address",
          "name": "operator",
          "type": "address"
        },
        {
          "internalType": "bool",
          "name": "approved",
          "type": "bool"
        }
      ],
      "name": "setApprovalForAll",
      "outputs": [],
      "stateMutability": "nonpayable",
      "type": "function"
    },
    {
      "inputs": [
        {
          "internalType": "address",
          "name": "_staking",
          "type": "address"
        }
      ],
      "name": "setStaking",
      "outputs": [],
      "stateMutability": "nonpayable",
      "type": "function"
    },
    {
      "inputs": [],
      "name": "soulbound",
      "outputs": [
        {
          "internalType": "bool",
          "name": "",
          "type": "bool"
        }
      ],
      "stateMutability": "view",
      "type": "function"
    },
    {
      "inputs": [],
      "name": "staking",
      "outputs": [
        {
          "internalType": "address",
          "name": "",
          "type": "address"
        }
      ],
      "stateMutability": "view",
      "type": "function"
    },
    {
      "inputs": [
        {
          "internalType": "bytes4",
          "name": "interfaceId",
          "type": "bytes4"
        }
      ],
      "name": "supportsInterface",
      "outputs": [
        {
          "internalType": "bool",
          "name": "",
          "type": "bool"
        }
      ],
      "stateMutability": "view",
      "type": "function"
    },
    {
      "inputs": [],
      "name": "symbol",
      "outputs": [
        {
          "internalType": "string",
          "name": "",
          "type": "string"
        }
      ],
      "stateMutability": "view",
      "type": "function"
    },
    {
      "inputs": [
        {
          "internalType": "uint256",
          "name": "index",
          "type": "uint256"
        }
      ],
      "name": "tokenByIndex",
      "outputs": [
        {
          "internalType": "uint256",
          "name": "",
          "type": "uint256"
        }
      ],
      "stateMutability": "view",
      "type": "function"
    },
    {
      "inputs": [
        {
          "internalType": "address",
          "name": "owner",
          "type": "address"
        },
        {
          "internalType": "uint256",
          "name": "index",
          "type": "uint256"
        }
      ],
      "name": "tokenOfOwnerByIndex",
      "outputs": [
        {
          "internalType": "uint256",
          "name": "",
          "type": "uint256"
        }
      ],
      "stateMutability": "view",
      "type": "function"
    },
    {
      "inputs": [
        {
          "internalType": "uint256",
          "name": "tokenId",
          "type": "uint256"
        }
      ],
      "name": "tokenURI",
      "outputs": [
        {
          "internalType": "string",
          "name": "",
          "type": "string"
        }
      ],
      "stateMutability": "view",
      "type": "function"
    },
    {
      "inputs": [],
      "name": "totalSupply",
      "outputs": [
        {
          "internalType": "uint256",
          "name": "",
          "type": "uint256"
        }
      ],
      "stateMutability": "view",
      "type": "function"
    },
    {
      "inputs": [
        {
          "internalType": "address",
          "name": "from",
          "type": "address"
        },
        {
          "internalType": "address",
          "name": "to",
          "type": "address"
        },
        {
          "internalType": "uint256",
          "name": "tokenId",
          "type": "uint256"
        }
      ],
      "name": "transferFrom",
      "outputs": [],
      "stateMutability": "nonpayable",
      "type": "function"
    },
    {
      "inputs": [
        {
          "internalType": "address",
          "name": "newOwner",
          "type": "address"
        }
      ],
      "name": "transferOwnership",
      "outputs": [],
      "stateMutability": "nonpayable",
      "type": "function"
    },
    {
      "inputs": [],
      "name": "unpause",
      "outputs": [],
      "stateMutability": "nonpayable",
      "type": "function"
    },
    {
      "inputs": [
        {
          "internalType": "uint256",
          "name": "",
          "type": "uint256"
        }
      ],
      "name": "whitelist",
      "outputs": [
        {
          "internalType": "bool",
          "name": "minted",
          "type": "bool"
        }
      ],
      "stateMutability": "view",
      "type": "function"
    }
  ],
  "bytecode": "0x6080604052600e805461ffff191690553480156200001c57600080fd5b506040516200360c3803806200360c8339810160408190526200003f9162000384565b8351849084906200005890600090602085019062000215565b5080516200006e90600190602084019062000215565b5050600b805460ff1916905550620000863362000116565b6200009360003362000170565b620000bf7f65d7a28e3265b37a6474929f336521b332c1681b933f6cb9f3376673440d862a3362000170565b620000eb7f9f2df0fed2c77648de5860a4cc508cd0818c85b8b8a1ab4ceeef8d981c8956a63362000170565b600e805461ffff191692151561ff001916929092176101009115159190910217905550620004639050565b600b80546001600160a01b03838116610100818102610100600160a81b031985161790945560405193909204169182907f8be0079c531659141344cd1fd0a4f28419497f9722a3daafe3b4186f6b6457e090600090a35050565b6000828152600c602090815260408083206001600160a01b038516845290915290205460ff1662000211576000828152600c602090815260408083206001600160a01b03851684529091529020805460ff19166001179055620001d03390565b6001600160a01b0316816001600160a01b0316837f2f8788117e7eff1d82e926ec794901d17c78024a50270940304540a733656f0d60405160405180910390a45b5050565b828054620002239062000410565b90600052602060002090601f01602090048101928262000247576000855562000292565b82601f106200026257805160ff191683800117855562000292565b8280016001018555821562000292579182015b828111156200029257825182559160200191906001019062000275565b50620002a0929150620002a4565b5090565b5b80821115620002a05760008155600101620002a5565b80518015158114620002cc57600080fd5b919050565b600082601f830112620002e2578081fd5b81516001600160401b0380821115620002ff57620002ff6200044d565b604051601f8301601f19908116603f011681019082821181831017156200032a576200032a6200044d565b8160405283815260209250868385880101111562000346578485fd5b8491505b838210156200036957858201830151818301840152908201906200034a565b838211156200037a57848385830101525b9695505050505050565b600080600080608085870312156200039a578384fd5b84516001600160401b0380821115620003b1578586fd5b620003bf88838901620002d1565b95506020870151915080821115620003d5578485fd5b50620003e487828801620002d1565b935050620003f560408601620002bb565b91506200040560608601620002bb565b905092959194509250565b600181811c908216806200042557607f821691505b602082108114156200044757634e487b7160e01b600052602260045260246000fd5b50919050565b634e487b7160e01b600052604160045260246000fd5b61319980620004736000396000f3fe608060405234801561001057600080fd5b50600436106102745760003560e01c80637ebd1b3011610151578063a22cb465116100c3578063d539139311610087578063d53913931461056e578063d547741f14610583578063e63ab1e914610596578063e985e9c5146105ab578063f2fde38b146105e7578063fc846128146105fa57600080fd5b8063a22cb4651461050f578063b5a87cc114610522578063b88d4fde14610535578063c87b56dd14610548578063d204c45e1461055b57600080fd5b80638ff39099116101155780638ff39099146104a657806391d14854146104b957806395d89b41146104cc57806396db752a146104d4578063983b2d56146104f4578063a217fddf1461050757600080fd5b80637ebd1b301461043d57806382dc1ec4146104635780638456cb59146104765780638abbf69a1461047e5780638da5cb5b1461049057600080fd5b80633f4ba83a116101ea57806358dd6d95116101ae57806358dd6d95146103de5780635c975abb146103f15780636352211e146103fc578063645b67011461040f57806370a0823114610422578063715018a61461043557600080fd5b80633f4ba83a1461038457806342842e0e1461038c57806342966c681461039f5780634cf088d9146103b25780634f6ccce7146103cb57600080fd5b806318160ddd1161023c57806318160ddd1461030357806323b872dd14610315578063248a9ca3146103285780632f2ff15d1461034b5780632f745c591461035e57806336568abe1461037157600080fd5b806301ffc9a71461027957806306fdde03146102a1578063081812fc146102b6578063095ea7b3146102e15780630fad0f51146102f6575b600080fd5b61028c610287366004612ccb565b61060d565b60405190151581526020015b60405180910390f35b6102a9610638565b6040516102989190612ea0565b6102c96102c4366004612c91565b6106ca565b6040516001600160a01b039091168152602001610298565b6102f46102ef366004612bf2565b610757565b005b600e5461028c9060ff1681565b6008545b604051908152602001610298565b6102f461032336600461298e565b61086d565b610307610336366004612c91565b6000908152600c602052604090206001015490565b6102f4610359366004612ca9565b61089f565b61030761036c366004612bf2565b6108c4565b6102f461037f366004612ca9565b61095a565b6102f46109d8565b6102f461039a36600461298e565b6109fb565b6102f46103ad366004612c91565b610a16565b600e546102c9906201000090046001600160a01b031681565b6103076103d9366004612c91565b610a8d565b6102f46103ec366004612a42565b610b2e565b600b5460ff1661028c565b6102c961040a366004612c91565b610b9c565b6102f461041d366004612c1b565b610c13565b610307610430366004612942565b610d95565b6102f4610e1c565b61028c61044b366004612c91565b600f6020526000908152604090206001015460ff1681565b6102f4610471366004612942565b610e58565b6102f4610f05565b600e5461028c90610100900460ff1681565b600b5461010090046001600160a01b03166102c9565b6102f46104b4366004612942565b610f25565b61028c6104c7366004612ca9565b610fb0565b6102a9610fdb565b6104e76104e2366004612c91565b610fea565b6040516102989190612e53565b6102f4610502366004612942565b61105c565b610307600081565b6102f461051d366004612b17565b611102565b6102f4610530366004612b9d565b61110d565b6102f46105433660046129c9565b611154565b6102a9610556366004612c91565b611186565b610307610569366004612b51565b611191565b61030760008051602061314483398151915281565b6102f4610591366004612ca9565b6111e2565b61030760008051602061312483398151915281565b61028c6105b936600461295c565b6001600160a01b03918216600090815260056020908152604080832093909416825291909152205460ff1690565b6102f46105f5366004612942565b611207565b6102f4610608366004612d03565b6112a5565b60006001600160e01b031982166380ac58cd60e01b148061063257506106328261133e565b92915050565b60606000805461064790613061565b80601f016020809104026020016040519081016040528092919081815260200182805461067390613061565b80156106c05780601f10610695576101008083540402835291602001916106c0565b820191906000526020600020905b8154815290600101906020018083116106a357829003601f168201915b5050505050905090565b60006106d582611363565b61073b5760405162461bcd60e51b815260206004820152602c60248201527f4552433732313a20617070726f76656420717565727920666f72206e6f6e657860448201526b34b9ba32b73a103a37b5b2b760a11b60648201526084015b60405180910390fd5b506000908152600460205260409020546001600160a01b031690565b600061076282610b9c565b9050806001600160a01b0316836001600160a01b031614156107d05760405162461bcd60e51b815260206004820152602160248201527f4552433732313a20617070726f76616c20746f2063757272656e74206f776e656044820152603960f91b6064820152608401610732565b336001600160a01b03821614806107ec57506107ec81336105b9565b61085e5760405162461bcd60e51b815260206004820152603860248201527f4552433732313a20617070726f76652063616c6c6572206973206e6f74206f7760448201527f6e6572206e6f7220617070726f76656420666f7220616c6c00000000000000006064820152608401610732565b6108688383611380565b505050565b610878335b826113ee565b6108945760405162461bcd60e51b815260040161073290612f3a565b6108688383836114d7565b6000828152600c60205260409020600101546108ba8161167e565b6108688383611688565b60006108cf83610d95565b82106109315760405162461bcd60e51b815260206004820152602b60248201527f455243373231456e756d657261626c653a206f776e657220696e646578206f7560448201526a74206f6620626f756e647360a81b6064820152608401610732565b506001600160a01b03919091166000908152600660209081526040808320938352929052205490565b6001600160a01b03811633146109ca5760405162461bcd60e51b815260206004820152602f60248201527f416363657373436f6e74726f6c3a2063616e206f6e6c792072656e6f756e636560448201526e103937b632b9903337b91039b2b63360891b6064820152608401610732565b6109d4828261170e565b5050565b6000805160206131248339815191526109f08161167e565b6109f8611775565b50565b61086883838360405180602001604052806000815250611154565b610a1f33610872565b610a845760405162461bcd60e51b815260206004820152603060248201527f4552433732314275726e61626c653a2063616c6c6572206973206e6f74206f7760448201526f1b995c881b9bdc88185c1c1c9bdd995960821b6064820152608401610732565b6109f881611808565b6000610a9860085490565b8210610afb5760405162461bcd60e51b815260206004820152602c60248201527f455243373231456e756d657261626c653a20676c6f62616c20696e646578206f60448201526b7574206f6620626f756e647360a01b6064820152608401610732565b60088281548110610b1c57634e487b7160e01b600052603260045260246000fd5b90600052602060002001549050919050565b600080516020613144833981519152610b468161167e565b60005b8251811015610b9657610b8384848381518110610b7657634e487b7160e01b600052603260045260246000fd5b6020026020010151611191565b5080610b8e8161309c565b915050610b49565b50505050565b6000818152600260205260408120546001600160a01b0316806106325760405162461bcd60e51b815260206004820152602960248201527f4552433732313a206f776e657220717565727920666f72206e6f6e657869737460448201526832b73a103a37b5b2b760b91b6064820152608401610732565b600b546001600160a01b03610100909104163314610c435760405162461bcd60e51b815260040161073290612f05565b6000818152600f602052604090206001015460ff1615610c965760405162461bcd60e51b815260206004820152600e60248201526d185b1c9958591e481b5a5b9d195960921b6044820152606401610732565b60005b82811015610d28576000828152600f60205260409020848483818110610ccf57634e487b7160e01b600052603260045260246000fd5b9050602002016020810190610ce49190612942565b81546001810183556000928352602090922090910180546001600160a01b0319166001600160a01b0390921691909117905580610d208161309c565b915050610c99565b506000818152600f60205260409081902060018101805460ff191690555490517f30133f20f961756dcaacb26c1a1d4e0e5d8a453f4176bf3b7684721491a87b7291610d889184919063ffffffff92831681529116602082015260400190565b60405180910390a1505050565b60006001600160a01b038216610e005760405162461bcd60e51b815260206004820152602a60248201527f4552433732313a2062616c616e636520717565727920666f7220746865207a65604482015269726f206164647265737360b01b6064820152608401610732565b506001600160a01b031660009081526003602052604090205490565b600b546001600160a01b03610100909104163314610e4c5760405162461bcd60e51b815260040161073290612f05565b610e566000611811565b565b600b546001600160a01b03610100909104163314610e885760405162461bcd60e51b815260040161073290612f05565b610ea060008051602061312483398151915282611688565b604080516001600160a01b038316815260208101829052600b918101919091526a5041555345525f524f4c4560a81b60608201527f0578acc86b18d67c13a5e6eed8c670fb7052f530b48a2acb167d6ca77509a384906080015b60405180910390a150565b600080516020613124833981519152610f1d8161167e565b6109f861186b565b600b546001600160a01b03610100909104163314610f555760405162461bcd60e51b815260040161073290612f05565b600e805462010000600160b01b031916620100006001600160a01b038481168202929092179283905560405192041681527f58fd5d9c33114e6edf8ea5d30956f8d1a4ab112b004f99928b4bcf1b87d6666290602001610efa565b6000918252600c602090815260408084206001600160a01b0393909316845291905290205460ff1690565b60606001805461064790613061565b6000818152600f6020908152604091829020805483518184028101840190945280845260609384939092919083018282801561104f57602002820191906000526020600020905b81546001600160a01b03168152600190910190602001808311611031575b5093979650505050505050565b600b546001600160a01b0361010090910416331461108c5760405162461bcd60e51b815260040161073290612f05565b6110a460008051602061314483398151915282611688565b604080516001600160a01b038316815260208101829052600b918101919091526a4d494e5445525f524f4c4560a81b60608201527f0578acc86b18d67c13a5e6eed8c670fb7052f530b48a2acb167d6ca77509a38490608001610efa565b6109d43383836118e6565b6000805160206131448339815191526111258161167e565b60005b8281101561114d5761113a8585611191565b50806111458161309c565b915050611128565b5050505050565b61115e33836113ee565b61117a5760405162461bcd60e51b815260040161073290612f3a565b610b96848484846119b5565b6060610632826119e8565b60006000805160206131448339815191526111ab8161167e565b60006111b6600d5490565b90506111c6600d80546001019055565b6111d08582611b57565b6111da8185611b71565b949350505050565b6000828152600c60205260409020600101546111fd8161167e565b610868838361170e565b600b546001600160a01b036101009091041633146112375760405162461bcd60e51b815260040161073290612f05565b6001600160a01b03811661129c5760405162461bcd60e51b815260206004820152602660248201527f4f776e61626c653a206e6577206f776e657220697320746865207a65726f206160448201526564647265737360d01b6064820152608401610732565b6109f881611811565b6000805160206131448339815191526112bd8161167e565b60006112c883610fea565b905060005b815181101561131a576113078282815181106112f957634e487b7160e01b600052603260045260246000fd5b602002602001015186611191565b50806113128161309c565b9150506112cd565b5050506000908152600f602052604090206001908101805460ff1916909117905550565b60006001600160e01b03198216637965db0b60e01b1480610632575061063282611bfc565b6000908152600260205260409020546001600160a01b0316151590565b600081815260046020526040902080546001600160a01b0319166001600160a01b03841690811790915581906113b582610b9c565b6001600160a01b03167f8c5be1e5ebec7d5bd14f71427d1e84f3dd0314c0f7b2291e5b200ac8c7c3b92560405160405180910390a45050565b60006113f982611363565b61145a5760405162461bcd60e51b815260206004820152602c60248201527f4552433732313a206f70657261746f7220717565727920666f72206e6f6e657860448201526b34b9ba32b73a103a37b5b2b760a11b6064820152608401610732565b600061146583610b9c565b9050806001600160a01b0316846001600160a01b031614806114ac57506001600160a01b0380821660009081526005602090815260408083209388168352929052205460ff165b806111da5750836001600160a01b03166114c5846106ca565b6001600160a01b031614949350505050565b826001600160a01b03166114ea82610b9c565b6001600160a01b03161461154e5760405162461bcd60e51b815260206004820152602560248201527f4552433732313a207472616e736665722066726f6d20696e636f72726563742060448201526437bbb732b960d91b6064820152608401610732565b6001600160a01b0382166115b05760405162461bcd60e51b8152602060048201526024808201527f4552433732313a207472616e7366657220746f20746865207a65726f206164646044820152637265737360e01b6064820152608401610732565b6115bb838383611c21565b6115c6600082611380565b6001600160a01b03831660009081526003602052604081208054600192906115ef908490613007565b90915550506001600160a01b038216600090815260036020526040812080546001929061161d908490612fbc565b909155505060008181526002602052604080822080546001600160a01b0319166001600160a01b0386811691821790925591518493918716917fddf252ad1be2c89b69c2b068fc378daa952ba7f163c4a11628f55a4df523b3ef91a4505050565b6109f88133611d80565b6116928282610fb0565b6109d4576000828152600c602090815260408083206001600160a01b03851684529091529020805460ff191660011790556116ca3390565b6001600160a01b0316816001600160a01b0316837f2f8788117e7eff1d82e926ec794901d17c78024a50270940304540a733656f0d60405160405180910390a45050565b6117188282610fb0565b156109d4576000828152600c602090815260408083206001600160a01b0385168085529252808320805460ff1916905551339285917ff6391f5c32d9c69d2a47ea670b442974b53935d1edc7fd64eb21e047a839171b9190a45050565b600b5460ff166117be5760405162461bcd60e51b815260206004820152601460248201527314185d5cd8589b194e881b9bdd081c185d5cd95960621b6044820152606401610732565b600b805460ff191690557f5db9ee0a495bf2e6ff9c91a7834c1ba4fdd244a5e8aa4e537bd38aeae4b073aa335b6040516001600160a01b03909116815260200160405180910390a1565b6109f881611de4565b600b80546001600160a01b03838116610100818102610100600160a81b031985161790945560405193909204169182907f8be0079c531659141344cd1fd0a4f28419497f9722a3daafe3b4186f6b6457e090600090a35050565b600b5460ff16156118b15760405162461bcd60e51b815260206004820152601060248201526f14185d5cd8589b194e881c185d5cd95960821b6044820152606401610732565b600b805460ff191660011790557f62e78cea01bee320cd4e420270b5ea74000d11b0c9f74754ebdbfc544b05a2586117eb3390565b816001600160a01b0316836001600160a01b031614156119485760405162461bcd60e51b815260206004820152601960248201527f4552433732313a20617070726f766520746f2063616c6c6572000000000000006044820152606401610732565b6001600160a01b03838116600081815260056020908152604080832094871680845294825291829020805460ff191686151590811790915591519182527f17307eab39ab6107e8899845ad3d59bd9653f200f220920489ca2b5937696c31910160405180910390a3505050565b6119c08484846114d7565b6119cc84848484611e24565b610b965760405162461bcd60e51b815260040161073290612eb3565b60606119f382611363565b611a595760405162461bcd60e51b815260206004820152603160248201527f45524337323155524953746f726167653a2055524920717565727920666f72206044820152703737b732bc34b9ba32b73a103a37b5b2b760791b6064820152608401610732565b6000828152600a602052604081208054611a7290613061565b80601f0160208091040260200160405190810160405280929190818152602001828054611a9e90613061565b8015611aeb5780601f10611ac057610100808354040283529160200191611aeb565b820191906000526020600020905b815481529060010190602001808311611ace57829003601f168201915b505050505090506000611b0960408051602081019091526000815290565b9050805160001415611b1c575092915050565b815115611b4e578082604051602001611b36929190612d72565b60405160208183030381529060405292505050919050565b6111da84611f31565b6109d4828260405180602001604052806000815250612009565b611b7a82611363565b611bdd5760405162461bcd60e51b815260206004820152602e60248201527f45524337323155524953746f726167653a2055524920736574206f66206e6f6e60448201526d32bc34b9ba32b73a103a37b5b2b760911b6064820152608401610732565b6000828152600a602090815260409091208251610868928401906127e0565b60006001600160e01b0319821663780e9d6360e01b148061063257506106328261203c565b600b5460ff1615611c675760405162461bcd60e51b815260206004820152601060248201526f14185d5cd8589b194e881c185d5cd95960821b6044820152606401610732565b611c7283838361208c565b600e5460ff1615156001141561086857600e546001600160a01b03838116620100009092041614801590611cba5750600e546001600160a01b03848116620100009092041614155b8015611cce57506001600160a01b03821615155b8015611d2f57506040516bffffffffffffffffffffffff19606084901b1660208201527f2737ae3b2bd6d6c72cf8b2980d313b701bc30259538be7ee03f14837058cb838906034016040516020818303038152906040528051906020012014155b8015611d4357506001600160a01b03831615155b156108685760405162461bcd60e51b815260206004820152600d60248201526c1cdbdd5b189bdd5b9908139195609a1b6044820152606401610732565b611d8a8282610fb0565b6109d457611da2816001600160a01b03166014612144565b611dad836020612144565b604051602001611dbe929190612da1565b60408051601f198184030181529082905262461bcd60e51b825261073291600401612ea0565b611ded81612326565b6000818152600a602052604090208054611e0690613061565b1590506109f8576000818152600a602052604081206109f891612864565b60006001600160a01b0384163b15611f2657604051630a85bd0160e11b81526001600160a01b0385169063150b7a0290611e68903390899088908890600401612e16565b602060405180830381600087803b158015611e8257600080fd5b505af1925050508015611eb2575060408051601f3d908101601f19168201909252611eaf91810190612ce7565b60015b611f0c573d808015611ee0576040519150601f19603f3d011682016040523d82523d6000602084013e611ee5565b606091505b508051611f045760405162461bcd60e51b815260040161073290612eb3565b805181602001fd5b6001600160e01b031916630a85bd0160e11b1490506111da565b506001949350505050565b6060611f3c82611363565b611fa05760405162461bcd60e51b815260206004820152602f60248201527f4552433732314d657461646174613a2055524920717565727920666f72206e6f60448201526e3732bc34b9ba32b73a103a37b5b2b760891b6064820152608401610732565b6000611fb760408051602081019091526000815290565b90506000815111611fd75760405180602001604052806000815250612002565b80611fe1846123cd565b604051602001611ff2929190612d72565b6040516020818303038152906040525b9392505050565b61201383836124e7565b6120206000848484611e24565b6108685760405162461bcd60e51b815260040161073290612eb3565b60006001600160e01b031982166380ac58cd60e01b148061206d57506001600160e01b03198216635b5e139f60e01b145b8061063257506301ffc9a760e01b6001600160e01b0319831614610632565b6001600160a01b0383166120e7576120e281600880546000838152600960205260408120829055600182018355919091527ff3f7a9fe364faab93b216da50a3214154f22a0a2b415b23a84c8169e8b636ee30155565b61210a565b816001600160a01b0316836001600160a01b03161461210a5761210a8382612626565b6001600160a01b03821661212157610868816126c3565b826001600160a01b0316826001600160a01b03161461086857610868828261279c565b60606000612153836002612fe8565b61215e906002612fbc565b67ffffffffffffffff81111561218457634e487b7160e01b600052604160045260246000fd5b6040519080825280601f01601f1916602001820160405280156121ae576020820181803683370190505b509050600360fc1b816000815181106121d757634e487b7160e01b600052603260045260246000fd5b60200101906001600160f81b031916908160001a905350600f60fb1b8160018151811061221457634e487b7160e01b600052603260045260246000fd5b60200101906001600160f81b031916908160001a9053506000612238846002612fe8565b612243906001612fbc565b90505b60018111156122d7576f181899199a1a9b1b9c1cb0b131b232b360811b85600f166010811061228557634e487b7160e01b600052603260045260246000fd5b1a60f81b8282815181106122a957634e487b7160e01b600052603260045260246000fd5b60200101906001600160f81b031916908160001a90535060049490941c936122d08161304a565b9050612246565b5083156120025760405162461bcd60e51b815260206004820181905260248201527f537472696e67733a20686578206c656e67746820696e73756666696369656e746044820152606401610732565b600061233182610b9c565b905061233f81600084611c21565b61234a600083611380565b6001600160a01b0381166000908152600360205260408120805460019290612373908490613007565b909155505060008281526002602052604080822080546001600160a01b0319169055518391906001600160a01b038416907fddf252ad1be2c89b69c2b068fc378daa952ba7f163c4a11628f55a4df523b3ef908390a45050565b6060816123f15750506040805180820190915260018152600360fc1b602082015290565b8160005b811561241b57806124058161309c565b91506124149050600a83612fd4565b91506123f5565b60008167ffffffffffffffff81111561244457634e487b7160e01b600052604160045260246000fd5b6040519080825280601f01601f19166020018201604052801561246e576020820181803683370190505b5090505b84156111da57612483600183613007565b9150612490600a866130b7565b61249b906030612fbc565b60f81b8183815181106124be57634e487b7160e01b600052603260045260246000fd5b60200101906001600160f81b031916908160001a9053506124e0600a86612fd4565b9450612472565b6001600160a01b03821661253d5760405162461bcd60e51b815260206004820181905260248201527f4552433732313a206d696e7420746f20746865207a65726f20616464726573736044820152606401610732565b61254681611363565b156125935760405162461bcd60e51b815260206004820152601c60248201527f4552433732313a20746f6b656e20616c7265616479206d696e746564000000006044820152606401610732565b61259f60008383611c21565b6001600160a01b03821660009081526003602052604081208054600192906125c8908490612fbc565b909155505060008181526002602052604080822080546001600160a01b0319166001600160a01b03861690811790915590518392907fddf252ad1be2c89b69c2b068fc378daa952ba7f163c4a11628f55a4df523b3ef908290a45050565b6000600161263384610d95565b61263d9190613007565b600083815260076020526040902054909150808214612690576001600160a01b03841660009081526006602090815260408083208584528252808320548484528184208190558352600790915290208190555b5060009182526007602090815260408084208490556001600160a01b039094168352600681528383209183525290812055565b6008546000906126d590600190613007565b6000838152600960205260408120546008805493945090928490811061270b57634e487b7160e01b600052603260045260246000fd5b90600052602060002001549050806008838154811061273a57634e487b7160e01b600052603260045260246000fd5b600091825260208083209091019290925582815260099091526040808220849055858252812055600880548061278057634e487b7160e01b600052603160045260246000fd5b6001900381819060005260206000200160009055905550505050565b60006127a783610d95565b6001600160a01b039093166000908152600660209081526040808320868452825280832085905593825260079052919091209190915550565b8280546127ec90613061565b90600052602060002090601f01602090048101928261280e5760008555612854565b82601f1061282757805160ff1916838001178555612854565b82800160010185558215612854579182015b82811115612854578251825591602001919060010190612839565b5061286092915061289a565b5090565b50805461287090613061565b6000825580601f10612880575050565b601f0160209004906000526020600020908101906109f891905b5b80821115612860576000815560010161289b565b600067ffffffffffffffff8311156128c9576128c96130f7565b6128dc601f8401601f1916602001612f8b565b90508281528383830111156128f057600080fd5b828260208301376000602084830101529392505050565b80356001600160a01b038116811461291e57600080fd5b919050565b600082601f830112612933578081fd5b612002838335602085016128af565b600060208284031215612953578081fd5b61200282612907565b6000806040838503121561296e578081fd5b61297783612907565b915061298560208401612907565b90509250929050565b6000806000606084860312156129a2578081fd5b6129ab84612907565b92506129b960208501612907565b9150604084013590509250925092565b600080600080608085870312156129de578081fd5b6129e785612907565b93506129f560208601612907565b925060408501359150606085013567ffffffffffffffff811115612a17578182fd5b8501601f81018713612a27578182fd5b612a36878235602084016128af565b91505092959194509250565b60008060408385031215612a54578182fd5b612a5d83612907565b915060208084013567ffffffffffffffff80821115612a7a578384fd5b818601915086601f830112612a8d578384fd5b813581811115612a9f57612a9f6130f7565b8060051b612aae858201612f8b565b8281528581019085870183870188018c1015612ac8578889fd5b8893505b84841015612b0557803586811115612ae257898afd5b612af08d8a838b0101612923565b84525060019390930192918701918701612acc565b50809750505050505050509250929050565b60008060408385031215612b29578182fd5b612b3283612907565b915060208301358015158114612b46578182fd5b809150509250929050565b60008060408385031215612b63578182fd5b612b6c83612907565b9150602083013567ffffffffffffffff811115612b87578182fd5b612b9385828601612923565b9150509250929050565b600080600060608486031215612bb1578283fd5b612bba84612907565b9250602084013567ffffffffffffffff811115612bd5578283fd5b612be186828701612923565b925050604084013590509250925092565b60008060408385031215612c04578182fd5b612c0d83612907565b946020939093013593505050565b600080600060408486031215612c2f578081fd5b833567ffffffffffffffff80821115612c46578283fd5b818601915086601f830112612c59578283fd5b813581811115612c67578384fd5b8760208260051b8501011115612c7b578384fd5b6020928301989097509590910135949350505050565b600060208284031215612ca2578081fd5b5035919050565b60008060408385031215612cbb578182fd5b8235915061298560208401612907565b600060208284031215612cdc578081fd5b81356120028161310d565b600060208284031215612cf8578081fd5b81516120028161310d565b60008060408385031215612d15578182fd5b823567ffffffffffffffff811115612d2b578283fd5b612d3785828601612923565b95602094909401359450505050565b60008151808452612d5e81602086016020860161301e565b601f01601f19169290920160200192915050565b60008351612d8481846020880161301e565b835190830190612d9881836020880161301e565b01949350505050565b7f416363657373436f6e74726f6c3a206163636f756e7420000000000000000000815260008351612dd981601785016020880161301e565b7001034b99036b4b9b9b4b733903937b6329607d1b6017918401918201528351612e0a81602884016020880161301e565b01602801949350505050565b6001600160a01b0385811682528416602082015260408101839052608060608201819052600090612e4990830184612d46565b9695505050505050565b6020808252825182820181905260009190848201906040850190845b81811015612e945783516001600160a01b031683529284019291840191600101612e6f565b50909695505050505050565b6020815260006120026020830184612d46565b60208082526032908201527f4552433732313a207472616e7366657220746f206e6f6e20455243373231526560408201527131b2b4bb32b91034b6b83632b6b2b73a32b960711b606082015260800190565b6020808252818101527f4f776e61626c653a2063616c6c6572206973206e6f7420746865206f776e6572604082015260600190565b60208082526031908201527f4552433732313a207472616e736665722063616c6c6572206973206e6f74206f6040820152701ddb995c881b9bdc88185c1c1c9bdd9959607a1b606082015260800190565b604051601f8201601f1916810167ffffffffffffffff81118282101715612fb457612fb46130f7565b604052919050565b60008219821115612fcf57612fcf6130cb565b500190565b600082612fe357612fe36130e1565b500490565b6000816000190483118215151615613002576130026130cb565b500290565b600082821015613019576130196130cb565b500390565b60005b83811015613039578181015183820152602001613021565b83811115610b965750506000910152565b600081613059576130596130cb565b506000190190565b600181811c9082168061307557607f821691505b6020821081141561309657634e487b7160e01b600052602260045260246000fd5b50919050565b60006000198214156130b0576130b06130cb565b5060010190565b6000826130c6576130c66130e1565b500690565b634e487b7160e01b600052601160045260246000fd5b634e487b7160e01b600052601260045260246000fd5b634e487b7160e01b600052604160045260246000fd5b6001600160e01b0319811681146109f857600080fdfe65d7a28e3265b37a6474929f336521b332c1681b933f6cb9f3376673440d862a9f2df0fed2c77648de5860a4cc508cd0818c85b8b8a1ab4ceeef8d981c8956a6a264697066735822122067678d0ea30798fc39558f326c08ea04c8ffba3a12f8b838e4b06c0c9de34d2564736f6c63430008040033",
  "linkReferences": {},
  "deployedLinkReferences": {}
}